:040000006F20C009A4
:100004000000000000000000900000208A0400208E
:10001400A9BDF9F5900000200000000000000000D8
:10002400900000209000002000000000000000006C
:10003400900000200000000090000020000000005C
:1000440090000020900000209000002090000020EC
:1000540090000020900000209000002090000020DC
:1000640090000020900000209000002090000020CC
:100074007E050020900000209000002090000020C9
:1000840090000020900000209000002090000020AC
:1000940001A073270080218B9387818609CB732766
:1000A400008023A4E18698435D9B731007800100C0
:1000B400010037170040930670052300D704930608
:1000C40080FA2300D704010001008346B70493F6A5
:1000D400F60DA305D7042300070473260080944378
:1000E400A18AD18E7390068023A4018601000100A9
:1000F40093760502638406180347A700118B25E74E
:1001040073270080218B09CB7327008023A4E18609
:1001140098435D9B7310078001000100371700406E
:10012400930670052300D704930680FA2300D704AE
:10013400010001008346A70093E646002305D7008B
:1001440023000704F32600809843218B558F7310F6
:10015400078023A40186010001001307004B01005E
:1001640001007D176DFF73270080218B09CB732756
:10017400008023A4E18698435D9B731007800100EF
:10018400010037170040930670052300D704930637
:1001940080FA2300D704010001007D892314A700FD
:1001A400010001000100010023000704F326008080
:1001B4009843218B558F7310078023A40186010077
:1001C400010073270080218B09CB7327008023A4AF
:1001D400E18698435D9B7310078001000100371787
:1001E4000040930670052300D704930680FA230089
:1001F400D7040100010001000100B72600401306E6
:100204001005A383C68023000704F32600809843C7
:10021400218B558F7310078023A4018601000100F0
:1002240073270080218B09CB7327008023A4E186E8
:1002340098435D9B7310078001000100371700404D
:10024400930670052300D704930680FA2300D7048D
:10025400010001008346B70493E60608A305D7040A
:1002640023000704732700809C43A18BD98F7390CC
:10027400078023A40186010001008280937605048F
:10028400638B06140347A700418B25E7732700807F
:10029400218B09CB7327008023A4E18698435D9BBF
:1002A40073100780010001003717004093067005A2
:1002B4002300D704930680FA2300D7040100010029
:1002C4008346A70093E606012305D700230007040D
:1002D400F32600809843218B558F7310078023A445
:1002E4000186010001001307007D010001007D1754
:1002F4006DFF73270080218B09CB7327008023A413
:10030400E18698435D9B7310078001000100371755
:100314000040930670052300D704930680FA230057
:10032400D704010001009376F50193E60604231433
:10033400D700010001000100010023000704F32697
:1003440000809843218B558F7310078023A4018666
:1003540001000100130760046310E50473270080A3
:10036400218B09CB7327008023A4E18698435D9BEE
:1003740073100780010001003717004093067005D1
:100384002300D704930680FA2300D7040100010058
:10039400B72600400946B5B573270080218B09CBE9
:1003A4007327008023A4E18698435D9B7310078024
:1003B4000100010037170040930670052300D7049D
:1003C400930680FA2300D70401000100B7260040F9
:1003D400130620053DB573270080218B09CB7327B5
:1003E400008023A4E18698435D9B7310078001007D
:1003F400010037170040930670052300D7049306C5
:1004040080FA2300D704010001008356870093E695
:10041400060C2314D700C5BB411181460146814512
:10042400114506C6152CF3270080A18B938681867F
:1004340089CBF327008023A4F1869C42DD9B739033
:10044400078001000100B7170040130770052380DF
:10045400E704130780FA2380E7040100010003C7BF
:100464006704136717002383E704238007047327B3
:1004740000809C42A18BD98F7390078023A40186AE
:1004840001000100B240410182808146014681455C
:100494001145D922F3270080A18B1387818689CB4C
:1004A400F327008023A4F1861C43DD9B739007800F
:1004B40001000100B7170040930670052380D7049C
:1004C400930680FA2380D70401000100FD56239689
:1004D400D70223800704F32600801C43A18BD58F09
:1004E4007390078023A4018601000100F327008094
:1004F400A18B89CBF327008023A4F1861C43DD9BC9
:100504007390078001000100B7170040930670053F
:100514002380D704930680FA2380D70401000100C6
:1005240083C6670493E616002383D7042380070455
:10053400F32600801C43A18BD58F7390078023A4DE
:1005440001860100010001A0BD473305F502010049
:100554007D1575FD8280411122C426C206C6AA8477
:10056400014463179400B2402244924441018280C2
:1005740005041305803E4204C13F4180DDB7B7172F
:100584000040130700032388E702854723AAF18864
:1005940073002030411106C6A92DFDBF230304803A
:1005A40015472303E48001002302A480828083078B
:1005B4006480E3CE07FE2303048082808307648083
:1005C400E3CE07FE03454480828083076480E3CE44
:1005D40007FE2302A4808280411126C44AC24EC071
:1005E40006C61377F50BAD47AA892E899544630691
:1005F400F70019456537653F8D444E854537FD59EC
:10060400FD1463983401B240A24412498249410165
:100614008280135509011375F50F453F2209CDB7A3
:10062400011126CC06CEB704080051371545BD3755
:10063400713769372AC6A53F32459377150089EB90
:10064400136515001375F50FF240E24405618280CD
:10065400FD14E9FC0145CDBF397126DC4ADA4ED8D8
:1006640052D656D45AD25ED006DE62CE66CCB7E7F6
:1006740000E07D5783AA070022C603AA470023A0EF
:10068400E71823A2E718B717004013077005238063
:10069400E704130780FA2380E70483C74704930B16
:1006A40075FFB684E20793FBFB0F8546AA892E8B60
:1006B400328937240040E187015763FA76016308E1
:1006C400D5008946130700026313D5000157D98F5B
:1006D40093F7F70FB71C00402382FC041147230350
:1006E400E4801305F00F5D3D094CD135636D7C1139
:1006F400B7050700DA9537870700795563F2E504F3
:10070400B3879500636EF702370B0800A94733EBF4
:1007140065016399F90689E48144513D26850DA05C
:10072400DA850945553D05090345F9FFFD14050B17
:10073400693D81C49377FB0FFDF7DD3569FD7D5578
:10074400B7170040130770052380E704130780FAE6
:100754002380E70403C74704418B2382E704F25054
:10076400B7E700E023A0571123A24711E254324413
:100774005259C259325AA25A125B825B724CE24CF1
:1007840021618280A5476395F90685691309F00FF5
:10079400B3069900B3742B01B6941349F9FFB374EB
:1007A4009900856B33796901416B9387F9FFB3F73E
:1007B400270199E363FC340193D94900C147E3E677
:1007C40037FF99BF0569C1697D19D9B71305800D34
:1007D4006388690113050002638479011305100815
:1007E400CA85DD3B353D21DD4E99B3843441D9B70B
:1007F400DA852D45D533CA94E30099F205097D3B8A
:10080400A30FA9FED5BF9387F9FF93F7F70F636191
:10081400FC0C83C71C0413073008631FF704370755
:100824000800636BEB04B3079B00B706100063F585
:10083400D704334BEB0089476393F9068980D54984
:10084400E38C04ECDA850945413B11090327C9FF10
:1008540091472320E48003076480E34E07FE2303CB
:100864003481FD17EDFBFD14110B81C49377FB0F4D
:10087400E9FF7D3371F5E1B5B717004003C75704AD
:10088400B70708001377070219E3B78707007955FC
:10089400E378FBEA33079B00E3FFE7F855B58547A8
:1008A400E382F9F2DA852D45053B9389F4FFE3856C
:1008B40004E6293393F7390091EB83260480032758
:1008C400090093074900E39AE6E43E89CE84F1BF28
:1008D400B5476396F9001305900BC93135BDB1478F
:1008E4001305B00AE38BF9FE99476391F904B70540
:1008F4000800B365BB002D45C53181448D4BA1492A
:10090400753963967401832704802320F9008504D4
:10091400E39834FF8327048013172B0163550700E2
:100924002312F900D5BB2322F900FDB39D47639937
:10093400F90281451305B0044531BD442320090063
:1009440023220900FD599D3993F77400CA9703C700
:100954000700FD14398D2380A700E39634FF6DBB97
:10096400A1476392F9046D398144630D0B008D47EF
:100974009304C0036308FB009304000563048B0124
:10098400930440041375C507E30895D81945393114
:1009940039390545213126850D3909453D3149311E
:1009A400E31C05D669BB91476399F90013056006FA
:1009B400F536F53E130590090DB7E38F09D4F154CC
:1009C400A9BB19CD91CD09CE81473387F500834664
:1009D40007003307F50085072300D700E317F6FE69
:1009E400828019C991C909CA910583A7C5FF110558
:1009F4007D16232EF5FEC5BF828001C919C62A962D
:100A04000505A30FB5FEE31DA6FE828081473307CB
:100A1400F5000307070019E33E8582808507C5BFFB
:100A240001112E8626CAAA84131506019305F00423
:100A3400418122CC06CE32C6EF00F0592A8401C58A
:100A44003246A685BD3F2285F2406244D244056108
:100A54008280854715C18DC105C28147B306F50063
:100A64003387F50083C60600034707006398E60052
:100A74008507E315F6FE85473E8582808147EDBFF5
:100A84009307F6FFBE952A966313C5008280FD1571
:100A940083C715000505A30FF5FEFDB7AA87014519
:100AA40081CF09CE3E96850703C7F7FF6317B700CA
:100AB400E39BC7FE0545828082800145828079716F
:100AC4009387C18B22D4804306D626D24AD04ECEF9
:100AD40052CC56CA5AC85EC65DCCB7C4C901014BD4
:100AE4009389418B9384F437174A0000130A0A55FB
:100AF400974A0000938A4A58174900001309095C71
:100B04008357240085E35C44631B0B0023AEF18A06
:100B1400832BC4002285EF0070585E84B9A8232675
:100B2400FB00FDB783A7090082971C443307F540F7
:100B34006376F500032749001D8F2A9763E0E408D4
:100B44009747000023A2075483552400034504005B
:100B5400974000E0E78040AB5C405844A1CB0C4494
:100B640003264900AE97BE8663E4B70063E4C7007A
:100B7400B386C74014C4228B3A8459F097470000C7
:100B84009387874F9C4B09476370F706F9171747FC
:100B94000000232BF74EB250225492540259F249CA
:100BA400624AD24A424BB24B4561828063150B00C4
:100BB40023AEE18AB1BF2326EB0099BF03274A0283
:100BC40009CF63EFA7003385A74083A70A016376A3
:100BD400F5009747000023A9A74A228B404471BF20
:100BE40003274900BA97C5B79747000023AE0748C3
:100BF4005DB7411122C4174400001304644A1C4029
:100C040006C626C24AC091C782979747000023A907
:100C140007489747000083C77762858B9744000095
:100C24009384846195C397470000A389076083C7B1
:100C340074001547637AF700C12B83C77400F51756
:100C44008A07A2979C4382971C4491C38297138975
:100C5400818A03270900174600000346F641974797
:100C6400000083C7674193961700BA9683D606009F
:100C7400C5CE9747000083C7274063E1C70C974759
:100C84000000238B073E1C40639507129747000022
:100C940083C7175B91CF83C7740093F7F70F89EB72
:100CA40097470000A38E0758978001E0E780006A09
:100CB4009387418B9C43638E070E9747000093876D
:100CC400E73FDC43174700002320F73CCD3B974721
:100CD40000009387A736DC53E9CF174700001307BA
:100CE400A739184B9747000083C797366363F70CFF
:100CF40083C774001547636EF70A9747000083C7DC
:100D04002758918BDDE7032609009746000083C628
:100D1400B63663C6D70A2244B2409244024941011E
:100D2400174300E06700E3D5850793F7F70F97466D
:100D340000002383F634E3E4C7F225BF86073E9719
:100D440083550700231007002398018A9387018C99
:100D54009C43174500000345253213172500BA9715
:100D64009C43829783D7018B174700000347C73002
:100D740093C7F7FF7D8D93171700032709003E974C
:100D8400835707005D8D2310A7009747000083C792
:100D9400A72E91C7850717470000230FF72C174785
:100DA40000000347672D9747000083C7F72CE378BB
:100DB400F7ECB240224492440249410182801397E5
:100DC40017003297035707006DF7850799B7AD678A
:100DD40037C70040BD072326F7200F1000009747B0
:100DE400000093876729C84F83278726BD66BD0601
:100DF40093C7F7FF99836A052326D7205D8D8280E8
:100E04004111B7170040985F3AC6945F3247E39C9C
:100E1400E6FE3245410182801305F00F8280011104
:100E240022CC604126CA4AC84EC652C406CEAA8401
:100E34001D4A130965058549BC446364F4000545EE
:100E4400B9A003C7D40083474400631A470503C706
:100E540084026304F7000040C5B70347540083C706
:100E64005405E31AF7FE1946CA8513056400D536FE
:100E7400E31335FF0347C40083C79402E31DF7FC63
:100E84000357E40083D7A402E317F7FC0145F240BB
:100E94006244D2444249B249224A05618280E31C39
:100EA400F7FA0347540083C75405E316F7FA1946C3
:100EB400CA8513056400713EE31F35F9C1BF0111F2
:100EC400974700009387874322CC03A4070C26CAC4
:100ED40006CE2AC42EC6854419E40145F240624474
:100EE400D244056182808347910003471400858BB7
:100EF4006304F7000044CDB719469305A100130518
:100F04002400813EE31895FE0545C9BF1387C198A7
:100F14001C439306001094C301000100010001006A
:100F24001C4323A007008346150003482500A2069E
:100F34004208C29603480500C29603483500620879
:100F4400C29694D78346550003486500A20642081A
:100F5400C29603484500C296034875006208C296CB
:100F6400D4D7834695000348A500A2064208C2963A
:100F740003488500C2960348B5006208C29694DB14
:100F84008346D5000348E500A2064208C2960348FA
:100F9400C5000345F500C2966205AA96D4DB83C654
:100FA400150003C52500A2064205AA9603C505003F
:100FB400AA9603C535006205AA9694CF83C6550048
:100FC40003C56500A2064205AA9603C54500AA9674
:100FD40003C575006205AA96D4CF83C6950003C5E0
:100FE400A500A2064205AA9603C58500AA9603C5D4
:100FF400B5006205AA9694D383C6D50003C5E5005F
:10100400A2064205AA9603C5C50083C5F500AA96A3
:10101400E205AE96D4D3D443F59AD4C3D44393E62D
:101024001600D4C3944393E6160094C3BA8794433A
:10103400D842058B59E3984E01452300E6009843B6
:10104400184F2183A300E6009843184F41832301DE
:10105400E6009843184F6183A301E6009C43D84FF0
:101064002302E600D84F2183A302E600D84F418330
:101074002303E600D84F6183A303E60098532304B7
:10108400E60098532183A304E60098534183230583
:10109400E60098536183A305E600D8532306E600CF
:1010A400D8532183A306E600D85341832307E600DF
:1010B400DC53E183A307F600828001008DBF138710
:1010C40001991443411122C49C5E4AC006C6998307
:1010D40026C2858B3A841389C198D1C79C5E9744F4
:1010E40000009384641593F7F7F99CDE174700001A
:1010F4000347E71493070008631BF70083270900DD
:101104009C4393F7070417470000230AF71283C789
:10111400040093F707048DC39387418B9C43829704
:101124009747000023A2A71283C7040093F7F70B85
:10113400174700002302F71083C7440093F70704FE
:101144009DE3854717470000A30AF70E9387C199CB
:101154009C43096798C7130700FC97460000238F38
:10116400E60CD844F8D31C40985F1183058B09CB57
:10117400985F3D9B98DF0547974600002380E60C67
:10118400985F1D83058B11CB985F1377F7F798DF72
:101194008547174700002303F70A83270900D8432C
:1011A4000583058B19C7D843759BD8C3D843799B4E
:1011B400D8C3B24022449244024941018280397129
:1011C40006DE16DC1ADA1ED82AD62ED432D236D04F
:1011D4003ACE3ECC42CA46C872C676C47AC27EC0F3
:1011E400F93DF250E2525253C2533255A2551256AF
:1011F40082567247E2475248C248324EA24E124FBC
:10120400824F2161730020309387C199944397479B
:1012140000009387670203C70700058B11CB97472C
:101224000000238D070097470000A38907008280F0
:1012340003C71700058B65F7F85271FF83C7570082
:10124400DDB713880199032708001C5F9583858BFC
:10125400D1E709C61C5BBD832300F60085CA83273A
:101264000800985B4607935767016356070093E7A6
:1012740007C0C207C18303970600C207C18709C715
:10128400BA970947B3C7E7022390F60085CD834791
:1012940015008DCB9746000083C666FA93F60604C4
:1012A4001387970089478DCA3A95034705008546F9
:1012B40099471376F7066311D60262076187B94727
:1012C400634C0700832708009C5FED838D8B1747D1
:1012D4000000A308F7F681473E8582808547EDBF6D
:1012E400411122C406C61384C19918402DE9AE8762
:1012F4007453FDFE3E85B28597470000238F07F2A5
:10130400978001E0E780C0D9938701999C43B70691
:1013140080009843558F98C3D857719BD8D7974767
:101324000000A38D07F097470000A38707F01C4037
:10133400094798C31440174700001307E7EF834792
:101344002700858B89EB83473700858BD9C3974763
:101354000000238507EEB2402244410182808D477C
:10136400631EF500938701999C43B7068000984358
:10137400558F98C3D857719BD8D76DBF8547E31B4A
:10138400F5FA5447F977FD17F58F5CC70F10000085
:101394001C40096798C7130700F817460000230F7D
:1013A400E6E8138701991043184231830D8B11E746
:1013B40013076019F8D3D4C7B5BF1842094631835F
:1013C4000D8B6315C7001307E043EDB71307E01B4C
:1013D400D5B7FC52ADF741B75D71A2C4A6C22A8449
:1013E400130680022800AE849305100886C6CAC07E
:1013F4004EDE52DCEFF06FE03545978001E0E78088
:10140400800613830199832703009376F41F138EB8
:10141400419A23A40700984B938EC199370FFCFF80
:101424001367F70398CBF84F130510F8B7020400BD
:10143400137707E0558FF8CF9843F576FD16758F2F
:1014440098C39843B7063300930380251377F7E7CF
:1014540098C3984311497D1F1377F7E71367071063
:1014640098C303270E008549930F80021C47D58F2C
:101474001CC783A70E001307900D3400B8CB014797
:1014840093553700A69583C7050013767700B3D725
:10149400C740858BE1C38327030083280E00239C68
:1014A40007042390070603A8C8021378D8FF23A6CD
:1014B400080383A807001378F70793F808F833E8BC
:1014C400080123A0070103A847023368580023A298
:1014D400070383A80E00014823A2780603DA07064F
:1014E4006307480303A80703038A06001358F80098
:1014F40062081358884163580A0103A80703135864
:10150400F8002380060103D807061378F80F03AA0E
:10151400480663060A0003DA8705E37F49FB03A84C
:1015240047023378E80123A2070383870600635C3C
:10153400F40003C805003396C9001346F6FF33765A
:1015440006012380C5003E8663D3A7002A861315AF
:101554008601618505071377F70F8506E312F7F314
:10156400B640264496440649F259625A6161828023
:101574009386C1999C42D8471316170163550602F6
:10158400984713161701635006027D57B8D71747BB
:101594000000130767AE584F050717460000232BBA
:1015A400E6AE116798C798470D83058B1DC317478F
:1015B4000000034787C81367170017460000230E6F
:1015C400E6C6130700F8174600002309E6C62147BC
:1015D40098C79847058B09CF174700000347D7C51D
:1015E4001367170017460000A308E6C4054798C709
:1015F40098470983058B09E798470583058B21CF15
:10160400984717460000130626C3138501990983DA
:10161400058B630307101841184331830D8B75EB59
:10162400AC4B184E93F5050203471700CDCD79EF67
:1016340013077006D8CF0347060013671700174631
:101644000000230BE6BE114798C718415C57F19B75
:1016540093E717005CD79C4298479316370163D6EB
:1016640006029746000083C6E6D0C18A17470000E9
:101674001307C7C8C5CE03478707136707029746F2
:1016840000002389E6CE056798C79847931627017B
:1016940063D1060217470000034747BA6207618710
:1016A400635707000547974600002389E6B8096792
:1016B40098C798479316070163D606029746000019
:1016C40083C656CB858A17470000130727C3ADCEC0
:1016D400034797071367270097460000A38CE6C8C3
:1016E400216798C7828029D785456315B7001307FA
:1016F400B00689B789456315B7001307F0061DBF07
:101704008D456315B700130730072DB7130750072E
:1017140015B71307600739BF03473600136717006F
:1017240017460000A30BE6B0094739BF8346870775
:101734000946BD8A6388C600034787078D463D8BEB
:10174400E313D7F4114725BF83469707918AC9DA73
:10175400034797071367870041B7397106DE16DC24
:101764001ADA1ED82AD62ED432D236D03ACE3ECC6D
:1017740042CA46C872C676C47AC27EC0D53BF2500D
:10178400E2525253C2533255A255125682567247F0
:10179400E2475248C248324EA24E124F824F216154
:1017A400730020309387C19998438567938707779F
:1017B4007CD39387419A9C4383A6070913965600CA
:1017C4006358060083A6070913966600634406005F
:1017D4007453FDF2828061C1AA870145DDCD8D0776
:1017E400C207C183F19BC207C18313074003636B24
:1017F400F702138781A30843138701A31443639655
:10180400A6021747000013076783185B014551C7F9
:101814004111C20706C60545DD8D0297B240014558
:1018240041018280138741A3F9B70357650035E36B
:1018340003574500636FF704B306F7402146637C02
:10184400D60203280500938687001D8FAA96611788
:10185400174600000356A6822392E60023A0060141
:101864002393060014C12312F500130786FF97463D
:1018740000002396E6802313B5009745000083D526
:101884000580B387F54017370000231AF77E21053A
:1018940082800841ADB701458280828009CD93875B
:1018A40081A303A30700938701A383A807008146AC
:1018B4009A8763E31701828003A807006369F50A26
:1018C4006367A80A13878700E367E5FE03D667000A
:1018D400216705076317E60003C7C1950507238E33
:1018E400E194973500009385257903D6470003D703
:1018F40065002393070032974207418317350000A0
:10190400231FE57663886702138541A308416303B7
:10191400F50203D5660019ED83D7460023A006011E
:1019240021073E9621062392C6009737000023988C
:10193400E774B6879843E30017F9938641A394426A
:10194400E30BD7F683566700BDF683D647000356EC
:1019540047001843A106B2962392D70098C383D7B1
:101964006500A10717370000231BF7708280BE862D
:10197400C28781B70327851163020712411122C46C
:1019840006C68347C5008345E5042A8493F7C70F39
:101994002306F500834697000356C7001395860176
:1019A400618563F2C508635B05060345870093F60A
:1019B400F607A304D700054693E627006314C50081
:1019C40093E617002306D4005C4389075CC3A30A8B
:1019D400B400032504112E864C430905EFE07FFE75
:1019E4008327841103465401D44303D7C700B29616
:1019F400118FD4C32396E7008947A30DF40003474E
:101A040064039737000083C787646378F7048347C8
:101A1400C40093E707012306F40081A093E71700AD
:101A24002306F4006DB79376F60F635D0502034554
:101A34008700854513E627006314B50013E61700F5
:101A44002306C400A30AD400A30407008547A30DFA
:101A5400F400832784119C43DDF3B2402244014502
:101A64004101828093E717002306F400A30AD400FF
:101A7400A3040700032504114C430905EFE07FF498
:101A84008327841103465401D44303D7C700B29675
:101A9400118FD4C32396E7008D4755BF0545828037
:101AA400938781A49C43411122C406C6858B2A8452
:101AB400C5EF4165130525F5974002E0E78060D640
:101AC40045C58347A5002315F50083270412BDE708
:101AD4002320A4122322A41285472311F4042320D3
:101AE40005008347640154412316F5000347D400DD
:101AF4002304E5000547A304E50017370000130796
:101B0400A773184F1385170215811C437D15137590
:101B1400F50F9CC25C43DCC21C479CC65C47DCC618
:101B24001C4B9CCA5C4BDCCA1C4F9CCE5C4FDCCE6D
:101B340019CD9386060213070702C1BF83274412F7
:101B440088C3835724042322A412850779B79737BF
:101B5400000083D7277B8507173700002314F77A03
:101B6400B2402244410182808347C4002309040017
:101B7400054593C747002306F400DDB78347850175
:101B840093F7E70FC5EF83479501CDEB0346250196
:101B94008346C50009CA8345650317370000034718
:101BA400174B63E7E50013F7060151CB014709C65C
:101BB400C18A0357651C81C68356A51C369741C349
:101BC4001307C712173500000355C54FB335A702D5
:101BD40037460F00411113060624814622C426C24B
:101BE40006C67D543305A702978002E0E780E0F340
:101BF4009737000083C71746B384A70097370000C0
:101C04009387C76F03A787098327070963F38700AF
:101C14003E84184375FB9387418B9C43829781478D
:101C24006364A400B307A440B2402244B3B797004E
:101C340093C7170092443E854101828081473E85C7
:101C440082809387C19998437C53FDFF8280797188
:101C540026D206D622D44AD04ECE52CC56CA5AC820
:101C64005EC68347550303447513AA843E941374D4
:101C7400F40F9307400263F687001304B4FD137452
:101C8400F40F03AA841383AAC413A38B8412228699
:101C94005285D685978002E0E780A0E3058915E5A3
:101CA40003CBD41201498149337B6403930B500263
:101CB4004A865285D685978002E0E78080E10589CF
:101CC40015C5639169031374F90F238B8412B25001
:101CD400225492540259F249624AD24A424BB24BBC
:101CE400456182808509E20993D989410509E31197
:101CF40079FDE1BF8327850903560504797193D6DD
:101D04000701BD8EC206C182358E135776409357A4
:101D14005640898B058B5D8F93573640918B5D8F31
:101D240093571640A18B5D8F93171600C18B5D8F5F
:101D34009317360093F707025D8F93175600935558
:101D4400860093F707041E065D8F1376F60F518FF6
:101D540093D7554013D63540118A898BD18F13D62A
:101D64007540D18F13D61540218AD18F1396150053
:101D7400418AD18F1396350013760602D18F1396BC
:101D84005500137606049E05D18F93F5F50FCD8F7C
:101D9400A20745465D8F3307C70222D42A8426D280
:101DA40052CC56CA032A8413832AC4135AC806D6AB
:101DB4003697420741839357774013555740098913
:101DC400858BC98F135537401189C98F1355174017
:101DD4002189C98F131517004189C98F131537003D
:101DE40013750502C98F1315570093558700137592
:101DF40005041E07C98F1377F70FD98F13D5354004
:101E040013D755401189098B498F13D57540498FD4
:101E140013D515402189498F139515004189498FA0
:101E24001395350013750502498F139555001375E5
:101E340005049E05498F93F5F50F4D8F2207D98F21
:101E4400B387C7024AD04ECE5EC662C4B697C207F5
:101E5400C18313D7774013D557400989058B498F20
:101E640013D537401189498F13D517402189498FDC
:101E7400139517004189498F13953700137505028F
:101E8400498F1395570093D58700137505049E0752
:101E9400498F93F7F70FD98F13D5354013D7554092
:101EA4001189098B498F13D57540498F13D5154076
:101EB4002189498F139515004189498F1395350060
:101EC40013750502498F13955500137505049E0576
:101ED400498F93F5F50F4D8F2207D98FB387C7022A
:101EE400130650025285D685B697BD8E939406018B
:101EF400C18033F6C402137BF60F978002E0E780BB
:101F040040BD05890DED8347D41201498149B3844D
:101F14009702130C5002C1804A865285D685978059
:101F240002E0E78000BB0589937BF90F11C5638646
:101F34003403850993F9F90F0509E31F89FD230B80
:101F44006413B250225492540259F249624AD24A5A
:101F5400424BB24B224C456182805E8BCDB7797186
:101F640022D406D683C735002E8423160100A30786
:101F7400F10083C74500100802C02307F10083C79E
:101F840055008A8502C2A306F10002C402C802CA2F
:101F940002CC02CEEFE09FF70347F1018347040030
:101FA40001456310F7020347E1018347140001452B
:101FB4006319F7000345D101834724001D8D1335B0
:101FC4001500B250225445618280011197370000F8
:101FD4009387C73222CC03A4870C26CA4AC84EC6AC
:101FE40006CEAA8413092500854915C083C71400A9
:101FF40003473400858B6304F700405CFDB7194642
:10200400930544004A85EFE0DFA4E31835FF2285F9
:10201400F2406244D2444249B2490561828041118E
:10202400973700009387872D22C403A4870C26C208
:102034004AC006C693042500054901E82285B2403A
:1020440022449244024941018280A6851305A402D8
:102054003937E30525FF405CCDB7411197370000C0
:102064009387C72922C403A4870C26C24AC006C684
:1020740093042500054901E82285B2402244924494
:10208400024941018280A6851305A401C93DE305E7
:0820940025FF405CCDB7000000
:10209C00971100209381C1C6176100201301C1F56F
:1020AC001305400097E5FF1F938505F517060020E3
:1020BC00130606FE63FAC5008322050023A0550013
:1020CC0011059105E3EAC5FE17A50200130505FCF1
:1020DC00970500209385C5FB1386818663FAC5009E
:1020EC008322050023A0550011059105E3EAC5FEE6
:1020FC001385818697350020938545326377B5002B
:10210C00232005001105E36DB5FEFD42739002BC62
:10211C008D4273904280930280087390023097E254
:10212C00FF1F938262ED93E232007390523097124C
:10213C000000938222CD73901234730020303D4303
:10214C002A876373C3029377F700BDEFADE59376EF
:10215C0006FF3D8ABA960CC34CC30CC74CC741074B
:10216C00E36BD7FE11E28280B306C3408A06970266
:10217C00000096966780A6002307B700A306B70059
:10218C002306B700A305B7002305B700A304B700C7
:10219C002304B700A303B7002303B700A302B700BF
:1021AC002302B700A301B7002301B700A300B700B7
:1021BC002300B700828093F5F50F93968500D58D9B
:1021CC0093960501D58D61B7939627009702000071
:1021DC0096968682E78086FA9680C1171D8F3E966A
:1021EC00E374C3F8A5B7B717004003C77705137797
:1021FC00E70FA38BE704130700F8A38DE7043D4713
:10220C00238CE70413075003A38CE704828041114D
:10221C002A83014E930E407E130F0019930F400634
:10222C0063E66E149308001913034006B378150384
:10223C00854E0D4FA14F337365020D891335150073
:10224C0063E0BE161308F6FF7946729842081358DD
:10225C0008013307C70213D61700BE073297614631
:10226C00B3F6C60213068070B386C6023697A16613
:10227C00F58F42075D8FB716004083C7F60293F7C0
:10228C000708A307F1000346F10083C7F60293F792
:10229C000708E394C7FE8347F100B716004093F795
:1022AC00F70F63890714F3270080A18B938681862F
:1022BC006398071401000100B7170040130670055E
:1022CC002380C704130680FA2380C7040100010091
:1022DC0023AA070303C6170313660608A388C702BD
:1022EC0023800704732600809C42A18BD18F7390AE
:1022FC00078023A40186010001001166B715004078
:10230C007D16DC59C85DA98FF18FE5FFF32700809E
:10231C00A18B89CBF327008023A4F1869C42DD9B03
:10232C007390078001000100B71700401306700579
:10233C002380C704130680FA2380C7040100010020
:10234C00D8DB03C7170313670704A388E7022380AE
:10235C000704732700809C42A18BD98F7390078050
:10236C0023A4018601000100410182807D133368A2
:10237C00E3039308E016630E08003368F303930835
:10238C00D016630808009378330093B8180093882C
:10239C00D81633081E01131E0801135E0E0149B531
:1023AC006393E50305486386080001486303030053
:1023BC002A8871087298FD15131E0801C205135E58
:1023CC000E01C181B5BD13F8150063F4BF00790887
:1023DC00D5B713381800E5BF83C7F60293F7070883
:1023EC00A307F1000346F10083C7F60293F7070831
:1023FC00E394C7FE8347F10093F7F70FF1DF65B560
:10240C00F327008023A4F1869C42DD9B7390078008
:10241C0055B5914763EEB70217970200130707DF14
:10242C008A05BA959C41BA978287B717004003A7D3
:10243C00470B1345F5FF698F23AAE70A03A7070B80
:10244C00698F23A8E70A03A7070A798D23A0A70A97
:10245C008280B717004083A6470B1347F5FFF98E10
:10246C0023AAD70A83A6070B558D23A8A70A83A6F0
:10247C00070A758F23A0E70A8280B717004003A7CD
:10248C00470B498F23AAE70A03A7070B1345F5FF50
:10249C0045BFB717004083A6470B1347F5FF758F51
:1024AC0023AAE70A03A7070A598D4DB7B7170040AF
:1024BC0003A7470B498FEDB7914763EEB702179708
:1024CC0002001307E7D58A05BA959C41BA97828713
:1024DC00B717004003A7470D1345F5FF698F23AAD3
:1024EC00E70C03A7070D698F23A8E70C03A7070CBC
:1024FC00798D23A0A70C8280B717004083A6470DC7
:10250C001347F5FFF98E23AAD70C83A6070D558D1B
:10251C0023A8A70C83A6070C758F23A0E70C828039
:10252C00B717004003A7470D498F23AAE70C03A751
:10253C00070D1345F5FF45BFB717004083A6470DA0
:10254C001347F5FF758F23AAE70C03A7070C598DCA
:10255C004DB7B717004003A7470D498FEDB7B71715
:10256C00004003D7870109C5D98D239CB700828011
:10257C0093C5F5FFF98DD5BFB717004003D587007C
:10258C00420541819377050491EB9377F50137551B
:10259C00E801130505803345F50282809377050C1D
:1025AC00130700046397E7009377F50137459C1CEC
:1025BC00CDB72165130505D08280B7F700E08847B9
:1025CC00CC478280814737370040A14663C4C7009F
:1025DC00328582800345B740E38EA6FE3385F50035
:1025EC000345050085072304A740CDB797070020B6
:1025FC00938707F19C4317370020130727E23E957A
:10260C00636EE500175700201307077F6368A70068
:10261C00170700202326A7EE3E858280FD57EDBFCD
:10262C00411122C406C62A84813F2947B307E5021B
:10263C00B2408D83B3D7870222449507B3D7E70204
:10264C0037370040C207C1832316F740410182800F
:10265C00716541111305052006C6D937B7370040FF
:10266C00130770F82381E7400D47A381E740130758
:10267C000004A380E74005472387E740B2404101AF
:10268C008280CC41411106C6328503C6150083C534
:10269C00050022064D8E42068D654186138875A273
:1026AC00630C060F6348C804138845A26306060B27
:1026BC00634AC800938535A26309B60623900600C9
:1026CC00294679A0138855A26308060B938565A249
:1026DC00E316B6FEC1451D4663ECE5064546198E6C
:1026EC0063F3C7003E862390C6009795020093853E
:1026FC0065B589A8138895A26300060F634E060B77
:10270C001388A5A2630A060F938505A5E318B6FAEC
:10271C0099451D4663EEE502198E63F3C7003E86AC
:10272C002390C6009385C18031A89D451D4663E169
:10273C00E5022146198E63F3C7003E862390C6003E
:10274C009385C186BA9597E0FF1FE7800027014665
:10275C00B240328541018280AD451D46E3EAE5FE7B
:10276C003146198E63F3C7003E862390C6009795B9
:10277C0002009385E5B0F9B7B1451D46E3EAE5FCE7
:10278C003546198E63F3C7003E862390C600979595
:10279C0002009385E5AF7DB7C1451D46E3EAE5FA36
:1027AC004546198E63F3C7003E862390C600979565
:1027BC000200938565AA79B7C1451D46E3EAE5F8A1
:1027CC004546198E63F3C7003E862390C600979545
:1027DC0002009385E5ACBDB7C1451D46E3EAE5F6BD
:1027EC004546198E63F3C7003E862390C600979525
:1027FC0002009385A5A7B9B7B5451D46E3EAE5F4F4
:10280C003946198E63F3C7003E862390C600979510
:10281C000200938525A23DB7970600209386469A21
:10282C004146CD4517050020130585866FA0204035
:10283C002D453DEF03C5050009476317E5063285B5
:10284C00D041411106C603471600034606004168F5
:10285C002207518F130628FE6308C7026369E6003E
:10286C000518630307032390060029451DA81306CA
:10287C0048FE630BC7001518E31707FF15473E8684
:10288C006377F700154621A03E8691C30546CC45DB
:10289C002390C6004206418297E0FF1FE780E011BB
:1028AC000145B2404101828023900600054582809B
:1028BC00828083C7850093F70702E1E3411106C6C6
:1028CC0022C426C24AC003C9050009432E88854785
:1028DC00631B690203A345003284B684834713004B
:1028EC0003430300A207B3E767004163130E13FE13
:1028FC006382C7030D13638B67040D68130828905C
:10290C0063850707A947B2402244924402493E8599
:10291C0041018280AD4765FB0547B547E365D7FEAE
:10292C000325C8000546A28597E0FF1FE780E00855
:10293C0001499387C1889843814771D7184361D760
:10294C002686A2854A850297814775BFAD4745FF0C
:10295C000547B547E369D7FA0325C8000546A285A4
:10296C0097E0FF1FE7806005E9B72244B24092442C
:10297C000249854741016F80806DA1473E85828069
:10298C0041677917630CE502411122C406C68547DD
:10299C002A84639AF50022852244B240938541A68D
:1029AC0041016FA0A03389476396F5008545EFC0C0
:1029BC00A06775D1B24022444101828082804111CE
:1029CC0022C42A844165938541A67D1506C6EFA0D5
:1029DC00E030170500001305E5FA0588EFC0005C30
:1029EC0005C02244B240970600209386268F4146AC
:1029FC00C54517F5FF1F1305657D41016FA0202309
:102A0C00B240224401454101828009C523A6A18818
:102A1C0001458280454582801147636EA7069796D3
:102A2C000200938626890A0536951841411106C67F
:102A3C003697AE87B285028705476145639AE700F2
:102A4C0005461385418797E0FF1FE78000F7014596
:102A5C00B2404101828005476145E39BE7FE054694
:102A6C0013858187CDB705476145E393E7FE05469E
:102A7C001385C187C9BF05476145E39BE7FC054644
:102A8C0013850188C9B715476145E393E7FC1546E3
:102A9C00138541884DBF09458280411122C42E8483
:102AAC00938541A626C206C6AA84EF8000550589E7
:102ABC0015C197F7FF1F9387677183D7A70BA28563
:102ACC00B2402310F4002244268592440146410171
:102ADC006F90802FB240224492444945410182803C
:102AEC00411193962500AA852D4506C697E0FF1F38
:102AFC00E78000B6B240014541018280411126C2F7
:102B0C009394250022C44AC02A843289A686AA85B9
:102B1C000146254506C697E0FF1FE78060B3A686F1
:102B2C004A86A285294597E0FF1FE78060B2B24034
:102B3C00224492440249014541018280011122CC78
:102B4C0006CE3714004026CA4AC84EC652C4834427
:102B5C007405034AB4058349840503499405EFF0D1
:102B6C008FE88347A40593F4F40F137AFA0F93E7D5
:102B7C001700230DF40493F9F90F1379F90FB71714
:102B8C00004003C7A705058B6DFF03D5C705A38DB3
:102B9C004705238C3705A38C2705A38B9704F2409C
:102BAC006244D2444249B249224A056182804111B1
:102BBC009397050122C406C6C1872E8463DD0700E6
:102BCC00EF10807219C1EF10006B2165218DB2409E
:102BDC0022444101828093F7150013C51500E5FBD3
:102BEC009397250163DF0700EF60913437F60200FD
:102BFC00130606E0896503C50189EF10B036096537
:102C0C00F1B7939715010145E3D307FC1785020033
:102C1C0013050570EF70E24613060064916503C559
:102C2C000189EF103034116555B71D7149469785F0
:102C3C0002009385656917950200130525E886CE79
:102C4C0097E0FF1FE78060E001E91785020013059C
:102C5C00E568EF70024301A0B7F600E0795798CA17
:102C6C00FD57DCCA0567B7E700E023A0E7101306A1
:102C7C00F00290C223A0E718010001001306C00364
:102C8C008145480897E0FF1FE780A0D697070020F2
:102C9C00938707AE3ECA8D6793870780231CF1008C
:102CAC00B5472304F102A167938707E03ECEB7072F
:102CBC000105938707103ED0ED472312F10285479B
:102CCC002303F102970700009387C7E1BEC497075F
:102CDC0000009387E7E2BEC6BD47A305F102B7F536
:102CEC000700970700009387878D3EDA8146970788
:102CFC0000009387E7E47000E10519453EDE97E09C
:102D0C00FF1FE780E09458088147994670003E9673
:102D1C000346060085070507A30CC700E398D7FEFA
:102D2C00D24791C70357810185676373F70001A0F0
:102D3C004808EF10B077AA8501C917850200130562
:102D4C00255BEF70622201A0F64025618280411163
:102D5C00170500001305E5E506C622C4EF109071B7
:102D6C00138401892300A40029280345040022446C
:102D7C00B24037F60200130606E0896541016F1078
:102D8C00701E411106C6F3270080A18B93868186A5
:102D9C0089CBF327008023A4F1869C42DD9B7390A2
:102DAC00078001000100B71700401307700523804E
:102DBC00E704130780FA2380E7040100010003C72E
:102DCC00F70213677700A387E702238007047327B2
:102DDC0000809C42A18BD98F7390078023A401861D
:102DEC00010001001305407E8147014781460546DD
:102DFC008545EFF0CFC1B240014541016F20601F06
:102E0C0041111305800406C622C497D0FF1FE7802A
:102E1C00C02791457D55EFF0CFDF91457D55EFF003
:102E2C00AFE9371400408327C40A93050002FD570D
:102E3C002326F40A0327C40C05452326F40CEFF0D3
:102E4C000FF2854513050010EFF00FE78327840C74
:102E5C0091451305002093E707202324F40CEFF091
:102E6C00AFE5EFF0EFFE17950200130525C5EF70E7
:102E7C004221653BE93DEFD0C105EFD0810CEF104D
:102E8C00E021EF00B02697D0FF1FE78020708280F2
:102E9C002A86B305B040178502001305A57D6F7017
:102EAC00A20C011122CC36C606CE2E84EF10406245
:102EBC00B24637460F00130606243376C50291CA74
:102ECC00B285178502001305E57932C6EF70C20989
:102EDC00324622856244F240814505616FB0110B88
:102EEC00011122CC26CA06CE4AC817270020034758
:102EFC002708AE841724002013048407814763013C
:102F0C00A70217270020034707088547630AA70075
:102F1C00172700200347870889476303A7008D47BD
:102F2C0013F7840029C301572312E1005947B387D3
:102F3C00E70283C6918909464C003E940355240050
:102F4C008547231904002318040023170400A30544
:102F5C00F400EF70200613C58400F2406244D244A2
:102F6C0042490561828013F7040245C75947B3876C
:102F7C00E7023E948347C400BDE303C7C181835776
:102F8C0024010355240025C7054901478146054600
:102F9C00C945231601002312F10023132101EF6010
:102FAC00306B2AC40DCD9307A0052300F500035503
:102FBC00240003C691894C00EF60106205E50345BF
:102FCC00040083C7C18193B717002306240113069D
:102FDC00006493050002238EF180EF10A07813C5D6
:102FEC000402A5BFC9454800EF70A02DCDBF03C694
:102FFC0091894C002312F100EF60505D6DF1854713
:10300C002306F40083C7C18193B71700238EF18088
:10301C00F9B713F704103DC35947B387E7023E9441
:10302C008347C400A1E7835744010355240001479B
:10303C002312F100814689470946C9452316010030
:10304C002313F100EF60D0602AC40DC105492300A1
:10305C002501A24703C691894C00A38007000355A4
:10306C002400EF60705711E52306240113C50410EA
:10307C00EDB5C9454800EF70C024CDBF13F704016E
:10308C0015C35947B387E7028146130780251306FA
:10309C004006D1453E9403552400EFC0916013C502
:1030AC00040165BD13F704040145E30807EA594719
:1030BC00B387E7023E9403552400EFC0515E0345ED
:1030CC00040005661306069693050004EF1080694C
:1030DC0013C5040459B581E9AA85178502001305A7
:1030EC00654A6F6072680547639EE500AA8517857F
:1030FC0002001305A54B09C6178502001305454DA3
:10310C006F60926609476399E5000DE6AA851785FD
:10311C0002001305E54DEDB70D47639DE500AA854B
:10312C00178502001305054F61DE17850200130594
:10313C00E55045BF8280011122CC26CA4AC84EC632
:10314C0006CEAA892E89814417240020130484E614
:10315C0003C5818963E3A4060E050905CE85229576
:10316C00194697E0FF1FE780408583C581899397B7
:10317C003500850593F5F50FA2971386F5FFA3800F
:10318C0027010E062296238CB18862448348760070
:10319C0003486600834756000347460083463600C3
:1031AC00F240D2444249B249034626001785020038
:1031BC001305852B05616F60325B9395340089058F
:1031CC001946A2954E8597E0FF1FE780008809E518
:1031DC00850493F4F40FADBFF2406244D2444249EB
:1031EC00B2490561828039719397050126DA06DEB2
:1031FC0022DC4AD84ED652D456D2C187AE8463D183
:10320C00072603C59189EF10200E2A84630B05361F
:10321C00034705009307000B6312F736835725000D
:10322C00172700200357E7D417290020130949D486
:10323C006301F72A17270020035707D5630EF734CD
:10324C00172700200357A7D5631AF732894A8949F3
:10325C0059A45C44178502001305C51383C50700E8
:10326C0009A64D476393E7029305A0051785020055
:10327C0013058514FDA4C9466316D7028345C40003
:10328C001785020013050512E9AC6D47639CE70036
:10329C005C44178502001305251383C50700EF60F6
:1032AC00B24CC1AC5947B389E902CA9903C7B900FA
:1032BC006301072C639F0A2A172700200347F7CBCB
:1032CC0085466312D70A1D476390E7048357840031
:1032DC0085CF5C44178502001305451083C5170084
:1032EC0003C70700A205D98D172700202319B7C8DB
:1032FC0003C6370083C7270022065D8E9727002060
:10330C002390C7C8EF605246834744001D47639A19
:10331C00E70403471400E947639DE724972700203F
:10332C0083D7E7C5638707242314F100835709016A
:10333C00094797260020A382E6C42315F100F977EC
:10334C00938727102316F100FD5703C691892C0093
:10335C00172500200355E5C12307F100EF60502726
:10336C0009AC054755BF8946631BD70825476398A9
:10337C00E70483578400A1C7584493050002130641
:10338C0000648347170003470700172500200345F7
:10339C0025BEA207D98F172700202314F7BE972725
:1033AC000020238D07BCEF10E03B9725002083D530
:1033BC0045BD1785020013052505EF60F23A8347DA
:1033CC0044002547639BE70203471400E9476392D7
:1033DC00E71A8D4717270020A301F7BA8357E90096
:1033EC002314F100835709012315F10093072020C2
:1033FC002316F1009307900289BF0547C9BF8D467C
:10340C006319D71625476398E70483578400A1C72F
:10341C0058449305001013060064834717000347B4
:10342C000700172500200345A5B4A207D98F17273D
:10343C0000202319F7B497270020238107B4EF103D
:10344C0060329725002083D5E5B31785020013055C
:10345C0025FEEF60723197270020A38007B211AAD6
:10346C0093F7150085C317F6FF1F130626F097F583
:10347C00FF1F9385E5EE03C59189EFA0C11113C51C
:10348C00140011A293F7050881CB41657D15EFC09F
:10349C00D12113C50408C5A89727002083C747ADC1
:1034AC006395A700A6852D3CF9A89727002083C714
:1034BC0087ADE389A7FE9727002083C727AEE38358
:1034CC00A7FE9727002083C7C7AEE38DA7FC014555
:1034DC005DA8814A8149D947B387F90209478345D9
:1034EC004400130A8400CA9783C747006395E70812
:1034FC000D476381E50205476394E50203478400A9
:10350C00631EF7028345C40017850200130545E5C9
:10351C00EF609225D947B387F902CA972386070033
:10352C00034744009307F007631AF70083558400A0
:10353C0017850200130545E4EF601223834744000E
:10354C002D47E388E7D00547E39DE7D00347840088
:10355C00A946E312D7D28345C40017850200130590
:10356C0065E2EF607220D947B389F9024E992306C0
:10357C000900834544005285EF60B0542285EF006A
:10358C00904F2165258DF2506254D2544259B25954
:10359C00225A925A21618280854A85492DBF8347E0
:1035AC00250049476363F73417870200130787D652
:1035BC008A07BA979C43011122CC06CE26CA4AC868
:1035CC004EC652C456C2BA972A8482870144172920
:1035DC0000201309299E97F9FF1F938929D717FA01
:1035EC00FF1F130A0AD797FAFF1F938AEAD683C7DD
:1035FC008189637FF402931434008904CA941946B8
:10360C00A6854E8597D0FF1FE780204415E119460B
:10361C00A685528597D0FF1FE780204311E91946F4
:10362C00A685568597D0FF1FE78020426302052AA6
:10363C0083C78189639D870217850200130545E6C0
:10364C00EF603224014685450D45238C0188EF90AF
:10365C00117D178502001305A5E36244F240D244A4
:10366C004249B249224A924A05616F6092211785FC
:10367C000200130525E4EF60D220972700209387E2
:10368C0067930E04930624003E9403461400BE96E2
:10369C0081450145EF9051750566130606C89305E3
:1036AC00000803C59189EF10E00B17850200130584
:1036BC0065E165B79305000803C59189EF10A02B50
:1036CC0083441400639A0410C16717270020035722
:1036DC00478AF9178355A4006307F70217270020C0
:1036EC000357878A6300F702172700200357278B9D
:1036FC006302F70E2E85EFC0417B17850200130580
:10370C0065DDA1BF8544D9473387F4029727002094
:10371C009387078617850200130505DDBA970947BD
:10372C002382E7000356E4002391B700EF60D20335
:10373C00B9E0854713060064A14517250020034511
:10374C00258317270020230BF7820564EF108001D7
:10375C00130604C8C1451725002003456581EF10E9
:10376C0060001306049693050004172500200345FA
:10377C002580EF00307F17850200130525D8EF60F8
:10378C005210C167171700200357A77EF917630E55
:10379C00F700171700200357277F6308F700171748
:1037AC0000200357C77F6319F71217850200130512
:1037BC0025CEEF60120D238C01886244F240D24476
:1037CC004249B249224A924A014685450D45056156
:1037DC006F90F164894405BFA68517850200130517
:1037EC00E5D2EF606278D1B78357450017170020F8
:1037FC000357277881446301F702171700200357FA
:10380C00A7788544630AF700171700200357277918
:10381C008D446313F7008944D947B387F402971496
:10382C0000209384E474034664001785020013059A
:10383C00A5CFBE9483D52400EF60027303C50400AA
:10384C00F9572391F40023820400A38504002399E3
:10385C0004002386040093050004238C0188EF10D8
:10386C008011178502001305A5C2EF609201B1B754
:10387C0062440356650083554500F240D2444249E8
:10388C00B249224A924A178502001305E5CB05611D
:10389C006F60826D17850200130585CCEF60627E28
:1038AC0003C78189A54763E9E702834544001305F3
:1038BC0054006244F240D2444249B249224A924AEC
:1038CC0005616FF05F8717850200130565CAF9B7AC
:1038DC0005041374F40F21BBF2406244D2444249F4
:1038EC00B249224A924A0561828082807971170519
:1038FC0000001305858F06D622D426D24AD04ECE90
:10390C00EF1040378565A38CA188938505960945F2
:10391C00EF306012D1451D45EF30E01193054006A4
:10392C002145EF304011930540063545EF30A0108E
:10393C0085470D47700091451305F0402304F100B5
:10394C00A304F1002305E100A305F10002C6EFB0CA
:10395C00810A3000854513058040EFB0C10913067C
:10396C009100854513059040EFB0E1081306A100C6
:10397C0085451305A040EFB001081306B10085453D
:10398C001305D040EFB02107171400201304445E38
:10399C00971400209384E461970900009389E984CB
:1039AC0079594E85EF10002D2300A400231124011A
:1039BC0023020400A30504002306040023190400B9
:1039CC00231A040023170400231804005904E31AD3
:1039DC0094FCEF70E03F03C59189EF60D06B854597
:1039EC0003C59189EF005041B250225492540259B0
:1039FC00F249456182802A86B305B04017850200E2
:103A0C00130505D56F604256411106C622C426C265
:103A1C009717002083D7E75F6380A70297170020D2
:103A2C0083D7C75F6385A7069717002083D7A75F47
:103A3C006391A706894411A08144A947B387F40276
:103A4C00971400209384C45C2E84AA8517850200E9
:103A5C00130585CEBE94239284002393C400239433
:103A6C00D40022863114EF60225042044180930727
:103A7C00000563F08702224403C50400B24092445F
:103A8C00096613060690A14541016F00B04D8544AF
:103A9C006DB7B24022449244410182808357450065
:103AAC00011122CC06CE171700200357875601446C
:103ABC006301F70217170020035747560544630AA2
:103ACC00F70017170020035707560D446313F70030
:103ADC000944A947B307F4021714002013044453F4
:103AEC0089453E9403450400F9572311F400231231
:103AFC0004002313040023140400EF00D0670345D3
:103B0C0004009145EF00306717850200130585B955
:103B1C00EF60225785471306F10085451305503099
:103B2C00A307F100EFC0410CF240624405618280B2
:103B3C003D897D15954763E7A72217870200130778
:103B4C00E7B40A053A951C41797122D406D626D2DF
:103B5C004AD04ECE52CC56CABA972E84828717853D
:103B6C000200130565C0EF60C25105A883C725008C
:103B7C0019476391E7022E85153783456400178535
:103B8C000200130565BFEF60223E17850200130586
:103B9C0065C0D1BF0D47E38AE7FEB2502254925460
:103BAC000259F249624AD24A4561828003C7250014
:103BBC009547E314F7FEC1671717002003576745B5
:103BCC00F917630DF70217170020035727456304F5
:103BDC00F71017170020035707456300F71003D59C
:103BEC00A500EFC0812C178502001305A58EEF6090
:103BFC004249178502001305A5BEB5B78144A685B9
:103C0C0017850200130505BAEF600236A947B38782
:103C1C00F402971400209384A43F13060064894592
:103C2C000569178A0200130AEAB8978A0200938A78
:103C3C00EAB98D49BE948357A40003C504002391AF
:103C4C00F4008357E4002392F40083570401239378
:103C5C00F400835724012394F400DD47A387F182F9
:103C6C00EF00503003C50400096613060690A14509
:103C7C00EF00502F03C50400130609C8C145EF001F
:103C8C00702E03C50400130609C89145EF00902D52
:103C9C000356E4008355A400178502001305C58460
:103CAC004169EF60622C97140020938464360144C0
:103CBC007919A2855285EF60222B83D52400568575
:103CCC00EF60822A83D72400638D27070504A9049B
:103CDC00E31134FF39BF85441DB789440DB703C7C1
:103CEC0025008D4717850200130545B0E317F7EA49
:103CFC009DBD83C5250091476397F500178502008C
:103D0C00130545B08DB59947639DF5002285793330
:103D1C008345640017850200130505A6EF60C224D5
:103D2C00ADBD9547639AF50083471400E1FB1785F9
:103D3C0002001305E5AE05BD178502001305C5AEDF
:103D4C00F1BF178502001305E595EF6082338547B7
:103D5C001306F100854513055030A307F100EFB0B1
:103D6C00B16841BD8280011106CE22CC01C98947C0
:103D7C006304F502F240624405618280680032847B
:103D8C0097D0FF1FE78060C3A2851785020013053B
:103D9C0065AAEF60621DF9BF680097D0FF1FE7802E
:103DAC00C0C117850200130565ABEF60822DD9B732
:103DBC000111930780F82302F10006CE22CC03C731
:103DCC00F1828D4763ECE700178502001305C5955A
:103DDC00EF60222BF24062440561828085470147E7
:103DEC0081460546ED452A842315F100EF60400617
:103DFC000356A1004C002AC697D0FF1FE780E0BBFA
:103E0C002C002285EFE07FC971D5ED452800EF60CD
:103E1C00404BC9B741119397050122C406C626C26F
:103E2C00C1872E8463D1070A03C541827529AA84F0
:103E3C0039C5834705001307000B6385E706130795
:103E4C00000D639CE7028347250045476381E70427
:103E5C0065476394E7020348A50083479500034731
:103E6C00850083467500034665008345550017851C
:103E7C00020013052584EF60220F2685ED2E2167A5
:103E8C00218FB240224492443A85410182800346FC
:103E9C00650083457500178502001305A584EF6046
:103EAC00A20CE1BF034745009307F007E317F7FCAB
:103EBC00835585001785020013058584A387B1827D
:103ECC00EF60820A5DBF93F7150085C317E6FF1FED
:103EDC001306864A971500209385C51203C54182A7
:103EEC00EFB091261347140069BF9717002083C7C2
:103EFC0027126393A70A13F7250011CF130600644A
:103F0C008945EF00300617150020035585104D35F7
:103F1C0013472400BDB713F7850005C313074006EC
:103F2C00814613064006D145171500200355650E32
:103F3C00EFB0F11A13478400A9B793F705018DC7A9
:103F4C000147894609468145171500200355650C24
:103F5C00EFB0F177AA85177502001305A57BEF600A
:103F6C00A2001347040131BF93F745000147E38AD0
:103F7C0007F0171500200355C509EFB051720566FF
:103F8C00130606C891451715002003456508EF0078
:103F9C00607D13474400F5B59717002083C7E707EA
:103FAC00639DA70613F7250019CB130600648945FA
:103FBC00EF00407B171500200355450689BF13F70A
:103FCC00850001CF13074006814613064006D145F4
:103FDC001715002003558504A1BF93F7050191CB5C
:103FEC0001478946094681451715002003550503ED
:103FFC0085B793F745000147E38507E817150020BF
:10400C000355C501EFB0B1690566130606C89145A5
:10401C0017150020034565009DBF9717002083C727
:10402C0067000147E39FA7E493F6250099CA13069E
:10403C0000648945EF000073171500200355A5FE99
:10404C00F9B593F6850081CE130740068146130619
:10405C004006D145171500200355E5FCD1BD93F75B
:10406C00050191CB0147894609468145171500206A
:10407C00035565FBF1BD93F74500E38407E0171585
:10408C000020035545FAEFB091610566130606C88A
:10409C009145171500200345E5F8D5BD3971170575
:1040AC000000130565D706DE22DC26DA4AD84ED688
:1040BC00EF00503C2382A182D1470544231AF10022
:1040CC00100893074006854513055030231CF1005A
:1040DC0023088100EFB0513117E6FF1F1306062CA1
:1040EC00F14513057030EFB03130138681829D4558
:1040FC0013056030EFB0512F50088945130510316E
:10410C00EFB0912E3008894513052031EFB0D12D39
:10411C00930500050D45EF20101293050005114580
:10412C00EF20701185457945EF20F010300891454E
:10413C0013057040230481002306810023088100AD
:10414C0002CC230A0100EFA0110B300085451305AA
:10415C000040EFA0510A7000854513051040EFA0F8
:10416C0091095008854513052040EFA0D10810088F
:10417C00854513055040EFA011087D55EF501001F7
:10418C007D55EF809032EFE02FE97D55EFE03F83D6
:10419C0017E6FF1F1306061FD5450145EF50A06D0E
:1041AC0089472306F1008D472308F1009147230A24
:1041BC00F10093870186984383C7470030008545FB
:1041CC0001453ACC230EF10023048100EFE0DF849B
:1041DC00700085450545EFE03F841008854509458D
:1041EC00EFE09F83500885450D45EFE0FF823008D6
:1041FC0095451145EFE05F8217140020130444E14C
:10420C00971400209384A4E2970900009389C9C0F5
:10421C0079594E85EF0010262300A40023112401A8
:10422C002312040023130400231404002904E312B2
:10423C0094FE13850182EFE04FFD1385C189EF9049
:10424C000119854503C54182452EF2506254D25462
:10425C004259B2592161828023AC05FE1C4191E781
:10426C00010001000CC18280BA8703A787FF6DFF94
:10427C0023ACB7FE82801DC18346E5FF1307F00F08
:10428C009147639EE600411106C697D0FF1FE78059
:10429C006060B24081473E854101828095473E85F2
:1042AC00828001E9014582800145B24022444101EE
:1042BC00828095654111938505D022C4C98D2A84CD
:1042CC002105C2054205C181418106C697D0FF1F59
:1042DC00E780E04F71D9FD5723200500231285009C
:1042EC002303F5002105D1B71387418A1C434111E3
:1042FC0022C426C24AC006C601440149BA8489E7D1
:10430C00A165952D0DC401A803C7E7FF6318A7028B
:10431C001DC8A165D5249840832784FF6317E40248
:10432C0023A2F18AFD57232C04FE230FF4FE2285D1
:10433C00B2402244924402494101828011E03E89FC
:10434C0083A787FF6DBF3E84E5BF232CF9FED9BF41
:10435C00A1CD411122C406C62A849717002083C719
:10436C00F7D02E856375F400894763E88700213701
:10437C000D45B24022444101828083A785FF99E715
:10438C0003C7E5FF9307F00F6305F700ED351545FF
:10439C00CDB7238F85FE1385418A7D3D228522442E
:1043AC00B240A165410189AC1545828023A2018AE6
:1043BC0082809387C18B9C4399E33E85828003D78F
:1043CC0027006316B70003C70700E308A7FEDC4706
:1043DC00E5B7BDCD797122D406D626D24AD04ECEC1
:1043EC0001444147B3D78540858BB1CF1205314786
:1043FC0022953305E5029387C18A03A907008544FA
:10440C00B3948400C204C180BE892A990327090091
:10441C0011C7032549002EC60297B2453147330414
:10442C00E40283A709003E941C4489E72320090079
:10443C0023220900B2502254A58D02599254F249FC
:10444C002E85456182800504E31EE4F88144DDB7C6
:10445C002E85828041111397050122C406C626C2FF
:10446C004AC041872E84635E0700BD3D11C12135D2
:10447C00A1673D8C2285B2402244924402494101FD
:10448C008280EDD9AA8701474146B356E440858A1C
:10449C009DCA9207BA97B146B387D7029386C18A51
:1044AC0003A906008544B394E400C204C1803E997C
:1044BC008327090003254900829723200900232222
:1044CC000900258C45BF0507E311C7FC8144D5BF06
:1044DC00971700209387C7B59C53411122C406C679
:1044EC001384018399C782971C403E9523A8A1820F
:1044FC0029A09387418B9C43FDF70840B7470300E5
:10450C009387D73F3305F502B7A72600938737EC7F
:10451C00B24022443E9523A8A1824101828079C9F0
:10452C009387418B9C43797122D426D24AD04ECEAC
:10453C0052CC56CA5AC806D65EC63A8AB689328B4F
:10454C00AE8A2A8982979387C18A9843BE84014494
:10455C00B146C147B30BD40233067701104251E682
:10456C00C165938505F0414597D0FF1FE780202654
:10457C001DE5971700209387A7AB9C5B2D4589C73A
:10458C001145814582972D45B250225492540259BF
:10459C00F249624AD24A424BB24B456182809387C0
:1045AC00C18B98431DEF23AEA18A230005009C40CC
:1045BC0005473317870023260500232465012311A3
:1045CC00E50023224501DE9723A0270123A25701F2
:1045DC0023A447010145E38909FA238089006DB7BB
:1045EC003E875C47F5FF48C7C9B70504E314F4F6EA
:1045FC00214559BF094582809717002083C717A70B
:10460C00637FF5001387818A9317150008433E9545
:10461C0083570500DD8D2310B500014582800D45C3
:10462C0082809717002083C777A46371F5021387E4
:10463C00818A93171500084393C5F5FF3E95835760
:10464C000500FD8D2310B500014582800D4582804B
:10465C00130705FF1377F70FFD4763E5E70AB1462C
:10466C00B306D5029387C18A984389473697184376
:10467C0059CB011122CC4EC60544935945003D89B6
:10468C003315A40013140501418026CA4E85AE844F
:10469C00A2854AC806CE313B2A89814721CDA28505
:1046AC004E8541379387418B9C4382979717002007
:1046BC0083D787A0338797022A8481461306006428
:1046CC00B3B7970213050732B335E500BE95EF502B
:1046DC00C244B3078500971600209386669D3E87DB
:1046EC00D44263E4A70063E4D7003387D740232484
:1046FC00E9008147F2406244D2444249B2493E85C6
:10470C000561828089473E858280011126CA06CECA
:10471C0022CC4AC84EC6BD47894463EDA702314737
:10472C003307E5029387C18A9C438944BA979C431B
:10473C0095C305443314A400420441802E890145DD
:10474C00A2858539AA89814411C5A2850145D13D2F
:10475C0023A42901F240624426854249D244B2493D
:10476C00056182809717002083C757906364F5001A
:10477C000145828001119387418B56C283AA0700A1
:10478C0006CE22CC26CA4AC84EC652C4638D0A0A2B
:10479C00171A0020130ACA9183244A00B74736FE21
:1047AC00938707C8AE899715002083D5E590BE94F2
:1047BC00B387C5022A8432898146B3B5C5021385F5
:1047CC000732B337F50013060064BE95EF50E234A0
:1047DC0063EBA406829A9715002083D5E58DB387E9
:1047EC002503AA84130600648146B3B525031385FB
:1047FC000732B337F500BE95EF502232B307950060
:10480C00BE8403274A0063E4A70063E4E700B38493
:10481C00E740CE852285713E01C504C505452DA016
:10482C00936504F0C205C181414597D0FF1FE78015
:10483C0000FA05E5970700209387877F9C5B81C76B
:10484C00A285114582970145F2406244D244424907
:10485C00B249224A924A056182809387C18B9C435C
:10486C008DE323AEA18A85472326050004C52311B9
:10487C00350123008500A300F5002322050079BF34
:10488C00BA87D84775FFC8C7F9BF49C9797122D40F
:10489C0026D24AD04ECE52CC56CA5EC662C466C22E
:1048AC0006D65AC83689328AAE89AA844144314C1C
:1048BC00938AC18A854C930B0003330B840303A7A3
:1048CC000A005A971C43B1E79375F400B395BC00EA
:1048DC0013554440C2055286C1811375F50F5935E5
:1048EC000DC983A70A000145DA9784C323A23701B7
:1048FC006304090023008900B250225492540259D7
:10490C00F249624AD24A424BB24B224C924C45611C
:10491C0082800504E31374FB2145F9BF09458280AD
:10492C00411122C426C24AC006C62A842E89B284EA
:10493C00153DCA852285EFF0DFA705CD9705002030
:10494C0083D58577B38795022A8413060064814644
:10495C00B3B5950213850732B337F500BE95EF500A
:10496C00C21B48C00145B240224492440249410155
:10497C0082802145CDBF411122C426C24AC006C641
:10498C002A892E84EFF0FFA2AA8419C123110500F5
:10499C00A2854A8579319707002083C7276D6397D5
:1049AC00270183D7018B5D8C2398818A014591E087
:1049BC001945B24022449244024941018280930736
:1049CC00F00263E6A7044111B14722C43304F50297
:1049DC0026C29384C18A9C4006C6A29798438947F5
:1049EC000DC39377F5008545B395F500C205C181DC
:1049FC00118151379C40A29723A0070023A20700E6
:104A0C008147B240224492443E85410182808947CD
:104A1C003E858280411106C622C4EFF09F9911E5B4
:104A2C000145B2402244410182809387418B9C43D3
:104A3C000045829797070020938787676368A402D5
:104A4C00D843B74636FE938606C83305A44036973E
:104A5C00E378E5FC13070064B335E50203D6870061
:104A6C0081463305E502EF50420B65BFD8433A94BB
:104A7C00C1BF411122C426C2170400201304446391
:104A8C00970400209384845E944858409387418B0C
:104A9C0006C69C43639FE60682975440B74736FE92
:104AAC00938707C8B6973387A7003A856364F700E6
:104ABC006364D7003305D7409704002093840477B0
:104ACC009C4C91CB9387419A94433707CDFF7D172C
:104ADC009C46F98F9CC611E14840970700209387AC
:104AEC002755DC53829719E59C4C99CFEF405158D0
:104AFC00EF4041359C4C89CB9387419A9843B7063C
:104B0C0033001C47D58F1CC7B2402244924441014C
:104B1C008280829798489707002083C7B7525440E9
:104B2C001D8FB307A7003E8563E4E700E3E6D7F8E3
:104B3C003385D74051B7411106C623ACA18A0295E3
:104B4C00B2409707002023AFA75201454101828054
:104B5C00994763E9B7008A05970700209387875325
:104B6C00BE9588C182804111714681451705002090
:104B7C001305455206C623AE018A23AC018A23AA2B
:104B8C00018A97C0FF1FE780C0E6130680028145AB
:104B9C00170500201305854D97C0FF1FE78060E5C2
:104BAC00EFB081449707002083C7F74913D527003E
:104BBC008D8B3E958D473305F5028545390513756B
:104BCC00F50F970700202384A74A99473305F50270
:104BDC001305052497D0FF1FE78060BF23A6A18A89
:104BEC0059C5994717060020034666483306F60256
:104BFC0081451306062497C0FF1FE78080DF93874B
:104C0C00C18A9C439387072423A0F18C17070020AB
:104C1C000347E7450A07BA9723A4F18AEFF00FF987
:104C2C0005239387018C94439707002083C717446F
:104C3C0013972700369717F6FFFF1306C67910C394
:104C4C00138717001377F70F0A073697170600001C
:104C5C001306868010C313873700890793F7F70F65
:104C6C008A0797050020A383E540B69790C3B2400E
:104C7C00410182809707002083C7573F1707002008
:104C8C000347E73E63F1E7021387018C18439386D1
:104C9C00170017060020A30BD63C939627003697D7
:104CAC0008C33E8582809307F00FE5BF1C416388E3
:104CBC00071641777D8FB706002089476312D716F8
:104CCC0003574500630E0714411122C419462A8468
:104CDC009305F00F690506C697C0FF1FE78080DBC0
:104CEC0005478D476308E5121C4481CB58589947FA
:104CFC0063020712185C630F07101306C00381458B
:104D0C00170500201305C53297C0FF1FE78060CE42
:104D1C001306C003A285170500201305653197C043
:104D2C00FF1FE78080C9170700200357273197071B
:104D3C0000209387E72F19E7130700109706002030
:104D4C00239EE62E170700200347672F11E7054720
:104D5C00970600202385E62E170700200357472EC1
:104D6C0011E76D4797060020239CE62C17070020BF
:104D7C000347F72C11E7154797060020A381E62C73
:104D8C00170700200347E72B11E70547970600207C
:104D9C002389E62A170700200347B72A19E703C718
:104DAC00F70097060020A38EE6281707002003477C
:104DBC00672911E73547970600202385E628170752
:104DCC0000200347772819E7130780029706002075
:104DDC00A38CE626170700200347D72619E71307ED
:104DEC00D00297060020A38FE6240347840119E71D
:104DFC001307C003970600202388E6249C5791C70D
:104E0C008297970700202397A726FD57A38FF1A021
:104E1C00993B8147B24022443E85410182808947BB
:104E2C003E85828001114EC697090020938949283E
:104E3C0083A7090006CE22CC26CA4AC852C4829740
:104E4C0013090064B335250303DA890081465286C1
:104E5C0033052503EF40724C9707002093870721F9
:104E6C00804FAA8401456306940233858440636EA7
:104E7C00940003A5490052868146B335A902330537
:104E8C00A902EF409249018D26959707002023AB8C
:104E9C00971EF2406244D2444249B249224A05610B
:104EAC008280011122CC0A852E844146976502002E
:104EBC009385C53406CEEF40D27F180806043A9489
:104ECC00035504FF9707002083D7271FF240624445
:104EDC00AA9737450F00130505243355F5020561D4
:104EEC0082809707002083D7471D51471D45637C5F
:104EFC00F702794719456378F70213072003154524
:104F0C006373F7021307B0041145637EF7001307B0
:104F1C0040060D456379F700130760090945637472
:104F2C00F70013B5B70F8280011122CC06CE2A846C
:104F3C002EC6EFF0EFD9B245F240818D33A5A50214
:104F4C00229562441375F50F05618280011122CC04
:104F5C0006CE2A842EC6EFF0AFD7B245F240818D33
:104F6C0033A5A502229562444205418105618280E8
:104F7C00011122CC06CE2A842EC6EFF06FD5B24595
:104F8C00F240818D33B5A502229562440561828081
:104F9C00970700209387C709985739CB411122C432
:104FAC0026C206C6BE840297170700200357870C3B
:104FBC002A8415CBBA876373A700AA87C207C1835B
:104FCC00BA866373E400A286C206C182958F5147EC
:104FDC00635BF700DC5491C38297EF4061759707D0
:104FEC00002023998708B2402244924441018280D8
:104FFC008280970700209387A703DC57011106CE08
:10500C00AA8581C72AC68297B245D1C19C41054564
:10501C00A5CFDC41B5CB83D78500BDC783D7A50011
:10502C00A5C783C7C500ADE341461705002013058E
:10503C00250897C0FF1FE7804098970700209387AB
:10504C0027079C4323AAF18A9707002083C7D7FF21
:10505C008DE793078002170500200355E5053305FE
:10506C00F50237460F001306062481468145EF40B2
:10507C00D22A97070020A389A7FC17050000130567
:10508C00A5DAEFF05FAB0145F2400561828097072E
:10509C00002083C747FB139787016187635407047C
:1050AC009707002023A207FE97C7FF1F9387A7D15E
:1050BC0017070020232EF7FE7D579707002023AB00
:1050CC00E7FEB7873200938727A19706002023A518
:1050DC00F6FE97070020238307FEB7C7004023A4E2
:1050EC00E726A1BF13F7170005CFB78720039387D7
:1050FC0007D0170700202321F7FCB707C0A8170714
:10510C0000202329F7FA97C7FF1F9387E7CE1707CD
:10511C000020232FF7F897070020238107FA31BFCF
:10512C006177970600202399E6F881CB930700322C
:10513C00170700202313F7F8C9B793072003CDBF37
:10514C00011122CC17040020130484EE084406CE6F
:10515C0026CA4AC801E90545F2406244D244424994
:10516C00056182805C58E5DB185C75D7700085455D
:10517C0082971844B247E300F7FE9305E004170545
:10518C0000200355A5EB97C0FF1FE780406417076D
:10519C000020232DA7EE61D117060020035606EA46
:1051AC009305F00F97C0FF1FE780A0848144170977
:1051BC0000201309A9EB9707002083C747E80326B3
:1051CC00090263C1F402328597C0FF1FE780806C2F
:1051DC0001459707002023AB07EA9707002023A976
:1051EC0007EA9DBF9705002083D545E5B387950257
:1051FC000844185C898185043E9508C2029765BFF6
:10520C00011156C2970A0020938A8AE283A78A006A
:10521C0022CC4AC84EC606CE26CA52C45AC0AA8947
:10522C002E8432896385072203A74A036307071478
:10523C007D476366A71497040020938424E303AA94
:10524C00040263170A0A9565938515E0170500207B
:10525C000355C5DE97C0FF1FE780605797070020F6
:10526C0023A6A7E22A86630A051083A74A0303A58F
:10527C008A009705002083D565DC8981829783A7F6
:10528C008A0003AA0402170700202323F7E08947AA
:10529C00639CF908C1476312F40E9705002083D56F
:1052AC00E5D9938505FC9147B3C5F5028A05D295DE
:1052BC0003C705009307A005631DF70A83C71500F4
:1052CC006399370B4A852286910597B0FF1FE780BB
:1052DC00C06E9C505285639347150145F240624461
:1052EC00D2444249B249224A924A024B0561828019
:1052FC00D850E38EE7F89565938525E017050020D7
:10530C000355C5D397C0FF1FE780604C2A8A35C56B
:10531C002A8683A74A0303A58A009705002083D514
:10532C00E5D189818297A5B78D47639DF900C14767
:10533C006315F4049705002083D545D0938545FD6E
:10534C00F199B5B79147639AF9006318340397053F
:10535C00002083D5A5CEA115E5B7C147639FF90001
:10536C00A14763EC87009705002083D525CDC11597
:10537C00C1BF9C5052856397470D294585B71307CC
:10538C00F006568B6361A70A130A05FE1947334AC8
:10539C00EA0217070020035767CA970A0020938A6E
:1053AC00EACC330AEA023E9A83A74A026395470184
:1053BC0083A40A029DE49305E0041705002003551D
:1053CC00E5C797C0FF1FE7808040AA845DD583277F
:1053DC004B039705002083D565C62A8689815285A3
:1053EC00829791451307A005898193972500A6976D
:1053FC0083C607006393E60483C61700639C3603D9
:10540C0085058A052286A6954A8597B0FF1FE780F9
:10541C00C05A83A70A02E38297EC268597C0FF1F28
:10542C00E78040475DBD1307E007E368A7F4130A64
:10543C0005F985B783D5270045BF83A70A02E38EFC
:10544C0097F2268597C0FF1FE780C0443DB79707AA
:10545C0000209387A7C18C538DD191479306A0054B
:10546C008983139727002E9703460700E317D6F07E
:10547C0003461700631C360185078A072286BE95F2
:10548C004A8597B0FF1FE780405381BD83572700A3
:10549C00C1BF970700209387A7B9984739C79C5F6E
:1054AC00A9C705476313E504411122C41704002062
:1054BC001304C4BB105006C60DC6485097050020F7
:1054CC0083D5C5B789818297085097C0FF1FE780A5
:1054DC00603C9707002023AB07BA9707002023A94D
:1054EC0007BAB24022444101828082800111170721
:1054FC0000201307E7B34EC68329870022CC26CAA7
:10550C004AC806CE52C456C2AA842E843289638AF3
:10551C0009201C5FBA8A99EB2945F2406244D244B7
:10552C004249B249224A924A056182805C5BEDD7BE
:10553C00FD4763E9A70E97090020938929B383A738
:10554C000902B1CB03A58A0083A749026395A7067C
:10555C0089476393F408C147E310F4FC1705002056
:10556C000355C5AD9147130505FC3345F50293175B
:10557C00250003A509022286CA853E959307A0053E
:10558C002300F500A3009500110597B0FF1FE780DD
:10559C00C042014559B79305E00417050020035597
:1055AC00E5A997C0FF1FE78080229707002023AF53
:1055BC00A7AC49F995B783A74A0303A60902970537
:1055CC00002083D5A5A78981829783A78A00170716
:1055DC000020232FF7AAADBF8D47639EF400C1476F
:1055EC00E31CF4F217050020035545A5130545FDF2
:1055FC009377C5FFBDBF9147639AF400E31E94F007
:10560C0017050020035585A32115DDB7C147E39588
:10561C00F4F0A147E3E287F017050020035505A23B
:10562C004115F9B79307F00663EAA706930705FE41
:10563C001947B3C7E70217070020035727A0170A1B
:10564C000020130AAAA2B387E702BE9983270A0295
:10565C00A9CF83274A02639A370703250A0291468A
:10566C001308A005FD5593D72600C207C1831397D5
:10567C0027002A9703460700631D06078348170077
:10568C000356270063959806B306D64063CF86046D
:10569C0085078A072286CA853E95C5BD9307E00714
:1056AC00E3ECA7E6930705F979B79305E004170532
:1056BC0000200355A59897C0FF1FE780401197075E
:1056CC00002023A5A79C51F581BD83A74A0303267F
:1056DC000A029705002083D5659689814E858297AD
:1056EC009707002023A6379B8DBFA300B700B28677
:1056FC009DBFB3858600170600200356269491059E
:10570C00130606FCE3FAC5E0130634001376C60F45
:10571C001106B29623000701A30097002311D700AE
:10572C0085BF97070020938767949453BE89A1C2C5
:10573C0003A5090291461308A005FD5593D7260031
:10574C00C207C183139727002A97034607006316E5
:10575C000605834817000356270063989800B30684
:10576C00D640E3D786F2A300B700B286C1BF8357F9
:10577C00C700170500200345858C9305E00433050D
:10578C00F5024205418197C0FF1FE780400497074F
:10579C00002023ADA78E49FD41B317060020035608
:1057AC00E6899705002083C58589B385C5023386B4
:1057BC0086001106E3E2C5D681BF01458280011146
:1057CC0006CE2EC6EF90807401C9B245F240035547
:1057DC00250005616FD0102CF2404945056182808F
:1057EC00A386018E2386018E23AA018C23AC018C07
:1057FC0023AE018C23A0018E23A8018C23A6018C3F
:10580C00970700209387C78B370684033707B400AC
:10581C0090D337C6070098C3130606B83747A000C5
:10582C00D8C3D0D33707100041669306070AB705D3
:10583C0050009308060194C723A41703938605010F
:10584C00930816F8D4C723A61703B706D007B708D2
:10585C007F001308070513850601410723A81703CA
:10586C00B0C3930816009386060513861500D8CB93
:10587C00F8C323A8070188CF23AE070023AA170378
:10588C0023AC070223AE070223A40704F0C7B4CB52
:10589C0023AA0704ACCF23AE0705B8D33707A00063
:1058AC00F8D71307000AB8DB1307C01CF8DB37075F
:1058BC001400B8DF0547F8DF130710F8E8D323A46A
:1058CC00070623A0070823A2E7088280011126CA35
:1058DC00AA84214522CC06CE2E8432C636C43AC2C6
:1058EC00EFE03F9C1DC9A24612473246930700FDCC
:1058FC002300F5009947A30095002301F50023032D
:10590C00D500A303E5002312C500AA8522856244B5
:10591C00F240D24405616FE0BFA3F2406244D2442E
:10592C000561828023AAA18C828023ACA18C828009
:10593C0023AEA18C828023A0A18E8280011122CC67
:10594C004AC806CE26CA2A890144B3048900636872
:10595C00B400F2406244D2444249056182802EC6B2
:10596C00EFE01FB793170501C183A183B2452380D4
:10597C00F4009307140093F7F70F850463F9B7004D
:10598C00CA9709042380A7001374F40F7DBF3E84CB
:10599C007DBFC16717F5FF1F0355657BFD176304BA
:1059AC00F502411117060020034686879385418E28
:1059BC0006C6EF90A034B240FD5717F7FF1F23180F
:1059CC00F77841018280828009C925151375F50F7E
:1059DC001335850E13451500828001458280239076
:1059EC000500C9C6797122D426D24ECE52CC5AC8E3
:1059FC0006D64AD056CA5EC63684328AAE892A8BFF
:105A0C00814463F34407B307940083C707001389E9
:105A1C0014004209939A070193DA0A0113590901F8
:105A2C0063840A04CA976341FA04B307240183CB45
:105A3C0007005E85513F0DC99387FAFF2390F9004B
:105A4C0063906B03130519002295B25022549254A3
:105A5C000259F249624AD24A424BB24B45618280AA
:105A6C00D694C204C18071BF0145C5B7014582807F
:105A7C00411126C2AE8422C497F7FF1F23A0C76E24
:105A8C0097F7FF1F23AAB76C97F7FF1F23A4A76CE8
:105A9C002A8441469305F00F26854AC006C605495F
:105AAC0097B0FF1FE78000FF6310250597F7FF1FD6
:105ABC0093878769884BC145513541469305F00F53
:105ACC00228597B0FF1FE780E0FC854463189502A0
