:040000006F00D0328B
:100004000000000000000000900000208A0400208E
:10001400A9BDF9F5900000200000000000000000D8
:10002400900000209000002000000000000000006C
:10003400900000200000000090000020000000005C
:1000440090000020900000209000002090000020EC
:1000540090000020900000209405002090000020D3
:100064009000002090000020A005002050060020F1
:100074007E050020900000209000002090000020C9
:1000840090000020900000209000002090000020AC
:1000940001A073270080218B9387818009CB73276C
:1000A400008023A4E18098435D9B731007800100C6
:1000B400010037170040930670052300D704930608
:1000C40080FA2300D704010001008346B70493F6A5
:1000D400F60DA305D7042300070473260080944378
:1000E400A18AD18E7390068023A4018001000100AF
:1000F40093760502638406180347A700118B25E74E
:1001040073270080218B09CB7327008023A4E1800F
:1001140098435D9B7310078001000100371700406E
:10012400930670052300D704930680FA2300D704AE
:10013400010001008346A70093E646002305D7008B
:1001440023000704F32600809843218B558F7310F6
:10015400078023A40180010001001307004B010064
:1001640001007D176DFF73270080218B09CB732756
:10017400008023A4E18098435D9B731007800100F5
:10018400010037170040930670052300D704930637
:1001940080FA2300D704010001007D892314A700FD
:1001A400010001000100010023000704F326008080
:1001B4009843218B558F7310078023A4018001007D
:1001C400010073270080218B09CB7327008023A4AF
:1001D400E18098435D9B731007800100010037178D
:1001E4000040930670052300D704930680FA230089
:1001F400D7040100010001000100B72600401306E6
:100204001005A383C68023000704F32600809843C7
:10021400218B558F7310078023A4018001000100F6
:1002240073270080218B09CB7327008023A4E180EE
:1002340098435D9B7310078001000100371700404D
:10024400930670052300D704930680FA2300D7048D
:10025400010001008346B70493E60608A305D7040A
:1002640023000704732700809C43A18BD98F7390CC
:10027400078023A401800100010082809376050495
:10028400638B06140347A700418B25E7732700807F
:10029400218B09CB7327008023A4E18098435D9BC5
:1002A40073100780010001003717004093067005A2
:1002B4002300D704930680FA2300D7040100010029
:1002C4008346A70093E606012305D700230007040D
:1002D400F32600809843218B558F7310078023A445
:1002E4000180010001001307007D010001007D175A
:1002F4006DFF73270080218B09CB7327008023A413
:10030400E18098435D9B731007800100010037175B
:100314000040930670052300D704930680FA230057
:10032400D704010001009376F50193E60604231433
:10033400D700010001000100010023000704F32697
:1003440000809843218B558F7310078023A401806C
:1003540001000100130760046310E50473270080A3
:10036400218B09CB7327008023A4E18098435D9BF4
:1003740073100780010001003717004093067005D1
:100384002300D704930680FA2300D7040100010058
:10039400B72600400946B5B573270080218B09CBE9
:1003A4007327008023A4E18098435D9B731007802A
:1003B4000100010037170040930670052300D7049D
:1003C400930680FA2300D70401000100B7260040F9
:1003D400130620053DB573270080218B09CB7327B5
:1003E400008023A4E18098435D9B73100780010083
:1003F400010037170040930670052300D7049306C5
:1004040080FA2300D704010001008356870093E695
:10041400060C2314D700C5BB411181460146814512
:10042400114506C6612EF3270080A18B9386818037
:1004340089CBF327008023A4F1809C42DD9B739039
:10044400078001000100B7170040130770052380DF
:10045400E704130780FA2380E7040100010003C7BF
:100464006704136717002383E704238007047327B3
:1004740000809C42A18BD98F7390078023A40180B4
:1004840001000100B240410182808146014681455C
:1004940011452D26F3270080A18B1387818089CBFA
:1004A400F327008023A4F1801C43DD9B7390078015
:1004B40001000100B7170040930670052380D7049C
:1004C400930680FA2380D70401000100FD56239689
:1004D400D70223800704F32600801C43A18BD58F09
:1004E4007390078023A4018001000100F32700809A
:1004F400A18B89CBF327008023A4F1801C43DD9BCF
:100504007390078001000100B7170040930670053F
:100514002380D704930680FA2380D70401000100C6
:1005240083C6670493E616002383D7042380070455
:10053400F32600801C43A18BD58F7390078023A4DE
:1005440001800100010001A0BD473305F50201004F
:100554007D1575FD8280411122C426C206C6AA8477
:10056400014463179400B2402244924441018280C2
:1005740005041305803E4204C13F4180DDB7B7172F
:100584000040130700032388E702854723AAF1806C
:1005940073002030971000E0E780809973002030CA
:1005A40037370040834747009946BD8B6386D7069B
:1005B400011122CE26CC4ACA3147639BE702373465
:1005C4000040938401828347A40093F7F70FADEBB7
:1005D400894513854182971000E0E78000EAB7E778
:1005E40000E03707000423A0E7180100010039A840
:1005F4001147639DE700A30701001544B734004089
:10060400138901828347F100637CF4007244E2445D
:10061400524905617300203083475700730020302E
:1006240083C5840003250900971000E0E780E0DC1F
:100634008347F100850793F7F70FA307F100D9B7B4
:10064400834584008840971000E0E78000DBA5BF65
:1006540037370040834747409946BD8B6386D706AA
:10066400011122CE26CC4ACA3147639BE7023734B4
:100674000040938401828347A44093F7F70FADEBC6
:10068400894513854182971000E0E78000DFB7E7D2
:1006940000E03707000823A0E7180100010039A88B
:1006A4001147639DE700A30701001544B7340040D8
:1006B400138901828347F100637CF4007244E244AD
:1006C400524905617300203083475740730020303E
:1006D40083C5844003250900971000E0E780E0D13A
:1006E4008347F100850793F7F70FA307F100D9B704
:1006F400834584408840971000E0E78000D0A5BF80
:100704002303048015472303E48001002302A4800B
:10071400828083076480E3CE07FE23030480828003
:1007240083076480E3CE07FE034544808280830709
:100734006480E3CE07FE2302A4808280411126C494
:100744004AC24EC006C61377F50BAD47AA892E8957
:1007540095446306F70019456537653F8D444E851A
:100764004537FD59FD1463983401B240A24412493F
:10077400824941018280135509011375F50F453FE4
:100784002209CDB7011126CC06CEB7040800513793
:100794001545BD37713769372AC6A53F324593776A
:1007A400150089EB136515001375F50FF240E2444B
:1007B40005618280FD14E9FC0145CDBF397126DC59
:1007C4004ADA4ED852D656D45AD25ED006DE62CE1B
:1007D40066CCB7E700E07D5783AA070022C603AAC8
:1007E400470023A0E71823A2E718B7170040130710
:1007F40070052380E704130780FA2380E70483C786
:100804004704930B75FFB684E20793FBFB0F854601
:10081400AA892E8B328937240040E187015763FA75
:1008240076016308D5008946130700026313D500D7
:100834000157D98F93F7F70FB71C00402382FC04AC
:1008440011472303E4801305F00F5D3D094CD135B6
:10085400636D7C11B7050700DA9537870700795572
:1008640063F2E504B3879500636EF702370B080063
:10087400A94733EB65016399F90689E48144513D45
:1008840026850DA0DA850945553D05090345F9FF7F
:10089400FD14050B693D81C49377FB0FFDF7DD352E
:1008A40069FD7D55B7170040130770052380E704E1
:1008B400130780FA2380E70403C74704418B23828C
:1008C400E704F250B7E700E023A0571123A2471131
:1008D400E25432445259C259325AA25A125B825BD0
:1008E400724CE24C21618280A5476395F9068569C3
:1008F4001309F00FB3069900B3742B01B69413498E
:10090400F9FFB3749900856B33796901416B93875F
:10091400F9FFB3F7270199E363FC340193D9490044
:10092400C147E3E637FF99BF0569C1697D19D9B7A6
:100934001305800D6388690113050002638479013E
:1009440013051008CA85DD3B353D21DD4E99B3847E
:100954003441D9B7DA852D45D533CA94E30099F2E9
:1009640005097D3BA30FA9FED5BF9387F9FF93F734
:10097400F70F6361FC0C83C71C0413073008631F63
:10098400F70437070800636BEB04B3079B00B70653
:10099400100063F5D704334BEB0089476393F906E2
:1009A4008980D549E38C04ECDA850945413B11097A
:1009B4000327C9FF91472320E48003076480E34EA3
:1009C40007FE23033481FD17EDFBFD14110B81C4D5
:1009D4009377FB0FE9FF7D3371F5E1B5B71700405D
:1009E40003C75704B70708001377070219E3B7874B
:1009F40007007955E378FBEA33079B00E3FFE7F848
:100A040055B58547E382F9F2DA852D45053B93898F
:100A1400F4FFE38504E6293393F7390091EB832649
:100A240004800327090093074900E39AE6E43E891A
:100A3400CE84F1BFB5476396F9001305900BC93115
:100A440035BDB1471305B00AE38BF9FE99476391AD
:100A5400F904B7050800B365BB002D45C5318144D1
:100A64008D4BA14975396396740183270480232033
:100A7400F9008504E39834FF8327048013172B01BE
:100A8400635507002312F900D5BB2322F900FDB3F7
:100A94009D476399F90281451305B0044531BD446E
:100AA4002320090023220900FD599D3993F774007E
:100AB400CA9703C70700FD14398D2380A700E39666
:100AC40034FF6DBBA1476392F9046D398144630D12
:100AD4000B008D479304C0036308FB0093040005D7
:100AE40063048B01930440041375C507E30895D888
:100AF4001945393139390545213126850D390945DD
:100B04003D314931E31C05D669BB91476399F9002E
:100B140013056006F536F53E130590090DB7E38F0E
:080B240009D4F154A9BB000043
:100B2C00971100209381C185177100201301C14CCE
:100B3C001305400097F5FF1F9385054C1706002001
:100B4C00130606FE63FAC5008322050023A0550098
:100B5C0011059105E3EAC5FE171500001305C562E2
:100B6C00970500209385C5FB1386818063FAC50029
:100B7C008322050023A0550011059105E3EAC5FE6B
:100B8C00138581809385C1836377B500232005008D
:100B9C001105E36DB5FEFD42739002BC8D4273905E
:100BAC004280930280087390023097F2FF1F938269
:100BBC00A24493E232007390523097120000938259
:100BCC00828473901234730020303D432A87637300
:100BDC00C3029377F700BDEFADE5937606FF3D8A30
:100BEC00BA960CC34CC30CC74CC74107E36BD7FE7A
:100BFC0011E28280B306C3408A06970200009696E3
:100C0C006780A6002307B700A306B7002306B7002A
:100C1C00A305B7002305B700A304B7002304B7004E
:100C2C00A303B7002303B700A302B7002302B70046
:100C3C00A301B7002301B700A300B7002300B7003E
:100C4C00828093F5F50F93968500D58D93960501CB
:100C5C00D58D61B7939627009702000096968682F1
:100C6C00E78086FA9680C1171D8F3E96E374C3F811
:100C7C00A5B7914763EEB702171700001307873C1F
:100C8C008A05BA959C41BA978287B717004003A78B
:100C9C00470B1345F5FF698F23AAE70A03A7070B38
:100CAC00698F23A8E70A03A7070A798D23A0A70A4F
:100CBC008280B717004083A6470B1347F5FFF98EC8
:100CCC0023AAD70A83A6070B558D23A8A70A83A6A8
:100CDC00070A758F23A0E70A8280B717004003A785
:100CEC00470B498F23AAE70A03A7070B1345F5FF08
:100CFC0045BFB717004083A6470B1347F5FF758F09
:100D0C0023AAE70A03A7070A598D4DB7B717004066
:100D1C0003A7470B498FEDB7914763EEB70217173F
:100D2C000000130767338A05BA959C41BA978287EE
:100D3C00B717004003A7470D1345F5FF698F23AA8A
:100D4C00E70C03A7070D698F23A8E70C03A7070C73
:100D5C00798D23A0A70C8280B717004083A6470D7E
:100D6C001347F5FFF98E23AAD70C83A6070D558DD3
:100D7C0023A8A70C83A6070C758F23A0E70C8280F1
:100D8C00B717004003A7470D498F23AAE70C03A709
:100D9C00070D1345F5FF45BFB717004083A6470D58
:100DAC001347F5FF758F23AAE70C03A7070C598D82
:100DBC004DB7B717004003A7470D498FEDB7B717CD
:100DCC00004003D7870109C5D98D239CB7008280C9
:100DDC0093C5F5FFF98DD5BFB717004003D5870034
:100DEC00420541819377050491EB9377F5013755D3
:100DFC00E801130505803345F50282809377050CD5
:100E0C00130700046397E7009377F50137459C1CA3
:100E1C00CDB72165130505D0828081473737004057
:100E2C00A14663C4C700328582800345B700E38EB8
:100E3C00A6FE3385F5000345050085072304A700AE
:100E4C00CDB7970700209387A7D39C431387C18303
:100E5C003E95636EE500177700201307E7F963688A
:100E6C00A70017070020232DA7D03E858280FD57B1
:100E7C00EDBF411122C406C62A84B93F2947B307E6
:100E8C00E502B2408D83B3D7870222449507B3D7CE
:100E9C00E70237370040C207C1832316F7404101F0
:100EAC008280716541111305052006C6D937B73705
:100EBC000040130770F82381E7400D47A381E740FA
:100ECC0013070004A380E74005472387E740B2409F
:100EDC0041018280011122CC26CA4AC84EC606CED8
:100EEC00AA840144138901819389818263908402CD
:100EFC001387C18289460F00500FAF26D70CF240E2
:100F0C006244D2444249B249056182808327090078
:100F1C0003A50900A29783C507000504F921F9B7B9
:100F2C00B787004003C767001377F70F9376270046
:100F3C0063800646011106CE22CC26CA4AC84EC68C
:100F4C0003C777009306000313770703630BD702DD
:100F5C0003C7770091461377F703630AD71E63E242
:100F6C00E60C85466303D71C6307071C8946630B95
:100F7C00D7188D46630BD71AB787004009472383D0
:100F8C00E7003787004083477700E207E18763DBA0
:100F9C00072C930720FC2301F7029386C18088421B
:100FAC00034775008347650022075D8F239DE18011
:100FBC0083471500A38CF1808344050013F60406C7
:100FCC006303061E1307000C6396E4321307F00547
:100FDC00639CE718971700009387071A23AEF180DC
:100FEC00014409469387C1818C4379219307F00F03
:100FFC00630FF42483D7A181930600043E8763F426
:10100C00F6001307000442074183998F9376F70F7C
:10101C00239DF180B78700402380D702130700FC83
:10102C001DAC930620026309D70E63E3E602930618
:10103C0000026306D70493061002E31FD7F203C71E
:10104C0067021377C70F136727002383E7022DB7B7
:10105C00930630026304D70E93064002E31ED7F0CA
:10106C0003C72703134707042389E70203C7270392
:10107C001377C70F136727002389E702F5BD03C752
:10108C00918195466302D7069946631AD7069387D2
:10109C00A18103D4070013070004BE846374870086
:1010AC00130400049387C1801389C18188434204CF
:1010BC008325090041802286C12683D704009379B9
:1010CC00F40F818F239DF180832709003E9423AE7A
:1010DC008180B78700402380370303C7270213475B
:1010EC0007042381E70249BD03C7370083C6A181EA
:1010FC0013770708558FA381E7000947DDB72380D5
:10110C000702E5BF03C7770013770704E30607E67A
:10111C0003C58700C1338DB503C7A7021377C70F6B
:10112C00136727002385E70281BD03C77700137778
:10113C000704E30307E483C787003DBD03C7E70249
:10114C001377C70F136727002387E70235B503C74B
:10115C00770013770704E30107E203C7270313475C
:10116C0007082389E702C1BF130750091304F00FC6
:10117C006399E7028347350003472500A207D98FFF
:10118C0061476397E70097170000938727FFB9B56E
:10119C00194701446397E70097170000938747FEB0
:1011AC0035BD014681B529466363F60A1716000062
:1011BC001306C6EB8A07B2979C43B2978287834784
:1011CC003500834625000946A207D58F93D68700A4
:1011DC006381C60A6368D6008547638FF6001304E3
:1011EC00F00F09A88D456380B60A930720020144CD
:1011FC00E397F6FE814709A897170000938747EC01
:10120C0023AEF1800144C947C207C18363F4E700F0
:10121C00239DF1809387A18103D6070093070004D7
:10122C0063F4C700130600049389C18113190601E6
:10123C0083A50900135909014A863D2C03A6090010
:10124C004A9623AEC1809307F00F6315F40AB78753
:10125C0000401307F0FC2381E702B78700400947E1
:10126C002383E700F2406244D2444249B24905610B
:10127C00828097170000938727E223AEF180014408
:10128C009307700251B793F7F70F8546638ED7001B
:10129C008DC7E396C7F4971700009387A7E423AE96
:1012AC00F1800144F1478DB797170000938787E2CF
:1012BC0023AEF1800144B94781BF97170000938793
:1012CC0067EB23AEF180014491473DBF8347250076
:1012DC00239DF18005A083C781812300F50003D7EE
:1012EC00A181854763F8E7008547DDB78347250073
:1012FC00238CF180E204E184E3CE04CE814619BB59
:10130C0013F7F4018947E314F7F48347450063812D
:10131C00E704636CF7000547E39BE7F2378700406F
:10132C008347670293F7370799A013071008638860
:10133C00E70213072008E39CE7F037870040834758
:10134C00A70293F7C70B93E727002305F7025DB7B6
:10135C00378700408347A70293F73707FDB73787D6
:10136C0000408347670293F7C70B93E727002303DB
:10137C00F70249B7230005009DB7230005009C42E6
:10138C00A380070003D7A1818947E3F5E7F689B766
:10139C00937617008DC2A381070009472381E702CA
:1013AC0049472383E7022385E7022387E7020547A2
:1013BC002383E700828093764700FDDA03C757004A
:1013CC001147FDB71041144583576500035745007D
:1013DC00B306D640958F998F63F3B70001A0BA95E9
:1013EC002312B5003305E6008280411122C42E84FD
:1013FC00854506C6C13F23008500B2402244410109
:10140C00828041111305800406C622C497F0FF1F89
:10141C00E780A0C791457D55EFF0BF8591457D557F
:10142C00E538371400408327C40A93050002FD57A2
:10143C002326F40A0327C40C05452326F40C413259
:10144C00854513050010C9388327840C130500202B
:10145C00914593E707202324F40C7D389934171514
:10146C0000001305E5C94D2201A0AE870F00500FF7
:10147C00AF27F50C3E858280B3C7A5008D8B330753
:10148C00C50081E78D4763EEC700AA876370E50A44
:10149C0083C6050085078505A38FD7FEE3EAE7FE23
:1014AC00828093763500AA8791CA83C6050085078A
:1014BC008505A38FD7FE93F63700FDB79376C7FF4C
:1014CC00138606FE63F0C70683A3050083A24500BE
:1014DC0083AF850003AFC50083AE050103AE4501A4
:1014EC0003A3850183A8C5019385450223A077003A
:1014FC0003A8C5FF23A2570023A4F70123A6E701E5
:10150C0023A8D70123AAC70123AC670023AE170178
:10151C009387470223AE07FF75B79041910791055A
:10152C0023AEC7FEE3EBD7FEE3E4E7F682800111BE
:10153C0026CA4AC806CE22CC4EC652C4AA842E89CC
:10154C0001C51C4D91E3ED299C4C804499E3268503
:10155C00C529971700009387E7BD631CF402C040B0
:10156C008357C400A18BB1C71C48A1C7FD59294A98
:10157C001C4483450900FD17B1E91CC463DE070652
:10158C002286A94526854128FD576308F502294581
:10159C0035A0971700009387E7BB6314F4008044D1
:1015AC00C1B7971700009387E7B6E31BF4FAC04462
:1015BC0045BFA2852685052255D97D55F24062444A
:1015CC00D2444249B249224A056182801CC40509B1
:1015DC0063D70700184C63CBE700638945011C40B7
:1015EC001387170018C02380B70059B722862685A9
:1015FC001D20E31F35F7D1B71C401387170018C007
:10160C0029472380E70061B797F7FF1F9387875718
:10161C00AA85884329BF011122CC26CA4AC806CE06
:10162C004EC6AA842E89328401C51C4D91E309292A
:10163C0097170000938707B06319F406C0401C4C41
:10164C001CC48357C400A18BC9C31C48BDCF1C4804
:10165C0008409379F90F1379F90F1D8D5C48634697
:10166C00F500A2852685752C2DE51C440505FD1776
:10167C001CC41C401387170018C0238037015C481A
:10168C006389A7008357C400858B81CBA947631658
:10169C00F900A285268571240DEDF24062444A853D
:1016AC00D2444249B2490561828097170000938762
:1016BC0067AA6314F400804459B797170000938706
:1016CC0067A5E31EF4F6C0449DBFA28526852120A4
:1016DC003DDD7D59D9B7411197F7FF1F9387874A95
:1016EC0026C2844322C44AC006C62A892E8489C4D1
:1016FC009C4C99E32685A92697170000938787A30E
:10170C00631CF402C0400317C40093170701C18384
:10171C0093F68700B5EE93F607019DEEA5472320BF
:10172C00F900136707042316E4007D55B2402244E8
:10173C00924402494101828097170000938787A148
:10174C006314F4008044C1B7971700009387879CFB
:10175C00E31BF4FAC04445BF918B8DC74C5889C923
:10176C00930744046384F5004A858123232A0402E9
:10177C008357C4002322040093F7B7FD2316F4000B
:10178C001C481CC08357C40093E787002316F40041
:10179C001C4881EF8357C4001307002093F70728D8
:1017AC006385E700A2854A859D218357C40013F702
:1017BC00170005C75C4823240400B307F0401CCC79
:1017CC001C480145A5F78317C40013F7070839DF38
:1017DC0093E707042316F40089BF898B014791E333
:1017EC00584818C4F1BF83D7C500011122CC26CAB2
:1017FC0006CE4AC84EC613F78700AA842E8471EF12
:10180C00D841634DE000B841634AE0000145F24025
:10181C006244D2444249B2490561828058547DD712
:10182C0003A904009396370123A0040063DD060688
:10183C0070488357C400918B99C75C401D8E5C58CF
:10184C0099C33C401D8E5C540C5081462685829772
:10185C00FD570357C400631DF5009440F54763E83A
:10186C00D706B70740208507B3D7D700858BA5C30C
:10187C001C48232204001CC09317370163D80700AF
:10188C00FD576314F5009C4091E368C84C5823A0A5
:10189C002401ADDD930744046384F50026853121D2
:1018AC00232A0402A5B70C500146854626850297CB
:1018BC00FD572A86E31FF5F69C40A5DF7547638527
:1018CC00E70059476394E70423A0240181B7136709
:1018DC0007042316E4007D551DBF83A90501E3878A
:1018EC0009F203A905008D8B23A035013309394179
:1018FC00014791E3D84918C4E35A20F11C540C5009
:10190C00CA864E86268582976349A0008357C400F9
:10191C0093E707042316F4007DBFAA993309A94065
:10192C00E1BF9C49B9CF011122CC06CE2A8411C546
:10193C001C4D81E72EC62922B245970700009387DC
:10194C00677F639BF5004C408397C50095C7228544
:10195C006244F240056141BD970700009387877F81
:10196C006394F5000C44CDB7970700009387877AF2
:10197C00E39CF5FC4C44C9BFF2406244014505614F
:10198C00828001458280411122C406C62A84231616
:10199C00B5002317C50023200500232205002324AE
:1019AC0005002322050623280500232A0500232CE5
:1019BC000500214681451305C505EFF00FA19707DA
:1019CC000000938787485CD0970700009387E74A0D
:1019DC001CD4970700009387274F5CD4970700000F
:1019EC009387E75100D01CD8B24022444101828039
:1019FC0097050000938525F389AA411126C2130689
:101A0C0080069384F5FFB384C4024AC02E8922C495
:101A1C0006C693854407252E2A8401CD2320050074
:101A2C0023222501310508C4138684068145EFF075
:101A3C00CF992285B24022449244024941018280CE
:101A4C001C4DBDE3411106C622C4970700009387C5
:101A5C0067FA1CD5970700009387C7729C43232411
:101A6C00050423260504232805046314F500854783
:101A7C001CCD2A841D2848C02285052808C422852F
:101A8C002D2048C4484001469145F53D0844054683
:101A9C00A545D53D48440946C945F53585471CCC77
:101AAC00B24022444101828082804111970700009C
:101ABC009387476D26C284434AC006C69C4C22C4F9
:101ACC002A8999E32685AD3F938484048044DC40C5
:101ADC00FD1763D607009C40B9CF8440C5BF0317E0
:101AEC00C40039E7C17785072322040623200400AC
:101AFC0023220400232404005CC423280400232A8A
:101B0C000400232C0400214681451305C405EFF085
:101B1C00CF8B232A0402232C04022324040423261F
:101B2C0004042285B240224492440249410182803D
:101B3C001304840671BF91454A85C13588C051FD97
:101B4C00B1472320F9000144E9BF797122D44AD06E
:101B5C0052CC56CA5AC85EC606D626D24ECE2A8A51
:101B6C00AE8A130485040149054BFD5B09ECB250A8
:101B7C0022544A8592540259F249624AD24A424B43
:101B8C00B24B45618280044483294400FD1963D41F
:101B9C0009000040E1BF83D7C400637BFB0083973F
:101BAC00E40063877701A6855285829A3369A90080
:101BBC0093848406E1BF1971A6DAAE848395E5009F
:101BCC00A2DC86DE328463DC050083D7C40023A04C
:101BDC00060093F707089DE39307004015A0300813
:101BEC0036C6952EB246E34205FE7247BD67F98FA5
:101BFC007977BA9793B717009CC2F9BF9307000483
:101C0C001CC0F6506654D65401450961828083D7B6
:101C1C00C500011122CC06CE26CA4AC8898B2E8457
:101C2C0089CF930774041CC01CC885475CC8F2405C
:101C3C006244D24442490561828074003000AA8417
:101C4C009D3FA2452A892685192201ED8317C400E0
:101C5C0013F7072069FFF19B93E727002316F40085
:101C6C00C9B7970700009387E7D89CD48357C40063
:101C7C0008C008C893E707082316F400A2475CC8FD
:101C8C00B24789CF8315E4002685DD2C01C9835723
:101C9C00C400F19B93E717002316F4008357C4008C
:101CAC003369F9002316240159B7CDC183A7C5FFA9
:101CBC00411122C406C626C21384C5FF63D3070094
:101CCC003E94AA84012E938701839C4399EB232293
:101CDC00040023A881822244B2402685924441010B
:101CEC00DDAC637EF40014403307D4006396E70048
:101CFC009843DC43369718C05CC0E1BFBA87D84321
:101D0C0019C3E37DE4FE94433386D700631F86003A
:101D1C001040B29694C33386D700E31EC7FA104323
:101D2C005843B29694C3D8C37DB76375C400B1470A
:101D3C009CC055B71040B306C4006316D7001443BB
:101D4C005843B29614C058C0C0C371B782800111F9
:101D5C0026CA93843500F19806CE22CC4AC84EC6CA
:101D6C00A104B14763F1F404B14463E0B4042A89DB
:101D7C0095249387018398433A8431E09387418378
:101D8C009C4391E781454A85512823AAA182A685C7
:101D9C004A856920FD5963173507B1472320F9009F
:101DAC004A85152C29A0E3D204FCB1471CC101457E
:101DBC00F2406244D2444249B249056182801C40DF
:101DCC00858F63CE0702AD4663F6F6001CC03E94C9
:101DDC0004C031A05C406312870223A8F1824A85BB
:101DEC00DD2A1305B4009307440061993307F540CD
:101DFC0061D33A94898F1CC065BF5CC3CDB7228771
:101E0C004040A5BF130435007198E30385FCB3056E
:101E1C00A4404A852120E31D35FB41B7411122C462
:101E2C002A842E8523AC018206C6EFF08F81FD57E4
:101E3C006317F500938781839C4391C31CC0B24008
:101E4C00224441018280411122C42E848395E500F5
:101E5C0006C65922634905007C48AA977CC8B24043
:101E6C002244410182808357C4007D777D17F98F0E
:101E7C002316F400EDB783D7C500011122CC26CA76
:101E8C004AC84EC606CE93F70710AA842E84328910
:101E9C00B68991C78395E50089460146312283575F
:101EAC00C4007D777D17F98F2316F4008315E400A9
:101EBC006244F240CE864A86B24942492685D244D3
:101ECC0005613DA8411122C42E848395E50006C608
:101EDC00E128FD570357C400631BF500FD77FD1780
:101EEC00F98F2316F400B2402244410182808567A9
:101EFC00D98F2316F40068C8FDB78395E50005A8B3
:101F0C00411122C42A842E85B285368623AC0182E7
:101F1C0006C6EFE09FF0FD576317F50093878183AA
:101F2C009C4391C31CC0B2402244410182804111A8
:101F3C0022C42A842E8523AC018206C6E120FD57DB
:101F4C006317F500938781839C4391C31CC0B240F7
:101F5C00224441018280411122C42A842E85B285FB
:101F6C0023AC018206C66D20FD576317F5009387DD
:101F7C0081839C4391C31CC0B240224441018280A6
:101F8C00411122C42A842E8523AC018206C67920F5
:101F9C00FD576317F500938781839C4391C31CC045
:101FAC00B240224441018280411122C42A842E85F0
:101FBC00B285368623AC018206C6BD20FD57631759
:101FCC00F500938781839C4391C31CC0B24022448B
:101FDC004101828082808280411122C42A842E8514
:101FEC00B285368623AC018206C6A920FD5763173D
:101FFC00F500938781839C4391C31CC0B24022445B
:10200C00410182809307800523ACF1827D5582804B
:10201C009307800523ACF1827D5582809307800560
:10202C0023ACF182014582809307800523ACF182B9
:10203C007D5582809307800523ACF1827D5582808B
:10204C004AECFFFF72ECFFFF9AECFFFFB2ECFFFFD4
:10205C00CCECFFFFDCECFFFF04EDFFFF2CEDFFFFF2
:10206C0044EDFFFF5EEDFFFF12F3FFFF98F2FFFF61
:10207C00E6F1FFFFE6F1FFFFE6F1FFFF64F2FFFF81
:10208C0056F1FFFFE6F1FFFF6EF2FFFF84F2FFFF58
:10209C000CF3FFFF0902270001010080F009040086
:1020AC000003FF0102000705820220000007050261
:1020BC000220000007058103080001001201100135
:1020CC00FF000040861A2375630200020001000025
:1020DC000E037700630068002E0063006E000000A2
:1020EC001C0355005300420032002E0030002D001E
:1020FC00530065007200690061006C00434835387C
:10210C00785F424C455F4C49425F56322E3030006E
:10211C0000000000000000000000000000000000B3
:10212C0000000000000000000000000000000000A3
:10213C000000000000000000000000000000000093
:10214C000000000000000000000000000000000083
:10215C000000000000000000000000000000000073
:10216C000000000000000000000000000000000063
:10217C000403090431000000C30000009FEE0000BE
:04218C00280B0020FC
:10219000000000003C2100005C2100001C21000028
:1021A000000000000000000000000000000000002F
:1021B000000000000000000000000000000000001F
:1021C000000000000000000000000000000000000F
:1021D00000000000000000000000000000000000FF
:1021E00000000000000000000000000000000000EF
:0821F000C40B0020280B0020A5
:00000001FF
