:040000006F10102B42
:100004000000000000000000900000208A0400208E
:10001400A9BDF9F5900000200000000000000000D8
:10002400900000209000002000000000000000006C
:10003400900000200000000090000020000000005C
:1000440090000020900000209000002090000020EC
:1000540090000020900000209000002090000020DC
:1000640090000020900000209000002090000020CC
:100074007E050020900000209000002090000020C9
:1000840090000020900000209000002090000020AC
:1000940001A073270080218B9387018409CB7327E8
:1000A400008023A0E18498435D9B731007800100C6
:1000B400010037170040930670052300D704930608
:1000C40080FA2300D704010001008346B70493F6A5
:1000D400F60DA305D7042300070473260080944378
:1000E400A18AD18E7390068023A0018401000100AF
:1000F40093760502638406180347A700118B25E74E
:1001040073270080218B09CB7327008023A0E1840F
:1001140098435D9B7310078001000100371700406E
:10012400930670052300D704930680FA2300D704AE
:10013400010001008346A70093E646002305D7008B
:1001440023000704F32600809843218B558F7310F6
:10015400078023A00184010001001307004B010064
:1001640001007D176DFF73270080218B09CB732756
:10017400008023A0E18498435D9B731007800100F5
:10018400010037170040930670052300D704930637
:1001940080FA2300D704010001007D892314A700FD
:1001A400010001000100010023000704F326008080
:1001B4009843218B558F7310078023A0018401007D
:1001C400010073270080218B09CB7327008023A0B3
:1001D400E18498435D9B7310078001000100371789
:1001E4000040930670052300D704930680FA230089
:1001F400D7040100010001000100B72600401306E6
:100204001005A383C68023000704F32600809843C7
:10021400218B558F7310078023A0018401000100F6
:1002240073270080218B09CB7327008023A0E184EE
:1002340098435D9B7310078001000100371700404D
:10024400930670052300D704930680FA2300D7048D
:10025400010001008346B70493E60608A305D7040A
:1002640023000704732700809C43A18BD98F7390CC
:10027400078023A001840100010082809376050495
:10028400638B06140347A700418B25E7732700807F
:10029400218B09CB7327008023A0E18498435D9BC5
:1002A40073100780010001003717004093067005A2
:1002B4002300D704930680FA2300D7040100010029
:1002C4008346A70093E606012305D700230007040D
:1002D400F32600809843218B558F7310078023A049
:1002E4000184010001001307007D010001007D1756
:1002F4006DFF73270080218B09CB7327008023A017
:10030400E18498435D9B7310078001000100371757
:100314000040930670052300D704930680FA230057
:10032400D704010001009376F50193E60604231433
:10033400D700010001000100010023000704F32697
:1003440000809843218B558F7310078023A001846C
:1003540001000100130760046310E50473270080A3
:10036400218B09CB7327008023A0E18498435D9BF4
:1003740073100780010001003717004093067005D1
:100384002300D704930680FA2300D7040100010058
:10039400B72600400946B5B573270080218B09CBE9
:1003A4007327008023A0E18498435D9B731007802A
:1003B4000100010037170040930670052300D7049D
:1003C400930680FA2300D70401000100B7260040F9
:1003D400130620053DB573270080218B09CB7327B5
:1003E400008023A0E18498435D9B73100780010083
:1003F400010037170040930670052300D7049306C5
:1004040080FA2300D704010001008356870093E695
:10041400060C2314D700C5BB411181460146814512
:10042400114506C6152CF3270080A18B9386018401
:1004340089CBF327008023A0F1849C42DD9B739039
:10044400078001000100B7170040130770052380DF
:10045400E704130780FA2380E7040100010003C7BF
:100464006704136717002383E704238007047327B3
:1004740000809C42A18BD98F7390078023A00184B4
:1004840001000100B240410182808146014681455C
:100494001145D922F3270080A18B1387018489CBCE
:1004A400F327008023A0F1841C43DD9B7390078015
:1004B40001000100B7170040930670052380D7049C
:1004C400930680FA2380D70401000100FD56239689
:1004D400D70223800704F32600801C43A18BD58F09
:1004E4007390078023A0018401000100F32700809A
:1004F400A18B89CBF327008023A0F1841C43DD9BCF
:100504007390078001000100B7170040930670053F
:100514002380D704930680FA2380D70401000100C6
:1005240083C6670493E616002383D7042380070455
:10053400F32600801C43A18BD58F7390078023A0E2
:1005440001840100010001A0BD473305F50201004B
:100554007D1575FD8280411122C426C206C6AA8477
:10056400014463179400B2402244924441018280C2
:1005740005041305803E4204C13F4180DDB7B7172F
:100584000040130700032388E702854723A4F1846E
:1005940073002030411106C6A92DFDBF230304803A
:1005A40015472303E48001002302A480828083078B
:1005B4006480E3CE07FE2303048082808307648083
:1005C400E3CE07FE03454480828083076480E3CE44
:1005D40007FE2302A4808280411126C44AC24EC071
:1005E40006C61377F50BAD47AA892E899544630691
:1005F400F70019456537653F8D444E854537FD59EC
:10060400FD1463983401B240A24412498249410165
:100614008280135509011375F50F453F2209CDB7A3
:10062400011126CC06CEB704080051371545BD3755
:10063400713769372AC6A53F32459377150089EB90
:10064400136515001375F50FF240E24405618280CD
:10065400FD14E9FC0145CDBF397126DC4ADA4ED8D8
:1006640052D656D45AD25ED006DE62CE66CCB7E7F6
:1006740000E07D5783AA070022C603AA470023A0EF
:10068400E71823A2E718B717004013077005238063
:10069400E704130780FA2380E70483C74704930B16
:1006A40075FFB684E20793FBFB0F8546AA892E8B60
:1006B400328937240040E187015763FA76016308E1
:1006C400D5008946130700026313D5000157D98F5B
:1006D40093F7F70FB71C00402382FC041147230350
:1006E400E4801305F00F5D3D094CD135636D7C1139
:1006F400B7050700DA9537870700795563F2E504F3
:10070400B3879500636EF702370B0800A94733EBF4
:1007140065016399F90689E48144513D26850DA05C
:10072400DA850945553D05090345F9FFFD14050B17
:10073400693D81C49377FB0FFDF7DD3569FD7D5578
:10074400B7170040130770052380E704130780FAE6
:100754002380E70403C74704418B2382E704F25054
:10076400B7E700E023A0571123A24711E254324413
:100774005259C259325AA25A125B825B724CE24CF1
:1007840021618280A5476395F90685691309F00FF5
:10079400B3069900B3742B01B6941349F9FFB374EB
:1007A4009900856B33796901416B9387F9FFB3F73E
:1007B400270199E363FC340193D94900C147E3E677
:1007C40037FF99BF0569C1697D19D9B71305800D34
:1007D4006388690113050002638479011305100815
:1007E400CA85DD3B353D21DD4E99B3843441D9B70B
:1007F400DA852D45D533CA94E30099F205097D3B8A
:10080400A30FA9FED5BF9387F9FF93F7F70F636191
:10081400FC0C83C71C0413073008631FF704370755
:100824000800636BEB04B3079B00B706100063F585
:10083400D704334BEB0089476393F9068980D54984
:10084400E38C04ECDA850945413B11090327C9FF10
:1008540091472320E48003076480E34E07FE2303CB
:100864003481FD17EDFBFD14110B81C49377FB0F4D
:10087400E9FF7D3371F5E1B5B717004003C75704AD
:10088400B70708001377070219E3B78707007955FC
:10089400E378FBEA33079B00E3FFE7F855B58547A8
:1008A400E382F9F2DA852D45053B9389F4FFE3856C
:1008B40004E6293393F7390091EB83260480032758
:1008C400090093074900E39AE6E43E89CE84F1BF28
:1008D400B5476396F9001305900BC93135BDB1478F
:1008E4001305B00AE38BF9FE99476391F904B70540
:1008F4000800B365BB002D45C53181448D4BA1492A
:10090400753963967401832704802320F9008504D4
:10091400E39834FF8327048013172B0163550700E2
:100924002312F900D5BB2322F900FDB39D47639937
:10093400F90281451305B0044531BD442320090063
:1009440023220900FD599D3993F77400CA9703C700
:100954000700FD14398D2380A700E39634FF6DBB97
:10096400A1476392F9046D398144630D0B008D47EF
:100974009304C0036308FB009304000563048B0124
:10098400930440041375C507E30895D81945393114
:1009940039390545213126850D3909453D3149311E
:1009A400E31C05D669BB91476399F90013056006FA
:1009B400F536F53E130590090DB7E38F09D4F154CC
:1009C400A9BB19CD91CD09CE81473387F500834664
:1009D40007003307F50085072300D700E317F6FE69
:1009E400828019C991C909CA910583A7C5FF110558
:1009F4007D16232EF5FEC5BF828001C919C62A962D
:100A04000505A30FB5FEE31DA6FE828081473307CB
:100A1400F5000307070019E33E8582808507C5BFFB
:100A240001112E8626CAAA84131506019305F00423
:100A3400418122CC06CE32C6EF00F0592A8401C58A
:100A44003246A685BD3F2285F2406244D244056108
:100A54008280854715C18DC105C28147B306F50063
:100A64003387F50083C60600034707006398E60052
:100A74008507E315F6FE85473E8582808147EDBFF5
:100A84009307F6FFBE952A966313C5008280FD1571
:100A940083C715000505A30FF5FEFDB7AA87014519
:100AA40081CF09CE3E96850703C7F7FF6317B700CA
:100AB400E39BC7FE0545828082800145828079716F
:100AC4009387818622D4804306D626D24AD04ECE3E
:100AD40052CC56CA5AC85EC65DCCB7C4C901014BD4
:100AE400938901869384F437173A0000130A8AF035
:100AF400973A0000938ACAF317390000130989F75B
:100B04008357240085E35C44631B0B0023A4F18614
:100B1400832BC4002285EF0070585E84B9A8232675
:100B2400FB00FDB783A7090082971C443307F540F7
:100B34006376F500032749001D8F2A9763E0E408D4
:100B44009737000023AE07EE8355240003450400C5
:100B5400973000E0E780608B5C405844A1CB0C44A4
:100B640003264900AE97BE8663E4B70063E4C7007A
:100B7400B386C74014C4228B3A8459F097370000D7
:100B8400938707EB9C4B09476370F706F9171737F0
:100B940000002327F7EAB250225492540259F24932
:100BA400624AD24A424BB24B4561828063150B00C4
:100BB40023A4E186B1BF2326EB0099BF03274A0291
:100BC40009CF63EFA7003385A74083A70A016376A3
:100BD400F5009737000023A5A7E6228B404471BF98
:100BE40003274900BA97C5B79737000023AA07E43B
:100BF4005DB7411122C4173400001304E4E51C401E
:100C040006C626C24AC091C782979737000023A51B
:100C140007E49737000083C777FC858B973400007F
:100C2400938484FB95C397370000A38907FA83C78D
:100C340074001547637AF700C12B83C77400F51756
:100C44008A07A2979C4382971C4491C38297138975
:100C540041850327090017360000034676DD9737E0
:100C6400000083C7E7DC93961700BA9683D6060084
:100C7400C5CE9737000083C7A7DB63E1C70C97375E
:100C84000000238707DA1C4063950712973700009A
:100C940083C717F591CF83C7740093F7F70F89EBD8
:100CA40097370000A38E07F2970001E0E780C03970
:100CB400938701869C43638E070E973700009387C2
:100CC40067DBDC4317370000232CF7D6CD3B97377F
:100CD4000000938727D2DC53E9CF173700001307AE
:100CE40027D5184B9737000083C717D26363F70CD7
:100CF40083C774001547636EF70A9737000083C7EC
:100D040027F2918BDDE7032609009736000083C69E
:100D140036D263C6D70A2244B24092440249410102
:100D2400173300E06700C3B5850793F7F70F9736CD
:100D34000000238FF6CEE3E4C7F225BF86073E9773
:100D44008355070023100700239E01849387C186DF
:100D54009C43173500000345A5CD13172500BA970A
:100D64009C43829783D7C18517370000034747CC3C
:100D740093C7F7FF7D8D93171700032709003E974C
:100D8400835707005D8D2310A7009737000083C7A2
:100D940027CA91C7850717370000230BF7C81737F1
:100DA40000000347E7C89737000083C777C8E37894
:100DB400F7ECB240224492440249410182801397E5
:100DC40017003297035707006DF7850799B7AD678A
:100DD40037C70040BD072326F7200F1000009737C0
:100DE40000009387E7C4C84F83278726BD66BD06E6
:100DF40093C7F7FF99836A052326D7205D8D8280E8
:100E04004111B7170040985F3AC6945F3247E39C9C
:100E1400E6FE3245410182801305F00F8280011104
:100E240022CC604126CA4AC84EC652C406CEAA8401
:100E34001D4A130965058549BC446364F4000545EE
:100E4400B9A003C7D40083474400631A470503C706
:100E540084026304F7000040C5B70347540083C706
:100E64005405E31AF7FE1946CA8513056400D536FE
:100E7400E31335FF0347C40083C79402E31DF7FC63
:100E84000357E40083D7A402E317F7FC0145F240BB
:100E94006244D2444249B249224A05618280E31C39
:100EA400F7FA0347540083C75405E316F7FA1946C3
:100EB400CA8513056400713EE31F35F9C1BF0111F2
:100EC40097370000938707DD22CC03A4070C26CABA
:100ED40006CE2AC42EC6854419E40145F240624474
:100EE400D244056182808347910003471400858BB7
:100EF4006304F7000044CDB719469305A100130518
:100F04002400813EE31895FE0545C9BF138701906F
:100F14001C439306001094C301000100010001006A
:100F24001C4323A007008346150003482500A2069E
:100F34004208C29603480500C29603483500620879
:100F4400C29694D78346550003486500A20642081A
:100F5400C29603484500C296034875006208C296CB
:100F6400D4D7834695000348A500A2064208C2963A
:100F740003488500C2960348B5006208C29694DB14
:100F84008346D5000348E500A2064208C2960348FA
:100F9400C5000345F500C2966205AA96D4DB83C654
:100FA400150003C52500A2064205AA9603C505003F
:100FB400AA9603C535006205AA9694CF83C6550048
:100FC40003C56500A2064205AA9603C54500AA9674
:100FD40003C575006205AA96D4CF83C6950003C5E0
:100FE400A500A2064205AA9603C58500AA9603C5D4
:100FF400B5006205AA9694D383C6D50003C5E5005F
:10100400A2064205AA9603C5C50083C5F500AA96A3
:10101400E205AE96D4D3D443F59AD4C3D44393E62D
:101024001600D4C3944393E6160094C3BA8794433A
:10103400D842058B59E3984E01452300E6009843B6
:10104400184F2183A300E6009843184F41832301DE
:10105400E6009843184F6183A301E6009C43D84FF0
:101064002302E600D84F2183A302E600D84F418330
:101074002303E600D84F6183A303E60098532304B7
:10108400E60098532183A304E60098534183230583
:10109400E60098536183A305E600D8532306E600CF
:1010A400D8532183A306E600D85341832307E600DF
:1010B400DC53E183A307F600828001008DBF138710
:1010C40041901443411122C49C5E4AC006C69983D0
:1010D40026C2858B3A8413890190D1C79C5E9734CC
:1010E4000000938464AF93F7F7F99CDE1737000090
:1010F4000347E7AE93070008631BF7008327090043
:101104009C4393F7070417370000230AF7AC83C7FF
:10111400040093F707048DC3938701869C43829749
:101124009737000023A2A7AC83C7040093F7F70BFB
:10113400173700002302F7AA83C7440093F7070474
:101144009DE3854717370000A30AF7A89387019109
:101154009C43096798C7130700FC97360000238F48
:10116400E6A6D844F8D31C40985F1183058B09CBBD
:10117400985F3D9B98DF0547973600002380E6A6DD
:10118400985F1D83058B11CB985F1377F7F798DF72
:101194008547173700002303F7A483270900D843A2
:1011A4000583058B19C7D843759BD8C3D843799B4E
:1011B400D8C3B24022449244024941018280397129
:1011C40006DE16DC1ADA1ED82AD62ED432D236D04F
:1011D4003ACE3ECC42CA46C872C676C47AC27EC0F3
:1011E400F93DF250E2525253C2533255A2551256AF
:1011F40082567247E2475248C248324EA24E124FBC
:10120400824F216173002030938701919443973773
:1012140000009387679C03C70700058B11CB9737A2
:101224000000238D079A97370000A389079A8280CC
:1012340003C71700058B65F7F85271FF83C7570082
:10124400DDB713884190032708001C5F9583858BC5
:10125400D1E709C61C5BBD832300F60085CA83273A
:101264000800985B4607935767016356070093E7A6
:1012740007C0C207C18303970600C207C18709C715
:10128400BA970947B3C7E7022390F60085CD834791
:1012940015008DCB9736000083C6669493F606043A
:1012A4001387970089478DCA3A95034705008546F9
:1012B40099471376F7066311D60262076187B94727
:1012C400634C0700832708009C5FED838D8B1737E1
:1012D4000000A308F79081473E8582808547EDBFD3
:1012E400411122C406C61384019118402DE9AE872A
:1012F4007453FDFE3E85B28597370000238F078C1B
:10130400970001E0E78080A9938741909C43B7064A
:1013140080009843558F98C3D857719BD8D7973777
:101324000000A38D078A97370000A387078A1C4013
:10133400094798C31440173700001307E789834708
:101344002700858B89EB83473700858BD9C3973773
:10135400000023850788B2402244410182808D47E2
:10136400631EF500938741909C43B7068000984321
:10137400558F98C3D857719BD8D76DBF8547E31B4A
:10138400F5FA5447F977FD17F58F5CC70F10000085
:101394001C40096798C7130700F817360000230F8D
:1013A400E682138741901043184231830D8B11E775
:1013B40013076019F8D3D4C7B5BF1842094631835F
:1013C4000D8B6315C7001307E043EDB71307E01B4C
:1013D400D5B7FC52ADF741B75D71A2C4A6C22A8449
:1013E400130680022800AE849305100886C6CAC07E
:1013F4004EDE52DCEFF06FE03545970001E0E78008
:1014040040D613834190832703009376F41F138EF1
:10141400819123A40700984B938E0191370FFCFF11
:101424001367F70398CBF84F130510F8B7020400BD
:10143400137707E0558FF8CF9843F576FD16758F2F
:1014440098C39843B7063300930380251377F7E7CF
:1014540098C3984311497D1F1377F7E71367071063
:1014640098C303270E008549930F80021C47D58F2C
:101474001CC783A70E001307900D3400B8CB014797
:1014840093553700A69583C7050013767700B3D725
:10149400C740858BE1C38327030083280E00239C68
:1014A40007042390070603A8C8021378D8FF23A6CD
:1014B400080383A807001378F70793F808F833E8BC
:1014C400080123A0070103A847023368580023A298
:1014D400070383A80E00014823A2780603DA07064F
:1014E4006307480303A80703038A06001358F80098
:1014F40062081358884163580A0103A80703135864
:10150400F8002380060103D807061378F80F03AA0E
:10151400480663060A0003DA8705E37F49FB03A84C
:1015240047023378E80123A2070383870600635C3C
:10153400F40003C805003396C9001346F6FF33765A
:1015440006012380C5003E8663D3A7002A861315AF
:101554008601618505071377F70F8506E312F7F314
:10156400B640264496440649F259625A6161828023
:10157400938601919C42D8471316170163550602BE
:10158400984713161701635006027D57B8D71727DB
:1015940000001307E749584F0507172600002327C3
:1015A400E64A116798C798470D83058B1DC3172713
:1015B4000000034787621367170017260000230EF5
:1015C400E660130700F8172600002309E6602147A8
:1015D40098C79847058B09CF172700000347D75FA3
:1015E4001367170017260000A308E65E054798C78F
:1015F40098470983058B09E798470583058B21CF15
:101604009847172600001306265D13854190098329
:10161400058B630307101841184331830D8B75EB59
:10162400AC4B184E93F5050203471700CDCD79EF67
:1016340013077006D8CF0347060013671700172651
:101644000000230BE658114798C718415C57F19BDB
:1016540093E717005CD79C4298479316370163D6EB
:1016640006029726000083C6666AC18A172700000F
:1016740013074762C5CE03478707136707029726F8
:1016840000002385E668056798C7984793162701E5
:1016940063D1060217270000034747546207618796
:1016A400635707000547972600002389E652096718
:1016B40098C798479316070163D606029726000039
:1016C40083C6D664858A172700001307A75CADCEAE
:1016D400034797071367270097260000A388E6624D
:1016E400216798C7828029D785456315B7001307FA
:1016F400B00689B789456315B7001307F0061DBF07
:101704008D456315B700130730072DB7130750072E
:1017140015B71307600739BF03473600136717006F
:1017240017260000A30BE64A094739BF83468707FB
:101734000946BD8A6388C600034787078D463D8BEB
:10174400E313D7F4114725BF83469707918AC9DA73
:10175400034797071367870041B7397106DE16DC24
:101764001ADA1ED82AD62ED432D236D03ACE3ECC6D
:1017740042CA46C872C676C47AC27EC0D53BF2500D
:10178400E2525253C2533255A255125682567247F0
:10179400E2475248C248324EA24E124F824F216154
:1017A4007300203093870191984385679387077767
:1017B4007CD3938781919C4383A607091396560093
:1017C4006358060083A6070913966600634406005F
:1017D4007453FDF2828061C1AA870145DDCD8D0776
:1017E400C207C183F19BC207C18313074003636B24
:1017F400F7021387419A08431387C19914436396E8
:10180400A602172700001307E71E185B014551C7FE
:101814004111C20706C60545DD8D0297B240014558
:10182400410182801387019AF9B70357650035E3B4
:1018340003574500636FF704B306F7402146637C02
:10184400D60203280500938687001D8FAA96611788
:10185400172600000356261E2392E60023A0060145
:101864002393060014C12312F500130786FF97265D
:1018740000002392E61C2313B5009725000083D5AE
:10188400851BB387F540172700002316F71A210597
:1018940082800841ADB701458280828009CD93875B
:1018A400419A03A307009387C19983A8070081463F
:1018B4009A8763E31701828003A807006369F50A26
:1018C4006367A80A13878700E367E5FE03D667000A
:1018D400216705076317E60003C7418D0507238ABF
:1018E400E18C972500009385A51403D6470003D700
:1018F40065002393070032974207418317250000B0
:10190400231BE512638867021385019A0841630368
:10191400F50203D5660019ED83D7460023A006011E
:1019240021073E9621062392C600972700002394A0
:10193400E710B6879843E30017F99386019A944217
:10194400E30BD7F683566700BDF683D647000356EC
:1019540047001843A106B2962392D70098C383D7B1
:101964006500A107172700002317F70C8280BE86A5
:10197400C28781B7797122D406D683C735002E84F5
:1019840023160100A307F10083C74500100802C015
:101994002307F10083C755008A8502C2A306F1001C
:1019A40002C402C802CA02CC02CEEFF02FD603470B
:1019B400F1018347040001456310F7020347E10185
:1019C4008347140001456319F7000345D101834798
:1019D40024001D8D13351500B250225445618280B8
:1019E4000111972700009387E72A22CC03A4870CD0
:1019F40026CA4AC84EC606CEAA84130925008549BC
:101A040015C083C7140003473400858B6304F700B3
:101A1400405CFDB71946930544004A85EFF06F8397
:101A2400E31835FF2285F2406244D2444249B24968
:101A3400056182804111972700009387A72522C45E
:101A440003A4870C26C24AC006C693042500054990
:101A540001E82285B2402244924402494101828035
:101A6400A6851305A4023937E30525FF405CCDB7ED
:101A74004111972700009387E72122C403A4870C10
:101A840026C24AC006C693042500054901E82285FA
:101A9400B24022449244024941018280A685130542
:0C1AA400A401C93DE30525FF405CCDB75F
:101AB00097110020938181941761002013018154B4
:101AC0001305400097E5FF1F9385C55317060020B7
:101AD000130606FE63FAC5008322050023A0550005
:101AE00011059105E3EAC5FE17E501001305450A56
:101AF000970500209385C5FB1386018463FAC50012
:101B00008322050023A0550011059105E3EAC5FED7
:101B100013850184972500209385852A6377B50076
:101B2000232005001105E36DB5FEFD42739002BC54
:101B30008D4273904280930280087390023097E246
:101B4000FF1F9382224C93E232007390523097121F
:101B500000009382624973901234730020303D4339
:101B60002A876373C3029377F700BDEFADE59376E1
:101B700006FF3D8ABA960CC34CC30CC74CC741073D
:101B8000E36BD7FE11E28280B306C3408A06970258
:101B9000000096966780A6002307B700A306B7004B
:101BA0002306B700A305B7002305B700A304B700B9
:101BB0002304B700A303B7002303B700A302B700B1
:101BC0002302B700A301B7002301B700A300B700A9
:101BD0002300B700828093F5F50F93968500D58D8D
:101BE00093960501D58D61B7939627009702000063
:101BF00096968682E78086FA9680C1171D8F3E965C
:101C0000E374C3F8A5B7B717004003C77705137788
:101C1000E70FA38BE704130700F8A38DE7043D4704
:101C2000238CE70413075003A38CE7048280B717C3
:101C3000004083C7E7020D8993F7C70FC98F732749
:101C40000080218B9386018409CB7327008023A019
:101C5000E18498425D9B73100780010001003717F3
:101C60000040130670052300C704130680FA230002
:101C7000C704010001002307F702230007047327AC
:101C800000809C42A18BD98F7390078023A0018490
:101C900001000100828041112A83014E930E407E93
:101CA000130F0019930F400663E66E149308001992
:101CB00013034006B3781503854E0D4FA14F3373C0
:101CC00065020D891335150063E0BE161308F6FF93
:101CD000794672984208135808013307C70213D691
:101CE0001700BE0732976146B3F6C602130680702E
:101CF000B386C6023697A166F58F42075D8FB71689
:101D0000004083C7F60293F70708A307F1000346D4
:101D1000F10083C7F60293F70708E394C7FE8347F1
:101D2000F100B716004093F7F70F63890714F32704
:101D30000080A18B93860184639807140100010041
:101D4000B7170040130670052380C704130680FAF6
:101D50002380C7040100010023AA070303C6170359
:101D600013660608A388C702238007047326008031
:101D70009C42A18BD18F7390078023A00184010026
:101D800001001166B71500407D16DC59C85DA98FAA
:101D9000F18FE5FFF3270080A18B89CBF32700802B
:101DA00023A0F1849C42DD9B739007800100010019
:101DB000B7170040130670052380C704130680FA86
:101DC0002380C70401000100D8DB03C71703136792
:101DD0000704A388E70223800704732700809C423E
:101DE000A18BD98F7390078023A00184010001008B
:101DF000410182807D133368E3039308E016630E8C
:101E000008003368F3039308D0166308080093783A
:101E1000330093B818009388D81633081E01131E98
:101E20000801135E0E0149B56393E5030548638617
:101E300008000148630303002A8871087298FD15A1
:101E4000131E0801C205135E0E01C181B5BD13F852
:101E5000150063F4BF007908D5B713381800E5BF43
:101E600083C7F60293F70708A307F1000346F100C2
:101E700083C7F60293F70708E394C7FE8347F10090
:101E800093F7F70FF1DF65B5F327008023A0F18406
:101E90009C42DD9B7390078055B54111B7170040F8
:101EA000985F3AC6945F3247E39CE6FE32454101B3
:101EB00082805971E2C486D6A2D4A6D2CAD0CECE30
:101EC000D2CCD6CADAC8DEC6E6C2EAC06EDE2A8C3A
:101ED00002D6EF00B020F3270080A18B138D018480
:101EE00091CBF327008023A0F18483270D00DD9B95
:101EF0007390078001000100B717004013077005B9
:101F00002380E704130780FA2380E704010001001F
:101F100003C7F7021377770FA387E70203C7F70218
:101F200013678700A387E7022380070473270080D5
:101F300083270D00A18BD98F7390078023A0018484
:101F400001000100F3270080A18B91CBF3270080D3
:101F500023A0F18483270D00DD9B7390078001008F
:101F60000100B7170040130770052380E70413072B
:101F700080FA2380E7040100010003C7E70213771A
:101F8000C70F2387E70203C7E702136717002387FA
:101F9000E702238007047327008083270D00A18BAD
:101FA000D98F7390078023A00184010001001307DB
:101FB00080C13347E5029169938709E8130650020F
:101FC0003D69B7440F0093840424856B130BA00470
:101FD000014A814A13047005FD19B347F50233071E
:101FE000C7023EC2930709A61309803E3347F70292
:101FF0003AC4334725030549331989011359394038
:102000003345950293840BFAB3948401811B330604
:10201000C702B346F6023309E90236C6330B67033B
:1020200013076055B3049502130500103309E90244
:10203000B346FB02130B80FAB3C4A40236C8B347FD
:10204000F902939634003719004036CC9304090402
:102050003ECA73260080218A11CA7326008023A0FD
:10206000C18403260D005D9A7310068001000100F3
:10207000930770052380F4002380640101000100B0
:10208000034639051376860FA309C90403463905AB
:1020900013661600A309C904238004007325008079
:1020A00003260D00218A498E7310068023A0018427
:1020B00001000100916CE17D73260080218A11CA24
:1020C0007326008023A0C18403260D005D9A73103F
:1020D000068001000100930770052380F40023802F
:1020E0006401010001000346390513660602A309D5
:1020F000C90403560905336696012318C90403561B
:1021000009053366B601420641822318C9042380BB
:1021100004007325008003260D00218A498E731068
:10212000068023A0018401000100034639051376CF
:1021300006026300061603463905218A6DDE681023
:10214000EF00E07D73260080218A11CA732600808B
:1021500023A0C18403260D005D9A73100680010040
:1021600001002380840023806401010001000346F4
:1021700039051376F60DA309C9040346390513661C
:102180000602A309C90403560905336696012318FC
:10219000C904035609053366B60142064182231875
:1021A000C904238004007325008003260D00218AC2
:1021B000498E7310068023A00184010001000346AC
:1021C0003905137606026302061003463905218A93
:1021D0006DFEE1312A8632CEC9317246E30DC5FE6D
:1021E000035609053255336696012318C904B127F1
:1021F00003463905218A6DDE035509050346290585
:10220000924733F5A9003386C90232951D8DA24746
:1022100063D5A700B2476346F50E09466365560FBE
:10222000C247850A1316150093FAFA0F3346F602D1
:10223000635EA038050609453346A6027325008073
:10224000218911C97325008023A0A18403250D00D5
:102250005D997310058001000100238084002380B4
:102260006401010001000355C9022A964206418219
:102270002316C902238004007325008003260D0065
:10228000218A498E7310068023A001840100010079
:1022900025B573260080218A11CA7326008023A0E9
:1022A000C18403260D005D9A7310068001000100B1
:1022B0002380840023806401010001000346390566
:1022C00013660602A309C90499B573260080218A02
:1022D00011CA7326008023A0C18403260D005D9AD5
:1022E00073100680010001002380840023806401B4
:1022F000010001000346390513660602A309C9045B
:102300004DB5E38F0AF073260080218A11CA732627
:10231000008023A0C18403260D005D9A73100680FF
:10232000010001002380840023806401010001007A
:10233000034639051375FC0F1376860FA309C904EC
:1023400003463905498EA309C90423800400732874
:10235000008003260D00218A336606017310068073
:1023600023A0018401000100034639051D8A631181
:10237000862773260080218A11CA7326008023A035
:10238000C18403260D005D9A7310068001000100D0
:102390002380840023806401010001000346390585
:1023A00011651376F60DA309C904034639051366B2
:1023B0000602A309C90403560905498E2318C90456
:1023C000035609052165498E2318C904238004009A
:1023D0007325008003260D00218A498E7310068024
:1023E00023A001840100010003463905137606028B
:1023F0006308062003463905218A6DDE681005232F
:1024000073260080218A11CA7326008023A0C1840C
:1024100003260D005D9A73100680010001002380E1
:102420008400238064010100010003463905116521
:102430001376F60DA309C90403463905136606028F
:10244000A309C90403560905498E2318C904035674
:1024500009052165498E2318C904238004007325CA
:10246000008003260D00218A498E7310068023A068
:102470000184010001000346390513760602630D4D
:10248000061A03463905218A6DFE013CAA8C3134B7
:10249000E30F95FF035609051165498E3255231840
:1024A000C904612903463905218A6DDE732600803F
:1024B000218A1385018409CA7326008023A0C18460
:1024C00010415D9A73100680010001002380840092
:1024D0002380640101000100034639051376F60DDF
:1024E000A309C90423800400732800801041218AB5
:1024F000336606017310068023A0018401000100E9
:102500000358090503462905E24733F809013386D4
:10251000C90232983308F8401306800C3306C8020B
:10252000D2473346F602635500150506094833467F
:1025300006036351C0140358C9029308F00F1358DF
:102540005800329863D6081F094663734619F3276B
:102550000080A18B89CBF327008023A0F1841C414C
:10256000DD9B73900780010001003717004093073F
:1025700070052300F704930780FA2300F704010095
:1025800001008356C70289678117D58FC207C183AF
:102590002316F70223000704732700801C41A18B38
:1025A000D98F7390078023A0018401000100B650E9
:1025B000265496540659F649664AD64A464BB64BB7
:1025C000264C964C064DF25D656182807D16A5B164
:1025D00073260080218A11CA7326008023A0C1843B
:1025E00003260D005D9A7310068001000100238010
:1025F000840023806401010001000346390599B37A
:1026000073260080218A11CA7326008023A0C1840A
:1026100003260D005D9A73100680010001002380DF
:10262000840023806401010001000346390513661C
:102630000602A309C90459BB73260080218A11CA66
:102640007326008023A0C18403260D005D9A7310B9
:1026500006800100010023808400238064010100C2
:1026600001000346390513660602A309C904F5B340
:102670007D166DBD55CE0358C902B308C04013582E
:1026800058006357180B094663744605F32700800A
:10269000A18B89CBF327008023A0F1841C41DD9B13
:1026A0007390078001000100B71700401307700501
:1026B0002380E704130780FA2380E7040100010068
:1026C00003D7C7027D8B2396E70223800704E9B571
:1026D00073260080218A09CA7326008023A0C18442
:1026E00010415D9A73100680010001002380840070
:1026F00023806401010001000356C9021376F60F1E
:1027000033667601420641822316C9022380040003
:10271000732800801041218A3366060173100680F9
:1027200023A0018401000100050A137AFA0F15B2F3
:10273000F3270080A18B89CBF327008023A0F184AD
:102740001C41DD9B7390078001000100B71700401A
:10275000130770052380E704130780FA2380E7043A
:102760000100010003D7C70216063A9642064182CD
:102770002396C70299BF914763EEB70217D70100AE
:10278000130747C38A05BA959C41BA978287B71742
:10279000004003A7470B1345F5FF698F23AAE70AFB
:1027A00003A7070B698F23A8E70A03A7070A798DF8
:1027B00023A0A70A8280B717004083A6470B1347C0
:1027C000F5FFF98E23AAD70A83A6070B558D23A8F8
:1027D000A70A83A6070A758F23A0E70A8280B71786
:1027E000004003A7470B498F23AAE70A03A7070B5B
:1027F0001345F5FF45BFB717004083A6470B1347A6
:10280000F5FF758F23AAE70A03A7070A598D4DB76D
:10281000B717004003A7470B498FEDB7914763EE09
:10282000B70217D70100130727BA8A05BA959C414A
:10283000BA978287B717004003A7470D1345F5FFE6
:10284000698F23AAE70C03A7070D698F23A8E70C5C
:1028500003A7070C798D23A0A70C8280B71700402F
:1028600083A6470D1347F5FFF98E23AAD70C83A63D
:10287000070D558D23A8A70C83A6070C758F23A0E1
:10288000E70C8280B717004003A7470D498F23AAA2
:10289000E70C03A7070D1345F5FF45BFB717004029
:1028A00083A6470D1347F5FF758F23AAE70C03A7EF
:1028B000070C598D4DB7B717004003A7470D498F37
:1028C000EDB7B717004003D7870109C5D98D239C01
:1028D000B700828093C5F5FFF98DD5BFB7170040CB
:1028E00003D58700420541819377050491EB9377E7
:1028F000F5013755E801130505803345F50282805F
:102900009377050C130700046397E7009377F501AD
:1029100037459C1CCDB72165130505D0828037E76C
:1029200000E01C435443A183E206D58F1CC1FD5730
:102930002320F7182322F718828013178500B7E7A2
:1029400000E023A0E710618123A2A7108280B7F7DF
:1029500000E08847CC478280814737370040A14656
:1029600063C4C700328582800345B740E38EA6FE6C
:102970003385F5000345050085072304A740CDB73F
:1029800097F7FF1F938787279C431717002013078C
:1029900027433E95636EE5001757002013078746CF
:1029A0006368A70017F7FF1F232AA7243E858280AC
:1029B000FD57EDBF411122C406C62A8405372947B9
:1029C000B307E502B2408D83B3D78702224495074F
:1029D000B3D7E70237370040C207C1832316F74059
:1029E00041018280716541111305052006C6D93762
:1029F000B7370040130770F82381E7400D47A381E4
:102A0000E74013070004A380E74005472387E7401A
:102A1000B2404101828011456FF0AFC941119396D8
:102A20002500AA852D4506C697E0FF1FE78000C355
:102A3000B240014541018280411126C29394250094
:102A400022C44AC02A843289A686AA850146254521
:102A500006C697E0FF1FE78060C0A6864A86A2856B
:102A6000294597E0FF1FE78060BFB24022449244AF
:102A70000249014541018280011122CC06CE371462
:102A8000004026CA4AC84EC652C483447405034A4D
:102A9000B4058349840503499405EFF0CF96834735
:102AA000A40593F4F40F137AFA0F93E71700230D9C
:102AB000F40493F9F90F1379F90FB717004003C71E
:102AC000A705058B6DFF03D5C705A38D4705238C8F
:102AD0003705A38C2705A38B9704F2406244D244A8
:102AE0004249B249224A056182804111939705010A
:102AF00022C406C6C1872E8463DB0700ED2B11C1FB
:102B000051232165218DB24022444101828093F7F7
:102B1000150013C51500E5FB9397250163D0070247
:102B2000EFE09011CD3D37F60200130606E089650F
:102B300003C54184EF00F0230965E9B793971501B8
:102B40000145E3D207FC17D501001305A58DEFB0B1
:102B5000E16E13060064916503C54184EF007021A6
:102B600011654DB71D71494697D5010093850587BD
:102B700017D50100130585AB86CE97E0FF1FE780D0
:102B800080ED01E917D5010013058586EFB0016BD3
:102B900001A0B7F600E0795798CAFD57DCCA05676F
:102BA000B7E700E023A0E7101306F00290C223A0CD
:102BB000E718010001001306C0038145480897E0AB
:102BC000FF1FE780C0E397F7FF1F9387A7223ECA46
:102BD0008967938707C0231CF100B5472304F102DE
:102BE000A167938707E03ECEB707010593870710DB
:102BF0003ED0ED472312F10285472303F1029707E8
:102C000000009387E7E1BEC497070000938707E3BE
:102C1000BEC68567938717D82315F1029707000072
:102C2000938727D33EDAB7F507009707000093870D
:102C3000E7E43EDE814697070000938707DE7000D9
:102C4000E1051945BEC097E0FF1FE78020A15808A5
:102C50008147994670003E960346060085070507A2
:102C6000A30CC700E398D7FED24791C70357810151
:102C700085676373F70001A04808EF00D063AA8559
:102C800001C917C501001305E577EFB0814901A01F
:102C9000F64025618280411117050000130525E5E6
:102CA00006C622C4EF00B05D138441842300A40053
:102CB0002928034504002244B24037F602001306D7
:102CC00006E0896541016F00D00A411106C6F3276D
:102CD0000080A18B1387018489CBF327008023A078
:102CE000F1841C43DD9B7390078001000100B7173E
:102CF0000040930670052380D704930680FA238052
:102D0000D7040100010083C6F70293F6A60FA3873C
:102D1000D70223800704F32600801C43A18BD58FA4
:102D20007390078023A0018401000100F327008035
:102D3000A18B89CBF327008023A0F1841C43DD9B6A
:102D40007390078001000100B717004093067005DB
:102D50002380D704930680FA2380D7040100010062
:102D600083C6F70293E62600A387D70223800704D1
:102D7000F32600801C43A18BD58F7390078023A07E
:102D80000184010001000545EFE07FEA6931130588
:102D9000407E81470147814605468545EFE0BFEF0C
:102DA000B240014541016F106001834525000111CA
:102DB00022CC06CE26CA4AC8C9472A846380F50AAF
:102DC00063EEB70085476386F508BDC1B547638CE0
:102DD000F50617C501001305A57381A8D9476387B8
:102DE000F510DD476383F514D547E394F5FE83477B
:102DF0003500B1EBEF30A137894503C5C184EF0041
:102E0000501817C5010013052569EFB021438355FC
:102E1000440017C501001305A569EFB08130835543
:102E2000040117C501001305E569EFB0812F21A842
:102E3000014681450D45EF30013117C501001305ED
:102E4000A55EEFB0A13FF2406244D2444249056121
:102E5000828017C501001305255EE5B7930555006F
:102E600019461385418097E0FF1FE780C0BE35C932
:102E700083570401BDC7194693854180130531006E
:102E800002C002C202C402C697E0FF1FE780A0B3DF
:102E90008347440019470A852301F1008347D40082
:102EA000A300F10091472300F10083570401B38789
:102EB000E7029D078D872316F100EF3041458355CA
:102EC0000401AA842A8617C5010013052558EFB00E
:102ED000412581E805661306062C894503C5C18492
:102EE000492D17C501001305E558A1BF8345A5006D
:102EF00017C501001305455E8144EFB0812217C953
:102F000001001309E95E8347A40063C7F40017C5F5
:102F100001001305655E35B75C444A85A69783C5F5
:102F200007008504EFB0E11FF9BF014681450D455B
:102F3000EF30612117C501001305455C19B7411138
:102F40009397050122C406C6C1872E8463DD07005E
:102F500003C5C1844D2211C135222165218DB240A6
:102F600022444101828093F7150091CB17D50100CF
:102F7000130545BEEF30811B13451400CDB793F701
:102F800025000145E9DFEF30C13B17C501001305FE
:102F90002559EFB0A12A014681450D45EF30A11A10
:102FA000134524006DBF411117050000130565F995
:102FB00006C622C4EF00B02C1384C18485652300AB
:102FC000A4009385052C0945EF20E077854513057E
:102FD0001002EF204077034504002244B2408545AB
:102FE000410115A141111305800406C622C497D0E2
:102FF000FF1FE780400A91457D55EFF0CFF79145DF
:103000007D55EFF0BF81371400408327C40A930534
:103010000002FD572326F40A0327C40C0545232686
:10302000F40CEFF01F8A854513050010EFF00FFF39
:103030008327840C91451305002093E70720232460
:10304000F40CEFF0AFFD793A17C501001305055EEA
:10305000EFB0C11E013E8131EF30E12EA93797D08C
:10306000FF1FE780605323AC05FE1C4191E7010080
:1030700001000CC18280BA8703A787FF6DFF23ACD4
:10308000B7FE82801DC18346E5FF1307F00F91470D
:10309000639EE600411106C697F0FF1FE78040805F
:1030A000B24081473E854101828095473E858280BE
:1030B00001E9014582800145B240224441018280FC
:1030C00095654111938505D022C4C98D2A842105B7
:1030D000C2054205C181418106C697E0FF1FE78016
:1030E000C06F71D9FD5723200500231285002303EB
:1030F000F5002105D1B7138701851C43411122C476
:1031000026C24AC006C601440149BA8489E7A165BE
:103110008D2D0DC401A803C7E7FF6318A7021DC8C2
:10312000A165D5249840832784FF6317E40223A870
:10313000F184FD57232C04FE230FF4FE2285B240B8
:103140002244924402494101828011E03E8983A7D2
:1031500087FF6DBF3E84E5BF232CF9FED9BFA1CD0B
:10316000411122C406C62A849717002083C7578CB2
:103170002E856375F400894763E8870021370D4584
:10318000B24022444101828083A785FF99E703C7AB
:10319000E5FF9307F00F6305F700ED351545CDB753
:1031A000238F85FE138501857D3D22852244B24013
:1031B000A165410189AC1545828023A801848280E4
:1031C000938781869C4399E33E85828003D72700BD
:1031D0006316B70003C70700E308A7FEDC47E5B79F
:1031E000BDCD797122D406D626D24AD04ECE014426
:1031F0004147B3D78540858BB1CF12053147229522
:103200003305E5029387818503A907008544B394BC
:103210008400C204C180BE892A990327090011C70E
:10322000032549002EC60297B24531473304E40214
:1032300083A709003E941C4489E723200900232228
:103240000900B2502254A58D02599254F2492E859C
:10325000456182800504E31EE4F88144DDB72E85D4
:10326000828041111397050122C406C626C24AC0B6
:1032700041872E84635E0700BD3D11C12135A167E2
:103280003D8C2285B2402244924402494101828011
:10329000EDD9AA8701474146B356E440858A9DCAC5
:1032A0009207BA97B146B387D7029386818503A95F
:1032B00006008544B394E400C204C1803E9983278C
:1032C00009000325490082972320090023220900D1
:1032D000258C45BF0507E311C7FC8144D5BF97077F
:1032E0000020938727719C53411122C406C6138482
:1032F000C18099C782971C403E9523A6A18029A032
:10330000938701869C43FDF70840B74703009387E6
:10331000D73F3305F502B7A72600938737ECB240B5
:1033200022443E9523A6A1804101828079C99387DA
:1033300001869C43797122D426D24AD04ECE52CCFB
:1033400056CA5AC806D65EC63A8AB689328BAE8A43
:103350002A898297938781859843BE840144B14628
:10336000C147B30BD40233067701104251E6C16561
:10337000938505F0414597E0FF1FE78000461DE576
:1033800097070020938707679C5B2D4589C71145E8
:10339000814582972D45B250225492540259F249E8
:1033A000624AD24A424BB24B456182809387818602
:1033B00098431DEF23A4A186230005009C400547E8
:1033C0003317870023260500232465012311E50018
:1033D00023224501DE9723A0270123A2570123A41E
:1033E00047010145E38909FA238089006DB73E87CB
:1033F0005C47F5FF48C7C9B70504E314F4F6214557
:1034000059BF094582809707002083C77762637F91
:10341000F500138741859317150008433E958357A0
:103420000500DD8D2310B500014582800D458280A9
:103430009707002083C7D75F6371F5021387418523
:1034400093171500084393C5F5FF3E958357050074
:10345000FD8D2310B500014582800D458280130744
:1034600005FF1377F70FFD4763E5E70AB146B3069B
:10347000D50293878185984389473697184359CB5E
:10348000011122CC4EC60544935945003D893315A0
:10349000A40013140501418026CA4E85AE84A2857E
:1034A0004AC806CE313B2A89814721CDA2854E8567
:1034B0004137938701869C4382979707002083D7E3
:1034C000E75B338797022A84814613060064B3B70B
:1034D000970213050732B335E500BE95EFA0F10A58
:1034E000B3078500970600209386C6583E87D442CE
:1034F00063E4A70063E4D7003387D7402324E900BF
:103500008147F2406244D2444249B2493E85056156
:10351000828089473E858280011126CA06CE22CC50
:103520004AC84EC6BD47894463EDA70231473307F9
:10353000E502938781859C438944BA979C4395C350
:1035400005443314A400420441802E890145A2851C
:103550008539AA89814411C5A2850145D13D23A49D
:103560002901F240624426854249D244B2490561AC
:1035700082809707002083C7B74B6364F50001453D
:10358000828001119387018656C283AA070006CE66
:1035900022CC26CA4AC84EC652C4638D0A0A170AEC
:1035A0000020130A2A4D83244A00B74736FE93872A
:1035B00007C8AE899705002083D5454CBE94B387D4
:1035C000C5022A8432898146B3B5C5021385073204
:1035D000B337F50013060064BE95EFA0017B63EBE3
:1035E000A406829A9705002083D54549B387250311
:1035F000AA84130600648146B3B5250313850732F8
:10360000B337F500BE95EFA04178B3079500BE84AF
:1036100003274A0063E4A70063E4E700B384E740BC
:10362000CE852285713E01C504C505452DA0936553
:1036300004F0C205C181414597E0FF1FE780E01912
:1036400005E5970700209387E73A9C5B81C7A28531
:10365000114582970145F2406244D2444249B24941
:10366000224A924A05618280938781869C438DE33A
:1036700023A4A18685472326050004C5231135010F
:1036800023008500A300F5002322050079BFBA8737
:10369000D84775FFC8C7F9BF49C9797122D426D266
:1036A0004AD04ECE52CC56CA5EC662C466C206D658
:1036B0005AC83689328AAE89AA844144314C938AE9
:1036C0008185854C930B0003330B840303A70A0009
:1036D0005A971C43B1E79375F400B395BC0013559A
:1036E0004440C2055286C1811375F50F59350DC985
:1036F00083A70A000145DA9784C323A23701630434
:10370000090023008900B250225492540259F24910
:10371000624AD24A424BB24B224C924C4561828063
:103720000504E31374FB2145F9BF0945828041116B
:1037300022C426C24AC006C62A842E89B284153DF8
:10374000CA852285B53C05CD9705002083D5053374
:10375000B38795022A84130600648146B3B59502A7
:1037600013850732B337F500BE95EFA0016248C05C
:103770000145B240224492440249410182802145E0
:10378000CDBF411122C426C24AC006C62A892E8452
:10379000053CAA8419C123110500A2854A8549392F
:1037A0009707002083C7C7286397270183D7C18560
:1037B0005D8C239E8184014591E01945B2402244ED
:1037C00092440249410182809307F00263E6A70414
:1037D0004111B14722C43304F50226C29384818586
:1037E0009C4006C6A297984389470DC39377F5007E
:1037F0008545B395F500C205C181118159379C40BB
:10380000A29723A0070023A207008147B2402244C9
:1038100092443E854101828089473E8582804111E4
:1038200006C622C4EFF0DF9911E50145B2402244FB
:1038300041018280938701869C43004582979707C8
:103840000020938727236368A402D843B74636FE37
:10385000938606C83305A4403697E378E5FC130742
:103860000064B335E50203D6870081463305E502DF
:10387000EFA0A15165BFD8433A94C1BF411122C402
:1038800026C2170400201304E41E9704002093842A
:10389000241A944858409387018606C69C43639F28
:1038A000E60682975440B74736FE938707C8B69717
:1038B0003387A7003A856364F7006364D700330554
:1038C000D74097040020938424319C4C91CB93875C
:1038D000819194433707CDFF7D179C46F98F9CC695
:1038E00011E14840970700209387C710DC53829767
:1038F00019E59C4C99CFEFD03048EFD0C0319C4CAB
:1039000089CB938781919843B70633001C47D58FA5
:103910001CC7B24022449244410182808297984859
:103920009707002083C7570E54401D8FB307A70089
:103930003E8563E4E700E3E6D7F83385D74051B727
:10394000411106C623A2A1860295B2409707002026
:1039500023ACA70E014541018280994763E9B70076
:103960008A05970700209387270FBE9588C182801C
:10397000411171468145170500201305E50D06C666
:1039800023A4018623A2018623A0018697D0FF1FCE
:10399000E780E00613068002814517050020130525
:1039A000250997D0FF1FE7808005EF201123970797
:1039B000002083C7970513D527008D8B3E958D4733
:1039C0003305F502854539051375F50F9707002076
:1039D0002381A70699473305F5021305052497E0CF
:1039E000FF1FE78080DF23ACA18459C599471706E4
:1039F0000020034606043306F6028145130606241A
:103A000097D0FF1FE780A0FF938781859C43938712
:103A1000072423A6F18617070020034787010A071A
:103A2000BA9723AAF184EFF04FF9F9299387C18659
:103A300094439707002083C7B7FF13972700369753
:103A400017F6FFFF1306067A10C3138717001377C4
:103A5000F70F0A073697170600001306C68010C333
:103A600013873700890793F7F70F8A079705002018
:103A7000A380E5FCB69790C3B240410182809707CE
:103A8000002083C7F7FA17070020034787FA63F17E
:103A9000E7021387C1861843938617001706002094
:103AA000A308D6F893962700369708C33E858280F0
:103AB0009307F00FE5BF1C416388071641777D8FA0
:103AC000B706002089476312D71603574500630ED7
:103AD0000714411122C419462A849305F00F690581
:103AE00006C697D0FF1FE780A0FB05478D476308F8
:103AF000E5121C4481CB5858994763020712185CA1
:103B0000630F07101306C003814517050020130536
:103B100065EE97D0FF1FE78080EE1306C003A285F5
:103B200017050020130505ED97D0FF1FE780A0E9DA
:103B3000170700200357C7EC97070020938787EBF0
:103B400019E71307001097060020239BE6EA1707E2
:103B50000020034707EB11E7054797060020238263
:103B6000E6EA170700200357E7E911E76D479706D4
:103B700000202399E6E817070020034797E811E79C
:103B8000154797060020A38EE6E617070020034797
:103B900087E711E70547970600202386E6E6170723
:103BA0000020034757E619E703C7F70097060020F0
:103BB000A38BE6E417070020034707E511E7354725
:103BC000970600202382E6E417070020034717E446
:103BD00019E71307800297060020A389E6E217077A
:103BE0000020034777E219E71307D0029706002069
:103BF000A38CE6E00347840119E71307C003970687
:103C000000202385E6E09C5791C782979707002004
:103C10002394A7E2FD57A385F198993B8147B240D1
:103C200022443E854101828089473E858280011180
:103C30004EC6970900209389E9E383A7090006CEC1
:103C400022CC26CA4AC852C4829713090064B335ED
:103C5000250303DA89008146528633052503EFA048
:103C6000C112970700209387A7DC804FAA840145E3
:103C70006306940233858440636E940003A5490073
:103C800052868146B335A9023305A902EFA0E10FA0
:103C9000018D26959707002023A897DAF240624409
:103CA000D2444249B249224A0561828097070020E6
:103CB00083D7E7DC51471D45637CF70279471945F7
:103CC0006378F7021307200315456373F7021307A0
:103CD000B0041145637EF700130740060D45637974
:103CE000F7001307600909456374F70013B5B70FB0
:103CF0008280011122CC06CE2A842EC6EFF02FDE60
:103D0000B245F240818D33A5A50222956244137518
:103D1000F50F05618280011122CC06CE2A842EC6C1
:103D2000EFF0EFDBB245F240818D33A5A50222957D
:103D300062444205418105618280011122CC06CE98
:103D40002A842EC6EFF0AFD9B245F240818D33B54B
:103D5000A50222956244056182809707002093871F
:103D600067C9985739CB411122C426C206C6BE8402
:103D7000029717070020035727CC2A8415CBBA8750
:103D80006373A700AA87C207C183BA866373E4007E
:103D9000A286C206C182958F5147635BF700DC544F
:103DA00091C38297EFD0406997070020239687C878
:103DB000B2402244924441018280828097070020D1
:103DC000938747C3DC57011106CEAA8581C72AC64F
:103DD0008297B245C9C19C410545BDCBDC41ADCB05
:103DE00083D78500B5C783D7A500BDC383C7C500EA
:103DF000A5E34146170500201305C5C797D0FF1F4F
:103E0000E78060BC970700209387C7C69C4323A028
:103E1000F1869707002083C777BF8DE7930780025D
:103E200017050020035585C53305F50237460F00F9
:103E30001306062481468145EF90317597070020CF
:103E4000A386A7BC170500001305A5DED53C0145D8
:103E5000F240056182809707002083C707BB139754
:103E600087016187635407049707002023A007BEDA
:103E700097D7FF1F9387E7F517070020232CF7BE7E
:103E80007D579707002023A9E7BEB78732009387A5
:103E900027A19706002023A3F6BE970700202381C1
:103EA00007BEB7C7004023A4E726A9BF13F7170032
:103EB00005CFB7872003938707D017070020232F4C
:103EC000F7BAB707C0A8170700202327F7BA97D774
:103ED000FF1F938727F317070020232DF7B89707B5
:103EE0000020238F07B839BF6177970600202397FA
:103EF000E6B881CB93070032170700202311F7B8EB
:103F0000C9B793072003CDBF011122CC17040020AD
:103F1000130444AE084406CE26CA4AC801E9054542
:103F2000F2406244D2444249056182805C58E5DB3C
:103F3000185C75D77000854582971844B247E30036
:103F4000F7FE9305E00417050020035565AB97E0E5
:103F5000FF1FE780808817070020232BA7AE61D1C1
:103F6000170600200356C6A99305F00F97D0FF1F30
:103F7000E780E0A8814417090020130969AB97077F
:103F8000002083C707A80326090263C1F402328513
:103F900097E0FF1FE780C09001459707002023A905
:103FA00007AA9707002023A707AA9DBF970500200F
:103FB00083D505A5B38795020844185C89818504DB
:103FC0003E9508C2029765BF011156C2970A0020AC
:103FD000938A4AA283A78A0022CC4AC84EC606CE3C
:103FE00026CA52C45AC0AA892E8432896385072200
:103FF00003A74A03630707147D476366A714970462
:1040000000209384E4A203AA040263170A0A9565B8
:10401000938515E0170500200355859E97D0FF1F57
:10402000E780A07B9707002023A4A7A22A86630A23
:10403000051083A74A0303A58A009705002083D5AE
:10404000259C8981829783A78A0003AA0402170707
:1040500000202321F7A08947639CF908C147631218
:10406000F40E9705002083D5A599938505FC91470B
:10407000B3C5F5028A05D29503C705009307A005CD
:10408000631DF70A83C715006399370B4A8522869B
:10409000910597D0FF1FE78000939C505285639352
:1040A00047150145F2406244D2444249B249224A8E
:1040B000924A024B05618280D850E38EE7F89565FD
:1040C000938525E0170500200355859397D0FF1FA2
:1040D000E780A0702A8A35C52A8683A74A0303A5EC
:1040E0008A009705002083D5A59189818297A5B77D
:1040F0008D47639DF900C1476315F40497050020BF
:1041000083D50590938545FDF199B5B79147639A9D
:10411000F900631834039705002083D5658EA11537
:10412000E5B7C147639FF900A14763EC8700970596
:10413000002083D5E58CC115C1BF9C505285639783
:10414000470D294585B71307F006568B6361A70A0B
:10415000130A05FE1947334AEA02170700200357DE
:10416000278A970A0020938AAA8C330AEA023E9A89
:1041700083A74A026395470183A40A029DE493053D
:10418000E004170500200355A58797D0FF1FE7809F
:10419000C064AA845DD583274B039705002083D58F
:1041A00025862A8689815285829791451307A00525
:1041B000898193972500A69783C607006393E60439
:1041C00083C61700639C360385058A052286A6955B
:1041D0004A8597C0FF1FE780007F83A70A02E3821A
:1041E00097EC268597D0FF1FE780806B5DBD130796
:1041F000E007E368A7F4130A05F985B783D527001C
:1042000045BF83A70A02E38E97F2268597D0FF1F4A
:10421000E78000693DB797070020938767818C533B
:104220008DD191479306A0058983139727002E9778
:1042300003460700E317D6F003461700631C360158
:1042400085078A072286BE954A8597C0FF1FE780AB
:10425000807781BD83572700C1BF97F7FF1F9387E2
:104260006779984739C79C5FA9C705476313E50479
:10427000411122C417F4FF1F1304847B105006C69B
:104280000DC6485097F5FF1F83D5857789818297A2
:10429000085097D0FF1FE780A06097F7FF1F23A962
:1042A000077A97F7FF1F23A7077AB24022444101FC
:1042B00082808280011117F7FF1F1307A7734EC674
:1042C0008329870022CC26CA4AC806CE52C456C2C9
:1042D000AA842E843289638A09201C5FBA8A99EBEA
:1042E0002945F2406244D2444249B249224A924AA4
:1042F000056182805C5BEDD7FD4763E9A70E97F906
:10430000FF1F9389E97283A70902B1CB03A58A0035
:1043100083A749026395A70689476393F408C147B9
:10432000E310F4FC17F5FF1F0355856D9147130546
:1043300005FC3345F5029317250003A509022286E3
:10434000CA853E959307A0052300F500A3009500BC
:10435000110597C0FF1FE7800067014559B7930516
:10436000E00417F5FF1F0355A56997D0FF1FE780ED
:10437000C04697F7FF1F23ADA76C49F995B783A7F0
:104380004A0303A6090297F5FF1F83D56567898154
:10439000829783A78A0017F7FF1F232DF76AADBF07
:1043A0008D47639EF400C147E31CF4F217F5FF1F2D
:1043B00003550565130545FD9377C5FFBDBF9147BF
:1043C000639AF400E31E94F017F5FF1F035545634D
:1043D0002115DDB7C147E395F4F0A147E3E287F08B
:1043E00017F5FF1F0355C5614115F9B79307F0068F
:1043F00063EAA706930705FE1947B3C7E70217F755
:10440000FF1F0357E75F17FAFF1F130A6A62B3879C
:10441000E702BE9983270A02A9CF83274A02639A3B
:10442000370703250A0291461308A005FD5593D7C7
:104430002600C207C183139727002A970346070067
:10444000631D0607834817000356270063959806E7
:10445000B306D64063CF860485078A072286CA85BD
:104460003E95C5BD9307E007E3ECA7E6930705F982
:1044700079B79305E00417F5FF1F0355655897D0EA
:10448000FF1FE780803597F7FF1F23A3A75C51F537
:1044900081BD83A74A0303260A0297F5FF1F83D530
:1044A000255689814E85829797F7FF1F23A4375B96
:1044B0008DBFA300B700B2869DBFB385860017F6F7
:1044C000FF1F0356E6539105130606FCE3FAC5E009
:1044D000130634001376C60F1106B29623000701A7
:1044E000A30097002311D70085BF97F7FF1F93877D
:1044F00027549453BE89A1C203A50902914613080B
:10450000A005FD5593D72600C207C1831397270046
:104510002A970346070063160605834817000356CB
:10452000270063989800B306D640E3D786F2A3002D
:10453000B700B286C1BF8357C70017F5FF1F0345F9
:10454000454C9305E0043305F5024205418197D0BF
:10455000FF1FE780802897F7FF1F23ABA74E49FD79
:1045600041B317F6FF1F0356A64997F5FF1F83C5F2
:104570004549B385C502338686001106E3E2C5D6F8
:1045800081BF01458280011106CE2EC6EF50201852
:1045900001C9B245F2400355250005616F904055B1
:1045A000F240494505618280A38C0188238C0188F3
:1045B00023A0018823A2018823A4018823A60188BF
:1045C00023AE018623AC018697F7FF1F9387874BA5
:1045D000370684033707B40090D337C6070098C363
:1045E000130606B83747A000D8C3D0D3370710004A
:1045F00041669306070AB70550009308060194C761
:1046000023A4170393860501930816F8D4C723A69D
:104610001703B706D007B7087F00130807051385EF
:104620000601410723A81703B0C393081600938619
:10463000060513861500D8CBF8C323A8070188CF39
:1046400023AE070023AA170323AC070223AE0702F9
:1046500023A40704F0C7B4CB23AA0704ACCF23AE2E
:104660000705B8D33707A000F8D71307000AB8DB4F
:104670001307C01CF8DB37071400B8DF0547F8DF65
:10468000130710F8E8D323A4070623A0070823A2E2
:10469000E7088280011126CAAA84214522CC06CED1
:1046A0002E8432C636C43AC2EFE09FA01DC9A2468E
:1046B00012473246930700FD2300F5009947A300F7
:1046C00095002301F5002303D500A303E500231281
:1046D000C500AA8522856244F240D24405616FE09C
:1046E0001FA8F2406244D2440561828023A0A188C1
:1046F000828023A2A188828023A4A188828023A60D
:10470000A1888280011122CC4AC806CE26CA2A89F5
:104710000144B30489006368B400F2406244D244A7
:104720004249056182802EC6EFE07FBB93170501E9
:10473000C183A183B2452380F4009307140093F74B
:10474000F70F850463F9B700CA9709042380A7000F
:104750001374F40F7DBF3E847DBFC16717F5FF1F43
:104760000355253BFD176304F502411117F6FF1FA2
:104770000346C6459385018906C6EF405058B240AE
:10478000FD5717F7FF1F2316F738410182808280FB
:1047900009C925151375F50F1335850E1345150039
:1047A00082800145828023900500C9C6797122D498
:1047B00026D24ECE52CC5AC806D64AD056CA5EC66B
:1047C0003684328AAE892A8B814463F34407B30767
:1047D000940083C70700138914004209939A0701C4
:1047E00093DA0A011359090163840A04CA976341E1
:1047F000FA04B307240183CB07005E85513F0DC93E
:104800009387FAFF2390F90063906B031305190057
:104810002295B250225492540259F249624AD24A25
:10482000424BB24B45618280D694C204C18071BFB5
:104830000145C5B701458280411126C2AE8422C41C
:1048400097F7FF1F23AEC72C97F7FF1F23A8B72C9E
:1048500097F7FF1F23A2A72C2A8441469305F00F48
:1048600026854AC006C6054997C0FF1FE78040233A
:104870006310250597F7FF1F93874729884BC1458C
:10488000513541469305F00F228597C0FF1FE78001
:104890002021854463189502224497F7FF1F9387D0
:1048A000E726B24092440249C847C145410199BD3B
:1048B00041468145268597C0FF1FE780601EE312B1
:1048C00025FD4DBF41468145228597C0FF1FE780EA
:1048D000201DE30395FCB240224492440249410169
:1048E0008280411122C426C22E84AA8413060002AB
:1048F000814517F5FF1F1305652106C697C0FF1FE9
:10490000E780E00F97F7FF1FA383972097F7FF1F1C
:104910002380872CEF90C01F854719C181474945E7
:10492000B240224417F7FF1F2302F71E92444101B1
:104930008280814781CD19C98547631BF50083C7F4
:10494000550093E707FCA382F50085473E858280EA
:1049500089476317F50083C7550093F7F703E5B759
:104960000D478547E314E5FE03C755001377F703AA
:1049700013670704A382E500D1BF81478DC105C13C
:1049800003C755009306000C85471377070C63088F
:10499000D700930600048D476303D70089473E85FF
:1049A0008280411122C4005D06C626C21DC8AA84A9
:1049B000085009C597D0FF1FE78080EE485009C511
:1049C00097D0FF1FE780C0ED085409C597D0FF1F9F
:1049D000E78000ED228597D0FF1FE78060EC23ACD5
:1049E0000402B240224492444101828009ED97F7CB
:1049F000FF1F83C7C71117F5FF1F1305A51281CB32
:104A000013850187828017F5FF1F1305A51182808A
:104A100017F5FF1F0345A50F828097F7FF1F9387A8
:104A2000E70EC847828097F7FF1F9387270E884BB2
:104A3000828097F7FF1F9387670DDC4B8843828046
:104A400097F7FF1F9387870CD84B1C4385071CC320
:104A500017F5FF1F0345B50B9307F00F6305F5002E
:104A600091656FE05F9A8280011122CC06CE2E8480
:104A700032C6EF40105A9147B245631FF500938745
:104A8000C1889C438DC303A30700630E03002285E6
:104A90006244F24005610283938741889C4381C749
:104AA00003A34700DDB7F2406244054505618280FB
:104AB000011122CC2A840355450006CE26CA4AC8D5
:104AC0004EC6EF4030342DC52A8983440500834902
:104AD000C500C13D4A85EF50A00D03554400EF408D
:104AE000904E83C78189A9CB6398970483C5918928
:104AF0002685513C19E1238C018803554400EF4081
:104B000050519147631FF5000357440097F7FF1F6B
:104B100083D727006317F700FD5717F7FF1F231AE6
:104B2000F7FEF2406244D2444249B24905618280B4
:104B300081499304F00F75B79307F00FE38FF4FAF0
:104B40008346640003564400034524004E87A6852F
:104B5000913665B779715EC6AA8B2E8552CC56CA3E
:104B60005AC806D622D426D24AD04ECEAE8A328B2E
:104B7000368AEF4030297DC1045D2A89E5C09C500A
:104B8000614599C3130540039C5481C751054205F3
:104B9000418163050A00710542054181DC5081C7EE
:104BA0005D0542054181EFE0AFD02A8445C96146E9
:104BB000814597C0FF1FE78080E497F9FF1F83C9F5
:104BC00069EF6394090083490900930700FD2300FE
:104BD000F400A947A30074012301F4002303640136
:104BE0008C50231254011305840191C908C47146E5
:104BF000930A440397C0FF1FE780E0DC56858C547E
:104C000091C948C45146930A450197C0FF1FE780E8
:104C100080DB5685630C0A0008C87146D285930A6A
:104C2000C50197C0FF1FE78000DA5685CC5099C5B3
:104C300048C85D4697C0FF1FE780E0D8A2854E8533
:104C4000EFE0EFD12254B2509254F249624AD24A74
:104C5000424BB24B4A8502594561A1B3B25022542E
:104C600092540259F249624AD24A424BB24B4561D0
:104C7000828001114EC6AA892E854AC806CE22CC52
:104C800026CA2E89EF40101821C997F4FF1F83C44C
:104C900064E299E0834405001945EFE06FC12A847E
:104CA00005CD8145194697C0FF1FE78040D5930782
:104CB00000FD2300F400B947A30034012301F400F0
:104CC00023122401A2856244F2404249B24926855A
:104CD000D24405616FE0AFC8F2406244D244424919
:104CE000B2490561828039715ECEAA8B2E8526DAA3
:104CF0004ED652D456D25AD006DE22DC4AD8AE84E2
:104D0000328BB68A3A8ABE8942C6EF40B00F21CDB7
:104D10002A894145EFE0CFB92A8431C54146814512
:104D200097C0FF1FE780A0CD17F5FF1F034585D86B
:104D300019E103450900930700FD2300F400BD4776
:104D40002301F400B247A30074012312940023044A
:104D50006401A304540123054401A30534015CC488
:104D6000A285EFE0CFBFF2506254D2544259B259FB
:104D7000225A925A025BF24B21618280797126D2CB
:104D8000AA8439454AD04ECE06D622D42EC6B28940
:104D90003689EFE0EFB121C1B2459307000D231032
:104DA000F500B1472A842312B5002301F500CE8512
:104DB0001905194697C0FF1FE780E0C023062401AC
:104DC000A2852254B2500259F24913F5F40F9254BD
:104DD00045616FE0CFB8B250225492540259F24963
:104DE0004561828017F7FF1F034777D29307F00FC3
:104DF000630DF706411126C2AA84394522C406C6AE
:104E00004AC0EFE0EFAA2A8439C9930700FD2300C6
:104E1000F500A30095002301050097F5FF1F93857A
:104E200065D00D05194697C0FF1FE780C0B917F977
:104E3000FF1F1309A9CD83578900A28517F5FF1F0E
:104E40000345F5CC2315F400834719002306F4002D
:104E50002244B2409244024941016FE04FB0B24057
:104E600022449244024941018280828001115AC049
:104E70002A8B314526CA4EC652C456C206CE22CC13
:104E80004AC8AE84B28A368ABA89EFE06FA235CDBD
:104E90002A842685EF40007711C50347C500A14746
:104EA0006314F70417F9FF1F034979C6930700FD40
:104EB0002300F4009D47A30064012301F4002312A2
:104EC0009400231354012314440123153401A285B3
:104ED0006244F240D244B249224A924A024B4A8585
:104EE000424905616FE0AFA717F9FF1F034959CE8B
:104EF000E31E0BFA938701979C439C47C5DBCE8644
:104F00005286D6852685829755B7F2406244D244B0
:104F10004249B249224A924A024B056182800111FC
:104F200022CC2A84214506CE2EC6EFE06F9821C1FF
:104F3000B245930700FD2300F500C5472301F500A6
:104F400083C73500A301F50083D745002312F50080
:104F500083C765002303F50083C77500AA85A303F3
:104F6000F50022856244F24005616FE04F9FF240F8
:104F7000624405618280397162CC2A8C594526DAF7
:104F80004AD84ED652D456D25AD05ECE06DE22DC55
:104F9000AE8432C636C4BA8B3E8BC28A468A8359E7
:104FA000010403494104EFE0AF9025C9324693075D
:104FB00000FDA2462300F5009547A301C500A3000C
:104FC00085012301F5002A8419461105A9C2B68579
:104FD00097C0FF1FE780209F23066401230A240156
:104FE0002315740123175401231844012319340194
:104FF000A2856254F2504259B259225A925A025B27
:10500000F24B624C2685D25421616FE04F95814569
:1050100097C0FF1FE780A09EC1B7F2506254D254E0
:105020004259B259225A925A025BF24B624C2161A8
:10503000828097F7FF1F83C787AD8DCB4111AA856B
:1050400019461385018706C697C0FF1FE780A09702
:105050009385018717F5FF1F034565ABEFF07F8D43
:10506000B2401385018741016F80102B014582807A
:1050700017F7FF1F0347B7A99307F00F6305F7085A
:10508000411126C2AA84294522C406C6EFE04F82F8
:105090002A8429C1930700FD2300F500A1472301BD
:1050A000F500A300950097F7FF1F938727A683C7F6
:1050B0002700938501871105A30FF5FE194697C0B8
:1050C000FF1FE7804090A28517F5FF1F034535A419
:1050D000EFE0EF8817F7FF1F034767A38D47631FB4
:1050E000F700938781889C4391CB03A387006307D4
:1050F00003002244B240924441010283B240224460
:1051000092444101828017F7FF1F034747A08D4754
:10511000631AF700938781889C4389C703A387009C
:10512000E31D03FC8280797122D406D626D24AD0B0
:105130004ECE52CC094455CD2A89035505002E8AFE
:105140005144EF40204CAA844DC597F7FF1F83C7F9
:1051500027A8FD1793F7F70F05474944637BF70826
:105160000347C500A1476314F70063140A089C5C59
:105170004544C1E39165938545711305C00297C00D
:10518000FF1FE780806588DCAA894D443DC1130676
:10519000C002814597C0FF1FE780608683570900E2
:1051A0009386490036852391F9007146930549009D
:1051B00036C697C0FF1FE780008189472380F9002A
:1051C00003C5C400B24603560900611597F5FF1FD9
:1051D00083C5C59F13351500EF50E0602A84630630
:1051E0000A00D2852685EF40904B01C42685EFF05A
:1051F0004FFB2285B250225492540259F249624A1E
:105200004561828097F7FF1F83C7879CFD1793F73F
:10521000F70F0547637AF708894741CA011122CC85
:1052200026CA4AC84EC652C406CEAA89368AB28455
:105230002E89EF40203D2A84D14739C9485509C5F8
:1052400097C0FF1FE780C065F145268597B0FF1F17
:10525000E780407D48D4CD4705CD8346C400214733
:105260008147639FE600630D0A000347A5010356CB
:10527000050193062501AA854E85EF40D049AA87EE
:1052800003474400630F0900136767002302E4002B
:10529000F2406244D2444249B249224A3E85056105
:1052A000828013674700DDB7C9473E858280930738
:1052B000200463EBA70097E7FF1F9387A77C0605F1
:1052C0003E9503550500828041657D158280011160
:1052D00022CC2A842E8526CA06CEAE84EF408032A8
:1052E0001DCDB7470F009387F723094563E4870275
:1052F00081450A85414697B0FF1FE7804070A6852B
:10530000231081000A85418023018100A30101004F
:10531000EF500039F2406244D24405618280494531
:10532000D5BF97F7FF1F2384A78A82806F50C0459F
:10533000797152CC2A8A328522D426D24AD04ECED6
:1053400056CA5AC85EC606D662C4AE8BB28A368BBF
:10535000BA843E89C2894684EF40C02A15C92A8C86
:1053600063140A0213774B008347450015CF93E778
:1053700027012302FC008DEC631C0902639A0902D9
:1053800005E8ED9B2302FC00832B8C0363910B0843
:10539000B250225492540259F249624AD24A424BC4
:1053A000B24B224C45618280F59B93E70701D1B750
:1053B00093E747002302FC0001CC1C484146A2852C
:1053C0002324FC0213058C0197B0FF1FE780A05F28
:1053D00063930B02D5D80325CC0209C597C0FF1FE4
:1053E000E780004CF145268597B0FF1FE78080637A
:1053F0002326AC0251BFE30909F80325CC0209C5F5
:1054000097C0FF1FE780C049F1454A85F1BF9DC4A1
:1054100083A70B0299EB916593853571714597C010
:10542000FF1FE780803B23A0AB0203A50B0219C539
:105430007146A68597B0FF1FE780E0586388090290
:1054400083A74B0299EB9165938525715D4597C0C4
:10545000FF1FE780803823A2AB0203A54B0219C5CA
:105460005D46CE8597B0FF1FE780E0551DC483A73A
:105470008B0299EB916593851571514597C0FF1F7C
:10548000E780A03523A4AB0203A58B0219C55146C2
:10549000A28597B0FF1FE78000532254B250925468
:1054A000F249B24B224CCA865A860259424BD685E3
:1054B0005285D24A624A45616FF0CFE9011126CA8E
:1054C00052C406CE22CC4AC84EC62A8AAE84EF40C9
:1054D000601325C5AA893945EFD09FBD2A8431CDF7
:1054E00017E9FF1F0349095D6314090003C9090097
:1054F0009307000D2310F400AD472301F4009385BA
:10550000690013053400194697B0FF1FE780A04BD0
:1055100093F71400858085882306F400A306940081
:1055200023154401A2856244F240D244B249224A82
:105530004A85424905616FD09FC2F2406244D2441D
:105540004249B249224A0561828001114EC652C4C5
:1055500056C206CE22CC26CA4AC8AA8A2E8AB28948
:10556000EF40400A2DCD2A891305C002EFD05FB469
:105570002A8435C597E4FF1F83C4C45399E083444C
:1055800009009307000D2310F400E9472301F400FC
:105590009305690013053400194697B0FF1FE78093
:1055A0008042D285231554011305C400414697B0AB
:1055B000FF1FE7804041CE851305C401414697B0E7
:1055C000FF1FE7804040A2856244F2404249B24951
:1055D000224A924A2685D24405616FD05FB8F240D4
:1055E0006244D2444249B249224A924A05618280C9
:1055F00093878187884301CD411106C697C0FF1F5D
:10560000E780002AB24023AC01864101828082807B
:10561000011106CE22CC26CA4AC82EC6EF30907E93
:1056200039CDB24517E9FF1F0349C948AA840CD5F3
:1056300063140900034905004145EFD07FA72A8480
:105640001DCD9307000D2310F500A5472301F5009C
:1056500083C75400938564001105A30FF5FE194616
:1056600097B0FF1FE78020369C54A285F2405CC4AF
:105670006244D2444A85424905616FD05FAEF24030
:105680006244D244424905618280797122D406D6AF
:105690002A842EC6EF30107701CDB2452285230E25
:1056A000B1006C08EF40207CB250225445618280EA
:1056B0005145DDBF6F40E00AC1671387E7FF639480
:1056C000E502938741889C4391EB49458280494597
:1056D000B2402244924402494101828003A3070060
:1056E000E30503FE0283411122C426C24AC006C656
:1056F000FD172A892E84B2846395F5029387418829
:105700009C4391CB9C4381CB829711E5238C2189CB
:10571000A38C918875BFA6854A85EFE0DFE64DF939
:10572000F5B72E85EF30106E5DD1834705000D452E
:10573000E39027FB22852244B2400249A685924489
:1057400041016F80E03A9307200463E2A70641110C
:10575000C16722C406C626C2FD172A840945638292
:10576000F502C547AE846313F4022E85EF80403FF7
:1057700017E5FF1F1305053106042A942310940032
:105780000145B24022449244410182809307A00324
:105790006316F4002E85EF802036D9BF9307B0033F
:1057A000E318F4FC13F5F50FEF804035D1B7094548
:1057B0008280011106CE2AC6EFE01FDFEF10905C59
:1057C000EF102076EF00511F324597E7FF1F9387B8
:1057D000E733130700F02391E700238207007D578A
:1057E00097E7FF1F9387873E2381E7002380A70069
:1057F000F240954505616F20C07859719397050176
:10580000CAD086D6A2D4A6D2CECED2CCD6CADAC838
:10581000DEC6E2C4E6C2EAC06EDEC1872E8963D16D
:10582000075A17E5FF1F0345653AEFD0DF8C8964FF
:10583000416A856A797B2A84938BD4007D1AA50AF4
:10584000130CABFF1DE021653345A900B65026546B
:1058500096540659F649664AD64A464BB64B264CEC
:10586000964C064DF25D6561828083470400130704
:10587000200A639DE7000355240097E9FF1F83C9B1
:1058800019292286D285EFF02F9E59A213071009FD
:1058900097E9FF1F83C9A9336398E718834714006A
:1058A00015476390E7022285EFF08FA02285EFD0A5
:1058B0006FFD17E5FF1F03456531EFD0DF832A84B5
:1058C00051B73947639BE71803554400631B5505DF
:1058D0000C4483CC0500639D0C00850591C91946D5
:1058E00017E5FF1F1305052497B0FF1FE780A00DE4
:1058F00017E7FF1F0347872185476317F712638A5E
:105900000C0097E7FF1F238307206685EFF08FCDFC
:1059100071BF894717E7FF1F230AF71EEF80801F1B
:1059200071B793872400631AF506832C8400638D76
:105930000C0E83C70C008DE383C72C0003C71C002B
:10594000A207D98F17E7FF1F2316F71C83C73C0058
:1059500017E7FF1FA30CF71A17E7FF1F0347071BE3
:1059600089476313F70C83C70C0081CB97E7FF1FB0
:10597000238E071803C50C0051BF8D4797E5FF1F05
:1059800083C5D51817E5FF1F0355C51817E7FF1F77
:10599000230EF716EF20E061F1BF938754006318E0
:1059A000F5001C4403C50700EFF08FEC01B7B30707
:1059B0008501C207C18311476372F7049307ABFCEB
:1059C000AA97139707014183F14763F1E702938791
:1059D000B4006312F504938701889C43E38807ECC5
:1059E0009C43A285E38407EC82971DA0B7070018AB
:1059F0009387F770B3D7E700858BB9CB93878188FE
:105A00009C43E38507EA9C43E38207EA2285829769
:105A1000E31E05E811A89387C4006310F5021C4437
:105A200083C70700E38407E89307F00FE380F9E8F2
:105A3000A2854E85EFD0AFF2ADBD9387E400631928
:105A4000F500938741889C43E38207E6DC4351BF1E
:105A500093871404E301F5F8C1BF3D476397E7045A
:105A600003554400E30F75FD93879401E30BF5FCA8
:105A700093873401E31AF5FA97E7FF1F83D7670985
:105A8000639E4701938741889C43E38107E2DC439F
:105A9000E38E07E0A28513853401B9B79387C188E7
:105AA0009C43E38507E09C43E5B71307E003E39DD0
:105AB000E7F68347240005476397E70E83476400B2
:105AC000938D8187F1E383A70D00D5CB83CC0700AD
:105AD000A14903457400130D8400EA85EFE0FFE956
