:040000006F30003924
:100004000000000000000000900000204E140020BA
:10001400A9BDF9F5900000200000000000000000D8
:10002400900000209000002000000000000000006C
:100034007C17002000000000900000200000000059
:10004400E4160020221700209000002090000020D9
:1000540090000020900000209000002090000020DC
:1000640090000020900000209000002062180020E2
:100074000C16002034160020900000209000002070
:1000840090000020900000208C1700209000002099
:1000940001A0411106C622C40008814601468145DB
:1000A4001145EF109014B7270040938767801147DC
:1000B4002380E70037E700E08567BA9783A707D175
:1000C400B7E600E013F7B7FF8567B69723A8E7D034
:1000D40037E700E08567BA9783A707D1B7E600E062
:1000E40013F777FF8567B69723A8E7D073005010FE
:1000F400010001000100B2402244410182805D718F
:1001040086C6A2C480088146014681451145EF1088
:10011400D00DB72700409387678011472380E700FD
:10012400B71700409387E70283C70700A307F4FECD
:10013400B71700409387E70483C707002307F4FE3B
:100144008347E4FE93E737002307F4FEB717004024
:100154009387870383D70700139707014183916728
:10016400636DF7008307F4FEF19BE207E18793E7F1
:100174001700E207E187A307F4FEF327008023209A
:10018400F4FC832704FCA18B85C3F3270080232E72
:10019400F4FA0327C4FB9387818898C393878188E3
:1001A4009C43DD9B7390078001000100B71700405A
:1001B40093870704130770052380E700B7170040EF
:1001C40093870704130780FA2380E70001000100E6
:1001D400B71700409387470223800700B7170040F2
:1001E4009387070423800700F32700802322F4FC6D
:1001F400032744FC938781889C43A18BD98F7390F8
:1002040007809387818823A0070001000100F3275A
:1002140000802326F4FC8327C4FCA18B85C3F32729
:1002240000802324F4FC032784FC9387818898C3EB
:10023400938781889C43DD9B7390078001000100B4
:10024400B717004093870704130770052380E7005E
:10025400B717004093870704130780FA2380E70049
:1002640001000100B71700409387E7020347F4FE3B
:100274002380E700B71700409387E7040347E4FEB1
:100284002380E700B7170040938707042380070003
:10029400F32700802328F4FC032704FD9387818837
:1002A4009C43A18BD98F739007809387818823A067
:1002B400070001000100F3270080232CF4FC8327AE
:1002C40084FDA18B85C3F3270080232AF4FC032734
:1002D40044FD9387818898C3938781889C43DD9BE1
:1002E4007390078001000100B7170040938707044B
:1002F400130770052380E700B717004093870704AE
:10030400130780FA2380E70001000100B7170040BB
:100314009387B70483C7070013F7F70FB717004095
:100324009387B704136707021377F70F2380E70057
:10033400B71700409387070423800700F327008042
:10034400232EF4FC0327C4FD938781889C43A18B4F
:10035400D98F739007809387818823A007000100B9
:10036400010037E700E08567BA9783A707D1B7E6AE
:1003740000E013E747008567B69723A8E7D037E77F
:1003840000E08567BA9783A707D1B7E600E013F7C3
:1003940077FF8567B69723A8E7D073005010010054
:1003A4000100F32700802322F4FE832744FEA18B5F
:1003B40085C3F32700802320F4FE032704FE9387DC
:1003C400818898C3938781889C43DD9B73900780C1
:1003D40001000100B7170040938707041307700555
:1003E4002380E700B717004093870704130780FAB8
:1003F4002380E70001000100B71700409387B7048A
:1004040083C7070013F7F70FB71700409387B704A4
:100414001377F7FD1377F70F2380E700B717004032
:100424009387070423800700F32700802324F4FE26
:10043400032784FE938781889C43A18BD98F739073
:1004440007809387818823A0070001000100010031
:10045400B640264461618280597186D6A2D4801840
:10046400AA87A30FF4F8232A04FA231C04FA930797
:1004740044FB81463E86B7F70700938587011945FB
:10048400EF10A056B71700409387E70283C7070011
:10049400A307F4FEB71700409387E70483C7070058
:1004A4002307F4FE8347E4FE93E737002307F4FEB3
:1004B400B71700409387870383D707001397070173
:1004C40041839167636DF7008307F4FEF19BE207B4
:1004D400E18793E71700E207E187A307F4FEF32718
:1004E40000802326F4FC8327C4FCA18B85C3F32757
:1004F40000802324F4FC032784FC9387818898C319
:10050400938781889C43DD9B7390078001000100E1
:10051400B717004093870704130770052380E7008B
:10052400B717004093870704130780FA2380E70076
:1005340001000100B717004093874702238007009A
:10054400B71700409387070423800700F327008030
:100554002328F4FC032704FD938781889C43A18B03
:10056400D98F739007809387818823A007000100A7
:100574000100F3270080232CF4FC832784FDA18B46
:1005840085C3F3270080232AF4FC032744FD9387C3
:10059400818898C3938781889C43DD9B73900780EF
:1005A40001000100B7170040938707041307700583
:1005B4002380E700B717004093870704130780FAE6
:1005C4002380E70001000100B71700409387E7028A
:1005D4000347F4FE2380E700B71700409387E7043E
:1005E4000347E4FE2380E700B7170040938707041E
:1005F40023800700F3270080232EF4FC0327C4FD87
:10060400938781889C43A18BD98F739007809387AC
:10061400818823A007000100010037E700E0856717
:10062400BA9783A707D1B7E600E013E747008567C9
:10063400B69723A8E7D0B71700409387070283D75C
:100644000700C207C18393F707602316F4FE8347AC
:10065400F4F91397070141838357C4FED98F139785
:1006640007014183E5779107D98F2316F4FE010032
:10067400F32700802322F4FE832744FEA18B85C345
:10068400F32700802320F4FE032704FE9387818848
:1006940098C3938781889C43DD9B739007800100F6
:1006A4000100B717004093870704130770052380E0
:1006B400E700B717004093870704130780FA2380E5
:1006C400E70001000100B7170040BD0783C707001A
:1006D40013F7F70FB7170040BD0713670704137725
:1006E400F70F2380E700B71700409387B70483C749
:1006F400070013F7F70FB71700409387B704136782
:1007040007021377F70F2380E700B717004093879A
:1007140007020357C4FE2390E700B71700409387EE
:10072400070423800700F32700802324F4FE032713
:1007340084FE938781889C43A18BD98F7390078013
:100744009387818823A007000100010037E700E0B8
:100754008567BA9783A707D1B7E600E013F777FF59
:100764008567B69723A8E7D07300501001000100F5
:100774001305C012EF00F062232604FA231804FACA
:100784009307C4FA81463E86B7F70700938587012D
:100794001945EF1080259307C4FA9843930744FB47
:1007A4009C43E315F7FAF32700802320F4FC832706
:1007B40004FCA18B85C3F3270080232EF4FA0327BE
:1007C400C4FB9387818898C3938781889C43DD9B6E
:1007D4007390078001000100B71700409387070456
:1007E400130770052380E700B717004093870704B9
:1007F400130780FA2380E70001000100B7170040C7
:100804009387B70483C7070013F7F70FB7170040A0
:100814009387B7041377F7FD1377F70F2380E70067
:10082400B71700409387070423800700F32700804D
:100834002322F4FC032744FC938781889C43A18BE7
:10084400D98F739007809387818823A007000100C4
:1008540001005145EF00F0540100B6502654656183
:1008640082801D7186CEA2CC8010AA87A307F4FAD9
:100874008146014681451145EF102017B717004006
:100884009387E70283C70700A307F4FEB717004066
:100894009387E70483C707002307F4FE8347E4FE36
:1008A40093E737002307F4FEB717004093878703C5
:1008B40083D707001397070141839167636DF7009E
:1008C4008307F4FEF19BE207E18793E71700E20751
:1008D400E187A307F4FEF3270080232AF4FA832791
:1008E40044FBA18B85C3F32700802328F4FA032754
:1008F40004FB9387818898C3938781889C43DD9BFD
:100904007390078001000100B71700409387070424
:10091400130770052380E700B71700409387070487
:10092400130780FA2380E70001000100B717004095
:100934009387470223800700B71700409387070473
:1009440023800700F3270080232CF4FA032784FB79
:10095400938781889C43A18BD98F73900780938759
:10096400818823A0070001000100F32700802320D1
:10097400F4FC832704FCA18B85C3F3270080232E7A
:10098400F4FA0327C4FB9387818898C393878188EB
:100994009C43DD9B7390078001000100B717004062
:1009A40093870704130770052380E700B7170040F7
:1009B40093870704130780FA2380E70001000100EE
:1009C400B71700409387E7020347F4FE2380E7004C
:1009D400B71700409387E7040347E4FE2380E7004A
:1009E400B71700409387070423800700F32700808C
:1009F4002322F4FC032744FC938781889C43A18B26
:100A0400D98F739007809387818823A00700010002
:100A1400010013055002A12C37E700E08567BA975F
:100A240083A707D1B7E600E013E747008567B697C9
:100A340023A8E7D0F32700802326F4FC8327C4FCF3
:100A4400A18B85C3F32700802324F4FC032784FCB3
:100A54009387818898C3938781889C43DD9B739097
:100A6400078001000100B7170040938707041307AC
:100A740070052380E700B717004093870704130726
:100A840080FA2380E70001000100B7170040BD078A
:100A940083C7070013F7F70FB7170040BD071367A5
:100AA40007041377F70F2380E700B71700409387F5
:100AB400070423800700F32700802328F4FC03277E
:100AC40004FD938781889C43A18BD98F7390078001
:100AD4009387818823A0070001000100F327008089
:100AE400232CF4FC832784FDA18B85C3F32700808A
:100AF400232AF4FC032744FD9387818898C39387B2
:100B040081889C43DD9B7390078001000100B71727
:100B1400004093870704130770052380E700B71785
:100B2400004093870704130780FA2380E70001003D
:100B340001008347F4FA139707014187E577D98FBA
:100B4400139707014187B7170040938707024207AD
:100B540041832390E700B71700409387070423805D
:100B64000700F3270080232EF4FC0327C4FD93879A
:100B740081889C43A18BD98F739007809387818848
:100B840023A007000100010037E700E08567BA975A
:100B940083A707D1B7E600E013F777FF8567B69719
:100BA40023A8E7D0730050100100010081460146DC
:100BB40081451145EF007063F32700802322F4FE82
:100BC400832744FEA18B85C3F32700802320F4FEF2
:100BD400032704FE9387818898C3938781889C4365
:100BE400DD9B7390078001000100B71700409387D5
:100BF4000704130770052380E700B71700409387A5
:100C04000704130780FA2380E70001000100B717E7
:100C140000409387670483C7070013F7F70FB717DC
:100C2400004093876704136717001377F70F238037
:100C3400E700B71700409387070423800700F327D2
:100C440000802324F4FE032784FE938781889C4339
:100C5400A18BD98F739007809387818823A0070085
:100C6400010001000100F64066442561828035716F
:100C740022CF00112326A4F6F32700802322F4FEBA
:100C8400832744FEA18B85C3F32700802320F4FE31
:100C9400032704FE9387818898C3938781889C43A4
:100CA400DD9B7390078001000100B7170040938714
:100CB4000704130770052380E700B71700409387E4
:100CC4000704130780FA2380E70001000100B71727
:100CD40000409387B70483C7070013F7F70FB717CC
:100CE40000409387B7041377F7FD1377F70F23803A
:100CF400E700B71700409387070423800700F32712
:100D040000802324F4FE032784FE938781889C4378
:100D1400A18BD98F739007809387818823A00700C4
:100D2400010001008327C4F693F7070263830722B7
:100D3400B7170040A90783C7070093F7F70F918BF4
:100D4400E9E7F3270080232CF4FC832784FDA18B9F
:100D540085C3F3270080232AF4FC032744FD9387EB
:100D6400818898C3938781889C43DD9B7390078017
:100D740001000100B71700409387070413077005AB
:100D84002380E700B717004093870704130780FA0E
:100D94002380E70001000100B7170040A90783C7BB
:100DA400070013F7F70FB7170040A90713674700A9
:100DB4001377F70F2380E700B717004093870704E2
:100DC40023800700F3270080232EF4FC0327C4FDAF
:100DD400938781889C43A18BD98F739007809387D5
:100DE400818823A0070001000100232604FE01A836
:100DF400010001008327C4FE85072326F4FE032790
:100E0400C4FE9307F04AE3F5E7FEF32700802320AE
:100E1400F4FC832704FCA18B85C3F3270080232ED5
:100E2400F4FA0327C4FB9387818898C39387818846
:100E34009C43DD9B7390078001000100B7170040BD
:100E440093870704130770052380E700B717004052
:100E540093870704130780FA2380E7000100010049
:100E64008327C4F6139707014183B7170040A107EE
:100E74007D8B420741832390E700010001000100BC
:100E84000100B71700409387070423800700F32766
:100E940000802322F4FC032744FC938781889C432D
:100EA400A18BD98F739007809387818823A0070033
:100EB40001000100F32700802326F4FC8327C4FCEF
:100EC400A18B85C3F32700802324F4FC032784FC2F
:100ED4009387818898C3938781889C43DD9B739013
:100EE400078001000100B717004093870704130728
:100EF40070052380E700B7170040938707041307A2
:100F040080FA2380E7000100010001000100B727F7
:100F1400004093877780130710052380E700B717F5
:100F240000409387070423800700F32700802328C9
:100F3400F4FC032704FD938781889C43A18BD98FFC
:100F4400739007809387818823A007000100010024
:100F540049A68327C4F693F707046387072CB717BA
:100F64000040A90783C7070093F7F70FC18BE9E790
:100F7400F3270080232AF4FA832744FBA18B85C33B
:100F8400F32700802328F4FA032704FB938781883E
:100F940098C3938781889C43DD9B739007800100ED
:100FA4000100B717004093870704130770052380D7
:100FB400E700B717004093870704130780FA2380DC
:100FC400E70001000100B7170040A90783C7070025
:100FD40013F7F70FB7170040A90713670701137733
:100FE400F70F2380E700B717004093870704238097
:100FF4000700F3270080232CF4FA032784FB93874C
:1010040081889C43A18BD98F7390078093878188B3
:1010140023A0070001000100232604FE01A801000B
:1010240001008327C4FE85072326F4FE0327C4FE9C
:101034009307F07CE3F5E7FEF32700802324F4FA1A
:10104400832784FAA18B85C3F32700802322F4FA33
:10105400032744FA9387818898C3938781889C43A4
:10106400DD9B7390078001000100B7170040938750
:101074000704130770052380E700B7170040938720
:101084000704130780FA2380E70001000100832787
:10109400C4F6C207C183FD8B139707014183B717B9
:1010A4000040A10713670704420741832390E70028
:1010B4000100010001000100B717004093870704F5
:1010C40023800700F32700802326F4FA0327C4FAB9
:1010D400938781889C43A18BD98F739007809387D2
:1010E400818823A00700010001000327C4F69307A9
:1010F4006004631EF708F3270080232EF4F8832787
:10110400C4F9A18B85C3F3270080232CF4F80327AB
:1011140084F99387818898C3938781889C43DD9B56
:101124007390078001000100B717004093870704FC
:10113400130770052380E700B7170040938707045F
:10114400130780FA2380E70001000100B72700405D
:101154009387778009472380E700B7170040938778
:10116400070423800700F32700802320F4FA0327D1
:1011740004FA938781889C43A18BD98F739007804D
:101184009387818823A007000100010099A2F32717
:1011940000802328F4F8832704F9A18B85C3F3275F
:1011A40000802326F4F80327C4F89387818898C322
:1011B400938781889C43DD9B739007800100010025
:1011C400B717004093870704130770052380E700CF
:1011D400B717004093870704130780FA2380E700BA
:1011E40001000100B727004093877780130720058B
:1011F4002380E700B7170040938707042380070084
:10120400F3270080232AF4F8032744F9938781887D
:101214009C43A18BD98F739007809387818823A0E7
:1012240007000100010075A0F32700802322F4F8D1
:10123400832744F8A18B85C3F32700802320F4F887
:10124400032704F89387818898C3938781889C43F4
:10125400DD9B7390078001000100B717004093875E
:101264000704130770052380E700B717004093872E
:101274000704130780FA2380E70001000100B71771
:101284000040A10783D70700139707014183B717CD
:101294000040A1071367070C420741832390E7002E
:1012A400B71700409387070423800700F3270080C3
:1012B4002324F4F8032784F8938781889C43A18B23
:1012C400D98F739007809387818823A0070001003A
:1012D4000100F3270080232CF4F6832784F7A18BE5
:1012E40085C3F3270080232AF4F6032744F7938762
:1012F400818898C3938781889C43DD9B7390078082
:1013040001000100B7170040938707041307700515
:101314002380E700B717004093870704130780FA78
:101324002380E70001000100B71700409387B7044A
:1013340083C7070013F7F70FB71700409387B70465
:10134400136707F81377F70F2380E700B7170040F8
:101354009387070423800700F3270080232EF4F6E5
:101364000327C4F7938781889C43A18BD98F7390FB
:1013740007809387818823A00700010001000100F2
:101384007A440D618280011106CE22CC0010814680
:10139400014681451145912DF32700802324F4FE55
:1013A400832784FEA18B85C3F32700802322F4FEC8
:1013B400032744FE9387818898C3938781889C433D
:1013C400DD9B7390078001000100B71700409387ED
:1013D4000704130770052380E700B71700409387BD
:1013E4000704130780FA2380E70001000100B71700
:1013F40000409387670483C7070013F7F70FB717F5
:10140400004093876704136717001377F70F23804F
:10141400E700B71700409387070423800700F327EA
:1014240000802326F4FE0327C4FE938781889C430F
:10143400A18BD98F739007809387818823A007009D
:10144400010001000100F24062440561828079716B
:1014540022D6001881460146814511457923F32798
:101464000080232EF4FC8327C4FDA18B85C3F327BE
:101474000080232CF4FC032784FD9387818898C380
:10148400938781889C43DD9B739007800100010052
:10149400B717004093870704130770052380E700FC
:1014A400B717004093870704130780FA2380E700E7
:1014B40001000100B71700409387C7027D572390AE
:1014C400E700B71700409387070423800700F3273A
:1014D40000802320F4FE032704FE938781889C4325
:1014E400A18BD98F739007809387818823A00700ED
:1014F40001000100F32700802324F4FE832784FEE7
:10150400A18B85C3F32700802322F4FE032744FE26
:101514009387818898C3938781889C43DD9B7390CC
:10152400078001000100B7170040938707041307E1
:1015340070052380E700B71700409387070413075B
:1015440080FA2380E70001000100B7170040938769
:10155400670483C7070013F7F70FB7170040938793
:101564006704136717001377F70F2380E700B71793
:1015740000409387070423800700F3270080232675
:10158400F4FE0327C4FE938781889C43A18BD98FE3
:10159400739007809387818823A0070001000100CE
:1015A40001A0797122D60018AA87231FF4FC83575F
:1015B400E4FD86072326F4FE01008327C4FEFD17FD
:1015C4002326F4FE8327C4FEE5FB01003254456163
:1015D4008280797106D622D40018AA87231FF4FCCE
:1015E400231704FE09A81305803E653F8357E4FED4
:1015F40085072317F4FE0357E4FE8357E4FDE364F1
:10160400F7FE0100B250225445618280411122C686
:101614000008B717004093870703130700032380CC
:10162400E70093878189054798C30100324441014B
:1016340073002030411122C60008B7170040938779
:10164400270683C7070093F7F70FA18BB1CBB71712
:1016540000409387270683C7070013F7F70FB717D0
:10166400004093872706136787001377F70F2380BB
:10167400E700B71700409387170683C7070013F7DF
:10168400F70FB7170040938717061377F7071377F9
:10169400F70F2380E7009387219B05472380E7000A
:1016A400B71700409387E70583C7070093F7F70F41
:1016B400E207E18763D30702B71700409387A705C2
:1016C400238007009387119483C70700850713F7C6
:1016D400F70F938711942380E700010032444101FE
:1016E40073002030411122C60008B7270040990733
:1016F40083C7070093F7F70F858B99CFB72700406F
:10170400990705472380E700978000E0E78000ED14
:10171400978000E0E780E0F2010032444101730069
:101724002030411122C600089387219D83D70700EA
:1017340085071397070141839387219D2390E70031
:101744009387218B03D7070085476318F700454526
:10175400976000E0E78080BD29A8B7170040938711
:10176400C70909472390E7004545976000E0E780F3
:10177400C0B801003244410173002030411122C637
:10178400000801003244410173002030011122CECF
:101794000010B7470040938747C083C7070093F7FB
:1017A400F70FBD8B31476368F70A139727009747F4
:1017B40003E09387A76BBA979843974703E093870F
:1017C400E76ABA978287B7470040938757C083C7B1
:1017D400070059A0B74700409387A7C083C70700F5
:1017E40093F7F70FC207C1833E86B747004093853E
:1017F40087C0138541DF976000E0E780E092AA8705
:101804002316F4FE8357C4FEA9C3A30704FE15A040
:10181400B7470040938787C083C7070013F7F70FC4
:101824009387D1A02380E7008347F4FE8507A307AD
:10183400F4FEB74700409387A7C083C7070093F718
:10184400F70F0347F4FEE365F7FC9387C1A0054750
:101854002380E70011A001000100724405617300B8
:101864002030411122C60008B73700409387474013
:1018740083C7070093F7F70FBD8B31476360F70801
:1018840013972700975703E093878786BA9798435F
:10189400975703E09387C785BA978287B737004085
:1018A4009387574083C7070099A8B73700409387A9
:1018B4008740138741A103470700BA8683C70700FF
:1018C40013F7F70F973700009387C7DFB697238086
:1018D400E700938741A183C70700850713F7F70F34
:1018E400938741A12380E700B73700409387A7403F
:1018F40083C7070093F7F70FCDFB11A00100010088
:101904003244410173002030411106C622C400084C
:10191400952D978000E0E780008E9387B1A883C758
:1019240007003E8597D000E0E7802080D5B72303E9
:10193400048015472303E48001002302A4808280ED
:1019440083076480E3CE07FE230304808280830739
:101954006480E3CE07FE034544808280830764806D
:10196400E3CE07FE2302A4808280411126C44AC22A
:101974004EC006C61377F50BAD47AA892E89954448
:101984006306F70019456537653F8D444E85453735
:10199400FD59FD1463983401B240A24412498249AE
:1019A40041018280135509011375F50F453F220942
:1019B400CDB7011126CC06CEB70408005137154522
:1019C400BD37713769372AC6A53F3245937715006D
:1019D40089EB136515001375F50FF240E2440561B8
:1019E4008280FD14E9FC0145CDBF397126DC4ADA59
:1019F4004ED852D656D45AD25ED006DE62CE66CCCB
:101A0400B7E700E07D5783AA070022C603AA470070
:101A140023A0E71823A2E718B7170040130770059F
:101A24002380E704130780FA2380E70483C747046D
:101A3400930B75FFB684E20793FBFB0F8546AA89D7
:101A44002E8B328937240040E187015763FA7601EF
:101A54006308D5008946130700026313D5000157B4
:101A6400D98F93F7F70FB71C00402382FC0411476A
:101A74002303E4801305F00F5D3D094CD135636DFC
:101A84007C11B7050700DA9537870700795563F2AB
:101A9400E504B3879500636EF702370B0800A94786
:101AA40033EB65016399F90689E48144513D268548
:101AB4000DA0DA850945553D05090345F9FFFD14D7
:101AC400050B693D81C49377FB0FFDF7DD3569FD97
:101AD4007D55B7170040130770052380E7041307EB
:101AE40080FA2380E70403C74704418B2382E70479
:101AF400F250B7E700E023A0571123A24711E254A4
:101B040032445259C259325AA25A125B825B724C05
:101B1400E24C21618280A5476395F9068569130922
:101B2400F00FB3069900B3742B01B6941349F9FF6F
:101B3400B3749900856B33796901416B9387F9FF1D
:101B4400B3F7270199E363FC340193D94900C147F2
:101B5400E3E637FF99BF0569C1697D19D9B7130554
:101B6400800D6388690113050002638479011305FC
:101B74001008CA85DD3B353D21DD4E99B3843441DF
:101B8400D9B7DA852D45D533CA94E30099F205090E
:101B94007D3BA30FA9FED5BF9387F9FF93F7F70FFA
:101BA4006361FC0C83C71C0413073008631FF7042C
:101BB40037070800636BEB04B3079B00B7061000FC
:101BC40063F5D704334BEB0089476393F9068980A7
:101BD400D549E38C04ECDA850945413B1109032717
:101BE400C9FF91472320E48003076480E34E07FE86
:101BF40023033481FD17EDFBFD14110B81C493778E
:101C0400FB0FE9FF7D3371F5E1B5B717004003C75A
:101C14005704B70708001377070219E3B7870700CB
:101C24007955E378FBEA33079B00E3FFE7F855B502
:101C34008547E382F9F2DA852D45053B9389F4FF64
:101C4400E38504E6293393F7390091EB8326048076
:101C54000327090093074900E39AE6E43E89CE840A
:101C6400F1BFB5476396F9001305900BC93135BD33
:101C7400B1471305B00AE38BF9FE99476391F90460
:101C8400B7050800B365BB002D45C53181448D4BB4
:101C9400A149753963967401832704802320F900D0
:101CA4008504E39834FF8327048013172B016355BD
:101CB40007002312F900D5BB2322F900FDB39D4789
:101CC4006399F90281451305B0044531BD442320CD
:101CD400090023220900FD599D3993F77400CA971E
:101CE40003C70700FD14398D2380A700E39634FF52
:101CF4006DBBA1476392F9046D398144630D0B00F8
:101D04008D479304C0036308FB0093040005630438
:101D14008B01930440041375C507E30895D819454E
:101D2400393139390545213126850D3909453D318A
:101D34004931E31C05D669BB91476399F900130542
:101D44006006F536F53E130590090DB7E38F09D407
:101D5400F154A9BB19CD91CD09CE81473387F50044
:101D6400834607003307F50085072300D700E317F0
:101D7400F6FE828019C991C909CA910583A7C5FFD6
:101D840011057D16232EF5FEC5BF828001C919C633
:101D94002A960505A30FB5FEE31DA6FE82808147A2
:101DA4003307F5000307070019E33E8582808507A2
:101DB400C5BF01112E8626CAAA84131506019305F0
:101DC400F004418122CC06CE32C6EF00F04F2A84C3
:101DD40001C53246A685BD3F2285F2406244D24405
:101DE40005618280854715C18DC105C28147B3064F
:101DF400F5003387F50083C60600034707006398A0
:101E0400E6008507E315F6FE85473E858280814717
:101E1400EDBF9307F6FFBE952A966313C500828033
:101E2400FD1583C715000505A30FF5FEFDB7AA87A9
:101E3400014581CF09CE3E96850703C7F7FF631797
:101E4400B700E39BC7FE05458280828001458280FE
:101E54007971938781B322D4804306D626D24AD09F
:101E64004ECE52CC56CA5AC85EC65DCCB7C4C90160
:101E7400014B938901B39384F437174A0000130A82
:101E84006A3A974A0000938AAA3D17490000130949
:101E940069418357240085E35C44631B0B0023AC36
:101EA400F1B2832BC4002285EF00704E5E84B9A882
:101EB4002326FB00FDB783A7090082971C44330740
:101EC400F5406376F500032749001D8F2A9763E0E8
:101ED400E4089747000023AD0738835524000345E1
:101EE4000400972001E0E780A0B55C405844A1CBF2
:101EF4000C4403264900AE97BE8663E4B70063E44E
:101F0400C700B386C74014C4228B3A8459F097475C
:101F140000009387E7349C4B09476370F706F91771
:101F2400174700002326F734B25022549254025922
:101F3400F249624AD24A424BB24B456182806315F0
:101F44000B0023ACE1B2B1BF2326EB0099BF0327FA
:101F54004A0209CF63EFA7003385A74083A70A018C
:101F64006376F5009747000023A4A730228B4044F2
:101F740071BF03274900BA97C5B79747000023A943
:101F8400072E5DB7411122C4174400001304C42F67
:101F94001C4006C626C24AC091C7829797470000D4
:101FA40023A4072E9747000083C7D747858B974400
:101FB40000009384E44695C397470000A384074632
:101FC40083C774001547637AF700052B83C7740031
:101FD400F5178A07A2979C4382971C4491C3829762
:101FE400138941B203270900174600000346562708
:101FF4009747000083C7C72693961700BA9683D6DF
:102004000600C5CE9747000083C7872563E1C70C48
:1020140097470000238607241C40639507129747BF
:10202400000083C7774091CF83C7740093F7F70FFD
:1020340089EB97470000A389073E972002E0E780D9
:1020440060FD938701B39C43638E070E974700009E
:1020540093874725DC4317470000232BF720CD3B0C
:10206400974700009387071CDC53E9CF174700000C
:102074001307071F184B9747000083C7F71B6363B9
:10208400F70C83C774001547636EF70A974700007F
:1020940083C7873D918BDDE703260900974600003F
:1020A40083C6161C63C6D70A2244B240924402492E
:1020B4004101172301E0670063E1850793F7F70FF8
:1020C40097460000238EF618E3E4C7F225BF86077F
:1020D4003E978355070023100700239601B2938788
:1020E400C1B39C431745000003458517131725000A
:1020F400BA979C43829783D7C1B21747000003471E
:10210400271693C7F7FF7D8D931717000327090040
:102114003E97835707005D8D2310A7009747000063
:1021240083C7071491C7850717470000230AF712CE
:10213400174700000347C7129747000083C7571289
:10214400E378F7ECB2402244924402494101828090
:10215400139717003297035707006DF7850799B750
:10216400AD6737C70040BD072326F7200F100000D6
:10217400974700009387C70EC84F83278726BD66FD
:10218400BD0693C7F7FF99836A052326D7205D8D83
:1021940082804111B7170040985F3AC6945F324776
:1021A400E39CE6FE3245410182801305F00F8280F4
:1021B4000111974700009387E73222CC03A4070C50
:1021C40026CA06CE2AC42EC6854419E40145F24027
:1021D4006244D2440561828083479100034714001E
:1021E400858B6304F7000044CDB719469305A1001D
:1021F40013052400C53EE31895FE0545C9BF1387A2
:1022040001C01C439306001094C3010001000100A7
:1022140001001C4323A00700834615000348250042
:10222400A2064208C29603480500C2960348350038
:102234006208C29694D78346550003486500A206F7
:102244004208C29603484500C296034875006208D6
:10225400C296D4D7834695000348A500A206420837
:10226400C29603488500C2960348B5006208C29628
:1022740094DB8346D5000348E500A2064208C296D3
:102284000348C5000345F500C2966205AA96D4DB4F
:1022940083C6150003C52500A2064205AA9603C5F8
:1022A4000500AA9603C535006205AA9694CF83C695
:1022B400550003C56500A2064205AA9603C545005C
:1022C400AA9603C575006205AA96D4CF83C6950065
:1022D40003C5A500A2064205AA9603C58500AA96D1
:1022E40003C5B5006205AA9694D383C6D50003C579
:1022F400E500A2064205AA9603C5C50083C5F500FC
:10230400AA96E205AE96D4D3D443F59AD4C3D44363
:1023140093E61600D4C3944393E6160094C3BA8795
:102324009443D842058B59E3984E01452300E600B7
:102334009843184F2183A300E6009843184F418324
:102344002301E6009843184F6183A301E6009C43F0
:10235400D84F2302E600D84F2183A302E600D84FCA
:1023640041832303E600D84F6183A303E600985317
:102374002304E60098532183A304E6009853418381
:102384002305E60098536183A305E600D85323068A
:10239400E600D8532183A306E600D85341832307DC
:1023A400E600DC53E183A307F600828001008DBFC1
:1023B400138741C01443411122C49C5E4AC006C61F
:1023C400998326C2858B3A84138901C0D1C79C5E48
:1023D400974400009384C40493F7F7F99CDE1747ED
:1023E40000000347470493070008631BF700832793
:1023F40009009C4393F70704174700002305F702DD
:1024040083C7040093F707048DC3938701B39C43E8
:1024140082979747000023ADA70083C7040093F772
:10242400F70B17470000230DF7FE83C7440093F70B
:1024340007049DE3854717470000A305F7FE93872C
:1024440001C19C43096798C7130700FC9746000025
:10245400238AE6FCD844F8D31C40985F1183058B8B
:1024640009CB985F3D9B98DF054797460000238B77
:10247400E6FA985F1D83058B11CB985F1377F7F706
:1024840098DF854717470000230EF7F883270900D4
:10249400D8430583058B19C7D843759BD8C3D84344
:1024A400799BD8C3B24022449244024941018280BC
:1024B400397106DE16DC1ADA1ED82AD62ED432D2A8
:1024C40036D03ACE3ECC42CA46C872C676C47AC228
:1024D4007EC0F93DF250E2525253C2533255A255D6
:1024E400125682567247E2475248C248324EA24EB2
:1024F400124F824F216173002030938701C19443AE
:10250400974700009387C7F103C70700058B11CBDA
:1025140097470000238807F097470000A38407F03B
:10252400828003C71700058B65F7F85271FF83C7D4
:102534005700DDB7138841C0032708001C5F95834B
:10254400858BD1E709C61C5BBD832300F60085CAD1
:1025540083270800985B4607935767016356070073
:1025640093E707C0C207C18303970600C207C18768
:1025740009C7BA970947B3C7E7022390F60085CD88
:10258400834715008DCB9746000083C6C6E993F6B2
:1025940006041387970089478DCA3A9503470500B7
:1025A400854699471376F7066311D6026207618759
:1025B400B947634C0700832708009C5FED838D8B2C
:1025C40017470000A303F7E681473E8582808547CD
:1025D400EDBF411122C406C6138401C118402DE980
:1025E400AE877453FDFE3E85B28597470000238A6B
:1025F40007E2971002E0E7802077938741C09C436D
:10260400B70680009843558F98C3D857719BD8D785
:1026140097470000A38807E097470000A38207E0DC
:102624001C40094798C3144017470000130747DFAD
:1026340083472700858B89EB83473700858BD9C374
:1026440097470000238007DEB24022444101828084
:102654008D47631EF500938741C09C43B7068000F5
:102664009843558F98C3D857719BD8D76DBF85476A
:10267400E31BF5FA5447F977FD17F58F5CC70F1084
:1026840000001C40096798C7130700F817460000AC
:10269400230AE6D8138741C01043184231830D8BB7
:1026A40011E713076019F8D3D4C7B5BF1842094618
:1026B40031830D8B6315C7001307E043EDB7130790
:1026C400E01BD5B7FC52ADF741B75D71A2C4A6C2F9
:1026D4002A84130680022800AE849305100886C657
:1026E400CAC04EDE52DCEFF06FEA3545972002E0B7
:1026F400E780E0A3138341C0832703009376F41F8C
:10270400138E81C123A40700984B938E01C1370F08
:10271400FCFF1367F70398CBF84F130510F8B702C3
:102724000400137707E0558FF8CF9843F576FD162C
:10273400758F98C39843B7063300930380251377A6
:10274400F7E798C3984311497D1F1377F7E7136799
:10275400071098C303270E008549930F80021C4776
:10276400D58F1CC783A70E001307900D3400B8CB78
:10277400014793553700A69583C705001376770064
:10278400B3D7C740858BE1C38327030083280E009A
:10279400239C07042390070603A8C8021378D8FFD4
:1027A40023A6080383A807001378F70793F808F80B
:1027B40033E8080123A0070103A84702336858003F
:1027C40023A2070383A80E00014823A2780603DA94
:1027D40007066307480303A80703038A0600135880
:1027E400F80062081358884163580A0103A80703D4
:1027F4001358F8002380060103D807061378F80F4E
:1028040003AA480663060A0003DA8705E37F49FB47
:1028140003A847023378E80123A20703838706004D
:10282400635CF40003C805003396C9001346F6FF41
:10283400337606012380C5003E8663D3A7002A862B
:1028440013158601618505071377F70F8506E312D3
:10285400F7F3B640264496440649F259625A616138
:102864008280938601C19C42D84713161701635591
:102874000602984713161701635006027D57B8D70E
:10288400174700001307C79D584F05071746000058
:102894002326E69E116798C798470D83058B1DC3B1
:1028A400174700000347E7B71367170017460000F0
:1028B4002309E6B6130700F8174600002304E6B61A
:1028C400214798C79847058B09CF1747000003474E
:1028D40037B51367170017460000A303E6B405478E
:1028E40098C798470983058B09E798470583058BA3
:1028F40021CF984717460000130686B2138541C0BE
:102904000983058B630307101841184331830D8B2A
:1029140075EBAC4B184E93F5050203471700CDCD6C
:1029240079EF13077006D8CF034706001367170023
:10293400174600002306E6AE114798C718415C57B6
:10294400F19B93E717005CD79C4298479316370195
:1029540063D606029746000083C646C0C18A17475D
:102964000000130727B8C5CE03478707136707027C
:10297400974600002384E6BE056798C798479316D8
:10298400270163D10602174700000347A7A962077E
:102994006187635707000547974600002384E6A82C
:1029A400096798C798479316070163D606029746A6
:1029B400000083C6B6BA858A17470000130787B29A
:1029C400ADCE034797071367270097460000A387F8
:1029D400E6B8216798C7828029D785456315B70073
:1029E4001307B00689B789456315B7001307F006C6
:1029F4001DBF8D456315B700130730072DB71307A7
:102A0400500715B71307600739BF0347360013672C
:102A1400170017460000A306E6A0094739BF8346FE
:102A240087070946BD8A6388C600034787078D4622
:102A34003D8BE313D7F4114725BF83469707918A4B
:102A4400C9DA034797071367870041B7397106DE70
:102A540016DC1ADA1ED82AD62ED432D236D03ACE82
:102A64003ECC42CA46C872C676C47AC27EC0D53B42
:102A7400F250E2525253C2533255A2551256825664
:102A84007247E2475248C248324EA24E124F824F1A
:102A9400216173002030938701C198438567938730
:102AA40007777CD3938781C19C4383A60709139638
:102AB40056006358060083A607091396660063440C
:102AC40006007453FDF2828061C1AA870145DDCD01
:102AD4008D07C207C183F19BC207C183130740035B
:102AE400636BF702138741CA08431387C1C91443B0
:102AF4006396A602173700001307C772185B0145D7
:102B040051C74111C20706C60545DD8D0297B24083
:102B1400014541018280138701CAF9B70357650053
:102B240035E303574500636FF704B306F7402146C6
:102B3400637CD60203280500938687001D8FAA961E
:102B4400611717360000035606722392E60023A08D
:102B540006012393060014C12312F500130786FF10
:102B6400973600002391E6702313B50097350000D3
:102B740083D5656FB387F540173700002315F76ECB
:102B8400210582800841ADB701458280828009CD4C
:102B9400938741CA03A307009387C1C983A8070089
:102BA40081469A8763E31701828003A8070063695B
:102BB400F50A6367A80A13878700E367E5FE03D66F
:102BC4006700216705076317E60003C781BD050792
:102BD400238CE1BC973500009385856803D64700B4
:102BE40003D76500239307003297420741831735C3
:102BF4000000231AE56663886702138501CA084149
:102C04006303F50203D5660019ED83D7460023A0BC
:102C1400060121073E9621062392C600973700003D
:102C24002393E764B6879843E30017F9938601CAB0
:102C34009442E30BD7F683566700BDF683D647006C
:102C4400035647001843A106B2962392D70098C3AF
:102C540083D76500A107173700002316F760828029
:102C6400BE86C28781B7032785116302071241110B
:102C740022C406C68347C5008345E5042A8493F726
:102C8400C70F2306F500834697000356C700139524
:102C94008601618563F2C508635B05060345870009
:102CA40093F6F607A304D700054693E627006314BA
:102CB400C50093E617002306D4005C4389075CC370
:102CC400A30AB400032504112E864C430905EFF032
:102CD4006F888327841103465401D44303D7C70064
:102CE400B296118FD4C32396E7008947A30DF4004D
:102CF400034764039737000083C7E7536378F704F7
:102D04008347C40093E707012306F40081A093E7F7
:102D140017002306F4006DB79376F60F635D050282
:102D240003458700854513E627006314B50013E6C1
:102D340017002306C400A30AD400A3040700854790
:102D4400A30DF400832784119C43DDF3B240224495
:102D540001454101828093E717002306F400A30A8A
:102D6400D400A3040700032504114C430905EFE034
:102D74007FFE8327841103465401D44303D7C7003D
:102D8400B296118FD4C32396E7008D4755BF0545EE
:102D940082809387C1CA9C43411122C406C6858B95
:102DA4002A84C5EF4165130525F597C002E0E78045
:102DB400C02745C58347A5002315F50083270412C2
:102DC400BDE72320A4122322A41285472311F4046F
:102DD400232005008347640154412316F50003476B
:102DE400D4002304E5000547A304E50017370000D9
:102DF40013070763184F1385170215811C437D15AC
:102E04001375F50F9CC25C43DCC21C479CC65C472F
:102E1400DCC61C4B9CCA5C4BDCCA1C4F9CCE5C4F72
:102E2400DCCE19CD9386060213070702C1BF8327A0
:102E3400441288C3835724042322A412850779B734
:102E44009737000083D7876A850717370000231F49
:102E5400F768B2402244410182808347C4002309B9
:102E64000400054593C747002306F400DDB78347F4
:102E7400850193F7E70FC5EF83479501CDEB034633
:102E840025018346C50009CA834565031737000039
:102E94000347773A63E7E50013F7060151CB01478F
:102EA40009C6C18A0357651C81C68356A51C36977B
:102EB40041C31307C712173500000355253FB33527
:102EC400A70237460F00411113060624814622C487
:102ED40026C206C67D543305A70297F002E0E780B8
:102EE400A01C9737000083C77735B384A7009737B2
:102EF40000009387275F03A787098327070963F3E4
:102F040087003E84184375FB938701B39C438297E3
:102F140081476364A400B307A440B2402244B3B71A
:102F2400970093C7170092443E85410182808147F0
:102F34003E858280938701C198437C53FDFF828044
:102F4400797126D206D622D44AD04ECE52CC56CA55
:102F54005AC85EC68347550303447513AA843E9436
:102F64001374F40F9307400263F687001304B4FD4F
:102F74001374F40F03AA841383AAC413A38B8412B7
:102F840022865285D68597F002E0E780600C058999
:102F940015E503CBD41201498149337B6403930BB8
:102FA40050024A865285D68597F002E0E780400AAF
:102FB400058915C5639169031374F90F238B841272
:102FC400B250225492540259F249624AD24A424BB4
:102FD400B24B456182808509E20993D9894105098B
:102FE400E31179FDE1BF832785090356050479714F
:102FF40093D60701BD8EC206C182358E1357764023
:1030040093575640898B058B5D8F93573640918B30
:103014005D8F93571640A18B5D8F93171600C18B5C
:103024005D8F9317360093F707025D8F9317560051
:103034009355860093F707041E065D8F1376F60FEB
:10304400518F93D7554013D63540118A898BD18F30
:1030540013D67540D18F13D61540218AD18F13967C
:103064001500418AD18F1396350013760602D18F4D
:1030740013965500137606049E05D18F93F5F50F2C
:10308400CD8FA20745465D8F3307C70222D42A8419
:1030940026D252CC56CA032A8413832AC4135AC88C
:1030A40006D63697420741839357774013555740C6
:1030B4000989858BC98F135537401189C98F1355D9
:1030C40017402189C98F131517004189C98F13151A
:1030D400370013750502C98F1315570093558700E0
:1030E400137505041E07C98F1377F70FD98F13D5EE
:1030F400354013D755401189098B498F13D5754035
:10310400498F13D515402189498F1395150041899D
:10311400498F1395350013750502498F1395550092
:10312400137505049E05498F93F5F50F4D8F2207FE
:10313400D98FB387C7024AD04ECE5EC662C4B69753
:10314400C207C18313D7774013D557400989058B2C
:10315400498F13D537401189498F13D517402189D9
:10316400498F139517004189498F139537001375BB
:103174000502498F1395570093D5870013750504ED
:103184009E07498F93F7F70FD98F13D5354013D77F
:1031940055401189098B498F13D57540498F13D533
:1031A40015402189498F139515004189498F13953D
:1031B400350013750502498F1395550013750504E1
:1031C4009E05498F93F5F50F4D8F2207D98FB3874D
:1031D400C702130650025285D685B697BD8E9394C6
:1031E4000601C18033F6C402137BF60F97F002E0A8
:1031F400E78000E605890DED8347D4120149814932
:10320400B3849702130C5002C1804A865285D68536
:1032140097F002E0E780C0E30589937BF90F11C5BD
:1032240063863403850993F9F90F0509E31F89FDC2
:10323400230B6413B250225492540259F249624A45
:10324400D24A424BB24B224C456182805E8BCDB751
:10325400797122D406D683C735002E842316010043
:10326400A307F10083C74500100802C02307F1003B
:1032740083C755008A8502C2A306F10002C402C8AE
:1032840002CA02CC02CEEFE09FF70347F101834765
:10329400040001456310F7020347E101834714006A
:1032A40001456319F7000345D101834724001D8DAF
:1032B40013351500B25022544561828001119737AD
:1032C40000009387272222CC03A4870C26CA4AC86D
:1032D4004EC606CEAA8413092500854915C083C7A6
:1032E400140003473400858B6304F700405CFDB78A
:1032F4001946930544004A85EFE0DFAEE31835FF35
:103304002285F2406244D2444249B2490561828036
:103314004111973700009387E71C22C403A4870C4C
:1033240026C24AC006C693042500054901E8228541
:10333400B24022449244024941018280A685130589
:10334400A4023937E30525FF405CCDB74111973717
:1033540000009387271922C403A4870C26C24AC0FD
:1033640006C693042500054901E82285B24022449B
:103374009244024941018280A6851305A401C93DF6
:08338400E30525FF405CCDB715
:1033900097110020938101B317510020130181C6BA
:1033A0001305400097D5FF1F9385C5C5170600205C
:1033B0001306C6FD63FAC5008322050023A055004D
:1033C00011059105E3EAC5FE174503001305057ACB
:1033D00097050020938585FB1386818863FAC500D5
:1033E0008322050023A0550011059105E3EAC5FEDF
:1033F0001385818897350020938585216377B500F3
:10340000232005001105E36DB5FEFD42739002BC5B
:103410008D4273904280930280087390023097D25D
:10342000FF1F938222BE93E232007390523097B214
:1034300000009382820F73901234730020303D435A
:103440002A876373C3029377F700BDEFADE59376E8
:1034500006FF3D8ABA960CC34CC30CC74CC7410744
:10346000E36BD7FE11E28280B306C3408A0697025F
:10347000000096966780A6002307B700A306B70052
:103480002306B700A305B7002305B700A304B700C0
:103490002304B700A303B7002303B700A302B700B8
:1034A0002302B700A301B7002301B700A300B700B0
:1034B0002300B700828093F5F50F93968500D58D94
:1034C00093960501D58D61B793962700970200006A
:1034D00096968682E78086FA9680C1171D8F3E9663
:1034E000E374C3F8A5B7011122CE00102326A4FE71
:1034F0002324B4FEB71700409387770583C70700DE
:1035000013F7F70FB717004093877705799B137769
:10351000F70F2380E7008327C4FE93F7F70F9A077E
:1035200013F7F70F832784FE93F7F70F920793F7AC
:10353000F70FD98F13F7F70FB71700409387970549
:10354000136737001377F70F2380E70001007244F9
:1035500005618280411122C60008B7170040938799
:10356000770583C7070013F7F70FB7170040938756
:103570007705799B1377F70F2380E700B717004093
:103580009387B705130700F82380E700B7170040BB
:10359000938787053D472380E700B717004093874F
:1035A0009705130750032380E700010032444101CF
:1035B0008280411122C60008B71700409387A705F3
:1035C00005472380E7000100B71700409387A70550
:1035D00083C7070093F7F70F858BFDF7B7170040F8
:1035E0009387C70583D70700139707014183856732
:1035F000FD17F98FC207C1833E85324441018280A5
:10360000797122D60018232EA4FCB71700409387A7
:10361000E70483C70700A307F4FE8347F4FEF19B8A
:1036200013F7F70F8327C4FD93F7F70F8D8B93F7ED
:10363000F70FD98FA307F4FEF32700802322F4FEAF
:10364000832744FEA18B85C3F32700802320F4FE4B
:10365000032704FE9387818898C3938781889C43BE
:10366000DD9B7390078001000100B717004093872E
:103670000704130770052380E700B71700409387FE
:103680000704130780FA2380E70001000100B71741
:1036900000409387E7040347F4FE2380E700B71751
:1036A00000409387070423800700F327008023242A
:1036B000F4FE032784FE938781889C43A18BD98FD6
:1036C000739007809387818823A007000100010081
:1036D0000100325445618280797122D60018232E70
:1036E000A4FCB71700409387E70483C70700A3072C
:1036F000F4FE8347F4FE93F7F7F813F7F70F8327E9
:10370000C4FD93F7F70F920793F7F70FD98FA3072D
:10371000F4FEF32700802322F4FE832744FEA18BCE
:1037200085C3F32700802320F4FE032704FE93873C
:10373000818898C3938781889C43DD9B7390078021
:1037400001000100B71700409387070413077005B5
:103750002380E700B717004093870704130780FA18
:103760002380E70001000100B71700409387E704BA
:103770000347F4FE2380E700B71700409387070450
:1037800023800700F32700802324F4FE032784FE10
:10379000938781889C43A18BD98F739007809387EF
:1037A000818823A007000100010001003254456117
:1037B0008280797122D60018232EA4FCB71700400E
:1037C0009387E70283C70700A307F4FE8347F4FE4D
:1037D000F19B13F7F70F8327C4FD93F7F70F8D8B3A
:1037E00093F7F70FD98FA307F4FEF3270080232266
:1037F000F4FE832744FEA18B85C3F327008023209A
:10380000F4FE032704FE9387818898C393878188F9
:103810009C43DD9B7390078001000100B7170040B7
:1038200093870704130770052380E700B71700404C
:1038300093870704130780FA2380E7000100010043
:10384000B71700409387E7020347F4FE2380E700A1
:10385000B71700409387070423800700F3270080F1
:103860002324F4FE032784FE938781889C43A18B45
:10387000D98F739007809387818823A00700010068
:1038800001000100325445618280697123261112C2
:1038900023248112001A232EA4ECA30704FE23077D
:1038A00004FE232404FE232404EEEF200046AA870E
:1038B0002322F4FEF32700802324F4FC832784FCD6
:1038C000A18B85C3F32700802322F4FC032744FC4B
:1038D0009387818898C3938781889C43DD9B7390ED
:1038E000078001000100B717004093870704130702
:1038F00070052380E700B71700409387070413077C
:1039000080FA2380E70001000100B7170040938789
:10391000F70283C7070013F7F70FB7170040938725
:10392000F7025D9B1377F70F2380E700B71700407E
:103930009387F70283C7070013F7F70FB717004005
:103940009387F702136787001377F70F2380E70049
:10395000B71700409387070423800700F3270080F0
:103960002326F4FC0327C4FC938781889C43A18B06
:10397000D98F739007809387818823A00700010067
:103980000100F3270080232AF4FC832744FDA18B48
:1039900085C3F32700802328F4FC032704FD9387C5
:1039A000818898C3938781889C43DD9B73900780AF
:1039B00001000100B7170040938707041307700543
:1039C0002380E700B717004093870704130780FAA6
:1039D0002380E70001000100B71700409387E7024A
:1039E00083C7070013F7F70FB71700409387E70265
:1039F000719B1377F70F2380E700B7170040938779
:103A0000E70283C7070013F7F70FB7170040938744
:103A1000E702136717001377F70F2380E700B71744
:103A200000409387070423800700F3270080232C9E
:103A3000F4FC032784FD938781889C43A18BD98F55
:103A4000739007809387818823A0070001000100FD
:103A5000F3270080232EF4FA8327C4FBA18B85C3B0
:103A6000F3270080232CF4FA032784FB93878188B3
:103A700098C3938781889C43DD9B739007800100E6
:103A80000100B717004093870704130770052380D0
:103A9000E700B717004093870704130780FA2380D5
:103AA000E70001000100B71700409387370583C77F
:103AB000070013F7F70FB717004093873705619B8F
:103AC0001377F70F2380E700B71700409387370578
:103AD00083C7070013F7F70FB71700409387370521
:103AE000136717001377F70F2380E700B71700401D
:103AF0009387070423800700F32700802320F4FC2A
:103B0000032704FC938781889C43A18BD98F7390F2
:103B100007809387818823A0070001000100F32715
:103B200000802328F4FA832704FBA18B85C3F327A5
:103B300000802326F4FA0327C4FA9387818898C368
:103B4000938781889C43DD9B73900780010001006F
:103B5000B717004093870704130770052380E70019
:103B6000B717004093870704130780FA2380E70004
:103B700001000100B71700409387370583C707008E
:103B800013F7F70FB717004093873705136707023E
:103B90001377F70F2380E700B717004093870705D7
:103BA00083D7070093960701C182B7170040938718
:103BB00007051167558F420741832390E700B71728
:103BC00000409387070583D7070093960701C182BA
:103BD000B7170040938707056177558F42074183E8
:103BE0002390E700B717004093870704238007005E
:103BF000F3270080232AF4FA032744FB9387818864
:103C00009C43A18BD98F739007809387818823A0D1
:103C10000700010001007DA0F32700802322F4FAB1
:103C2000832744FAA18B85C3F32700802320F4FA6D
:103C3000032704FA9387818898C3938781889C43DC
:103C4000DD9B7390078001000100B7170040938748
:103C50000704130770052380E700B7170040938718
:103C60000704130780FA2380E70001000100B7175B
:103C700000409387370583C7070013F7F70FB7177F
:103C8000004093873705136707021377F70F2380E8
:103C9000E700B71700409387070423800700F32746
:103CA00000802324F4FA032784FA938781889C43B5
:103CB000A18BD98F739007809387818823A00700F9
:103CC00001000100B71700409387370583C707003D
:103CD00093F7F70F93F70702A1D30100B71700403E
:103CE0009387370583C7070093F7F70FA18BFDD79D
:103CF000930784EE3E85EF200008F3270080232CF5
:103D0000F4F8832784F9A18B85C3F3270080232A45
:103D1000F4F8032744F99387818898C393878188AF
:103D20009C43DD9B7390078001000100B7170040A2
:103D300093870704130770052380E700B717004037
:103D400093870704130780FA2380E700010001002E
:103D5000B71700409387370583C7070013F7F70F9E
:103D6000B7170040938737051377F7FD1377F70FE1
:103D70002380E700B71700409387370583C7070004
:103D800013F7F70FB717004093873705136707023C
:103D90001377F70F2380E700B717004093870705D5
:103DA00083D7070093960701C182B7170040938716
:103DB00007051167558F420741832390E700B71726
:103DC00000409387070583D7070093960701C182B8
:103DD000B7170040938707056177558F42074183E6
:103DE0002390E700B717004093870704238007005C
:103DF000F3270080232EF4F80327C4F993878188E2
:103E00009C43A18BD98F739007809387818823A0CF
:103E10000700010001007DA0F32700802326F4F8AD
:103E20008327C4F8A18B85C3F32700802324F4F8EB
:103E3000032784F89387818898C3938781889C435C
:103E4000DD9B7390078001000100B7170040938746
:103E50000704130770052380E700B7170040938716
:103E60000704130780FA2380E70001000100B71759
:103E700000409387370583C7070013F7F70FB7177D
:103E8000004093873705136707021377F70F2380E6
:103E9000E700B71700409387070423800700F32744
:103EA00000802328F4F8032704F9938781889C4332
:103EB000A18BD98F739007809387818823A00700F7
:103EC00001000100B71700409387370583C707003B
:103ED00093F7F70F93F70702A1D30100B71700403C
:103EE0009387370583C7070093F7F70FA18BFDF77B
:103EF000EF1000532324A4FE0100EF1060522A8724
:103F0000832784FEE38BE7FEB717004093870705FE
:103F100083D7070093960701C182B71700409387A4
:103F200007051167558F420741832390E7008327D8
:103F300084EE3E85EF1030680100B717004093878C
:103F4000370583C7070093F7F70FA18BFDD7B71786
:103F500000409387070583D70700C207C18323204A
:103F6000F4FE032704FE9167FD177D8FB71700400D
:103F70009387270583C7070093F7F70FBE86B68799
:103F8000BA07958FBA97832644FE1167130707E88F
:103F900033C7E602998F232EF4FC032744FE9307D0
:103FA00080C13347F702BA878E07BA978A073E97D0
:103FB000BD67938707A6B347F7020327C4FD63D6FF
:103FC000E702032744FE9307803E3347F702BA8790
:103FD0008E07BA978A073E97BD67938707A6B347B0
:103FE000F7020327C4FD6347F7000347F4FE894740
:103FF00063F6E7008347F4FE639E07128347F4FEEF
:104000008507A307F4FE8327C4FD635DF0028327C1
:10401000C4FD13971700832644FE9307803EB3C662
:10402000F6029307A004B386F602BD67938707A63E
:10403000B3C7F602B347F702850713D7F701BA975C
:1040400085871DA88327C4FD13971700832644FE88
:104050009307803EB3C6F6029307A004B386F60228
:10406000BD67938707A6B3C7F602B347F702FD17EC
:1040700013D7F701BA978587232EF4FCF327008026
:104080002320F4F8832704F8A18B85C3F32700804D
:10409000232EF4F60327C4F79387818898C3938768
:1040A00081889C43DD9B7390078001000100B71756
:1040B000004093870704130770052380E700B717B4
:1040C000004093870704130780FA2380E70001006C
:1040D0000100B71700409387C70283D70700939664
:1040E0000701C1828327C4FD139707014183B717D6
:1040F00000409387C7023697420741832390E70029
:10410000B71700409387070423800700F327008038
:104110002322F4F8032744F8938781889C43A18BDA
:10412000D98F739007809387818823A007000100AF
:104130000100F5B20100F3270080232AF4F683275B
:1041400044F7A18B85C3F32700802328F4F60327C7
:1041500004F79387818898C3938781889C43DD9B6C
:104160007390078001000100B71700409387070490
:10417000130770052380E700B717004093870704F3
:10418000130780FA2380E70001000100B717004001
:104190009387370583C7070013F7F70FB71700405A
:1041A00093873705619B1377F70F2380E700B717D5
:1041B00000409387370583C7070093F6F70F8327DF
:1041C000C4ED13F7F70FB717004093873705558FE6
:1041D0001377F70F2380E700B71700409387070492
:1041E00023800700F3270080232CF4F6032784F7AD
:1041F000938781889C43A18BD98F73900780938785
:10420000818823A007000100010055A8F327008042
:104210002324F4F6832784F6A18B85C3F32700803B
:104220002322F4F6032744F69387818898C3938763
:1042300081889C43DD9B7390078001000100B717C4
:10424000004093870704130770052380E700B71722
:10425000004093870704130780FA2380E7000100DA
:104260000100B71700409387370583C7070093F60F
:10427000F70F8327C4ED13F7F70FB71700409387A5
:104280003705558F1377F70F2380E700B7170040E6
:104290009387070423800700F32700802326F4F682
:1042A0000327C4F6938781889C43A18BD98F739091
:1042B00007809387818823A0070001000100B717BA
:1042C00000409387370583C7070093F7F70F9D8B4F
:1042D0000327C4EDE31CF7F2F3270080232EF4F448
:1042E0008327C4F5A18B85C3F3270080232CF4F426
:1042F000032784F59387818898C3938781889C439B
:10430000DD9B7390078001000100B7170040938781
:104310000704130770052380E700B7170040938751
:104320000704130780FA2380E70001000100B71794
:1043300000409387370583C7070013F7F70FB717B8
:104340000040938737051377F7FD1377F70F238026
:10435000E700B71700409387370583C7070013F7B7
:10436000F70FB717004093873705136707021377D6
:10437000F70F2380E700B71700409387070583D71F
:10438000070093960701C182B7170040938707057E
:104390001167558F420741832390E700B71700400C
:1043A0009387070583D7070093960701C182B71744
:1043B0000040938707056177558F4207418323901B
:1043C000E700B71700409387070423800700F3270F
:1043D00000802320F4F6032704F6938781889C430A
:1043E000A18BD98F739007809387818823A00700C2
:1043F000010001007DA0F32700802328F4F4832727
:1044000004F5A18B85C3F32700802326F4F403274A
:10441000C4F49387818898C3938781889C43DD9BEC
:104420007390078001000100B717004093870704CD
:10443000130770052380E700B71700409387070430
:10444000130780FA2380E70001000100B71700403E
:104450009387370583C7070013F7F70FB717004097
:1044600093873705136707021377F70F2380E70059
:10447000B71700409387070423800700F3270080C5
:10448000232AF4F4032744F5938781889C43A18B66
:10449000D98F739007809387818823A0070001003C
:1044A0000100B71700409387370583C7070093F7CC
:1044B000F70F93F70702A1D30100B71700409387C6
:1044C000370583C7070093F7F70FA18BFDD7930735
:1044D00084EE3E85EF10300AF32700802322F4F4A7
:1044E000832744F4A18B85C3F32700802320F4F4B1
:1044F000032704F49387818898C3938781889C431A
:10450000DD9B7390078001000100B717004093877F
:104510000704130770052380E700B717004093874F
:104520000704130780FA2380E70001000100B71792
:1045300000409387370583C7070013F7F70FB717B6
:104540000040938737051377F7FD1377F70F238024
:10455000E700B71700409387370583C7070013F7B5
:10456000F70FB717004093873705136707021377D4
:10457000F70F2380E700B71700409387070583D71D
:10458000070093960701C182B7170040938707057C
:104590001167558F420741832390E700B71700400A
:1045A0009387070583D7070093960701C182B71742
:1045B0000040938707056177558F42074183239019
:1045C000E700B71700409387070423800700F3270D
:1045D00000802324F4F4032784F4938781889C4388
:1045E000A18BD98F739007809387818823A00700C0
:1045F000010001007DA0F3270080232CF4F2832723
:1046000084F3A18B85C3F3270080232AF4F20327C8
:1046100044F39387818898C3938781889C43DD9B6B
:104620007390078001000100B717004093870704CB
:10463000130770052380E700B7170040938707042E
:10464000130780FA2380E70001000100B71700403C
:104650009387370583C7070013F7F70FB717004095
:1046600093873705136707021377F70F2380E70057
:10467000B71700409387070423800700F3270080C3
:10468000232EF4F20327C4F3938781889C43A18BE4
:10469000D98F739007809387818823A0070001003A
:1046A0000100B71700409387370583C7070093F7CA
:1046B000F70F93F70702A1D30100B71700409387C4
:1046C000370583C7070093F7F70FA18BFDF7EF00BE
:1046D00030552324A4FE0100EF0090542A8783273D
:1046E00084FEE38BE7FEB71700409387070583D767
:1046F000070093960701C182B7170040938707050B
:104700001167558F420741832390E700832784EE8A
:104710003E85EF10406A0100B717004093873705C8
:1047200083C7070093F7F70FA18BFDD7F32700800E
:104730002326F4F28327C4F2A18B85C3F3270080DC
:104740002324F4F2032784F29387818898C3938704
:1047500081889C43DD9B7390078001000100B7179F
:10476000004093870704130770052380E700B717FD
:10477000004093870704130780FA2380E7000100B5
:104780000100B71700409387370583C7070013F769
:10479000F70FB7170040938737051377F7FD1377A7
:1047A000F70F2380E700B7170040938707042380A3
:1047B0000700F32700802328F4F2032704F39387EC
:1047C00081889C43A18BD98F7390078093878188C0
:1047D00023A0070001000100B717004093870705D9
:1047E00083D70700C207C1832320F4FE032704FEFA
:1047F0009167FD177D8FB71700409387270583C703
:10480000070093F7F70FBE86B687BA07958F3E97D6
:104810008327C4ED8566938606FAB396F6000326D1
:1048200044FEB7470F0093870724B347F602B387C8
:10483000F60293D6F74193F6F60FB697A1878E0747
:10484000B307F740232EF4FC8327C4FD635CF00418
:104850000327C4FD9307800C3307F7028327C4EDB9
:104860008546B397F60093D6F7419D8AB6978D8714
:10487000BE8693076055B386F602032644FE93076F
:10488000803EB347F602B386F602BD67938707A65C
:10489000B3C7F602B347F702850713D7F701BA97F4
:1048A000858791A80327C4FD9307800C3307F7027F
:1048B0008327C4ED8546B397F60093D6F7419D8ACA
:1048C000B6978D87BE8693076055B386F60203269A
:1048D00044FE9307803EB347F602B386F602BD67F7
:1048E000938707A6B3C7F602B347F702FD1713D79E
:1048F000F701BA978587232EF4FC8327C4FD6355FF
:10490000F01AB71700409387C70283D70700C20782
:10491000C1839583C207C1833E878327C4FD3E9729
:104920009307F00F63D2E7180347E4FE894763FB60
:10493000E70AF32700802320F4F2832704F2A18BF7
:1049400085C3F3270080232EF4F00327C4F1938757
:10495000818898C3938781889C43DD9B73900780EF
:1049600001000100B7170040938707041307700583
:104970002380E700B717004093870704130780FAE6
:104980002380E70001000100B71700409387C702AA
:1049900083D7070093960701C182B717004093871A
:1049A000C70209670117558F420741832390E7002B
:1049B000B71700409387070423800700F327008080
:1049C0002322F4F2032744F2938781889C43A18B2E
:1049D000D98F739007809387818823A007000100F7
:1049E00001002DAEF3270080232AF4F0832744F141
:1049F000A18B85C3F32700802328F4F0032704F15B
:104A00009387818898C3938781889C43DD9B7390AB
:104A1000078001000100B7170040938707041307C0
:104A200070052380E700B71700409387070413073A
:104A300080FA2380E70001000100B7170040938748
:104A4000C70283D70700C207C183C207C18793F794
:104A5000F70F13970701418785678117D98F139740
:104A600007014187B71700409387C7024207418378
:104A70002390E700B71700409387070423800700BF
:104A8000F3270080232CF4F0032784F19387818897
:104A90009C43A18BD98F739007809387818823A033
:104AA000070001000100A5A48327C4FD63D2071AF3
:104AB000B71700409387C70283D70700C207C18397
:104AC0009583C207C1833E878327C4FDB307F040A7
:104AD0006350F7180347E4FE894763F9E70AF327B1
:104AE00000802324F4F0832784F0A18B85C3F3276F
:104AF00000802322F4F0032744F09387818898C331
:104B0000938781889C43DD9B73900780010001009F
:104B1000B717004093870704130770052380E70049
:104B2000B717004093870704130780FA2380E70034
:104B300001000100B71700409387C70283D7070021
:104B4000139707014183B71700409387C7027D8BF6
:104B5000420741832390E700B7170040938707047B
:104B600023800700F32700802326F4F00327C4F0F6
:104B7000938781889C43A18BD98F739007809387FB
:104B8000818823A007000100010049AAF3270080C3
:104B9000232EF4EE8327C4EFA18B85C3F327008077
:104BA000232CF4EE032784EF9387818898C393879F
:104BB00081889C43DD9B7390078001000100B7173B
:104BC000004093870704130770052380E700B71799
:104BD000004093870704130780FA2380E700010051
:104BE0000100B71700409387C70283D70700C207A9
:104BF000C183C207C18793F7F70F13970701418756
:104C000085678117D98F139707014187B717004030
:104C10009387C702420741832390E700B7170040FC
:104C20009387070423800700F32700802320F4F0F4
:104C3000032704F0938781889C43A18BD98F7390BD
:104C400007809387818823A0070001000100C1A08D
:104C5000F32700802328F4EE832704EFA18B85C37C
:104C6000F32700802326F4EE0327C4EE9387818880
:104C700098C3938781889C43DD9B739007800100D4
:104C80000100B717004093870704130770052380BE
:104C9000E700B717004093870704130780FA2380C3
:104CA000E70001000100B71700409387C70283D7D0
:104CB000070093960701C1828327C4FDC207C18301
:104CC0009607139707014183B71700409387C702E0
:104CD0003697420741832390E700B7170040938738
:104CE000070423800700F3270080232AF4EE03271C
:104CF00044EF938781889C43A18BD98F7390078061
:104D00009387818823A007000100010001A8834741
:104D1000E4FE85072307F4FE6FE09FD38320C112D2
:104D200003248112556182805D71A2C680082A88A1
:104D30002E85B2853686BA863E87C287231FF4FA4F
:104D4000AA87231EF4FAAE87231DF4FAB287231C28
:104D5000F4FAB687231BF4FABA87231AF4FA8357B6
:104D6000E4FB2317F4FE8357C4FB2316F4FE23153C
:104D700004FEB9A08357E4FE1387F7FF93070019D9
:104D8000B367F70299CF8357E4FE1387F7FF9307C2
:104D90004006B367F70289CB8357E4FEFD178D8B7E
:104DA00081E79307E01619A09307D0160357A4FED6
:104DB000BA972315F4FE8357E4FEFD172317F4FE7C
:104DC0000357E4FE9307407EE3E6E7FA69A0035742
:104DD000C4FE8D476313F7040357E4FB93070019E0
:104DE000B377F702C207C18385C30357E4FB930778
:104DF0004006B377F702C207C18389CB8357E4FB30
:104E00008D8BC207C18399E3854711A08147C207F3
:104E1000C183F107C207C1832DA00357C4FEA14778
:104E200063FAE7008357C4FE858B99C3FD4711A839
:104E3000F94701A88357C4FE858B99C3F94711A090
:104E4000FD470357A4FEBA972315F4FE8357C4FE0B
:104E5000FD172316F4FE0357C4FE8547E3E9E7F682
:104E60000357A4FB8357A4FEBA97C207C183FD175B
:104E70002315F4FE035784FBE147B377F70213973A
:104E80000701418393078070B307F70293960701E8
:104E9000C182035764FBBA879207998F8607C207BE
:104EA000C183B697139707014183835744FB8583DA
:104EB000C207C183BA972314F4FE835744FBBE078D
:104EC0002313F4FE835784FE2320F4FE832704FE7D
:104ED00013970701835764FED98F2320F4FEB71779
:104EE00000409387F70283C7070093F7F70F93F704
:104EF00007F893F7F70FA303F4FC834774FC93F7C9
:104F0000F70F3E87B71700409387F70283C7070064
:104F100093F7F70F93F70708E313F7FC834774FC45
:104F200093F7F70FB1E781A0B71700409387F70217
:104F300083C7070093F7F70F93F707F893F7F70F77
:104F4000A303F4FC834774FC93F7F70F3E87B7176E
:104F500000409387F70283C7070093F7F70F93F793
:104F60000708E313F7FC834774FC93F7F70FCDDFD3
:104F7000F3270080232CF4FC832784FDA18B85C3B9
:104F8000F3270080232AF4FC032744FD93878188BC
:104F900098C3938781889C43DD9B739007800100B1
:104FA0000100B7170040938707041307700523809B
:104FB000E700B717004093870704130780FA2380A0
:104FC000E70001000100B71700409387470303572C
:104FD000A4FE98C3B71700409387170383C7070041
:104FE00013F7F70FB717004093871703136707F8F6
:104FF0001377F70F2380E700B71700409387070464
:1050000023800700F3270080232EF4FC0327C4FD30
:10501000938781889C43A18BD98F73900780938756
:10502000818823A00700010001000100B71700409C
:10503000938747039843B71700409387C7039C4360
:105040003D8F9167FD17F98FF5F3F3270080232635
:10505000F4FC8327C4FCA18B85C3F32700802324A1
:10506000F4FC032784FC9387818898C39387818805
:105070009C43DD9B7390078001000100B71700403F
:1050800093870704130770052380E700B7170040D4
:1050900093870704130780FA2380E70001000100CB
:1050A000B717004093874703032704FE98C3B71739
:1050B00000409387170383C7070013F7F70FB7174D
:1050C000004093871703136707041377F70F2380B4
:1050D000E700B71700409387070423800700F327F2
:1050E00000802328F4FC032704FD938781889C43D8
:1050F000A18BD98F739007809387818823A00700A5
:10510000010001000100364461618280397122DEB4
:105110008000232EA4FC232CB4FC232AC4FC2328C7
:10512000D4FC2326E4FC2324F4FCB7170040938727
:10513000C7039C431397070141839167FD17F98FBC
:105140002317F4FEB71700409387A70383D7070000
:105150002316F4FEB71700409387870383D7070011
:105160002315F4FE8357C4FE86070317A4FE4207E7
:1051700041833D831377F70FBA972322F4FE8327E9
:10518000C4FD1307407E2390E700B5A08327C4FD2C
:1051900003D7070093070019B377F702C207C1834B
:1051A00085C78327C4FD03D7070093074006B3775D
:1051B000F702C207C18381CF8327C4FD83D70700CD
:1051C0008D8BC207C18381E79307E01619A093076F
:1051D000D0160357E4FEB307F7402317F4FE8327E6
:1051E000C4FD83D7070085071397070141838327F1
:1051F000C4FD2390E7000357E4FE8327C4FD83D654
:10520000070093070019B3F7F602C207C18385C7E9
:105210008327C4FD83D6070093074006B3F7F60241
:10522000C207C18381CF8327C4FD83D707008D8B3D
:10523000C207C18381E79307E01619A09307D01630
:10524000E356F7F4832784FD239007005DA88327A6
:1052500084FD03D7070085476319F7048327C4FD3E
:1052600003D7070093070019B377F702C207C1837A
:1052700085C78327C4FD03D7070093074006B3778C
:10528000F702C207C18399CB8327C4FD83D70700E8
:105290008D8BC207C18399E3854711A08147C2075F
:1052A000C183F107C207C1831DA8832784FD03D7EB
:1052B0000700994763FCE700832784FD83D7070035
:1052C000858B99C3FD4721A8F94711A8832784FD41
:1052D00083D70700858B99C3F94711A0FD47035772
:1052E000E4FEB307F7402317F4FE832784FD83D73A
:1052F00007008507139707014183832784FD2390C7
:10530000E7000357E4FE832784FD83D60700854723
:105310006395F6048327C4FD83D60700930700191D
:10532000B3F7F602C207C18385C78327C4FD83D6BE
:10533000070093074006B3F7F602C207C18399CB73
:105340008327C4FD83D707008D8BC207C18399E3F0
:10535000854711A08147F1071DA8832784FD83D6C7
:105360000700994763FCD700832784FD83D7070094
:10537000858B99C3FD4721A8F94711A8832784FD90
:1053800083D70700858B99C3F94711A0FD47E350E8
:10539000F7EC832784FD83D7070085071397070160
:1053A0004183832784FD2390E7008357E4FE85072C
:1053B000139707014183832744FD2390E7000327C8
:1053C00044FE8567938707E1B357F70213970701F8
:1053D0004183832704FD2390E700032744FE85676C
:1053E000938707E13377F7029307C003B357F702B8
:1053F0001397070141838327C4FC2390E700032709
:1054000044FE9307C003B377F70213970701418364
:10541000832784FC2390E70001007254216182807D
:10542000011122CE0010B7170040938787039C43D9
:105430002326F4FEB71700409387870398438327FA
:10544000C4FEE312F7FE8327C4FE3E857244056165
:105450008280011122CE00102326A4FE2324B4FE54
:10546000032784FE914763E0E71A832784FE13979E
:105470002700972703009387279CBA97984397277D
:1054800003009387679BBA978287B717004093877B
:10549000470B94438327C4FE13C7F7FFB717004099
:1054A0009387470B758F98C3B71700409387070BF7
:1054B00094438327C4FE13C7F7FFB71700409387B1
:1054C000070B758F98C3B71700409387070A94435B
:1054D0008327C4FE13C7F7FFB71700409387070A57
:1054E000758F98C315A2B71700409387470B944355
:1054F0008327C4FE13C7F7FFB71700409387470BF6
:10550000758F98C3B71700409387070B9443B7175D
:1055100000409387070B0327C4FE558F98C3B71726
:1055200000409387070A94438327C4FE13C7F7FFFD
:10553000B71700409387070A758F98C3F1A0B71774
:1055400000409387470B9443B71700409387470B5E
:105550000327C4FE558F98C3B71700409387070BE6
:1055600094438327C4FE13C7F7FFB7170040938700
:10557000070B758F98C3B71700409387070A9443AA
:105580008327C4FE13C7F7FFB71700409387070AA6
:10559000758F98C395A8B71700409387470B94431E
:1055A0008327C4FE13C7F7FFB71700409387470B45
:1055B000758F98C3B71700409387070A9443B717AE
:1055C00000409387070A0327C4FE558F98C32DA870
:1055D000B71700409387470B9443B7170040938752
:1055E000470B0327C4FE558F98C3B7170040938716
:1055F000070A9443B71700409387070A0327C4FE9E
:10560000558F98C311A0010001007244056182808A
:10561000011122CE00102326A4FE2324B4FE03276A
:1056200084FE914763E0E71A832784FE13972700DF
:105630009727030093878781BA979843972703009A
:105640009387C780BA978287B71700409387470D23
:1056500094438327C4FE13C7F7FFB717004093870F
:10566000470D758F98C3B71700409387070D944374
:105670008327C4FE13C7F7FFB71700409387070DB2
:10568000758F98C3B71700409387070C94438327FF
:10569000C4FE13C7F7FFB71700409387070C758F39
:1056A00098C315A2B71700409387470D94438327EB
:1056B000C4FE13C7F7FFB71700409387470D758FD8
:1056C00098C3B71700409387070D9443B71700405E
:1056D0009387070D0327C4FE558F98C3B717004063
:1056E0009387070C94438327C4FE13C7F7FFB717AC
:1056F00000409387070C758F98C3F1A0B71700403F
:105700009387470D9443B71700409387470D0327AE
:10571000C4FE558F98C3B71700409387070D944375
:105720008327C4FE13C7F7FFB71700409387070D01
:10573000758F98C3B71700409387070C944383274E
:10574000C4FE13C7F7FFB71700409387070C758F88
:1057500098C395A8B71700409387470D94438327B4
:10576000C4FE13C7F7FFB71700409387470D758F27
:1057700098C3B71700409387070C9443B7170040AE
:105780009387070C0327C4FE558F98C32DA8B7171E
:1057900000409387470D9443B71700409387470D08
:1057A0000327C4FE558F98C3B71700409387070C93
:1057B0009443B71700409387070C0327C4FE558F07
:1057C00098C311A00100010072440561828001119B
:1057D00022CE00102326A4FE2324B4FE032784FE39
:1057E00085476309F706832784FE81CF032784FE5C
:1057F0008947630AF70A032784FE8D47630AF70E79
:105800002DAAB71700409387470983D707009396BF
:105810000701C1828327C4FEC207C18393C7F7FF74
:10582000139707014183B717004093874709758F86
:10583000420741832390E700B71700409387C70AC8
:105840009443B71700409387C70A0327C4FE558FB8
:1058500098C3E5A0B71700409387470983D707008F
:1058600093960701C1828327C4FEC207C18393C7F1
:10587000F7FF139707014183B71700409387470944
:10588000758F420741832390E700B7170040938745
:10589000870A9443B71700409387870A0327C4FEFB
:1058A000558F98C359A8B71700409387470983D7E6
:1058B000070093960701C1828327C4FE139707014F
:1058C0004183B717004093874709558F42074183AB
:1058D0002390E700B71700409387C70A9443B71790
:1058E00000409387C70A0327C4FE558F98C3B1A011
:1058F000B71700409387470983D70700939607019E
:10590000C1828327C4FE139707014183B717004064
:1059100093874709558F420741832390E700B717C4
:1059200000409387870A9443B71700409387870AFC
:105930000327C4FE558F98C30100B7170040938713
:10594000C7090327C4FE420741832390E700B71726
:1059500000409387070983D7070093960701C18208
:105960008327C4FE139707014183B717004093872D
:105970000709558F420741832390E70001007244D5
:1059800005618280011122CE00102326A4FEAE877D
:105990002315F4FE8327C4FE85C7B7170040E1072F
:1059A00083D7070093960701C182B7170040E1072C
:1059B0000357A4FE558F420741832390E70025A893
:1059C000B7170040E10783D70700C207C1831397C9
:1059D000070141878317A4FE93C7F7FFC207C1875A
:1059E000F98F139707014187B7170040E107420776
:1059F00041832390E70001007244056182801D719C
:105A0000A2CE80102326A4FAAE872322C4FAA305CF
:105A1000F4FA8327C4FAE9E3F32700802322F4FE93
:105A2000832744FEA18B85C3F32700802320F4FE47
:105A3000032704FE9387818898C3938781889C43BA
:105A4000DD9B7390078001000100B717004093872A
:105A50000704130770052380E700B71700409387FA
:105A60000704130780FA2380E70001000100B7173D
:105A70000040B90783C7070093F7F70F1397870113
:105A800061878307B4FA93C7F7FFE207E187F98FCD
:105A9000139787016187B7170040B9071377F70F8E
:105AA0002380E700B717004093870704238007008F
:105AB000F32700802324F4FE032784FE9387818844
:105AC0009C43A18BD98F739007809387818823A0F3
:105AD00007000100010035A4832744FA99C7032772
