:040000006F10D07F2E
:100004000000000000000000900000208A0400208E
:10001400A9BDF9F5900000200000000000000000D8
:10002400900000209000002000000000000000006C
:10003400900000200000000090000020000000005C
:1000440090000020900000209000002090000020EC
:1000540090000020900000209000002090000020DC
:1000640090000020900000209000002090000020CC
:100074007E050020900000209000002090000020C9
:1000840090000020900000209000002090000020AC
:1000940001A073270080218B9387818509CB732767
:1000A400008023ACE18498435D9B731007800100BA
:1000B400010037170040930670052300D704930608
:1000C40080FA2300D704010001008346B70493F6A5
:1000D400F60DA305D7042300070473260080944378
:1000E400A18AD18E7390068023AC018401000100A3
:1000F40093760502638406180347A700118B25E74E
:1001040073270080218B09CB7327008023ACE18403
:1001140098435D9B7310078001000100371700406E
:10012400930670052300D704930680FA2300D704AE
:10013400010001008346A70093E646002305D7008B
:1001440023000704F32600809843218B558F7310F6
:10015400078023AC0184010001001307004B010058
:1001640001007D176DFF73270080218B09CB732756
:10017400008023ACE18498435D9B731007800100E9
:10018400010037170040930670052300D704930637
:1001940080FA2300D704010001007D892314A700FD
:1001A400010001000100010023000704F326008080
:1001B4009843218B558F7310078023AC0184010071
:1001C400010073270080218B09CB7327008023ACA7
:1001D400E18498435D9B7310078001000100371789
:1001E4000040930670052300D704930680FA230089
:1001F400D7040100010001000100B72600401306E6
:100204001005A383C68023000704F32600809843C7
:10021400218B558F7310078023AC018401000100EA
:1002240073270080218B09CB7327008023ACE184E2
:1002340098435D9B7310078001000100371700404D
:10024400930670052300D704930680FA2300D7048D
:10025400010001008346B70493E60608A305D7040A
:1002640023000704732700809C43A18BD98F7390CC
:10027400078023AC01840100010082809376050489
:10028400638B06140347A700418B25E7732700807F
:10029400218B09CB7327008023ACE18498435D9BB9
:1002A40073100780010001003717004093067005A2
:1002B4002300D704930680FA2300D7040100010029
:1002C4008346A70093E606012305D700230007040D
:1002D400F32600809843218B558F7310078023AC3D
:1002E4000184010001001307007D010001007D1756
:1002F4006DFF73270080218B09CB7327008023AC0B
:10030400E18498435D9B7310078001000100371757
:100314000040930670052300D704930680FA230057
:10032400D704010001009376F50193E60604231433
:10033400D700010001000100010023000704F32697
:1003440000809843218B558F7310078023AC018460
:1003540001000100130760046310E50473270080A3
:10036400218B09CB7327008023ACE18498435D9BE8
:1003740073100780010001003717004093067005D1
:100384002300D704930680FA2300D7040100010058
:10039400B72600400946B5B573270080218B09CBE9
:1003A4007327008023ACE18498435D9B731007801E
:1003B4000100010037170040930670052300D7049D
:1003C400930680FA2300D70401000100B7260040F9
:1003D400130620053DB573270080218B09CB7327B5
:1003E400008023ACE18498435D9B73100780010077
:1003F400010037170040930670052300D7049306C5
:1004040080FA2300D704010001008356870093E695
:10041400060C2314D700C5BB411181460146814512
:10042400114506C6152CF3270080A18B9386818580
:1004340089CBF327008023ACF1849C42DD9B73902D
:10044400078001000100B7170040130770052380DF
:10045400E704130780FA2380E7040100010003C7BF
:100464006704136717002383E704238007047327B3
:1004740000809C42A18BD98F7390078023AC0184A8
:1004840001000100B240410182808146014681455C
:100494001145D922F3270080A18B1387818589CB4D
:1004A400F327008023ACF1841C43DD9B7390078009
:1004B40001000100B7170040930670052380D7049C
:1004C400930680FA2380D70401000100FD56239689
:1004D400D70223800704F32600801C43A18BD58F09
:1004E4007390078023AC018401000100F32700808E
:1004F400A18B89CBF327008023ACF1841C43DD9BC3
:100504007390078001000100B7170040930670053F
:100514002380D704930680FA2380D70401000100C6
:1005240083C6670493E616002383D7042380070455
:10053400F32600801C43A18BD58F7390078023ACD6
:1005440001840100010001A0BD473305F50201004B
:100554007D1575FD8280411122C426C206C6AA8477
:10056400014463179400B2402244924441018280C2
:1005740005041305803E4204C13F4180DDB7B7172F
:100584000040130700032388E702854723A6F18868
:1005940073002030411106C6A92DFDBF230304803A
:1005A40015472303E48001002302A480828083078B
:1005B4006480E3CE07FE2303048082808307648083
:1005C400E3CE07FE03454480828083076480E3CE44
:1005D40007FE2302A4808280411126C44AC24EC071
:1005E40006C61377F50BAD47AA892E899544630691
:1005F400F70019456537653F8D444E854537FD59EC
:10060400FD1463983401B240A24412498249410165
:100614008280135509011375F50F453F2209CDB7A3
:10062400011126CC06CEB704080051371545BD3755
:10063400713769372AC6A53F32459377150089EB90
:10064400136515001375F50FF240E24405618280CD
:10065400FD14E9FC0145CDBF397126DC4ADA4ED8D8
:1006640052D656D45AD25ED006DE62CE66CCB7E7F6
:1006740000E07D5783AA070022C603AA470023A0EF
:10068400E71823A2E718B717004013077005238063
:10069400E704130780FA2380E70483C74704930B16
:1006A40075FFB684E20793FBFB0F8546AA892E8B60
:1006B400328937240040E187015763FA76016308E1
:1006C400D5008946130700026313D5000157D98F5B
:1006D40093F7F70FB71C00402382FC041147230350
:1006E400E4801305F00F5D3D094CD135636D7C1139
:1006F400B7050700DA9537870700795563F2E504F3
:10070400B3879500636EF702370B0800A94733EBF4
:1007140065016399F90689E48144513D26850DA05C
:10072400DA850945553D05090345F9FFFD14050B17
:10073400693D81C49377FB0FFDF7DD3569FD7D5578
:10074400B7170040130770052380E704130780FAE6
:100754002380E70403C74704418B2382E704F25054
:10076400B7E700E023A0571123A24711E254324413
:100774005259C259325AA25A125B825B724CE24CF1
:1007840021618280A5476395F90685691309F00FF5
:10079400B3069900B3742B01B6941349F9FFB374EB
:1007A4009900856B33796901416B9387F9FFB3F73E
:1007B400270199E363FC340193D94900C147E3E677
:1007C40037FF99BF0569C1697D19D9B71305800D34
:1007D4006388690113050002638479011305100815
:1007E400CA85DD3B353D21DD4E99B3843441D9B70B
:1007F400DA852D45D533CA94E30099F205097D3B8A
:10080400A30FA9FED5BF9387F9FF93F7F70F636191
:10081400FC0C83C71C0413073008631FF704370755
:100824000800636BEB04B3079B00B706100063F585
:10083400D704334BEB0089476393F9068980D54984
:10084400E38C04ECDA850945413B11090327C9FF10
:1008540091472320E48003076480E34E07FE2303CB
:100864003481FD17EDFBFD14110B81C49377FB0F4D
:10087400E9FF7D3371F5E1B5B717004003C75704AD
:10088400B70708001377070219E3B78707007955FC
:10089400E378FBEA33079B00E3FFE7F855B58547A8
:1008A400E382F9F2DA852D45053B9389F4FFE3856C
:1008B40004E6293393F7390091EB83260480032758
:1008C400090093074900E39AE6E43E89CE84F1BF28
:1008D400B5476396F9001305900BC93135BDB1478F
:1008E4001305B00AE38BF9FE99476391F904B70540
:1008F4000800B365BB002D45C53181448D4BA1492A
:10090400753963967401832704802320F9008504D4
:10091400E39834FF8327048013172B0163550700E2
:100924002312F900D5BB2322F900FDB39D47639937
:10093400F90281451305B0044531BD442320090063
:1009440023220900FD599D3993F77400CA9703C700
:100954000700FD14398D2380A700E39634FF6DBB97
:10096400A1476392F9046D398144630D0B008D47EF
:100974009304C0036308FB009304000563048B0124
:10098400930440041375C507E30895D81945393114
:1009940039390545213126850D3909453D3149311E
:1009A400E31C05D669BB91476399F90013056006FA
:1009B400F536F53E130590090DB7E38F09D4F154CC
:1009C400A9BB19CD91CD09CE81473387F500834664
:1009D40007003307F50085072300D700E317F6FE69
:1009E400828019C991C909CA910583A7C5FF110558
:1009F4007D16232EF5FEC5BF828001C919C62A962D
:100A04000505A30FB5FEE31DA6FE828081473307CB
:100A1400F5000307070019E33E8582808507C5BFFB
:100A240001112E8626CAAA84131506019305F00423
:100A3400418122CC06CE32C6EF00F04F2A8401C594
:100A44003246A685BD3F2285F2406244D244056108
:100A54008280854715C18DC105C28147B306F50063
:100A64003387F50083C60600034707006398E60052
:100A74008507E315F6FE85473E8582808147EDBFF5
:100A84009307F6FFBE952A966313C5008280FD1571
:100A940083C715000505A30FF5FEFDB7AA87014519
:100AA40081CF09CE3E96850703C7F7FF6317B700CA
:100AB400E39BC7FE0545828082800145828079716F
:100AC4009387C18C22D4804306D626D24AD04ECEF8
:100AD40052CC56CA5AC85EC65DCCB7C4C901014BD4
:100AE4009389418C9384F437173A0000130A4A30EF
:100AF400973A0000938A8A3317390000130949375B
:100B04008357240085E35C44631B0B0023A6F18C0C
:100B1400832BC4002285EF00704E5E84B9A823267F
:100B2400FB00FDB783A7090082971C443307F540F7
:100B34006376F500032749001D8F2A9763E0E408D4
:100B44009737000023AC072E835524000345040087
:100B5400973000E0E78040715C405844A1CB0C44DE
:100B640003264900AE97BE8663E4B70063E4C7007A
:100B7400B386C74014C4228B3A8459F097370000D7
:100B84009387C72A9C4B09476370F706F9171737F1
:100B940000002325F72AB250225492540259F249F4
:100BA400624AD24A424BB24B4561828063150B00C4
:100BB40023A6E18CB1BF2326EB0099BF03274A0289
:100BC40009CF63EFA7003385A74083A70A016376A3
:100BD400F5009737000023A3A726228B404471BF5A
:100BE40003274900BA97C5B79737000023A80724FD
:100BF4005DB7411122C4173400001304A4251C401E
:100C040006C626C24AC091C782979737000023A31D
:100C140007249737000083C7B73D858B97340000BE
:100C24009384C43C95C397370000A383073C83C7D0
:100C340074001547637AF700052B83C77400F51712
:100C44008A07A2979C4382971C4491C38297138975
:100C5400818B03270900173600000346361D97379A
:100C6400000083C7A71C93961700BA9683D6060084
:100C7400C5CE9737000083C7671B63E1C70C97375E
:100C840000002385071A1C4063950712973700005C
:100C940083C7573691CF83C7740093F7F70F89EB57
:100CA40097370000A3880734974001E0E780A087C6
:100CB4009387418C9C43638E070E9737000093877C
:100CC400271BDC4317370000232AF716CD3B973741
:100CD40000009387E711DC53E9CF173700001307AF
:100CE400E714184B9737000083C7D7116363F70CD9
:100CF40083C774001547636EF70A9737000083C7EC
:100D04006733918BDDE7032609009736000083C61D
:100D1400F61163C6D70A2244B24092440249410103
:100D2400174300E06700E39B850793F7F70F9736B7
:100D34000000238DF60EE3E4C7F225BF86073E9735
:100D440083550700231007002390018C9387018D9E
:100D54009C43173500000345650D13172500BA970A
:100D64009C43829783D7018C173700000347070CF5
:100D740093C7F7FF7D8D93171700032709003E974C
:100D8400835707005D8D2310A7009737000083C7A2
:100D9400E70991C78507173700002309F7081737B4
:100DA40000000347A7089737000083C73708E37894
:100DB400F7ECB240224492440249410182801397E5
:100DC40017003297035707006DF7850799B7AD678A
:100DD40037C70040BD072326F7200F1000009737C0
:100DE40000009387A704C84F83278726BD66BD06E6
:100DF40093C7F7FF99836A052326D7205D8D8280E8
:100E04004111B7170040985F3AC6945F3247E39C9C
:100E1400E6FE3245410182801305F00F8280011104
:100E2400973700009387872822CC03A4070C26CA8F
:100E340006CE2AC42EC6854419E40145F240624414
:100E4400D244056182808347910003471400858B57
:100E54006304F7000044CDB719469305A1001305B8
:100E64002400C53EE31895FE0545C9BF1387C19804
:100E74001C439306001094C301000100010001000B
:100E84001C4323A007008346150003482500A2063F
:100E94004208C29603480500C2960348350062081A
:100EA400C29694D78346550003486500A2064208BB
:100EB400C29603484500C296034875006208C2966C
:100EC400D4D7834695000348A500A2064208C296DB
:100ED40003488500C2960348B5006208C29694DBB5
:100EE4008346D5000348E500A2064208C29603489B
:100EF400C5000345F500C2966205AA96D4DB83C6F5
:100F0400150003C52500A2064205AA9603C50500DF
:100F1400AA9603C535006205AA9694CF83C65500E8
:100F240003C56500A2064205AA9603C54500AA9614
:100F340003C575006205AA96D4CF83C6950003C580
:100F4400A500A2064205AA9603C58500AA9603C574
:100F5400B5006205AA9694D383C6D50003C5E500FF
:100F6400A2064205AA9603C5C50083C5F500AA9644
:100F7400E205AE96D4D3D443F59AD4C3D44393E6CE
:100F84001600D4C3944393E6160094C3BA879443DB
:100F9400D842058B59E3984E01452300E600984357
:100FA400184F2183A300E6009843184F418323017F
:100FB400E6009843184F6183A301E6009C43D84F91
:100FC4002302E600D84F2183A302E600D84F4183D1
:100FD4002303E600D84F6183A303E6009853230458
:100FE400E60098532183A304E60098534183230524
:100FF400E60098536183A305E600D8532306E60070
:10100400D8532183A306E600D85341832307E6007F
:10101400DC53E183A307F600828001008DBF1387B0
:1010240001991443411122C49C5E4AC006C69983A7
:1010340026C2858B3A841389C198D1C79C5E9734A4
:1010440000009384A4FA93F7F7F99CDE17370000A5
:10105400034727FA93070008631BF7008327090057
:101064009C4393F70704173700002304F7F883C75A
:10107400040093F707048DC39387418C9C438297A4
:101084009737000023ACA7F683C7040093F7F70B48
:1010940017370000230CF7F483C7440093F70704C1
:1010A4009DE3854717370000A304F7F49387C1999C
:1010B4009C43096798C7130700FC973600002389EF
:1010C400E6F2D844F8D31C40985F1183058B09CB12
:1010D400985F3D9B98DF054797360000238AE6F02A
:1010E400985F1D83058B11CB985F1377F7F798DF13
:1010F400854717370000230DF7EE83270900D843EF
:101104000583058B19C7D843759BD8C3D843799BEE
:10111400D8C3B240224492440249410182803971C9
:1011240006DE16DC1ADA1ED82AD62ED432D236D0EF
:101134003ACE3ECC42CA46C872C676C47AC27EC093
:10114400F93DF250E2525253C2533255A25512564F
:1011540082567247E2475248C248324EA24E124F5C
:10116400824F2161730020309387C199944397374C
:1011740000009387A7E703C70700058B11CB9737B8
:101184000000238707E697370000A38307E68280E1
:1011940003C71700058B65F7F85271FF83C7570023
:1011A400DDB713880199032708001C5F9583858B9D
:1011B400D1E709C61C5BBD832300F60085CA8327DB
:1011C4000800985B4607935767016356070093E747
:1011D40007C0C207C18303970600C207C18709C7B6
:1011E400BA970947B3C7E7022390F60085CD834732
:1011F40015008DCB9736000083C6A6DF93F6060450
:101204001387970089478DCA3A9503470500854699
:1012140099471376F7066311D60262076187B947C7
:10122400634C0700832708009C5FED838D8B173781
:101234000000A302F7DC81473E8582808547EDBF2D
:10124400411122C406C61384C19918402DE9AE8702
:101254007453FDFE3E85B28597370000238907D875
:10126400973001E0E7806001938701999C43B706BA
:1012740080009843558F98C3D857719BD8D7973718
:101284000000A38707D697370000A38107D61C4028
:10129400094798C3144017370000130727D583471D
:1012A4002700858B89EB83473700858BD9C3973714
:1012B4000000238F07D2B2402244410182808D472F
:1012C400631EF500938701999C43B70680009843F9
:1012D400558F98C3D857719BD8D76DBF8547E31BEB
:1012E400F5FA5447F977FD17F58F5CC70F10000026
:1012F4001C40096798C7130700F817360000230934
:10130400E6CE138701991043184231830D8B11E700
:1013140013076019F8D3D4C7B5BF184209463183FF
:101324000D8B6315C7001307E043EDB71307E01BEC
:10133400D5B7FC52ADF741B75D71A2C4A6C22A84E9
:10134400130680022800AE849305100886C6CAC01E
:101354004EDE52DCEFF06FEA3545973001E0E7806E
:10136400202E13830199832703009376F41F138E91
:10137400419A23A40700984B938EC199370FFCFF21
:101384001367F70398CBF84F130510F8B70204005E
:10139400137707E0558FF8CF9843F576FD16758FD0
:1013A40098C39843B7063300930380251377F7E770
:1013B40098C3984311497D1F1377F7E71367071004
:1013C40098C303270E008549930F80021C47D58FCD
:1013D4001CC783A70E001307900D3400B8CB014738
:1013E40093553700A69583C7050013767700B3D7C6
:1013F400C740858BE1C38327030083280E00239C09
:1014040007042390070603A8C8021378D8FF23A66D
:10141400080383A807001378F70793F808F833E85C
:10142400080123A0070103A847023368580023A238
:10143400070383A80E00014823A2780603DA0706EF
:101444006307480303A80703038A06001358F80038
:1014540062081358884163580A0103A80703135804
:10146400F8002380060103D807061378F80F03AAAF
:10147400480663060A0003DA8705E37F49FB03A8ED
:1014840047023378E80123A2070383870600635CDD
:10149400F40003C805003396C9001346F6FF3376FB
:1014A40006012380C5003E8663D3A7002A86131550
:1014B4008601618505071377F70F8506E312F7F3B5
:1014C400B640264496440649F259625A61618280C4
:1014D4009386C1999C42D847131617016355060297
:1014E400984713161701635006027D57B8D717376C
:1014F40000001307A793584F05071736000023254C
:10150400E694116798C798470D83058B1DC3173759
:1015140000000347C7AD1367170017360000230800
:10152400E6AC130700F8173600002303E6AC2147A6
:1015340098C79847058B09CF17370000034717ABA7
:101544001367170017360000A302E6AA054798C7D9
:1015540098470983058B09E798470583058B21CFB5
:10156400984717360000130666A813850199098366
:10157400058B630307101841184331830D8B75EBFA
:10158400AC4B184E93F5050203471700CDCD79EF08
:1015940013077006D8CF03470600136717001736E2
:1015A40000002305E6A4114798C718415C57F19B36
:1015B40093E717005CD79C4298479316370163D68C
:1015C40006029736000083C6E6B5C18A17370000C5
:1015D4001307C7ADC5CE03478707136707029736BE
:1015E40000002381E6B4056798C79847931627013E
:1015F40063D10602173700000347879F620761879C
:10160400635707000547973600002383E69E096762
:1016140098C798479316070163D6060297360000C9
:1016240083C656B0858A17370000130727A8ADCEA6
:10163400034797071367270097360000A384E6AE95
:10164400216798C7828029D785456315B70013079A
:10165400B00689B789456315B7001307F0061DBFA7
:101664008D456315B700130730072DB713075007CF
:1016740015B71307600739BF034736001367170010
:1016840017360000A305E696094739BF8346870746
:101694000946BD8A6388C600034787078D463D8B8C
:1016A400E313D7F4114725BF83469707918AC9DA14
:1016B400034797071367870041B7397106DE16DCC5
:1016C4001ADA1ED82AD62ED432D236D03ACE3ECC0E
:1016D40042CA46C872C676C47AC27EC0D53BF250AE
:1016E400E2525253C2533255A25512568256724791
:1016F400E2475248C248324EA24E124F824F2161F5
:10170400730020309387C19998438567938707773F
:101714007CD39387419A9C4383A60709139656006A
:101724006358060083A607091396660063440600FF
:101734007453FDF2828061C1AA870145DDCD8D0716
:10174400C207C183F19BC207C18313074003636BC4
:10175400F7021387C1A20843138741A21443639677
:10176400A602172700001307A768185B014551C795
:101774004111C20706C60545DD8D0297B2400145F9
:1017840041018280138781A2F9B70357650035E3CD
:1017940003574500636FF704B306F7402146637CA3
:1017A400D60203280500938687001D8FAA96611729
:1017B400172600000356E6672392E60023A00601DD
:1017C4002393060014C12312F500130786FF9726FE
:1017D40000002390E6662313B5009725000083D507
:1017E4004565B387F540172700002314F7642105E6
:1017F40082800841ADB701458280828009CD9387FC
:10180400C1A203A30700938741A283A807008146CE
:101814009A8763E31701828003A807006369F50AC6
:101824006367A80A13878700E367E5FE03D66700AA
:10183400216705076317E60003C74196050723825E
:10184400E196972500009385655E03D6470003D78C
:101854006500239307003297420741831725000050
:101864002319E55C63886702138581A20841630339
:10187400F50203D5660019ED83D7460023A00601BF
:1018840021073E9621062392C60097270000239243
:10189400E75AB6879843E30017F9938681A29442E6
:1018A400E30BD7F683566700BDF683D6470003568D
:1018B40047001843A106B2962392D70098C383D752
:1018C4006500A107172700002315F7568280BE86FE
:1018D400C28781B70327851163020712411122C40D
:1018E40006C68347C5008345E5042A8493F7C70FDA
:1018F4002306F500834697000356C7001395860117
:10190400618563F2C508635B05060345870093F6AA
:10191400F607A304D700054693E627006314C50021
:1019240093E617002306D4005C4389075CC3A30A2B
:10193400B400032504112E864C430905EFF06F888B
:101944008327841103465401D44303D7C700B296B6
:10195400118FD4C32396E7008947A30DF4000347EE
:1019640064039727000083C7C7496378F704834754
:10197400C40093E707012306F40081A093E717004E
:101984002306F4006DB79376F60F635D05020345F5
:101994008700854513E627006314B50013E6170096
:1019A4002306C400A30AD400A30407008547A30D9B
:1019B400F400832784119C43DDF3B24022440145A3
:1019C4004101828093E717002306F400A30AD400A0
:1019D400A3040700032504114C430905EFE07FFE2F
:1019E4008327841103465401D44303D7C700B29616
:1019F400118FD4C32396E7008D4755BF05458280D8
:101A04009387C1A39C43411122C406C6858B2A84B3
:101A1400C5EF4165130525F597E001E0E78000E097
:101A240045C58347A5002315F50083270412BDE7A8
:101A34002320A4122322A41285472311F404232073
:101A440005008347640154412316F5000347D4007D
:101A54002304E5000547A304E50017270000130746
:101A6400E758184F1385170215811C437D1513750C
:101A7400F50F9CC25C43DCC21C479CC65C47DCC6B9
:101A84001C4B9CCA5C4BDCCA1C4F9CCE5C4FDCCE0E
:101A940019CD9386060213070702C1BF8327441298
:101AA40088C3835724042322A412850779B7972770
:101AB400000083D72760850717270000231CF75EE3
:101AC400B2402244410182808347C40023090400B8
:101AD400054593C747002306F400DDB78347850116
:101AE40093F7E70FC5EF83479501CDEB0346250137
:101AF4008346C50009CA83456503172700000347C9
:101B0400573063E7E50013F7060151CB014709C6D7
:101B1400C18A0357651C81C68356A51C369741C3E9
:101B24001307C7121725000003550535B335A7025F
:101B340037460F00411113060624814622C426C2EB
:101B440006C67D543305A702971002E0E780E0D46F
:101B54009727000083C7572BB384A700972700005B
:101B64009387C75403A787098327070963F387006B
:101B74003E84184375FB9387418C9C43829781472D
:101B84006364A400B307A440B2402244B3B79700EF
:101B940093C7170092443E854101828081473E8568
:101BA40082809387C19998437C53FDFF8280797129
:101BB40026D206D622D44AD04ECE52CC56CA5AC8C1
:101BC4005EC68347550303447513AA843E94137475
:101BD400F40F9307400263F687001304B4FD1374F3
:101BE400F40F03AA841383AAC413A38B841222863A
:101BF4005285D685971002E0E780A0C4058915E5D3
:101C040003CBD41201498149337B6403930B500203
:101C14004A865285D685971002E0E78080C20589FE
:101C240015C5639169031374F90F238B8412B250A1
:101C3400225492540259F249624AD24A424BB24B5C
:101C4400456182808509E20993D989410509E31137
:101C540079FDE1BF8327850903560504797193D67D
:101C64000701BD8EC206C182358E13577640935745
:101C74005640898B058B5D8F93573640918B5D8FD2
:101C840093571640A18B5D8F93171600C18B5D8F00
:101C94009317360093F707025D8F931756009355F9
:101CA400860093F707041E065D8F1376F60F518F97
:101CB40093D7554013D63540118A898BD18F13D6CB
:101CC4007540D18F13D61540218AD18F13961500F4
:101CD400418AD18F1396350013760602D18F13965D
:101CE4005500137606049E05D18F93F5F50FCD8F1D
:101CF400A20745465D8F3307C70222D42A8426D221
:101D040052CC56CA032A8413832AC4135AC806D64B
:101D140036974207418393577740135557400989B3
:101D2400858BC98F135537401189C98F13551740B7
:101D34002189C98F131517004189C98F13153700DD
:101D440013750502C98F1315570093558700137532
:101D540005041E07C98F1377F70FD98F13D53540A4
:101D640013D755401189098B498F13D57540498F75
:101D740013D515402189498F139515004189498F41
:101D84001395350013750502498F13955500137586
:101D940005049E05498F93F5F50F4D8F2207D98FC2
:101DA400B387C7024AD04ECE5EC662C4B697C20796
:101DB400C18313D7774013D557400989058B498FC1
:101DC40013D537401189498F13D517402189498F7D
:101DD400139517004189498F139537001375050230
:101DE400498F1395570093D58700137505049E07F3
:101DF400498F93F7F70FD98F13D5354013D7554033
:101E04001189098B498F13D57540498F13D5154016
:101E14002189498F139515004189498F1395350000
:101E240013750502498F13955500137505049E0516
:101E3400498F93F5F50F4D8F2207D98FB387C702CA
:101E4400130650025285D685B697BD8E939406012B
:101E5400C18033F6C402137BF60F971002E0E780CB
:101E6400409E05890DED8347D41201498149B3840D
:101E74009702130C5002C1804A865285D68597106A
:101E840002E0E780009C0589937BF90F11C5638606
:101E94003403850993F9F90F0509E31F89FD230B21
:101EA4006413B250225492540259F249624AD24AFB
:101EB400424BB24B224C456182805E8BCDB7797127
:101EC40022D406D683C735002E8423160100A30727
:101ED400F10083C74500100802C02307F10083C73F
:101EE40055008A8502C2A306F10002C402C802CAD0
:101EF40002CC02CEEFE09FF70347F10183470400D1
:101F040001456310F7020347E101834714000145CB
:101F14006319F7000345D101834724001D8D133550
:101F24001500B250225445618280011197270000A8
:101F34009387C71722CC03A4870C26CA4AC84EC667
:101F440006CEAA8413092500854915C083C7140049
:101F540003473400858B6304F700405CFDB71946E2
:101F6400930544004A85EFE0DFAEE31835FF228590
:101F7400F2406244D2444249B2490561828041112F
:101F8400972700009387871222C403A4870C26C2D4
:101F94004AC006C693042500054901E82285B240DB
:101FA40022449244024941018280A6851305A40279
:101FB4003937E30525FF405CCDB741119727000071
:101FC4009387C70E22C403A4870C26C24AC006C640
:101FD40093042500054901E82285B2402244924435
:101FE400024941018280A6851305A401C93DE30588
:081FF40025FF405CCDB70000A1
:101FFC00971100209381C1B6176100201301C1FF16
:10200C001305400097E5FF1F938505FF1706002079
:10201C00130606FE63FAC5008322050023A05500B3
:10202C0011059105E3EAC5FE173502001305C586B7
:10203C00970500209385C5FB1386818563FAC5003F
:10204C008322050023A0550011059105E3EAC5FE86
:10205C001385818597250020938545176377B500F7
:10206C00232005001105E36DB5FEFD42739002BC03
:10207C008D4273904280930280087390023097E2F5
:10208C00FF1F938262F793E23200739052309722D3
:10209C000000938222DA73901234730020303D4397
:1020AC002A876373C3029377F700BDEFADE5937690
:1020BC0006FF3D8ABA960CC34CC30CC74CC74107EC
:1020CC00E36BD7FE11E28280B306C3408A06970207
:1020DC00000096966780A6002307B700A306B700FA
:1020EC002306B700A305B7002305B700A304B70068
:1020FC002304B700A303B7002303B700A302B70060
:10210C002302B700A301B7002301B700A300B70057
:10211C002300B700828093F5F50F93968500D58D3B
:10212C0093960501D58D61B7939627009702000011
:10213C0096968682E78086FA9680C1171D8F3E960A
:10214C00E374C3F8A5B7B717004003C77705137737
:10215C00E70FA38BE704130700F8A38DE7043D47B3
:10216C00238CE70413075003A38CE7048280B71772
:10217C00004083C7E7020D8993F7C70FC98F7327F8
:10218C000080218B9386818509CB7327008023AC3B
:10219C00E18498425D9B73100780010001003717A2
:1021AC000040130670052300C704130680FA2300B1
:1021BC00C704010001002307F7022300070473275B
:1021CC0000809C42A18BD98F7390078023AC018433
:1021DC0001000100828041112A83014E930E407E42
:1021EC00130F0019930F400663E66E149308001941
:1021FC0013034006B3781503854E0D4FA14F33736F
:10220C0065020D891335150063E0BE161308F6FF41
:10221C00794672984208135808013307C70213D63F
:10222C001700BE0732976146B3F6C60213068070DC
:10223C00B386C6023697A166F58F42075D8FB71637
:10224C00004083C7F60293F70708A307F100034683
:10225C00F10083C7F60293F70708E394C7FE8347A0
:10226C00F100B716004093F7F70F63890714F327B3
:10227C000080A18B9386818563980714010001006F
:10228C00B7170040130670052380C704130680FAA5
:10229C002380C7040100010023AA070303C6170308
:1022AC0013660608A388C7022380070473260080E0
:1022BC009C42A18BD18F7390078023AC01840100C9
:1022CC0001001166B71500407D16DC59C85DA98F59
:1022DC00F18FE5FFF3270080A18B89CBF3270080DA
:1022EC0023ACF1849C42DD9B7390078001000100BC
:1022FC00B7170040130670052380C704130680FA35
:10230C002380C70401000100D8DB03C71703136740
:10231C000704A388E70223800704732700809C42EC
:10232C00A18BD98F7390078023AC0184010001002D
:10233C00410182807D133368E3039308E016630E3A
:10234C0008003368F3039308D016630808009378E9
:10235C00330093B818009388D81633081E01131E47
:10236C000801135E0E0149B56393E50305486386C6
:10237C0008000148630303002A8871087298FD1550
:10238C00131E0801C205135E0E01C181B5BD13F801
:10239C00150063F4BF007908D5B713381800E5BFF2
:1023AC0083C7F60293F70708A307F1000346F10071
:1023BC0083C7F60293F70708E394C7FE8347F1003F
:1023CC0093F7F70FF1DF65B5F327008023ACF184A9
:1023DC009C42DD9B7390078055B54111B7170040A7
:1023EC00985F3AC6945F3247E39CE6FE3245410162
:1023FC0082805971E2C486D6A2D4A6D2CAD0CECEDF
:10240C00D2CCD6CADAC8DEC6E6C2EAC06EDE2A8CE8
:10241C0002D6EF00B020F3270080A18B138D8185AD
:10242C0091CBF327008023ACF18483270D00DD9B37
:10243C007390078001000100B71700401307700567
:10244C002380E704130780FA2380E70401000100CE
:10245C0003C7F7021377770FA387E70203C7F702C7
:10246C0013678700A387E702238007047327008084
:10247C0083270D00A18BD98F7390078023AC018427
:10248C0001000100F3270080A18B91CBF327008082
:10249C0023ACF18483270D00DD9B73900780010032
:1024AC000100B7170040130770052380E7041307DA
:1024BC0080FA2380E7040100010003C7E7021377C9
:1024CC00C70F2387E70203C7E702136717002387A9
:1024DC00E702238007047327008083270D00A18B5C
:1024EC00D98F7390078023AC01840100010013077E
:1024FC0080C13347E5029169938709E813065002BE
:10250C003D69B7440F0093840424856B130BA0041E
:10251C00014A814A13047005FD19B347F5023307CC
:10252C00C7023EC2930709A61309803E3347F70240
:10253C003AC43347250305493319890113593940E6
:10254C003345950293840BFAB3948401811B3306B3
:10255C00C702B346F6023309E90236C6330B6703EA
:10256C0013076055B3049502130500103309E902F3
:10257C00B346FB02130B80FAB3C4A40236C8B347AC
:10258C00F902939634003719004036CC93040904B1
:10259C003ECA73260080218A11CA7326008023ACA0
:1025AC00C18403260D005D9A7310068001000100A2
:1025BC00930770052380F40023806401010001005F
:1025CC00034639051376860FA309C904034639055A
:1025DC0013661600A309C904238004007325008028
:1025EC0003260D00218A498E7310068023AC0184CA
:1025FC0001000100916CE17D73260080218A11CAD3
:10260C007326008023ACC18403260D005D9A7310E1
:10261C00068001000100930770052380F4002380DD
:10262C006401010001000346390513660602A30983
:10263C00C90403560905336696012318C9040356C9
:10264C0009053366B601420641822318C90423806A
:10265C0004007325008003260D00218A498E731017
:10266C00068023AC01840100010003463905137672
:10267C0006026300061603463905218A6DDE6810D2
:10268C00EF00E07D73260080218A11CA732600803A
:10269C0023ACC18403260D005D9A731006800100E3
:1026AC0001002380840023806401010001000346A3
:1026BC0039051376F60DA309C904034639051366CB
:1026CC000602A309C90403560905336696012318AB
:1026DC00C904035609053366B60142064182231824
:1026EC00C904238004007325008003260D00218A71
:1026FC00498E7310068023AC01840100010003464F
:10270C003905137606026302061003463905218A41
:10271C006DFEE1312A8632CEC9317246E30DC5FE1B
:10272C00035609053255336696012318C904B1279F
:10273C0003463905218A6DDE035509050346290533
:10274C00924733F5A9003386C90232951D8DA247F5
:10275C0063D5A700B2476346F50E09466365560F6D
:10276C00C247850A1316150093FAFA0F3346F60280
:10277C00635EA038050609453346A6027325008022
:10278C00218911C97325008023ACA18403250D0078
:10279C005D99731005800100010023808400238063
:1027AC006401010001000355C9022A9642064182C8
:1027BC002316C902238004007325008003260D0014
:1027CC00218A498E7310068023AC0184010001001C
:1027DC0025B573260080218A11CA7326008023AC8C
:1027EC00C18403260D005D9A731006800100010060
:1027FC002380840023806401010001000346390515
:10280C0013660602A309C90499B573260080218AB0
:10281C0011CA7326008023ACC18403260D005D9A77
:10282C007310068001000100238084002380640162
:10283C00010001000346390513660602A309C90409
:10284C004DB5E38F0AF073260080218A11CA7326D6
:10285C00008023ACC18403260D005D9A73100680A2
:10286C000100010023808400238064010100010029
:10287C00034639051375FC0F1376860FA309C9049B
:10288C0003463905498EA309C90423800400732823
:10289C00008003260D00218A336606017310068022
:1028AC0023AC018401000100034639051D8A631124
:1028BC00862773260080218A11CA7326008023ACD8
:1028CC00C18403260D005D9A73100680010001007F
:1028DC002380840023806401010001000346390534
:1028EC0011651376F60DA309C90403463905136661
:1028FC000602A309C90403560905498E2318C90405
:10290C00035609052165498E2318C9042380040048
:10291C007325008003260D00218A498E73100680D2
:10292C0023AC01840100010003463905137606022D
:10293C006308062003463905218A6DDE68100523DD
:10294C0073260080218A11CA7326008023ACC184AF
:10295C0003260D005D9A7310068001000100238090
:10296C0084002380640101000100034639051165D0
:10297C001376F60DA309C90403463905136606023E
:10298C00A309C90403560905498E2318C904035623
:10299C0009052165498E2318C90423800400732579
:1029AC00008003260D00218A498E7310068023AC0B
:1029BC000184010001000346390513760602630DFC
:1029CC00061A03463905218A6DFE013CAA8C313466
:1029DC00E30F95FF035609051165498E32552318EF
:1029EC00C904612903463905218A6DDE73260080EE
:1029FC00218A1385818509CA7326008023ACC18482
:102A0C0010415D9A73100680010001002380840040
:102A1C002380640101000100034639051376F60D8D
:102A2C00A309C90423800400732800801041218A63
:102A3C00336606017310068023AC0184010001008B
:102A4C000358090503462905E24733F80901338683
:102A5C00C90232983308F8401306800C3306C802BA
:102A6C00D2473346F602635500150506094833462E
:102A7C0006036351C0140358C9029308F00F13588E
:102A8C005800329863D6081F094663734619F3271A
:102A9C000080A18B89CBF327008023ACF1841C41EF
:102AAC00DD9B7390078001000100371700409307EE
:102ABC0070052300F704930780FA2300F704010044
:102ACC0001008356C70289678117D58FC207C1835E
:102ADC002316F70223000704732700801C41A18BE7
:102AEC00D98F7390078023AC018401000100B6508C
:102AFC00265496540659F649664AD64A464BB64B66
:102B0C00264C964C064DF25D656182807D16A5B112
:102B1C0073260080218A11CA7326008023ACC184DD
:102B2C0003260D005D9A73100680010001002380BE
:102B3C00840023806401010001000346390599B328
:102B4C0073260080218A11CA7326008023ACC184AD
:102B5C0003260D005D9A731006800100010023808E
:102B6C0084002380640101000100034639051366CB
:102B7C000602A309C90459BB73260080218A11CA15
:102B8C007326008023ACC18403260D005D9A73105C
:102B9C000680010001002380840023806401010071
:102BAC0001000346390513660602A309C904F5B3EF
:102BBC007D166DBD55CE0358C902B308C0401358DD
:102BCC0058006357180B094663744605F3270080B9
:102BDC00A18B89CBF327008023ACF1841C41DD9BB6
:102BEC007390078001000100B717004013077005B0
:102BFC002380E704130780FA2380E7040100010017
:102C0C0003D7C7027D8B2396E70223800704E9B51F
:102C1C0073260080218A09CA7326008023ACC184E4
:102C2C0010415D9A7310068001000100238084001E
:102C3C0023806401010001000356C9021376F60FCC
:102C4C0033667601420641822316C90223800400B2
:102C5C00732800801041218A3366060173100680A8
:102C6C0023AC018401000100050A137AFA0F15B296
:102C7C00F3270080A18B89CBF327008023ACF18450
:102C8C001C41DD9B7390078001000100B7170040C9
:102C9C00130770052380E704130780FA2380E704E9
:102CAC000100010003D7C70216063A96420641827C
:102CBC002396C70299BF914763EEB702171702001C
:102CCC001307C72B8A05BA959C41BA978287B71709
:102CDC00004003A7470B1345F5FF698F23AAE70AAA
:102CEC0003A7070B698F23A8E70A03A7070A798DA7
:102CFC0023A0A70A8280B717004083A6470B13476F
:102D0C00F5FFF98E23AAD70A83A6070B558D23A8A6
:102D1C00A70A83A6070A758F23A0E70A8280B71734
:102D2C00004003A7470B498F23AAE70A03A7070B09
:102D3C001345F5FF45BFB717004083A6470B134754
:102D4C00F5FF758F23AAE70A03A7070A598D4DB71C
:102D5C00B717004003A7470B498FEDB7914763EEB8
:102D6C00B702171702001307A7228A05BA959C41D0
:102D7C00BA978287B717004003A7470D1345F5FF95
:102D8C00698F23AAE70C03A7070D698F23A8E70C0B
:102D9C0003A7070C798D23A0A70C8280B7170040DE
:102DAC0083A6470D1347F5FFF98E23AAD70C83A6EC
:102DBC00070D558D23A8A70C83A6070C758F23A090
:102DCC00E70C8280B717004003A7470D498F23AA51
:102DDC00E70C03A7070D1345F5FF45BFB7170040D8
:102DEC0083A6470D1347F5FF758F23AAE70C03A79E
:102DFC00070C598D4DB7B717004003A7470D498FE6
:102E0C00EDB7B717004003D7870109C5D98D239CAF
:102E1C00B700828093C5F5FFF98DD5BFB717004079
:102E2C0003D58700420541819377050491EB937795
:102E3C00F5013755E801130505803345F50282800D
:102E4C009377050C130700046397E7009377F5015C
:102E5C0037459C1CCDB72165130505D0828037E71B
:102E6C0000E01C435443A183E206D58F1CC1FD57DF
:102E7C002320F7182322F718828013178500B7E751
:102E8C0000E023A0E710618123A2A7108280B7F78E
:102E9C0000E08847CC478280814737370040A14605
:102EAC0063C4C700328582800345B740E38EA6FE1B
:102EBC003385F5000345050085072304A740CDB7EE
:102ECC0097F7FF1F9387C7499C43171700201307D9
:102EDC00E72F3E95636EE500175700201307C7F1E7
:102EEC006368A70017F7FF1F232CA7463E85828037
:102EFC00FD57EDBF411122C406C62A840537294768
:102F0C00B307E502B2408D83B3D7870222449507FD
:102F1C00B3D7E70237370040C207C1832316F74007
:102F2C0041018280716541111305052006C6D93710
:102F3C00B7370040130770F82381E7400D47A38192
:102F4C00E74013070004A380E74005472387E740C9
:102F5C00B24041018280CC41411106C6328503C684
:102F6C00150083C5050022064D8E42068D654186EF
:102F7C00138875A2630C060F6348C804138845A216
:102F8C006306060B634AC800938535A26309B6062F
:102F9C0023900600294679A0138855A26308060BD6
:102FAC00938565A2E316B6FEC1451D4663ECE506A6
:102FBC004546198E63F3C7003E862390C6009715CD
:102FCC000200938525FF89A8138895A26300060F3C
:102FDC00634E060B1388A5A2630A060F938505A5FD
:102FEC00E318B6FA99451D4663EEE502198E63F3B4
:102FFC00C7003E862390C6009385C18031A89D45AD
:10300C001D4663E1E5022146198E63F3C7003E8637
:10301C002390C6009385C185BA9597E0FF1FE78082
:10302C00C0990146B240328541018280AD451D46B2
:10303C00E3EAE5FE3146198E63F3C7003E86239022
:10304C00C600971502009385A5FAF9B7B1451D4640
:10305C00E3EAE5FC3546198E63F3C7003E86239000
:10306C00C600971502009385A5F97DB7C1451D468D
:10307C00E3EAE5FA4546198E63F3C7003E862390D2
:10308C00C60097150200938525F479B7C1451D46F6
:10309C00E3EAE5F84546198E63F3C7003E862390B4
:1030AC00C600971502009385A5F6BDB7C1451D4610
:1030BC00E3EAE5F64546198E63F3C7003E86239096
:1030CC00C60097150200938565F1B9B7B5451D4645
:1030DC00E3EAE5F43946198E63F3C7003E86239084
:1030EC00C600971502009385E5EB3DB797F6FF1FD9
:1030FC00938606034146CD4517F5FF1F130545EF93
:10310C006F80E05305E1B28741112E861385C1858E
:10311C00BE8506C697E0FF1FE780208AB2400145B6
:10312C004101828009458280C841411122C406C6F2
:10313C0083471500034505002D44A207C98F0DEFE9
:10314C00C2070D67C187130547A5638CA702130738
:10315C00D7A52944639BE70085472390F600DC45FF
:10316C0083C707002300F6000144938781879C43A3
:10317C0081C78145194582972285B240224441017D
:10318C00828089472390F6009387218783D7070095
:10319C002300F60083D72187A183A300F600E9B7AB
:1031AC0083A8450079714AD006D622D426D24ECEB9
:1031BC0052CC83C7180083C808002D49A207B3E777
:1031CC001701631E070EC2078D68C18713832890F1
:1031DC00B284638F671C938858A529496391170F94
:1031EC003684854783C6D187130900086389F60C9A
:1031FC0093162500938781A5B69783C72700AA89C4
:10320C0013091008898BC5CF138981868327490040
:10321C0003DAA5001374F40FD1C78547A38EF1868A
:10322C00239441878D472395F18683274900414795
:10323C002380E7000327490083C70400A300F7009D
:10324C000947638DE70E6360F70205476382E70861
:10325C00094483274900854503C5C187238187001D
:10326C00EF00907F91A88D46638FD70E1147E391A5
:10327C00E7FE8547631CF41083D72187C18B6387D6
:10328C000710835729000325490003C68188B2978C
:10329C00938501880D052395F18697D0FF1FE78054
:1032AC00C07145BF81462D46F54503D54186EF607B
:1032BC00403023A6A18635F1239231870149B250C3
:1032CC0022544A8592540259F249624A45618280DD
:1032DC001547636D870A83D72187898BC5CB631903
:1032EC00E40283C7240003C73400A2074207BA973D
:1032FC0003C71400BA9703C744006207BA973EC6C7
:10330C00938781879C43B1CF6C000545829791A828
:10331C0002C68146014781477D1463C58700EDD203
:10332C003AC6F9BFB386F40083C61600139637006D
:10333C008507B396C60036978546C5B7854763178C
:10334C00F40483D72187A18B0D44E38407F0938782
:10335C0081879C4399C78145094582971144E31A9B
:10336C0005EE0544FDB56313E40283D72187C18BB9
:10337C000D44E38007EE03C7140003C68188814720
:10338C009385018893F6F70F63E4C6000D44D1B51D
:10339C008507B386F50083C6F6FFE395E6FEA38AA0
:1033AC00E186938781879C43CDDF81450D45B9BF6D
:1033BC0083D7A50017F8FF1F0358E8E1631FF80037
:1033CC008947EF60E069938781879C432A89E3886A
:1033DC0007EE81451D458297DDB517F8FF1F035891
:1033EC0088D8E31DF8EC8547EF6080672A89E318DD
:1033FC0005EC938781879C43E38207EC03C514009B
:10340C0003C7040081452205598D1335150011059C
:10341C00D9B7411126C2C16422C4938581A62A84DE
:10342C001385F4FF06C6EF80602C938581A5138568
:10343C00F4FF0588EF80802B0DC02244B2409244EB
:10344C0097F6FF1F938686D94146AD4517F5FF1FAA
:10345C001305C5CD41016F80801EB24022449244B9
:10346C0001454101828023ACA18682809147630B88
:10347C00F5009D476303F5028D47630BF500894703
:10348C003E85828083470600A38AF1868147CDBFA3
:10349C00835706002399F186D5BF83C6818881475F
:1034AC00E360D5FE13871600034606002384E188EB
:1034BC001387018836972300C700D9B7914763005B
:1034CC00F50295476302F5020D4789476317E5003E
:1034DC0083D721872390F50081473E85828083C75F
:1034EC0051872380F500CDBF83C70187DDBF411114
:1034FC0022C42E84938581A626C206C6AA84EF60B8
:10350C00E050058915C197F7FF1F938727C283D712
:10351C00A702A285B2402310F400224426859244CF
:10352C00014641016F70402BB24022449244494500
:10353C0041018280C167F9176301F504411122C46E
:10354C0006C685472A84639FF5002285938581A64C
:10355C00EF80C01922852244B240938581A5410198
:10356C006F80C01889476396F5008545EFA0C04C65
:10357C0069DDB240224441018280828011456FE0B6
:10358C005FE7411193962500AA852D4506C697D075
:10359C00FF1FE780E00BB2400145410182804111E1
:1035AC0026C29394250022C44AC02A843289A68656
:1035BC00AA850146254506C697D0FF1FE78040091E
:1035CC00A6864A86A285294597D0FF1FE78040082A
:1035DC00B2402244924402490145410182800111CA
:1035EC0022CC06CE3714004026CA4AC84EC652C456
:1035FC0083447405034AB40583498405034994053F
:10360C00EFE07FB48347A40593F4F40F137AFA0F19
:10361C0093E71700230DF40493F9F90F1379F90FBD
:10362C00B717004003C7A705058B6DFF03D5C7056A
:10363C00A38D4705238C3705A38C2705A38B9704F3
:10364C00F2406244D2444249B249224A0561828026
:10365C0041119397050122C406C6C1872E8463DDF0
:10366C000700EF00700E19C1EF00F0062165218DE7
:10367C00B24022444101828093F7150013C5150016
:10368C00E5FB9397250163D00702EF100128FD3568
:10369C0037F60200130606E0896503C59188EF0032
:1036AC0070520965E9B7939715010145E3D207FC00
:1036BC00171502001305859BEFF0A1731306006428
:1036CC00916503C59188EF00F04F11654DB71D71E1
:1036DC004946971502009385E594171502001305CA
:1036EC0025BF86CE97D0FF1FE780203601E917153E
:1036FC00020013056594EFF0C16F01A0B7F600E06E
:10370C00795798CAFD57DCCA0567B7E700E023A0D4
:10371C00E7101306F00290C223A0E7180100010085
:10372C001306C0038145480897D0FF1FE780602C23
:10373C0097F7FF1F938707EB3ECA8967938707802C
:10374C00231CF100B5472304F102A167938707E01E
:10375C003ECEB7070105938707103ED0ED472312E5
:10376C00F10285472303F102970700009387A7E135
:10377C00BEC4970700009387C7E2BEC685679387D0
:10378C0017D82315F10297F7FFFF938787703EDA5E
:10379C00B7F50700970700009387A7E43EDE814644
:1037AC00970700009387C7DD7000E1051945BEC07F
:1037BC0097D0FF1FE780C0E95808814799467000F1
:1037CC003E960346060085070507A30CC700E39841
:1037DC00D7FED24791C70357810185676373F70002
:1037EC0001A04808EF108012AA8501C91715020024
:1037FC001305C585EFF0414E01A0F640256182808E
:10380C004111170500001305E5E406C622C4EF10AC
:10381C00600C138491882300A4002928034504001C
:10382C002244B24037F60200130606E089654101D6
:10383C006F005039411106C6F3270080A18B138706
:10384C00818589CBF327008023ACF1841C43DD9B5D
:10385C007390078001000100B717004093067005B4
:10386C002380D704930680FA2380D704010001003B
:10387C0083C6F70293F6A60FA387D702238007040B
:10388C00F32600801C43A18BD58F7390078023AC4B
:10389C00018401000100F3270080A18B89CBF32761
:1038AC00008023ACF1841C43DD9B739007800100E6
:1038BC000100B7170040930670052380D7049306C8
:1038CC0080FA2380D7040100010083C6F70293E637
:1038DC002600A387D70223800704F32600801C430D
:1038EC00A18BD58F7390078023AC0184010001005C
:1038FC000545EFE0DF8759311305407E81470147CD
:10390C00814605468545EFE01F8DB24001454101DA
:10391C006F10203441117D1506C622C41375F50FA6
:10392C00994763ECA70217070200130767740A058F
:10393C003A951C412E84BA978287A14503C5D18A3A
:10394C00EF0070491C4023A8F18A1966130606DCA7
:10395C00A14503C5D18AEF00F026014421A803C775
:10396C00F18997170200938767EFBA9703C4070092
:10397C00333480002285B240224441018280A1452B
:10398C0003C5D18AEF0030459385018A11453D3638
:10399C006DBFA14503C5D18AEF00F04393874189E0
:1039AC00984391470144E317F7FC1306007D8945C2
:1039BC0003C5D18AEF00102175BF894503C5D18A93
:1039CC00EF00704159B7A145D5BF011122CC06CEED
:1039DC0011472A846319E50203C725009547631E26
:1039EC00F70083D7A500056613068638914503C5F5
:1039FC00D18A2399F188EF00F01C23AA8188F24028
:103A0C00624405618280938741899C43639DE704EE
:103A1C008547894503C5D18AA303F100230401001E
:103A2C00EF00703B854503D5218929362C00130501
:103A3C005041EF403173930500030D45EF20904545
:103A4C00930500031145EF20F044896593850571BA
:103A5C000145EF20304413067100854513055030A5
:103A6C00EF60017459BF09476391E7088D47631EE6
:103A7C00F50603C7C18A8547631CF70030008545EE
:103A8C001305C03023040100EF6081712386018A85
:103A9C0083C7E18981C7238F018885B70D45EF2046
:103AAC00A06A930700036317F5028547930500038B
:103ABC000D452304F100EF20F03D93050003114563
:103ACC00EF20503D9565938505E20145EF20903C34
:103ADC00300061B78547930500640D452304F10060
:103AEC00EF20503B93050064D9BF8547E317F4F0F2
:103AFC002C0013054030EF60E15A8347D1003000B1
:103B0C00A145A307F1008347C1000145230601002D
:103B1C002307F1008347B100A3050100A306F100C0
:103B2C00EFF04FDED9BD41119397050122C406C6B3
:103B3C00C1872E8463DD070003C5D18A312111C1F1
:103B4C00592E2165218DB24022444101828093F788
:103B5C00150091CF17E6FF1F1306866A938581A780
:103B6C0003C5D18AEF60C13913451400E9BF93F73F
:103B7C002500638A071093874189984391476317FF
:103B8C00F70E014781462946ED4503D52189EF50B3
:103B9C00502223A4A18A6304050C03C7F18997174B
:103BAC0002009387A7CBBA9783C60700239E018890
:103BBC00238C0188239D018883D701891306300645
:103BCC0013F8B60F6371F6029305400633D6B702AD
:103BDC009388018B83A80800B3F7B702469623A8F5
:103BEC00C18A2398F18823000501A3000500230155
:103BFC000500A301050093F71600A5EF93074500F8
:103C0C00898A95C29386018B9442910713D68600BC
:103C1C00238ED7FEA38EC7FE13D60601E182238F17
:103C2C00C7FEA38FD7FE9386418AD442050713772C
:103C3C00F70F958F93F7F70F2393F18A9147630151
:103C4C00F704A38FE1889385418A03D52189EFF08E
:103C5C001F8A11C5ED451385418AEF50502D13066F
:103C6C00007D894503C5D18AEF00C075134524003A
:103C7C00D9BD2302050093076500A302050049B7CF
:103C8C00A38F0188C9B793F7450085CB83C7D18A29
:103C9C001307803E81461306000AD14503D52189BE
:103CAC00EF60611F1966130606DCA14503C5D18AB6
:103CBC00EF0040711345440079B593F78500014539
:103CCC00E38307E803D52189EF60E178134584008D
:103CDC009DBD011117050000130525E506CE22CC6C
:103CEC0026CAEF00303F9384D18A05442380A40078
:103CFC00700085451305503023068100EF60414A62
:103D0C0017E6FF1F13068650B14513057030EF60A0
:103D1C0021491386C1819D4513056030EF604148F0
:103D2C008D477000914513057040A304F100A30367
:103D3C0081002305810002C623040100A3050100B4
:103D4C00EF50E12613067100854513050040EF5036
:103D5C0001263000854513051040EF504125130610
:103D6C009100854513052040EF5061241306A100F6
:103D7C00854513055040EF5081231306B10085454E
:103D8C0013054041EF50A1227D55EF50E04A7D557F
:103D9C00EF70B0127D55EFF0CFE7EFF02FB517E6CF
:103DAC00FF1F13066644D5450145EF5080371705B4
:103DBC000000130565B6EFF00FEBFD472316F1007D
:103DCC008947A304F10091472305F1003000A14776
:103DDC0085451D45A305F100A30381002304810043
:103DEC00EFF0CFE81306910085451D45EFF00FE885
:103DFC001306A10085451D45EFF04FE71306B100F2
:103E0C0085451D45EFF08FE613067100854511457C
:103E1C00EFF0CFE5700089450D45EFF02FE503C5B8
:103E2C00040085451529F2406244D2440561828024
:103E3C0041111305800406C622C497C0FF1FE780FA
:103E4C00C02491457D55EFE01FE791457D55EFE08E
:103E5C00FFF0371400408327C40A93050002FD5776
:103E6C002326F40A0327C40C05452326F40CEFE0A3
:103E7C005FF9854513050010EFE05FEE8327840C96
:103E8C0091451305002093E707202324F40CEFE061
:103E9C00FFECEFF02F891705020013056543EFE0E7
:103EAC005175EFF0DF82EFF0BF95EF60015D1535D6
:103EBC0097C0FF1FE780806D23AC05FE1C4191E786
:103ECC00010001000CC18280BA8703A787FF6DFF38
:103EDC0023ACB7FE82801DC18346E5FF1307F00FAC
:103EEC009147639EE600411106C697E0FF1FE780ED
:103EFC006090B24081473E854101828095473E8566
:103F0C00828001E9014582800145B2402244410191
:103F1C00828095654111938505D022C4C98D2A8470
:103F2C002105C2054205C181418106C697D0FF1FFC
:103F3C00E780E07F71D9FD5723200500231285000F
:103F4C002303F5002105D1B71387418B1C43411185
:103F5C0022C426C24AC006C601440149BA8489E774
:103F6C00A165952D0DC401A803C7E7FF6318A7022F
:103F7C001DC8A165D5249840832784FF6317E402EC
:103F8C0023AAF18AFD57232C04FE230FF4FE22856D
:103F9C00B2402244924402494101828011E03E89A0
:103FAC0083A787FF6DBF3E84E5BF232CF9FED9BFE5
:103FBC00A1CD411122C406C62A849707002083C7CD
:103FCC0037E62E856375F400894763E8870021374F
:103FDC000D45B24022444101828083A785FF99E7B9
:103FEC0003C7E5FF9307F00F6305F700ED351545A3
:103FFC00CDB7238F85FE1385418B7D3D22852244D1
:10400C00B240A165410189AC1545828023AA018A81
:10401C0082809387C18C9C4399E33E85828003D731
:10402C0027006316B70003C70700E308A7FEDC47A9
:10403C00E5B7BDCD797122D406D626D24AD04ECE64
:10404C0001444147B3D78540858BB1CF1205314729
:10405C0022953305E5029387C18B03A9070085449C
:10406C00B3948400C204C180BE892A990327090035
:10407C0011C7032549002EC60297B24531473304B8
:10408C00E40283A709003E941C4489E7232009001D
:10409C0023220900B2502254A58D02599254F249A0
:1040AC002E85456182800504E31EE4F88144DDB76A
:1040BC002E85828041111397050122C406C626C2A3
:1040CC004AC041872E84635E0700BD3D11C1213576
:1040DC00A1673D8C2285B2402244924402494101A1
:1040EC008280EDD9AA8701474146B356E440858AC0
:1040FC009DCA9207BA97B146B387D7029386C18BF4
:10410C0003A906008544B394E400C204C1803E991F
:10411C0083270900032549008297232009002322C5
:10412C000900258C45BF0507E311C7FC8144D5BFA9
:10413C0097070020938707CB9C53411122C406C6D6
:10414C001384418299C782971C403E9523A2A18279
:10415C0029A09387418C9C43FDF70840B747030087
:10416C009387D73F3305F502B7A72600938737EC23
:10417C00B24022443E9523A2A1824101828079C99A
:10418C009387418C9C43797122D426D24AD04ECE4F
:10419C0052CC56CA5AC806D65EC63A8AB689328BF3
:1041AC00AE8A2A8982979387C18B9843BE84014437
:1041BC00B146C147B30BD40233067701104251E626
:1041CC00C165938505F0414597D0FF1FE7802056C8
:1041DC001DE5970700209387E7C09C5B2D4589C799
:1041EC001145814582972D45B25022549254025963
:1041FC00F249624AD24A424BB24B45618280938764
:10420C00C18C98431DEF23A6A18C230005009C4074
:10421C000547331787002326050023246501231146
:10422C00E50023224501DE9723A0270123A2570195
:10423C0023A447010145E38909FA238089006DB75E
:10424C003E875C47F5FF48C7C9B70504E314F4F68D
:10425C00214559BF094582809707002083C757BC69
:10426C00637FF5001387818B9317150008433E95E8
:10427C0083570500DD8D2310B500014582800D4567
:10428C0082809707002083C7B7B96371F502138743
:10429C00818B93171500084393C5F5FF3E95835703
:1042AC000500FD8D2310B500014582800D458280EF
:1042BC00130705FF1377F70FFD4763E5E70AB146D0
:1042CC00B306D5029387C18B984389473697184319
:1042DC0059CB011122CC4EC60544935945003D895A
:1042EC003315A40013140501418026CA4E85AE84F3
:1042FC00A2854AC806CE313B2A89814721CDA285A9
:10430C004E8541379387418C9C43829797070020B9
:10431C0083D7C7B5338797022A8481461306006476
:10432C00B3B7970213050732B335E500BE95EFE03E
:10433C00C155B3078500970600209386A6B23E8729
:10434C00D44263E4A70063E4D7003387D740232427
:10435C00E9008147F2406244D2444249B2493E8569
:10436C000561828089473E858280011126CA06CE6E
:10437C0022CC4AC84EC6BD47894463EDA7023147DB
:10438C003307E5029387C18B9C438944BA979C43BE
:10439C0095C305443314A400420441802E89014581
:1043AC00A2858539AA89814411C5A2850145D13DD3
:1043BC0023A42901F240624426854249D244B249E1
:1043CC00056182809707002083C797A56364F50079
:1043DC000145828001119387418C56C283AA070044
:1043EC0006CE22CC26CA4AC84EC652C4638D0A0ACF
:1043FC00170A0020130A0AA783244A00B74736FE7F
:10440C00938707C8AE899705002083D525A6BE944F
:10441C00B387C5022A8432898146B3B5C502138598
:10442C000732B337F50013060064BE95EFE0E145A3
:10443C0063EBA406829A9705002083D525A3B38746
:10444C002503AA84130600648146B3B5250313859E
:10445C000732B337F500BE95EFE02143B307950063
:10446C00BE8403274A0063E4A70063E4E700B38437
:10447C00E740CE852285713E01C504C505452DA0BA
:10448C00936504F0C205C181414597D0FF1FE780B9
:10449C00002A05E5970700209387C7949C5B81C78A
:1044AC00A285114582970145F2406244D2444249AB
:1044BC00B249224A924A056182809387C18C9C43FF
:1044CC008DE323A6A18C85472326050004C5231163
:1044DC00350123008500A300F5002322050079BFD8
:1044EC00BA87D84775FFC8C7F9BF49C9797122D4B3
:1044FC0026D24AD04ECE52CC56CA5EC662C466C2D2
:10450C0006D65AC83689328AAE89AA844144314CBF
:10451C00938AC18B854C930B0003330B840303A745
:10452C000A005A971C43B1E79375F400B395BC008D
:10453C0013554440C2055286C1811375F50F593588
:10454C000DC983A70A000145DA9784C323A237015A
:10455C006304090023008900B2502254925402597A
:10456C00F249624AD24A424BB24B224C924C4561C0
:10457C0082800504E31374FB2145F9BF0945828051
:10458C00411122C426C24AC006C62A842E89B2848E
:10459C00153DCA852285EFF0DFA705CD97050020D4
:1045AC0083D5C58CB38795022A8413060064814693
:1045BC00B3B5950213850732B337F500BE95EFE01E
:1045CC00C12C48C00145B2402244924402494101E9
:1045DC0082802145CDBF411122C426C24AC006C6E5
:1045EC002A892E84EFF0FFA2AA8419C12311050099
:1045FC00A2854A8579319707002083C76782639724
:10460C00270183D7018C5D8C2390818C014591E02F
:10461C001945B240224492440249410182809307D9
:10462C00F00263E6A7044111B14722C43304F5023A
:10463C0026C29384C18B9C4006C6A2979843894797
:10464C000DC39377F5008545B395F500C205C1817F
:10465C00118151379C40A29723A0070023A2070089
:10466C008147B240224492443E8541018280894771
:10467C003E858280411106C622C4EFF09F9911E558
:10468C000145B2402244410182809387418C9C4376
:10469C000045829797F7FF1F9387C77C6368A40236
:1046AC00D843B74636FE938606C83305A4403697E2
:1046BC00E378E5FC13070064B335E50203D6870005
:1046CC0081463305E502EFE0411C65BFD8433A94BF
:1046DC00C1BF411122C426C217F4FF1F13048478F2
:1046EC0097F4FF1F9384C473944858409387418C6C
:1046FC0006C69C43639FE60682975440B74736FE36
:10470C00938707C8B6973387A7003A856364F70089
:10471C006364D7003305D740970400209384448CFE
:10472C009C4C91CB9387419A94433707CDFF7D17CF
:10473C009C46F98F9CC611E1484097F7FF1F938761
:10474C00676ADC53829719E59C4C99CFEF00E12FF7
:10475C00EFF090199C4C89CB9387419A9843B706FC
:10476C0033001C47D58F1CC7B240224492444101F0
:10477C0082808297984897F7FF1F83C7F76754404A
:10478C001D8FB307A7003E8563E4E700E3E6D7F887
:10479C003385D74051B7411106C623A4A18C02958D
:1047AC00B24097F7FF1F23A9A768014541018280FA
:1047BC00994763E9B7008A0597F7FF1F9387C76886
:1047CC00BE9588C1828041117146814517F5FF1F46
:1047DC001305856706C623A6018C23A4018C23A28E
:1047EC00018C97C0FF1FE780C02013068002814513
:1047FC0017F5FF1F1305C56297C0FF1FE780601FE9
:10480C00EF50F15097F7FF1F83C7375F13D5270081
:10481C008D8B3E958D473305F5028545390513750E
:10482C00F50F97F7FF1F238EA75E99473305F50207
:10483C001305052497D0FF1FE78060EF23AEA18AF4
:10484C0059C5994717F6FF1F0346A65D3306F602B6
:10485C0081451306062497C0FF1FE78080199387B4
:10486C00C18B9C439387072423A8F18C17F7FF1F58
:10487C000347275B0A07BA9723ACF18AEFF00FF9CD
:10488C0005239387018D944397F7FF1F83C75759CF
:10489C0013972700369717F6FFFF1306C67910C338
:1048AC00138717001377F70F0A07369717060000C0
:1048BC001306868010C313873700890793F7F70F09
:1048CC008A0797F5FF1FA38DE554B69790C3B240A6
:1048DC004101828097F7FF1F83C7975417F7FF1F7B
:1048EC000347275463F1E7021387018D184393861E
:1048FC00170017F6FF1FA305D6529396270036977D
:10490C0008C33E8582809307F00FE5BF1C41638886
:10491C00071641777D8FB706002089476312D7169B
:10492C0003574500630E0714411122C419462A840B
:10493C009305F00F690506C697C0FF1FE780801529
:10494C0005478D476308E5121C4481CB585899479D
:10495C0063020712185C630F07101306C00381452E
:10496C0017F5FF1F1305054897C0FF1FE780600868
:10497C001306C003A28517F5FF1F1305A54697C0A4
:10498C00FF1FE780800317F7FF1F0357674697F752
:10499C00FF1F9387274519E71307001097F6FF1F92
:1049AC002398E64417F7FF1F0347A74411E7054771
:1049BC0097F6FF1F238FE64217F7FF1F0357874316
:1049CC0011E76D4797F6FF1F2396E64217F7FF1F77
:1049DC000347374211E7154797F6FF1FA38BE640B5
:1049EC0017F7FF1F0347274111E7054797F6FF1FEE
:1049FC002383E64017F7FF1F0347F73F19E703C769
:104A0C00F70097F6FF1FA388E63E17F7FF1F034733
:104A1C00A73E11E7354797F6FF1F238FE63C17F7A4
:104A2C00FF1F0347B73D19E71307800297F6FF1FD7
:104A3C00A386E63C17F7FF1F0347173C19E713073C
:104A4C00D00297F6FF1FA389E63A0347840119E7C2
:104A5C001307C00397F6FF1F2382E63A9C5791C7B2
:104A6C00829797F7FF1F2391A73CFD57A389F1A0CD
:104A7C00993B8147B24022443E854101828089475F
:104A8C003E85828001114EC697F9FF1F9389893D9F
:104A9C0083A7090006CE22CC26CA4AC852C48297E4
:104AAC0013090064B335250303DA89008146528665
:104ABC0033052503EFD0715D97F7FF1F93874736BA
:104ACC00804FAA8401456306940233858440636E4B
:104ADC00940003A5490052868146B335A9023305DB
:104AEC00A902EFD0915A018D269597F7FF1F23A5A8
:104AFC009734F2406244D2444249B249224A056199
:104B0C008280011122CC0A852E84414697F5010042
:104B1C009385C54506CEEFE0C110180806043A94FB
:104B2C00035504FF97F7FF1F83D76734F2406244A5
:104B3C00AA9737450F00130505243355F502056177
:104B4C00828097F7FF1F83D7873251471D45637CBF
:104B5C00F702794719456378F702130720031545C7
:104B6C006373F7021307B0041145637EF700130754
:104B7C0040060D456379F700130760090945637416
:104B8C00F70013B5B70F8280011122CC06CE2A8410
:104B9C002EC6EFF0EFD9B245F240818D33A5A502B8
:104BAC00229562441375F50F05618280011122CCA8
:104BBC0006CE2A842EC6EFF0AFD7B245F240818DD7
:104BCC0033A5A5022295624442054181056182808C
:104BDC00011122CC06CE2A842EC6EFF06FD5B24539
:104BEC00F240818D33B5A502229562440561828025
:104BFC0097F7FF1F9387071F985739CB411122C492
:104C0C0026C206C6BE84029717F7FF1F0357C7219B
:104C1C002A8415CBBA876373A700AA87C207C183FE
:104C2C00BA866373E400A286C206C182958F51478F
:104C3C00635BF700DC5491C38297EFF0104D97F74C
:104C4C00FF1F2393871EB24022449244410182806D
:104C5C00828097F7FF1F9387E718DC57011106CE68
:104C6C00AA8581C72AC68297B245D1C19C41054508
:104C7C00A5CFDC41B5CB83D78500BDC783D7A500B5
:104C8C00A5C783C7C500ADE3414617F5FF1F130544
:104C9C00651D97C0FF1FE78040D297F7FF1F9387D2
:104CAC00671C9C4323A2F18C97F7FF1F83C7171532
:104CBC008DE79307800217F5FF1F0355251B33055E
:104CCC00F50237460F001306062481468145EFD0C6
:104CDC00D13B97F7FF1FA383A712170500001305FD
:104CEC00A5DAEFF05FAB0145F2400561828097F7E2
:104CFC00FF1F83C7871013978701618763540704CD
:104D0C0097F7FF1F23AC071297C7FF1F9387A70BBB
:104D1C0017F7FF1F2328F7147D5797F7FF1F23A5BD
:104D2C00E714B7873200938727A197F6FF1F23AFAD
:104D3C00F61297F7FF1F238D0712B7C7004023A465
:104D4C00E726A1BF13F7170005CFB787200393877A
:104D5C0007D017F7FF1F232BF710B707C0A817F7BB
:104D6C00FF1F2323F71097C7FF1F9387E70817F739
:104D7C00FF1F2329F70E97F7FF1F238B070E31BF59
:104D8C00617797F6FF1F2393E60E81CB93070032D2
:104D9C0017F7FF1F231DF70CC9B793072003CDBFCF
:104DAC00011122CC17F4FF1F1304C403084406CED0
:104DBC0026CA4AC801E90545F2406244D244424938
:104DCC00056182805C58E5DB185C75D77000854501
:104DDC0082971844B247E300F7FE9305E00417F5F9
:104DEC00FF1F0355E50097D0FF1FE780409417F78E
:104DFC00FF1F2327A70461D117F6FF1F035646FF99
:104E0C009305F00F97C0FF1FE780A0BE814417F9F0
:104E1C00FF1F1309E90097F7FF1F83C787FD0326C0
:104E2C00090263C1F402328597D0FF1FE780809C92
:104E3C00014597F7FF1F23A5070097F7FF1F23A333
:104E4C0007009DBF97F5FF1F83D585FAB3879502A1
:104E5C000844185C898185043E9508C2029765BF99
:104E6C00011156C297FAFF1F938ACAF783A78A00CB
:104E7C0022CC4AC84EC606CE26CA52C45AC0AA89EB
:104E8C002E8432896385072203A74A03630707141C
:104E9C007D476366A71497F4FF1F938464F803AAF5
:104EAC00040263170A0A9565938515E017F5FF1F31
:104EBC00035505F497D0FF1FE780608797F7FF1F16
:104ECC0023A0A7F82A86630A051083A74A0303A523
:104EDC008A0097F5FF1F83D5A5F18981829783A757
:104EEC008A0003AA040217F7FF1F232DF7F4894742
:104EFC00639CF908C1476312F40E97F5FF1F83D525
:104F0C0025EF938505FC9147B3C5F5028A05D2952B
:104F1C0003C705009307A005631DF70A83C7150097
:104F2C006399370B4A852286910597C0FF1FE7804E
:104F3C00C0A89C505285639347150145F2406244CA
:104F4C00D2444249B249224A924A024B05618280BC
:104F5C00D850E38EE7F89565938525E017F5FF1F8C
:104F6C00035505E997C0FF1FE780607C2A8A35C589
:104F7C002A8683A74A0303A58A0097F5FF1F83D5CA
:104F8C0025E789818297A5B78D47639DF900C147B5
:104F9C006315F40497F5FF1F83D585E5938545FDCF
:104FAC00F199B5B79147639AF9006318340397F5F3
:104FBC00FF1F83D5E5E3A115E5B7C147639FF90052
:104FCC00A14763EC870097F5FF1F83D565E2C115F8
:104FDC00C1BF9C5052856397470D294585B7130770
:104FEC00F006568B6361A70A130A05FE1947334A6C
:104FFC00EA0217F7FF1F0357A7DF97FAFF1F938AE1
:10500C002AE2330AEA023E9A83A74A0263954701D1
:10501C0083A40A029DE49305E00417F5FF1F0355D2
:10502C0025DD97C0FF1FE7808070AA845DD583279C
:10503C004B0397F5FF1F83D5A5DB2A868981528503
:10504C00829791451307A005898193972500A69710
:10505C0083C607006393E60483C61700639C36037C
:10506C0085058A052286A6954A8597C0FF1FE7808D
:10507C00C09483A70A02E38297EC268597C0FF1F92
:10508C00E78040775DBD1307E007E368A7F4130AD8
:10509C0005F985B783D5270045BF83A70A02E38EA0
:1050AC0097F2268597C0FF1FE780C0743DB797F72E
:1050BC00FF1F9387E7D68C538DD191479306A0059C
:1050CC008983139727002E9703460700E317D6F022
:1050DC0003461700631C360185078A072286BE9596
:1050EC004A8597C0FF1FE780408D81BD83572700FD
:1050FC00C1BF97F7FF1F9387E7CE984739C79C5FCF
:10510C00A9C705476313E504411122C417F4FF1F17
:10511C00130404D1105006C60DC6485097F5FF1F56
:10512C0083D505CD89818297085097C0FF1FE780F2
:10513C00606C97F7FF1F23A507D097F7FF1F23A3DA
:10514C0007D0B2402244410182808280011117F7BE
:10515C00FF1F130727C94EC68329870022CC26CAF6
:10516C004AC806CE52C456C2AA842E843289638A97
:10517C0009201C5FBA8A99EB2945F2406244D2445B
:10518C004249B249224A924A056182805C5BEDD762
:10519C00FD4763E9A70E97F9FF1F938969C883A799
:1051AC000902B1CB03A58A0083A749026395A70620
:1051BC0089476393F408C147E310F4FC17F5FF1F0C
:1051CC00035505C39147130505FC3345F5029317A9
:1051DC00250003A509022286CA853E959307A005E2
:1051EC002300F500A3009500110597B0FF1FE78081
:1051FC00C07C014559B79305E00417F5FF1F035513
:10520C0025BF97C0FF1FE780805297F7FF1F23A988
:10521C00A7C249F995B783A74A0303A6090297F5D4
:10522C00FF1F83D5E5BC8981829783A78A0017F776
:10523C00FF1F2329F7C0ADBF8D47639EF400C14704
:10524C00E31CF4F217F5FF1F035585BA130545FD52
:10525C009377C5FFBDBF9147639AF400E31E94F0AA
:10526C0017F5FF1F0355C5B82115DDB7C147E395E9
:10527C00F4F0A147E3E287F017F5FF1F035545B79C
:10528C004115F9B79307F00663EAA706930705FEE5
:10529C001947B3C7E70217F7FF1F035767B517FA8C
:1052AC00FF1F130AEAB7B387E702BE9983270A02E6
:1052BC00A9CF83274A02639A370703250A0291462E
:1052CC001308A005FD5593D72600C207C183139779
:1052DC0027002A9703460700631D0607834817001B
:1052EC000356270063959806B306D64063CF860411
:1052FC0085078A072286CA853E95C5BD9307E007B8
:10530C00E3ECA7E6930705F979B79305E00417F5E5
:10531C00FF1F0355E5AD97C0FF1FE780404197F78E
:10532C00FF1F23AFA7B051F581BD83A74A03032606
:10533C000A0297F5FF1F83D5A5AB89814E8582970D
:10534C0097F7FF1F23A037B18DBFA300B700B2861C
:10535C009DBFB385860017F6FF1F035666A99105FE
:10536C00130606FCE3FAC5E0130634001376C60FE9
:10537C001106B29623000701A30097002311D70052
:10538C0085BF97F7FF1F9387A7A99453BE89A1C226
:10539C0003A5090291461308A005FD5593D72600D5
:1053AC00C207C183139727002A9703460700631689
:1053BC000605834817000356270063989800B30628
:1053CC00D640E3D786F2A300B700B286C1BF83579D
:1053DC00C70017F5FF1F0345C5A19305E00433056E
:1053EC00F5024205418197C0FF1FE780403497F7D3
:1053FC00FF1F23A7A7A449FD41B317F6FF1F0356B0
:10540C00269F97F5FF1F83C5C59EB385C5023386BE
:10541C0086001106E3E2C5D681BF014582800111E9
:10542C0006CE2EC6EF80804F01C9B245F24003551F
:10543C00250005616FC02062F240494505618280FC
:10544C00A38E018E238E018E23A2018E23A4018EA6
:10545C0023A6018E23A8018E23A0018E23AE018CDE
:10546C0097F7FF1F938707A1370684033707B4000C
:10547C0090D337C6070098C3130606B83747A00069
:10548C00D8C3D0D33707100041669306070AB70577
:10549C0050009308060194C723A4170393860501B3
:1054AC00930816F8D4C723A61703B706D007B70876
:1054BC007F001308070513850601410723A817036E
:1054CC00B0C3930816009386060513861500D8CB37
:1054DC00F8C323A8070188CF23AE070023AA17031C
:1054EC0023AC070223AE070223A40704F0C7B4CBF6
:1054FC0023AA0704ACCF23AE0705B8D33707A00007
:10550C00F8D71307000AB8DB1307C01CF8DB370702
:10551C001400B8DF0547F8DF130710F8E8D323A40D
:10552C00070623A0070823A2E7088280011126CAD8
:10553C00AA84214522CC06CE2E8432C636C43AC269
:10554C00EFE03F9C1DC9A24612473246930700FD6F
:10555C002300F5009947A30095002301F5002303D0
:10556C00D500A303E5002312C500AA852285624459
:10557C00F240D24405616FE0BFA3F2406244D244D2
:10558C000561828023A2A18E828023A4A18E8280B9
:10559C0023A6A18E828023A8A18E8280011122CC09
:1055AC004AC806CE26CA2A890144B3048900636816
:1055BC00B400F2406244D2444249056182802EC656
:1055CC00EFE01FB793170501C183A183B245238078
:1055DC00F4009307140093F7F70F850463F9B700F1
:1055EC00CA9709042380A7001374F40F7DBF3E846F
:1055FC007DBFC16717F5FF1F0355A590FD17630409
:10560C00F502411117F6FF1F0346C69C9385418F87
:10561C0006C6EF80A00FB240FD5717F7FF1F2312ED
:10562C00F78E41018280828009C925151375F50F0B
:10563C001335850E13451500828001458280239019
:10564C000500C9C6797122D426D24ECE52CC5AC886
:10565C0006D64AD056CA5EC63684328AAE892A8BA2
:10566C00814463F34407B307940083C7070013898D
:10567C0014004209939A070193DA0A01135909019C
:10568C0063840A04CA976341FA04B307240183CBE9
:10569C0007005E85513F0DC99387FAFF2390F900EF
:1056AC0063906B03130519002295B2502254925447
:1056BC000259F249624AD24A424BB24B456182804E
:1056CC00D694C204C18071BF0145C5B70145828023
:1056DC00411126C2AE8422C497F7FF1F23AAC782AA
:1056EC0097F7FF1F23A4B78297F7FF1F23AEA7805E
:1056FC002A8441469305F00F26854AC006C6054903
:10570C0097B0FF1FE78000396310250597E7FF1F4F
:10571C009387C77E884BC145513541469305F00FA1
:10572C00228597B0FF1FE780E03685446318950209
:10573C00224497E7FF1F9387677CB240924402494B
:10574C00C847C145410199BD41468145268597B061
:10575C00FF1FE7802034E31225FD4DBF41468145F4
:10576C00228597B0FF1FE780E032E30395FCB2403F
:10577C0022449244024941018280411122C426C232
:10578C002E84AA8413060002814517E5FF1F13051A
:10579C00E57606C697B0FF1FE780A02597E7FF1FA9
:1057AC00A38F977497F7FF1F23888782EFC0A02CD5
:1057BC00854719C181474945B240224417E7FF1F6D
:1057CC00230EF772924441018280814781CD19C921
:1057DC008547631BF50083C7550093E707FCA3823D
:1057EC00F50085473E85828089476317F50083C79E
:1057FC00550093F7F703E5B70D478547E314E5FE2E
:10580C0003C755001377F70313670704A382E5005A
:10581C00D1BF81478DC105C103C755009306000C4C
:10582C0085471377070C6308D700930600048D4750
:10583C006303D70089473E858280411122C4005DF5
:10584C0006C626C21DC8AA84085009C597C0FF1FEA
:10585C00E78040FA485009C597C0FF1FE78080F9E0
:10586C00085409C597C0FF1FE780C0F8228597C070
:10587C00FF1FE78020F823AC0402B240224492447C
:10588C004101828009ED97E7FF1F83C7476717E542
:10589C00FF1F1305256881CB1385418D828017E589
:1058AC00FF1F13052567828017E5FF1F034525653C
:1058BC00828097E7FF1F93876764C847828097E7CA
:1058CC00FF1F9387A763884B828097E7FF1F9387FF
:1058DC00E762DC4B8843828097E7FF1F9387076260
:1058EC00D84B1C4385071CC317E5FF1F03453561C7
:1058FC009307F00F6305F50091656FE0FF958280CB
:10590C00011122CC06CE2E8432C6EF806011914755
:10591C00B245631FF5009387018F9C438DC303A38E
:10592C000700630E030022856244F2400561028386
:10593C009387818E9C4381C703A34700DDB7F24058
:10594C006244054505618280011122CC2A840355ED
:10595C00450006CE26CA4AC84EC6EF70906B35C5B8
:10596C002A89834405008349C500C13D4A85EF80DF
:10597C00204903554400EF80E00583C7C18FB1CBAC
:10598C006399970483C5D18F2685EFF05FA919E140
:10599C00238E018E03554400EF8080089147631FCE
:1059AC00F5000357440097E7FF1F83D7875563170C
:1059BC00F700FD5717E7FF1F2315F754F240624419
:1059CC00D2444249B2490561828081499304F00F67
:1059DC006DB79307F00FE38FF4FA83466400035618
:1059EC004400034524004E87A685893665B7797136
:1059FC005EC6AA8B2E8552CC56CA5AC806D622D45D
:105A0C0026D24AD04ECEAE8A328B368AEF70706078
:105A1C007DC1045D2A89E5C09C50614599C313057D
:105A2C0040039C5481C751054205418163050A001E
:105A3C00710542054181DC5081C75D0542054181FC
:105A4C00EFE02FCC2A8445C96146814597B0FF1FF2
:105A5C00E78020FA97E9FF1F83C9C94463940900C2
:105A6C0083490900930700FD2300F400A947A30014
:105A7C0074012301F400230364018C50231254019C
:105A8C001305840191C908C47146930A440397B065
:105A9C00FF1FE78080F256858C5491C948C451464B
:105AAC00930A450197B0FF1FE78020F15685630CE0
:105ABC000A0008C87146D285930AC50197B0FF1F2A
:105ACC00E780A0EF5685CC5099C548C85D4697B085
