:040000006F2000006D
:100004000000000000000000900000209404002084
:10001400A9BDF9F5900000200000000000000000D8
:10002400900000209000002000000000000000006C
:10003400900000200000000090000020000000005C
:1000440090000020900000209000002090000020EC
:1000540090000020900000209000002090000020DC
:1000640090000020900000209000002090000020CC
:1000740088050020900000209000002090000020BF
:1000840090000020900000209000002090000020AC
:1000940001A0411106C6EF00F035F5BF73270080BB
:1000A400218B9387018709CB7327008023A8E186DE
:1000B40098435D9B731007800100010037170040CF
:1000C400930670052300D704930680FA2300D7040F
:1000D400010001008346B70493F6F60DA305D70487
:1000E40023000704732600809443A18AD18E739061
:1000F400068023A80186010001009376050263842B
:1001040006180347A700118B25E773270080218B6E
:1001140009CB7327008023A8E18698435D9B731065
:100124000780010001003717004093067005230083
:10013400D704930680FA2300D70401000100834604
:10014400A70093E646002305D70023000704F326FF
:1001540000809843218B558F7310078023A8018654
:10016400010001001307004B010001007D176DFF22
:1001740073270080218B09CB7327008023A8E18695
:1001840098435D9B731007800100010037170040FE
:10019400930670052300D704930680FA2300D7043E
:1001A400010001007D892314A70001000100010062
:1001B400010023000704F32600809843218B558F08
:1001C4007310078023A801860100010073270080B3
:1001D400218B09CB7327008023A8E18698435D9B7C
:1001E4007310078001000100371700409306700563
:1001F4002300D704930680FA2300D70401000100EA
:1002040001000100B726004013061005A383C68031
:1002140023000704F32600809843218B558F731025
:10022400078023A801860100010073270080218B29
:1002340009CB7327008023A8E18698435D9B731044
:100244000780010001003717004093067005230062
:10025400D704930680FA2300D704010001008346E3
:10026400B70493E60608A305D704230007047327FD
:1002740000809C43A18BD98F7390078023A80186AB
:1002840001000100828093760504638B0614034702
:10029400A700418B25E773270080218B09CB7327A7
:1002A400008023A8E18698435D9B731007800100BA
:1002B400010037170040930670052300D704930606
:1002C40080FA2300D704010001008346A70093E6C7
:1002D40006012305D70023000704F3260080984372
:1002E400218B558F7310078023A80186010001001C
:1002F4001307007D010001007D176DFF7327008047
:10030400218B09CB7327008023A8E18698435D9B4A
:100314007310078001000100371700409306700531
:100324002300D704930680FA2300D70401000100B8
:100334009376F50193E606042314D7000100010027
:100344000100010023000704F32600809843218B59
:10035400558F7310078023A801860100010013073D
:1003640060046310E50473270080218B09CB732795
:10037400008023A8E18698435D9B731007800100E9
:10038400010037170040930670052300D704930635
:1003940080FA2300D70401000100B7260040094673
:1003A400B5B573270080218B09CB7327008023A860
:1003B400E18698435D9B73100780010001003717A5
:1003C4000040930670052300D704930680FA2300A7
:1003D400D70401000100B7260040130620053DB5EF
:1003E40073270080218B09CB7327008023A8E18623
:1003F40098435D9B7310078001000100371700408C
:10040400930670052300D704930680FA2300D704CB
:10041400010001008356870093E6060C2314D700DD
:10042400C5BB4111814601468145114506C63524A7
:10043400F3270080A18B9386018789CBF327008063
:1004440023A8F1869C42DD9B739007800100010084
:10045400B7170040130770052380E704130780FAD9
:100464002380E7040100010003C767041367170032
:100474002383E70423800704732700809C42A18B15
:10048400D98F7390078023A8018601000100B24030
:100494004101828081460146814511457D2AF32729
:1004A4000080A18B1387018789CBF327008023A8C1
:1004B400F1861C43DD9B7390078001000100B71790
:1004C4000040930670052380D704930680FA2380A6
:1004D400D70401000100FD562396D70223800704A8
:1004E400F32600801C43A18BD58F7390078023A82B
:1004F400018601000100F3270080A18B89CBF3273B
:10050400008023A8F1861C43DD9B739007800100C3
:100514000100B7170040930670052380D7049306A3
:1005240080FA2380D7040100010083C6670493E6A0
:1005340016002383D70423800704F32600801C437A
:10054400A18BD58F7390078023A801860100010039
:1005540001A0BD473305F50201007D1575FD8280BC
:10056400411122C426C206C6AA840144631794001A
:10057400B240224492444101828005041305803E26
:100584004204C13F4180DDB7B717004013070003A1
:100594002388E702854723A0F188730020302303D2
:1005A400048015472303E48001002302A480828091
:1005B40083076480E3CE07FE2303048082808307DD
:1005C4006480E3CE07FE0345448082808307648011
:1005D400E3CE07FE2302A4808280411126C44AC2CE
:1005E4004EC006C61377F50BAD47AA892E899544EC
:1005F4006306F70019456537653F8D444E854537D9
:10060400FD59FD1463983401B240A2441249824951
:1006140041018280135509011375F50F453F2209E5
:10062400CDB7011126CC06CEB704080051371545C5
:10063400BD37713769372AC6A53F32459377150010
:1006440089EB136515001375F50FF240E24405615B
:100654008280FD14E9FC0145CDBF397126DC4ADAFC
:100664004ED852D656D45AD25ED006DE62CE66CC6E
:10067400B7E700E07D5783AA070022C603AA470014
:1006840023A0E71823A2E718B71700401307700543
:100694002380E704130780FA2380E70483C7470411
:1006A400930B75FFB684E20793FBFB0F8546AA897B
:1006B4002E8B328937240040E187015763FA760193
:1006C4006308D5008946130700026313D500015758
:1006D400D98F93F7F70FB71C00402382FC0411470E
:1006E4002303E4801305F00F5D3D094CD135636DA0
:1006F4007C11B7050700DA9537870700795563F24F
:10070400E504B3879500636EF702370B0800A94729
:1007140033EB65016399F90689E48144513D2685EB
:100724000DA0DA850945553D05090345F9FFFD147A
:10073400050B693D81C49377FB0FFDF7DD3569FD3A
:100744007D55B7170040130770052380E70413078E
:1007540080FA2380E70403C74704418B2382E7041C
:10076400F250B7E700E023A0571123A24711E25447
:1007740032445259C259325AA25A125B825B724CA9
:10078400E24C21618280A5476395F90685691309C6
:10079400F00FB3069900B3742B01B6941349F9FF13
:1007A400B3749900856B33796901416B9387F9FFC1
:1007B400B3F7270199E363FC340193D94900C14796
:1007C400E3E637FF99BF0569C1697D19D9B71305F8
:1007D400800D6388690113050002638479011305A0
:1007E4001008CA85DD3B353D21DD4E99B384344183
:1007F400D9B7DA852D45D533CA94E30099F20509B2
:100804007D3BA30FA9FED5BF9387F9FF93F7F70F9D
:100814006361FC0C83C71C0413073008631FF704CF
:1008240037070800636BEB04B3079B00B70610009F
:1008340063F5D704334BEB0089476393F90689804A
:10084400D549E38C04ECDA850945413B11090327BA
:10085400C9FF91472320E48003076480E34E07FE29
:1008640023033481FD17EDFBFD14110B81C4937731
:10087400FB0FE9FF7D3371F5E1B5B717004003C7FE
:100884005704B70708001377070219E3B78707006F
:100894007955E378FBEA33079B00E3FFE7F855B5A6
:1008A4008547E382F9F2DA852D45053B9389F4FF08
:1008B400E38504E6293393F7390091EB832604801A
:1008C4000327090093074900E39AE6E43E89CE84AE
:1008D400F1BFB5476396F9001305900BC93135BDD7
:1008E400B1471305B00AE38BF9FE99476391F90404
:1008F400B7050800B365BB002D45C53181448D4B58
:10090400A149753963967401832704802320F90073
:100914008504E39834FF8327048013172B01635560
:1009240007002312F900D5BB2322F900FDB39D472C
:100934006399F90281451305B0044531BD44232070
:10094400090023220900FD599D3993F77400CA97C1
:1009540003C70700FD14398D2380A700E39634FFF5
:100964006DBBA1476392F9046D398144630D0B009B
:100974008D479304C0036308FB00930400056304DC
:100984008B01930440041375C507E30895D81945F2
:10099400393139390545213126850D3909453D312E
:1009A4004931E31C05D669BB91476399F9001305E6
:1009B4006006F536F53E130590090DB7E38F09D4AB
:1009C400F154A9BB19CD91CD09CE81473387F500E8
:1009D400834607003307F50085072300D700E31794
:1009E400F6FE828019C991C909CA910583A7C5FF7A
:1009F40011057D16232EF5FEC5BF828001C919C6D7
:100A04002A960505A30FB5FEE31DA6FE8280814745
:100A14003307F5000307070019E33E858280850745
:100A2400C5BF01112E8626CAAA8413150601930593
:100A3400F004418122CC06CE32C6EF00F04F2A8466
:100A440001C53246A685BD3F2285F2406244D244A8
:100A540005618280854715C18DC105C28147B306F2
:100A6400F5003387F50083C6060003470700639843
:100A7400E6008507E315F6FE85473E8582808147BB
:100A8400EDBF9307F6FFBE952A966313C5008280D7
:100A9400FD1583C715000505A30FF5FEFDB7AA874D
:100AA400014581CF09CE3E96850703C7F7FF63173B
:100AB400B700E39BC7FE05458280828001458280A2
:100AC40079719387C18922D4804306D626D24AD02D
:100AD4004ECE52CC56CA5AC85EC65DCCB7C4C90104
:100AE400014B938941899384F437173A0000130A20
:100AF400AA51973A0000938AEA541739000013095F
:100B0400A9588357240085E35C44631B0B0023AE80
:100B1400F188832BC4002285EF00704E5E84B9A84F
:100B24002326FB00FDB783A7090082971C443307E3
:100B3400F5406376F500032749001D8F2A9763E08B
:100B4400E4089737000023A7075083552400034582
:100B54000400974000E0E780A09D5C405844A1CB8E
:100B64000C4403264900AE97BE8663E4B70063E4F1
:100B7400C700B386C74014C4228B3A8459F0973710
:100B840000009387274C9C4B09476370F706F917BD
:100B9400173700002320F74CB250225492540259C4
:100BA400F249624AD24A424BB24B45618280631594
:100BB4000B0023AEE188B1BF2326EB0099BF0327C6
:100BC4004A0209CF63EFA7003385A74083A70A0130
:100BD4006376F5009737000023AEA746228B404486
:100BE40071BF03274900BA97C5B79737000023A3FD
:100BF40007465DB7411122C41734000013040447AB
:100C04001C4006C626C24AC091C782979737000087
:100C140023AE07449737000083C7175F858B97344B
:100C240000009384245E95C397370000A38E075C6D
:100C340083C774001547637AF700052B83C77400D4
:100C4400F5178A07A2979C4382971C4491C3829705
:100C54001389818803270900173600000346963E4E
:100C64009737000083C7073E93961700BA9683D63A
:100C74000600C5CE9737000083C7C73C63E1C70CA5
:100C8400973700002380073C1C4063950712973771
:100C9400000083C7B75791CF83C7740093F7F70F4A
:100CA40089EB97370000A3830756975001E0E7804C
:100CB400C099938741899C43638E070E9737000040
:100CC4009387873CDC43173700002325F738CD3B57
:100CD4009737000093874733DC53E9CF1737000079
:100CE40013074736184B9737000083C737336363BE
:100CF400F70C83C774001547636EF70A9737000033
:100D040083C7C754918BDDE703260900973600009B
:100D140083C6563363C6D70A2244B240924402497A
:100D24004101174300E0670043C8850793F7F70FB5
:100D3400973600002388F630E3E4C7F225BF860720
:100D44003E97835507002310070023980188938753
:100D5400018A9C43173500000345C52E131725004F
:100D6400BA979C43829783D70189173700000347BA
:100D7400672D93C7F7FF7D8D93171700032709008D
:100D84003E97835707005D8D2310A7009737000017
:100D940083C7472B91C78507173700002304F72A19
:100DA400173700000347072A9737000083C797299E
:100DB400E378F7ECB2402244924402494101828034
:100DC400139717003297035707006DF7850799B7F4
:100DD400AD6737C70040BD072326F7200F1000007A
:100DE4009737000093870726C84F83278726BD6659
:100DF400BD0693C7F7FF99836A052326D7205D8D27
:100E040082804111B7170040985F3AC6945F324719
:100E1400E39CE6FE3245410182801305F00F828097
:100E24000111973700009387E74922CC03A4070CEC
:100E340026CA06CE2AC42EC6854419E40145F240CA
:100E44006244D244056182808347910003471400C1
:100E5400858B6304F7000044CDB719469305A100C0
:100E640013052400C53EE31895FE0545C9BF138745
:100E740041961C439306001094C301000100010035
:100E840001001C4323A007008346150003482500E6
:100E9400A2064208C29603480500C29603483500DC
:100EA4006208C29694D78346550003486500A2069B
:100EB4004208C29603484500C2960348750062087A
:100EC400C296D4D7834695000348A500A2064208DB
:100ED400C29603488500C2960348B5006208C296CC
:100EE40094DB8346D5000348E500A2064208C29677
:100EF4000348C5000345F500C2966205AA96D4DBF3
:100F040083C6150003C52500A2064205AA9603C59B
:100F14000500AA9603C535006205AA9694CF83C638
:100F2400550003C56500A2064205AA9603C54500FF
:100F3400AA9603C575006205AA96D4CF83C6950008
:100F440003C5A500A2064205AA9603C58500AA9674
:100F540003C5B5006205AA9694D383C6D50003C51C
:100F6400E500A2064205AA9603C5C50083C5F5009F
:100F7400AA96E205AE96D4D3D443F59AD4C3D44307
:100F840093E61600D4C3944393E6160094C3BA8739
:100F94009443D842058B59E3984E01452300E6005B
:100FA4009843184F2183A300E6009843184F4183C8
:100FB4002301E6009843184F6183A301E6009C4394
:100FC400D84F2302E600D84F2183A302E600D84F6E
:100FD40041832303E600D84F6183A303E6009853BB
:100FE4002304E60098532183A304E6009853418325
:100FF4002305E60098536183A305E600D85323062E
:10100400E600D8532183A306E600D853418323077F
:10101400E600DC53E183A307F600828001008DBF64
:10102400138781961443411122C49C5E4AC006C6AC
:10103400998326C2858B3A8413894196D1C79C5ED5
:10104400973400009384041C93F7F7F99CDE173758
:1010540000000347871B93070008631BF7008327DF
:1010640009009C4393F7070417370000230FF71870
:1010740083C7040093F707048DC3938741899C4376
:1010840082979737000023A7A71883C7040093F714
:10109400F70B173700002307F71683C7440093F7AD
:1010A40007049DE3854717370000A30FF7149387C0
:1010B40041979C43096798C7130700FC97360000C3
:1010C4002384E614D844F8D31C40985F1183058B1D
:1010D40009CB985F3D9B98DF054797360000238531
:1010E400E612985F1D83058B11CB985F1377F7F792
:1010F40098DF8547173700002308F7108327090076
:10110400D8430583058B19C7D843759BD8C3D843E7
:10111400799BD8C3B240224492440249410182805F
:10112400397106DE16DC1ADA1ED82AD62ED432D24B
:1011340036D03ACE3ECC42CA46C872C676C47AC2CB
:101144007EC0F93DF250E2525253C2533255A25579
:10115400125682567247E2475248C248324EA24E55
:10116400124F824F2161730020309387419794433B
:10117400973700009387070903C70700058B11CB36
:10118400973700002382070897370000A38E0706CD
:10119400828003C71700058B65F7F85271FF83C778
:1011A4005700DDB713888196032708001C5F9583D9
:1011B400858BD1E709C61C5BBD832300F60085CA75
:1011C40083270800985B4607935767016356070017
:1011D40093E707C0C207C18303970600C207C1870C
:1011E40009C7BA970947B3C7E7022390F60085CD2C
:1011F400834715008DCB9736000083C6060193F60E
:1012040006041387970089478DCA3A95034705005A
:10121400854699471376F7066311D60262076187FC
:10122400B947634C0700832708009C5FED838D8BCF
:1012340017370000A30DF7FC81473E858280854760
:10124400EDBF411122C406C61384419718402DE90D
:10125400AE877453FDFE3E85B28597370000238424
:1012640007FA974001E0E7808013938781969C43B7
:10127400B70680009843558F98C3D857719BD8D729
:1012840097370000A38207F897370000A38C07F66E
:101294001C40094798C3144017370000130787F60A
:1012A40083472700858B89EB83473700858BD9C318
:1012B40097370000238A07F4B24022444101828018
:1012C4008D47631EF500938781969C43B706800083
:1012D4009843558F98C3D857719BD8D76DBF85470E
:1012E400E31BF5FA5447F977FD17F58F5CC70F1028
:1012F40000001C40096798C7130700F81736000060
:101304002304E6F0138781961043184231830D8B32
:1013140011E713076019F8D3D4C7B5BF18420946BB
:1013240031830D8B6315C7001307E043EDB7130733
:10133400E01BD5B7FC52ADF741B75D71A2C4A6C29C
:101344002A84130680022800AE849305100886C6FA
:10135400CAC04EDE52DCEFF06FEA3545974001E03B
:10136400E780404013838196832703009376F41F1C
:10137400138EC19723A40700984B938E4197370F80
:10138400FCFF1367F70398CBF84F130510F8B70267
:101394000400137707E0558FF8CF9843F576FD16D0
:1013A400758F98C39843B70633009303802513774A
:1013B400F7E798C3984311497D1F1377F7E713673D
:1013C400071098C303270E008549930F80021C471A
:1013D400D58F1CC783A70E001307900D3400B8CB1C
:1013E400014793553700A69583C705001376770008
:1013F400B3D7C740858BE1C38327030083280E003E
:10140400239C07042390070603A8C8021378D8FF77
:1014140023A6080383A807001378F70793F808F8AE
:1014240033E8080123A0070103A8470233685800E2
:1014340023A2070383A80E00014823A2780603DA37
:1014440007066307480303A80703038A0600135823
:10145400F80062081358884163580A0103A8070377
:101464001358F8002380060103D807061378F80FF1
:1014740003AA480663060A0003DA8705E37F49FBEB
:1014840003A847023378E80123A2070383870600F1
:10149400635CF40003C805003396C9001346F6FFE5
:1014A400337606012380C5003E8663D3A7002A86CF
:1014B40013158601618505071377F70F8506E31277
:1014C400F7F3B640264496440649F259625A6161DC
:1014D4008280938641979C42D8471316170163551F
:1014E4000602984713161701635006027D57B8D7B2
:1014F40017370000130707B5584F050717360000C4
:101504002320E6B6116798C798470D83058B1DC342
:1015140017370000034727CF13671700173600005B
:101524002303E6CE130700F817360000230EE6CC9B
:10153400214798C79847058B09CF17370000034701
:1015440077CC1367170017360000A30DE6CA0547CA
:1015540098C798470983058B09E798470583058B46
:1015640021CF9847173600001306C6C91385819604
:101574000983058B630307101841184331830D8BCE
:1015840075EBAC4B184E93F5050203471700CDCD10
:1015940079EF13077006D8CF0347060013671700C7
:1015A400173600002300E6C6114798C718415C5758
:1015B400F19B93E717005CD79C4298479316370139
:1015C40063D606029736000083C646D7C18A17370A
:1015D4000000130727CFC5CE034787071367070209
:1015E40097360000238CE6D4056798C7984793166E
:1015F400270163D10602173700000347E7C06207DB
:10160400618763570700054797360000238EE6BEBF
:10161400096798C798479316070163D60602973659
:10162400000083C6B6D1858A17370000130787C91F
:10163400ADCE034797071367270097360000A38FA3
:10164400E6CE216798C7828029D785456315B70000
:101654001307B00689B789456315B7001307F00669
:101664001DBF8D456315B700130730072DB713074A
:10167400500715B71307600739BF034736001367D0
:10168400170017360000A300E6B8094739BF8346A0
:1016940087070946BD8A6388C600034787078D46C6
:1016A4003D8BE313D7F4114725BF83469707918AEF
:1016B400C9DA034797071367870041B7397106DE14
:1016C40016DC1ADA1ED82AD62ED432D236D03ACE26
:1016D4003ECC42CA46C872C676C47AC27EC0D53BE6
:1016E400F250E2525253C2533255A2551256825608
:1016F4007247E2475248C248324EA24E124F824FBE
:1017040021617300203093874197984385679387BD
:1017140007777CD39387C1979C4383A607091396C5
:1017240056006358060083A60709139666006344AF
:1017340006007453FDF2828061C1AA870145DDCDA4
:101744008D07C207C183F19BC207C18313074003FE
:10175400636BF702138741A008431387C19F1443A7
:101764006396A602173700001307078A185B014522
:1017740051C74111C20706C60545DD8D0297B24027
:10178400014541018280138701A0F9B70357650021
:1017940035E303574500636FF704B306F74021466A
:1017A400637CD60203280500938687001D8FAA96C2
:1017B400611717360000035646892392E60023A0DA
:1017C40006012393060014C12312F500130786FFB4
:1017D40097360000239BE6862313B5009735000057
:1017E40083D5A586B387F54017370000231FF784F8
:1017F400210582800841ADB701458280828009CDF0
:10180400938741A003A307009387C19F83A8070080
:1018140081469A8763E31701828003A807006369FE
:10182400F50A6367A80A13878700E367E5FE03D612
:101834006700216705076317E60003C7C19305071F
:10184400238EE192972500009385C57F03D6470038
:1018540003D7650023930700329742074183172576
:1018640000002314E57E63886702138501A0084104
:101874006303F50203D5660019ED83D7460023A060
:10188400060121073E9621062392C60097270000F1
:10189400239DE77AB6879843E30017F9938601A05E
:1018A4009442E30BD7F683566700BDF683D6470010
:1018B400035647001843A106B2962392D70098C353
:1018C40083D76500A107172700002310F7788280CB
:1018D400BE86C28781B703278511630207124111AF
:1018E40022C406C68347C5008345E5042A8493F7CA
:1018F400C70F2306F500834697000356C7001395C8
:101904008601618563F2C508635B050603458700AC
:1019140093F6F607A304D700054693E6270063145D
:10192400C50093E617002306D4005C4389075CC313
:10193400A30AB400032504112E864C430905EFF0D5
:101944006F888327841103465401D44303D7C70007
:10195400B296118FD4C32396E7008947A30DF400F0
:10196400034764039727000083C7276B6378F70452
:101974008347C40093E707012306F40081A093E79B
:1019840017002306F4006DB79376F60F635D050226
:1019940003458700854513E627006314B50013E665
:1019A40017002306C400A30AD400A3040700854734
:1019B400A30DF400832784119C43DDF3B240224439
:1019C40001454101828093E717002306F400A30A2E
:1019D400D400A3040700032504114C430905EFE0D8
:1019E4007FFE8327841103465401D44303D7C700E1
:1019F400B296118FD4C32396E7008D4755BF054592
:101A04008280938741A19C43411122C406C6858BE1
:101A14002A84C5EF4165130525F597F001E0E780B9
:101A2400604445C58347A5002315F50083270412A8
:101A3400BDE72320A4122322A41285472311F40412
:101A4400232005008347640154412316F50003470E
:101A5400D4002304E5000547A304E500172700008C
:101A64001307477A184F1385170215811C437D15F8
:101A74001375F50F9CC25C43DCC21C479CC65C47D3
:101A8400DCC61C4B9CCA5C4BDCCA1C4F9CCE5C4F16
:101A9400DCCE19CD9386060213070702C1BF832744
:101AA400441288C3835724042322A412850779B7D8
:101AB4009737000083D787818507173700002317DE
:101AC400F780B2402244410182808347C400230945
:101AD4000400054593C747002306F400DDB7834798
:101AE400850193F7E70FC5EF83479501CDEB0346D7
:101AF40025018346C50009CA8345650317270000ED
:101B04000347B75163E7E50013F7060151CB0147DB
:101B140009C6C18A0357651C81C68356A51C36971E
:101B240041C31307C7121725000003556556B33583
:101B3400A70237460F00411113060624814622C42A
:101B440026C206C67D543305A702972002E0E7802B
:101B540040399727000083C7B74CB384A700972761
:101B640000009387277603A787098327070963F370
:101B740087003E84184375FB938741899C43829771
:101B840081476364A400B307A440B2402244B3B7BE
:101B9400970093C7170092443E8541018280814794
:101BA4003E8582809387419798437C53FDFF8280D2
:101BB400797126D206D622D44AD04ECE52CC56CAF9
:101BC4005AC85EC68347550303447513AA843E94DA
:101BD4001374F40F9307400263F687001304B4FDF3
:101BE4001374F40F03AA841383AAC413A38B84125B
:101BF40022865285D685972002E0E7800029058950
:101C040015E503CBD41201498149337B6403930B5B
:101C140050024A865285D685972002E0E780E02666
:101C2400058915C5639169031374F90F238B841215
:101C3400B250225492540259F249624AD24A424B57
:101C4400B24B456182808509E20993D9894105092E
:101C5400E31179FDE1BF83278509035605047971F2
:101C640093D60701BD8EC206C182358E13577640C6
:101C740093575640898B058B5D8F93573640918BD4
:101C84005D8F93571640A18B5D8F93171600C18B00
:101C94005D8F9317360093F707025D8F93175600F5
:101CA4009355860093F707041E065D8F1376F60F8F
:101CB400518F93D7554013D63540118A898BD18FD4
:101CC40013D67540D18F13D61540218AD18F139620
:101CD4001500418AD18F1396350013760602D18FF1
:101CE40013965500137606049E05D18F93F5F50FD0
:101CF400CD8FA20745465D8F3307C70222D42A84BD
:101D040026D252CC56CA032A8413832AC4135AC82F
:101D140006D6369742074183935777401355574069
:101D24000989858BC98F135537401189C98F13557C
:101D340017402189C98F131517004189C98F1315BD
:101D4400370013750502C98F131557009355870083
:101D5400137505041E07C98F1377F70FD98F13D591
:101D6400354013D755401189098B498F13D57540D8
:101D7400498F13D515402189498F13951500418941
:101D8400498F1395350013750502498F1395550036
:101D9400137505049E05498F93F5F50F4D8F2207A2
:101DA400D98FB387C7024AD04ECE5EC662C4B697F7
:101DB400C207C18313D7774013D557400989058BD0
:101DC400498F13D537401189498F13D5174021897D
:101DD400498F139517004189498F1395370013755F
:101DE4000502498F1395570093D587001375050491
:101DF4009E07498F93F7F70FD98F13D5354013D723
:101E040055401189098B498F13D57540498F13D5D6
:101E140015402189498F139515004189498F1395E0
:101E2400350013750502498F139555001375050484
:101E34009E05498F93F5F50F4D8F2207D98FB387F0
:101E4400C702130650025285D685B697BD8E939469
:101E54000601C18033F6C402137BF60F972002E01B
:101E6400E780A00205890DED8347D4120149814919
:101E7400B3849702130C5002C1804A865285D685DA
:101E8400972002E0E78060000589937BF90F11C574
:101E940063863403850993F9F90F0509E31F89FD66
:101EA400230B6413B250225492540259F249624AE9
:101EB400D24A424BB24B224C456182805E8BCDB7F5
:101EC400797122D406D683C735002E8423160100E7
:101ED400A307F10083C74500100802C02307F100DF
:101EE40083C755008A8502C2A306F10002C402C852
:101EF40002CA02CC02CEEFE09FF70347F101834709
:101F0400040001456310F7020347E101834714000D
:101F140001456319F7000345D101834724001D8D52
:101F240013351500B2502254456182800111972760
:101F340000009387273922CC03A4870C26CA4AC8F9
:101F44004EC606CEAA8413092500854915C083C749
:101F5400140003473400858B6304F700405CFDB72D
:101F64001946930544004A85EFE0DFAEE31835FFD8
:101F74002285F2406244D2444249B24905618280DA
:101F84004111972700009387E73322C403A4870CE9
:101F940026C24AC006C693042500054901E82285E5
:101FA400B24022449244024941018280A68513052D
:101FB400A4023937E30525FF405CCDB741119727CB
:101FC40000009387273022C403A4870C26C24AC08A
:101FD40006C693042500054901E82285B24022443F
:101FE4009244024941018280A6851305A401C93D9A
:081FF400E30525FF405CCDB7B9
:1020000097110020938181AE17610020130181FF99
:102010001305400097E5FF1F9385C5FE17060020B6
:102020001306C6FD63FAC5008322050023A05500F0
:1020300011059105E3EAC5FE17550200130585BC9D
:1020400097050020938585FB1386018563FAC500FB
:102050008322050023A0550011059105E3EAC5FE82
:102060001385018597250020938585386377B50012
:10207000232005001105E36DB5FEFD42739002BCFF
:102080008D4273904280930280087390023097E2F1
:10209000FF1F938222F793E232007390523097121F
:1020A00000009382A2D073901234730020303D431D
:1020B0002A876373C3029377F700BDEFADE593768C
:1020C00006FF3D8ABA960CC34CC30CC74CC74107E8
:1020D000E36BD7FE11E28280B306C3408A06970203
:1020E000000096966780A6002307B700A306B700F6
:1020F0002306B700A305B7002305B700A304B70064
:102100002304B700A303B7002303B700A302B7005B
:102110002302B700A301B7002301B700A300B70053
:102120002300B700828093F5F50F93968500D58D37
:1021300093960501D58D61B793962700970200000D
:1021400096968682E78086FA9680C1171D8F3E9606
:10215000E374C3F8A5B7011122CC36C606CE2E848F
:10216000EF20402AB24637460F0013060624337686
:10217000C50291CAB285174502001305E5B732C6FC
:10218000EF204279324622856244F2408145056162
:102190006F7031699707002083D74715368763939F
:1021A000A702970600202394B6142392C18023939C
:1021B000E180B28617450200130585B12E86BE85E3
:1021C0006F20427517450200130585B26F20320655
:1021D00081E9B28517450200130585A86F20827337
:1021E0008547639DF500174502001305A5A809C69C
:1021F00017450200130505A96F207203411106C699
:102200008947639AF500174502001305A5A801CE7A
:10221000B240410182808D47E39CF5FE11EE1745E7
:102220000200130525A8EF209200B24003C5618586
:10223000A14541016F20802FB240B28517450200B1
:10224000130585A7410159BF03574500011106CE6B
:102250009707002083D78709631BF702C167F91727
:10226000170700202324F70823A2018085471306BF
:10227000F100854513055030A307F100EF902120B0
:10228000138501A4EF10E006F24005618280174536
:1022900002001305E5A5EF208279FDB7011122CCDC
:1022A00006CE83C781804544638D87066369F40049
:1022B0004147638FE702F2406244056182804947EB
:1022C0006388E70C4D47E398E7FE834745001547D1
:1022D0006391E72C83588500638E08220347A5008D
:1022E00085476319F7220D68014713082890C9AA8A
:1022F0004146974502009385258B0A85EF2022569B
:1023000083C6618541468A8503C501A4239901845A
:10231000239A018423880184EF70500423848180F0
:1023200059BF834745001D476395E72283578500C2
:1023300095C358458347170083460700A207D58FEA
:10234000239AF1848347370003472700A207D98FD8
:102350002399F18403471500E947E39EE7F483D509
:10236000418589CD0355250083C6618503D6218526
:10237000EF700059C9472384F18035BFFD571745D9
:1023800002001305E5882384F180EF20426A25B717
:102390008347450025478145639FE71A035785001A
:1023A00005CF8356A500D5476398F6025445A1682A
:1023B0003963096E1377F70F83C701850148938E40
:1023C00001A39388B8BF1303939D130EDEDB09EBC3
:1023D000630408002388F18403471500E947ADAA88
:1023E00083C5460003C6360003CF5600A205D18D33
:1023F00003C6660022063366E60191CF03C81600C5
:1024000003CF0600860722083368E8017D18F69797
:10241000239007010548630916036300660281479C
:102420006318C6012395B1A42398B1A20548854736
:102430007D17D5061377F70F59BF2394B1A4239BBB
:10244000B1A205489147EDB72397B1A4239DB1A24E
:1024500005489947F1BF03D621A363F0C50285055E
:1024600003552500C20583C66185C181EF706044B4
:102470008547238EF184CD47FDBD17350200130536
:10248000E57BEF20C25A239801A211A285050355CE
:102490002500C20583C6618503D62185C181EF7001
:1024A000204611BD2398E1A483C707000347060017
:1024B000A207D98F239FF1A2B1A805071377F70FC1
:1024C000637A17055445931527003386B600834772
:1024D000360003432600A207B3E76700C207C1879F
:1024E000E39D07FD93871500B69703C70700834652
:1024F000060083C5C1852207558F8546E394D5FA2A
:102500002396E1A483C7070003470600A207D98FDB
:10251000239AF1A203471500E947ADA8238401805F
:10252000938701A4094791070F00500F2FA0E7449C
:102530001735020013058571EF20624F914503C5E1
:102540006185EF10B07E894503C56185EF10107E6F
:102550009DB3054719B50547E31AF7F283C701850F
:1025600089CF138701A38607BA971387218503575D
:1025700007002390E7002388018483D501A3E39C0F
:1025800005EC173502001305256AEF20424AFD5776
:10259000DDB30547E311F7D203C7C1858547E31FC4
:1025A000F7F683D7E1A3BDFB938701A383D5A700EB
:1025B0000355250083C661858505C20503D6C1A3E1
:1025C000C181EF70002F238E0184F5B141119397E3
:1025D000050122C406C626C24AC0C1872E8463D61E
:1025E000070C03C56185EF107043AA841DC903471A
:1025F00005009307000B6313F702938701A40F00F4
:10260000F00FD4430F00F00F858A130985003E8731
:102610008DE283C544004A85EF7030052685EF10B2
:10262000D0382165218DB2402244924402494101B3
:1026300082800F00F00FDC430F00F00F8587858B41
:1026400099E3A939F9B783474500938657FE93F676
:10265000D60F81E6EF1060036DBFAD46E38BD7FA6E
:1026600085466393D70283458500A947E383F5FA3E
:10267000C947638EF5000346C500173502001305F0
:102680002556EF20222971B7CD46E394D7F81C5385
:10269000BD5611070F00500F2F20D764BDDB83C537
:1026A000C400138501A48297ADB793F7150085C3C5
:1026B000170600201306469597050020938505947C
:1026C00003C56185EF80B13113451400A9BF93F7AD
:1026D000450085CB938781859C43138501A4CC431A
:1026E000EF00D04D01CD930780F86309F500130684
:1026F000000A914503C56185EF10107A1345440027
:102700001DB793F7250085CB938781859C4313855F
:1027100001A48C43EF00503F01CD930780F863097B
:10272000F5001306000A894503C56185EF10D076D0
:1027300013452400CDBD93F7850091C70145B93EEF
:1027400013458400CDB593F7050195C383C7618513
:102750001307A002814613068002E14517050020F9
:102760000355C5B8EF801121134504016DBD93F7E2
:1027700005020145E38907EA014789460946814583
:1027800017050020035585B6EF80117DAA85173502
:1027900002001305A546EF20E2171345040261B5B8
:1027A0003D897D15954763EAA71617370200130781
:1027B000A7410A053A951C41411122C406C6BA97A1
:1027C0002E84828717350200130505542244B24037
:1027D00041016F20C22583C7250019476391E70295
:1027E0002E859D3483456400173502001305C552BC
:1027F000EF204212173502001305C553C1BF0D4724
:10280000E38AE7FEB24022444101828003C72500EB
:102810009547E319F7FEC16717070020035707AD77
:10282000F91703D5A500630FF700EF80B1701735D6
:10283000020013052551EF20821F173502001305F2
:10284000A55369B7970700202392A7AA83D7E5006D
:102850002380A1A417070020231BF7A883D7050115
:102860002392F18083D725012393F180938701A4DC
:10287000054791070F00500F2FA0E7440566130688
:1028800006C8C14503C56185EF101061C1472384A7
:10289000F18003572401835604010356E400835555
:1028A000A400173502001305254BEF20A20671B7CF
:1028B00003C725008D47173502001305A54CE31308
:1028C000F7F429B783C5250091476397F5001735BD
:1028D00002001305A54CDDBD99476390F5022285E2
:1028E000EFF09F9683456400173502001305C5423B
:1028F0002244B24041016F20E2019547639AF500FE
:1029000083471400E9F7173502001305E54A7DBD3A
:10291000173502001305C54AE1BF828023ACA184AC
:102920008280011117050000130585CA06CE22CC4E
:1029300026CAEF2060279384618599470544238048
:10294000A4002315F1001306910093074006854566
:10295000130550302316F100A3048100EF803132BB
:1029600017F6FF1F1306466EBD4513057030EF8046
:10297000113117F6FF1F1306E669ED4513056030A8
:10298000EF80F12F1306A100894513051031EF8068
:10299000112F7000894513052031EF80512E9305CA
:1029A00000050D45EF30707C930500051145EF30B3
:1029B000D07B85457945EF30507B700091451305FC
:1029C0007040A303810023048100A304810002C698
:1029D00023050100EF70910B130671008545130567
:1029E0000040EF70B10A3000854513051040EF70CC
:1029F000F1091306A100854513052040EF70110968
:102A000013069100854513055040EF703108EF70B3
:102A1000B07603C50400EF7090227D55EF60902FD3
:102A20007D55EF90105CEF00106E17F6FF1F130638
:102A30002660D5450145EF60901C03C5040085451F
:102A4000EF10D02EF2406244D24405618280930799
:102A5000100A638AF50263EBB7009307000A173583
:102A60000200130525446384F50282809307200A3F
:102A70006381F5029307300A1735020013054550AC
:102A80006387F5008280173502001305E5456F1056
:102A9000127A1735020013056549D5BF9C4189C7D5
:102AA00005476381E7088280411126C2171700207D
:102AB000130787539384450022C431462E843A85F8
:102AC000A68506C6EF10B2599716002083D6C651C8
:102AD000973702009387475E9DCA544110451735CA
:102AE00002001305A52E8A06B6978C43EF1092625A
:102AF0001C4489EB3146A685171500201305054EA9
:102B0000EF10F255B2402244924441018280584174
:102B1000173502001305052C0A07BA978C43EF10EE
:102B2000725FF9B783D7450081CFD04517350200D2
:102B30001305C529973502009385852A6F10925D8C
:102B4000973502009385C52917350200130585289E
:102B50006F10525C63920510411122C417140020BB
:102B600013044449B2852285514606C6EF10324F00
:102B7000173502001305C527EF10726B5C4017353F
:102B800002001305E5271397270097370200938764
:102B9000A757BA978C43EF10F2575C4417350200E1
:102BA0001305452713972700973702009387C752CD
:102BB000BA978C43EF1012569715002083C58544B1
:102BC0001735020013054526EF10D2540C40173577
:102BD00002001305A526EF10F25317350200130566
:102BE0002527EF10D26483478400858B99C717355A
:102BF000020013056526EF10926383478400898BDA
:102C000099C7173502001305A525EF1052628347B7
:102C10008400918B99C71735020013052525EF1005
:102C2000126183478400A18B99C7173502001305F1
:102C3000E524EF10D25F83478400C18B91CB2244FF
:102C4000B240173502001305A52441016F10325E12
:102C5000B2402244410182808280411122C406C6D2
:102C600026C24AC0937715002A84C1C3EF00F06DD5
:102C7000EF10323197370200938747359043D443A2
:102C8000EF10625FEF10322A938701869C4313078F
:102C900070252A89B307F5406367F70C9714002065
:102CA0009384C433DC40A1E39717002083D7073314
:102CB0009DCB8C44173502001305C531EF109245AA
:102CC0008C44970600009386C6D81716002003563A
:102CD000E630138501A4EF00101BAA85173502000A
:102CE00013058530DDE123A0218709883DC4EF006D
:102CF000D065EF101229973702009387272D904354
:102D0000D443971400209384E42EEF10C256EF10A2
:102D1000922193870186DC43130770252A84B30729
:102D2000F5406367F7061735020013052533EF10EA
:102D30001250970600009386C6D105468C40138535
:102D400001A4EF00007CAA8519C517350200130500
:102D5000A532EF10323C23A28186B2402244924435
:102D6000024941018280971500209385A528170606
:102D70000000130606CE138501A4EF00607EAA852D
:102D80003DD1173502001305A529EF10B238A1BFB8
:102D90001735020013058530EF10724997060000C1
:102DA000938626CB014659BF41111305800406C600
:102DB00022C497D0FF1FE780A02E91457D55EF00DC
:102DC000505A91457D55EF003064371400408327F9
:102DD000C40A93050002FD572326F40A0327C40CF6
:102DE00005452326F40CEF00906C85451305001073
:102DF000EF0090618327840C91451305002093E731
:102E000007202324F40CEF003060EF00F078174522
:102E1000020013056580EF109241EF10E019EF10EA
:102E2000C02B17050000130585E3EF00307E1385E6
:102E300001A45521631E050C9306000217160020FD
:102E40001306C6078145138501A4EF00007E6311B8
:102E5000050C93060002171600201306260A81456A
:102E6000138501A4EF00807F45E593060002171645
:102E700000201306A6148545138501A4EF00E07A0F
:102E800041E99306000217160020130626098D4516
:102E9000138501A4EF00607925ED93060002171653
:102EA00000201306A60F8945138501A4EF00E077E3
:102EB00025E1930600021716002013062608914507
:102EC000138501A4EF00607621E593060002171632
:102ED00000201306A6009545138501A4EF00E074B9
:102EE00005E99306000217160020130626099945E6
:102EF000138501A4EF00607301ED9306000217161D
:102F000000201306A6059D45138501A4EF00E0717E
:102F100017F5FF1F130545141134EF8031041134E8
:102F200097D0FF1FE780201779714AD006D622D4A8
:102F300026D24ECE52CC56CA5AC85EC662C4295951
:102F400051C2232405144147130445000F00500FBC
:102F5000AF27E444C18B4159B5E7130A8508B68908
:102F60003289AE8AAA8463150A00014491473DA8BC
:102F700085472300F00005448547054B894B130C1A
:102F800016001387D7FF6373EB02639A770583C735
:102F9000841223AC041291CB63098A062300040037
:102FA00005044204418023AC64138D470D475159F9
:102FB000639AE7004E86A28526855D2983A7841340
:102FC00023A2F414B25022544A8592540259F24971
:102FD000624AD24A424BB24B224C4561828033074F
:102FE0008A409147E36F87F922854A9442044180E1
:102FF0004A86D68597E0FF1FE780009D0504A30F52
:1030000004FE420441808947ADBF91479DBF032321
:10301000450A6303030002838280397122DC26DAC9
:103020004AD84ED652D456D25AD05ECE62CC66CA58
:103030006AC806DE6EC62A842E8DB2898144214A72
:10304000973A0200938ACA1F214B8D4B1309C5156D
:10305000130C850A930C851263E13403F250625419
:10306000D2544259B259225A925A025BF24B624CE4
:10307000D24C424DB24D2161828083278414636219
:10308000FA221397270056971843569702871387FB
:103090001400EA9483C704002326F41489CB8546E0
:1030A000638FD700A1472324F414BA8475B7232E65
:1030B0000414232E8413232044158547EDB7232EB3
:1030C000F4142320F414232E9413232C041489477E
:1030D000D9BFB3069D0083C7360003C726009104FD
:1030E000A207D98F03C7160083C60600C2072207AE
:1030F000558FD98F2326F41623247415B1BF0327C7
:103100008415FD4663E3E60293861400EA9403C641
:103110000400B305E4002388C51619CA0507232C4B
:10312000E4142324F414B68405BFA686A147D5BFB2
:103130008D47C5BF93861400EA9483C70400032714
:1031400004142322F416E3F3E7FE0327C4139207C3
:10315000BA97D8472324E4160327441461DB03C637
:10316000070091475DDE7D172322E4145DBFB3079E
:103170009D0083C7070085042310F4169547232478
:10318000F414D9BD938D1400EA9483C70400035747
:103190000416231A0414A207D98F032744162310F8
:1031A000F416931647000327C413369789CF835626
:1031B00087009D4789C65C4793B71700990723246A
:1031C000F414EE8451BD8347070081C7CA85228568
:1031D0003D3D03274414A1477DD38D47CDB703263A
:1031E00044168326C413035744151206B29683D699
:1031F00086006374D702835604166370D7021306E1
:103200001700231AC4148326841633069D00034630
:103210000600369785042300C7000327441683560B
:103220004415131647000327C41332970356041698
:103230006307D600035687007D166391C606834751
:10324000070091C783278416B6972380070083560B
:103250004415035704169D4763E2E604032744160A
:103260008327C4131207BA9783C7070081C7CA858B
:103270002285713B03274414A1470DC38D4739A80C
:1032800003574415835604166376D7000507231A9F
:10329000E414850403574415E302D7FC2324F414F3
:1032A00065BB232464154DBBCE847DB38547B395A0
:1032B000B7000F00500FAF27B544FD8D3335B00078
:1032C00082808547B395B70093C5F5FF0F00500F77
:1032D0002F20B564828001CD41111306001981456C
:1032E00006C6EFE0DFDCB24001454101828029558E
:1032F00082802300050023220500232405002326C5
:103300000500231805008280011126CA06CE22CCB2
:103310004AC84EC6A95441C5D9C1930945002E8952
:103320002A8489454E855937930480F82DE9034551
:103330000400232A2409014781460946C945EF6054
:10334000A06B2326A408930470F931C9894723157B
:10335000F40885472300F5008327C408130984086F
:1033600003C66185A38007008357C400034504009A
:10337000231804082314F408CA85EF606060AA8447
:103380001DC589454E85353FC9454A85EF60F02DFD
:10339000A685173502001305A5EFEF10A257F240DE
:1033A000624426854249D244B2490561828017357C
:1033B00002001305E5F0EF108267D5B7011126CAA8
:1033C00006CE22CC4AC84EC6A95441C5D9C19309DC
:1033D00045002E892A848D454E85C93D930480F889
:1033E0002DE9034504002322240B014781460946A9
:1033F000C945EF606060232EA408930470F931C9B9
:103400008947231DF40885472300F5008327C40955
:103410001309840903C66185A3800700835704014B
:10342000034504002310040A231CF408CA85EF6036
:103430002055AA841DC58D454E856135C9454A85EF
:10344000EF60B022A68517350200130565E4EF1082
:10345000624CF240624426854249D244B249056139
:10346000828017350200130525E1EF10425CD5B7C5
:10347000011122CC26CA4AC84EC606CE2A84130998
:10348000450103450500AE84B28901472E86814679
:10349000C945EF60605608CC35C183578400268645
:1034A000231B9400231AF4009305440223203403C1
:1034B00097D0FF1FE780405103450400231E0400FE
:1034C00003C66185CA85EF60A04BAA8405C19145FA
:1034D00013054400FD33C9454A85EF601019A685E0
:1034E00017350200130505D8EF10C242F2406244BE
:1034F00026854249D244B24905618280930470F91D
:10350000F5B7011122CC26CA2A84AE841105914553
:1035100006CE32C636C4593B15ED894732462302E2
:10352000F40293970401A3029402C183C180A30310
:103530009402A183A18023049402A304C402A2469E
:103540002303F40222856244F240D2443686994530
:10355000056139BFF2406244D24441550561828021
:10356000D841894763EBE70AD845AD4763E7E70AE7
:10357000011122CC26CA06CE2A84232405148441B4
:103580001105914532C61D3359E993970401A302F1
:103590009402C183C1803246A183A3039402A18017
:1035A00013084402232C0412230204022303F4020E
:1035B000230494029306840A954501470943A148D0
:1035C00083C706009DCB3305B8002300E500130533
:1035D000F7FF93871500636CA30003D58600C2979D
:1035E0002380A7002181A380A7009387350083252E
:1035F00084138505232CB412BE850507C106E3118B
:1036000017FD832784132285F2402322F414624499
:10361000D244C205C1810561A1BD7D558280F240C1
:103620006244D244415505618280A95715C50DC633
:103630001387F6FF420741837D48636FE8001D470B
:10364000636CB70092052E9585472304F50A23186D
:10365000D50A232AC50A81473E858280A95715C10C
:103660000DC21387F6FF420741837D48636BE80074
:1036700089E985472304F5122318D512232AC51298
:1036800081473E8582806FF03F8A0356850093878D
:1036900001A30147A14683D507006389C50005073B
:1036A0001377F70F8907E318D7FE8280797106D662
:1036B000AA8719C795466305D70AB250456182802B
:1036C00083D6A700138501A42147032845096388F1
:1036D000E600E30408FE7000A9550298F9BFD84738
:1036E000834741010345070093F7C70F2AC8834664
:1036F000170093F5160013F62600CD8FD18F93F5A2
:10370000460093F7370F13F68600CD8FD18FC18A0D
:10371000BD9BD58F230AF10003462700FD5532CC0F
:1037200083473700230EF100834777008346670005
:10373000A207D58F8346570003474700C207A2065A
:10374000558FD98F3EC6894763E6A7001336C6005A
:103750009305F6FFE30308F67000138501A4B5BFD7
:103760000356A5004C45138501A4EFF01F8BB1B79C
:10377000CC41411106C6328503C6150083C505003C
:1037800022064D8E42068D654186138875A2630C14
:10379000060F6348C804138845A26306060B634AF4
:1037A000C800938535A26309B60623900600294612
:1037B00079A0138855A26308060B938565A2E316CA
:1037C000B6FEC1451D4663ECE5064546198E63F31A
:1037D000C7003E862390C60097350200938545B109
:1037E00089A8138895A26300060F634E060B138801
:1037F000A5A2630A060F938505A5E318B6FA9945B5
:103800001D4663EEE502198E63F3C7003E862390E2
:10381000C6009385018131A89D451D4663E1E502FF
:103820002146198E63F3C7003E862390C600938518
:103830008186BA9597D0FF1FE78000190146B240F4
:10384000328541018280AD451D46E3EAE5FE314601
:10385000198E63F3C7003E862390C6009735020099
:103860009385C5ACF9B7B1451D46E3EAE5FC35469D
:10387000198E63F3C7003E862390C6009735020079
:103880009385C5AB7DB7C1451D46E3EAE5FA4546DC
:10389000198E63F3C7003E862390C6009735020059
:1038A000938545A679B7C1451D46E3EAE5F8454647
:1038B000198E63F3C7003E862390C6009735020039
:1038C0009385C5A8BDB7C1451D46E3EAE5F6454663
:1038D000198E63F3C7003E862390C6009735020019
:1038E000938585A3B9B7B5451D46E3EAE5F43946A6
:1038F000198E63F3C7003E862390C60097350200F9
:103900009385059E3DB797F6FF1F9386A68841468F
:10391000CD4517E5FF1F1305E5746F80D064B71719
:10392000004003C777051377E70FA38BE70413075E
:1039300000F8A38DE7043D47238CE70413075003E9
:10394000A38CE704828041112A83014E930E407EAE
:10395000130F0019930F400663E66E1493080019C5
:1039600013034006B3781503854E0D4FA14F3373F3
:1039700065020D891335150063E0BE161308F6FFC6
:10398000794672984208135808013307C70213D6C4
:103990001700BE0732976146B3F6C6021306807061
:1039A000B386C6023697A166F58F42075D8FB716BC
:1039B000004083C7F60293F70708A307F100034608
:1039C000F10083C7F60293F70708E394C7FE834725
:1039D000F100B716004093F7F70F63890714F32738
:1039E0000080A18B93860187639807140100010072
:1039F000B7170040130670052380C704130680FA2A
:103A00002380C7040100010023AA070303C617038C
:103A100013660608A388C702238007047326008064
:103A20009C42A18BD18F7390078023A8018601004F
:103A300001001166B71500407D16DC59C85DA98FDD
:103A4000F18FE5FFF3270080A18B89CBF32700805E
:103A500023A8F1869C42DD9B739007800100010042
:103A6000B7170040130670052380C704130680FAB9
:103A70002380C70401000100D8DB03C717031367C5
:103A80000704A388E70223800704732700809C4271
:103A9000A18BD98F7390078023A8018601000100B4
:103AA000410182807D133368E3039308E016630EBF
:103AB00008003368F3039308D0166308080093786E
:103AC000330093B818009388D81633081E01131ECC
:103AD0000801135E0E0149B56393E503054863864B
:103AE00008000148630303002A8871087298FD15D5
:103AF000131E0801C205135E0E01C181B5BD13F886
:103B0000150063F4BF007908D5B713381800E5BF76
:103B100083C7F60293F70708A307F1000346F100F5
:103B200083C7F60293F70708E394C7FE8347F100C3
:103B300093F7F70FF1DF65B5F327008023A8F1862F
:103B40009C42DD9B7390078055B54111B71700402B
:103B5000985F3AC6945F3247E39CE6FE32454101E6
:103B60008280914763EEB702172702001307477F51
:103B70008A05BA959C41BA978287B717004003A778
:103B8000470B1345F5FF698F23AAE70A03A7070B25
:103B9000698F23A8E70A03A7070A798D23A0A70A3C
:103BA0008280B717004083A6470B1347F5FFF98EB5
:103BB00023AAD70A83A6070B558D23A8A70A83A695
:103BC000070A758F23A0E70A8280B717004003A772
:103BD000470B498F23AAE70A03A7070B1345F5FFF5
:103BE00045BFB717004083A6470B1347F5FF758FF6
:103BF00023AAE70A03A7070A598D4DB7B717004054
:103C000003A7470B498FEDB7914763EEB70217271C
:103C10000200130727768A05BA959C41BA978287D6
:103C2000B717004003A7470D1345F5FF698F23AA77
:103C3000E70C03A7070D698F23A8E70C03A7070C60
:103C4000798D23A0A70C8280B717004083A6470D6B
:103C50001347F5FFF98E23AAD70C83A6070D558DC0
:103C600023A8A70C83A6070C758F23A0E70C8280DE
:103C7000B717004003A7470D498F23AAE70C03A7F6
:103C8000070D1345F5FF45BFB717004083A6470D45
:103C90001347F5FF758F23AAE70C03A7070C598D6F
:103CA0004DB7B717004003A7470D498FEDB7B717BA
:103CB000004003D7870109C5D98D239CB7008280B6
:103CC00093C5F5FFF98DD5BFB717004003D5870021
:103CD000420541819377050491EB9377F5013755C0
:103CE000E801130505803345F50282809377050CC2
:103CF000130700046397E7009377F50137459C1C91
:103D0000CDB72165130505D08280B7F700E088475D
:103D1000CC478280814737370040A14663C4C70043
:103D2000328582800345B740E38EA6FE3385F500D9
:103D30000345050085072304A740CDB79387C181BC
:103D40009C43170700201307A76A3E95636CE500A4
:103D5000174700201307070B6366A70023AEA18057
:103D60003E858280FD57EDBF411122C406C62A84DC
:103D7000A13F2947B307E502B2408D83B3D787023D
:103D800022449507B3D7E70237370040C207C18303
:103D90002316F7404101828071654111130505200A
:103DA00006C6D937B7370040130770F82381E740BC
:103DB0000D47A381E74013070004A380E7400547B0
:103DC0002387E740B24041018280238A018623ACE9
:103DD0000186B717004003A7070CB706C0FFFD1602
:103DE000758F23A0E70C03A7070DB7064000558F7A
:103DF00023A8E70C03A7070C3D9B23A0E70C03A710
:103E0000070D1367070123A8E70C828023ACA18666
:103E100013064006894503C5C1876F00F007B71731
:103E2000004003A5470C83A7470C59811345150093
:103E3000C18B058999E31365250083C74187638C8E
:103E4000A700238AA18601C99387818703A307005E
:103E50006303030002838280411193962500AA85A3
:103E60002D4506C697C0FF1FE780607FB240014521
:103E700041018280411126C29394250022C44AC088
:103E80002A843289A686AA850146254506C697C09A
:103E9000FF1FE780C07CA6864A86A285294597C079
:103EA000FF1FE780C07BB240224492440249014593
:103EB00041018280011122CC06CE3714004026CA6F
:103EC0004AC84EC652C483447405034AB4058349A4
:103ED000840503499405EFF09FA48347A40593F458
:103EE000F40F137AFA0F93E71700230DF40493F9F4
:103EF000F90F1379F90FB717004003C7A705058B12
:103F00006DFF03D5C705A38D4705238C3705A38C0B
:103F10002705A38B9704F2406244D2444249B24938
:103F2000224A0561828041119397050122C406C689
:103F3000C1872E8463D80700D52411C1BD24216513
:103F4000218D1DA093F7150013C5150091EF93F770
:103F5000250099CFE9351306000A894503C5C187B5
:103F6000EF00807313452400B24022444101828057
:103F70009397250163DF0700EF10312C37F602001D
:103F8000130606E0896503C5C187EF00E070096587
:103F900045BF939715010145E3D807FC172502009B
:103FA00013050543EF00B22813060064916503C5AD
:103FB000C187DD25116569B71D7149469725020046
:103FC0009385853C172502001305056586CE97D09D
:103FD000FF1FE78060A801E9172502001305053CD3
:103FE000EF00F22401A0B7F600E0795798CAFD5718
:103FF000DCCA0567B7E700E023A0E7101306F0026C
:1040000090C223A0E718010001001306C0038145F8
:10401000480897D0FF1FE780A09E97E7FF1F938770
:10402000E7693ECA896793870780231CF100A1676F
:10403000938707E03ECEB7070105938707103ED070
:10404000ED472312F10285472303F1029707000091
:104050009387C7E0BEC4970700009387E7E1BEC619
:10406000B7F5070097070000938767CA35473EDA20
:10407000814697070000938727E47000E105194502
:104080002304E102A305E1023EDE97C0FF1FE780A3
:10409000005D58088147994670003E960346060029
:1040A00085070507A30CC700E398D7FED24791C741
:1040B0000357810185676373F70001A04808EF008B
:1040C0003032AA8501C9172502001305652EEF00BD
:1040D000720401A0F640256182804111170500009D
:1040E0001305A5E406C622C4EF00102C1384C18773
:1040F0002300A4002928D139034504002244B240FA
:1041000037F60200130606E08965410171A34111EB
:1041100006C6F3270080A18B9386018789CBF327FE
:10412000008023A8F1869C42DD9B739007800100EC
:104130000100B7170040130770052380E704130739
:1041400080FA2380E7040100010003C7F702136728
:104150007700A387E70223800704732700809C422F
:10416000A18BD98F7390078023A8018601000100DD
:104170001305407E81470147814605468545EFF09E
:104180008FFCB240014541016F00F05923AC05FEA0
:104190001C4191E7010001000CC18280BA8703A78E
:1041A00087FF6DFF23ACB7FE82801DC18346E5FF0C
:1041B0001307F00F9147639EE600411106C697D0A2
:1041C000FF1FE7800064B24081473E854101828045
:1041D00095473E85828001E9014582800145B240D4
:1041E00022444101828095654111938505D022C406
:1041F000C98D2A842105C2054205C181418106C6B7
:1042000097D0FF1FE780805371D9FD572320050009
:10421000231285002303F5002105D1B713874188B8
:104220001C43411122C426C24AC006C601440149AA
:10423000BA8489E7A165952D0DC401A803C7E7FFDE
:104240006318A7021DC8A165D5249840832784FF61
:104250006317E40223A2F188FD57232C04FE230FE9
:10426000F4FE2285B24022449244024941018280F8
:1042700011E03E8983A787FF6DBF3E84E5BF232CF5
:10428000F9FED9BFA1CD411122C406C62A849707E1
:10429000002083C737DB2E856375F400894763E808
:1042A000870021370D45B24022444101828083A717
:1042B00085FF99E703C7E5FF9307F00F6305F70054
:1042C000ED351545CDB7238F85FE138541887D3D9E
:1042D00022852244B240A165410189AC1545828006
:1042E00023A2018882809387C1899C4399E33E85FC
:1042F000828003D727006316B70003C70700E308CF
:10430000A7FEDC47E5B7BDCD797122D406D626D20B
:104310004AD04ECE01444147B3D78540858BB1CFBB
:104320001205314722953305E5029387C18803A919
:1043300007008544B3948400C204C180BE892A99D1
:104340000327090011C7032549002EC60297B2456D
:1043500031473304E40283A709003E941C4489E7F3
:104360002320090023220900B2502254A58D0259AE
:104370009254F2492E85456182800504E31EE4F8DB
:104380008144DDB72E85828041111397050122C437
:1043900006C626C24AC041872E84635E0700BD3D23
:1043A00011C12135A1673D8C2285B240224492443F
:1043B000024941018280EDD9AA8701474146B3569F
:1043C000E440858A9DCA9207BA97B146B387D7025F
:1043D0009386C18803A906008544B394E400C2040F
:1043E000C1803E9983270900032549008297232035
:1043F000090023220900258C45BF0507E311C7FCEE
:104400008144D5BF97070020938707C09C53411173
:1044100022C406C61384018299C782971C403E9528
:1044200023A0A18229A0938741899C43FDF70840DE
:10443000B74703009387D73F3305F502B7A7260098
:10444000938737ECB24022443E9523A0A1824101DC
:10445000828079C9938741899C43797122D426D27D
:104460004AD04ECE52CC56CA5AC806D65EC63A8AF2
:10447000B689328BAE8A2A8982979387C1889843FE
:10448000BE840144B146C147B30BD4023306770161
:10449000104251E6C165938505F0414597D0FF1F55
:1044A000E780C0291DE5970700209387E7B59C5B4F
:1044B0002D4589C71145814582972D45B25022541B
:1044C00092540259F249624AD24A424BB24B456178
:1044D00082809387C18998431DEF23AEA188230072
:1044E00005009C4005473317870023260500232439
:1044F00065012311E50023224501DE9723A0270152
:1045000023A2570123A447010145E38909FA238027
:1045100089006DB73E875C47F5FF48C7C9B70504FA
:10452000E314F4F6214559BF09458280970700201E
:1045300083C757B1637FF5001387818893171500F0
:1045400008433E9583570500DD8D2310B5000145D6
:1045500082800D4582809707002083C7B7AE6371C4
:10456000F5021387818893171500084393C5F5FF5B
:104570003E9583570500FD8D2310B50001458280CF
:104580000D458280130705FF1377F70FFD4763E59D
:10459000E70AB146B306D5029387C1889843894795
:1045A0003697184359CB011122CC4EC60544935976
:1045B00045003D893315A40013140501418026CA26
:1045C0004E85AE84A2854AC806CE313B2A898147F2
:1045D00021CDA2854E854137938741899C4382979F
:1045E0009707002083D7C7AA338797022A8481467A
:1045F00013060064B3B7970213050732B335E5001D
:10460000BE95EFF0D10DB307850097060020938685
:10461000A6A73E87D44263E4A70063E4D7003387AC
:10462000D7402324E9008147F2406244D244424902
:10463000B2493E850561828089473E8582800111AD
:1046400026CA06CE22CC4AC84EC6BD47894463ED71
:10465000A70231473307E5029387C1889C43894409
:10466000BA979C4395C305443314A4004204418087
:104670002E890145A2858539AA89814411C5A28563
:104680000145D13D23A42901F240624426854249D7
:10469000D244B249056182809707002083C7979A68
:1046A0006364F5000145828001119387418956C2F8
:1046B00083AA070006CE22CC26CA4AC84EC652C4D8
:1046C000638D0A0A170A0020130A0A9C83244A00F1
:1046D000B74736FE938707C8AE899705002083D574
:1046E000259BBE94B387C5022A8432898146B3B51F
:1046F000C50213850732B337F50013060064BE9573
:10470000EFF0E17D63EBA406829A9705002083D544
:104710002598B3872503AA84130600648146B3B5A0
:10472000250313850732B337F500BE95EFF0217BE3
:10473000B3079500BE8403274A0063E4A70063E43F
:10474000E700B384E740CE852285713E01C504C5EC
:1047500005452DA0936504F0C205C181414597D060
:10476000FF1FE780A0FD05E5970700209387C78915
:104770009C5B81C7A285114582970145F240624446
:10478000D2444249B249224A924A056182809387C3
:10479000C1899C438DE323AEA1888547232605006C
:1047A00004C52311350123008500A300F500232251
:1047B000050079BFBA87D84775FFC8C7F9BF49C98F
:1047C000797122D426D24AD04ECE52CC56CA5EC679
:1047D00062C466C206D65AC83689328AAE89AA84AD
:1047E0004144314C938AC188854C930B0003330BB1
:1047F000840303A70A005A971C43B1E79375F4009A
:10480000B395BC0013554440C2055286C18113754F
:10481000F50F59350DC983A70A000145DA9784C3FE
:1048200023A237016304090023008900B2502254F7
:1048300092540259F249624AD24A424BB24B224C3C
:10484000924C456182800504E31374FB2145F9BF56
:1048500009458280411122C426C24AC006C62A8464
:104860002E89B284153DCA852285EFF0DFA705CDDC
:104870009705002083D5C581B38795022A84130646
:1048800000648146B3B5950213850732B337F5004E
:10489000BE95EFF0C16448C00145B2402244924445
:1048A0000249410182802145CDBF411122C426C267
:1048B0004AC006C62A892E84EFF0FFA2AA8419C135
:1048C00023110500A2854A85793197F7FF1F83C719
:1048D00067776397270183D701895D8C2398818847
:1048E000014591E01945B2402244924402494101F8
:1048F00082809307F00263E6A7044111B14722C406
:104900003304F50226C29384C1889C4006C6A29750
:10491000984389470DC39377F5008545B395F50016
:10492000C205C181118151379C40A29723A0070085
:1049300023A207008147B240224492443E854101B0
:10494000828089473E858280411106C622C4EFF0ED
:104950009F9911E50145B24022444101828093872D
:1049600041899C430045829797F7FF1F9387C77142
:104970006368A402D843B74636FE938606C833055B
:10498000A4403697E378E5FC13070064B335E502ED
:1049900003D6870081463305E502EFF0415465BF39
:1049A000D8433A94C1BF411122C426C217F4FF1F55
:1049B0001304846D97F4FF1F9384C468944858408F
:1049C0009387418906C69C43639FE60682975440BD
:1049D000B74736FE938707C8B6973387A7003A854F
:1049E0006364F7006364D7003305D7409704002061
:1049F000938444819C4C91CB9387C1979443370710
:104A0000CDFF7D179C46F98F9CC611E1484097F772
:104A1000FF1F9387675FDC53829719E59C4C99CF02
:104A2000EF10A115EF00417F9C4C89CB9387C19774
:104A30009843B70633001C47D58F1CC7B2402244A9
:104A40009244410182808297984897F7FF1F83C75D
:104A5000F75C54401D8FB307A7003E8563E4E70071
:104A6000E3E6D7F83385D74051B7411106C623ACEA
:104A7000A1880295B24097F7FF1F23A1A75E0145C9
:104A800041018280994763E9B7008A0597F7FF1FC4
:104A90009387C75DBE9588C182804111714681456B
:104AA00017F5FF1F1305855C06C623AE018823ACEE
:104AB000018823AA018897C0FF1FE78060F41306CE
:104AC0008002814517F5FF1F1305C55797C0FF1FCB
:104AD000E78000F3EF60D15197F7FF1F83C737548A
:104AE00013D527008D8B3E958D473305F5028545FF
:104AF00039051375F50F97F7FF1F2386A7549947BC
:104B00003305F5021305052497D0FF1FE78000C386
:104B100023A6A18859C5994717F6FF1F0346A65239
:104B20003306F60281451306062497C0FF1FE7806F
:104B300020ED9387C1889C439387072423A0F18AA3
:104B400017F7FF1F034727500A07BA9723A4F188D6
:104B5000EFF00FF905239387018A944397F7FF1F1E
:104B600083C7574E13972700369717F6FFFF130694
:104B7000C67910C3138717001377F70F0A07369704
:104B8000170600001306868010C3138737008907B5
:104B900093F7F70F8A0797F5FF1FA385E54AB697A6
:104BA00090C3B2404101828097F7FF1F83C79749A6
:104BB00017F7FF1F0347274963F1E7021387018AAD
:104BC00018439386170017F6FF1FA30DD64693963A
:104BD0002700369708C33E8582809307F00FE5BF14
:104BE0001C416388071641777D8FB70600208947EF
:104BF0006312D71603574500630E0714411122C4F0
:104C000019462A849305F00F690506C697C0FF1F51
:104C1000E78020E905478D476308E5121C4481CBF6
:104C20005858994763020712185C630F0710130660
:104C3000C003814517F5FF1F1305053D97C0FF1FF2
:104C4000E78000DC1306C003A28517F5FF1F1305DC
:104C5000A53B97C0FF1FE78020D717F7FF1F03571B
:104C6000673B97F7FF1F9387273A19E71307001051
:104C700097F6FF1F2390E63A17F7FF1F0347A73960
:104C800011E7054797F6FF1F2387E63817F7FF1F41
:104C90000357873811E76D4797F6FF1F239EE636C7
:104CA00017F7FF1F0347373711E7154797F6FF1F21
:104CB000A383E63617F7FF1F0347273611E705479B
:104CC00097F6FF1F238BE63417F7FF1F0347F734D0
:104CD00019E703C7F70097F6FF1FA380E63417F71D
:104CE000FF1F0347A73311E7354797F6FF1F2387B9
:104CF000E63217F7FF1F0347B73219E713078002A1
:104D000097F6FF1FA38EE63017F7FF1F03471731F3
:104D100019E71307D00297F6FF1FA381E630034778
:104D2000840119E71307C00397F6FF1F238AE62EB5
:104D30009C5791C7829797F7FF1F2399A730FD577C
:104D4000A385F19E993B8147B24022443E854101B3
:104D5000828089473E85828001114EC697F9FF1FE8
:104D60009389893283A7090006CE22CC26CA4AC875
:104D700052C4829713090064B335250303DA89000E
:104D80008146528633052503EFF0611597F7FF1F23
:104D90009387472B804FAA8401456306940233858D
:104DA0008440636E940003A5490052868146B33562
:104DB000A9023305A902EFF08112018D269597F71C
:104DC000FF1F23AD9728F2406244D2444249B249C2
:104DD000224A05618280011122CC0A852E84414637
:104DE00097150200938545DD06CEEFF05127180890
:104DF00006043A94035504FF97F7FF1F83D76729EA
:104E0000F2406244AA9737450F0013050524335535
:104E1000F5020561828097F7FF1F83D787275147E7
:104E20001D45637CF702794719456378F70213073C
:104E3000200315456373F7021307B0041145637E21
:104E4000F700130740060D456379F7001307600963
:104E500009456374F70013B5B70F8280011122CCA6
:104E600006CE2A842EC6EFF0EFD9B245F240818DEE
:104E700033A5A502229562441375F50F0561828062
:104E8000011122CC06CE2A842EC6EFF0AFD7B24550
:104E9000F240818D33A5A5022295624442054181ED
:104EA00005618280011122CC06CE2A842EC6EFF045
:104EB0006FD5B245F240818D33B5A502229562448B
:104EC0000561828097F7FF1F93870714985739CBA6
:104ED000411122C426C206C6BE84029717F7FF1FDF
:104EE0000357C7162A8415CBBA876373A700AA870E
:104EF000C207C183BA866373E400A286C206C18278
:104F0000958F5147635BF700DC5491C38297EF00A4
:104F1000D13297F7FF1F239B8712B240224492445D
:104F200041018280828097F7FF1F9387E70DDC574E
:104F3000011106CEAA8581C72AC68297B245D1C182
:104F40009C410545A5CFDC41B5CB83D78500BDC7C6
:104F500083D7A500A5C783C7C500ADE3414617F5B4
:104F6000FF1F1305651297C0FF1FE780E0A597F7A5
:104F7000FF1F938767119C4323AAF18897F7FF1FB0
:104F800083C7170A8DE79307800217F5FF1F0355A4
:104F900025103305F50237460F0013060624814617
:104FA0008145EFE0D17397F7FF1FA38BA706170585
:104FB00000001305A5DAEFF05FAB0145F240056193
:104FC000828097F7FF1F83C7870513978701618743
:104FD0006354070497F7FF1F23A4070897C7FF1F11
:104FE000938747DF17F7FF1F2320F70A7D5797F7AF
:104FF000FF1F23ADE708B7873200938727A197F6F5
:10500000FF1F23A7F60897F7FF1F23850708B7C7D9
:10501000004023A4E726A1BF13F7170005CFB787E9
:105020002003938707D017F7FF1F2323F706B7073F
:10503000C0A817F7FF1F232BF70497C7FF1F9387FD
:1050400087DC17F7FF1F2321F70497F7FF1F238340
:10505000070431BF617797F6FF1F239BE60281CBE0
:105060009307003217F7FF1F2315F702C9B79307FD
:105070002003CDBF011122CC17F4FF1F1304C4F885
:10508000084406CE26CA4AC801E90545F2406244F2
:10509000D2444249056182805C58E5DB185C75D7D3
:1050A0007000854582971844B247E300F7FE9305E8
:1050B000E00417F5FF1F0355E5F597C0FF1FE780D4
:1050C000E06717F7FF1F232FA7F861D117F6FF1F1F
:1050D000035646F49305F00F97C0FF1FE7804092F8
:1050E000814417F9FF1F1309E9F597F7FF1F83C7DD
:1050F00087F20326090263C1F402328597C0FF1FBD
:10510000E7802070014597F7FF1F23AD07F497F75D
:10511000FF1F23AB07F49DBF97F5FF1F83D585EFD6
:10512000B38795020844185C898185043E9508C2BE
:10513000029765BF011156C297FAFF1F938ACAEC06
:1051400083A78A0022CC4AC84EC606CE26CA52C4BD
:105150005AC0AA892E8432896385072203A74A038D
:10516000630707147D476366A71497F4FF1F9384B2
:1051700064ED03AA040263170A0A9565938515E096
:1051800017F5FF1F035505E997C0FF1FE780005B78
:1051900097F7FF1F23A8A7EC2A86630A051083A7A9
:1051A0004A0303A58A0097F5FF1F83D5A5E68981E9
:1051B000829783A78A0003AA040217F7FF1F2325FB
:1051C000F7EA8947639CF908C1476312F40E97F523
:1051D000FF1F83D525E4938505FC9147B3C5F502F0
:1051E0008A05D29503C705009307A005631DF70A3A
:1051F00083C715006399370B4A852286910597B0BE
:10520000FF1FE780607C9C505285639347150145E2
:10521000F2406244D2444249B249224A924A024B85
:1052200005618280D850E38EE7F89565938525E087
:1052300017F5FF1F035505DE97C0FF1FE7800050DD
:105240002A8A35C52A8683A74A0303A58A0097F5CB
:10525000FF1F83D525DC89818297A5B78D47639D84
:10526000F900C1476315F40497F5FF1F83D585DA6C
:10527000938545FDF199B5B79147639AF900631895
:10528000340397F5FF1F83D5E5D8A115E5B7C147CE
:10529000639FF900A14763EC870097F5FF1F83D553
:1052A00065D7C115C1BF9C5052856397470D2945ED
:1052B00085B71307F006568B6361A70A130A05FE2C
:1052C0001947334AEA0217F7FF1F0357A7D497FA83
:1052D000FF1F938A2AD7330AEA023E9A83A74A021B
:1052E0006395470183A40A029DE49305E00417F542
:1052F000FF1F035525D297C0FF1FE7802044AA84D3
:105300005DD583274B0397F5FF1F83D5A5D02A864C
:1053100089815285829791451307A00589819397CA
:105320002500A69783C607006393E60483C617008B
:10533000639C360385058A052286A6954A8597B023
:10534000FF1FE780606883A70A02E38297EC268547
:1053500097C0FF1FE780E04A5DBD1307E007E368E1
:10536000A7F4130A05F985B783D5270045BF83A79E
:105370000A02E38E97F2268597C0FF1FE7806048F8
:105380003DB797F7FF1F9387E7CB8C538DD191479C
:105390009306A0058983139727002E9703460700DD
:1053A000E317D6F003461700631C360185078A070A
:1053B0002286BE954A8597B0FF1FE780E06081BDD9
:1053C00083572700C1BF97F7FF1F9387E7C398470D
:1053D00039C79C5FA9C705476313E504411122C47F
:1053E00017F4FF1F130404C6105006C60DC648501C
:1053F00097F5FF1F83D505C289818297085097C012
:10540000FF1FE780004097F7FF1F23AD07C497F702
:10541000FF1F23AB07C4B240224441018280828037
:10542000011117F7FF1F130727BE4EC683298700F8
:1054300022CC26CA4AC806CE52C456C2AA842E849A
:105440003289638A09201C5FBA8A99EB2945F240A8
:105450006244D2444249B249224A924A056182805A
:105460005C5BEDD7FD4763E9A70E97F9FF1F9389B2
:1054700069BD83A70902B1CB03A58A0083A74902AE
:105480006395A70689476393F408C147E310F4FCCA
:1054900017F5FF1F035505B89147130505FC334564
:1054A000F5029317250003A509022286CA853E95B9
:1054B0009307A0052300F500A3009500110597B000
:1054C000FF1FE7806050014559B79305E00417F5C9
:1054D000FF1F035525B497C0FF1FE780202697F7CD
:1054E000FF1F23A1A7B849F995B783A74A0303A6CD
:1054F000090297F5FF1F83D5E5B18981829783A7BC
:105500008A0017F7FF1F2321F7B6ADBF8D47639EB3
:10551000F400C147E31CF4F217F5FF1F035585AFF4
:10552000130545FD9377C5FFBDBF9147639AF4000E
:10553000E31E94F017F5FF1F0355C5AD2115DDB728
:10554000C147E395F4F0A147E3E287F017F5FF1FA9
:10555000035545AC4115F9B79307F00663EAA70672
:10556000930705FE1947B3C7E70217F7FF1F035755
:1055700067AA17FAFF1F130AEAACB387E702BE99BE
:1055800083270A02A9CF83274A02639A3707032594
:105590000A0291461308A005FD5593D72600C207BD
:1055A000C183139727002A9703460700631D060748
:1055B000834817000356270063959806B306D64024
:1055C00063CF860485078A072286CA853E95C5BDB6
:1055D0009307E007E3ECA7E6930705F979B793058E
:1055E000E00417F5FF1F0355E5A297C0FF1FE780F2
:1055F000E01497F7FF1F23A7A7A651F581BD83A746
:105600004A0303260A0297F5FF1F83D5A5A08981C7
:105610004E85829797F7FF1F23A837A58DBFA3005C
:10562000B700B2869DBFB385860017F6FF1F0356ED
:10563000669E9105130606FCE3FAC5E013063400E6
:105640001376C60F1106B29623000701A300970038
:105650002311D70085BF97F7FF1F9387A79E945309
:10566000BE89A1C203A5090291461308A005FD55F4
:1056700093D72600C207C183139727002A970346B2
:105680000700631606058348170003562700639832
:105690009800B306D640E3D786F2A300B700B286DF
:1056A000C1BF8357C70017F5FF1F0345C596930574
:1056B000E0043305F5024205418197C0FF1FE780F2
:1056C000E00797F7FF1F23AFA79849FD41B317F6EF
:1056D000FF1F0356269497F5FF1F83C5C593B38517
:1056E000C502338686001106E3E2C5D681BF0145B7
:1056F0008280011106CE2EC6EF90C03401C9B2459A
:10570000F2400355250005616FD06047F2404945DE
:1057100005618280A386018C2386018C23AA018ADD
:1057200023AC018A23AE018A23A0018C23A8018A1D
:1057300023A6018A97F7FF1F9387079637068403EE
:105740003707B40090D337C6070098C3130606B8CE
:105750003747A000D8C3D0D337071000416693065F
:10576000070AB70550009308060194C723A417033E
:1057700093860501930816F8D4C723A61703B70626
:10578000D007B7087F0013080705138506014107F6
:1057900023A81703B0C39308160093860605138643
:1057A0001500D8CBF8C323A8070188CF23AE070084
:1057B00023AA170323AC070223AE070223A407047E
:1057C000F0C7B4CB23AA0704ACCF23AE0705B8D3E8
:1057D0003707A000F8D71307000AB8DB1307C01C6F
:1057E000F8DB37071400B8DF0547F8DF130710F8B8
:1057F000E8D323A4070623A0070823A2E708828092
:10580000011126CAAA84214522CC06CE2E8432C696
:1058100036C43AC2EFE03F9C1DC9A2461247324649
:10582000930700FD2300F5009947A300950023018D
:10583000F5002303D500A303E5002312C500AA85C4
:1058400022856244F240D24405616FE0BFA3F2407A
:105850006244D2440561828023AAA18A828023AC5B
:10586000A18A828023AEA18A828023A0A18C82801B
:10587000011122CC4AC806CE26CA2A890144B304A3
:1058800089006368B400F2406244D2444249056131
:1058900082802EC6EFE01FB793170501C183A18355
:1058A000B2452380F4009307140093F7F70F8504A3
:1058B00063F9B700CA9709042380A7001374F40F93
:1058C0007DBF3E847DBFC16717F5FF1F0355A585CA
:1058D000FD176304F502411117F6FF1F0346C69139
:1058E0009385418C06C6EF80F074B240FD5717F7E0
:1058F000FF1F231AF78241018280828009C9251582
:105900001375F50F1335850E13451500828001457B
:10591000828023900500C9C6797122D426D24ECE4A
:1059200052CC5AC806D64AD056CA5EC63684328A87
:10593000AE892A8B814463F34407B307940083C77D
:105940000700138914004209939A070193DA0A01A8
:105950001359090163840A04CA976341FA04B3071F
:10596000240183CB07005E85513F0DC99387FAFF61
:105970002390F90063906B03130519002295B25030
:10598000225492540259F249624AD24A424BB24BD3
:1059900045618280D694C204C18071BF0145C5B7FC
:1059A00001458280411126C2AE8422C497E7FF1FC1
:1059B00023A2C77897E7FF1F23ACB77697E7FF1FAF
:1059C00023A6A7762A8441469305F00F26854AC070
:1059D00006C6054997B0FF1FE780A00C6310250598
:1059E00097E7FF1F9387C773884BC14551354146E1
:1059F0009305F00F228597B0FF1FE780800A85444A
:105A000063189502224497E7FF1F93876771B2409E
:105A100092440249C847C145410199BD414681456B
:105A2000268597B0FF1FE780C007E31225FD4DBF15
:105A300041468145228597B0FF1FE7808006E3033A
:105A400095FCB240224492440249410182804111B6
:105A500022C426C22E84AA8413060002814517E5BB
:105A6000FF1F1305E56B06C697B0FF1FE78040F9DF
:105A700097E7FF1FA387976A97E7FF1F2380877821
:105A8000EFD02012854719C181474945B2402244D1
:105A900017E7FF1F2306F768924441018280814780
:105AA00081CD19C98547631BF50083C7550093E76E
:105AB00007FCA382F50085473E85828089476317EE
:105AC000F50083C7550093F7F703E5B70D47854702
:105AD000E314E5FE03C755001377F70313670704C4
