:040000006F20C009A4
:100004000000000000000000900000208A0400208E
:10001400A9BDF9F5900000200000000000000000D8
:10002400900000209000002000000000000000006C
:10003400900000200000000090000020000000005C
:1000440090000020900000209000002090000020EC
:1000540090000020900000209000002090000020DC
:1000640090000020900000209000002090000020CC
:100074007E050020900000209000002090000020C9
:1000840090000020900000209000002090000020AC
:1000940001A073270080218B9387818309CB732769
:1000A400008023ACE18298435D9B731007800100BC
:1000B400010037170040930670052300D704930608
:1000C40080FA2300D704010001008346B70493F6A5
:1000D400F60DA305D7042300070473260080944378
:1000E400A18AD18E7390068023AC018201000100A5
:1000F40093760502638406180347A700118B25E74E
:1001040073270080218B09CB7327008023ACE18205
:1001140098435D9B7310078001000100371700406E
:10012400930670052300D704930680FA2300D704AE
:10013400010001008346A70093E646002305D7008B
:1001440023000704F32600809843218B558F7310F6
:10015400078023AC0182010001001307004B01005A
:1001640001007D176DFF73270080218B09CB732756
:10017400008023ACE18298435D9B731007800100EB
:10018400010037170040930670052300D704930637
:1001940080FA2300D704010001007D892314A700FD
:1001A400010001000100010023000704F326008080
:1001B4009843218B558F7310078023AC0182010073
:1001C400010073270080218B09CB7327008023ACA7
:1001D400E18298435D9B731007800100010037178B
:1001E4000040930670052300D704930680FA230089
:1001F400D7040100010001000100B72600401306E6
:100204001005A383C68023000704F32600809843C7
:10021400218B558F7310078023AC018201000100EC
:1002240073270080218B09CB7327008023ACE182E4
:1002340098435D9B7310078001000100371700404D
:10024400930670052300D704930680FA2300D7048D
:10025400010001008346B70493E60608A305D7040A
:1002640023000704732700809C43A18BD98F7390CC
:10027400078023AC0182010001008280937605048B
:10028400638B06140347A700418B25E7732700807F
:10029400218B09CB7327008023ACE18298435D9BBB
:1002A40073100780010001003717004093067005A2
:1002B4002300D704930680FA2300D7040100010029
:1002C4008346A70093E606012305D700230007040D
:1002D400F32600809843218B558F7310078023AC3D
:1002E4000182010001001307007D010001007D1758
:1002F4006DFF73270080218B09CB7327008023AC0B
:10030400E18298435D9B7310078001000100371759
:100314000040930670052300D704930680FA230057
:10032400D704010001009376F50193E60604231433
:10033400D700010001000100010023000704F32697
:1003440000809843218B558F7310078023AC018262
:1003540001000100130760046310E50473270080A3
:10036400218B09CB7327008023ACE18298435D9BEA
:1003740073100780010001003717004093067005D1
:100384002300D704930680FA2300D7040100010058
:10039400B72600400946B5B573270080218B09CBE9
:1003A4007327008023ACE18298435D9B7310078020
:1003B4000100010037170040930670052300D7049D
:1003C400930680FA2300D70401000100B7260040F9
:1003D400130620053DB573270080218B09CB7327B5
:1003E400008023ACE18298435D9B73100780010079
:1003F400010037170040930670052300D7049306C5
:1004040080FA2300D704010001008356870093E695
:10041400060C2314D700C5BB411181460146814512
:10042400114506C6152CF3270080A18B9386818382
:1004340089CBF327008023ACF1829C42DD9B73902F
:10044400078001000100B7170040130770052380DF
:10045400E704130780FA2380E7040100010003C7BF
:100464006704136717002383E704238007047327B3
:1004740000809C42A18BD98F7390078023AC0182AA
:1004840001000100B240410182808146014681455C
:100494001145D922F3270080A18B1387818389CB4F
:1004A400F327008023ACF1821C43DD9B739007800B
:1004B40001000100B7170040930670052380D7049C
:1004C400930680FA2380D70401000100FD56239689
:1004D400D70223800704F32600801C43A18BD58F09
:1004E4007390078023AC018201000100F327008090
:1004F400A18B89CBF327008023ACF1821C43DD9BC5
:100504007390078001000100B7170040930670053F
:100514002380D704930680FA2380D70401000100C6
:1005240083C6670493E616002383D7042380070455
:10053400F32600801C43A18BD58F7390078023ACD6
:1005440001820100010001A0BD473305F50201004D
:100554007D1575FD8280411122C426C206C6AA8477
:10056400014463179400B2402244924441018280C2
:1005740005041305803E4204C13F4180DDB7B7172F
:100584000040130700032388E702854723A0F18472
:1005940073002030411106C6A92DFDBF230304803A
:1005A40015472303E48001002302A480828083078B
:1005B4006480E3CE07FE2303048082808307648083
:1005C400E3CE07FE03454480828083076480E3CE44
:1005D40007FE2302A4808280411126C44AC24EC071
:1005E40006C61377F50BAD47AA892E899544630691
:1005F400F70019456537653F8D444E854537FD59EC
:10060400FD1463983401B240A24412498249410165
:100614008280135509011375F50F453F2209CDB7A3
:10062400011126CC06CEB704080051371545BD3755
:10063400713769372AC6A53F32459377150089EB90
:10064400136515001375F50FF240E24405618280CD
:10065400FD14E9FC0145CDBF397126DC4ADA4ED8D8
:1006640052D656D45AD25ED006DE62CE66CCB7E7F6
:1006740000E07D5783AA070022C603AA470023A0EF
:10068400E71823A2E718B717004013077005238063
:10069400E704130780FA2380E70483C74704930B16
:1006A40075FFB684E20793FBFB0F8546AA892E8B60
:1006B400328937240040E187015763FA76016308E1
:1006C400D5008946130700026313D5000157D98F5B
:1006D40093F7F70FB71C00402382FC041147230350
:1006E400E4801305F00F5D3D094CD135636D7C1139
:1006F400B7050700DA9537870700795563F2E504F3
:10070400B3879500636EF702370B0800A94733EBF4
:1007140065016399F90689E48144513D26850DA05C
:10072400DA850945553D05090345F9FFFD14050B17
:10073400693D81C49377FB0FFDF7DD3569FD7D5578
:10074400B7170040130770052380E704130780FAE6
:100754002380E70403C74704418B2382E704F25054
:10076400B7E700E023A0571123A24711E254324413
:100774005259C259325AA25A125B825B724CE24CF1
:1007840021618280A5476395F90685691309F00FF5
:10079400B3069900B3742B01B6941349F9FFB374EB
:1007A4009900856B33796901416B9387F9FFB3F73E
:1007B400270199E363FC340193D94900C147E3E677
:1007C40037FF99BF0569C1697D19D9B71305800D34
:1007D4006388690113050002638479011305100815
:1007E400CA85DD3B353D21DD4E99B3843441D9B70B
:1007F400DA852D45D533CA94E30099F205097D3B8A
:10080400A30FA9FED5BF9387F9FF93F7F70F636191
:10081400FC0C83C71C0413073008631FF704370755
:100824000800636BEB04B3079B00B706100063F585
:10083400D704334BEB0089476393F9068980D54984
:10084400E38C04ECDA850945413B11090327C9FF10
:1008540091472320E48003076480E34E07FE2303CB
:100864003481FD17EDFBFD14110B81C49377FB0F4D
:10087400E9FF7D3371F5E1B5B717004003C75704AD
:10088400B70708001377070219E3B78707007955FC
:10089400E378FBEA33079B00E3FFE7F855B58547A8
:1008A400E382F9F2DA852D45053B9389F4FFE3856C
:1008B40004E6293393F7390091EB83260480032758
:1008C400090093074900E39AE6E43E89CE84F1BF28
:1008D400B5476396F9001305900BC93135BDB1478F
:1008E4001305B00AE38BF9FE99476391F904B70540
:1008F4000800B365BB002D45C53181448D4BA1492A
:10090400753963967401832704802320F9008504D4
:10091400E39834FF8327048013172B0163550700E2
:100924002312F900D5BB2322F900FDB39D47639937
:10093400F90281451305B0044531BD442320090063
:1009440023220900FD599D3993F77400CA9703C700
:100954000700FD14398D2380A700E39634FF6DBB97
:10096400A1476392F9046D398144630D0B008D47EF
:100974009304C0036308FB009304000563048B0124
:10098400930440041375C507E30895D81945393114
:1009940039390545213126850D3909453D3149311E
:1009A400E31C05D669BB91476399F90013056006FA
:1009B400F536F53E130590090DB7E38F09D4F154CC
:1009C400A9BB19CD91CD09CE81473387F500834664
:1009D40007003307F50085072300D700E317F6FE69
:1009E400828019C991C909CA910583A7C5FF110558
:1009F4007D16232EF5FEC5BF828001C919C62A962D
:100A04000505A30FB5FEE31DA6FE828081473307CB
:100A1400F5000307070019E33E8582808507C5BFFB
:100A240001112E8626CAAA84131506019305F00423
:100A3400418122CC06CE32C6EF00F0592A8401C58A
:100A44003246A685BD3F2285F2406244D244056108
:100A54008280854715C18DC105C28147B306F50063
:100A64003387F50083C60600034707006398E60052
:100A74008507E315F6FE85473E8582808147EDBFF5
:100A84009307F6FFBE952A966313C5008280FD1571
:100A940083C715000505A30FF5FEFDB7AA87014519
:100AA40081CF09CE3E96850703C7F7FF6317B700CA
:100AB400E39BC7FE0545828082800145828079716F
:100AC4009387018622D4804306D626D24AD04ECEBE
:100AD40052CC56CA5AC85EC65DCCB7C4C901014BD4
:100AE400938981859384F437173A0000130A0A1C0A
:100AF400973A0000938A4A1F173900001309092303
:100B04008357240085E35C44631B0B0023A0F18618
:100B1400832BC4002285EF0070585E84B9A8232675
:100B2400FB00FDB783A7090082971C443307F540F7
:100B34006376F500032749001D8F2A9763E0E408D4
:100B44009737000023AA071A83552400034504009D
:100B5400973000E0E78020CA5C405844A1CB0C44A5
:100B640003264900AE97BE8663E4B70063E4C7007A
:100B7400B386C74014C4228B3A8459F097370000D7
:100B8400938787169C4B09476370F706F917173745
:100B940000002323F716B250225492540259F2490A
:100BA400624AD24A424BB24B4561828063150B00C4
:100BB40023A0E186B1BF2326EB0099BF03274A0295
:100BC40009CF63EFA7003385A74083A70A016376A3
:100BD400F5009737000023A1A712228B404471BF70
:100BE40003274900BA97C5B79737000023A6071013
:100BF4005DB7411122C417340000130464111C4072
:100C040006C626C24AC091C782979737000023A11F
:100C140007109737000083C77729858B9734000026
:100C24009384842895C397370000A381072883C73A
:100C340074001547637AF700C12B83C77400F51756
:100C44008A07A2979C4382971C4491C38297138975
:100C5400C18403270900173600000346F6089737B6
:100C6400000083C7670893961700BA9683D60600D8
:100C7400C5CE9737000083C7270763E1C70C9737B2
:100C84000000238307061C40639507129737000072
:100C940083C7172291CF83C7740093F7F70F89EBAB
:100CA40097370000A3860720976001E0E780E07E85
:100CB400938781859C43638E070E97370000938743
:100CC400E706DC43173700002328F702CD3B9737AC
:100CD40000009387A7FDDC53E9CF17370000130703
:100CE400A700184B9737000083C797FD6363F70C81
:100CF40083C774001547636EF70A9737000083C7EC
:100D0400271F918BDDE7032609009736000083C671
:100D1400B6FD63C6D70A2244B24092440249410157
:100D2400173300E06700A3F4850793F7F70F9736AE
:100D34000000238BF6FAE3E4C7F225BF86073E974B
:100D44008355070023100700239A01849387418663
:100D54009C4317350000034525F913172500BA975E
:100D64009C43829783D74185173700000347C7F711
:100D740093C7F7FF7D8D93171700032709003E974C
:100D8400835707005D8D2310A7009737000083C7A2
:100D9400A7F591C78507173700002307F7F417371E
:100DA4000000034767F49737000083C7F7F3E3783D
:100DB400F7ECB240224492440249410182801397E5
:100DC40017003297035707006DF7850799B7AD678A
:100DD40037C70040BD072326F7200F1000009737C0
:100DE4000000938767F0C84F83278726BD66BD063A
:100DF40093C7F7FF99836A052326D7205D8D8280E8
:100E04004111B7170040985F3AC6945F3247E39C9C
:100E1400E6FE3245410182801305F00F8280011104
:100E240022CC604126CA4AC84EC652C406CEAA8401
:100E34001D4A130965058549BC446364F4000545EE
:100E4400B9A003C7D40083474400631A470503C706
:100E540084026304F7000040C5B70347540083C706
:100E64005405E31AF7FE1946CA8513056400D536FE
:100E7400E31335FF0347C40083C79402E31DF7FC63
:100E84000357E40083D7A402E317F7FC0145F240BB
:100E94006244D2444249B249224A05618280E31C39
:100EA400F7FA0347540083C75405E316F7FA1946C3
:100EB400CA8513056400713EE31F35F9C1BF0111F2
:100EC400973700009387870A22CC03A4070C26CA0D
:100ED40006CE2AC42EC6854419E40145F240624474
:100EE400D244056182808347910003471400858BB7
:100EF4006304F7000044CDB719469305A100130518
:100F04002400813EE31895FE0545C9BF13878192ED
:100F14001C439306001094C301000100010001006A
:100F24001C4323A007008346150003482500A2069E
:100F34004208C29603480500C29603483500620879
:100F4400C29694D78346550003486500A20642081A
:100F5400C29603484500C296034875006208C296CB
:100F6400D4D7834695000348A500A2064208C2963A
:100F740003488500C2960348B5006208C29694DB14
:100F84008346D5000348E500A2064208C2960348FA
:100F9400C5000345F500C2966205AA96D4DB83C654
:100FA400150003C52500A2064205AA9603C505003F
:100FB400AA9603C535006205AA9694CF83C6550048
:100FC40003C56500A2064205AA9603C54500AA9674
:100FD40003C575006205AA96D4CF83C6950003C5E0
:100FE400A500A2064205AA9603C58500AA9603C5D4
:100FF400B5006205AA9694D383C6D50003C5E5005F
:10100400A2064205AA9603C5C50083C5F500AA96A3
:10101400E205AE96D4D3D443F59AD4C3D44393E62D
:101024001600D4C3944393E6160094C3BA8794433A
:10103400D842058B59E3984E01452300E6009843B6
:10104400184F2183A300E6009843184F41832301DE
:10105400E6009843184F6183A301E6009C43D84FF0
:101064002302E600D84F2183A302E600D84F418330
:101074002303E600D84F6183A303E60098532304B7
:10108400E60098532183A304E60098534183230583
:10109400E60098536183A305E600D8532306E600CF
:1010A400D8532183A306E600D85341832307E600DF
:1010B400DC53E183A307F600828001008DBF138710
:1010C400C1921443411122C49C5E4AC006C699834E
:1010D40026C2858B3A8413898192D1C79C5E97344A
:1010E4000000938464DC93F7F7F99CDE1737000063
:1010F4000347E7DB93070008631BF7008327090016
:101104009C4393F70704173700002302F7DA83C7D9
:10111400040093F707048DC3938781859C438297CA
:101124009737000023AAA7D883C7040093F7F70BC7
:1011340017370000230AF7D683C7440093F7070440
:101144009DE3854717370000A302F7D69387819361
:101154009C43096798C7130700FC97360000238750
:10116400E6D4D844F8D31C40985F1183058B09CB8F
:10117400985F3D9B98DF0547973600002388E6D2A9
:10118400985F1D83058B11CB985F1377F7F798DF72
:10119400854717370000230BF7D083270900D8436E
:1011A4000583058B19C7D843759BD8C3D843799B4E
:1011B400D8C3B24022449244024941018280397129
:1011C40006DE16DC1ADA1ED82AD62ED432D236D04F
:1011D4003ACE3ECC42CA46C872C676C47AC27EC0F3
:1011E400F93DF250E2525253C2533255A2551256AF
:1011F40082567247E2475248C248324EA24E124FBC
:10120400824F2161730020309387819394439737F1
:101214000000938767C903C70700058B11CB973775
:101224000000238507C897370000A38107C8828080
:1012340003C71700058B65F7F85271FF83C7570082
:10124400DDB71388C192032708001C5F9583858B43
:10125400D1E709C61C5BBD832300F60085CA83273A
:101264000800985B4607935767016356070093E7A6
:1012740007C0C207C18303970600C207C18709C715
:10128400BA970947B3C7E7022390F60085CD834791
:1012940015008DCB9736000083C666C193F606040D
:1012A4001387970089478DCA3A95034705008546F9
:1012B40099471376F7066311D60262076187B94727
:1012C400634C0700832708009C5FED838D8B1737E1
:1012D4000000A300F7BE81473E8582808547EDBFAD
:1012E400411122C406C61384819318402DE9AE87A8
:1012F4007453FDFE3E85B28597370000238707BAF5
:10130400976001E0E780A0EE9387C1929C43B70603
:1013140080009843558F98C3D857719BD8D7973777
:101324000000A38507B897370000A38F07B61C40B9
:10133400094798C31440173700001307E7B68347DB
:101344002700858B89EB83473700858BD9C3973773
:101354000000238D07B4B2402244410182808D47AE
:10136400631EF5009387C1929C43B706800098439F
:10137400558F98C3D857719BD8D76DBF8547E31B4A
:10138400F5FA5447F977FD17F58F5CC70F10000085
:101394001C40096798C7130700F817360000230795
:1013A400E6B01387C1921043184231830D8B11E7C5
:1013B40013076019F8D3D4C7B5BF1842094631835F
:1013C4000D8B6315C7001307E043EDB71307E01B4C
:1013D400D5B7FC52ADF741B75D71A2C4A6C22A8449
:1013E400130680022800AE849305100886C6CAC07E
:1013F4004EDE52DCEFF06FE03545976001E0E780A8
:10140400601B1383C192832703009376F41F138E0A
:10141400019423A40700984B938E8193370FFCFF0C
:101424001367F70398CBF84F130510F8B7020400BD
:10143400137707E0558FF8CF9843F576FD16758F2F
:1014440098C39843B7063300930380251377F7E7CF
:1014540098C3984311497D1F1377F7E71367071063
:1014640098C303270E008549930F80021C47D58F2C
:101474001CC783A70E001307900D3400B8CB014797
:1014840093553700A69583C7050013767700B3D725
:10149400C740858BE1C38327030083280E00239C68
:1014A40007042390070603A8C8021378D8FF23A6CD
:1014B400080383A807001378F70793F808F833E8BC
:1014C400080123A0070103A847023368580023A298
:1014D400070383A80E00014823A2780603DA07064F
:1014E4006307480303A80703038A06001358F80098
:1014F40062081358884163580A0103A80703135864
:10150400F8002380060103D807061378F80F03AA0E
:10151400480663060A0003DA8705E37F49FB03A84C
:1015240047023378E80123A2070383870600635C3C
:10153400F40003C805003396C9001346F6FF33765A
:1015440006012380C5003E8663D3A7002A861315AF
:101554008601618505071377F70F8506E312F7F314
:10156400B640264496440649F259625A6161828023
:10157400938681939C42D84713161701635506023C
:10158400984713161701635006027D57B8D71727DB
:10159400000013076775584F05071726000023231B
:1015A400E676116798C798470D83058B1DC31737D7
:1015B40000000347878F13671700173600002306C0
:1015C400E68E130700F8173600002301E68E214744
:1015D40098C79847058B09CF173700000347D78C66
:1015E4001367170017360000A300E68C054798C759
:1015F40098470983058B09E798470583058B21CF15
:101604009847173600001306268A1385C19209836A
:10161400058B630307101841184331830D8B75EB59
:10162400AC4B184E93F5050203471700CDCD79EF67
:1016340013077006D8CF0347060013671700173641
:1016440000002303E686114798C718415C57F19BB5
:1016540093E717005CD79C4298479316370163D6EB
:1016640006029736000083C6E697C18A1737000042
:101674001307C78FC5CE034787071367070297363B
:1016840000002381E696056798C7984793162701BB
:1016940063D1060217370000034747816207618759
:1016A400635707000547973600002381E6800967E2
:1016B40098C798479316070163D606029736000029
:1016C40083C65692858A173700001307278AADCE42
:1016D400034797071367270097360000A384E69013
:1016E400216798C7828029D785456315B7001307FA
:1016F400B00689B789456315B7001307F0061DBF07
:101704008D456315B700130730072DB7130750072E
:1017140015B71307600739BF03473600136717006F
:1017240017260000A303E678094739BF83468707D5
:101734000946BD8A6388C600034787078D463D8BEB
:10174400E313D7F4114725BF83469707918AC9DA73
:10175400034797071367870041B7397106DE16DC24
:101764001ADA1ED82AD62ED432D236D03ACE3ECC6D
:1017740042CA46C872C676C47AC27EC0D53BF2500D
:10178400E2525253C2533255A255125682567247F0
:10179400E2475248C248324EA24E124F824F216154
:1017A40073002030938781939843856793870777E5
:1017B4007CD3938701949C4383A607091396560010
:1017C4006358060083A6070913966600634406005F
:1017D4007453FDF2828061C1AA870145DDCD8D0776
:1017E400C207C183F19BC207C18313074003636B24
:1017F400F7021387C19C08431387419C14436396E3
:10180400A602172700001307674A185B014551C752
:101814004111C20706C60545DD8D0297B240014558
:10182400410182801387819CF9B70357650035E332
:1018340003574500636FF704B306F7402146637C02
:10184400D60203280500938687001D8FAA96611788
:10185400172600000356A6492392E60023A006019A
:101864002393060014C12312F500130786FF97265D
:101874000000239EE6462313B5009725000083D578
:101884000547B387F540172700002312F7462105C3
:1018940082800841ADB701458280828009CD93875B
:1018A400C19C03A307009387419C83A8070081463A
:1018B4009A8763E31701828003A807006369F50A26
:1018C4006367A80A13878700E367E5FE03D667000A
:1018D400216705076317E60003C7818F0507238C7B
:1018E400E18E972500009385254003D6470003D752
:1018F40065002393070032974207418317250000B0
:101904002317E53E638867021385819C08416303BE
:10191400F50203D5660019ED83D7460023A006011E
:1019240021073E9621062392C600972700002390A4
:10193400E73CB6879843E30017F99386819C944269
:10194400E30BD7F683566700BDF683D647000356EC
:1019540047001843A106B2962392D70098C383D7B1
:101964006500A107172700002313F7388280BE867D
:10197400C28781B70327851163020712411122C46C
:1019840006C68347C5008345E5042A8493F7C70F39
:101994002306F500834697000356C7001395860176
:1019A400618563F2C508635B05060345870093F60A
:1019B400F607A304D700054693E627006314C50081
:1019C40093E617002306D4005C4389075CC3A30A8B
:1019D400B400032504112E864C430905EFE07FFE75
:1019E4008327841103465401D44303D7C700B29616
:1019F400118FD4C32396E7008947A30DF40003474E
:101A040064039727000083C7872B6378F704834711
:101A1400C40093E707012306F40081A093E71700AD
:101A24002306F4006DB79376F60F635D0502034554
:101A34008700854513E627006314B50013E61700F5
:101A44002306C400A30AD400A30407008547A30DFA
:101A5400F400832784119C43DDF3B2402244014502
:101A64004101828093E717002306F400A30AD400FF
:101A7400A3040700032504114C430905EFE07FF498
:101A84008327841103465401D44303D7C700B29675
:101A9400118FD4C32396E7008D4755BF0545828037
:101AA4009387419E9C43411122C406C6858B2A8498
:101AB400C5EF4165130525F5971002E0E780E0E0E6
:101AC40045C58347A5002315F50083270412BDE708
:101AD4002320A4122322A41285472311F4042320D3
:101AE40005008347640154412316F5000347D400DD
:101AF4002304E5000547A304E500172700001307A6
:101B0400A73A184F1385170215811C437D151375C9
:101B1400F50F9CC25C43DCC21C479CC65C47DCC618
:101B24001C4B9CCA5C4BDCCA1C4F9CCE5C4FDCCE6D
:101B340019CD9386060213070702C1BF83274412F7
:101B440088C3835724042322A412850779B79727CF
:101B5400000083D72742850717270000231CF7407E
:101B6400B2402244410182808347C4002309040017
:101B7400054593C747002306F400DDB78347850175
:101B840093F7E70FC5EF83479501CDEB0346250196
:101B94008346C50009CA8345650317270000034728
:101BA400171263E7E50013F7060151CB014709C695
:101BB400C18A0357651C81C68356A51C369741C349
:101BC4001307C712172500000355C516B335A7021E
:101BD40037460F00411113060624814622C426C24B
:101BE40006C67D543305A702974002E0E780E0C6AD
:101BF4009727000083C7170DB384A7009727000019
:101C04009387C73603A787098327070963F38700E8
:101C14003E84184375FB938781859C438297814753
:101C24006364A400B307A440B2402244B3B797004E
:101C340093C7170092443E854101828081473E85C7
:101C440082809387819398437C53FDFF82807971CE
:101C540026D206D622D44AD04ECE52CC56CA5AC820
:101C64005EC68347550303447513AA843E941374D4
:101C7400F40F9307400263F687001304B4FD137452
:101C8400F40F03AA841383AAC413A38B8412228699
:101C94005285D685974002E0E780A0B6058915E510
:101CA40003CBD41201498149337B6403930B500263
:101CB4004A865285D685974002E0E78080B405893C
:101CC40015C5639169031374F90F238B8412B25001
:101CD400225492540259F249624AD24A424BB24BBC
:101CE400456182808509E20993D989410509E31197
:101CF40079FDE1BF8327850903560504797193D6DD
:101D04000701BD8EC206C182358E135776409357A4
:101D14005640898B058B5D8F93573640918B5D8F31
:101D240093571640A18B5D8F93171600C18B5D8F5F
:101D34009317360093F707025D8F93175600935558
:101D4400860093F707041E065D8F1376F60F518FF6
:101D540093D7554013D63540118A898BD18F13D62A
:101D64007540D18F13D61540218AD18F1396150053
:101D7400418AD18F1396350013760602D18F1396BC
:101D84005500137606049E05D18F93F5F50FCD8F7C
:101D9400A20745465D8F3307C70222D42A8426D280
:101DA40052CC56CA032A8413832AC4135AC806D6AB
:101DB4003697420741839357774013555740098913
:101DC400858BC98F135537401189C98F1355174017
:101DD4002189C98F131517004189C98F131537003D
:101DE40013750502C98F1315570093558700137592
:101DF40005041E07C98F1377F70FD98F13D5354004
:101E040013D755401189098B498F13D57540498FD4
:101E140013D515402189498F139515004189498FA0
:101E24001395350013750502498F139555001375E5
:101E340005049E05498F93F5F50F4D8F2207D98F21
:101E4400B387C7024AD04ECE5EC662C4B697C207F5
:101E5400C18313D7774013D557400989058B498F20
:101E640013D537401189498F13D517402189498FDC
:101E7400139517004189498F13953700137505028F
:101E8400498F1395570093D58700137505049E0752
:101E9400498F93F7F70FD98F13D5354013D7554092
:101EA4001189098B498F13D57540498F13D5154076
:101EB4002189498F139515004189498F1395350060
:101EC40013750502498F13955500137505049E0576
:101ED400498F93F5F50F4D8F2207D98FB387C7022A
:101EE400130650025285D685B697BD8E939406018B
:101EF400C18033F6C402137BF60F974002E0E780FB
:101F0400409005890DED8347D41201498149B3847A
:101F14009702130C5002C1804A865285D685974099
:101F240002E0E780008E0589937BF90F11C5638673
:101F34003403850993F9F90F0509E31F89FD230B80
:101F44006413B250225492540259F249624AD24A5A
:101F5400424BB24B224C456182805E8BCDB7797186
:101F640022D406D683C735002E8423160100A30786
:101F7400F10083C74500100802C02307F10083C79E
:101F840055008A8502C2A306F10002C402C802CA2F
:101F940002CC02CEEFE09FF70347F1018347040030
:101FA40001456310F7020347E1018347140001452B
:101FB4006319F7000345D101834724001D8D1335B0
:101FC4001500B25022544561828001119727000008
:101FD4009387C7F922CC03A4870C26CA4AC84EC6E5
:101FE40006CEAA8413092500854915C083C71400A9
:101FF40003473400858B6304F700405CFDB7194642
:10200400930544004A85EFE0DFA4E31835FF2285F9
:10201400F2406244D2444249B2490561828041118E
:1020240097270000938787F422C403A4870C26C251
:102034004AC006C693042500054901E82285B2403A
:1020440022449244024941018280A6851305A402D8
:102054003937E30525FF405CCDB7411197270000D0
:102064009387C7F022C403A4870C26C24AC006C6BD
:1020740093042500054901E82285B2402244924494
:10208400024941018280A6851305A401C93DE305E7
:0820940025FF405CCDB7000000
:10209C009711002093814197176100201301C1F51E
:1020AC001305400097E5FF1F938505F517060020E3
:1020BC00130606FE63FAC5008322050023A0550013
:1020CC0011059105E3EAC5FE176502001305C594D9
:1020DC00970500209385C5FB1386818363FAC500A1
:1020EC008322050023A0550011059105E3EAC5FEE6
:1020FC001385818397250020938545F96377B50077
:10210C00232005001105E36DB5FEFD42739002BC62
:10211C008D4273904280930280087390023097E254
:10212C00FF1F938262ED93E232007390523097124C
:10213C0000009382022973901234730020303D43C7
:10214C002A876373C3029377F700BDEFADE59376EF
:10215C0006FF3D8ABA960CC34CC30CC74CC741074B
:10216C00E36BD7FE11E28280B306C3408A06970266
:10217C00000096966780A6002307B700A306B70059
:10218C002306B700A305B7002305B700A304B700C7
:10219C002304B700A303B7002303B700A302B700BF
:1021AC002302B700A301B7002301B700A300B700B7
:1021BC002300B700828093F5F50F93968500D58D9B
:1021CC0093960501D58D61B7939627009702000071
:1021DC0096968682E78086FA9680C1171D8F3E966A
:1021EC00E374C3F8A5B7B717004003C77705137797
:1021FC00E70FA38BE704130700F8A38DE7043D4713
:10220C00238CE70413075003A38CE704828041114D
:10221C002A83014E930E407E130F0019930F400634
:10222C0063E66E149308001913034006B378150384
:10223C00854E0D4FA14F337365020D891335150073
:10224C0063E0BE161308F6FF7946729842081358DD
:10225C0008013307C70213D61700BE073297614631
:10226C00B3F6C60213068070B386C6023697A16613
:10227C00F58F42075D8FB716004083C7F60293F7C0
:10228C000708A307F1000346F10083C7F60293F792
:10229C000708E394C7FE8347F100B716004093F795
:1022AC00F70F63890714F3270080A18B9386818332
:1022BC006398071401000100B7170040130670055E
:1022CC002380C704130680FA2380C7040100010091
:1022DC0023AA070303C6170313660608A388C702BD
:1022EC0023800704732600809C42A18BD18F7390AE
:1022FC00078023AC0182010001001166B715004074
:10230C007D16DC59C85DA98FF18FE5FFF32700809E
:10231C00A18B89CBF327008023ACF1829C42DD9BFF
:10232C007390078001000100B71700401306700579
:10233C002380C704130680FA2380C7040100010020
:10234C00D8DB03C7170313670704A388E7022380AE
:10235C000704732700809C42A18BD98F7390078050
:10236C0023AC018201000100410182807D1333689E
:10237C00E3039308E016630E08003368F303930835
:10238C00D016630808009378330093B8180093882C
:10239C00D81633081E01131E0801135E0E0149B531
:1023AC006393E50305486386080001486303030053
:1023BC002A8871087298FD15131E0801C205135E58
:1023CC000E01C181B5BD13F8150063F4BF00790887
:1023DC00D5B713381800E5BF83C7F60293F7070883
:1023EC00A307F1000346F10083C7F60293F7070831
:1023FC00E394C7FE8347F10093F7F70FF1DF65B560
:10240C00F327008023ACF1829C42DD9B7390078004
:10241C0055B5914763EEB70217570200130707B281
:10242C008A05BA959C41BA978287B717004003A7D3
:10243C00470B1345F5FF698F23AAE70A03A7070B80
:10244C00698F23A8E70A03A7070A798D23A0A70A97
:10245C008280B717004083A6470B1347F5FFF98E10
:10246C0023AAD70A83A6070B558D23A8A70A83A6F0
:10247C00070A758F23A0E70A8280B717004003A7CD
:10248C00470B498F23AAE70A03A7070B1345F5FF50
:10249C0045BFB717004083A6470B1347F5FF758F51
:1024AC0023AAE70A03A7070A598D4DB7B7170040AF
:1024BC0003A7470B498FEDB7914763EEB702175748
:1024CC0002001307E7A88A05BA959C41BA97828740
:1024DC00B717004003A7470D1345F5FF698F23AAD3
:1024EC00E70C03A7070D698F23A8E70C03A7070CBC
:1024FC00798D23A0A70C8280B717004083A6470DC7
:10250C001347F5FFF98E23AAD70C83A6070D558D1B
:10251C0023A8A70C83A6070C758F23A0E70C828039
:10252C00B717004003A7470D498F23AAE70C03A751
:10253C00070D1345F5FF45BFB717004083A6470DA0
:10254C001347F5FF758F23AAE70C03A7070C598DCA
:10255C004DB7B717004003A7470D498FEDB7B71715
:10256C00004003D7870109C5D98D239CB700828011
:10257C0093C5F5FFF98DD5BFB717004003D587007C
:10258C00420541819377050491EB9377F50137551B
:10259C00E801130505803345F50282809377050C1D
:1025AC00130700046397E7009377F50137459C1CEC
:1025BC00CDB72165130505D08280B7F700E08847B9
:1025CC00CC478280814737370040A14663C4C7009F
:1025DC00328582800345B740E38EA6FE3385F50035
:1025EC000345050085072304A740CDB797070020B6
:1025FC00938787C19C4317270020130727A93E9573
:10260C00636EE500175700201307077F6368A70068
:10261C0017070020232AA7BE3E858280FD57EDBFF9
:10262C00411122C406C62A84813F2947B307E5021B
:10263C00B2408D83B3D7870222449507B3D7E70204
:10264C0037370040C207C1832316F740410182800F
:10265C00716541111305052006C6D937B7370040FF
:10266C00130770F82381E7400D47A381E740130758
:10267C000004A380E74005472387E740B2404101AF
:10268C008280411193962500AA852D4506C697E0B8
:10269C00FF1FE780E0FBB240014541018280411100
:1026AC0026C29394250022C44AC02A843289A68665
:1026BC00AA850146254506C697E0FF1FE78040F92D
:1026CC00A6864A86A285294597E0FF1FE78040F839
:1026DC00B2402244924402490145410182800111D9
:1026EC0022CC06CE3714004026CA4AC84EC652C465
:1026FC0083447405034AB40583498405034994054E
:10270C00DD348347A40593F4F40F137AFA0F93E79F
:10271C001700230DF40493F9F90F1379F90FB71778
:10272C00004003C7A705058B6DFF03D5C705A38D17
:10273C004705238C3705A38C2705A38B9704F24000
:10274C006244D2444249B249224A05618280411115
:10275C009397050122C406C6C1872E8463DD07004A
:10276C00EF00705719C1EF00F04F2165218DB24079
:10277C0022444101828093F7150013C51500E5FB37
:10278C009397250163DF0700EF50610F37F60200C6
:10279C00130606E0896503C5C183EF10801B09652C
:1027AC00F1B7939715010145E3D307FC17450200D8
:1027BC001305C57FEF30E25F13060064916503C516
:1027CC00C183EF100019116555B71D714946974526
:1027DC00020093852579175502001305A5D386CEE3
:1027EC0097E0FF1FE780602601E9174502001305FB
:1027FC00A578EF30025C01A0B7F600E0795798CAD3
:10280C00FD57DCCA0567B7E700E023A0E710130605
:10281C00F00290C223A0E718010001001306C003C8
:10282C008145480897E0FF1FE780A01C9707002010
:10283C00938707C73ECA896793870780231CF100DB
:10284C00A167938707E03ECEB70701059387071072
:10285C003ED0ED472312F10285472303F10297077F
:10286C000000938747E2BEC497070000938767E395
:10287C00BEC6B7F5070097070000938747D43547C6
:10288C003EDA8146970700009387A7E57000E105C3
:10289C0019452304E102A305E1023EDE97E0FF1F88
:1028AC00E78000DB58088147994670003E96034646
:1028BC00060085070507A30CC700E398D7FED2478F
:1028CC0091C70357810185676373F70001A048081E
:1028DC00EF10805CAA8501C9174502001305056B32
:1028EC00EF30823B01A0F640256182804111170533
:1028FC000000130505E606C622C4EF1060561384CB
:10290C00C1832300A4002928034504002244B240BB
:10291C0037F60200130606E0896541016F1060036B
:10292C00411106C6F3270080A18B9386818389CB46
:10293C00F327008023ACF1829C42DD9B73900780CF
:10294C0001000100B7170040130770052380E7044E
:10295C00130780FA2380E7040100010003C7F70284
:10296C0013677700A387E70223800704732700808F
:10297C009C42A18BD98F7390078023AC01820100FC
:10298C0001001305407E8147014781460546854578
:10299C00BD38B240014541016F10700482802A8617
:1029AC00B305B04017550200130585966F30C22E43
:1029BC00011122CC36C606CE2E84EF005050B24602
:1029CC0037460F00130606243376C50291CAB2852A
:1029DC00175502001305C59232C6EF30E22B324672
:1029EC0022856244F240814505616F90B10D81E909
:1029FC00AA85175502001305A5826F30E2290547F9
:102A0C00639EE500AA85175502001305E58309C6E8
:102A1C0017550200130585856F3002280947639905
:102A2C00E5000DE6AA851755020013052586EDB7BE
:102A3C000D47639DE500AA851755020013054587D0
:102A4C0061DE175502001305258945BF82800111EF
:102A5C0022CC26CA4AC84EC606CEAA892E898144E3
:102A6C00138481A403C5418463E3A4060E05090500
:102A7C00CE852295194697E0FF1FE78000F483C5A9
:102A8C00418493973500850593F5F50FA29713862E
:102A9C00F5FFA38027010E0622962382B18462449F
:102AAC008348760003486600834756000347460078
:102ABC0083463600F240D2444249B24903462600CE
:102ACC00174502001305056405616F30E21C9395F0
:102ADC00340089051946A2954E8597E0FF1FE780C3
:102AEC00C0F609E5850493F4F40FADBFF2406244DF
:102AFC00D2444249B24905618280397193970501EC
:102B0C0026DA06DE22DC4AD84ED652D456D2C187FB
:102B1C00AE8463D9072003C55184EF00D01B2A84EF
:102B2C00630B0546034705009307000B6313F74639
:102B3C008357250003D761A0138941A06306F73A98
:102B4C0003D7C1A16305F74603D721A36313F74449
:102B5C00894A894961AE5C44174502001305454D0D
:102B6C0083C5070011A94D476393E7029305A005A0
:102B7C00174502001305054E01A1C9466316D7027D
:102B8C008345C400174502001305854BF5A66D4718
:102B9C00639CE7005C44174502001305A54C83C5F4
:102BAC000700EF30620FCDA65947B389E902CA99E5
:102BBC0003C7B900630A073C63980A3C03C7F1A03A
:102BCC0085466318D7081D47639CE702835784002A
:102BDC0085CB5C44174502001305054A83C51700D5
:102BEC0003C70700A205D98D2399B1A003C63700EE
:102BFC0083C7270022065D8E239AC1A0EF30C2093D
:102C0C00834744001D476394E70403471400E947D6
:102C1C00639CE73683D721A1638807362314F10020
:102C2C00835709010947A387E1A02315F100F97720
:102C3C00938727102316F100FD5703C651842C00EF
:102C4C0003D561A02307F100EF50D00335AE054743
:102C5C00C1B789466311D70825476390E7048357AA
:102C6C00840085CF58449305000213060064834703
:102C7C0017000347070003C541A0A207D98F239B68
:102C8C00F1A0238801A0EF00D04C83D561A117459A
:102C9C00020013052541EF302200834744002547ED
:102CAC006399E70203471400E947639FE72C8D47BC
:102CBC00A387F1A08357E9002314F100835709017E
:102CCC002315F100930720202316F100930790029F
:102CDC00ADB70547D9BF8D466318D72A25476390F2
:102CEC00E7048357840085CF5844930500101306DE
:102CFC000064834717000347070003C541A0A207E0
:102D0C00D98F239CF1A0238801A0EF00904483D598
:102D1C0081A1174502001305653BEF20F277A387CD
:102D2C0001A09DA493F7150085C317F6FF1F13068A
:102D3C00263897F5FF1F9385E53603C55184EF8040
:102D4C00613B93C7140091AC93F7050881CB4165A7
:102D5C007D15EFA0413093C7040881A403C741A09F
:102D6C008147631CA72213F7850015C781572314CD
:102D7C00F100239901A023AA01A0854783C65184A1
:102D8C0009462C0003D561A0A387F1A0EF50D00D0C
:102D9C0093C7840019A413F705024DC383C701A17F
:102DAC00A5E703C7418083D761A103D561A02DC7D7
:102DBC002314F1000147854781460546C945231870
:102DCC0001002315F100EF50E0732AC615CD9307CF
:102DDC00A0052300F50003C651842C0003D561A087
:102DEC00EF50C06A0DE585472388F1A083C7418069
:102DFC0093B71700130600649305000203C541A0A6
:102E0C002382F180EF00F03493C7040279A2C94504
:102E1C002800EF505036CDBF03C651842C0023142C
:102E2C00F100EF50E0656DF185472388F1A083C771
:102E3C00418093B717002382F180F9B713F705018E
:102E4C0011CF13078025814613064006D14503D5C3
:102E5C0061A0EFA0C11F93C7040181A213F7051055
:102E6C002DC383C701A1B1E7938741A083D7470145
:102E7C00014781462314F10009468947C94503D50A
:102E8C0061A0231801002315F100EF50A0672AC69A
:102E9C000DC1054423008500B24703C651842C00A4
:102EAC00A380070003D561A0EF50405E11E5238895
:102EBC0081A093C70410D5A0C9452800EF50B02BB2
:102ECC00CDBF13F7050471CB03D561A0EFA0E117BB
:102EDC000566130606969305000403C541A0EF0092
:102EEC00502793C7040455A8814A8149D947B38711
:102EFC00F902094783454400130A8400CA9783C723
:102F0C0047006395E7080D476381E5020547639425
:102F1C00E50203478400631EF7028345C40017458E
:102F2C0002001305A50DEF203257D947B387F902DC
:102F3C00CA9723860700034744009307F007631AD8
:102F4C00F70083558400174502001305A50CEF20EC
:102F5C00B254834744002D47E38FE7BE0547E39403
:102F6C00E7C003478400A946E319D7C08345C400D2
:102F7C00174502001305C50AEF201252D947B38931
:102F8C00F9024E9923060900834544005285EF50FF
:102F9C00901E2285C129A167A58FF2506254D2548C
:102FAC004259B259225A925A3E8521618280854AF1
:102FBC0085492DBF8347250049476361F730174783
:102FCC0002001307E7FE8A07BA979C43011122CC33
:102FDC0006CE26CA4AC84EC652C456C2BA972A84CE
:102FEC0082870144138981A497F9FF1F9389490AA9
:102FFC0017FAFF1F130A2A0A97FAFF1F938A0A0A65
:10300C0083C74184637FF402931434008904CA9407
:10301C001946A6854E8597E0FF1FE78000A315E1B2
:10302C001946A685528597E0FF1FE78000A211E99B
:10303C001946A685568597E0FF1FE78000A163021D
:10304C00052683C74184639D87021745020013053B
:10305C00E50EEF201256014685450D45238201846D
:10306C00EF80C111174502001305450C6244F24074
:10307C00D2444249B249224A924A05616F207253A6
:10308C00174502001305C50CEF20B252938781A49B
:10309C000E04930624003E9403461400BE9681450C
:1030AC000145EF80410A0566130606C89305000822
:1030BC0003C55184EF00F009174502001305450ABA
:1030CC0075B79305000803C55184EF00902983441C
:1030DC0014006394040EC16703D761A0F9178355DC
:1030EC00A4006303F70203D7C1A1630EF70003D753
:1030FC0021A36302F70C2E85EF90F17517450200A2
:10310C0013050507A5B78544D9473387F402938780
:10311C0041A0174502001305E506BA97094723821B
:10312C00E7000356E4002391B700EF20F2369DE848
:10313C00854713060064A14503C541A02388F1A06F
:10314C000564EF001001130604C8C14503C541A076
:10315C00EF003000130604969305000403C541A04C
:10316C00EF00207F1745020013050503EF20724482
:10317C00C16703D761A0F917630AF70003D7C1A190
:10318C006306F70003D721A36311F712174502005A
:10319C001305C5F9EF20F241238201846244F24009
:1031AC00D2444249B249224A924A014685450D45CC
:1031BC0005616F70B17C894481BFA68517450200FB
:1031CC00130585FEEF20522DD1B78357450003D749
:1031DC0061A08144630DF70003D7C1A18544630846
:1031EC00F70003D721A38D446313F7008944D94713
:1031FC00B387F402938441A0034664001745020090
:10320C00130545FCBE9483D52400EF20F22803C59A
:10321C000400F9572391F40023820400A3850400D1
:10322C00239904002386040093050004238201845F
:10323C00EF00301317450200130545EFEF207237EE
:10324C00B1BF62440356650083554500F240D24439
:10325C004249B249224A924A17450200130585F8A1
:10326C0005616F20722317450200130525F9EF2025
:10327C00523403C74184A54763E9E7028345440000
:10328C00130554006244F240D2444249B249224AE6
:10329C00924A05616FF0AFFB17450200130505F765
:1032AC00F9B705041374F40FA1BBF2406244D24485
:1032BC004249B249224A924A0561828082807971E0
:1032CC00170500001305A58306D622D426D24AD0B2
:1032DC004ECEEF00F0388565A382A18493850596C8
:1032EC000945EF20D013D1451D45EF205013930510
:1032FC0040062145EF20B012930540063545EF20DE
:10330C00101285470D47700091451305F0402304BA
:10331C00F100A304F1002305E100A305F10002C6AE
:10332C00EF90E1203000854513058040EF9021207F
:10333C0013069100854513059040EF90411F13062D
:10334C00A10085451305A040EF90611E1306B10046
:10335C0085451305D040EF90811D138441A09384C3
:10336C0061A497F9FFFF9389897979594E85EF000C
:10337C00302F2300A4002311240123020400A305F1
:10338C000400230604002319040023170400231847
:10339C000400231A04005904E31A94FCEF60800E15
:1033AC0003C55184EF50703A854503C551842529D6
:1033BC00B250225492540259F24945618280411113
:1033CC001305800406C622C497D0FF1FE780E0CB0C
:1033DC0091457D55EFF0EF8391457D55EFF0CF8D05
:1033EC00371400408327C40A93050002FD57232697
:1033FC00F40A0327C40C05452326F40CEFF02F9692
:10340C00854513050010EFF02F8B8327840C914515
:10341C001305002093E707202324F40CEFF0CF8949
:10342C00EFF00FA3174502001305C50EEF2072181D
:10343C00EFF0AFB9EFF08FCBEF903144493597D027
:10344C00FF1FE780A01423AC05FE1C4191E701008F
:10345C0001000CC18280BA8703A787FF6DFF23ACE4
:10346C00B7FE82801DC18346E5FF1307F00F91471D
:10347C00639EE600411106C697E0FF1FE78080417E
:10348C00B24081473E854101828095473E858280CE
:10349C0001E9014582800145B2402244410182800C
:1034AC0095654111938505D022C4C98D2A842105C7
:1034BC00C2054205C181418106C697E0FF1FE78026
:1034CC00003171D9FD5723200500231285002303F9
:1034DC00F5002105D1B7138781841C43411122C407
:1034EC0026C24AC006C601440149BA8489E7A165CF
:1034FC008D2D0DC401A803C7E7FF6318A7021DC8D3
:10350C00A165D5249840832784FF6317E40223A484
:10351C00F184FD57232C04FE230FF4FE2285B240C8
:10352C002244924402494101828011E03E8983A7E2
:10353C0087FF6DBF3E84E5BF232CF9FED9BFA1CD1B
:10354C00411122C406C62A849707002083C7177925
:10355C002E856375F400894763E8870021370D4594
:10356C00B24022444101828083A785FF99E703C7BB
:10357C00E5FF9307F00F6305F700ED351545CDB763
:10358C00238F85FE138581847D3D22852244B240A4
:10359C00A165410189AC1545828023A401848280F8
:1035AC00938701869C4399E33E85828003D727004D
:1035BC006316B70003C70700E308A7FEDC47E5B7AF
:1035CC00BDCD797122D406D626D24AD04ECE014436
:1035DC004147B3D78540858BB1CF12053147229532
:1035EC003305E5029387018503A907008544B3944D
:1035FC008400C204C180BE892A990327090011C71F
:10360C00032549002EC60297B24531473304E40224
:10361C0083A709003E941C4489E723200900232238
:10362C000900B2502254A58D02599254F2492E85AC
:10363C00456182800504E31EE4F88144DDB72E85E4
:10364C00828041111397050122C406C626C24AC0C6
:10365C0041872E84635E0700BD3D11C12135A167F2
:10366C003D8C2285B2402244924402494101828021
:10367C00EDD9AA8701474146B356E440858A9DCAD5
:10368C009207BA97B146B387D7029386018503A9EF
:10369C0006008544B394E400C204C1803E9983279C
:1036AC0009000325490082972320090023220900E1
:1036BC00258C45BF0507E311C7FC8144D5BF97078F
:1036CC0000209387E75D9C53411122C406C61384E6
:1036DC00818099C782971C403E9523A4A18029A084
:1036EC00938781859C43FDF70840B7470300938778
:1036FC00D73F3305F502B7A72600938737ECB240C6
:10370C0022443E9523A4A1804101828079C99387EC
:10371C0081859C43797122D426D24AD04ECE52CC8C
:10372C0056CA5AC806D65EC63A8AB689328BAE8A53
:10373C002A898297938701859843BE840144B146B8
:10374C00C147B30BD40233067701104251E6C16571
:10375C00938505F0414597E0FF1FE78040071DE585
:10376C00970700209387C7539C5B2D4589C711454C
:10377C00814582972D45B250225492540259F249F8
:10378C00624AD24A424BB24B456182809387018692
:10379C0098431DEF23A0A186230005009C400547FC
:1037AC003317870023260500232465012311E50028
:1037BC0023224501DE9723A0270123A2570123A42E
:1037CC0047010145E38909FA238089006DB73E87DB
:1037DC005C47F5FF48C7C9B70504E314F4F6214567
:1037EC0059BF094582809707002083C7374F637FF5
:1037FC00F5001387C1849317150008433E95835732
:10380C000500DD8D2310B500014582800D458280B9
:10381C009707002083C7974C6371F5021387C18407
:10382C0093171500084393C5F5FF3E958357050084
:10383C00FD8D2310B500014582800D458280130754
:10384C0005FF1377F70FFD4763E5E70AB146B306AB
:10385C00D50293870185984389473697184359CBEE
:10386C00011122CC4EC60544935945003D893315B0
:10387C00A40013140501418026CA4E85AE84A2858E
:10388C004AC806CE313B2A89814721CDA2854E8577
:10389C004137938781859C4382979707002083D774
:1038AC00A748338797022A84814613060064B3B76E
:1038BC00970213050732B335E500BE95EF10F27889
:1038CC00B307850097060020938686453E87D44231
:1038DC0063E4A70063E4D7003387D7402324E900CF
:1038EC008147F2406244D2444249B2493E85056167
:1038FC00828089473E858280011126CA06CE22CC61
:10390C004AC84EC6BD47894463EDA7023147330709
:10391C00E502938701859C438944BA979C4395C3E0
:10392C0005443314A400420441802E890145A2852C
:10393C008539AA89814411C5A2850145D13D23A4AD
:10394C002901F240624426854249D244B2490561BC
:10395C0082809707002083C777386364F5000145A0
:10396C00828001119387818556C283AA070006CEF7
:10397C0022CC26CA4AC84EC652C4638D0A0A170AFC
:10398C000020130AEA3983244A00B74736FE93878E
:10399C0007C8AE899705002083D50539BE94B38737
:1039AC00C5022A8432898146B3B5C5021385073214
:1039BC00B337F50013060064BE95EF10126963EB84
:1039CC00A406829A9705002083D50536B387250374
:1039DC00AA84130600648146B3B525031385073208
:1039EC00B337F500BE95EF105266B3079500BE8451
:1039FC0003274A0063E4A70063E4E700B384E740CD
:103A0C00CE852285713E01C504C505452DA0936563
:103A1C0004F0C205C181414597E0FF1FE78020DB20
:103A2C0005E5970700209387A7279C5B81C7A28594
:103A3C00114582970145F2406244D2444249B24951
:103A4C00224A924A05618280938701869C438DE3CA
:103A5C0023A0A18685472326050004C52311350123
:103A6C0023008500A300F5002322050079BFBA8747
:103A7C00D84775FFC8C7F9BF49C9797122D426D276
:103A8C004AD04ECE52CC56CA5EC662C466C206D668
:103A9C005AC83689328AAE89AA844144314C938AF9
:103AAC000185854C930B0003330B840303A70A0099
:103ABC005A971C43B1E79375F400B395BC001355AA
:103ACC004440C2055286C1811375F50F59350DC995
:103ADC0083A70A000145DA9784C323A23701630444
:103AEC00090023008900B250225492540259F24921
:103AFC00624AD24A424BB24B224C924C4561828074
:103B0C000504E31374FB2145F9BF0945828041117B
:103B1C0022C426C24AC006C62A842E89B284153D08
:103B2C00CA852285B53C05CD9705002083D5C51FD8
:103B3C00B38795022A84130600648146B3B59502B7
:103B4C0013850732B337F500BE95EF10125048C0FD
:103B5C000145B240224492440249410182802145F0
:103B6C00CDBF411122C426C24AC006C62A892E8462
:103B7C00EFF01FA3AA8419C123110500A2854A8561
:103B8C0041399707002083C767156397270183D7AF
:103B9C0041855D8C239A8184014591E01945B240A1
:103BAC00224492440249410182809307F00263E669
:103BBC00A7044111B14722C43304F50226C29384F1
:103BCC0001859C4006C6A297984389470DC39377FD
:103BDC00F5008545B395F500C205C18111815137BA
:103BEC009C40A29723A0070023A207008147B24064
:103BFC00224492443E854101828089473E858280E1
:103C0C00411106C622C4EFF0BF9911E50145B2403F
:103C1C00224441018280938781859C430045829791
:103C2C00970700209387C70F6368A402D843B74651
:103C3C0036FE938606C83305A4403697E378E5FC38
:103C4C0013070064B335E50203D6870081463305BC
:103C5C00E502EF10923F65BFD8433A94C1BF4111C2
:103C6C0022C426C2170400201304840B97040020DE
:103C7C009384C406944858409387818506C69C4318
:103C8C00639FE60682975440B74736FE938707C872
:103C9C00B6973387A7003A856364F7006364D7004F
:103CAC003305D740970400209384441F9C4C91CB40
:103CBC009387019494433707CDFF7D179C46F98F6A
:103CCC009CC611E1484097070020938767FDDC53A1
:103CDC00829719E59C4C99CFEF30714EEF30612BE8
:103CEC009C4C89CB938701949843B70633001C47AF
:103CFC00D58F1CC7B24022449244410182808297E6
:103D0C0098489707002083C7F7FA54401D8FB307D4
:103D1C00A7003E8563E4E700E3E6D7F83385D74098
:103D2C0051B7411106C623AEA1840295B240970744
:103D3C00002023A1A7FC014541018280994763E93A
:103D4C00B7008A05970700209387C7FBBE9588C1EB
:103D5C00828041117146814517050020130585FAB3
:103D6C0006C623A0018623AE018423AC018497D020
:103D7C00FF1FE78000C8130680028145170500204D
:103D8C001305C5F597D0FF1FE780A0C6EF9041390A
:103D9C009707002083C737F213D527008D8B3E95EC
:103DAC008D473305F502854539051375F50F9707D2
:103DBC0000202386A7F299473305F5021305052445
:103DCC0097E0FF1FE780A0A023A8A18459C59947BD
:103DDC00170600200346A6F03306F60281451306AB
:103DEC00062497D0FF1FE780C0C0938701859C43B2
:103DFC009387072423A2F18617070020034727EE99
:103E0C000A07BA9723A6F184EFF02FF9392B938781
:103E1C00418694439707002083C757EC13972700DC
:103E2C00369717F6FFFF1306E67910C313871700B2
:103E3C001377F70F0A073697170600001306A680AC
:103E4C0010C313873700890793F7F70F8A07970575
:103E5C000020A385E5E8B69790C3B240410182806B
:103E6C009707002083C797E717070020034727E72A
:103E7C0063F1E702138741861843938617001706F0
:103E8C000020A30DD6E493962700369708C33E85F1
:103E9C0082809307F00FE5BF1C41638807164177BA
:103EAC007D8FB706002089476312D716035745004C
:103EBC00630E0714411122C419462A849305F00F8E
:103ECC00690506C697D0FF1FE780C0BC05478D4724
:103EDC006308E5121C4481CB5858994763020712BA
:103EEC00185C630F07101306C003814517050020EB
:103EFC00130505DB97D0FF1FE780A0AF1306C003A7
:103F0C00A285170500201305A5D997D0FF1FE780C0
:103F1C00C0AA17070020035767D99707002093877B
:103F2C0027D819E713070010970600202390E6D82E
:103F3C00170700200347A7D711E70547970600206E
:103F4C002387E6D617070020035787D611E76D475E
:103F5C0097060020239EE6D417070020034737D589
:103F6C0011E7154797060020A383E6D41707002016
:103F7C00034727D411E7054797060020238BE6D289
:103F8C00170700200347F7D219E703C7F700970676
:103F9C000020A380E6D2170700200347A7D111E722
:103FAC003547970600202387E6D0170700200347E4
:103FBC00B7D019E71307800297060020A38EE6CE30
:103FCC0017070020034717CF19E71307D0029706EE
:103FDC000020A381E6CE0347840119E71307C00331
:103FEC0097060020238AE6CC9C5791C782979707A7
:103FFC0000202399A7CEFD57A389F19A993B8147BD
:10400C00B24022443E854101828089473E858280B0
:10401C0001114EC697090020938989D083A7090006
:10402C0006CE22CC26CA4AC852C482971309006411
:10403C00B335250303DA89008146528633052503FF
:10404C00EF10B20097070020938747C9804FAA84CE
:10405C0001456306940233858440636E940003A586
:10406C00490052868146B335A9023305A902EF10E7
:10407C00C27D018D26959707002023AD97C6F2408F
:10408C006244D2444249B249224A056182800111FC
:10409C0022CC0A852E84414697350200938505E98A
:1040AC0006CEEF101234180806043A94035504FF98
:1040BC009707002083D767C7F2406244AA97374519
:1040CC000F00130505243355F5020561828097070F
:1040DC00002083D787C551471D45637CF70279477C
:1040EC0019456378F7021307200315456373F7022C
:1040FC001307B0041145637EF700130740060D4506
:10410C006379F7001307600909456374F70013B569
:10411C00B70F8280011122CC06CE2A842EC6EFF076
:10412C000FDAB245F240818D33A5A5022295624487
:10413C001375F50F05618280011122CC06CE2A84FD
:10414C002EC6EFF0CFD7B245F240818D33A5A50234
:10415C00229562444205418105618280011122CC85
:10416C0006CE2A842EC6EFF08FD5B245F240818D53
:10417C0033B5A50222956244056182809707002021
:10418C00938707B2985739CB411122C426C206C671
:10419C00BE840297170700200357C7B42A8415CB97
:1041AC00BA876373A700AA87C207C183BA866373F1
:1041BC00E400A286C206C182958F5147635BF7006B
:1041CC00DC5491C38297EF30816B97070020239BBF
:1041DC0087B0B2402244924441018280828097078A
:1041EC0000209387E7ABDC57011106CEAA8581C767
:1041FC002AC68297B245C9C19C410545BDCBDC415D
:10420C00ADCB83D78500B5C783D7A500BDC383C706
:10421C00C500A5E3414617050020130565B097C0FE
:10422C00FF1FE780807997070020938767AF9C4337
:10423C0023ACF1849707002083C717A88DE7930759
:10424C00800217050020035525AE3305F5023746CD
:10425C000F001306062481468145EF10025F970775
:10426C000020A38BA7A4170500001305A5DA553C65
:10427C000145F240056182809707002083C7A7A300
:10428C00139787016187635407049707002023A5C0
:10429C0007A697D7FF1F938707B317070020232183
:1042AC00F7A87D579707002023AEE7A6B787320003
:1042BC00938727A19706002023A8F6A6970700202E
:1042CC00238607A6B7C7004023A4E726A9BF13F788
:1042DC00170005CFB7872003938707D01707002057
:1042EC002324F7A4B707C0A817070020232CF7A294
:1042FC0097D7FF1F938747B0170700202322F7A2F9
:10430C0097070020238407A239BF61779706002006
:10431C00239CE6A081CB93070032170700202316BD
:10432C00F7A0C9B793072003CDBF011122CC170406
:10433C0000201304E496084406CE26CA4AC801E9B4
:10434C000545F2406244D2444249056182805C5882
:10435C00E5DB185C75D77000854582971844B24729
:10436C00E300F7FE9305E0041705002003550594C0
:10437C0097D0FF1FE780A045170700202320A798A0
:10438C0061D117060020035666929305F00F97C073
:10439C00FF1FE78000668144170900201309099468
:1043AC009707002083C7A7900326090263C1F40274
:1043BC00328597D0FF1FE780E04D0145970700201D
:1043CC0023AE07929707002023AC07929DBF970559
:1043DC00002083D5A58DB38795020844185C89818C
:1043EC0085043E9508C2029765BF011156C2970A13
:1043FC000020938AEA8A83A78A0022CC4AC84EC638
:10440C0006CE26CA52C45AC0AA892E843289638524
:10441C00072203A74A03630707147D476366A714A3
:10442C00970400209384848B03AA040263170A0A5E
:10443C009565938515E0170500200355258797D0C2
:10444C00FF1FE780C0389707002023A9A78A2A8678
:10445C00630A051083A74A0303A58A009705002069
:10446C0083D5C5848981829783A78A0003AA040215
:10447C00170700202326F7888947639CF908C14752
:10448C006312F40E9705002083D54582938505FCB5
:10449C009147B3C5F5028A05D29503C7050093076A
:1044AC00A005631DF70A83C715006399370B4A856E
:1044BC002286910597C0FF1FE78020509C505285A3
:1044CC00639347150145F2406244D2444249B249D4
:1044DC00224A924A024B05618280D850E38EE7F85B
:1044EC009565938525E017F5FF1F0355257C97D01F
:1044FC00FF1FE780C02D2A8A35C52A8683A74A0369
:10450C0003A58A0097F5FF1F83D5457A8981829789
:10451C00A5B78D47639DF900C1476315F40497F562
:10452C00FF1F83D5A578938545FDF199B5B79147C4
:10453C00639AF9006318340397F5FF1F83D5057749
:10454C00A115E5B7C147639FF900A14763EC87004C
:10455C0097F5FF1F83D58575C115C1BF9C5052853A
:10456C006397470D294585B71307F006568B636192
:10457C00A70A130A05FE1947334AEA0217F7FF1F69
:10458C000357C77297FAFF1F938A4A75330AEA02D8
:10459C003E9A83A74A026395470183A40A029DE4CD
:1045AC009305E00417F5FF1F0355457097D0FF1FC7
:1045BC00E780E021AA845DD583274B0397F5FF1F85
:1045CC0083D5C56E2A8689815285829791451307BA
:1045DC00A005898193972500A69783C6070063934E
:1045EC00E60483C61700639C360385058A0522867C
:1045FC00A6954A8597C0FF1FE780203C83A70A0237
:10460C00E38297EC268597D0FF1FE780A0285DBD3D
:10461C001307E007E368A7F4130A05F985B783D5F8
:10462C00270045BF83A70A02E38E97F2268597D011
:10463C00FF1FE78020263DB797F7FF1F9387076A78
:10464C008C538DD191479306A0058983139727002E
:10465C002E9703460700E317D6F003461700631C9A
:10466C00360185078A072286BE954A8597C0FF1FAB
:10467C00E780A03481BD83572700C1BF97F7FF1F88
:10468C0093870762984739C79C5FA9C7054763138F
:10469C00E504411122C417F4FF1F130424641050C5
:1046AC0006C60DC6485097F5FF1F83D52560898136
:1046BC008297085097D0FF1FE780C01D97F7FF1F08
:1046CC0023AE076297F7FF1F23AC0762B240224468
:1046DC00410182808280011117F7FF1F1307475C8D
:1046EC004EC68329870022CC26CA4AC806CE52C49D
:1046FC0056C2AA842E843289638A09201C5FBA8A26
:10470C0099EB2945F2406244D2444249B249224ACB
:10471C00924A056182805C5BEDD7FD4763E9A70E89
:10472C0097F9FF1F9389895B83A70902B1CB03A576
:10473C008A0083A749026395A70689476393F40807
:10474C00C147E310F4FC17F5FF1F0355255691479D
:10475C00130505FC3345F5029317250003A5090243
:10476C002286CA853E959307A0052300F500A30079
:10477C009500110597C0FF1FE7802024014559B70C
:10478C009305E00417F5FF1F0355455297D0FF1F03
:10479C00E780E00397F7FF1F23A2A75649F995B7C7
:1047AC0083A74A0303A6090297F5FF1F83D505507B
:1047BC008981829783A78A0017F7FF1F2322F7545A
:1047CC00ADBF8D47639EF400C147E31CF4F217F5AF
:1047DC00FF1F0355A54D130545FD9377C5FFBDBFC1
:1047EC009147639AF400E31E94F017F5FF1F0355ED
:1047FC00E54B2115DDB7C147E395F4F0A147E3E2A2
:10480C0087F017F5FF1F0355654A4115F9B7930754
:10481C00F00663EAA706930705FE1947B3C7E7023C
:10482C0017F7FF1F0357874817FAFF1F130A0A4B86
:10483C00B387E702BE9983270A02A9CF83274A02CE
:10484C00639A370703250A0291461308A005FD5504
:10485C0093D72600C207C183139727002A970346D4
:10486C000700631D0607834817000356270063954E
:10487C009806B306D64063CF860485078A0722863E
:10488C00CA853E95C5BD9307E007E3ECA7E6930701
:10489C0005F979B79305E00417F5FF1F035505419A
:1048AC0097D0FF1FE780A0F297F7FF1F23A8A7441C
:1048BC0051F581BD83A74A0303260A0297F5FF1F12
:1048CC0083D5C53E89814E85829797F7FF1F23A913
:1048DC0037438DBFA300B700B2869DBFB38586005A
:1048EC0017F6FF1F0356863C9105130606FCE3FAE8
:1048FC00C5E0130634001376C60F1106B2962300DA
:10490C000701A30097002311D70085BF97F7FF1F5E
:10491C009387C73C9453BE89A1C203A50902914653
:10492C001308A005FD5593D72600C207C183139722
:10493C0027002A97034607006316060583481700CD
:10494C000356270063989800B306D640E3D786F247
:10495C00A300B700B286C1BF8357C70017F5FF1F6E
:10496C000345E5349305E0043305F5024205418126
:10497C0097D0FF1FE780A0E597F7FF1F23A0A7386C
:10498C0049FD41B317F6FF1F0356463297F5FF1F3B
:10499C0083C5E531B385C502338686001106E3E293
:1049AC00C5D681BF01458280011106CE2EC6EF808F
:1049BC00B01F01C9B245F2400355250005616FC017
:1049CC001053F240494505618280A38801882388F1
:1049DC00018823AC018623AE018623A0018823A283
:1049EC00018823AA018623A8018697F7FF1F9387C6
:1049FC002734370684033707B40090D337C6070033
:104A0C0098C3130606B83747A000D8C3D0D33707CE
:104A1C00100041669306070AB7055000930806017B
:104A2C0094C723A4170393860501930816F8D4C7DB
:104A3C0023A61703B706D007B7087F00130807058E
:104A4C0013850601410723A81703B0C3930816006A
:104A5C009386060513861500D8CBF8C323A8070147
:104A6C0088CF23AE070023AA170323AC070223AE7B
:104A7C00070223A40704F0C7B4CB23AA0704ACCFC6
:104A8C0023AE0705B8D33707A000F8D71307000AE1
:104A9C00B8DB1307C01CF8DB37071400B8DF054779
:104AAC00F8DF130710F8E8D323A4070623A00708A0
:104ABC0023A2E7088280011126CAAA84214522CCB0
:104ACC0006CE2E8432C636C43AC2EFE07F9C1DC996
:104ADC00A24612473246930700FD2300F500994782
:104AEC00A30095002301F5002303D500A303E500E3
:104AFC002312C500AA8522856244F240D244056186
:104B0C006FE0FFA3F2406244D2440561828023AC83
:104B1C00A186828023AEA186828023A0A188828078
:104B2C0023A2A1888280011122CC4AC806CE26CAB3
:104B3C002A890144B30489006368B400F2406244DA
:104B4C00D2444249056182802EC6EFE05FB79317CD
:104B5C000501C183A183B2452380F400930714009F
:104B6C0093F7F70F850463F9B700CA9709042380FC
:104B7C00A7001374F40F7DBF3E847DBFC16717F58A
:104B8C00FF1F0355C523FD176304F502411117F6EA
:104B9C00FF1F0346E62F9385818806C6EF80C05F12
:104BAC00B240FD5717F7FF1F231BF72041018280EE
:104BBC00828009C925151375F50F1335850E13451C
:104BCC00150082800145828023900500C9C6797149
:104BDC0022D426D24ECE52CC5AC806D64AD056CA69
:104BEC005EC63684328AAE892A8B814463F34407CD
:104BFC00B307940083C70700138914004209939AE2
:104C0C00070193DA0A011359090163840A04CA974C
:104C1C006341FA04B307240183CB07005E85513F3F
:104C2C000DC99387FAFF2390F90063906B0313056A
:104C3C0019002295B250225492540259F249624AF8
:104C4C00D24A424BB24B45618280D694C204C18099
:104C5C0071BF0145C5B701458280411126C2AE84A2
:104C6C0022C497F7FF1F23A3C71697F7FF1F23AD87
:104C7C00B71497F7FF1F23A7A7142A84414693055F
:104C8C00F00F26854AC006C6054997C0FF1FE7806E
:104C9C0060E06310250597F7FF1F9387E711884B9A
:104CAC00C145513541469305F00F228597C0FF1F32
:104CBC00E78040DE854463189502224497F7FF1F76
:104CCC009387870FB24092440249C847C1454101BE
:104CDC0099BD41468145268597C0FF1FE78080DB43
:104CEC00E31225FD4DBF41468145228597C0FF1F2C
:104CFC00E78040DAE30395FCB24022449244024937
:104D0C0041018280411122C426C22E84AA8413063A
:104D1C000002814517F5FF1F1305050A06C697C04B
:104D2C00FF1FE78000CD97F7FF1FA388970897F721
:104D3C00FF1F23818716EFC0D01D854719C18147FE
:104D4C004945B240224417F7FF1F2307F706924448
:104D5C0041018280814781CD19C98547631BF500CC
:104D6C0083C7550093E707FCA382F50085473E8572
:104D7C00828089476317F50083C7550093F7F703C3
:104D8C00E5B70D478547E314E5FE03C755001377D8
:104D9C00F70313670704A382E500D1BF81478DC1D8
:104DAC0005C103C755009306000C85471377070C04
:104DBC006308D700930600048D476303D700894727
:104DCC003E858280411122C4005D06C626C21DC8E4
:104DDC00AA84085009C597D0FF1FE780A0AB4850A4
:104DEC0009C597D0FF1FE780E0AA085409C597D0E2
:104DFC00FF1FE78020AA228597D0FF1FE78080A99C
:104E0C0023AC0402B240224492444101828009ED59
:104E1C0097F7FF1F83C767FA17F5FF1F130545FBAD
:104E2C0081CB13858186828017F5FF1F130545FA08
:104E3C00828017F5FF1F034545F8828097F7FF1F07
:104E4C00938787F7C847828097F7FF1F9387C7F62A
:104E5C00884B828097F7FF1F938707F6DC4B8843BC
:104E6C00828097F7FF1F938727F5D84B1C43850744
:104E7C001CC317F5FF1F034555F49307F00F63058B
:104E8C00F50091656FE03F968280011122CC06CE31
:104E9C002E8432C6EF8080619147B245631FF500C6
:104EAC00938741889C438DC303A30700630E0300C3
:104EBC0022856244F240056102839387C1879C433B
:104ECC0081C703A34700DDB7F24062440545056185
:104EDC008280011122CC2A840355450006CE26CAB5
:104EEC004AC84EC6EF80A03B35C52A8983440500CD
:104EFC008349C500C13D4A85EF80301503554400F8
:104F0C00EF80005683C70189B1CB6399970483C5A1
:104F1C0011892685EFF05FA919E1238801880355D3
:104F2C004400EF80A0589147631FF50003574400DD
:104F3C0097F7FF1F83D7A7E86317F700FD5717F7FD
:104F4C00FF1F231EF7E6F2406244D2444249B249A5
:104F5C000561828081499304F00F6DB79307F00FC0
:104F6C00E38FF4FA8346640003564400034524009F
:104F7C004E87A685893665B779715EC6AA8B2E8554
:104F8C0052CC56CA5AC806D622D426D24AD04ECEB5
:104F9C00AE8A328B368AEF8080307DC1045D2A89DF
:104FAC00E5C09C50614599C3130540039C5481C7CF
:104FBC0051054205418163050A0071054205418195
:104FCC00DC5081C75D0542054181EFE06FCC2A843E
:104FDC0045C96146814597C0FF1FE78080A197F9BD
:104FEC00FF1F83C9E9D7639409008349090093071C
:104FFC0000FD2300F400A947A30074012301F40071
:10500C00230364018C50231254011305840191C9AC
:10501C0008C47146930A440397C0FF1FE780E099C8
:10502C0056858C5491C948C45146930A450197C082
:10503C00FF1FE78080985685630C0A0008C87146EC
:10504C00D285930AC50197C0FF1FE780009756854C
:10505C00CC5099C548C85D4697C0FF1FE780E095C6
:10506C00A2854E85EFE0AFCD2254B2509254F24956
:10507C00624AD24A424BB24B4A850259456199B3B6
:10508C00B250225492540259F249624AD24A424BCB
:10509C00B24B4561828001114EC6AA892E854AC841
:1050AC0006CE22CC26CA2E89EF80601F21C997F428
:1050BC00FF1F83C4E4CA99E0834405001945EFE05F
:1050CC002FBD2A8405CD8145194697C0FF1FE78067
:1050DC004092930700FD2300F400B947A30034016C
:1050EC002301F40023122401A2856244F2404249B8
:1050FC00B2492685D24405616FE06FC4F240624428
:10510C00D2444249B2490561828039715ECEAA8B84
:10511C002E8526DA4ED652D456D25AD006DE22DC52
:10512C004AD8AE84328BB68A3A8ABE8942C6EF80A0
:10513C00001721CD2A894145EFE08FB52A8431C56E
:10514C004146814597C0FF1FE780A08A17F5FF1FD6
:10515C00034505C119E103450900930700FD230030
:10516C00F400BD472301F400B247A30074012312DD
:10517C00940023046401A304540123054401A305F2
:10518C0034015CC4A285EFE08FBBF2506254D25460
:10519C004259B259225A925A025BF24B21618280D7
:1051AC00797126D2AA8439454AD04ECE06D622D45D
:1051BC002EC6B2893689EFE0AFAD21C1B245930757
:1051CC00000D2310F500B1472A842312B5002301EA
:1051DC00F500CE851905194697B0FF1FE780E07DD5
:1051EC0023062401A2852254B2500259F24913F528
:1051FC00F40F925445616FE08FB4B2502254925424
:10520C000259F2494561828017F7FF1F0347F7BA2D
:10521C009307F00F630DF706411126C2AA84394596
:10522C0022C406C64AC0EFE0AFA62A8439C9930748
:10523C0000FD2300F500A30095002301050097F560
:10524C00FF1F9385E5B80D05194697B0FF1FE78042
:10525C00C07617F9FF1F130929B683578900A28559
:10526C0017F5FF1F034575B52315F4008347190087
:10527C002306F4002244B2409244024941016FE0FB
:10528C000FACB24022449244024941018280828098
:10529C0001115AC02A8B314526CA4EC652C456C279
:1052AC0006CE22CC4AC8AE84B28A368ABA89EFE0DE
:1052BC002F9E35CD2A842685EF70707E11C503474D
:1052CC00C500A1476314F70417F9FF1F0349F9AE92
:1052DC00930700FD2300F4009D47A3006401230104
:1052EC00F4002312940023135401231444012315B6
:1052FC003401A2856244F240D244B249224A924A15
:10530C00024B4A85424905616FE06FA317F9FF1FF5
:10531C00034959B8E31E0BFA938781999C439C4728
:10532C00C5DBCE865286D6852685829755B7F24048
:10533C006244D2444249B249224A924A024B056124
:10534C008280011122CC2A84214506CE2EC6EFE0A4
:10535C002F9421C1B245930700FD2300F500C547EA
:10536C002301F50083C73500A301F50083D7450061
:10537C002312F50083C765002303F50083C775006E
:10538C00AA85A303F50022856244F24005616FE013
:10539C000F9BF240624405618280397162CC2A8C89
:1053AC00594526DA4AD84ED652D456D25AD05ECE69
:1053BC0006DE22DCAE8432C636C4BA8B3E8BC28A81
:1053CC00468A8359010403494104EFE06F8C25C9D7
:1053DC003246930700FDA2462300F5009547A30132
:1053EC00C500A30085012301F5002A841946110587
:1053FC00A9C2B68597B0FF1FE780205C2306640125
:10540C00230A240123157401231754012318440182
:10541C0023193401A2856254F2504259B259225ACE
:10542C00925A025BF24B624C2685D25421616FE09A
:10543C000F91814597B0FF1FE780A05BC1B7F25079
:10544C006254D2544259B259225A925A025BF24BCC
:10545C00624C2161828097F7FF1F83C707968DCB23
:10546C004111AA8519461385818606C697B0FF1F80
:10547C00E780A0549385818617F5FF1F0345E593BC
:10548C00EFF05F8DB2401385818641016FC02029FA
:10549C000145828017F7FF1F034737929307F00FE0
:1054AC006305F708411126C2AA84294522C406C601
:1054BC00EFD01FFE2A8429C1930700FD2300F500BD
:1054CC00A1472301F500A300950097F7FF1F9387D1
:1054DC00A78E83C72700938581861105A30FF5FE40
:1054EC00194697B0FF1FE780404DA28517F5FF1FA7
:1054FC000345B58CEFE0AF8417F7FF1F0347E78B2D
:10550C008D47631FF700938701889C4391CB03A3BE
:10551C008700630703002244B24092444101028396
:10552C00B240224492444101828017F7FF1F034787
:10553C00C7888D47631AF700938701889C4389C7F6
:10554C0003A38700E31D03FC8280797122D406D665
:10555C0026D24AD04ECE52CC094455CD2A89035579
:10556C0005002E8A5144EF709053AA844DC597F7CD
:10557C00FF1F83C72792FD1793F7F70F0547494481
:10558C00637BF7080347C500A1476314F700631456
:10559C000A089C5C4544C1E39165938545711305EC
:1055AC00C00297C0FF1FE780802288DCAA894D4487
:1055BC003DC11306C002814597B0FF1FE7806043D1
:1055CC00835709009386490036852391F90071466B
:1055DC009305490036C697B0FF1FE780003E894708
:1055EC002380F90003C5C400B246035609006115B7
:1055FC0097F5FF1F83C5C58913351500EF805068DB
:10560C002A8463060A00D2852685EF80E05201C405
:10561C002685EFF02FFB2285B2502254925402596A
:10562C00F249624A4561828097F7FF1F83C78786DC
:10563C00FD1793F7F70F0547637AF708894741CAB7
:10564C00011122CC26CA4AC84EC652C406CEAA891B
:10565C00368AB2842E89EF7090442A84D14739C996
:10566C00485509C597C0FF1FE780C022F145268524
:10567C0097B0FF1FE780403A48D4CD4705CD83460D
:10568C00C40021478147639FE600630D0A0003476E
:10569C00A5010356050193062501AA854E85EF80C9
:1056AC002051AA8703474400630F09001367670062
:1056BC002302E400F2406244D2444249B249224AF5
:1056CC003E850561828013674700DDB7C9473E857B
:1056DC0082809307200463EBA70097E7FF1F938753
:1056EC00276506053E9503550500828041657D15AD
:1056FC008280011122CC2A842E8526CA06CEAE8445
:10570C00EF70F0391DCDB7470F009387F72309458C
:10571C0063E4870281450A85414697B0FF1FE78005
:10572C00402DA685231081000A854180230181002C
:10573C00A3010100EF807040F2406244D244056145
:10574C0082804945D5BF97E7FF1F2384A7748280C9
:10575C006F80304D797152CC2A8A328522D426D270
:10576C004AD04ECE56CA5AC85EC606D662C4AE8B56
:10577C00B28A368BBA843E89C2894684EF70303245
:10578C0015C92A8C63140A0213774B008347450012
:10579C0015CF93E727012302FC008DEC631C090253
:1057AC00639A090205E8ED9B2302FC00832B8C0312
:1057BC0063910B08B250225492540259F249624A36
:1057CC00D24A424BB24B224C45618280F59B93E707
:1057DC000701D1B793E747002302FC0001CC1C481A
:1057EC004146A2852324FC0213058C0197B0FF1FB0
:1057FC00E780A01C63930B02D5D80325CC0209C506
:10580C0097C0FF1FE7800009F145268597B0FF1F61
:10581C00E78080202326AC0251BFE30909F8032559
:10582C00CC0209C597C0FF1FE780C006F1454A8529
:10583C00F1BF9DC483A70B0299EB916593853571DC
:10584C00714597C0FF1FE78080F823A0AB0203A52A
:10585C000B0219C57146A68597B0FF1FE780E015AE
:10586C006388090283A74B0299EB91659385257197
:10587C005D4597C0FF1FE78080F523A2AB0203A50F
:10588C004B0219C55D46CE8597B0FF1FE780E0122D
:10589C001DC483A78B0299EB9165938515715145B6
:1058AC0097C0FF1FE780A0F223A4AB0203A58B02D5
:1058BC0019C55146A28597B0FF1FE78000102254EE
:1058CC00B2509254F249B24B224CCA865A860259B3
:1058DC00424BD6855285D24A624A45616FF0CFE978
:1058EC00011126CA52C406CE22CC4AC84EC62A8AF8
:1058FC00AE84EF70D01A25C5AA893945EFD05FB9AF
:10590C002A8431CD17E9FF1F034989456314090027
:10591C0003C909009307000D2310F400AD472301C0
:10592C00F4009385690013053400194697B0FF1FE6
:10593C00E780A00893F71400858085882306F4007F
:10594C00A306940023154401A2856244F240D2447C
:10595C00B249224A4A85424905616FD05FBEF24086
:10596C006244D2444249B249224A05618280011103
:10597C004EC652C456C206CE22CC26CA4AC8AA8AE1
:10598C002E8AB289EF70B0112DCD2A891305C00271
:10599C00EFD01FB02A8435C597E4FF1F83C4443C65
:1059AC0099E0834409009307000D2310F400E947A4
:1059BC002301F4009305690013053400194697B0D0
:1059CC00FF1FE78080FFD285231554011305C40007
:1059DC00414697B0FF1FE78040FECE851305C401FA
:1059EC00414697B0FF1FE78040FDA2856244F2401C
:1059FC004249B249224A924A2685D24405616FD067
:105A0C001FB4F2406244D2444249B249224A924AFB
:105A1C000561828093870187884301CD411106C6B9
:105A2C0097C0FF1FE78000E7B24023A80186410121
:105A3C0082808280011106CE22CC26CA4AC82EC68C
:105A4C00EF70F00539CDB24517E9FF1F0349493115
:105A5C00AA840CD563140900034905004145EFD015
:105A6C003FA32A841DCD9307000D2310F500A547F5
:105A7C002301F50083C75400938564001105A30F1F
:105A8C00F5FE194697B0FF1FE78020F39C54A285C2
:105A9C00F2405CC46244D2444A85424905616FD0ED
:105AAC001FAAF2406244D2444249056182801D71B2
:105ABC00A2CC86CE2A842EC6EF70607E05CD83469E
:105ACC00C5001147AA8749456392E6029C5FB2451F
