:040000006F1010214C
:100004000000000000000000900000208A0400208E
:10001400A9BDF9F5900000200000000000000000D8
:10002400900000209000002000000000000000006C
:10003400900000200000000090000020000000005C
:1000440090000020900000209000002090000020EC
:1000540090000020900000209000002090000020DC
:1000640090000020900000209000002090000020CC
:100074007E050020900000209000002090000020C9
:1000840090000020900000209000002090000020AC
:1000940001A073270080218B9387018409CB7327E8
:1000A400008023A0E18498435D9B731007800100C6
:1000B400010037170040930670052300D704930608
:1000C40080FA2300D704010001008346B70493F6A5
:1000D400F60DA305D7042300070473260080944378
:1000E400A18AD18E7390068023A0018401000100AF
:1000F40093760502638406180347A700118B25E74E
:1001040073270080218B09CB7327008023A0E1840F
:1001140098435D9B7310078001000100371700406E
:10012400930670052300D704930680FA2300D704AE
:10013400010001008346A70093E646002305D7008B
:1001440023000704F32600809843218B558F7310F6
:10015400078023A00184010001001307004B010064
:1001640001007D176DFF73270080218B09CB732756
:10017400008023A0E18498435D9B731007800100F5
:10018400010037170040930670052300D704930637
:1001940080FA2300D704010001007D892314A700FD
:1001A400010001000100010023000704F326008080
:1001B4009843218B558F7310078023A0018401007D
:1001C400010073270080218B09CB7327008023A0B3
:1001D400E18498435D9B7310078001000100371789
:1001E4000040930670052300D704930680FA230089
:1001F400D7040100010001000100B72600401306E6
:100204001005A383C68023000704F32600809843C7
:10021400218B558F7310078023A0018401000100F6
:1002240073270080218B09CB7327008023A0E184EE
:1002340098435D9B7310078001000100371700404D
:10024400930670052300D704930680FA2300D7048D
:10025400010001008346B70493E60608A305D7040A
:1002640023000704732700809C43A18BD98F7390CC
:10027400078023A001840100010082809376050495
:10028400638B06140347A700418B25E7732700807F
:10029400218B09CB7327008023A0E18498435D9BC5
:1002A40073100780010001003717004093067005A2
:1002B4002300D704930680FA2300D7040100010029
:1002C4008346A70093E606012305D700230007040D
:1002D400F32600809843218B558F7310078023A049
:1002E4000184010001001307007D010001007D1756
:1002F4006DFF73270080218B09CB7327008023A017
:10030400E18498435D9B7310078001000100371757
:100314000040930670052300D704930680FA230057
:10032400D704010001009376F50193E60604231433
:10033400D700010001000100010023000704F32697
:1003440000809843218B558F7310078023A001846C
:1003540001000100130760046310E50473270080A3
:10036400218B09CB7327008023A0E18498435D9BF4
:1003740073100780010001003717004093067005D1
:100384002300D704930680FA2300D7040100010058
:10039400B72600400946B5B573270080218B09CBE9
:1003A4007327008023A0E18498435D9B731007802A
:1003B4000100010037170040930670052300D7049D
:1003C400930680FA2300D70401000100B7260040F9
:1003D400130620053DB573270080218B09CB7327B5
:1003E400008023A0E18498435D9B73100780010083
:1003F400010037170040930670052300D7049306C5
:1004040080FA2300D704010001008356870093E695
:10041400060C2314D700C5BB411181460146814512
:10042400114506C6152CF3270080A18B9386018401
:1004340089CBF327008023A0F1849C42DD9B739039
:10044400078001000100B7170040130770052380DF
:10045400E704130780FA2380E7040100010003C7BF
:100464006704136717002383E704238007047327B3
:1004740000809C42A18BD98F7390078023A00184B4
:1004840001000100B240410182808146014681455C
:100494001145D922F3270080A18B1387018489CBCE
:1004A400F327008023A0F1841C43DD9B7390078015
:1004B40001000100B7170040930670052380D7049C
:1004C400930680FA2380D70401000100FD56239689
:1004D400D70223800704F32600801C43A18BD58F09
:1004E4007390078023A0018401000100F32700809A
:1004F400A18B89CBF327008023A0F1841C43DD9BCF
:100504007390078001000100B7170040930670053F
:100514002380D704930680FA2380D70401000100C6
:1005240083C6670493E616002383D7042380070455
:10053400F32600801C43A18BD58F7390078023A0E2
:1005440001840100010001A0BD473305F50201004B
:100554007D1575FD8280411122C426C206C6AA8477
:10056400014463179400B2402244924441018280C2
:1005740005041305803E4204C13F4180DDB7B7172F
:100584000040130700032388E702854723A4F1846E
:1005940073002030411106C6A92DFDBF230304803A
:1005A40015472303E48001002302A480828083078B
:1005B4006480E3CE07FE2303048082808307648083
:1005C400E3CE07FE03454480828083076480E3CE44
:1005D40007FE2302A4808280411126C44AC24EC071
:1005E40006C61377F50BAD47AA892E899544630691
:1005F400F70019456537653F8D444E854537FD59EC
:10060400FD1463983401B240A24412498249410165
:100614008280135509011375F50F453F2209CDB7A3
:10062400011126CC06CEB704080051371545BD3755
:10063400713769372AC6A53F32459377150089EB90
:10064400136515001375F50FF240E24405618280CD
:10065400FD14E9FC0145CDBF397126DC4ADA4ED8D8
:1006640052D656D45AD25ED006DE62CE66CCB7E7F6
:1006740000E07D5783AA070022C603AA470023A0EF
:10068400E71823A2E718B717004013077005238063
:10069400E704130780FA2380E70483C74704930B16
:1006A40075FFB684E20793FBFB0F8546AA892E8B60
:1006B400328937240040E187015763FA76016308E1
:1006C400D5008946130700026313D5000157D98F5B
:1006D40093F7F70FB71C00402382FC041147230350
:1006E400E4801305F00F5D3D094CD135636D7C1139
:1006F400B7050700DA9537870700795563F2E504F3
:10070400B3879500636EF702370B0800A94733EBF4
:1007140065016399F90689E48144513D26850DA05C
:10072400DA850945553D05090345F9FFFD14050B17
:10073400693D81C49377FB0FFDF7DD3569FD7D5578
:10074400B7170040130770052380E704130780FAE6
:100754002380E70403C74704418B2382E704F25054
:10076400B7E700E023A0571123A24711E254324413
:100774005259C259325AA25A125B825B724CE24CF1
:1007840021618280A5476395F90685691309F00FF5
:10079400B3069900B3742B01B6941349F9FFB374EB
:1007A4009900856B33796901416B9387F9FFB3F73E
:1007B400270199E363FC340193D94900C147E3E677
:1007C40037FF99BF0569C1697D19D9B71305800D34
:1007D4006388690113050002638479011305100815
:1007E400CA85DD3B353D21DD4E99B3843441D9B70B
:1007F400DA852D45D533CA94E30099F205097D3B8A
:10080400A30FA9FED5BF9387F9FF93F7F70F636191
:10081400FC0C83C71C0413073008631FF704370755
:100824000800636BEB04B3079B00B706100063F585
:10083400D704334BEB0089476393F9068980D54984
:10084400E38C04ECDA850945413B11090327C9FF10
:1008540091472320E48003076480E34E07FE2303CB
:100864003481FD17EDFBFD14110B81C49377FB0F4D
:10087400E9FF7D3371F5E1B5B717004003C75704AD
:10088400B70708001377070219E3B78707007955FC
:10089400E378FBEA33079B00E3FFE7F855B58547A8
:1008A400E382F9F2DA852D45053B9389F4FFE3856C
:1008B40004E6293393F7390091EB83260480032758
:1008C400090093074900E39AE6E43E89CE84F1BF28
:1008D400B5476396F9001305900BC93135BDB1478F
:1008E4001305B00AE38BF9FE99476391F904B70540
:1008F4000800B365BB002D45C53181448D4BA1492A
:10090400753963967401832704802320F9008504D4
:10091400E39834FF8327048013172B0163550700E2
:100924002312F900D5BB2322F900FDB39D47639937
:10093400F90281451305B0044531BD442320090063
:1009440023220900FD599D3993F77400CA9703C700
:100954000700FD14398D2380A700E39634FF6DBB97
:10096400A1476392F9046D398144630D0B008D47EF
:100974009304C0036308FB009304000563048B0124
:10098400930440041375C507E30895D81945393114
:1009940039390545213126850D3909453D3149311E
:1009A400E31C05D669BB91476399F90013056006FA
:1009B400F536F53E130590090DB7E38F09D4F154CC
:1009C400A9BB19CD91CD09CE81473387F500834664
:1009D40007003307F50085072300D700E317F6FE69
:1009E400828019C991C909CA910583A7C5FF110558
:1009F4007D16232EF5FEC5BF828001C919C62A962D
:100A04000505A30FB5FEE31DA6FE828081473307CB
:100A1400F5000307070019E33E8582808507C5BFFB
:100A240001112E8626CAAA84131506019305F00423
:100A3400418122CC06CE32C6EF00F04F2A8401C594
:100A44003246A685BD3F2285F2406244D244056108
:100A54008280854715C18DC105C28147B306F50063
:100A64003387F50083C60600034707006398E60052
:100A74008507E315F6FE85473E8582808147EDBFF5
:100A84009307F6FFBE952A966313C5008280FD1571
:100A940083C715000505A30FF5FEFDB7AA87014519
:100AA40081CF09CE3E96850703C7F7FF6317B700CA
:100AB400E39BC7FE0545828082800145828079716F
:100AC4009387818622D4804306D626D24AD04ECE3E
:100AD40052CC56CA5AC85EC65DCCB7C4C901014BD4
:100AE400938901869384F437173A0000130ACAAA3B
:100AF400973A0000938A0AAE173900001309C9B166
:100B04008357240085E35C44631B0B0023A4F18614
:100B1400832BC4002285EF00704E5E84B9A823267F
:100B2400FB00FDB783A7090082971C443307F540F7
:100B34006376F500032749001D8F2A9763E0E408D4
:100B44009737000023A007AA835524000345040017
:100B5400973000E0E78040815C405844A1CB0C44CE
:100B640003264900AE97BE8663E4B70063E4C7007A
:100B7400B386C74014C4228B3A8459F097370000D7
:100B8400938747A59C4B09476370F706F9171737F6
:100B940000002329F7A4B250225492540259F24976
:100BA400624AD24A424BB24B4561828063150B00C4
:100BB40023A4E186B1BF2326EB0099BF03274A0291
:100BC40009CF63EFA7003385A74083A70A016376A3
:100BD400F5009737000023A7A7A0228B404471BFDC
:100BE40003274900BA97C5B79737000023AC079E7F
:100BF4005DB7411122C417340000130424A01C4023
:100C040006C626C24AC091C782979737000023A719
:100C1400079E9737000083C737B8858B9734000049
:100C2400938444B795C397370000A38707B683C757
:100C340074001547637AF700052B83C77400F51712
:100C44008A07A2979C4382971C4491C38297138975
:100C5400418503270900173600000346B6979737E6
:100C6400000083C7279793961700BA9683D6060089
:100C7400C5CE9737000083C7E79563E1C70C973764
:100C84000000238907941C406395071297370000DE
:100C940083C7D7B091CF83C7740093F7F70F89EB5D
:100CA40097370000A38C07AE97F000E0E7806079E7
:100CB400938701869C43638E070E973700009387C2
:100CC400A795DC4317370000232EF790CD3B9737C9
:100CD40000009387678CDC53E9CF173700001307B4
:100CE400678F184B9737000083C7578C6363F70CE3
:100CF40083C774001547636EF70A9737000083C7EC
:100D0400E7AD918BDDE7032609009736000083C623
:100D1400768C63C6D70A2244B24092440249410108
:100D2400173300E0670003A6850793F7F70F97369C
:100D340000002381F68AE3E4C7F225BF86073E97C5
:100D44008355070023100700239E01849387C186DF
:100D54009C43173500000345E58713172500BA9710
:100D64009C43829783D7C185173700000347878642
:100D740093C7F7FF7D8D93171700032709003E974C
:100D8400835707005D8D2310A7009737000083C7A2
:100D9400678491C7850717370000230DF78217373B
:100DA4000000034727839737000083C7B782E3789F
:100DB400F7ECB240224492440249410182801397E5
:100DC40017003297035707006DF7850799B7AD678A
:100DD40037C70040BD072326F7200F1000009727D0
:100DE40000009387277FC84F83278726BD66BD06EB
:100DF40093C7F7FF99836A052326D7205D8D8280E8
:100E04004111B7170040985F3AC6945F3247E39C9C
:100E1400E6FE3245410182801305F00F8280011104
:100E240097370000938707A122CC03A4070C26CA96
:100E340006CE2AC42EC6854419E40145F240624414
:100E4400D244056182808347910003471400858B57
:100E54006304F7000044CDB719469305A1001305B8
:100E64002400C53EE31895FE0545C9BF138741918B
:100E74001C439306001094C301000100010001000B
:100E84001C4323A007008346150003482500A2063F
:100E94004208C29603480500C2960348350062081A
:100EA400C29694D78346550003486500A2064208BB
:100EB400C29603484500C296034875006208C2966C
:100EC400D4D7834695000348A500A2064208C296DB
:100ED40003488500C2960348B5006208C29694DBB5
:100EE4008346D5000348E500A2064208C29603489B
:100EF400C5000345F500C2966205AA96D4DB83C6F5
:100F0400150003C52500A2064205AA9603C50500DF
:100F1400AA9603C535006205AA9694CF83C65500E8
:100F240003C56500A2064205AA9603C54500AA9614
:100F340003C575006205AA96D4CF83C6950003C580
:100F4400A500A2064205AA9603C58500AA9603C574
:100F5400B5006205AA9694D383C6D50003C5E500FF
:100F6400A2064205AA9603C5C50083C5F500AA9644
:100F7400E205AE96D4D3D443F59AD4C3D44393E6CE
:100F84001600D4C3944393E6160094C3BA879443DB
:100F9400D842058B59E3984E01452300E600984357
:100FA400184F2183A300E6009843184F418323017F
:100FB400E6009843184F6183A301E6009C43D84F91
:100FC4002302E600D84F2183A302E600D84F4183D1
:100FD4002303E600D84F6183A303E6009853230458
:100FE400E60098532183A304E60098534183230524
:100FF400E60098536183A305E600D8532306E60070
:10100400D8532183A306E600D85341832307E6007F
:10101400DC53E183A307F600828001008DBF1387B0
:1010240081911443411122C49C5E4AC006C699832F
:1010340026C2858B3A8413894191D1C79C5E97243B
:1010440000009384247593F7F7F99CDE17270000BA
:101054000347A77493070008631BF700832709005D
:101064009C4393F70704172700002308F77283C7EC
:10107400040093F707048DC3938701869C438297EA
:101084009727000023A0A77283C7040093F7F70BE8
:10109400172700002300F77083C7440093F7070461
:1010A4009DE3854717270000A308F76E93874192B5
:1010B4009C43096798C7130700FC97260000238DFB
:1010C400E66CD844F8D31C40985F1183058B09CB98
:1010D400985F3D9B98DF054797260000238EE66ABC
:1010E400985F1D83058B11CB985F1377F7F798DF13
:1010F4008547172700002301F76A83270900D8438F
:101104000583058B19C7D843759BD8C3D843799BEE
:10111400D8C3B240224492440249410182803971C9
:1011240006DE16DC1ADA1ED82AD62ED432D236D0EF
:101134003ACE3ECC42CA46C872C676C47AC27EC093
:10114400F93DF250E2525253C2533255A25512564F
:1011540082567247E2475248C248324EA24E124F5C
:10116400824F2161730020309387419294439727E3
:1011740000009387276203C70700058B11CB9727CD
:101184000000238B076097270000A38707608280F5
:1011940003C71700058B65F7F85271FF83C7570023
:1011A400DDB713888191032708001C5F9583858B25
:1011B400D1E709C61C5BBD832300F60085CA8327DB
:1011C4000800985B4607935767016356070093E747
:1011D40007C0C207C18303970600C207C18709C7B6
:1011E400BA970947B3C7E7022390F60085CD834732
:1011F40015008DCB9726000083C6265A93F6060465
:101204001387970089478DCA3A9503470500854699
:1012140099471376F7066311D60262076187B947C7
:10122400634C0700832708009C5FED838D8B172791
:101234000000A306F75681473E8582808547EDBFAF
:10124400411122C406C61384419218402DE9AE8789
:101254007453FDFE3E85B28597270000238D075207
:1012640097F000E0E78020F3938781919C43B706D1
:1012740080009843558F98C3D857719BD8D7972728
:101284000000A38B075097270000A38507501C403C
:10129400094798C31440172700001307A74F834733
:1012A4002700858B89EB83473700858BD9C3972724
:1012B40000002383074EB2402244410182808D47BF
:1012C400631EF500938781919C43B7068000984381
:1012D400558F98C3D857719BD8D76DBF8547E31BEB
:1012E400F5FA5447F977FD17F58F5CC70F10000026
:1012F4001C40096798C7130700F817260000230D40
:10130400E648138781911043184231830D8B11E70E
:1013140013076019F8D3D4C7B5BF184209463183FF
:101324000D8B6315C7001307E043EDB71307E01BEC
:10133400D5B7FC52ADF741B75D71A2C4A6C22A84E9
:10134400130680022800AE849305100886C6CAC01E
:101354004EDE52DCEFF06FEA354597F000E0E780AF
:10136400E01F13838191832703009376F41F138E68
:10137400C19223A40700984B938E4192370FFCFF30
:101384001367F70398CBF84F130510F8B70204005E
:10139400137707E0558FF8CF9843F576FD16758FD0
:1013A40098C39843B7063300930380251377F7E770
:1013B40098C3984311497D1F1377F7E71367071004
:1013C40098C303270E008549930F80021C47D58FCD
:1013D4001CC783A70E001307900D3400B8CB014738
:1013E40093553700A69583C7050013767700B3D7C6
:1013F400C740858BE1C38327030083280E00239C09
:1014040007042390070603A8C8021378D8FF23A66D
:10141400080383A807001378F70793F808F833E85C
:10142400080123A0070103A847023368580023A238
:10143400070383A80E00014823A2780603DA0706EF
:101444006307480303A80703038A06001358F80038
:1014540062081358884163580A0103A80703135804
:10146400F8002380060103D807061378F80F03AAAF
:10147400480663060A0003DA8705E37F49FB03A8ED
:1014840047023378E80123A2070383870600635CDD
:10149400F40003C805003396C9001346F6FF3376FB
:1014A40006012380C5003E8663D3A7002A86131550
:1014B4008601618505071377F70F8506E312F7F3B5
:1014C400B640264496440649F259625A61618280C4
:1014D400938641929C42D84713161701635506021E
:1014E400984713161701635006027D57B8D717277C
:1014F40000001307270E584F05071726000023295D
:10150400E60E116798C798470D83058B1DC31727EF
:101514000000034747281367170017260000230C11
:10152400E626130700F8172600002307E6262147BE
:1015340098C79847058B09CF1727000003479725BD
:101544001367170017260000A306E624054798C76B
:1015540098470983058B09E798470583058B21CFB5
:101564009847172600001306E62213858191098304
:10157400058B630307101841184331830D8B75EBFA
:10158400AC4B184E93F5050203471700CDCD79EF08
:1015940013077006D8CF03470600136717001726F2
:1015A40000002309E61E114798C718415C57F19BB8
:1015B40093E717005CD79C4298479316370163D68C
:1015C40006029726000083C6662EC18A17270000EC
:1015D40013074726C5CE03478707136707029726D5
:1015E40000002385E62C056798C7984793162701C2
:1015F40063D10602172700000347071A62076187B1
:10160400635707000547972600002387E6180967F4
:1016140098C798479316070163D6060297260000D9
:1016240083C6D628858A172700001307A720ADCEC6
:10163400034797071367270097260000A388E62629
:10164400216798C7828029D785456315B70013079A
:10165400B00689B789456315B7001307F0061DBFA7
:101664008D456315B700130730072DB713075007CF
:1016740015B71307600739BF034736001367170010
:1016840017260000A309E610094739BF83468707D8
:101694000946BD8A6388C600034787078D463D8B8C
:1016A400E313D7F4114725BF83469707918AC9DA14
:1016B400034797071367870041B7397106DE16DCC5
:1016C4001ADA1ED82AD62ED432D236D03ACE3ECC0E
:1016D40042CA46C872C676C47AC27EC0D53BF250AE
:1016E400E2525253C2533255A25512568256724791
:1016F400E2475248C248324EA24E124F824F2161F5
:1017040073002030938741929843856793870777C6
:101714007CD39387C1929C4383A6070913965600F2
:101724006358060083A607091396660063440600FF
:101734007453FDF2828061C1AA870145DDCD8D0716
:10174400C207C183F19BC207C18313074003636BC4
:10175400F7021387819B08431387019B1443639605
:10176400A60217270000130727E3185B014551C79A
:101774004111C20706C60545DD8D0297B2400145F9
:10178400410182801387419BF9B70357650035E314
:1017940003574500636FF704B306F7402146637CA3
:1017A400D60203280500938687001D8FAA96611729
:1017B40017260000035666E22392E60023A00601E2
:1017C4002393060014C12312F500130786FF9726FE
:1017D40000002394E6E02313B5009725000083D589
:1017E400C5DFB387F540172700002318F7DE21056E
:1017F40082800841ADB701458280828009CD9387FC
:10180400819B03A307009387019B83A8070081465C
:101814009A8763E31701828003A807006369F50AC6
:101824006367A80A13878700E367E5FE03D66700AA
:10183400216705076317E60003C7018F050723889F
:10184400E18E972500009385E5D803D6470003D79A
:101854006500239307003297420741831725000050
:10186400231DE5D6638867021385419B0841630302
:10187400F50203D5660019ED83D7460023A00601BF
:1018840021073E9621062392C6009727000023963F
:10189400E7D4B6879843E30017F99386419B9442B3
:1018A400E30BD7F683566700BDF683D6470003568D
:1018B40047001843A106B2962392D70098C383D752
:1018C4006500A107172700002319F7D08280BE8680
:1018D400C28781B7797122D406D683C735002E8496
:1018E40023160100A307F10083C74500100802C0B6
:1018F4002307F10083C755008A8502C2A306F100BD
:1019040002C402C802CA02CC02CEEFF02FD60347AB
:10191400F1018347040001456310F7020347E10125
:101924008347140001456319F7000345D101834738
:1019340024001D8D13351500B25022544561828058
:101944000111972700009387E7EE22CC03A4870CAC
:1019540026CA4AC84EC606CEAA841309250085495C
:1019640015C083C7140003473400858B6304F70054
:10197400405CFDB71946930544004A85EFF06F8D2E
:10198400E31835FF2285F2406244D2444249B24909
:10199400056182804111972700009387A7E922C43B
:1019A40003A4870C26C24AC006C693042500054931
:1019B40001E82285B24022449244024941018280D6
:1019C400A6851305A4023937E30525FF405CCDB78E
:1019D4004111972700009387E7E522C403A4870CED
:1019E40026C24AC006C693042500054901E822859B
:1019F400B24022449244024941018280A6851305E3
:0C1A0400A401C93DE30525FF405CCDB7FF
:101A10009711002093818199176100201301815E45
:101A20001305400097E5FF1F9385C55D170600204D
:101A3000130606FE63FAC5008322050023A05500A5
:101A400011059105E3EAC5FE17C50100130585FFE1
:101A5000970500209385C5FB1386018463FAC500B2
:101A60008322050023A0550011059105E3EAC5FE78
:101A70001385018497250020938585EE6377B50053
:101A8000232005001105E36DB5FEFD42739002BCF5
:101A90008D4273904280930280087390023097E2E7
:101AA000FF1F9382225693E23200739052309712B6
:101AB00000009382424973901234730020303D43FA
:101AC0002A876373C3029377F700BDEFADE5937682
:101AD00006FF3D8ABA960CC34CC30CC74CC74107DE
:101AE000E36BD7FE11E28280B306C3408A069702F9
:101AF000000096966780A6002307B700A306B700EC
:101B00002306B700A305B7002305B700A304B70059
:101B10002304B700A303B7002303B700A302B70051
:101B20002302B700A301B7002301B700A300B70049
:101B30002300B700828093F5F50F93968500D58D2D
:101B400093960501D58D61B7939627009702000003
:101B500096968682E78086FA9680C1171D8F3E96FC
:101B6000E374C3F8A5B7B717004003C77705137729
:101B7000E70FA38BE704130700F8A38DE7043D47A5
:101B8000238CE70413075003A38CE7048280B71764
:101B9000004083C7E7020D8993F7C70FC98F7327EA
:101BA0000080218B9386018409CB7327008023A0BA
:101BB000E18498425D9B7310078001000100371794
:101BC0000040130670052300C704130680FA2300A3
:101BD000C704010001002307F7022300070473274D
:101BE00000809C42A18BD98F7390078023A0018431
:101BF00001000100828041112A83014E930E407E34
:101C0000130F0019930F400663E66E149308001932
:101C100013034006B3781503854E0D4FA14F337360
:101C200065020D891335150063E0BE161308F6FF33
:101C3000794672984208135808013307C70213D631
:101C40001700BE0732976146B3F6C60213068070CE
:101C5000B386C6023697A166F58F42075D8FB71629
:101C6000004083C7F60293F70708A307F100034675
:101C7000F10083C7F60293F70708E394C7FE834792
:101C8000F100B716004093F7F70F63890714F327A5
:101C90000080A18B938601846398071401000100E2
:101CA000B7170040130670052380C704130680FA97
:101CB0002380C7040100010023AA070303C61703FA
:101CC00013660608A388C7022380070473260080D2
:101CD0009C42A18BD18F7390078023A001840100C7
:101CE00001001166B71500407D16DC59C85DA98F4B
:101CF000F18FE5FFF3270080A18B89CBF3270080CC
:101D000023A0F1849C42DD9B7390078001000100B9
:101D1000B7170040130670052380C704130680FA26
:101D20002380C70401000100D8DB03C71703136732
:101D30000704A388E70223800704732700809C42DE
:101D4000A18BD98F7390078023A00184010001002B
:101D5000410182807D133368E3039308E016630E2C
:101D600008003368F3039308D016630808009378DB
:101D7000330093B818009388D81633081E01131E39
:101D80000801135E0E0149B56393E50305486386B8
:101D900008000148630303002A8871087298FD1542
:101DA000131E0801C205135E0E01C181B5BD13F8F3
:101DB000150063F4BF007908D5B713381800E5BFE4
:101DC00083C7F60293F70708A307F1000346F10063
:101DD00083C7F60293F70708E394C7FE8347F10031
:101DE00093F7F70FF1DF65B5F327008023A0F184A7
:101DF0009C42DD9B7390078055B54111B717004099
:101E0000985F3AC6945F3247E39CE6FE3245410153
:101E100082805971E2C486D6A2D4A6D2CAD0CECED0
:101E2000D2CCD6CADAC8DEC6E6C2EAC06EDE2A8CDA
:101E300002D6EF00B020F3270080A18B138D018420
:101E400091CBF327008023A0F18483270D00DD9B35
:101E50007390078001000100B71700401307700559
:101E60002380E704130780FA2380E70401000100C0
:101E700003C7F7021377770FA387E70203C7F702B9
:101E800013678700A387E702238007047327008076
:101E900083270D00A18BD98F7390078023A0018425
:101EA00001000100F3270080A18B91CBF327008074
:101EB00023A0F18483270D00DD9B73900780010030
:101EC0000100B7170040130770052380E7041307CC
:101ED00080FA2380E7040100010003C7E7021377BB
:101EE000C70F2387E70203C7E7021367170023879B
:101EF000E702238007047327008083270D00A18B4E
:101F0000D98F7390078023A001840100010013077B
:101F100080C13347E5029169938709E813065002AF
:101F20003D69B7440F0093840424856B130BA00410
:101F3000014A814A13047005FD19B347F5023307BE
:101F4000C7023EC2930709A61309803E3347F70232
:101F50003AC43347250305493319890113593940D8
:101F60003345950293840BFAB3948401811B3306A5
:101F7000C702B346F6023309E90236C6330B6703DC
:101F800013076055B3049502130500103309E902E5
:101F9000B346FB02130B80FAB3C4A40236C8B3479E
:101FA000F902939634003719004036CC93040904A3
:101FB0003ECA73260080218A11CA7326008023A09E
:101FC000C18403260D005D9A731006800100010094
:101FD000930770052380F400238064010100010051
:101FE000034639051376860FA309C904034639054C
:101FF00013661600A309C90423800400732500801A
:1020000003260D00218A498E7310068023A00184C7
:1020100001000100916CE17D73260080218A11CAC4
:102020007326008023A0C18403260D005D9A7310DF
:10203000068001000100930770052380F4002380CF
:102040006401010001000346390513660602A30975
:10205000C90403560905336696012318C9040356BB
:1020600009053366B601420641822318C90423805C
:1020700004007325008003260D00218A498E731009
:10208000068023A001840100010003463905137670
:1020900006026300061603463905218A6DDE6810C4
:1020A000EF00E07D73260080218A11CA732600802C
:1020B00023A0C18403260D005D9A731006800100E1
:1020C0000100238084002380640101000100034695
:1020D00039051376F60DA309C904034639051366BD
:1020E0000602A309C904035609053366960123189D
:1020F000C904035609053366B60142064182231816
:10210000C904238004007325008003260D00218A62
:10211000498E7310068023A001840100010003464C
:102120003905137606026302061003463905218A33
:102130006DFEE1312A8632CEC9317246E30DC5FE0D
:10214000035609053255336696012318C904B12791
:1021500003463905218A6DDE035509050346290525
:10216000924733F5A9003386C90232951D8DA247E7
:1021700063D5A700B2476346F50E09466365560F5F
:10218000C247850A1316150093FAFA0F3346F60272
:10219000635EA038050609453346A6027325008014
:1021A000218911C97325008023A0A18403250D0076
:1021B0005D99731005800100010023808400238055
:1021C0006401010001000355C9022A9642064182BA
:1021D0002316C902238004007325008003260D0006
:1021E000218A498E7310068023A00184010001001A
:1021F00025B573260080218A11CA7326008023A08A
:10220000C18403260D005D9A731006800100010051
:102210002380840023806401010001000346390506
:1022200013660602A309C90499B573260080218AA2
:1022300011CA7326008023A0C18403260D005D9A75
:102240007310068001000100238084002380640154
:10225000010001000346390513660602A309C904FB
:102260004DB5E38F0AF073260080218A11CA7326C8
:10227000008023A0C18403260D005D9A73100680A0
:10228000010001002380840023806401010001001B
:10229000034639051375FC0F1376860FA309C9048D
:1022A00003463905498EA309C90423800400732815
:1022B000008003260D00218A336606017310068014
:1022C00023A0018401000100034639051D8A631122
:1022D000862773260080218A11CA7326008023A0D6
:1022E000C18403260D005D9A731006800100010071
:1022F0002380840023806401010001000346390526
:1023000011651376F60DA309C90403463905136652
:102310000602A309C90403560905498E2318C904F6
:10232000035609052165498E2318C904238004003A
:102330007325008003260D00218A498E73100680C4
:1023400023A001840100010003463905137606022B
:102350006308062003463905218A6DDE68100523CF
:1023600073260080218A11CA7326008023A0C184AD
:1023700003260D005D9A7310068001000100238082
:1023800084002380640101000100034639051165C2
:102390001376F60DA309C904034639051366060230
:1023A000A309C90403560905498E2318C904035615
:1023B00009052165498E2318C9042380040073256B
:1023C000008003260D00218A498E7310068023A009
:1023D0000184010001000346390513760602630DEE
:1023E000061A03463905218A6DFE013CAA8C313458
:1023F000E30F95FF035609051165498E32552318E1
:10240000C904612903463905218A6DDE73260080DF
:10241000218A1385018409CA7326008023A0C18400
:1024200010415D9A73100680010001002380840032
:102430002380640101000100034639051376F60D7F
:10244000A309C90423800400732800801041218A55
:10245000336606017310068023A001840100010089
:102460000358090503462905E24733F80901338675
:10247000C90232983308F8401306800C3306C802AC
:10248000D2473346F6026355001505060948334620
:1024900006036351C0140358C9029308F00F135880
:1024A0005800329863D6081F094663734619F3270C
:1024B0000080A18B89CBF327008023A0F1841C41ED
:1024C000DD9B7390078001000100371700409307E0
:1024D00070052300F704930780FA2300F704010036
:1024E00001008356C70289678117D58FC207C18350
:1024F0002316F70223000704732700801C41A18BD9
:10250000D98F7390078023A0018401000100B65089
:10251000265496540659F649664AD64A464BB64B57
:10252000264C964C064DF25D656182807D16A5B104
:1025300073260080218A11CA7326008023A0C184DB
:1025400003260D005D9A73100680010001002380B0
:10255000840023806401010001000346390599B31A
:1025600073260080218A11CA7326008023A0C184AB
:1025700003260D005D9A7310068001000100238080
:1025800084002380640101000100034639051366BD
:102590000602A309C90459BB73260080218A11CA07
:1025A0007326008023A0C18403260D005D9A73105A
:1025B0000680010001002380840023806401010063
:1025C00001000346390513660602A309C904F5B3E1
:1025D0007D166DBD55CE0358C902B308C0401358CF
:1025E00058006357180B094663744605F3270080AB
:1025F000A18B89CBF327008023A0F1841C41DD9BB4
:102600007390078001000100B717004013077005A1
:102610002380E704130780FA2380E7040100010008
:1026200003D7C7027D8B2396E70223800704E9B511
:1026300073260080218A09CA7326008023A0C184E2
:1026400010415D9A73100680010001002380840010
:1026500023806401010001000356C9021376F60FBE
:1026600033667601420641822316C90223800400A4
:10267000732800801041218A33660601731006809A
:1026800023A0018401000100050A137AFA0F15B294
:10269000F3270080A18B89CBF327008023A0F1844E
:1026A0001C41DD9B7390078001000100B7170040BB
:1026B000130770052380E704130780FA2380E704DB
:1026C0000100010003D7C70216063A96420641826E
:1026D0002396C70299BF914763EEB70217B701006F
:1026E0001307C7B98A05BA959C41BA978287B7176D
:1026F000004003A7470B1345F5FF698F23AAE70A9C
:1027000003A7070B698F23A8E70A03A7070A798D98
:1027100023A0A70A8280B717004083A6470B134760
:10272000F5FFF98E23AAD70A83A6070B558D23A898
:10273000A70A83A6070A758F23A0E70A8280B71726
:10274000004003A7470B498F23AAE70A03A7070BFB
:102750001345F5FF45BFB717004083A6470B134746
:10276000F5FF758F23AAE70A03A7070A598D4DB70E
:10277000B717004003A7470B498FEDB7914763EEAA
:10278000B70217B701001307A7B08A05BA959C4195
:10279000BA978287B717004003A7470D1345F5FF87
:1027A000698F23AAE70C03A7070D698F23A8E70CFD
:1027B00003A7070C798D23A0A70C8280B7170040D0
:1027C00083A6470D1347F5FFF98E23AAD70C83A6DE
:1027D000070D558D23A8A70C83A6070C758F23A082
:1027E000E70C8280B717004003A7470D498F23AA43
:1027F000E70C03A7070D1345F5FF45BFB7170040CA
:1028000083A6470D1347F5FF758F23AAE70C03A78F
:10281000070C598D4DB7B717004003A7470D498FD7
:10282000EDB7B717004003D7870109C5D98D239CA1
:10283000B700828093C5F5FFF98DD5BFB71700406B
:1028400003D58700420541819377050491EB937787
:10285000F5013755E801130505803345F5028280FF
:102860009377050C130700046397E7009377F5014E
:1028700037459C1CCDB72165130505D0828037E70D
:1028800000E01C435443A183E206D58F1CC1FD57D1
:102890002320F7182322F718828013178500B7E743
:1028A00000E023A0E710618123A2A7108280B7F780
:1028B00000E08847CC478280814737370040A146F7
:1028C00063C4C700328582800345B740E38EA6FE0D
:1028D0003385F5000345050085072304A740CDB7E0
:1028E00097F7FF1F9387872C9C4317170020130728
:1028F00027073E95636EE5001757002013078750A2
:102900006368A70017F7FF1F2322A72A3E8582804E
:10291000FD57EDBF411122C406C62A840537294759
:10292000B307E502B2408D83B3D7870222449507EF
:10293000B3D7E70237370040C207C1832316F740F9
:1029400041018280716541111305052006C6D93702
:10295000B7370040130770F82381E7400D47A38184
:10296000E74013070004A380E74005472387E740BB
:10297000B2404101828011456FF0AFC94111939679
:102980002500AA852D4506C697E0FF1FE78000CDEC
:10299000B240014541018280411126C29394250035
:1029A00022C44AC02A843289A686AA8501462545C2
:1029B00006C697E0FF1FE78060CAA6864A86A28502
:1029C000294597E0FF1FE78060C9B2402244924446
:1029D0000249014541018280011122CC06CE371403
:1029E000004026CA4AC84EC652C483447405034AEE
:1029F000B4058349840503499405EFF0CF968347D6
:102A0000A40593F4F40F137AFA0F93E71700230D3C
:102A1000F40493F9F90F1379F90FB717004003C7BE
:102A2000A705058B6DFF03D5C705A38D4705238C2F
:102A30003705A38C2705A38B9704F2406244D24448
:102A40004249B249224A05618280411193970501AA
:102A500022C406C6C1872E8463DB0700E52B11C1A3
:102A600049232165218DB24022444101828093F7A0
:102A7000150013C51500E5FB9397250163D00702E8
:102A8000EFD0305BCD3D37F60200130606E08965D6
:102A900003C54184EF00301E0965E9B7939715011E
:102AA0000145E3D207FC17B5010013052584EF901B
:102AB000416513060064916503C54184EF00B01BB6
:102AC00011654DB75D71494697A501009385857DD8
:102AD00017B501001305C5A086C697E0FF1FE78064
:102AE00080F701E917A501001305057DEF906161ED
:102AF00001A0B7F600E0795798CAFD57DCCA056710
:102B0000B7E700E023A0E7101306F00290C223A06D
:102B1000E718010001001306C0038145480097E053
:102B2000FF1FE780C0ED97F7FF1F9387E7263EC2A0
:102B30008967938707802314F100B547230CF100C0
:102B4000A167938707E03EC6B70701059387071083
:102B50003EC8ED47231AF1008547230BF100970784
:102B600000009387E7E13EDC97070000938707E3C7
:102B70003EDE8567938717D8231DF1009707000075
:102B8000938727D33ED297070000938727E53ED649
:102B900097070000938767DE3ED8580097B701007B
:102BA000938747E697B60100938666E503C657000C
:102BB000FD170507A30CC700E39AD7FE4800EF00F6
:102BC000D05FAA8501C917A5010013052570EF90F4
:102BD000A14101A0B640616182804111170500004A
:102BE0001305E5E606C622C4EF00B05913844184FC
:102BF0002300A4002928034504002244B24037F6EC
:102C00000200130606E0896541016F00D0064111FC
:102C100006C6F3270080A18B1387018489CBF32795
:102C2000008023A0F1841C43DD9B7390078001008A
:102C30000100B7170040930670052380D704930660
:102C400080FA2380D7040100010083C6F70293F6BF
:102C5000A60FA387D70223800704F32600801C4316
:102C6000A18BD58F7390078023A001840100010000
:102C7000F3270080A18B89CBF327008023A0F18468
:102C80001C43DD9B7390078001000100B7170040D3
:102C9000930670052380D704930680FA2380D70417
:102CA0000100010083C6F70293E62600A387D7023E
:102CB00023800704F32600801C43A18BD58F7390DB
:102CC000078023A00184010001000545EFE03FECEF
:102CD0005D311305407E81470147814605468545A4
:102CE000EFE07FF1B240014541016F00707D931725
:102CF000750063D507061375050FC1476305F50217
:102D000063E4A70019C9828093070002630EF502ED
:102D100093070003630FF502828017A501001305D6
:102D2000E55E6F90013E411117A501001305455F57
:102D300006C6EF90013DB24003C5C1841306000AE8
:102D4000894541016F00207317A501001305855EB9
:102D5000C9BF17A501001305E55EE1B73D898947A5
:102D60006304F50263E6A7008547630AF5008280E5
:102D70008D476300F50299476302F502828017A52B
:102D800001001305655D71BF17A501001305C55D41
:102D900049BF17A501001305255E61B717A50100FE
:102DA0001305455FBDBF41119397050122C406C6B7
:102DB00026C2C1872E8463D3070403C5C184592C5E
:102DC000AA8415C5034705009307000D631FF7008C
:102DD00003472500E547631AF7008345350017A52B
:102DE00001001305E550EF9021202685DD2A21659D
:102DF000218DB240224492444101828093F7150014
:102E000081CB13854180EF10411513451400D5B7D0
:102E100093F725000145F1DF17F6FF1F130646C0A3
:102E2000834756009305D00213055031850717F7E5
:102E3000FF1FA309F7BEEF20F15A1306000A8945C8
:102E400003C5C1840D2D1345240065B70111170575
:102E50000000130585F506CE22CCEF0090328547A1
:102E60001384C184A306F1008D472300A400230727
:102E7000F1001306D1009D47854513055030A30787
:102E8000F100EF2031561306F1008545130580301F
:102E9000EF20515517F6FF1F130686BBC1451305DA
:102EA0007030EF20315417F6FF1F130666B6B54594
:102EB00013056030EF20115317F6FF1F130646B6B7
:102EC0009305D00213055031EF20D1511306E100D4
:102ED000854513056031EF20F1509305000A0D453B
:102EE000EF20A0769305000A1145EF2000769305A8
:102EF000000513057003EF204075930500051305C9
:102F00008003EF2080749305000413059003EF20E5
:102F1000C07385456D45EF20407381457145EF20B5
:102F2000C072A1457545EF20407285457945EF2077
:102F3000C0710345040085453521F24062440561B6
:102F4000828041111305800406C622C497D0FF1F5A
:102F5000E780601491457D55EFF0EFF791457D5581
:102F6000EFF0DF81371400408327C40A9305000285
:102F7000FD572326F40A0327C40C05452326F40C29
:102F8000EFF03F8A854513050010EFF02FFF8327F0
:102F9000840C91451305002093E707202324F40CAB
:102FA000EFF0CFFD453217A5010013056553EF90F3
:102FB0004115093E1D31EF20516E493D97D0FF1F4D
:102FC000E780805D23AC05FE1C4191E70100010014
:102FD0000CC18280BA8703A787FF6DFF23ACB7FEC1
:102FE00082801DC18346E5FF1307F00F9147639E62
:102FF000E600411106C697F0FF1FE7806080B240EF
:1030000081473E854101828095473E85828001E966
:10301000014582800145B24022444101828095658C
:103020004111938505D022C4C98D2A842105C2058A
:103030004205C181418106C697E0FF1FE780E06F2E
:1030400071D9FD5723200500231285002303F500C5
:103050002105D1B7138701851C43411122C426C223
:103060004AC006C601440149BA8489E7A165212DF9
:103070000DC401A803C7E7FF6318A7021DC8A16517
:10308000D5249840832784FF6317E40223A8F184A2
:10309000FD57232C04FE230FF4FE2285B240224468
:1030A000924402494101828011E03E8983A787FF53
:1030B0006DBF3E84E5BF232CF9FED9BFA1CD4111E0
:1030C00022C406C62A849707002083C7B7502E85DE
:1030D0006375F400894763E8870021370D45B240E6
:1030E00022444101828083A785FF99E703C7E5FF5A
:1030F0009307F00F6305F700ED351545CDB7238F26
:1031000085FE138501857D3D22852244B240A1655F
:10311000410189AC1545828023A801848280938770
:1031200081869C4399E33E85828003D727006316FE
:10313000B70003C70700E308A7FEDC47E5B7BDCD2E
:10314000797122D406D626D24AD04ECE01444147C8
:10315000B3D78540858BB1CF120531472295330512
:10316000E5029387818503A907008544B394840011
:10317000C204C180BE892A990327090011C703250B
:1031800049002EC60297B24531473304E40283A7B3
:1031900009003E941C4489E72320090023220900EA
:1031A000B2502254A58D02599254F2492E854561A0
:1031B00082800504E31EE4F88144DDB72E85828019
:1031C00041111397050122C406C626C24AC0418791
:1031D0002E84635E0700BD3D11C12135A1673D8C82
:1031E0002285B24022449244024941018280EDD9B5
:1031F000AA8701474146B356E440858A9DCA920793
:10320000BA97B146B387D7029386818503A9060092
:103210008544B394E400C204C1803E998327090029
:103220000325490082972320090023220900258CC9
:1032300045BF0507E311C7FC8144D5BF97070020B0
:10324000938787359C53411122C406C61384C180DD
:1032500099C782971C403E9523A6A18029A09387F9
:1032600001869C43FDF70840B74703009387D73F8B
:103270003305F502B7A72600938737ECB240224406
:103280003E9523A6A1804101828079C9938701865A
:103290009C43797122D426D24AD04ECE52CC56CA03
:1032A0005AC806D65EC63A8AB689328BAE8A2A8951
:1032B0008297938781859843BE840144B146C14774
:1032C000B30BD40233067701104251E6C1659385F2
:1032D00005F0414597E0FF1FE78020461DE5970771
:1032E00000209387672B9C5B2D4589C7114581453D
:1032F00082972D45B250225492540259F249624AA3
:10330000D24A424BB24B4561828093878186984373
:103310001DEF23A4A186230005009C400547331719
:10332000870023260500232465012311E5002322BD
:103330004501DE9723A0270123A2570123A44701BB
:103340000145E38909FA238089006DB73E875C4710
:10335000F5FF48C7C9B70504E314F4F6214559BF82
:10336000094582809707002083C7D726637FF50031
:10337000138741859317150008433E958357050031
:10338000DD8D2310B500014582800D4582809707B1
:10339000002083C737246371F50213874185931793
:1033A0001500084393C5F5FF3E9583570500FD8D35
:1033B0002310B500014582800D458280130705FF6B
:1033C0001377F70FFD4763E5E70AB146B306D50269
:1033D00093878185984389473697184359CB0111C4
:1033E00022CC4EC60544935945003D893315A400AF
:1033F00013140501418026CA4E85AE84A2854AC8B1
:1034000006CE313B2A89814721CDA2854E854137A1
:10341000938701869C4382979707002083D7472094
:10342000338797022A84814613060064B3B7970254
:1034300013050732B335E500BE95EF807101B30780
:103440008500970600209386261D3E87D44263E4BC
:10345000A70063E4D7003387D7402324E9008147DE
:10346000F2406244D2444249B2493E8505618280BD
:1034700089473E8582809707002083C7B71563641C
:10348000F5000145828001119387018656C283AA07
:10349000070006CE22CC26CA4AC84EC652C4638D47
:1034A0000A0A170A0020130A2A1783244A00B7477A
:1034B00036FE938707C8AE899705002083D5451649
:1034C000BE94B387C5022A8432898146B3B5C5024A
:1034D00013850732B337F50013060064BE95EF80FD
:1034E000217763EBA406829A9705002083D54513C4
:1034F000B3872503AA84130600648146B3B5250368
:1035000013850732B337F500BE95EF806174B307BA
:103510009500BE8403274A0063E4A70063E4E70044
:10352000B384E740CE852285DD3E01C504C505454F
:103530002DA0936504F0C205C181414597E0FF1FAE
:10354000E780A01F05E5970700209387E7049C5BB1
:1035500081C7A285114582970145F2406244D24459
:103560004249B249224A924A056182809387818604
:103570009C438DE323A4A18685472326050004C52B
:103580002311350123008500A300F5002322050047
:1035900079BFBA87D84775FFC8C7F9BF49C97971DC
:1035A00022D426D24AD04ECE52CC56CA5EC662C46F
:1035B00066C206D65AC83689328AAE89AA84414480
:1035C000314C938A8185854C930B0003330B840324
:1035D00003A70A005A971C43B1E79375F400B3950B
:1035E000BC0013554440C2055286C1811375F50FC6
:1035F00059350DC983A70A000145DA9784C323A270
:1036000037016304090023008900B2502254925408
:103610000259F249624AD24A424BB24B224C924C76
:10362000456182800504E31374FB2145F9BF094518
:103630008280411122C426C24AC006C62A842E892D
:10364000B284153DCA852285D93C05CD9705002059
:1036500083D505FDB38795022A841306006481464D
:10366000B3B5950213850732B337F500BE95EF80E9
:10367000215E48C00145B2402244924402494101C2
:1036800082802145CDBF411122C426C24AC006C650
:103690002A892E846934AA8419C123110500A285C0
:1036A0004A85F5319707002083C7C7F26397270142
:1036B00083D7C1855D8C239E8184014591E01945A6
:1036C000B240224492440249410182809307F002B1
:1036D00063E6A7044111B14722C43304F50226C2B0
:1036E000938481859C4006C6A297984389470DC361
:1036F0009377F5008545B395F500C205C181118129
:1037000059379C40A29723A0070023A207008147B6
:10371000B240224492443E854101828089473E85E1
:103720008280411106C622C4EFF07F9F11E501455A
:10373000B240224441018280938701869C43004528
:10374000829797070020938727ED6368A402D843E8
:10375000B74636FE938606C83305A4403697E3780D
:10376000E5FC13070064B335E50203D68700814604
:103770003305E502EF80C14D65BFD8433A94C1BF20
:10378000411122C426C2170400201304E4E8970460
:103790000020938424E4944858409387018606C609
:1037A0009C43639FE60682975440B74736FE938753
:1037B00007C8B6973387A7003A856364F700636448
:1037C000D7003305D740970400209384A4FC9C4C79
:1037D00091CB9387C19294433707CDFF7D179C46C9
:1037E000F98F9CC611E14840970700209387C7DAFC
:1037F000DC53829719E59C4C99CFEFD08017EFC02E
:1038000030019C4C89CB9387C1929843B706330013
:103810001C47D58F1CC7B24022449244410182808C
:10382000829798489707002083C757D854401D8F28
:10383000B307A7003E8563E4E700E3E6D7F83385E6
:10384000D74051B7411106C623A2A1860295B240C6
:103850009707002023ACA7D80145410182809947F2
:1038600063E9B7008A0597070020938727D9BE959B
:1038700088C18280411171468145170500201305DA
:10388000E5D706C623A4018623A2018623A00186CC
:1038900097D0FF1FE780A016130680028145170509
:1038A0000020130525D397D0FF1FE7804015EF2098
:1038B00001689707002083C797CF13D527008D8B0A
:1038C0003E958D473305F502854539051375F50F8E
:1038D000970700202381A7D099473305F5021305E8
:1038E000052497E0FF1FE78040E523ACA18459C57C
:1038F000994717060020034606CE3306F602814597
:103900001306062497D0FF1FE780600F93878185F9
:103910009C439387072423A6F186170700200347BB
:1039200087CB0A07BA9723AAF184EFF0EFFEF929B3
:103930009387C18694439707002083C7B7C913971D
:103940002700369717F6FFFF1306A67F10C31387CD
:1039500017001377F70F0A073697170600001306AC
:10396000668610C313873700890793F7F70F8A0716
:1039700097050020A380E5C6B69790C3B2404101E9
:1039800082809707002083C7F7C4170700200347EA
:1039900087C463F1E7021387C18618439386170033
:1039A00017060020A308D6C293962700369708C3AF
:1039B0003E8582809307F00FE5BF1C4163880716A0
:1039C00041777D8FB706002089476312D7160357CA
:1039D0004500630E0714411122C419462A84930539
:1039E000F00F690506C697D0FF1FE780600B0547FB
:1039F0008D476308E5121C4481CB585899476302F0
:103A00000712185C630F07101306C00381451705E2
:103A10000020130565B897D0FF1FE78040FE13060E
:103A2000C003A28517050020130505B797D0FF1F17
:103A3000E78060F9170700200357C7B697070020F3
:103A4000938787B519E71307001097060020239B7B
:103A5000E6B417070020034707B511E705479706A7
:103A600000202382E6B4170700200357E7B311E7CD
:103A70006D47970600202399E6B2170700200347F9
:103A800097B211E7154797060020A38EE6B01707F7
:103A90000020034787B111E70547970600202386DA
:103AA000E6B017070020034757B019E703C7F70030
:103AB00097060020A38BE6AE17070020034707AF49
:103AC00011E73547970600202382E6AE170700204E
:103AD000034717AE19E71307800297060020A38952
:103AE000E6AC17070020034777AC19E71307D002AD
:103AF00097060020A38CE6AA0347840119E7130761
:103B0000C003970600202385E6AA9C5791C7829799
:103B1000970700202394A7ACFD57A38FF198993BFA
:103B20008147B24022443E854101828089473E85DB
:103B3000828001114EC6970900209389E9AD83A7C1
:103B4000090006CE22CC26CA4AC852C4829713095D
:103B50000064B335250303DA8900814652863305B4
:103B60002503EF80E10E970700209387A7A6804FDB
:103B7000AA8401456306940233858440636E9400F1
:103B800003A5490052868146B335A9023305A9022F
:103B9000EF80010C018D26959707002023A897A49C
:103BA000F2406244D2444249B249224A05618280CD
:103BB0009707002083D7E7A651471D45637CF7028E
:103BC000794719456378F702130720031545637396
:103BD000F7021307B0041145637EF7001307400690
:103BE0000D456379F7001307600909456374F70011
:103BF00013B5B70F8280011122CC06CE2A842EC6BF
:103C0000EFF0CFE3B245F240818D33A5A5022295B6
:103C100062441375F50F05618280011122CC06CE36
:103C20002A842EC6EFF08FE1B245F240818D33A594
:103C3000A5022295624442054181056182800111FD
:103C400022CC06CE2A842EC6EFF04FDFB245F240DA
:103C5000818D33B5A5022295624405618280970764
:103C6000002093876793985739CB411122C426C20D
:103C700006C6BE84029717070020035727962A849A
:103C800015CBBA876373A700AA87C207C183BA8618
:103C90006373E400A286C206C182958F5147635BBD
:103CA000F700DC5491C38297EFC0B038970700202B
:103CB00023968792B24022449244410182808280BE
:103CC000970700209387478DDC57011106CEAA8500
:103CD00081C72AC68297B245C9C19C410545BDCB63
:103CE000DC41ADCB83D78500B5C783D7A500BDC365
:103CF00083C7C500A5E34146170500201305C591FC
:103D000097D0FF1FE78020CC970700209387C790AC
:103D10009C4323A0F1869707002083C777898DE70E
:103D200093078002170500200355858F3305F502A0
:103D300037460F001306062481468145EF70517106
:103D400097070020A386A786170500001305A5DEA8
:103D5000D53C0145F240056182809707002083C76A
:103D6000078513978701618763540704970700202D
:103D700023A0078897D7FF1F9387A7051707002061
:103D8000232CF7887D579707002023A9E788B7875A
:103D90003200938727A19706002023A3F688970770
:103DA000002023810788B7C7004023A4E726A9BFC6
:103DB00013F7170005CFB7872003938707D017079E
:103DC0000020232FF784B707C0A817070020232758
:103DD000F78497D7FF1F9387E70217070020232D4B
:103DE000F78297070020238F078239BF61779706F4
:103DF00000202397E68281CB93070032170700202B
:103E00002311F782C9B793072003CDBF011122CC3C
:103E100017F4FF1F13044478084406CE26CA4AC884
:103E200001E90545F2406244D2444249056182807D
:103E30005C58E5DB185C75D770008545829718449F
:103E4000B247E300F7FE9305E00417F5FF1F0355A3
:103E5000657597E0FF1FE780408E17F7FF1F232B44
:103E6000A77861D117F6FF1F0356C6739305F00FAD
:103E700097D0FF1FE780A0B8814417F9FF1F1309EF
:103E8000697597F7FF1F83C707720326090263C18D
:103E9000F402328597E0FF1FE7808096014597F78F
:103EA000FF1F23A9077497F7FF1F23A707749DBF60
:103EB00097F5FF1F83D5056FB38795020844185CFB
:103EC000898185043E9508C2029765BF011156C2DB
:103ED00097FAFF1F938A4A6C83A78A0022CC4AC8AC
:103EE0004EC606CE26CA52C45AC0AA892E8432892A
:103EF0006385072203A74A03630707147D476366A8
:103F0000A71497F4FF1F9384E46C03AA04026317B9
:103F10000A0A9565938515E017F5FF1F0355856817
:103F200097E0FF1FE780608197F7FF1F23A4A76C2E
:103F30002A86630A051083A74A0303A58A0097F51A
:103F4000FF1F83D525668981829783A78A0003AAEC
:103F5000040217F7FF1F2321F76A8947639CF908BA
:103F6000C1476312F40E97F5FF1F83D5A5639385B0
:103F700005FC9147B3C5F5028A05D29503C7050034
:103F80009307A005631DF70A83C715006399370BD4
:103F90004A852286910597D0FF1FE780C0A29C50DA
:103FA0005285639347150145F2406244D244424929
:103FB000B249224A924A024B05618280D850E38E70
:103FC000E7F89565938525E017F5FF1F0355855D97
:103FD00097D0FF1FE78060762A8A35C52A8683A797
:103FE0004A0303A58A0097F5FF1F83D5A55B898146
:103FF0008297A5B78D47639DF900C1476315F40407
:1040000097F5FF1F83D5055A938545FDF199B5B7FF
:104010009147639AF9006318340397F5FF1F83D51E
:104020006558A115E5B7C147639FF900A14763EC47
:10403000870097F5FF1F83D5E556C115C1BF9C507A
:1040400052856397470D294585B71307F006568BB0
:104050006361A70A130A05FE1947334AEA0217F7F4
:10406000FF1F0357275497FAFF1F938AAA56330A54
:10407000EA023E9A83A74A026395470183A40A0293
:104080009DE49305E00417F5FF1F0355A55197D054
:10409000FF1FE780806AAA845DD583274B0397F5CD
:1040A000FF1F83D525502A868981528582979145A5
:1040B0001307A005898193972500A69783C607005B
:1040C0006393E60483C61700639C360385058A055F
:1040D0002286A6954A8597D0FF1FE780C08E83A7CA
:1040E0000A02E38297EC268597D0FF1FE780407194
:1040F0005DBD1307E007E368A7F4130A05F985B768
:1041000083D5270045BF83A70A02E38E97F2268551
:1041100097D0FF1FE780C06E3DB797F7FF1F9387CB
:10412000674B8C538DD191479306A00589831397D4
:1041300027002E9703460700E317D6F00346170023
:10414000631C360185078A072286BE954A8597D06B
:10415000FF1FE780408781BD83572700C1BF97F7C6
:10416000FF1F93876743984739C79C5FA9C70547D7
:104170006313E504411122C417F4FF1F130484459F
:10418000105006C60DC6485097F5FF1F83D58541D0
:1041900089818297085097D0FF1FE780606697F764
:1041A000FF1F23A9074497F7FF1F23A70744B24027
:1041B0002244410182808280011117F7FF1F1307FB
:1041C000A73D4EC68329870022CC26CA4AC806CE00
:1041D00052C456C2AA842E843289638A09201C5F85
:1041E000BA8A99EB2945F2406244D2444249B24925
:1041F000224A924A056182805C5BEDD7FD4763E904
:10420000A70E97F9FF1F9389E93C83A70902B1CB59
:1042100003A58A0083A749026395A706894763938C
:10422000F408C147E310F4FC17F5FF1F0355853769
:104230009147130505FC3345F5029317250003A5A7
:1042400009022286CA853E959307A0052300F50042
:10425000A3009500110597C0FF1FE780C0760145B8
:1042600059B79305E00417F5FF1F0355A53397D001
:10427000FF1FE780804C97F7FF1F23ADA73649F952
:1042800095B783A74A0303A6090297F5FF1F83D5B5
:1042900065318981829783A78A0017F7FF1F232D35
:1042A000F734ADBF8D47639EF400C147E31CF4F2C1
:1042B00017F5FF1F0355052F130545FD9377C5FF20
:1042C000BDBF9147639AF400E31E94F017F5FF1FFA
:1042D0000355452D2115DDB7C147E395F4F0A147FE
:1042E000E3E287F017F5FF1F0355C52B4115F9B71A
:1042F0009307F00663EAA706930705FE1947B3C7BD
:10430000E70217F7FF1F0357E72917FAFF1F130AE2
:104310006A2CB387E702BE9983270A02A9CF8327B5
:104320004A02639A370703250A0291461308A0053B
:10433000FD5593D72600C207C183139727002A97FC
:1043400003460700631D060783481700035627002E
:1043500063959806B306D64063CF860485078A071F
:104360002286CA853E95C5BD9307E007E3ECA7E624
:10437000930705F979B79305E00417F5FF1F035577
:10438000652297D0FF1FE780403B97F7FF1F23A3CD
:10439000A72651F581BD83A74A0303260A0297F594
:1043A000FF1F83D5252089814E85829797F7FF1FB0
:1043B00023A437258DBFA300B700B2869DBFB38568
:1043C000860017F6FF1F0356E61D9105130606FC2F
:1043D000E3FAC5E0130634001376C60F1106B29651
:1043E00023000701A30097002311D70085BF97F78B
:1043F000FF1F9387271E9453BE89A1C203A50902FC
:1044000091461308A005FD5593D72600C207C18326
:10441000139727002A97034607006316060583486B
:1044200017000356270063989800B306D640E3D7D9
:1044300086F2A300B700B286C1BF8357C70017F545
:10444000FF1F034545169305E0043305F5024205B9
:10445000418197D0FF1FE780402E97F7FF1F23ABC6
:10446000A71849FD41B317F6FF1F0356A61397F58A
:10447000FF1F83C54513B385C50233868600110629
:10448000E3E2C5D681BF01458280011106CE2EC66A
:10449000EF70405D01C9B245F2400355250005614A
:1044A0006FB0206AF240494505618280A38C018883
:1044B000238C018823A0018823A2018823A40188DA
:1044C00023A6018823AE018623AC018697F7FF1F40
:1044D00093878715370684033707B40090D337C610
:1044E000070098C3130606B83747A000D8C3D0D337
:1044F0003707100041669306070AB7055000930876
:10450000060194C723A4170393860501930816F8A0
:10451000D4C723A61703B706D007B7087F00130830
:10452000070513850601410723A81703B0C39308A5
:1045300016009386060513861500D8CBF8C323A86A
:10454000070188CF23AE070023AA170323AC070275
:1045500023AE070223A40704F0C7B4CB23AA0704A1
:10456000ACCF23AE0705B8D33707A000F8D71307A1
:10457000000AB8DB1307C01CF8DB37071400B8DFEC
:104580000547F8DF130710F8E8D323A4070623A094
:10459000070823A2E7088280011126CAAA842145C0
:1045A00022CC06CE2E8432C636C43AC2EFE03FA6F5
:1045B0001DC9A24612473246930700FD2300F500AD
:1045C0009947A30095002301F5002303D500A30319
:1045D000E5002312C500AA8522856244F240D24438
:1045E00005616FE0BFADF2406244D2440561828054
:1045F00023A0A188828023A2A188828023A4A188ED
:10460000828023A6A1888280011122CC4AC806CECE
:1046100026CA2A890144B30489006368B400F240C1
:104620006244D2444249056182802EC6EFE01FC138
:1046300093170501C183A183B2452380F40093073A
:10464000140093F7F70F850463F9B700CA970904BC
:104650002380A7001374F40F7DBF3E847DBFC16724
:1046600017F5FF1F03552505FD176304F5024111DA
:1046700017F6FF1F034646119385018906C6EF70A2
:10468000601DB240FD5717F7FF1F2316F7024101C7
:104690008280828009C925151375F50F1335850EA3
:1046A0001345150082800145828023900500C9C60C
:1046B000797122D426D24ECE52CC5AC806D64AD0D0
:1046C00056CA5EC63684328AAE892A8B814463F329
:1046D0004407B307940083C70700138914004209F5
:1046E000939A070193DA0A011359090163840A04B2
:1046F000CA976341FA04B307240183CB07005E85A0
:10470000513F0DC99387FAFF2390F90063906B0323
:10471000130519002295B250225492540259F249BD
:10472000624AD24A424BB24B45618280D694C2045F
:10473000C18071BF0145C5B701458280411126C2C4
:10474000AE8422C497F7FF1F23AEC7F697F7FF1F6B
:1047500023A8B7F697F7FF1F23A2A7F62A8441469E
:104760009305F00F26854AC006C6054997C0FF1F6E
:10477000E78000336310250597F7FF1F938747F302
:10478000884BC145513541469305F00F228597C0AE
:10479000FF1FE780E030854463189502224497F7B5
:1047A000FF1F9387E7F0B24092440249C847C145D2
:1047B000410199BD41468145268597C0FF1FE7808D
:1047C000202EE31225FD4DBF41468145228597C02D
:1047D000FF1FE780E02CE30395FCB24022449244A3
:1047E000024941018280411122C426C22E84AA843A
:1047F00013060002814517F5FF1F130565EB06C67A
:1048000097C0FF1FE780A01F97F7FF1FA38397EABA
:1048100097F7FF1F238C87F6EFB0A034854719C1A7
:1048200081474945B240224417F7FF1F2302F7E8AA
:10483000924441018280814781CD19C98547631B1C
:10484000F50083C7550093E707FCA382F500854771
:104850003E85828089476317F50083C7550093F72B
:10486000F703E5B70D478547E314E5FE03C7550099
:104870001377F70313670704A382E500D1BF8147CD
:104880008DC105C103C755009306000C85471377FA
:10489000070C6308D700930600048D476303D70015
:1048A00089473E858280411122C4005D06C626C22A
:1048B0001DC8AA84085009C597D0FF1FE78040F49F
:1048C000485009C597D0FF1FE78080F3085409C5F9
:1048D00097D0FF1FE780C0F2228597D0FF1FE780A7
:1048E00020F223AC0402B24022449244410182806F
:1048F00009ED97F7FF1F83C7C7DB17F5FF1F1305E8
:10490000A5DC81CB13850187828017F5FF1F130576
:10491000A5DB828017F5FF1F0345A5D9828097F795
:10492000FF1F9387E7D8C847828097F7FF1F9387B9
:1049300027D8884B828097F7FF1F938767D7DC4B78
:104940008843828097F7FF1F938787D6D84B1C43F5
:1049500085071CC317F5FF1F0345B5D59307F00F57
:104960006305F50091656FE0FF9F8280011122CC05
:1049700006CE2E8432C6EF70201F9147B245631FCA
:10498000F5009387C1889C438DC303A30700630E82
:10499000030022856244F2400561028393874188C7
:1049A0009C4381C703A34700DDB7F240624405453D
:1049B00005618280011122CC2A840355450006CE70
:1049C00026CA4AC84EC6EF6050792DC52A8983444D
:1049D00005008349C500C13D4A85EF70C0520355AB
:1049E0004400EF70A01383C78189A9CB6398970413
:1049F00083C591892685513C19E1238C0188035593
:104A00004400EF7060169147631FF50003574400A0
:104A100097F7FF1F83D727CA6317F700FD5717F7CC
:104A2000FF1F231AF7C8F2406244D2444249B249F8
:104A30000561828081499304F00F75B79307F00FE9
:104A4000E38FF4FA834664000356440003452400D0
:104A50004E87A685913665B779715EC6AA8B2E857D
:104A600052CC56CA5AC806D622D426D24AD04ECEE6
:104A7000AE8A328B368AEF60506E7DC1045D2A8922
:104A8000E5C09C50614599C3130540039C5481C700
:104A900051054205418163050A00710542054181C6
:104AA000DC5081C75D0542054181EFE04FD62A8485
:104AB00045C96146814597C0FF1FE78040F497F9DB
:104AC000FF1F83C969B963940900834909009307EB
:104AD00000FD2300F400A947A30074012301F400A2
:104AE000230364018C50231254011305840191C9DE
:104AF00008C47146930A440397C0FF1FE780A0ECE7
:104B000056858C5491C948C45146930A450197C0B3
:104B1000FF1FE78040EB5685630C0A0008C871460A
:104B2000D285930AC50197C0FF1FE780C0E956856B
:104B3000CC5099C548C85D4697C0FF1FE780A0E8E4
:104B4000A2854E85EFE08FD72254B2509254F2499D
:104B5000624AD24A424BB24B4A8502594561A1B3DF
:104B6000B250225492540259F249624AD24A424BFC
:104B7000B24B4561828001114EC6AA892E854AC872
:104B800006CE22CC26CA2E89EF60305D21C997F46B
:104B9000FF1F83C464AC99E0834405001945EFE02E
:104BA0000FC72A8405CD8145194697C0FF1FE780AE
:104BB00000E5930700FD2300F400B947A30034018A
:104BC0002301F40023122401A2856244F2404249E9
:104BD000B2492685D24405616FE04FCEF24062446F
:104BE000D2444249B2490561828039715ECEAA8BB6
:104BF0002E8526DA4ED652D456D25AD006DE22DC84
:104C00004AD8AE84328BB68A3A8ABE8942C6EF60F1
:104C1000D05421CD2A894145EFE06FBF2A8431C5A8
:104C20004146814597C0FF1FE78060DD17F5FF1FF4
:104C3000034585A219E103450900930700FD230000
:104C4000F400BD472301F400B247A300740123120E
:104C5000940023046401A304540123054401A30523
:104C600034015CC4A285EFE06FC5F2506254D254A7
:104C70004259B259225A925A025BF24B2161828008
:104C8000797126D2AA8439454AD04ECE06D622D48E
:104C90002EC6B2893689EFE08FB721C1B24593079E
:104CA000000D2310F500B1472A842312B50023011B
:104CB000F500CE851905194697C0FF1FE780A0D0E3
:104CC00023062401A2852254B2500259F24913F559
:104CD000F40F925445616FE06FBEB250225492546B
:104CE0000259F2494561828017F7FF1F0347779CFD
:104CF0009307F00F630DF706411126C2AA843945C8
:104D000022C406C64AC0EFE08FB02A8439C993078F
:104D100000FD2300F500A30095002301050097F591
:104D2000FF1F9385659A0D05194697C0FF1FE78001
:104D300080C917F9FF1F1309A99783578900A28516
:104D400017F5FF1F0345F5962315F4008347190057
:104D50002306F4002244B2409244024941016FE02C
:104D6000EFB5B240224492440249410182808280E0
:104D700001115AC02A8B314526CA4EC652C456C2AA
:104D800006CE22CC4AC8AE84B28A368ABA89EFE00F
:104D90000FA835CD2A842685EF60303C11C5034726
:104DA000C500A1476314F70417F9FF1F0349799061
:104DB000930700FD2300F4009D47A3006401230135
:104DC000F4002312940023135401231444012315E7
:104DD0003401A2856244F240D244B249224A924A46
:104DE000024B4A85424905616FE04FAD17F9FF1F3D
:104DF0000349D999E31E0BFA938741989C439C473A
:104E0000C5DBCE865286D6852685829755B7F24079
:104E10006244D2444249B249224A924A024B056155
:104E20008280011122CC2A84214506CE2EC6EFE0D5
:104E30000F9E21C1B245930700FD2300F500C54731
:104E40002301F50083C73500A301F50083D7450092
:104E50002312F50083C765002303F50083C775009F
:104E6000AA85A303F50022856244F24005616FE044
:104E7000EFA4F240624405618280397162CC2A8CD1
:104E8000594526DA4AD84ED652D456D25AD05ECE9A
:104E900006DE22DCAE8432C636C4BA8B3E8BC28AB2
:104EA000468A8359010403494104EFE04F9625C91E
:104EB0003246930700FDA2462300F5009547A30163
:104EC000C500A30085012301F5002A8419461105B8
:104ED000A9C2B68597C0FF1FE780E0AE2306640134
:104EE000230A2401231574012317540123184401B4
:104EF00023193401A2856254F2504259B259225A00
:104F0000925A025BF24B624C2685D25421616FE0CB
:104F1000EF9A814597C0FF1FE78060AEC1B7F2509E
:104F20006254D2544259B259225A925A025BF24BFD
:104F3000624C2161828097E7FF1F83C787778DCB03
:104F40004111AA8519461385018706C697C0FF1F20
:104F5000E78060A79385018717E5FF1F0345657507
:104F6000EFF07F8DB2401385018741016FA0F03FC4
:104F70000145828017E7FF1F0347B7739307F00FC0
:104F80006305F708411126C2AA84294522C406C632
:104F9000EFE0EF872A8429C1930700FD2300F50085
:104FA000A1472301F500A300950097E7FF1F938712
:104FB000277083C72700938501871105A30FF5FE8E
:104FC000194697C0FF1FE78000A0A28517E5FF1FC5
:104FD0000345356EEFE08F8E17E7FF1F0347676DC0
:104FE0008D47631FF700938781889C4391CB03A370
:104FF0008700630703002244B240924441010283C8
:10500000B240224492444101828017E7FF1F0347C8
:10501000476A8D47631AF700938781889C4389C745
:1050200003A38700E31D03FC8280797122D406D696
:1050300026D24AD04ECE52CC094455CD2A890355AA
:1050400005002E8A5144EF605011AA844DC597E7A0
:10505000FF1F83C7A773FD1793F7F70F0547494451
:10506000637BF7080347C500A1476314F700631487
:105070000A089C5C4544C1E391659385457113051D
:10508000C00297C0FF1FE780406B88DCAA894D44AF
:105090003DC11306C002814597C0FF1FE7802096DF
:1050A000835709009386490036852391F90071469C
:1050B0009305490036C697C0FF1FE780C090894717
:1050C0002380F90003C5C400B246035609006115E8
:1050D00097E5FF1F83C5456B13351500EF7010264C
:1050E0002A8463060A00D2852685EF70A01001C4C9
:1050F0002685EFF04FFB2285B2502254925402597C
:10510000F249624A4561828097E7FF1F83C70768BB
:10511000FD1793F7F70F0547637AF708894741CAE8
:10512000011122CC26CA4AC84EC652C406CEAA894C
:10513000368AB2842E89EF6050022A84D14739C959
:10514000485509C597C0FF1FE780806BF14526854C
:1051500097C0FF1FE780008D48D4CD4705CD83461B
:10516000C40021478147639FE600630D0A0003479F
:10517000A5010356050193062501AA854E85EF700A
:10518000E00EAA8703474400630F09001367670016
:105190002302E400F2406244D2444249B249224A26
:1051A0003E850561828013674700DDB7C9473E85AC
:1051B00082809307200463EBA70097E7FF1F938784
:1051C000A74606053E9503550500828041657D157D
:1051D0008280011122CC2A842E8526CA06CEAE8476
:1051E000EF60A0771DCDB7470F009387F7230945E0
:1051F00063E4870281450A85414697C0FF1FE78027
:105200000080A685231081000A854180230181004A
:10521000A3010100EF70207EF2406244D244056198
:1052200082804945D5BF97E7FF1F2380A75682801C
:105230006F70F00A797152CC2A8A328522D426D234
:105240004AD04ECE56CA5AC85EC606D662C4AE8B87
:10525000B28A368BBA843E89C2894684EF60E06F99
:1052600015C92A8C63140A0213774B008347450043
:1052700015CF93E727012302FC008DEC631C090284
:10528000639A090205E8ED9B2302FC00832B8C0343
:1052900063910B08B250225492540259F249624A67
:1052A000D24A424BB24B224C45618280F59B93E738
:1052B0000701D1B793E747002302FC0001CC1C484B
:1052C0004146A2852324FC0213058C0197B0FF1FE1
:1052D000E780606F63930B02D5D80325CC0209C524
:1052E00097C0FF1FE780C051F145268597B0FF1F8B
:1052F000E78040732326AC0251BFE30909F8032578
:10530000CC0209C597C0FF1FE780804FF1454A8551
:10531000F1BF9DC483A70B0299EB9165938535710D
:10532000714597C0FF1FE780404123A0AB0203A552
:105330000B0219C57146A68597B0FF1FE780A068CC
:105340006388090283A74B0299EB916593852571C8
:105350005D4597C0FF1FE780403E23A2AB0203A537
:105360004B0219C55D46CE8597B0FF1FE780A0654B
:105370001DC483A78B0299EB9165938515715145E7
:1053800097C0FF1FE780603B23A4AB0203A58B02FD
:1053900019C55146A28597B0FF1FE780C06222540D
:1053A000B2509254F249B24B224CCA865A860259E4
:1053B000424BD6855285D24A624A45616FF0CFE9A9
:1053C000011126CA52C406CE22CC4AC84EC62A8A29
:1053D000AE84EF60805825C5AA893945EFD03FC318
:1053E0002A8431CD17E9FF1F0349092763140900F7
:1053F00003C909009307000D2310F400AD472301F2
:10540000F4009385690013053400194697B0FF1F17
:10541000E780605B93F71400858085882306F4009D
:10542000A306940023154401A2856244F240D244AD
:10543000B249224A4A85424905616FD03FC8F240CD
:105440006244D2444249B249224A05618280011134
:105450004EC652C456C206CE22CC26CA4AC8AA8A12
:105460002E8AB289EF60604F2DCD2A891305C002C4
:10547000EFD0FFB92A8435C597E4FF1F83C4C41D4C
:1054800099E0834409009307000D2310F400E947D5
:105490002301F4009305690013053400194697B001
:1054A000FF1FE7804052D285231554011305C40025
:1054B000414697B0FF1FE7800051CE851305C40118
:1054C000414697B0FF1FE7800050A2856244F2403A
:1054D0004249B249224A924A2685D24405616FD098
:1054E000FFBDF2406244D2444249B249224A924A44
:1054F0000561828093878187884301CD411106C66B
:1055000097C0FF1FE780C02FB24023AC0186410146
:1055100082808280011106CE22CC26CA4AC82EC6BD
:10552000EF60A04339CDB24517E9FF1F0349C91207
:10553000AA840CD563140900034905004145EFD046
:105540001FAD2A841DCD9307000D2310F500A5473C
:105550002301F50083C75400938564001105A30F50
:10556000F5FE194697B0FF1FE780E0459C54A285E1
:10557000F2405CC46244D2444A85424905616FD01E
:10558000FFB3F2406244D24442490561828079719E
:1055900022D406D62A842EC6EF60203C01CDB24527
:1055A0002285230EB1006C08EF605041B2502254A6
:1055B000456182805145DDBF6F600050C167138730
:1055C000E7FF6394E502938741889C4391EB49454B
:1055D00082804945B240224492440249410182807E
:1055E00003A30700E30503FE0283411122C426C280
:1055F0004AC006C6FD172A892E84B2846395F50237
:10560000938741889C4391CB9C4381CB829711E542
:10561000238C2189A38C918875BFA6854A85EFE0EC
:10562000DFE64DF9F5B72E85EF6020335DD1834776
:1056300005000D45E39027FB22852244B240024934
:10564000A685924441016FA0C04F9307200463E2F6
:10565000A7064111C16722C406C626C2FD172A84C7
:1056600009456382F502C547AE846313F4022E85B3
:10567000EFA0205417E5FF1F130505FB06042A942D
:10568000231094000145B24022449244410182809B
:105690009307A0036316F4002E85EFA0004BD9BF3B
:1056A0009307B003E318F4FC13F5F50FEFA0204ABD
:1056B000D1B709458280011106CE2AC6EFE01FDF6F
:1056C000EF202010EF106060EF00613C324597E75B
:1056D000FF1F9387E7FD130700F02391E700238264
:1056E00007007D5797E7FF1F9387070A2381E7008D
:1056F0002380A700F240954505616F40F03D597148
:1057000093970501CAD086D6A2D4A6D2CECED2CC4B
:10571000D6CADAC8DEC6E2C4E6C2EAC06EDEC18717
:105720002E8963D1075A17E5FF1F0345E505EFD022
:105730007F928964416A856A797B2A84938BD4003D
:105740007D1AA50A130CABFF1DE021653345A900A6
:10575000B650265496540659F649664AD64A464BE0
:10576000B64B264C964C064DF25D656182808347B0
:1057700004001307200A639DE7000355240097E9FE
:10578000FF1F83C919F32286D285EFF02F9E59A2FD
:105790001307100997E9FF1F83C929FF6398E718CA
:1057A0008347140015476390E7022285EFF08FA02E
:1057B0002285EFD01F8317E5FF1F0345E5FCEFD0DF
:1057C0007F892A8451B73947639BE7180355440002
:1057D000631B55050C4483CC0500639D0C008505B7
:1057E00091C9194617E5FF1F130505EE97B0FF1F76
:1057F000E780601D17E7FF1F034787EB85476317A7
:10580000F712638A0C0097E7FF1F238307EA668578
:10581000EFF08FCD71BF894717E7FF1F230AF7E825
:10582000EFA0603471B793872400631AF506832CC8
:105830008400638D0C0E83C70C008DE383C72C009E
:1058400003C71C00A207D98F17E7FF1F2316F7E62F
:1058500083C73C0017E7FF1FA30CF7E417E7FF1F00
:10586000034707E589476313F70C83C70C0081CB17
:1058700097E7FF1F238E07E203C50C0051BF8D473A
:1058800097E5FF1F83C5D5E217E5FF1F0355C5E266
:1058900017E7FF1F230EF7E0EF401027F1BF9387B4
:1058A00054006318F5001C4403C50700EFF08FECAB
:1058B00001B7B3078501C207C18311476372F704BB
:1058C0009307ABFCAA97139707014183F14763F154
:1058D000E7029387B4006312F504938701889C4321
:1058E000E38807EC9C43A285E38407EC82971DA024
:1058F000B70700189387F770B3D7E700858BB9CB4C
:10590000938781889C43E38507EA9C43E38207EA07
:1059100022858297E31E05E811A89387C4006310CF
:10592000F5021C4483C70700E38407E89307F00FE0
:10593000E380F9E8A2854E85EFD04FF8ADBD93879F
:10594000E4006319F500938741889C43E38207E6EE
:10595000DC4351BF93871404E301F5F8C1BF3D4711
:105960006397E70403554400E30F75FD93879401A3
:10597000E30BF5FC93873401E31AF5FA97E7FF1F71
:1059800083D767D3639E4701938741889C43E38114
:1059900007E2DC43E38E07E0A28513853401B9B743
:1059A0009387C1889C43E38507E09C43E5B71307D1
:1059B000E003E39DE7F68347240005476397E70E7E
:1059C00083476400938D8187F1E383A70D00D5CBD6
:1059D00083CC0700A14903457400130D8400EA85B8
:1059E000EFE0FFE983474401A303A40083580401C7
:1059F0000358E400035744002A86034534003EC29E
:105A000083572401EA86E6853EC0CE87EFF0EFC6D5
:105A10008347340095E7DD47835804010358E400C9
:105A200083467400835544003EC2835724016A872D
:105A300005463EC06685CE87EF602025A301A40001
:105A400083A70D0081C71145EFF0DFAA03C5818947
:105A5000E30005D683C59189EFE03FA3E30A05D4AF
:105A60008346340093071003638AF600035644000C
:105A70004E8783C581893685EFE01FB2238C01886C
:105A800005BB97ECFF1F83CCDCC2A9B79387818845
:105A90009C4397ECFF1F83CCDCC191498DDFDC4335
:105AA0009DDB8145014582973DB729476391E70C0E
:105AB00083476400138D8187C1E783270D00A5CF3D
:105AC00083CC0700A14903457400930684009377B3
:105AD0002500D1C713761500930D440183470402B6
