:040000006F208017D6
:100004000000000000000000900000208A0400208E
:10001400A9BDF9F5900000200000000000000000D8
:10002400900000209000002000000000000000006C
:1000340046060020000000009000002000000000A0
:10004400E00500200606002090000020900000201B
:1000540090000020900000209000002090000020DC
:100064009000002090000020900000204A0600200C
:100074007E050020940500209000002090000020C0
:1000840090000020900000209206002090000020A4
:1000940001A073270080218B9387018709CB7327E5
:1000A400008023A8E18698435D9B731007800100BC
:1000B400010037170040930670052300D704930608
:1000C40080FA2300D704010001008346B70493F6A5
:1000D400F60DA305D7042300070473260080944378
:1000E400A18AD18E7390068023A8018601000100A5
:1000F40093760502638406180347A700118B25E74E
:1001040073270080218B09CB7327008023A8E18605
:1001140098435D9B7310078001000100371700406E
:10012400930670052300D704930680FA2300D704AE
:10013400010001008346A70093E646002305D7008B
:1001440023000704F32600809843218B558F7310F6
:10015400078023A80186010001001307004B01005A
:1001640001007D176DFF73270080218B09CB732756
:10017400008023A8E18698435D9B731007800100EB
:10018400010037170040930670052300D704930637
:1001940080FA2300D704010001007D892314A700FD
:1001A400010001000100010023000704F326008080
:1001B4009843218B558F7310078023A80186010073
:1001C400010073270080218B09CB7327008023A8AB
:1001D400E18698435D9B7310078001000100371787
:1001E4000040930670052300D704930680FA230089
:1001F400D7040100010001000100B72600401306E6
:100204001005A383C68023000704F32600809843C7
:10021400218B558F7310078023A8018601000100EC
:1002240073270080218B09CB7327008023A8E186E4
:1002340098435D9B7310078001000100371700404D
:10024400930670052300D704930680FA2300D7048D
:10025400010001008346B70493E60608A305D7040A
:1002640023000704732700809C43A18BD98F7390CC
:10027400078023A80186010001008280937605048B
:10028400638B06140347A700418B25E7732700807F
:10029400218B09CB7327008023A8E18698435D9BBB
:1002A40073100780010001003717004093067005A2
:1002B4002300D704930680FA2300D7040100010029
:1002C4008346A70093E606012305D700230007040D
:1002D400F32600809843218B558F7310078023A841
:1002E4000186010001001307007D010001007D1754
:1002F4006DFF73270080218B09CB7327008023A80F
:10030400E18698435D9B7310078001000100371755
:100314000040930670052300D704930680FA230057
:10032400D704010001009376F50193E60604231433
:10033400D700010001000100010023000704F32697
:1003440000809843218B558F7310078023A8018662
:1003540001000100130760046310E50473270080A3
:10036400218B09CB7327008023A8E18698435D9BEA
:1003740073100780010001003717004093067005D1
:100384002300D704930680FA2300D7040100010058
:10039400B72600400946B5B573270080218B09CBE9
:1003A4007327008023A8E18698435D9B7310078020
:1003B4000100010037170040930670052300D7049D
:1003C400930680FA2300D70401000100B7260040F9
:1003D400130620053DB573270080218B09CB7327B5
:1003E400008023A8E18698435D9B73100780010079
:1003F400010037170040930670052300D7049306C5
:1004040080FA2300D704010001008356870093E695
:10041400060C2314D700C5BB411181460146814512
:10042400114506C6452EF3270080A18B93860187CC
:1004340089CBF327008023A8F1869C42DD9B73902F
:10044400078001000100B7170040130770052380DF
:10045400E704130780FA2380E7040100010003C7BF
:100464006704136717002383E704238007047327B3
:1004740000809C42A18BD98F7390078023A80186AA
:1004840001000100B240410182808146014681455C
:1004940011458926F3270080A18B1387018789CB17
:1004A400F327008023A8F1861C43DD9B739007800B
:1004B40001000100B7170040930670052380D7049C
:1004C400930680FA2380D70401000100FD56239689
:1004D400D70223800704F32600801C43A18BD58F09
:1004E4007390078023A8018601000100F327008090
:1004F400A18B89CBF327008023A8F1861C43DD9BC5
:100504007390078001000100B7170040930670053F
:100514002380D704930680FA2380D70401000100C6
:1005240083C6670493E616002383D7042380070455
:10053400F32600801C43A18BD58F7390078023A8DA
:1005440001860100010001A0BD473305F502010049
:100554007D1575FD8280411122C426C206C6AA8477
:10056400014463179400B2402244924441018280C2
:1005740005041305803E4204C13F4180DDB7B7172F
:100584000040130700032388E702854723ACF18862
:1005940073002030B717004003C72706218B05C31B
:1005A40003C72706136787002381E70603C71706D7
:1005B4001377F707A380E7068547238EF18837175B
:1005C40000408347E705E207E18763D90700230D6D
:1005D400070483C7D1898507A38EF188730020306F
:1005E4003727004083476700858B81CF85472303E6
:1005F400F700973000E0E780205B974000E0E78059
:10060400A0927300203083D7E1898507239FF18866
:1006140003D7818B8547631CF700B7E700E03707F2
:10062400020023A0E7180100010073002030B7176F
:1006340000400947239EE708B7E700E037070200B8
:1006440023A0E710DDB7730020303737004083471D
:1006540047409946BD8B638AD70231476399E702C5
:1006640037370040938601B28347A74093F7F70FCB
:1006740099CF8345874083C7B18B3386F6008507BE
:100684002300B600A38DF18AC5B783475740730092
:10069400203037470040834747C09946BD8B638B62
:1006A400D70231476385E70011476397E702B745EF
:1006B400004003C6A5C0138581B3938585C09730D8
:1006C40000E0E7808043420541810DE585472386AC
:1006D400F19019A0834757C073002030834687C028
:1006E400850793F7F70F238DD18E8346A7C0E3E7E1
:1006F400D7FEE9BF814737470040C5BF411106C651
:10070400BD25974000E0E78080C503C5818F9740F1
:1007140000E0E78000EEEDB72303048015472303D0
:10072400E48001002302A480828083076480E3CEF6
:1007340007FE23030480828083076480E3CE07FEE0
:1007440003454480828083076480E3CE07FE23024E
:10075400A4808280411126C44AC24EC006C61377C3
:10076400F50BAD47AA892E8995446306F700194510
:100774006537653F8D444E854537FD59FD146398B3
:100784003401B240A2441249824941018280135586
:1007940009011375F50F453F2209CDB7011126CC88
:1007A40006CEB704080051371545BD377137693790
:1007B4002AC6A53F32459377150089EB13651500CA
:1007C4001375F50FF240E24405618280FD14E9FCE3
:1007D4000145CDBF397126DC4ADA4ED852D656D4FB
:1007E4005AD25ED006DE62CE66CCB7E700E07D5713
:1007F40083AA070022C603AA470023A0E71823A25E
:10080400E718B7170040130770052380E7041307A0
:1008140080FA2380E70483C74704930B75FFB684EB
:10082400E20793FBFB0F8546AA892E8B3289372476
:100834000040E187015763FA76016308D5008946D1
:10084400130700026313D5000157D98F93F7F70FED
:10085400B71C00402382FC0411472303E4801305E2
:10086400F00F5D3D094CD135636D7C11B705070070
:10087400DA9537870700795563F2E504B387950065
:10088400636EF702370B0800A94733EB65016399E0
:10089400F90689E48144513D26850DA0DA85094590
:1008A400553D05090345F9FFFD14050B693D81C458
:1008B4009377FB0FFDF7DD3569FD7D55B7170040D4
:1008C400130770052380E704130780FA2380E704E5
:1008D40003C74704418B2382E704F250B7E700E0E3
:1008E40023A0571123A24711E25432445259C2594A
:1008F400325AA25A125B825B724CE24C21618280B2
:10090400A5476395F90685691309F00FB3069900A5
:10091400B3742B01B6941349F9FFB3749900856B32
:1009240033796901416B9387F9FFB3F7270199E3A1
:1009340063FC340193D94900C147E3E637FF99BF0B
:100944000569C1697D19D9B71305800D63886901EB
:10095400130500026384790113051008CA85DD3B81
:10096400353D21DD4E99B3843441D9B7DA852D451F
:10097400D533CA94E30099F205097D3BA30FA9FE80
:10098400D5BF9387F9FF93F7F70F6361FC0C83C717
:100994001C0413073008631FF70437070800636B50
:1009A400EB04B3079B00B706100063F5D704334B81
:1009B400EB0089476393F9068980D549E38C04ECFD
:1009C400DA850945413B11090327C9FF91472320D3
:1009D400E48003076480E34E07FE23033481FD179C
:1009E400EDFBFD14110B81C49377FB0FE9FF7D33FD
:1009F40071F5E1B5B717004003C75704B7070800FE
:100A04001377070219E3B78707007955E378FBEA00
:100A140033079B00E3FFE7F855B58547E382F9F216
:100A2400DA852D45053B9389F4FFE38504E62933F4
:100A340093F7390091EB8326048003270900930779
:100A44004900E39AE6E43E89CE84F1BFB547639654
:100A5400F9001305900BC93135BDB1471305B00A30
:100A6400E38BF9FE99476391F904B7050800B36570
:100A7400BB002D45C53181448D4BA1497539639621
:100A84007401832704802320F9008504E39834FF4C
:100A94008327048013172B01635507002312F900E1
:100AA400D5BB2322F900FDB39D476399F902814523
:100AB4001305B0044531BD44232009002322090055
:100AC400FD599D3993F77400CA9703C70700FD14B5
:100AD400398D2380A700E39634FF6DBBA147639251
:100AE400F9046D398144630D0B008D479304C003F1
:100AF4006308FB009304000563048B019304400422
:100B04001375C507E30895D81945393139390545B1
:100B1400213126850D3909453D314931E31C05D67E
:100B240069BB91476399F90013056006F536F53EF4
:100B3400130590090DB7E38F09D4F154A9BB19CD5E
:100B440091CD09CE81473387F500834607003307EB
:100B5400F50085072300D700E317F6FE828019C944
:100B640091C909CA910583A7C5FF11057D16232ED6
:100B7400F5FEC5BF828001C919C62A960505A30FD3
:100B8400B5FEE31DA6FE828081473307F500030707
:100B9400070019E33E8582808507C5BF01112E86B3
:100BA40026CAAA84131506019305F004418122CCB8
:100BB40006CE32C6EF00F04F2A8401C53246A68520
:100BC400BD3F2285F2406244D2440561828085475C
:100BD40015C18DC105C28147B306F5003387F50001
:100BE40083C60600034707006398E6008507E315FC
:100BF400F6FE85473E8582808147EDBF9307F6FF69
:100C0400BE952A966313C5008280FD1583C715001F
:100C14000505A30FF5FEFDB7AA87014581CF09CECF
:100C24003E96850703C7F7FF6317B700E39BC7FE2C
:100C34000545828082800145828079719387819203
:100C440022D4804306D626D24AD04ECE52CC56CA9F
:100C54005AC85EC65DCCB7C4C901014B93890192E1
:100C64009384F437173A0000130A8A79973A0000FC
:100C7400938ACA7C1749000013098980835724008A
:100C840085E35C44631B0B0023A4F192832BC40013
:100C94002285EF00704E5E84B9A82326FB00FDB7C1
:100CA40083A7090082971C443307F5406376F50057
:100CB400032749001D8F2A9763E0E4089737000053
:100CC40023A607788355240003450400974000E0D9
:100CD400E780E0F25C405844A1CB0C440326490071
:100CE400AE97BE8663E4B70063E4C700B386C7402B
:100CF40014C4228B3A8459F0973700009387077401
:100D04009C4B09476370F706F91717370000232F28
:100D1400F772B250225492540259F249624AD24AAA
:100D2400424BB24B4561828063150B0023A4E192D0
:100D3400B1BF2326EB0099BF03274A0209CF63EF13
:100D4400A7003385A74083A70A016376F500973788
:100D5400000023ADA76E228B404471BF03274900D6
:100D6400BA97C5B79737000023A2076E5DB7411144
:100D740022C4173400001304E46E1C4006C626C2C5
:100D84004AC091C782979737000023AD076C9747F5
:100D9400000083C7F786858B9744000093840486FC
:100DA40095C397470000A38D078483C77400154734
:100DB400637AF700052B83C77400F5178A07A29797
:100DC4009C4382971C4491C38297138941910327C2
:100DD400090017360000034676669737000083C77C
:100DE400E76593961700BA9683D60600C5CE973763
:100DF400000083C7A76463E1C70C97370000238F03
:100E040007621C40639507129737000083C7977FDA
:100E140091CF83C7740093F7F70F89EB97370000DE
:100E2400A382077E974001E0E780A00A938701929E
:100E34009C43638E070E9737000093876764DC43F7
:100E4400173700002324F760CD3B973700009387C2
:100E5400275BDC53E9CF173700001307275E184BD5
:100E64009737000083C7175B6363F70C83C774006D
:100E74001547636EF70A9737000083C7A77C918BE9
:100E8400DDE7032609009736000083C6365B63C698
:100E9400D70A2244B240924402494101174300E078
:100EA4006700A31D850793F7F70F97360000238784
:100EB400F658E3E4C7F225BF86073E97835507003B
:100EC40023100700239E01909387C1929C431735FA
:100ED40000000345A55613172500BA979C43829733
:100EE40083D7C191173700000347475593C7F7FFCE
:100EF4007D8D93171700032709003E97835707003A
:100F04005D8D2310A7009737000083C7275391C72F
:100F14008507173700002303F752173700000347EC
:100F2400E7519737000083C77751E378F7ECB24075
:100F34002244924402494101828013971700329758
:100F4400035707006DF7850799B7AD6737C70040AA
:100F5400BD072326F7200F10000097370000938762
:100F6400E74DC84F83278726BD66BD0693C7F7FFA5
:100F740099836A052326D7205D8D82804111B71796
:100F84000040985F3AC6945F3247E39CE6FE3245E0
:100F9400410182801305F00F828001119737000010
:100FA4009387C77122CC03A4070C26CA06CE2AC491
:100FB4002EC6854419E40145F2406244D2440561D9
:100FC40082808347910003471400858B6304F700F4
:100FD4000044CDB719469305A10013052400C53E6E
:100FE400E31895FE0545C9BF1387819E1C439306EC
:100FF400001094C301000100010001001C4323A060
:1010040007008346150003482500A2064208C2963D
:1010140003480500C296034835006208C29694D777
:101024008346550003486500A2064208C296034859
:101034004500C296034875006208C296D4D7834619
:1010440095000348A500A2064208C29603488500FD
:10105400C2960348B5006208C29694DB8346D50065
:101064000348E500A2064208C2960348C5000345AA
:10107400F500C2966205AA96D4DB83C6150003C5A3
:101084002500A2064205AA9603C50500AA9603C533
:1010940035006205AA9694CF83C6550003C5650042
:1010A400A2064205AA9603C54500AA9603C5750083
:1010B4006205AA96D4CF83C6950003C5A500A206EF
:1010C4004205AA9603C58500AA9603C5B500620524
:1010D400AA9694D383C6D50003C5E500A2064205AB
:1010E400AA9603C5C50083C5F500AA96E205AE9687
:1010F400D4D3D443F59AD4C3D44393E61600D4C3CB
:10110400944393E6160094C3BA879443D842058B5C
:1011140059E3984E01452300E6009843184F218374
:10112400A300E6009843184F41832301E600984347
:10113400184F6183A301E6009C43D84F2302E600C5
:10114400D84F2183A302E600D84F41832303E6004E
:10115400D84F6183A303E60098532304E600985311
:101164002183A304E600985341832305E6009853A2
:101174006183A305E600D8532306E600D8532183F0
:10118400A306E600D85341832307E600DC53E1833A
:10119400A307F600828001008DBF1387C19E14430C
:1011A400411122C49C5E4AC006C6998326C2858B1F
:1011B4003A841389819ED1C79C5E9734000093843E
:1011C400E44393F7F7F99CDE1737000003476743BE
:1011D40093070008631BF700832709009C4393F7D8
:1011E400070417370000230EF74083C7040093F762
:1011F40007048DC3938701929C438297973700001D
:1012040023A6A74083C7040093F7F70B1737000002
:101214002306F73E83C7440093F707049DE38547FD
:1012240017370000A30EF73C9387819F9C430967FF
:1012340098C7130700FC973600002383E63CD84484
:10124400F8D31C40985F1183058B09CB985F3D9BB5
:1012540098DF0547973600002384E63A985F1D839C
:10126400058B11CB985F1377F7F798DF854717370E
:1012740000002307F73883270900D8430583058B2B
:1012840019C7D843759BD8C3D843799BD8C3B240F8
:1012940022449244024941018280397106DE16DCFF
:1012A4001ADA1ED82AD62ED432D236D03ACE3ECC32
:1012B40042CA46C872C676C47AC27EC0F93DF250AC
:1012C400E2525253C2533255A255125682567247B5
:1012D400E2475248C248324EA24E124F824F216119
:1012E400730020309387819F94439737000093873E
:1012F400E73003C70700058B11CB97370000238124
:10130400073097370000A38D072E828003C717008C
:10131400058B65F7F85271FF83C75700DDB7138853
:10132400C19E032708001C5F9583858BD1E709C6FE
:101334001C5BBD832300F60085CA83270800985BE5
:101344004607935767016356070093E707C0C20730
:10135400C18303970600C207C18709C7BA97094723
:10136400B3C7E7022390F60085CD834715008DCBE4
:101374009736000083C6E62893F606041387970081
:1013840089478DCA3A9503470500854699471376E0
:10139400F7066311D60262076187B947634C0700F9
:1013A400832708009C5FED838D8B17370000A30C07
:1013B400F72481473E8582808547EDBF411122C4D1
:1013C40006C61384819F18402DE9AE877453FDFE31
:1013D4003E85B2859737000023830722974001E0BA
:1013E400E78060849387C19E9C43B706800098433E
:1013F400558F98C3D857719BD8D797370000A381CE
:10140400072097370000A38B071E1C40094798C389
:101414001440173700001307671E83472700858B86
:1014240089EB83473700858BD9C39737000023891D
:10143400071CB2402244410182808D47631EF5009F
:101444009387C19E9C43B70680009843558F98C3E9
:10145400D857719BD8D76DBF8547E31BF5FA54471E
:10146400F977FD17F58F5CC70F1000001C40096762
:1014740098C7130700F8173600002303E6181387EC
:10148400C19E1043184231830D8B11E71307601975
:10149400F8D3D4C7B5BF1842094631830D8B631501
:1014A400C7001307E043EDB71307E01BD5B7FC52A1
:1014B400ADF741B75D71A2C4A6C22A8413068002A7
:1014C4002800AE849305100886C6CAC04EDE52DCDE
:1014D400EFF06FEA3545974001E0E78020B11383D0
:1014E400C19E832703009376F41F138E01A023A4C7
:1014F4000700984B938E819F370FFCFF1367F70308
:1015040098CBF84F130510F8B7020400137707E0DF
:10151400558FF8CF9843F576FD16758F98C3984389
:10152400B7063300930380251377F7E798C39843EE
:1015340011497D1F1377F7E71367071098C3032733
:101544000E008549930F80021C47D58F1CC783A7C3
:101554000E001307900D3400B8CB014793553700A4
:10156400A69583C7050013767700B3D7C740858B4C
:10157400E1C38327030083280E00239C07042390E0
:10158400070603A8C8021378D8FF23A6080383A874
:1015940007001378F70793F808F833E8080123A045
:1015A400070103A847023368580023A2070383A84E
:1015B4000E00014823A2780603DA070663074803EE
:1015C40003A80703038A06001358F8006208135897
:1015D400884163580A0103A807031358F8002380BD
:1015E400060103D807061378F80F03AA4806630612
:1015F4000A0003DA8705E37F49FB03A8470233782F
:10160400E80123A2070383870600635CF40003C890
:1016140005003396C9001346F6FF3376060123808E
:10162400C5003E8663D3A7002A861315860161850B
:1016340005071377F70F8506E312F7F3B640264440
:1016440096440649F259625A616182809386819F69
:101654009C42D84713161701635506029847131680
:101664001701635006027D57B8D7173700001307D8
:10167400E7DC584F050717360000232FE6DC116717
:1016840098C798470D83058B1DC317370000034780
:1016940007F713671700173600002302E6F613074F
:1016A40000F817360000230DE6F4214798C7984741
:1016B400058B09CF17370000034757F4136717004A
:1016C40017360000A30CE6F2054798C7984709832C
:1016D400058B09E798470583058B21CF9847173673
:1016E40000001306A6F11385C19E0983058B6303CD
:1016F40007101841184331830D8B75EBAC4B184E12
:1017040093F5050203471700CDCD79EF1307700653
:10171400D8CF034706001367170017360000230FBE
:10172400E6EC114798C718415C57F19B93E7170003
:101734005CD79C4298479316370163D606029736C6
:10174400000083C626FFC18A17370000130707F776
:10175400C5CE034787071367070297360000238B1C
:10176400E6FC056798C798479316270163D10602DC
:10177400173700000347C7E862076187635707000C
:10178400054797360000238DE6E6096798C7984712
:101794009316070163D606029736000083C696F9AE
:1017A400858A17370000130767F1ADCE0347970703
:1017B4001367270097360000A38EE6F6216798C7C3
:1017C400828029D785456315B7001307B00689B70A
:1017D40089456315B7001307F0061DBF8D456315D2
:1017E400B700130730072DB71307500715B71307B2
:1017F400600739BF03473600136717001736000028
:10180400A30FE6DE094739BF834687070946BD8A29
:101814006388C600034787078D463D8BE313D7F4DF
:10182400114725BF83469707918AC9DA034797076B
:101834001367870041B7397106DE16DC1ADA1ED841
:101844002AD62ED432D236D03ACE3ECC42CA46C85C
:1018540072C676C47AC27EC0D53BF250E25252536D
:10186400C2533255A255125682567247E247524825
:10187400C248324EA24E124F824F21617300203073
:101884009387819F98438567938707777CD3938752
:1018940001A09C4383A607091396560063580600CB
:1018A40083A6070913966600634406007453FDF289
:1018B400828061C1AA870145DDCD8D07C207C1833E
:1018C400F19BC207C18313074003636BF7021387BD
:1018D400C1A80843138741A814436396A602173787
:1018E40000001307E7B1185B014551C74111C20756
:1018F40006C60545DD8D0297B2400145410182804F
:10190400138781A8F9B70357650035E303574500EA
:10191400636FF704B306F7402146637CD6020328BD
:101924000500938687001D8FAA966117173600005D
:10193400035626B12392E60023A006012393060052
:1019440014C12312F500130786FF97360000239A6B
:10195400E6AE2313B5009735000083D585AEB38773
:10196400F54017370000231EF7AC2105828008419B
:10197400ADB701458280828009CD9387C1A803A3B6
:101984000700938741A883A8070081469A8763E3E9
:101994001701828003A807006369F50A6367A80A30
:1019A40013878700E367E5FE03D667002167050711
:1019B4006317E60003C7019C05072380E19C973564
:1019C40000009385A5A703D6470003D7650023939A
:1019D4000700329742074183173500002313E5A619
:1019E40063886702138581A808416303F50203D560
:1019F400660019ED83D7460023A0060121073E9611
:101A040021062392C60097370000239CE7A2B687DD
:101A14009843E30017F9938681A89442E30BD7F621
:101A240083566700BDF683D6470003564700184324
:101A3400A106B2962392D70098C383D76500A10765
:101A440017370000231FF79E8280BE86C28781B7A6
:101A54000327851163020712411122C406C6834776
:101A6400C5008345E5042A8493F7C70F2306F500D0
:101A7400834697000356C70013958601618563F278
:101A8400C508635B05060345870093F6F607A304C0
:101A9400D700054693E627006314C50093E61700B4
:101AA4002306D4005C4389075CC3A30AB40003255E
:101AB40004112E864C430905EFF06F8883278411A7
:101AC40003465401D44303D7C700B296118FD4C33D
:101AD4002396E7008947A30DF4000347640397376F
:101AE400000083C707936378F7048347C40093E730
:101AF40007012306F40081A093E717002306F400EE
:101B04006DB79376F60F635D05020345870085453F
:101B140013E627006314B50013E617002306C40078
:101B2400A30AD400A30407008547A30DF400832768
:101B340084119C43DDF3B24022440145410182807B
:101B440093E717002306F400A30AD400A3040700B4
:101B5400032504114C430905EFE07FFE832784111C
:101B640003465401D44303D7C700B296118FD4C39C
:101B74002396E7008D4755BF054582809387C1A909
:101B84009C43411122C406C6858B2A84C5EF416556
:101B9400130525F597E001E0E780807345C5834789
:101BA400A5002315F50083270412BDE72320A41202
:101BB4002322A41285472311F4042320050083471C
:101BC400640154412316F5000347D4002304E500BF
:101BD4000547A304E50017370000130727A2184F91
:101BE4001385170215811C437D151375F50F9CC2CF
:101BF4005C43DCC21C479CC65C47DCC61C4B9CCACD
:101C04005C4BDCCA1C4F9CCE5C4FDCCE19CD93865A
:101C1400060213070702C1BF8327441288C38357F0
:101C240024042322A412850779B79737000083D7A9
:101C340067A98507173700002316F7A8B240224486
:101C4400410182808347C40023090400054593C7EA
:101C540047002306F400DDB78347850193F7E70FB8
:101C6400C5EF83479501CDEB034625018346C500A7
:101C740009CA83456503172700000347977963E77B
:101C8400E50013F7060151CB014709C6C18A035782
:101C9400651C81C68356A51C369741C31307C7121A
:101CA400172500000355457EB335A70237460F00BC
:101CB400411113060624814622C426C206C67D5459
:101CC4003305A702971002E0E780606897270000B9
:101CD40083C79774B384A700973700009387079E40
:101CE40003A787098327070963F387003E84184302
:101CF40075FB938701929C43829781476364A40098
:101D0400B307A440B2402244B3B7970093C7170067
:101D140092443E854101828081473E85828093873B
:101D2400819F98437C53FDFF8280797126D206D629
:101D340022D44AD04ECE52CC56CA5AC85EC6834725
:101D4400550303447513AA843E941374F40F930744
:101D5400400263F687001304B4FD1374F40F03AA5E
:101D6400841383AAC413A38B841222865285D68536
:101D7400971002E0E7802058058915E503CBD412BB
:101D840001498149337B6403930B50024A8652858F
:101D9400D685971002E0E7800056058915C5639142
:101DA40069031374F90F238B8412B2502254925492
:101DB4000259F249624AD24A424BB24B456182808F
:101DC4008509E20993D989410509E31179FDE1BF48
:101DD4008327850903560504797193D60701BD8EBF
:101DE400C206C182358E1357764093575640898B6D
:101DF400058B5D8F93573640918B5D8F93571640BB
:101E0400A18B5D8F93171600C18B5D8F93173600DE
:101E140093F707025D8F931756009355860093F747
:101E240007041E065D8F1376F60F518F93D7554026
:101E340013D63540118A898BD18F13D67540D18F33
:101E440013D61540218AD18F13961500418AD18F5C
:101E54001396350013760602D18F13965500137628
:101E640006049E05D18F93F5F50FCD8FA207454645
:101E74005D8F3307C70222D42A8426D252CC56CA95
:101E8400032A8413832AC4135AC806D636974207F2
:101E9400418393577740135557400989858BC98FE0
:101EA400135537401189C98F135517402189C98F9C
:101EB400131517004189C98F1315370013750502CF
:101EC400C98F1315570093558700137505041E0712
:101ED400C98F1377F70FD98F13D5354013D75540D2
:101EE4001189098B498F13D57540498F13D5154036
:101EF4002189498F139515004189498F1395350020
:101F040013750502498F13955500137505049E0535
:101F1400498F93F5F50F4D8F2207D98FB387C702E9
:101F24004AD04ECE5EC662C4B697C207C18313D7E9
:101F3400774013D557400989058B498F13D537400E
:101F44001189498F13D517402189498F139517009B
:101F54004189498F1395370013750502498F1395ED
:101F6400570093D58700137505049E07498F93F78F
:101F7400F70FD98F13D5354013D755401189098BE5
:101F8400498F13D57540498F13D515402189498F41
:101F9400139515004189498F139535001375050272
:101FA400498F13955500137505049E05498F93F5C4
:101FB400F50F4D8F2207D98FB387C702130650023E
:101FC4005285D685B697BD8E93940601C18033F6AB
:101FD400C402137BF60F971002E0E780C031058935
:101FE4000DED8347D41201498149B3849702130C40
:101FF4005002C1804A865285D685971002E0E78058
:10200400802F0589937BF90F11C5638634038509F5
:1020140093F9F90F0509E31F89FD230B6413B250EB
:10202400225492540259F249624AD24A424BB24B68
:10203400224C456182805E8BCDB7797122D406D65D
:1020440083C735002E8423160100A307F10083C73C
:102054004500100802C02307F10083C755008A8594
:1020640002C2A306F10002C402C802CA02CC02CE14
:10207400EFE09FF70347F101834704000145631034
:10208400F7020347E1018347140001456319F70090
:102094000345D101834724001D8D13351500B2502B
:1020A40022544561828001119727000093870761BC
:1020B40022CC03A4870C26CA4AC84EC606CEAA84DC
:1020C40013092500854915C083C71400034734004C
:1020D400858B6304F700405CFDB719469305440003
:1020E4004A85EFE0DFAEE31835FF2285F240624413
:1020F400D2444249B24905618280411197270000C8
:102104009387C75B22C403A4870C26C24AC006C6B1
:1021140093042500054901E82285B24022449244F3
:10212400024941018280A6851305A4023937E305DB
:1021340025FF405CCDB741119727000093870758CE
:1021440022C403A4870C26C24AC006C693042500F1
:10215400054901E82285B2402244924402494101E2
:102164008280A6851305A401C93DE30525FF405CD3
:04217400CDB70000E3
:1021780097110020938101DB17610020130101E80A
:102188001305400097E5FF1F938545E717060020D4
:10219800130606FE63FAC5008322050023A0550036
:1021A80011059105E3EAC5FE1745020013054583AD
:1021B800970500209385C5FB1386018763FAC50040
:1021C8008322050023A0550011059105E3EAC5FE09
:1021D8001385018797250020938585606377B5006F
:1021E800232005001105E36DB5FEFD42739002BC86
:1021F8008D4273904280930280087390023097E278
:10220800FF1F9382A2DF93E232007390523097222D
:1022180000009382224873901234730020303D43AB
:102228002A876373C3029377F700BDEFADE5937612
:1022380006FF3D8ABA960CC34CC30CC74CC741076E
:10224800E36BD7FE11E28280B306C3408A06970289
:10225800000096966780A6002307B700A306B7007C
:102268002306B700A305B7002305B700A304B700EA
:102278002304B700A303B7002303B700A302B700E2
:102288002302B700A301B7002301B700A300B700DA
:102298002300B700828093F5F50F93968500D58DBE
:1022A80093960501D58D61B7939627009702000094
:1022B80096968682E78086FA9680C1171D8F3E968D
:1022C800E374C3F8A5B7B717004003C777051A0525
:1022D80092054D8D1377E70F13653500A38BE7043F
:1022E8001375F50FA38CA7048280B717004003C7A6
:1022F80077051377E70FA38BE704130700F8A38D7F
:10230800E7043D47238CE70413075003A38CE70435
:102318008280B717004083C7E7020D8993F7C70F7C
:10232800C98F73270080218B9386018709CB732778
:10233800008023A8E18698425D9B73100780010006
:10234800010037170040130670052300C704130661
:1023580080FA2300C704010001002307F7022300C5
:102368000704732700809C42A18BD98F7390078044
:1023780023A8018601000100828041112A83014EB1
:10238800930E407E130F0019930F400663E66E14F8
:102398009308001913034006B3781503854E0D4FB3
:1023A800A14F337365020D891335150063E0BE161E
:1023B8001308F6FF79467298420813580801330744
:1023C800C70213D61700BE0732976146B3F6C60296
:1023D80013068070B386C6023697A166F58F42074A
:1023E8005D8FB716004083C7F60293F70708A30767
:1023F800F1000346F10083C7F60293F70708E39458
:10240800C7FE8347F100B716004093F7F70F6389BB
:102418000714F3270080A18B93860187639807141C
:1024280001000100B7170040130670052380C70498
:10243800130680FA2380C7040100010023AA0703BA
:1024480003C6170313660608A388C7022380070478
:10245800732600809C42A18BD18F7390078023A89C
:102468000186010001001166B71500407D16DC5990
:10247800C85DA98FF18FE5FFF3270080A18B89CB79
:10248800F327008023A8F1869C42DD9B7390078088
:1024980001000100B7170040130670052380C70428
:1024A800130680FA2380C70401000100D8DB03C7A4
:1024B800170313670704A388E70223800704732719
:1024C80000809C42A18BD98F7390078023A8018636
:1024D80001000100410182807D133368E303930802
:1024E800E016630E08003368F3039308D0166308F8
:1024F80008009378330093B818009388D8163308E7
:102508001E01131E0801135E0E0149B56393E5030E
:102518000548638608000148630303002A88710898
:102528007298FD15131E0801C205135E0E01C181C4
:10253800B5BD13F8150063F4BF007908D5B7133893
:102548001800E5BF83C7F60293F70708A307F10051
:102558000346F10083C7F60293F70708E394C7FE22
:102568008347F10093F7F70FF1DF65B5F327008094
:1025780023A8F1869C42DD9B7390078055B54111D5
:10258800B7170040985F3AC6945F3247E39CE6FE6F
:102598003245410182805971E2C486D6A2D4A6D2BE
:1025A800CAD0CECED2CCD6CADAC8DEC6E6C2EAC017
:1025B8006EDE2A8C02D6EF00D036F3270080A18B7E
:1025C800138D018791CBF327008023A8F1868327F9
:1025D8000D00DD9B7390078001000100B7170040D4
:1025E800130770052380E704130780FA2380E704A4
:1025F8000100010003C7F7021377770FA387E702EB
:1026080003C7F70213678700A387E702238007043D
:102618007327008083270D00A18BD98F73900780C3
:1026280023A8018601000100F3270080A18B91CB2C
:10263800F327008023A8F18683270D00DD9B739084
:10264800078001000100B7170040130770052380B9
:10265800E704130780FA2380E7040100010003C799
:10266800E7021377C70F2387E70203C7E702136759
:1026780017002387E7022380070473270080832736
:102688000D00A18BD98F7390078023A801860100C4
:102698000100130780C13347E5029169938709E870
:1026A800130650023D69B7440F0093840424856BD8
:1026B800130BA004014A814A13047005FD19B3479E
:1026C800F5023307C7023EC2930709A61309803EE5
:1026D8003347F7023AC433472503054933198901BB
:1026E800135939403345950293840BFAB394840106
:1026F800811B3306C702B346F6023309E90236C620
:10270800330B670313076055B304950213050010D4
:102718003309E902B346FB02130B80FAB3C4A402DF
:1027280036C8B347F902939634003719004036CCBF
:10273800930409043ECA73260080218A11CA7326AD
:10274800008023A8C18603260D005D9A73100680B9
:1027580001000100930770052380F40023806401C1
:1027680001000100034639051376860FA309C90441
:102778000346390513661600A309C904238004001B
:102788007325008003260D00218A498E7310068068
:1027980023A8018601000100916CE17D7326008069
:1027A800218A11CA7326008023A8C18603260D003A
:1027B8005D9A73100680010001009307700523805D
:1027C800F400238064010100010003463905136603
:1027D8000602A309C904035609053366960123189E
:1027E800C904035609053366B60142064182231817
:1027F800C904238004007325008003260D00218A64
:10280800498E7310068023A8018601000100034643
:102818003905137606026301061603463905218A2F
:102828006DDE6810EF00101473260080218A11CA2B
:102838007326008023A8C18603260D005D9A7310B5
:1028480006800100010023808400238064010100C8
:102858000100034639051376F60DA309C90403469A
:10286800390513660602A309C90403560905336628
:1028780096012318C904035609053366B6014206B2
:1028880041822318C904238004007325008003268D
:102898000D00218A498E7310068023A80186010045
:1028A8000100034639051376060263030610034642
:1028B8003905218A6DFEE1312A8632CEC931724648
:1028C800E30DC5FE035609053255336696012318F4
:1028D800C904EF00F00A03463905218A6DDE035565
:1028E800090503462905924733F5A9003386C9022D
:1028F80032951D8DA24763D5A700B2476346F50EF2
:1029080009466365560FC247850A1316150093FAE0
:10291800FA0F3346F602635EA038050609453346CA
:10292800A60273250080218911C97325008023A878
:10293800A18603250D005D99731005800100010033
:102948002380840023806401010001000355C9022B
:102958002A96420641822316C90223800400732561
:10296800008003260D00218A498E7310068023A853
:102978000186010001001DB573260080218A11CA55
:102988007326008023A8C18603260D005D9A731064
:102998000680010001002380840023806401010077
:1029A80001000346390513660602A309C90491B557
:1029B80073260080218A11CA7326008023A8C18645
:1029C80003260D005D9A7310068001000100238024
:1029D8008400238064010100010003463905136661
:1029E8000602A309C90445B5E38F0AF073260080DF
:1029F800218A11CA7326008023A8C18603260D00E8
:102A08005D9A7310068001000100238084002380F2
:102A1800640101000100034639051375FC0F1376A4
:102A2800860FA309C90403463905498EA309C904B9
:102A3800238004007328008003260D00218A336652
:102A480006017310068023A80186010001000346D1
:102A580039051D8A6311862773260080218A11CAC9
:102A68007326008023A8C18603260D005D9A731083
:102A78000680010001002380840023806401010096
:102A880001000346390511651376F60DA309C9043B
:102A98000346390513660602A309C9040356090546
:102AA800498E2318C904035609052165498E231840
:102AB800C904238004007325008003260D00218AA1
:102AC800498E7310068023A8018601000100034681
:102AD8003905137606026308062003463905218A5C
:102AE8006DDE6810412573260080218A11CA73267D
:102AF800008023A8C18603260D005D9A7310068006
:102B0800010001002380840023806401010001008A
:102B18000346390511651376F60DA309C904034662
:102B2800390513660602A309C90403560905498E27
:102B38002318C904035609052165498E2318C904B9
:102B4800238004007325008003260D00218A498E06
:102B58007310068023A80186010001000346390589
:102B680013760602630D061A03463905218A6DFE9F
:102B78003934AA8C2934E30F95FF035609051165EA
:102B8800498E32552318C904E52B03463905218A95
:102B98006DDE73260080218A1385018709CA732692
:102BA800008023A8C18610415D9A73100680010039
:102BB8000100238084002380640101000100034692
:102BC80039051376F60DA309C90423800400732878
:102BD80000801041218A336606017310068023A8FD
:102BE8000186010001000358090503462905E2474B
:102BF80033F809013386C90232983308F8401306BE
:102C0800800C3306C802D2473346F60263550015D6
:102C180005060948334606036351C0140358C90220
:102C28009308F00F13585800329863D6081F0946C6
:102C380063734619F3270080A18B89CBF3270080A3
:102C480023A8F1861C41DD9B7390078001000100D9
:102C580037170040930770052300F704930780FA9D
:102C68002300F704010001008356C7028967811712
:102C7800D58FC207C1832316F702230007047327E1
:102C880000801C41A18BD98F7390078023A80186EF
:102C980001000100B650265496540659F649664A72
:102CA800D64A464BB64B264C964C064DF25D6561AE
:102CB80082807D16A5B173260080218A11CA7326E9
:102CC800008023A8C18603260D005D9A7310068034
:102CD80001000100238084002380640101000100B9
:102CE8000346390599B373260080218A11CA7326D1
:102CF800008023A8C18603260D005D9A7310068004
:102D08000100010023808400238064010100010088
:102D18000346390513660602A309C90459BB73267D
:102D28000080218A11CA7326008023A8C186032641
:102D38000D005D9A73100680010001002380840055
:102D48002380640101000100034639051366060269
:102D5800A309C904F5B37D166DBD55CE0358C90244
:102D6800B308C040135858006357180B09466374DA
:102D78004605F3270080A18B89CBF327008023A881
:102D8800F1861C41DD9B7390078001000100B71795
:102D98000040130770052380E704130780FA238097
:102DA800E7040100010003D7C7027D8B2396E702E1
:102DB80023800704E9B573260080218A09CA73268F
:102DC800008023A8C18610415D9A73100680010017
:102DD8000100238084002380640101000100035660
:102DE800C9021376F60F336676014206418223162E
:102DF800C90223800400732800801041218A3366A9
:102E080006017310068023A8018601000100050A47
:102E1800137AFA0F0DB2F3270080A18B89CBF32721
:102E2800008023A8F1861C41DD9B73900780010078
:102E38000100B7170040130770052380E704130744
:102E480080FA2380E7040100010003D7C7021606B1
:102E58003A96420641822396C70299BF914763EE8C
:102E6800B702172702001307A7E48A05BA959C4101
:102E7800BA978287B717004003A7470B1345F5FF9A
:102E8800698F23AAE70A03A7070B698F23A8E70A14
:102E980003A7070A798D23A0A70A8280B7170040E5
:102EA80083A6470B1347F5FFF98E23AAD70A83A6F3
:102EB800070B558D23A8A70A83A6070A758F23A099
:102EC800E70A8280B717004003A7470B498F23AA58
:102ED800E70A03A7070B1345F5FF45BFB7170040DF
:102EE80083A6470B1347F5FF758F23AAE70A03A7A5
:102EF800070A598D4DB7B717004003A7470B498FED
:102F0800EDB7914763EEB70217270200130787DB77
:102F18008A05BA959C41BA978287B717004003A7DC
:102F2800470D1345F5FF698F23AAE70C03A7070D83
:102F3800698F23A8E70C03A7070C798D23A0A70C9A
:102F48008280B717004083A6470D1347F5FFF98E17
:102F580023AAD70C83A6070D558D23A8A70C83A6F3
:102F6800070C758F23A0E70C8280B717004003A7D2
:102F7800470D498F23AAE70C03A7070D1345F5FF53
:102F880045BFB717004083A6470D1347F5FF758F58
:102F980023AAE70C03A7070C598D4DB7B7170040B4
:102FA80003A7470D498FEDB7B717004003D787012F
:102FB80009C5D98D239CB700828093C5F5FFF98D8B
:102FC800D5BF9387018725E173270080218B09CB23
:102FD8007327008023A8E18698435D9B73100780C0
:102FE8000100010037170040930670052300D7043D
:102FF800930680FA2300D704010001008346E70006
:1030080093C5F5FFF58D2307B70023000704732741
:1030180000809C43A18BD98F7390078023A80186D9
:103028000100010082807D163336C00073270080BE
:10303800218B09CB7327008023A8E18698435D9BE9
:1030480073100780010001003717004093067005D0
:103058002300D704930680FA2300D7040100010057
:103068008346E700D58D93E505042307B7002300C1
:103078000704F32600809843218B558F731007802F
:1030880023A801860100010073270080218B09CB4A
:103098007327008023A8E18698435D9B73100780FF
:1030A8000100010037170040930670052300D7047C
:1030B800930680FA2300D704010001008346F70035
:1030C80093F6C60FA307D70023000704F326008052
:1030D8009843218B558F7310078023A80186010020
:1030E800010073270080218B09CB7327008023A858
:1030F800E18698435D9B7310078001000100371734
:103108000040930670052300D704930680FA230035
:10311800D704010001008346F700558EA307C700B6
:10312800EDB5B717004003D5870042054181937775
:10313800050491EB9377F5013755E80113050580F0
:103148003345F50282809377050C130700046397D3
:10315800E7009377F50137459C1CCDB7216513052A
:1031680005D0828037E700E01C435443A183E20680
:10317800D58F1CC1FD572320F7182322F71882800A
:1031880013178500B7E700E023A0E710618123A2A9
:10319800A7108280B7F700E08847CC478280814734
:1031A80037370040A14663C4C70032858280034593
:1031B800B740E38EA6FE3385F50003450500850775
:1031C8002304A740CDB797F7FF1F9387A7559C43C4
:1031D800171700201307C7603E95636EE500175761
:1031E80000201307A7C16368A70017F7FF1F232B49
:1031F800A7523E858280FD57EDBFB7270040C8C75C
:1032080009472380E70011472380E70082804111A6
:1032180022C406C62A8431372947B307E502B240DB
:103228008D83B3D7870222449507B3D7E702373790
:103238000040C207C1832316F740410182807165AF
:1032480041111305052006C6D937B73700401307C3
:1032580070F82381E7400D47A381E7401307000476
:10326800A380E74005472387E740B24041018280B9
:10327800CC41411106C6328503C6150083C5050039
:1032880022064D8E42068D654186138875A2630C11
:10329800060F6348C804138845A26306060B634AF1
:1032A800C800938535A26309B6062390060029460F
:1032B80079A0138855A26308060B938565A2E316C7
:1032C800B6FEC1451D4663ECE5064546198E63F317
:1032D800C7003E862390C600972502009385C5A0A7
:1032E80089A8138895A26300060F634E060B1388FE
:1032F800A5A2630A060F938505A5E318B6FA9945B2
:103308001D4663EEE502198E63F3C7003E862390DF
:10331800C6009385C18031A89D451D4663E1E5023D
:103328002146198E63F3C7003E862390C600938515
:103338004187BA9597E0FF1FE78020800146B24099
:10334800328541018280AD451D46E3EAE5FE3146FE
:10335800198E63F3C7003E862390C60097250200A6
:103368009385459CF9B7B1451D46E3EAE5FC35462A
:10337800198E63F3C7003E862390C6009725020086
:103388009385459B7DB7C1451D46E3EAE5FA454669
:10339800198E63F3C7003E862390C6009725020066
:1033A8009385C59579B7C1451D46E3EAE5F84546D5
:1033B800198E63F3C7003E862390C6009725020046
:1033C80093854598BDB7C1451D46E3EAE5F64546F0
:1033D800198E63F3C7003E862390C6009725020026
:1033E80093850593B9B7B5451D46E3EAE5F4394633
:1033F800198E63F3C7003E862390C6009725020006
:103408009385858D3DB797F6FF1F938666E94146FC
:10341800CD4517F5FF1F1305A5D56F80D03C2D4569
:1034280059E703C505000947631FE5063285D04102
:10343800411106C6034716000346060041682207E5
:10344800518F130628FE630CC7046369E60005184C
:10345800630307032390060029453DA8130648FE89
:103468006305C7001518E31707FF15473E86637BFA
:10347800F700154601A81307E0023E866374F700BB
:103488001306E002CC452390C6004206418297D03D
:10349800FF1FE780806A0145B240410182803E8675
:1034A800F5D30546C5B7239006000545828082807E
:1034B80083C7850093F70702F1E3411106C622C4CA
:1034C80026C24AC003C9050089482E888547631764
:1034D8001907DC413284B68483C8170083C7070004
:1034E800A208B3E8F800C167138E37FE638FC805DA
:1034F800138EF7FF638CC807938617FEA947639F4F
:10350800D802AD4705EF1307E002B5476368970295
:103518000325C8001306E002A28597D0FF1FE780A5
:10352800C0610149938701899843814701CB1843BA
:1035380011C72686A2854A8502978147B240224450
:10354800924402493E8541018280AD4765FB1307DD
:10355800E002B547E364D7FE0325C8001306E0027E
:10356800A28597D0FF1FE780405D6DBF2244B2401F
:1035780092440249854741016F60F068A1473E8542
:10358800828041677917630CE502411122C406C69F
:1035980085472A84639AF50022852244B2409385A0
:1035A80041B141016F80102F89476396F500854529
:1035B800EFA0106375D1B24022444101828082801D
:1035C800411122C42A844165938541B17D1506C6FF
:1035D800EF80502C170500001305E5FA0588EFA0C9
:1035E800705705C02244B24097F6FF1F938606DD48
:1035F8004146C54517F5FF1F130545CB41016F80AF
:10360800901EB240224401454101828009C523A889
:10361800A188014582804545828011476362A708D9
:1036280097160200938646730A053695184141118C
:1036380006C63697AE87B28502871307E002614552
:10364800639BE7001306E002138541AB97D0FF1F89
:10365800E780A04E0145B24041018280054761459F
:10366800E39BE7FE05461385C187CDB71307E00244
:103678006145E392E7FE1306E002138541AEF9B710
:1036880015476145E399E7FC1546138501887DBF19
:1036980015476145E391E7FC1546138581887DB799
:1036A80009458280411122C42E84938541B126C2E6
:1036B80006C6AA84EF60F04F058915C197F7FF1F6A
:1036C8009387C7BE83D7A70BA285B2402310F40007
:1036D800224426859244014641016F70702AB24007
:1036E8002244924449454101828011456FE0BFEA76
:1036F800411193962500AA852D4506C697D0FF1F30
:10370800E780000DB240014541018280411126C287
:103718009394250022C44AC02A843289A686AA85A1
:103728000146254506C697D0FF1FE780600AA68692
:103738004A86A285294597D0FF1FE7806009B240D5
:10374800224492440249014541018280011122CC60
:1037580006CE3714004026CA4AC84EC652C483440F
:103768007405034AB4058349840503499405EFE0C9
:10377800DFB78347A40593F4F40F137AFA0F93E79E
:103788001700230DF40493F9F90F1379F90FB717FC
:10379800004003C7A705058B6DFF03D5C705A38D9B
:1037A8004705238C3705A38C2705A38B9704F24084
:1037B8006244D2444249B249224A05618280411199
:1037C8009397050122C406C6C1872E8463DD0700CE
:1037D800EF10201119C1EF10A0092165218DB24009
:1037E80022444101828093F7150013C51500E5FBBB
:1037F8009397250163D00702EF10312CFD3537F67A
:103808000200130606E0896503C54189EF102055BB
:103818000965E9B7939715010145E3D207FC171528
:10382800020013052559EF00420B13060064916549
:1038380003C54189EF10A05211654DB71D71494666
:103848009715020093858552172502001305C5AB0D
:1038580086CE97D0FF1FE780403701E91715020091
:1038680013050552EF00620701A0B7F600E079578B
:1038780098CAFD57DCCA0567B7E700E023A0E71040
:103888001306F00290C223A0E718010001001306F6
:10389800C0038145480897D0FF1FE780802D97F720
:1038A800FF1F938767353ECA896793870780231C64
:1038B800F1009307D0032304F102A167938707E07F
:1038C8003ECEB7070105938707103ED0930700083F
:1038D8002312F10285472303F1029707000093871B
:1038E80067E1BEC497070000938787E2BEC6856775
:1038F800938717F82315F102970700009387C78964
:103908003EDAB7F5070097070000938767E43EDEC5
:10391800814697070000938787DD7000E105194508
:10392800BEC097D0FF1FE780A0EA58088147994694
:1039380070003E960346060085070507A30CC700DE
:10394800E398D7FED24791C7035781018567637310
:10395800F70001A04808EF103015AA8501C917150E
:10396800020013052543EFF0116301A0F64025611D
:1039780082804111170500001305A5E406C622C47C
:10398800EF10100F138441892300A4002928034550
:1039980004002244B24037F60200130606E08965A7
:1039A80041016F10C03B411106C6F3270080A18B6F
:1039B8001387018789CBF327008023A8F1861C434E
:1039C800DD9B7390078001000100B7170040930644
:1039D80070052380D704930680FA2380D70401005A
:1039E800010083C6F70293F6A60FA387D7022380A8
:1039F8000704F32600801C43A18BD58F73900780A2
:103A080023A8018601000100F3270080A18B89CB40
:103A1800F327008023A8F1861C43DD9B7390078061
:103A280001000100B7170040930670052380D704F2
:103A3800930680FA2380D7040100010083C6F702A9
:103A480093E62600A387D70223800704F326008085
:103A58001C43A18BD58F7390078023A80186010092
:103A680001000545EFE0FF8A49311305407E814793
:103A78000147814605468545EFE03F90B240014544
:103A880041016F10D0364111171502001305C532D8
:103A980006C6EFF0916485454145EFF02FBC81459E
:103AA80013050008EFF08FBB81450945EFF00FBB08
:103AB80081450545EFF08FBA81450545EFE0BF80A8
:103AC800B717004003C7970513672700A38CE704BF
:103AD800A38E0188238D070437070020B7E700E08D
:103AE80023A0E71801000100B240410182802A8723
:103AF80029CD835605008357A500B6978356250020
:103B08008507958FC207C183BE866373F600B286A8
:103B1800C206C1820D459DCB81476394D7000145FC
:103B28008280035627000355A70003C805008507B0
:103B3800718D5043C207C1832A962300060103569C
:103B4800270005062311C700C9BF11458280938746
:103B5800018E9C43370700F07D17F98F1387818A00
:103B680018439386C18DD98F1387418B1843D98FFA
:103B78001387C18A1843D98F371700402324F70CBD
:103B88009C42CD9B9CC29386018B9442D58F938691
:103B9800418A9442D58F2324F70A8280411126C294
:103BA800BD6413850434914506C622C4EFF00FABFB
:103BB80037041E001305F43F9145EFF08FB4B71793
:103BC800004003A7C70A938404341304F43FD98C34
:103BD80023A6970A03A7C70CB2409244598C23A680
:103BE800870C224441018280411191451305001040
:103BF80006C6EFF00FB1B24081451305000E410132
:103C08006FF02FB0411191451305000806C6EFF07B
:103C18004FAFB24081451305001641016FF06FAEFA
:103C2800411191451305000406C6EFF08FADB2406F
:103C380081451305001A41016FF0AFAC4111914560
:103C48001305000206C6EFF0CFABB240814513055D
:103C5800001C41016FF0EFAA411191451305001EA8
:103C680006C6EFF00FAAB717004003A7C70CB2406B
:103C78001367071E23A6E70C03A7C70C1367071EC5
:103C880023A6E70C41018280411106C6F137B71718
:103C9800004003A7C70AC166938606C4558F23A6AA
:103CA800E70A03A7C70CB7061F00B2409386F621A0
:103CB800558F23A6E70C4101828023A0018E23AEF5
:103CC800018C23AA018C23AC018C971802009388DD
:103CD800E811054801438146014E01468547D54E06
:103CE800337FF50003A7080063080F00131F370090
:103CF800635C0F02598E054E050886079108E3118B
:103D0800D8FF514523AEA18A23A2E18E23A0F182D8
:103D180063040E0023A0C18E6304030023AED18C7C
:103D280085476396F50025B5D98E0543F1B7938786
:103D3800018E9C43370700F07D17F98F23ACF18C77
:103D48009387C18D9C4323AAF18C828023A0018E86
:103D580023AE018C23AA018C23AC018C9718020096
:103D68009388C808054801438146014E01468547A6
:103D7800D54E337FF50003A7080063180F00131F03
:103D88003700635C0F02598E054E050886079108B7
:103D9800E311D8FF514523AEA18A23A2E18E23A0C7
:103DA800F18263040E0023A0C18E6304030023AED6
:103DB800D18C85476396F50059BBD98E0543F1B779
:103DC8009387018E9C43370700F07D17F98F23AC4A
:103DD800F18C9387C18D9C4323AAF18C8280411179
:103DE80022C41384018D8357040006C6858B89C7B6
:103DF8002244B240410149BD9387218D8397070032
:103E0800A1E7DD33031704009387018C85458843B8
:103E180015E36535371700408327C70C93E707106C
:103E28002326F70C9145130500102244B2404101A6
:103E38006FF02F8D213F371700408327870C93E7BA
:103E480007102324F70CF9BF05476391E7045D3B8E
:103E5800031704009387418C8545884311EFB13DD2
:103E6800371700408327C70C93E707082326F70C6A
:103E780091451305000855BFD13D371700408327EA
:103E8800870C93E707082324F70CDDB709476391EC
:103E9800E7047933031704009387818C85458843A9
:103EA80011EF213D371700408327C70C93E707041C
:103EB8002326F70C91451305000485BF413D3717AC
:103EC80000408327870C93E707042324F70CDDB70A
:103ED8000D476391E7049D33031704009387C18C52
:103EE8008545884311EFD13B371700408327C70C1E
:103EF80093E707022326F70C91451305000235B70F
:103F0800B135371700408327870C93E7070223242E
:103F1800F70CDDB7B2402244410182801387018D3E
:103F280083570700411122C48507C207C187239818
:103F3800F18C06C60D463A849386218D6357F600A8
:103F480003D7060005072399E18C8D8B2398F18C04
:103F580083D706008D8B2399F18C51358357040044
:103F6800858B89CB2D65130595442244B2404101C8
:103F78006FF0AFA837150300130505D4FDB723A0CC
:103F8800018C23A2018C23A4018C23A6018C82809E
:103F9800828083D741906390A7022393B1902394A2
:103FA800C1902395D1902E86171502001305C5F9E7
:103FB800BE856FF0417E17150200130565FA6FF094
:103FC800D11103574500011106CE83D74190631FD5
:103FD800F702C167F917894503C5818223A2F190C9
:103FE80023A40190EF00F078914503C58182EF008A
:103FF800507885471306F100854513055030A3070F
:10400800F100EF60F144F24005618280171502006B
:10401800130505F5EFF0710CFDB73D897D15954742
:1040280063E4A71617170200130747E10A053A9534
:104038001C41411122C406C6BA972E8482871715DF
:104048000200130565F22244B24041016FF0F10805
:1040580083C7250019476391E7022E859D3783455D
:10406800640017150200130525F1EFF0C17217154A
:104078000200130525F2C1BF0D47E38AE7FEB240EF
:1040880022444101828003C725009547E319F7FEC2
:10409800C16703D74190F91703D5A500630FF7004F
:1040A800EF60B166171502001305C5EFEFF0F102D6
:1040B80017150200130585F179B72392A19083D7CC
:1040C800E5001306006403C581822393F19083D72A
:1040D80005012394F19083D7250189452395F19013
:1040E800DD47A389F182EF00904709661306069021
:1040F800A14503C58182EF0090460566130606C8F0
:10410800914503C58182EF0090450356E40083552D
:10411800A40017150200130525EAEFF0C16749BF8F
:1041280003C725008D47171502001305E5EAE318B4
:10413800F7F411BF83C5250091476397F50017155C
:1041480002001305E5EA01B79947639FF500228548
:104158008D3D83456400171502001305E5E12244EF
:10416800B24041016FF021639547639AF500834798
:104178001400F1F717150200130545E9E9B51715FD
:104188000200130525E9E1BF8280411193970501DB
:1041980022C406C626C2C1872E8463DC070603C56F
:1041A8008182EF000074AA840DCD834705001307B0
:1041B800000B638FE7021307000D6391E7020347C3
:1041C8002500C547631CF700034665008345750055
:1041D80017150200130505C8EFF0E15B2685EF000F
:1041E80020692165218DB240224492444101828098
:1041F800034745009307F007E312F7FE8355850050
:10420800171502001305C5C6A389B182EFF0A1589E
:10421800F1B793F7150091CF17E6FF1F1306062194
:104228009385C1B203C58182EF608178134514007C
:104238005DBF93F7250099CB13060064894503C534
:104248008182EF00D0311345240071BF93F78500B8
:1042580085C383C78182130740068146130640063B
:10426800994503D54190EF60016E13458400A5BFC1
:1042780093F705019DC3014789460946814503D542
:104288004190EF60D14AAA8517150200130585BF32
:10429800EFF0615013450401B9B793F745000145A4
:1042A800B9D303D54190EF6011460566130606C8D9
:1042B800914503C58182EF00902A1345440025B734
:1042C80093F71500C9C783C7018F1387170001111A
:1042D8002388E18E238EF18E22CC06CE03C731834C
:1042E8009D472E8463E5E702171502001305C5BA3A
:1042F800EFF0A15E13060064854503C5918FEF00BA
:10430800102613451400F2406244056182809547E7
:10431800014781461546ED4503D541902315F10027
:10432800EF5090432AC679D50356A1009385C18FD3
:1043380097D0FF1FE78060802C0003D54190EFF0F5
:104348006FB64DD9ED452800EF50D05865B70145F7
:1043580082808280011122CC26CA4AC84EC652C425
:1043680006CE2A848144930930062549138A41B42C
:104378008307040099C363DA9900F2406244D24487
:104388004249B249224A05618280938707FD6362E8
:10439800F9022285EFF0613493972400D29788C3FD
:1043A800850483070400938707FDE363F9FC05048C
:1043B800CDBF050475BF9307300663E8A700938552
:1043C80041B40A052E95084182804111AA85171526
:1043D8000200130565AD06C6EFF0E13BB2407D551E
:1043E80041018280397106DE19C589476305F500E8
:1043F800F250216182800A8597C0FF1FE780E07331
:104408000A85893F0145453FAA8523AAA18E17152C
:1044180002001305E5C0EFF00138D9BF7571170523
:1044280000001305C5D606C722C526C3EF00506491
:1044380093848182994705442380A4002310F102C4
:104448003008930740068545130550302318F104BA
:10445800230C8100EF60C17F17E6FF1F130646FF9C
:10446800F54513057030EF60A17E1386C1829D4526
:1044780013056030EF60C17D1010894513051031B8
:10448800EF60017D9008894513052031EF60417C7C
:10449800930500050D45EF20D0399305000511451A
:1044A800EF20303985457945EF20B038900891459F
:1044B800130570402306810023088100230C810026
:1044C80082C823000102EF50815970008545130509
:1044D8000040EF50C1581008854513051040EF50B3
:1044E80001581010854513052040EF5041573008FA
:1044F800854513055040EF5081567D55EF50006EAD
:104508007D55EF701036EFE01FF07D55EFF04F8BC3
:1045180017E6FF1F130646F2D9450145EF50A05A8A
:104528001306E00281450810EFD07FCF89471306B4
:10453800E00281458808230081022306F100EFD0BC
:104548001FCE8D472308F10402C891472308F100C4
:1045580093878186984383C7470010109305E0022C
:1045680001453ACC230EF100230A0100EFF0EF8A4F
:10457800700085450545EFF04F8A90089305E002E5
:104588000945EFF08F89100895450D45EFF0EF8844
:10459800300895451145EFF04F88C1671387419062
:1045A800F9171CC32322070013854182EFF00F86F9
:1045B8001385818EEF40012303C504008545152D21
:1045C800BA402A449A444961828041111705000083
:1045D800130545CF06C6EF00B049B240A38CA18EA3
:1045E8008545410139A595476313F50A238C018E4A
:1045F80083C7918209476394E7022380018A239C39
:10460800018A238D018A37170040231EF708B7E770
:1046180000E03707020023A0E7180100010003C7E4
:10462800918285476315F7064111294506C6EFF0C3
:10463800811A1715020013056589EFF0C11523804B
:10464800018A239C018A238D018AB71700400947F4
:10465800239EE708B7E700E03707020023A0E71822
:10466800010001002945EFF0011717150200130595
:10467800A589EFF041122945EFF0E1152945EFF042
:104688008115B240410117C3FF1F6700A3D882807C
:1046980001111305600406CE22CC4AC84EC652C486
:1046A80056C226CA97C0FF1FE780609E91457D5578
:1046B800EFE0CFFA91457D55EFE0BF843714004015
:1046C8008327C40A1305800CFD572326F40A032701
:1046D800C40C2326F40C97C0FF1FE78080E7EFF097
:1046E8001F8AEFF0AFCB930500020545EFE0DF8BA3
:1046F800854513050010EFE0DF808327840C914582
:104708001305002093E707202324F40CEFE06FFF44
:10471800EFE0FFB22945EFF0010C2945EFF0A10BBE
:10472800834514041715020013054591B7CA0500FF
:10473800EFF061062945EFF0010A1715020013058D
:10474800A5BCEFF081192945EFF0E108EFF00F8FD4
:1047580013858A8DEFE07FAAB729004083C7290017
:1047680037E900E0416A93E717002381F900EFF089
:10477800EFC2EFF0DF8023204919010001008145D5
:104788000945EFE0AFED0546A1450545EFE07F831C
:104798000546C1450545EFE0DF8217150200130500
:1047A800658BEFF081138564138504809145EFE0F4
:1047B8004FF58327840C938404809145C58F232467
:1047C800F40C3705200023A4918AEFE08FF391457C
:1047D8003145EFE0AFE88944231E94082945EFE00E
:1047E800917FEFF00F991715020013052589EFE067
:1047F800917A2945EFE0317E171502001305C58926
:10480800EFE071792945EFE0117DEF608172393170
:104818006D3BB7070200231E94082320F9180100F6
:104828000100B70700102320F91013858A8D231E75
:104838009408EFE09F9C83C7290093E71700238122
:10484800F90023204911EFF00FA497C0FF1FE7805C
:10485800A0EA23AC05FE1C4191E7010001000CC150
:104868008280BA8703A787FF6DFF23ACB7FE8280DB
:104878001DC18346E5FF1307F00F9147639EE600CD
:10488800411106C697D0FF1FE780C00EB24081478E
:104898003E854101828095473E85828001E9014538
:1048A80082800145B24022444101828095654111D0
:1048B800938505D022C4C98D2A842105C2054205E5
:1048C800C181418106C697D0FF1FE78040FE71D99C
:1048D800FD5723200500231285002303F500210539
:1048E800D1B7138701911C43411122C426C24AC083
:1048F80006C601440149BA8489E7A1659D2D0DC406
:1049080001A803C7E7FF6318A7021DC8A165D5243E
:104918009840832784FF6317E40223A8F190FD578A
:10492800232C04FE230FF4FE2285B2402244924435
:1049380002494101828011E03E8983A787FF6DBF4C
:104948003E84E5BF232CF9FED9BFA1CD411122C475
:1049580006C62A849707002083C7D7AD2E856375BE
:10496800F400894763E8870021370D45B2402244A7
:104978004101828083A785FF99E703C7E5FF930775
:10498800F00F6305F700ED351545CDB7238F85FE8C
:10499800138501917D3D22852244B240A1654101E4
:1049A80089AC1545828023A80190828093878192E3
:1049B8009C4399E33E85828003D727006316B7009E
:1049C80003C70700E308A7FEDC47E5B7BDCD79714B
:1049D80022D406D626D24AD04ECE01444147B3D778
:1049E8008540858BB1CF1205314722953305E50205
:1049F8009387819103A907008544B3948400C20476
:104A0800C180BE892A990327090011C703254900D7
:104A18002EC60297B24531473304E40283A7090042
:104A28003E941C4489E72320090023220900B25040
:104A38002254A58D02599254F2492E8545618280EF
:104A48000504E31EE4F88144DDB72E858280411118
:104A58001397050122C406C626C24AC041872E8480
:104A6800635E0700BD3D11C12135A1673D8C2285DC
:104A7800B24022449244024941018280EDD9AA877A
:104A880001474146B356E440858A9DCA9207BA97C2
:104A9800B146B387D7029386819103A9060085445E
:104AA800B394E400C204C1803E998327090003251A
:104AB800490082972320090023220900258C45BF3D
:104AC8000507E311C7FC8144D5BF970700209387EA
:104AD800A7929C53411122C406C61384418399C7E7
:104AE80082971C403E9523AAA18229A09387019210
:104AF8009C43FDF70840B74703009387D73F33052A
:104B0800F502B7A72600938737ECB24022443E95BA
:104B180023AAA1824101828079C9938701929C438B
:104B2800797122D426D24AD04ECE52CC56CA5AC80F
:104B380006D65EC63A8AB689328BAE8A2A898297A9
:104B4800938781919843BE840144B146C147B30B12
:104B5800D40233067701104251E6C165938505F00A
:104B6800414597D0FF1FE78080D41DE597070020B7
:104B7800938787889C5B2D4589C711458145829716
:104B88002D45B250225492540259F249624AD24AEF
:104B9800424BB24B456182809387819298431DEFC7
:104BA80023A4A192230005009C40054733178700E2
:104BB80023260500232465012311E500232245014E
:104BC800DE9723A0270123A2570123A4470101450B
:104BD800E38909FA238089006DB73E875C47F5FFB2
:104BE80048C7C9B70504E314F4F6214559BF094578
:104BF80082809707002083C7F783637FF5001387B8
:104C080041919317150008433E9583570500DD8DA4
:104C18002310B500014582800D458280970700204A
:104C280083C757816371F502138741919317150064
:104C3800084393C5F5FF3E9583570500FD8D231066
:104C4800B500014582800D458280130705FF137763
:104C5800F70FFD4763E5E70AB146B306D502938728
:104C68008191984389473697184359CB011122CC33
:104C78004EC60544935945003D893315A4001314C5
:104C88000501418026CA4E85AE84A2854AC806CE53
:104C9800313B2A89814721CDA2854E8541379387AB
:104CA80001929C43829797F7FF1F83D7677D3387CD
:104CB80097022A84814613060064B3B79702130546
:104CC8000732B335E500BE95EFE0A167B30785006D
:104CD80097F6FF1F9386467A3E87D44263E4A7007F
:104CE80063E4D7003387D7402324E9008147F240A3
:104CF8006244D2444249B2493E850561828089476F
:104D08003E858280011126CA06CE22CC4AC84EC6EC
:104D1800BD47894463EDA70231473307E50293870E
:104D280081919C438944BA979C4395C305443314A5
:104D3800A400420441802E890145A2858539AA89AB
:104D4800814411C5A2850145D13D23A42901F24022
:104D5800624426854249D244B2490561828097F768
:104D6800FF1F83C7376D6364F50001458280011119
:104D78009387019256C283AA070006CE22CC26CA80
:104D88004AC84EC652C4638E0A0A17FAFF1F130A8E
:104D9800AA6E83244A00B74736FE938707C8AE89B0
:104DA80097F5FF1F83D5C56DBE94B387C5022A84C6
:104DB80032898146B3B5C50213850732B337F5008A
:104DC80013060064BE95EFE0C15763ECA406829A0F
:104DD80097F5FF1F83D5C56AB3872503AA841306F1
:104DE80000648146B3B5250313850732B337F50050
:104DF800BE95EFE00155B3079500BE8403274A002E
:104E080063E4A70063E4E700B384E740CE85228526
:104E1800EFF0DFB901C504C505452DA0936504F081
:104E2800C205C181414597D0FF1FE78040A805E52D
:104E380097F7FF1F9387475C9C5B81C7A285114545
:104E480082970145F2406244D2444249B249224A1B
:104E5800924A05618280938781929C438DE323A4C3
:104E6800A19285472326050004C523113501230097
:104E78008500A300F5002322050079BFBA87D8472B
:104E880075FFC8C7F9BF49C9797122D426D24AD05B
:104E98004ECE52CC56CA5EC662C466C206D65AC840
:104EA8003689328AAE89AA844144314C938A8191E9
:104EB800854C930B0003330B840303A70A005A970E
:104EC8001C43B1E79375F400B395BC0013554440F7
:104ED800C2055286C1811375F50F51350DC983A7D7
:104EE8000A000145DA9784C323A237016304090045
:104EF80023008900B250225492540259F249624A5E
:104F0800D24A424BB24B224C924C456182800504F6
:104F1800E31374FB2145F9BF09458280411122C47E
:104F280026C24AC006C62A842E89B2840D3DCA8587
:104F38002285EFF0BFA705CD97F5FF1F83D5455410
:104F4800B38795022A84130600648146B3B5950297
:104F580013850732B337F500BE95EFE0813E48C0B0
:104F68000145B240224492440249410182802145D0
:104F7800CDBF411122C426C24AC006C62A892E8442
:104F8800EFF0DFA2AA8419C123110500A2854A8582
:104F9800713197F7FF1F83C7E7496397270183D7C5
:104FA800C1915D8C239E8190014591E01945B240E5
:104FB800224492440249410182809307F00263E649
:104FC800A7044111B14722C43304F50226C29384D1
:104FD80081919C4006C6A297984389470DC3937751
:104FE800F5008545B395F500C205C181118151379A
:104FF8009C40A29723A0070023A207008147B24044
:10500800224492443E854101828089473E858280C0
:10501800411106C622C4EFF07F9911E50145B2405F
:10502800224441018280938701929C4300458297E4
:1050380097F7FF1F938747446368A402D843B7468E
:1050480036FE938606C83305A4403697E378E5FC18
:1050580013070064B335E50203D68700814633059C
:10506800E502EFE0012E65BFD8433A94C1BF411174
:1050780022C426C217F4FF1F1304044097F4FF1F2D
:105088009384443B944858409387019206C69C43B6
:10509800639FE60682975440B74736FE938707C852
:1050A800B6973387A7003A856364F7006364D7002F
:1050B8003305D74097F4FF1F9384C4539C4C91CB7E
:1050C800938701A094433707CDFF7D179C46F98F3E
:1050D8009CC611E1484097F7FF1F9387E731DC53DF
:1050E800829719E59C4C99CFEF002131EFF0D01A47
:1050F8009C4C89CB938701A09843B70633001C4783
:10510800D58F1CC7B24022449244410182808297C5
:10511800984897F7FF1F83C7772F54401D8FB30711
:10512800A7003E8563E4E700E3E6D7F83385D74078
:1051380051B7411106C623A2A1920295B24097F732
:10514800FF1F23A5A730014541018280994763E9E4
:10515800B7008A0597F7FF1F93874730BE9588C128
:10516800828041117146814517F5FF1F1305052FF0
:1051780006C623A4019223A2019223A0019297C0FC
:10518800FF1FE780009F13068002814517F5FF1F68
:105198001305452A97C0FF1FE780A09DEF50B16215
:1051A80097F7FF1F83C7B72613D527008D8B3E952A
:1051B8008D473305F502854539051375F50F97F7C2
:1051C800FF1F238AA72699473305F50213050524EF
:1051D80097C0FF1FE780A06D23ACA19059C59947E0
:1051E80017F6FF1F034626253306F60281451306E8
:1051F800062497C0FF1FE780C097938781919C433F
:105208009387072423A6F19217F7FF1F0347A722C6
:105218000A07BA9723AAF190EFF0EFF805239387CE
:10522800C192944397F7FF1F83C7D720139727008E
:10523800369717F6FFFF1306A67910C313871700D2
:105248001377F70F0A0736971706000013066680CC
:1052580010C313873700890793F7F70F8A0797F565
:10526800FF1FA389E51CB69790C3B2404101828015
:1052780097F7FF1F83C7171C17F7FF1F0347A71BC5
:1052880063F1E7021387C19218439386170017F654
:10529800FF1FA301D61A93962700369708C33E85A9
:1052A80082809307F00FE5BF1C416388071641779A
:1052B8007D8FB706002089476312D716035745002C
:1052C800630E0714411122C419462A849305F00F6E
:1052D800690506C697C0FF1FE780C09305478D473D
:1052E8006308E5121C4481CB58589947630207129A
:1052F800185C630F07101306C003814517F5FF1FDD
:105308001305850F97C0FF1FE780A0861306C0030B
:10531800A28517F5FF1F1305250E97C0FF1FE7800D
:10532800C08117F7FF1F0357E70D97F7FF1F9387F4
:10533800A70C19E71307001097F6FF1F2394E60C34
:1053480017F7FF1F0347270C11E7054797F6FF1FBD
:10535800238BE60A17F7FF1F0357070B11E76D4763
:1053680097F6FF1F2392E60A17F7FF1F0347B709AF
:1053780011E7154797F6FF1FA387E60817F7FF1FE2
:105388000347A70811E7054797F6FF1F238FE6068F
:1053980017F7FF1F0347770719E703C7F70097F6C3
:1053A800FF1FA384E60617F7FF1F0347270611E729
:1053B800354797F6FF1F238BE60417F7FF1F0347B0
:1053C800370519E71307800297F6FF1FA382E60443
:1053D80017F7FF1F0347970319E71307D00297F63C
:1053E800FF1FA385E6020347840119E71307C003DB
:1053F80097F6FF1F238EE6009C5791C7829797F771
:10540800FF1F239DA702FD57A389F1A6993B81475A
:10541800B24022443E854101828089473E85828090
:1054280001114EC697F9FF1F9389090583A7090043
:1054380006CE22CC26CA4AC852C4829713090064F1
:10544800B335250303DA89008146528633052503DF
:10545800EFD0316F97F7FF1F9387C7FD804FAA845E
:1054680001456306940233858440636E940003A566
:10547800490052868146B335A9023305A902EFD007
:10548800516C018D269597F7FF1F23A197FCF240D9
:105498006244D2444249B249224A056182800111DC
:1054A80022CC0A852E84414697F501009385457FD5
:1054B80006CEEFE0E122180806043A94035504FFEB
:1054C80097F7FF1F83D7E7FBF2406244AA97374557
:1054D8000F00130505243355F5020561828097F7FF
:1054E800FF1F83D707FA51471D45637CF7027947A9
:1054F80019456378F7021307200315456373F7020C
:105508001307B0041145637EF700130740060D45E5
:105518006379F7001307600909456374F70013B549
:10552800B70F8280011122CC06CE2A842EC6EFF056
:10553800CFD9B245F240818D33A5A50222956244A8
:105548001375F50F05618280011122CC06CE2A84DD
:105558002EC6EFF08FD7B245F240818D33A5A50254
:10556800229562444205418105618280011122CC65
:1055780006CE2A842EC6EFF04FD5B245F240818D73
:1055880033B5A502229562440561828097F7FF1F13
:10559800938787E6985739CB411122C426C206C69D
:1055A800BE84029717F7FF1F035747E92A8415CBD4
:1055B800BA876373A700AA87C207C183BA866373D1
:1055C800E400A286C206C182958F5147635BF7004B
:1055D800DC5491C38297EFF0504E97F7FF1F239F3B
:1055E80087E4B2402244924441018280828097F746
:1055F800FF1F938767E0DC57011106CEAA8581C794
:105608002AC68297B245D1C19C410545A5CFDC4148
:10561800B5CB83D78500BDC783D7A500A5C783C7EA
:10562800C500ADE3414617F5FF1F1305E5E497B044
:10563800FF1FE780805097F7FF1F9387E7E39C439E
:1056480023A0F19297F7FF1F83C797DC8DE7930795
:10565800800217F5FF1F0355A5E23305F50237460B
:105668000F001306062481468145EFD0914D97F728
:10567800FF1FA38FA7D8170500001305A5DAEFF0C1
:105688005FAB0145F2400561828097F7FF1F83C732
:1056980007D81397870161876354070497F7FF1F9B
:1056A80023A807DA97C7FF1F9387E78917F7FF1F14
:1056B8002324F7DC7D5797F7FF1F23A1E7DCB78783
:1056C8003200938727A197F6FF1F23ABF6DA97F7E7
:1056D800FF1F238907DAB7C7004023A4E726A1BF25
:1056E80013F7170005CFB7872003938707D017F75D
:1056F800FF1F2327F7D8B707C0A817F7FF1F232FC7
:10570800F7D697C7FF1F9387278717F7FF1F23250C
:10571800F7D697F7FF1F238707D631BF617797F62C
:10572800FF1F239FE6D481CB9307003217F7FF1F93
:105738002319F7D4C9B793072003CDBF011122CC91
:1057480017F4FF1F130444CB084406CE26CA4AC8E0
:1057580001E90545F2406244D2444249056182802C
:105768005C58E5DB185C75D770008545829718444E
:10577800B247E300F7FE9305E00417F5FF1F035552
:1057880065C897C0FF1FE780801217F7FF1F232304
:10579800A7CC61D117F6FF1F0356C6C69305F00FB5
:1057A80097B0FF1FE780E03C814417F9FF1F1309FA
:1057B80069C897F7FF1F83C707C50326090263C196
:1057C800F402328597C0FF1FE780C01A014597F79A
:1057D800FF1F23A107C897F7FF1F23AF07C69DBF69
:1057E80097F5FF1F83D505C2B38795020844185C57
:1057F800898185043E9508C2029765BF011156C28A
:1058080097FAFF1F938A4ABF83A78A0022CC4AC807
:105818004EC606CE26CA52C45AC0AA892E843289D8
:105828006385072203A74A03630707147D47636656
:10583800A71497F4FF1F9384E4BF03AA0402631715
:105848000A0A9565938515E017F5FF1F035585BB73
:1058580097C0FF1FE780A00597F7FF1F23ACA7BEDF
:105868002A86630A051083A74A0303A58A0097F5C9
:10587800FF1F83D525B98981829783A78A0003AA48
:10588800040217F7FF1F2329F7BC8947639CF9080F
:10589800C1476312F40E97F5FF1F83D5A5B693850C
:1058A80005FC9147B3C5F5028A05D29503C70500E3
:1058B8009307A005631DF70A83C715006399370B83
:1058C8004A852286910597B0FF1FE78000279C50E4
:1058D8005285639347150145F2406244D2444249D8
:1058E800B249224A924A024B05618280D850E38E1F
:1058F800E7F89565938525E017F5FF1F035585B0F3
:1059080097C0FF1FE780A0FA2A8A35C52A8683A791
:105918004A0303A58A0097F5FF1F83D5A5AE8981A1
:105928008297A5B78D47639DF900C1476315F404B5
:1059380097F5FF1F83D505AD938545FDF199B5B75B
:105948009147639AF9006318340397F5FF1F83D5CD
:1059580065ABA115E5B7C147639FF900A14763ECA3
:10596800870097F5FF1F83D5E5A9C115C1BF9C50D6
:1059780052856397470D294585B71307F006568B5F
:105988006361A70A130A05FE1947334AEA0217F7A3
:10599800FF1F035727A797FAFF1F938AAAA9330A5D
:1059A800EA023E9A83A74A026395470183A40A0242
:1059B8009DE49305E00417F5FF1F0355A5A497C0C0
:1059C800FF1FE780C0EEAA845DD583274B0397F5B8
:1059D800FF1F83D525A32A86898152858297914501
:1059E8001307A005898193972500A69783C607000A
:1059F8006393E60483C61700639C360385058A050E
:105A08002286A6954A8597B0FF1FE780001383A7D3
:105A18000A02E38297EC268597C0FF1FE78080F58E
:105A28005DBD1307E007E368A7F4130A05F985B716
:105A380083D5270045BF83A70A02E38E97F2268500
:105A480097C0FF1FE78000F33DB797F7FF1F9387C5
:105A5800679E8C538DD191479306A0058983139730
:105A680027002E9703460700E317D6F003461700D2
:105A7800631C360185078A072286BE954A8597B03A
:105A8800FF1FE780800B81BD83572700C1BF97F7B1
:105A9800FF1F93876796984739C79C5FA9C7054733
:105AA8006313E504411122C417F4FF1F13048498FB
:105AB800105006C60DC6485097F5FF1F83D585942C
:105AC80089818297085097C0FF1FE780A0EA97F75F
