:040000006F10D07F2E
:100004000000000000000000900000208A0400208E
:10001400A9BDF9F5900000200000000000000000D8
:10002400900000209000002000000000000000006C
:10003400900000200000000090000020000000005C
:1000440090000020900000209000002090000020EC
:1000540090000020900000209000002090000020DC
:1000640090000020900000209000002090000020CC
:100074007E050020900000209000002090000020C9
:1000840090000020900000209000002090000020AC
:1000940001A073270080218B9387018509CB7327E7
:1000A400008023A8E18498435D9B731007800100BE
:1000B400010037170040930670052300D704930608
:1000C40080FA2300D704010001008346B70493F6A5
:1000D400F60DA305D7042300070473260080944378
:1000E400A18AD18E7390068023A8018401000100A7
:1000F40093760502638406180347A700118B25E74E
:1001040073270080218B09CB7327008023A8E18407
:1001140098435D9B7310078001000100371700406E
:10012400930670052300D704930680FA2300D704AE
:10013400010001008346A70093E646002305D7008B
:1001440023000704F32600809843218B558F7310F6
:10015400078023A80184010001001307004B01005C
:1001640001007D176DFF73270080218B09CB732756
:10017400008023A8E18498435D9B731007800100ED
:10018400010037170040930670052300D704930637
:1001940080FA2300D704010001007D892314A700FD
:1001A400010001000100010023000704F326008080
:1001B4009843218B558F7310078023A80184010075
:1001C400010073270080218B09CB7327008023A8AB
:1001D400E18498435D9B7310078001000100371789
:1001E4000040930670052300D704930680FA230089
:1001F400D7040100010001000100B72600401306E6
:100204001005A383C68023000704F32600809843C7
:10021400218B558F7310078023A8018401000100EE
:1002240073270080218B09CB7327008023A8E184E6
:1002340098435D9B7310078001000100371700404D
:10024400930670052300D704930680FA2300D7048D
:10025400010001008346B70493E60608A305D7040A
:1002640023000704732700809C43A18BD98F7390CC
:10027400078023A80184010001008280937605048D
:10028400638B06140347A700418B25E7732700807F
:10029400218B09CB7327008023A8E18498435D9BBD
:1002A40073100780010001003717004093067005A2
:1002B4002300D704930680FA2300D7040100010029
:1002C4008346A70093E606012305D700230007040D
:1002D400F32600809843218B558F7310078023A841
:1002E4000184010001001307007D010001007D1756
:1002F4006DFF73270080218B09CB7327008023A80F
:10030400E18498435D9B7310078001000100371757
:100314000040930670052300D704930680FA230057
:10032400D704010001009376F50193E60604231433
:10033400D700010001000100010023000704F32697
:1003440000809843218B558F7310078023A8018464
:1003540001000100130760046310E50473270080A3
:10036400218B09CB7327008023A8E18498435D9BEC
:1003740073100780010001003717004093067005D1
:100384002300D704930680FA2300D7040100010058
:10039400B72600400946B5B573270080218B09CBE9
:1003A4007327008023A8E18498435D9B7310078022
:1003B4000100010037170040930670052300D7049D
:1003C400930680FA2300D70401000100B7260040F9
:1003D400130620053DB573270080218B09CB7327B5
:1003E400008023A8E18498435D9B7310078001007B
:1003F400010037170040930670052300D7049306C5
:1004040080FA2300D704010001008356870093E695
:10041400060C2314D700C5BB411181460146814512
:10042400114506C6152CF3270080A18B9386018500
:1004340089CBF327008023A8F1849C42DD9B739031
:10044400078001000100B7170040130770052380DF
:10045400E704130780FA2380E7040100010003C7BF
:100464006704136717002383E704238007047327B3
:1004740000809C42A18BD98F7390078023A80184AC
:1004840001000100B240410182808146014681455C
:100494001145D922F3270080A18B1387018589CBCD
:1004A400F327008023A8F1841C43DD9B739007800D
:1004B40001000100B7170040930670052380D7049C
:1004C400930680FA2380D70401000100FD56239689
:1004D400D70223800704F32600801C43A18BD58F09
:1004E4007390078023A8018401000100F327008092
:1004F400A18B89CBF327008023A8F1841C43DD9BC7
:100504007390078001000100B7170040930670053F
:100514002380D704930680FA2380D70401000100C6
:1005240083C6670493E616002383D7042380070455
:10053400F32600801C43A18BD58F7390078023A8DA
:1005440001840100010001A0BD473305F50201004B
:100554007D1575FD8280411122C426C206C6AA8477
:10056400014463179400B2402244924441018280C2
:1005740005041305803E4204C13F4180DDB7B7172F
:100584000040130700032388E702854723AEF18662
:1005940073002030411106C6A92DFDBF230304803A
:1005A40015472303E48001002302A480828083078B
:1005B4006480E3CE07FE2303048082808307648083
:1005C400E3CE07FE03454480828083076480E3CE44
:1005D40007FE2302A4808280411126C44AC24EC071
:1005E40006C61377F50BAD47AA892E899544630691
:1005F400F70019456537653F8D444E854537FD59EC
:10060400FD1463983401B240A24412498249410165
:100614008280135509011375F50F453F2209CDB7A3
:10062400011126CC06CEB704080051371545BD3755
:10063400713769372AC6A53F32459377150089EB90
:10064400136515001375F50FF240E24405618280CD
:10065400FD14E9FC0145CDBF397126DC4ADA4ED8D8
:1006640052D656D45AD25ED006DE62CE66CCB7E7F6
:1006740000E07D5783AA070022C603AA470023A0EF
:10068400E71823A2E718B717004013077005238063
:10069400E704130780FA2380E70483C74704930B16
:1006A40075FFB684E20793FBFB0F8546AA892E8B60
:1006B400328937240040E187015763FA76016308E1
:1006C400D5008946130700026313D5000157D98F5B
:1006D40093F7F70FB71C00402382FC041147230350
:1006E400E4801305F00F5D3D094CD135636D7C1139
:1006F400B7050700DA9537870700795563F2E504F3
:10070400B3879500636EF702370B0800A94733EBF4
:1007140065016399F90689E48144513D26850DA05C
:10072400DA850945553D05090345F9FFFD14050B17
:10073400693D81C49377FB0FFDF7DD3569FD7D5578
:10074400B7170040130770052380E704130780FAE6
:100754002380E70403C74704418B2382E704F25054
:10076400B7E700E023A0571123A24711E254324413
:100774005259C259325AA25A125B825B724CE24CF1
:1007840021618280A5476395F90685691309F00FF5
:10079400B3069900B3742B01B6941349F9FFB374EB
:1007A4009900856B33796901416B9387F9FFB3F73E
:1007B400270199E363FC340193D94900C147E3E677
:1007C40037FF99BF0569C1697D19D9B71305800D34
:1007D4006388690113050002638479011305100815
:1007E400CA85DD3B353D21DD4E99B3843441D9B70B
:1007F400DA852D45D533CA94E30099F205097D3B8A
:10080400A30FA9FED5BF9387F9FF93F7F70F636191
:10081400FC0C83C71C0413073008631FF704370755
:100824000800636BEB04B3079B00B706100063F585
:10083400D704334BEB0089476393F9068980D54984
:10084400E38C04ECDA850945413B11090327C9FF10
:1008540091472320E48003076480E34E07FE2303CB
:100864003481FD17EDFBFD14110B81C49377FB0F4D
:10087400E9FF7D3371F5E1B5B717004003C75704AD
:10088400B70708001377070219E3B78707007955FC
:10089400E378FBEA33079B00E3FFE7F855B58547A8
:1008A400E382F9F2DA852D45053B9389F4FFE3856C
:1008B40004E6293393F7390091EB83260480032758
:1008C400090093074900E39AE6E43E89CE84F1BF28
:1008D400B5476396F9001305900BC93135BDB1478F
:1008E4001305B00AE38BF9FE99476391F904B70540
:1008F4000800B365BB002D45C53181448D4BA1492A
:10090400753963967401832704802320F9008504D4
:10091400E39834FF8327048013172B0163550700E2
:100924002312F900D5BB2322F900FDB39D47639937
:10093400F90281451305B0044531BD442320090063
:1009440023220900FD599D3993F77400CA9703C700
:100954000700FD14398D2380A700E39634FF6DBB97
:10096400A1476392F9046D398144630D0B008D47EF
:100974009304C0036308FB009304000563048B0124
:10098400930440041375C507E30895D81945393114
:1009940039390545213126850D3909453D3149311E
:1009A400E31C05D669BB91476399F90013056006FA
:1009B400F536F53E130590090DB7E38F09D4F154CC
:1009C400A9BB19CD91CD09CE81473387F500834664
:1009D40007003307F50085072300D700E317F6FE69
:1009E400828019C991C909CA910583A7C5FF110558
:1009F4007D16232EF5FEC5BF828001C919C62A962D
:100A04000505A30FB5FEE31DA6FE828081473307CB
:100A1400F5000307070019E33E8582808507C5BFFB
:100A240001112E8626CAAA84131506019305F00423
:100A3400418122CC06CE32C6EF00F04F2A8401C594
:100A44003246A685BD3F2285F2406244D244056108
:100A54008280854715C18DC105C28147B306F50063
:100A64003387F50083C60600034707006398E60052
:100A74008507E315F6FE85473E8582808147EDBFF5
:100A84009307F6FFBE952A966313C5008280FD1571
:100A940083C715000505A30FF5FEFDB7AA87014519
:100AA40081CF09CE3E96850703C7F7FF6317B700CA
:100AB400E39BC7FE0545828082800145828079716F
:100AC4009387C18B22D4804306D626D24AD04ECEF9
:100AD40052CC56CA5AC85EC65DCCB7C4C901014BD4
:100AE4009389418B9384F437173A0000130ACA3070
:100AF400973A0000938A0A34173900001309C9375A
:100B04008357240085E35C44631B0B0023AEF18A06
:100B1400832BC4002285EF00704E5E84B9A823267F
:100B2400FB00FDB783A7090082971C443307F540F7
:100B34006376F500032749001D8F2A9763E0E408D4
:100B44009737000023A00730835524000345040091
:100B5400973000E0E78000685C405844A1CB0C4427
:100B640003264900AE97BE8663E4B70063E4C7007A
:100B7400B386C74014C4228B3A8459F097370000D7
:100B84009387472B9C4B09476370F706F917173770
:100B940000002329F72AB250225492540259F249F0
:100BA400624AD24A424BB24B4561828063150B00C4
:100BB40023AEE18AB1BF2326EB0099BF03274A0283
:100BC40009CF63EFA7003385A74083A70A016376A3
:100BD400F5009737000023A7A726228B404471BF56
:100BE40003274900BA97C5B79737000023AC0724F9
:100BF4005DB7411122C417340000130424261C409D
:100C040006C626C24AC091C782979737000023A719
:100C140007249737000083C7373E858B973400003D
:100C24009384443D95C397370000A387073C83C74B
:100C340074001547637AF700052B83C77400F51712
:100C44008A07A2979C4382971C4491C38297138975
:100C5400818A03270900173600000346B61D97371B
:100C6400000083C7271D93961700BA9683D6060003
:100C7400C5CE9737000083C7E71B63E1C70C9737DE
:100C840000002389071A1C40639507129737000058
:100C940083C7D73691CF83C7740093F7F70F89EBD7
:100CA40097370000A38C0734973001E0E780207E5B
:100CB4009387418B9C43638E070E9737000093877D
:100CC400A71BDC4317370000232EF716CD3B9737BD
:100CD400000093876712DC53E9CF1737000013072E
:100CE4006715184B9737000083C757126363F70CD7
:100CF40083C774001547636EF70A9737000083C7EC
:100D0400E733918BDDE7032609009736000083C69D
:100D1400761263C6D70A2244B24092440249410182
:100D2400174300E067008392850793F7F70F973620
:100D340000002381F610E3E4C7F225BF86073E973F
:100D440083550700231007002398018A9387018C99
:100D54009C43173500000345E50D13172500BA978A
:100D64009C43829783D7018B173700000347870C76
:100D740093C7F7FF7D8D93171700032709003E974C
:100D8400835707005D8D2310A7009737000083C7A2
:100D9400670A91C7850717370000230DF70817372F
:100DA4000000034727099737000083C7B708E37893
:100DB400F7ECB240224492440249410182801397E5
:100DC40017003297035707006DF7850799B7AD678A
:100DD40037C70040BD072326F7200F1000009737C0
:100DE400000093872705C84F83278726BD66BD0665
:100DF40093C7F7FF99836A052326D7205D8D8280E8
:100E04004111B7170040985F3AC6945F3247E39C9C
:100E1400E6FE3245410182801305F00F8280011104
:100E2400973700009387072922CC03A4070C26CA0E
:100E340006CE2AC42EC6854419E40145F240624414
:100E4400D244056182808347910003471400858B57
:100E54006304F7000044CDB719469305A1001305B8
:100E64002400C53EE31895FE0545C9BF1387C19705
:100E74001C439306001094C301000100010001000B
:100E84001C4323A007008346150003482500A2063F
:100E94004208C29603480500C2960348350062081A
:100EA400C29694D78346550003486500A2064208BB
:100EB400C29603484500C296034875006208C2966C
:100EC400D4D7834695000348A500A2064208C296DB
:100ED40003488500C2960348B5006208C29694DBB5
:100EE4008346D5000348E500A2064208C29603489B
:100EF400C5000345F500C2966205AA96D4DB83C6F5
:100F0400150003C52500A2064205AA9603C50500DF
:100F1400AA9603C535006205AA9694CF83C65500E8
:100F240003C56500A2064205AA9603C54500AA9614
:100F340003C575006205AA96D4CF83C6950003C580
:100F4400A500A2064205AA9603C58500AA9603C574
:100F5400B5006205AA9694D383C6D50003C5E500FF
:100F6400A2064205AA9603C5C50083C5F500AA9644
:100F7400E205AE96D4D3D443F59AD4C3D44393E6CE
:100F84001600D4C3944393E6160094C3BA879443DB
:100F9400D842058B59E3984E01452300E600984357
:100FA400184F2183A300E6009843184F418323017F
:100FB400E6009843184F6183A301E6009C43D84F91
:100FC4002302E600D84F2183A302E600D84F4183D1
:100FD4002303E600D84F6183A303E6009853230458
:100FE400E60098532183A304E60098534183230524
:100FF400E60098536183A305E600D8532306E60070
:10100400D8532183A306E600D85341832307E6007F
:10101400DC53E183A307F600828001008DBF1387B0
:1010240001981443411122C49C5E4AC006C69983A8
:1010340026C2858B3A841389C197D1C79C5E9734A5
:101044000000938424FB93F7F7F99CDE1737000024
:101054000347A7FA93070008631BF70083270900D7
:101064009C4393F70704173700002308F7F883C756
:10107400040093F707048DC39387418B9C438297A5
:101084009737000023A0A7F883C7040093F7F70B52
:10109400173700002300F7F683C7440093F70704CB
:1010A4009DE3854717370000A308F7F49387C19899
:1010B4009C43096798C7130700FC97360000238DEB
:1010C400E6F2D844F8D31C40985F1183058B09CB12
:1010D400985F3D9B98DF054797360000238EE6F026
:1010E400985F1D83058B11CB985F1377F7F798DF13
:1010F4008547173700002301F7F083270900D843F9
:101104000583058B19C7D843759BD8C3D843799BEE
:10111400D8C3B240224492440249410182803971C9
:1011240006DE16DC1ADA1ED82AD62ED432D236D0EF
:101134003ACE3ECC42CA46C872C676C47AC27EC093
:10114400F93DF250E2525253C2533255A25512564F
:1011540082567247E2475248C248324EA24E124F5C
:10116400824F2161730020309387C198944397374D
:101174000000938727E803C70700058B11CB973737
:101184000000238B07E697370000A38707E68280D9
:1011940003C71700058B65F7F85271FF83C7570023
:1011A400DDB713880198032708001C5F9583858B9E
:1011B400D1E709C61C5BBD832300F60085CA8327DB
:1011C4000800985B4607935767016356070093E747
:1011D40007C0C207C18303970600C207C18709C7B6
:1011E400BA970947B3C7E7022390F60085CD834732
:1011F40015008DCB9736000083C626E093F60604CF
:101204001387970089478DCA3A9503470500854699
:1012140099471376F7066311D60262076187B947C7
:10122400634C0700832708009C5FED838D8B173781
:101234000000A306F7DC81473E8582808547EDBF29
:10124400411122C406C61384C19818402DE9AE8703
:101254007453FDFE3E85B28597370000238D07D871
:10126400973001E0E780E0F7938701989C43B70645
:1012740080009843558F98C3D857719BD8D7973718
:101284000000A38B07D697370000A38507D61C4020
:10129400094798C31440173700001307A7D583479D
:1012A4002700858B89EB83473700858BD9C3973714
:1012B4000000238307D4B2402244410182808D4739
:1012C400631EF500938701989C43B70680009843FA
:1012D400558F98C3D857719BD8D76DBF8547E31BEB
:1012E400F5FA5447F977FD17F58F5CC70F10000026
:1012F4001C40096798C7130700F817360000230D30
:10130400E6CE138701981043184231830D8B11E701
:1013140013076019F8D3D4C7B5BF184209463183FF
:101324000D8B6315C7001307E043EDB71307E01BEC
:10133400D5B7FC52ADF741B75D71A2C4A6C22A84E9
:10134400130680022800AE849305100886C6CAC01E
:101354004EDE52DCEFF06FEA3545973001E0E7806E
:10136400A02413830198832703009376F41F138E1C
:10137400419923A40700984B938EC198370FFCFF23
:101384001367F70398CBF84F130510F8B70204005E
:10139400137707E0558FF8CF9843F576FD16758FD0
:1013A40098C39843B7063300930380251377F7E770
:1013B40098C3984311497D1F1377F7E71367071004
:1013C40098C303270E008549930F80021C47D58FCD
:1013D4001CC783A70E001307900D3400B8CB014738
:1013E40093553700A69583C7050013767700B3D7C6
:1013F400C740858BE1C38327030083280E00239C09
:1014040007042390070603A8C8021378D8FF23A66D
:10141400080383A807001378F70793F808F833E85C
:10142400080123A0070103A847023368580023A238
:10143400070383A80E00014823A2780603DA0706EF
:101444006307480303A80703038A06001358F80038
:1014540062081358884163580A0103A80703135804
:10146400F8002380060103D807061378F80F03AAAF
:10147400480663060A0003DA8705E37F49FB03A8ED
:1014840047023378E80123A2070383870600635CDD
:10149400F40003C805003396C9001346F6FF3376FB
:1014A40006012380C5003E8663D3A7002A86131550
:1014B4008601618505071377F70F8506E312F7F3B5
:1014C400B640264496440649F259625A61618280C4
:1014D4009386C1989C42D847131617016355060298
:1014E400984713161701635006027D57B8D717376C
:1014F400000013072794584F0507173600002329C7
:10150400E694116798C798470D83058B1DC3173759
:101514000000034747AE1367170017360000230C7B
:10152400E6AC130700F8173600002307E6AC2147A2
:1015340098C79847058B09CF17370000034797AB27
:101544001367170017360000A306E6AA054798C7D5
:1015540098470983058B09E798470583058B21CFB5
:101564009847173600001306E6A8138501980983E7
:10157400058B630307101841184331830D8B75EBFA
:10158400AC4B184E93F5050203471700CDCD79EF08
:1015940013077006D8CF03470600136717001736E2
:1015A40000002309E6A4114798C718415C57F19B32
:1015B40093E717005CD79C4298479316370163D68C
:1015C40006029736000083C666B6C18A1737000044
:1015D400130747AEC5CE034787071367070297363D
:1015E40000002385E6B4056798C79847931627013A
:1015F40063D1060217370000034707A0620761871B
:10160400635707000547973600002387E69E09675E
:1016140098C798479316070163D6060297360000C9
:1016240083C6D6B0858A173700001307A7A8ADCEA6
:10163400034797071367270097360000A388E6AE91
:10164400216798C7828029D785456315B70013079A
:10165400B00689B789456315B7001307F0061DBFA7
:101664008D456315B700130730072DB713075007CF
:1016740015B71307600739BF034736001367170010
:1016840017360000A309E696094739BF8346870742
:101694000946BD8A6388C600034787078D463D8B8C
:1016A400E313D7F4114725BF83469707918AC9DA14
:1016B400034797071367870041B7397106DE16DCC5
:1016C4001ADA1ED82AD62ED432D236D03ACE3ECC0E
:1016D40042CA46C872C676C47AC27EC0D53BF250AE
:1016E400E2525253C2533255A25512568256724791
:1016F400E2475248C248324EA24E124F824F2161F5
:10170400730020309387C198984385679387077740
:101714007CD3938741999C4383A60709139656006B
:101724006358060083A607091396660063440600FF
:101734007453FDF2828061C1AA870145DDCD8D0716
:10174400C207C183F19BC207C18313074003636BC4
:10175400F7021387C1A10843138741A11443639679
:10176400A6021727000013072769185B014551C714
:101774004111C20706C60545DD8D0297B2400145F9
:1017840041018280138781A1F9B70357650035E3CE
:1017940003574500636FF704B306F7402146637CA3
:1017A400D60203280500938687001D8FAA96611729
:1017B40017260000035666682392E60023A006015C
:1017C4002393060014C12312F500130786FF9726FE
:1017D40000002394E6662313B5009725000083D503
:1017E400C565B387F540172700002318F764210562
:1017F40082800841ADB701458280828009CD9387FC
:10180400C1A103A30700938741A183A807008146D0
:101814009A8763E31701828003A807006369F50AC6
:101824006367A80A13878700E367E5FE03D66700AA
:10183400216705076317E60003C741950507238A57
:10184400E194972500009385E55E03D6470003D70E
:101854006500239307003297420741831725000050
:10186400231DE55C63886702138581A10841630336
:10187400F50203D5660019ED83D7460023A00601BF
:1018840021073E9621062392C6009727000023963F
:10189400E75AB6879843E30017F9938681A19442E7
:1018A400E30BD7F683566700BDF683D6470003568D
:1018B40047001843A106B2962392D70098C383D752
:1018C4006500A107172700002319F7568280BE86FA
:1018D400C28781B70327851163020712411122C40D
:1018E40006C68347C5008345E5042A8493F7C70FDA
:1018F4002306F500834697000356C7001395860117
:10190400618563F2C508635B05060345870093F6AA
:10191400F607A304D700054693E627006314C50021
:1019240093E617002306D4005C4389075CC3A30A2B
:10193400B400032504112E864C430905EFF06F888B
:101944008327841103465401D44303D7C700B296B6
:10195400118FD4C32396E7008947A30DF4000347EE
:1019640064039727000083C7474A6378F7048347D3
:10197400C40093E707012306F40081A093E717004E
:101984002306F4006DB79376F60F635D05020345F5
:101994008700854513E627006314B50013E6170096
:1019A4002306C400A30AD400A30407008547A30D9B
:1019B400F400832784119C43DDF3B24022440145A3
:1019C4004101828093E717002306F400A30AD400A0
:1019D400A3040700032504114C430905EFE07FFE2F
:1019E4008327841103465401D44303D7C700B29616
:1019F400118FD4C32396E7008D4755BF05458280D8
:101A04009387C1A29C43411122C406C6858B2A84B4
:101A1400C5EF4165130525F597E001E0E78080D621
:101A240045C58347A5002315F50083270412BDE7A8
:101A34002320A4122322A41285472311F404232073
:101A440005008347640154412316F5000347D4007D
:101A54002304E5000547A304E50017270000130746
:101A64006759184F1385170215811C437D1513758B
:101A7400F50F9CC25C43DCC21C479CC65C47DCC6B9
:101A84001C4B9CCA5C4BDCCA1C4F9CCE5C4FDCCE0E
:101A940019CD9386060213070702C1BF8327441298
:101AA40088C3835724042322A412850779B7972770
:101AB400000083D7A7608507172700002310F7606D
:101AC400B2402244410182808347C40023090400B8
:101AD400054593C747002306F400DDB78347850116
:101AE40093F7E70FC5EF83479501CDEB0346250137
:101AF4008346C50009CA83456503172700000347C9
:101B0400D73063E7E50013F7060151CB014709C657
:101B1400C18A0357651C81C68356A51C369741C3E9
:101B24001307C7121725000003558535B335A702DF
:101B340037460F00411113060624814622C426C2EB
:101B440006C67D543305A702971002E0E78060CBF8
:101B54009727000083C7D72BB384A70097270000DB
:101B64009387475503A787098327070963F38700EA
:101B74003E84184375FB9387418B9C43829781472E
:101B84006364A400B307A440B2402244B3B79700EF
:101B940093C7170092443E854101828081473E8568
:101BA40082809387C19898437C53FDFF828079712A
:101BB40026D206D622D44AD04ECE52CC56CA5AC8C1
:101BC4005EC68347550303447513AA843E94137475
:101BD400F40F9307400263F687001304B4FD1374F3
:101BE400F40F03AA841383AAC413A38B841222863A
:101BF4005285D685971002E0E78020BB058915E55C
:101C040003CBD41201498149337B6403930B500203
:101C14004A865285D685971002E0E78000B9058987
:101C240015C5639169031374F90F238B8412B250A1
:101C3400225492540259F249624AD24A424BB24B5C
:101C4400456182808509E20993D989410509E31137
:101C540079FDE1BF8327850903560504797193D67D
:101C64000701BD8EC206C182358E13577640935745
:101C74005640898B058B5D8F93573640918B5D8FD2
:101C840093571640A18B5D8F93171600C18B5D8F00
:101C94009317360093F707025D8F931756009355F9
:101CA400860093F707041E065D8F1376F60F518F97
:101CB40093D7554013D63540118A898BD18F13D6CB
:101CC4007540D18F13D61540218AD18F13961500F4
:101CD400418AD18F1396350013760602D18F13965D
:101CE4005500137606049E05D18F93F5F50FCD8F1D
:101CF400A20745465D8F3307C70222D42A8426D221
:101D040052CC56CA032A8413832AC4135AC806D64B
:101D140036974207418393577740135557400989B3
:101D2400858BC98F135537401189C98F13551740B7
:101D34002189C98F131517004189C98F13153700DD
:101D440013750502C98F1315570093558700137532
:101D540005041E07C98F1377F70FD98F13D53540A4
:101D640013D755401189098B498F13D57540498F75
:101D740013D515402189498F139515004189498F41
:101D84001395350013750502498F13955500137586
:101D940005049E05498F93F5F50F4D8F2207D98FC2
:101DA400B387C7024AD04ECE5EC662C4B697C20796
:101DB400C18313D7774013D557400989058B498FC1
:101DC40013D537401189498F13D517402189498F7D
:101DD400139517004189498F139537001375050230
:101DE400498F1395570093D58700137505049E07F3
:101DF400498F93F7F70FD98F13D5354013D7554033
:101E04001189098B498F13D57540498F13D5154016
:101E14002189498F139515004189498F1395350000
:101E240013750502498F13955500137505049E0516
:101E3400498F93F5F50F4D8F2207D98FB387C702CA
:101E4400130650025285D685B697BD8E939406012B
:101E5400C18033F6C402137BF60F971002E0E780CB
:101E6400C09405890DED8347D41201498149B38497
:101E74009702130C5002C1804A865285D68597106A
:101E840002E0E78080920589937BF90F11C5638690
:101E94003403850993F9F90F0509E31F89FD230B21
:101EA4006413B250225492540259F249624AD24AFB
:101EB400424BB24B224C456182805E8BCDB7797127
:101EC40022D406D683C735002E8423160100A30727
:101ED400F10083C74500100802C02307F10083C73F
:101EE40055008A8502C2A306F10002C402C802CAD0
:101EF40002CC02CEEFE09FF70347F10183470400D1
:101F040001456310F7020347E101834714000145CB
:101F14006319F7000345D101834724001D8D133550
:101F24001500B250225445618280011197270000A8
:101F34009387471822CC03A4870C26CA4AC84EC6E6
:101F440006CEAA8413092500854915C083C7140049
:101F540003473400858B6304F700405CFDB71946E2
:101F6400930544004A85EFE0DFAEE31835FF228590
:101F7400F2406244D2444249B2490561828041112F
:101F8400972700009387071322C403A4870C26C253
:101F94004AC006C693042500054901E82285B240DB
:101FA40022449244024941018280A6851305A40279
:101FB4003937E30525FF405CCDB741119727000071
:101FC4009387470F22C403A4870C26C24AC006C6BF
:101FD40093042500054901E82285B2402244924435
:101FE400024941018280A6851305A401C93DE30588
:081FF40025FF405CCDB70000A1
:101FFC0097110020938141B7176100201301C1FF95
:10200C001305400097E5FF1F938505FF1706002079
:10201C00130606FE63FAC5008322050023A05500B3
:10202C0011059105E3EAC5FE172502001305457B52
:10203C00970500209385C5FB1386018563FAC500BF
:10204C008322050023A0550011059105E3EAC5FE86
:10205C0013850185972500209385C5176377B500F7
:10206C00232005001105E36DB5FEFD42739002BC03
:10207C008D4273904280930280087390023097E2F5
:10208C00FF1F938262F793E23200739052309722D3
:10209C0000009382E2D073901234730020303D43E1
:1020AC002A876373C3029377F700BDEFADE5937690
:1020BC0006FF3D8ABA960CC34CC30CC74CC74107EC
:1020CC00E36BD7FE11E28280B306C3408A06970207
:1020DC00000096966780A6002307B700A306B700FA
:1020EC002306B700A305B7002305B700A304B70068
:1020FC002304B700A303B7002303B700A302B70060
:10210C002302B700A301B7002301B700A300B70057
:10211C002300B700828093F5F50F93968500D58D3B
:10212C0093960501D58D61B7939627009702000011
:10213C0096968682E78086FA9680C1171D8F3E960A
:10214C00E374C3F8A5B7B717004003C77705137737
:10215C00E70FA38BE704130700F8A38DE7043D47B3
:10216C00238CE70413075003A38CE7048280B71772
:10217C00004083C7E7020D8993F7C70FC98F7327F8
:10218C000080218B9386018509CB7327008023A8BF
:10219C00E18498425D9B73100780010001003717A2
:1021AC000040130670052300C704130680FA2300B1
:1021BC00C704010001002307F7022300070473275B
:1021CC0000809C42A18BD98F7390078023A8018437
:1021DC0001000100828041112A83014E930E407E42
:1021EC00130F0019930F400663E66E149308001941
:1021FC0013034006B3781503854E0D4FA14F33736F
:10220C0065020D891335150063E0BE161308F6FF41
:10221C00794672984208135808013307C70213D63F
:10222C001700BE0732976146B3F6C60213068070DC
:10223C00B386C6023697A166F58F42075D8FB71637
:10224C00004083C7F60293F70708A307F100034683
:10225C00F10083C7F60293F70708E394C7FE8347A0
:10226C00F100B716004093F7F70F63890714F327B3
:10227C000080A18B938601856398071401000100EF
:10228C00B7170040130670052380C704130680FAA5
:10229C002380C7040100010023AA070303C6170308
:1022AC0013660608A388C7022380070473260080E0
:1022BC009C42A18BD18F7390078023A801840100CD
:1022CC0001001166B71500407D16DC59C85DA98F59
:1022DC00F18FE5FFF3270080A18B89CBF3270080DA
:1022EC0023A8F1849C42DD9B7390078001000100C0
:1022FC00B7170040130670052380C704130680FA35
:10230C002380C70401000100D8DB03C71703136740
:10231C000704A388E70223800704732700809C42EC
:10232C00A18BD98F7390078023A801840100010031
:10233C00410182807D133368E3039308E016630E3A
:10234C0008003368F3039308D016630808009378E9
:10235C00330093B818009388D81633081E01131E47
:10236C000801135E0E0149B56393E50305486386C6
:10237C0008000148630303002A8871087298FD1550
:10238C00131E0801C205135E0E01C181B5BD13F801
:10239C00150063F4BF007908D5B713381800E5BFF2
:1023AC0083C7F60293F70708A307F1000346F10071
:1023BC0083C7F60293F70708E394C7FE8347F1003F
:1023CC0093F7F70FF1DF65B5F327008023A8F184AD
:1023DC009C42DD9B7390078055B54111B7170040A7
:1023EC00985F3AC6945F3247E39CE6FE3245410162
:1023FC0082805971E2C486D6A2D4A6D2CAD0CECEDF
:10240C00D2CCD6CADAC8DEC6E6C2EAC06EDE2A8CE8
:10241C0002D6EF00B020F3270080A18B138D01852D
:10242C0091CBF327008023A8F18483270D00DD9B3B
:10243C007390078001000100B71700401307700567
:10244C002380E704130780FA2380E70401000100CE
:10245C0003C7F7021377770FA387E70203C7F702C7
:10246C0013678700A387E702238007047327008084
:10247C0083270D00A18BD98F7390078023A801842B
:10248C0001000100F3270080A18B91CBF327008082
:10249C0023A8F18483270D00DD9B73900780010036
:1024AC000100B7170040130770052380E7041307DA
:1024BC0080FA2380E7040100010003C7E7021377C9
:1024CC00C70F2387E70203C7E702136717002387A9
:1024DC00E702238007047327008083270D00A18B5C
:1024EC00D98F7390078023A8018401000100130782
:1024FC0080C13347E5029169938709E813065002BE
:10250C003D69B7440F0093840424856B130BA0041E
:10251C00014A814A13047005FD19B347F5023307CC
:10252C00C7023EC2930709A61309803E3347F70240
:10253C003AC43347250305493319890113593940E6
:10254C003345950293840BFAB3948401811B3306B3
:10255C00C702B346F6023309E90236C6330B6703EA
:10256C0013076055B3049502130500103309E902F3
:10257C00B346FB02130B80FAB3C4A40236C8B347AC
:10258C00F902939634003719004036CC93040904B1
:10259C003ECA73260080218A11CA7326008023A8A4
:1025AC00C18403260D005D9A7310068001000100A2
:1025BC00930770052380F40023806401010001005F
:1025CC00034639051376860FA309C904034639055A
:1025DC0013661600A309C904238004007325008028
:1025EC0003260D00218A498E7310068023A80184CE
:1025FC0001000100916CE17D73260080218A11CAD3
:10260C007326008023A8C18403260D005D9A7310E5
:10261C00068001000100930770052380F4002380DD
:10262C006401010001000346390513660602A30983
:10263C00C90403560905336696012318C9040356C9
:10264C0009053366B601420641822318C90423806A
:10265C0004007325008003260D00218A498E731017
:10266C00068023A801840100010003463905137676
:10267C0006026300061603463905218A6DDE6810D2
:10268C00EF00E07D73260080218A11CA732600803A
:10269C0023A8C18403260D005D9A731006800100E7
:1026AC0001002380840023806401010001000346A3
:1026BC0039051376F60DA309C904034639051366CB
:1026CC000602A309C90403560905336696012318AB
:1026DC00C904035609053366B60142064182231824
:1026EC00C904238004007325008003260D00218A71
:1026FC00498E7310068023A8018401000100034653
:10270C003905137606026302061003463905218A41
:10271C006DFEE1312A8632CEC9317246E30DC5FE1B
:10272C00035609053255336696012318C904B1279F
:10273C0003463905218A6DDE035509050346290533
:10274C00924733F5A9003386C90232951D8DA247F5
:10275C0063D5A700B2476346F50E09466365560F6D
:10276C00C247850A1316150093FAFA0F3346F60280
:10277C00635EA038050609453346A6027325008022
:10278C00218911C97325008023A8A18403250D007C
:10279C005D99731005800100010023808400238063
:1027AC006401010001000355C9022A9642064182C8
:1027BC002316C902238004007325008003260D0014
:1027CC00218A498E7310068023A801840100010020
:1027DC0025B573260080218A11CA7326008023A890
:1027EC00C18403260D005D9A731006800100010060
:1027FC002380840023806401010001000346390515
:10280C0013660602A309C90499B573260080218AB0
:10281C0011CA7326008023A8C18403260D005D9A7B
:10282C007310068001000100238084002380640162
:10283C00010001000346390513660602A309C90409
:10284C004DB5E38F0AF073260080218A11CA7326D6
:10285C00008023A8C18403260D005D9A73100680A6
:10286C000100010023808400238064010100010029
:10287C00034639051375FC0F1376860FA309C9049B
:10288C0003463905498EA309C90423800400732823
:10289C00008003260D00218A336606017310068022
:1028AC0023A8018401000100034639051D8A631128
:1028BC00862773260080218A11CA7326008023A8DC
:1028CC00C18403260D005D9A73100680010001007F
:1028DC002380840023806401010001000346390534
:1028EC0011651376F60DA309C90403463905136661
:1028FC000602A309C90403560905498E2318C90405
:10290C00035609052165498E2318C9042380040048
:10291C007325008003260D00218A498E73100680D2
:10292C0023A8018401000100034639051376060231
:10293C006308062003463905218A6DDE68100523DD
:10294C0073260080218A11CA7326008023A8C184B3
:10295C0003260D005D9A7310068001000100238090
:10296C0084002380640101000100034639051165D0
:10297C001376F60DA309C90403463905136606023E
:10298C00A309C90403560905498E2318C904035623
:10299C0009052165498E2318C90423800400732579
:1029AC00008003260D00218A498E7310068023A80F
:1029BC000184010001000346390513760602630DFC
:1029CC00061A03463905218A6DFE013CAA8C313466
:1029DC00E30F95FF035609051165498E32552318EF
:1029EC00C904612903463905218A6DDE73260080EE
:1029FC00218A1385018509CA7326008023A8C18406
:102A0C0010415D9A73100680010001002380840040
:102A1C002380640101000100034639051376F60D8D
:102A2C00A309C90423800400732800801041218A63
:102A3C00336606017310068023A80184010001008F
:102A4C000358090503462905E24733F80901338683
:102A5C00C90232983308F8401306800C3306C802BA
:102A6C00D2473346F602635500150506094833462E
:102A7C0006036351C0140358C9029308F00F13588E
:102A8C005800329863D6081F094663734619F3271A
:102A9C000080A18B89CBF327008023A8F1841C41F3
:102AAC00DD9B7390078001000100371700409307EE
:102ABC0070052300F704930780FA2300F704010044
:102ACC0001008356C70289678117D58FC207C1835E
:102ADC002316F70223000704732700801C41A18BE7
:102AEC00D98F7390078023A8018401000100B65090
:102AFC00265496540659F649664AD64A464BB64B66
:102B0C00264C964C064DF25D656182807D16A5B112
:102B1C0073260080218A11CA7326008023A8C184E1
:102B2C0003260D005D9A73100680010001002380BE
:102B3C00840023806401010001000346390599B328
:102B4C0073260080218A11CA7326008023A8C184B1
:102B5C0003260D005D9A731006800100010023808E
:102B6C0084002380640101000100034639051366CB
:102B7C000602A309C90459BB73260080218A11CA15
:102B8C007326008023A8C18403260D005D9A731060
:102B9C000680010001002380840023806401010071
:102BAC0001000346390513660602A309C904F5B3EF
:102BBC007D166DBD55CE0358C902B308C0401358DD
:102BCC0058006357180B094663744605F3270080B9
:102BDC00A18B89CBF327008023A8F1841C41DD9BBA
:102BEC007390078001000100B717004013077005B0
:102BFC002380E704130780FA2380E7040100010017
:102C0C0003D7C7027D8B2396E70223800704E9B51F
:102C1C0073260080218A09CA7326008023A8C184E8
:102C2C0010415D9A7310068001000100238084001E
:102C3C0023806401010001000356C9021376F60FCC
:102C4C0033667601420641822316C90223800400B2
:102C5C00732800801041218A3366060173100680A8
:102C6C0023A8018401000100050A137AFA0F15B29A
:102C7C00F3270080A18B89CBF327008023A8F18454
:102C8C001C41DD9B7390078001000100B7170040C9
:102C9C00130770052380E704130780FA2380E704E9
:102CAC000100010003D7C70216063A96420641827C
:102CBC002396C70299BF914763EEB702171702001C
:102CCC00130747228A05BA959C41BA978287B71792
:102CDC00004003A7470B1345F5FF698F23AAE70AAA
:102CEC0003A7070B698F23A8E70A03A7070A798DA7
:102CFC0023A0A70A8280B717004083A6470B13476F
:102D0C00F5FFF98E23AAD70A83A6070B558D23A8A6
:102D1C00A70A83A6070A758F23A0E70A8280B71734
:102D2C00004003A7470B498F23AAE70A03A7070B09
:102D3C001345F5FF45BFB717004083A6470B134754
:102D4C00F5FF758F23AAE70A03A7070A598D4DB71C
:102D5C00B717004003A7470B498FEDB7914763EEB8
:102D6C00B70217170200130727198A05BA959C4159
:102D7C00BA978287B717004003A7470D1345F5FF95
:102D8C00698F23AAE70C03A7070D698F23A8E70C0B
:102D9C0003A7070C798D23A0A70C8280B7170040DE
:102DAC0083A6470D1347F5FFF98E23AAD70C83A6EC
:102DBC00070D558D23A8A70C83A6070C758F23A090
:102DCC00E70C8280B717004003A7470D498F23AA51
:102DDC00E70C03A7070D1345F5FF45BFB7170040D8
:102DEC0083A6470D1347F5FF758F23AAE70C03A79E
:102DFC00070C598D4DB7B717004003A7470D498FE6
:102E0C00EDB7B717004003D7870109C5D98D239CAF
:102E1C00B700828093C5F5FFF98DD5BFB717004079
:102E2C0003D58700420541819377050491EB937795
:102E3C00F5013755E801130505803345F50282800D
:102E4C009377050C130700046397E7009377F5015C
:102E5C0037459C1CCDB72165130505D0828037E71B
:102E6C0000E01C435443A183E206D58F1CC1FD57DF
:102E7C002320F7182322F718828013178500B7E751
:102E8C0000E023A0E710618123A2A7108280B7F78E
:102E9C0000E08847CC478280814737370040A14605
:102EAC0063C4C700328582800345B740E38EA6FE1B
:102EBC003385F5000345050085072304A740CDB7EE
:102ECC0097F7FF1F9387474A9C4317170020130758
:102EDC0067303E95636EE500175700201307C7F166
:102EEC006368A70017F7FF1F2320A7483E85828041
:102EFC00FD57EDBF411122C406C62A840537294768
:102F0C00B307E502B2408D83B3D7870222449507FD
:102F1C00B3D7E70237370040C207C1832316F74007
:102F2C0041018280716541111305052006C6D93710
:102F3C00B7370040130770F82381E7400D47A38192
:102F4C00E74013070004A380E74005472387E740C9
:102F5C00B2404101828003A84500411122C406C63B
:102F6C0026C283471800034808002D44A207B3E784
:102F7C00070141E3C2070D67B284C1871306C7A5D9
:102F8C006382C7041306D7A56384C702130727906F
:102F9C0029446399E704CC45938781A5639FF50287
:102FAC0085472390F600EF60101D2380A40009A82C
:102FBC0085472390F600DC4583C707002380F40087
:102FCC0001440DA089472390F600DC4583C7070018
:102FDC00A38004002380F400E5B7938781A42944DF
:102FEC00E380F5FC938781869C4381C78145194515
:102FFC0082972285B240224492444101828083A868
:10300C00450079714AD006D622D426D24ECE52CC67
:10301C0083C7180083C808002D49A207B3E717011E
:10302C005DEFC2078D68C18713832890B284638CCF
:10303C006718938858A529496393170B36848547DD
:10304C0083C6D18613090008638BF60893162500F6
:10305C00938781A4B69783C72700AA891309100800
:10306C00898BB5CF138981858327490003DAA500A5
:10307C001374F40FA1CB8547A386F186239C41855D
:10308C008D47239DF1848327490041472380E70026
:10309C000327490083C70400A300F7000D47638092
:1030AC00E70C11476389E70E05476383E70409447E
:1030BC0083274900854503C5C18623818700EF100E
:1030CC00601019A881464546F54503D54185EF604A
:1030DC00E04423AEA18445F1239A31850149B250D5
:1030EC0022544A8592540259F249624A45618280BF
:1030FC0015476360870A83D72186858BD9CB631AE2
:10310C00E40283C7240003C73400A2074207BA971E
:10311C0003C71400BA9703C744006207BA973EC6A8
:10312C00938781869C4381C76C0005458297054433
:10313C0041B702C68146014781477D1463C58700AC
:10314C00E5D23AC6F1BFB386F40083C616001396D7
:10315C0037008507B396C60036978546C5B78947AD
:10316C006319F40283D72186918B0D44B1D303C725
:10317C00140083C6E1868147138681A6B305F60049
:10318C0083C505006382E50A850793F7F70FE3F71C
:10319C00F6FE0D4431BF8547E31DF4FE83D721862F
:1031AC00918BE5DB835729000325490003C6E18693
:1031BC00B297938581A60D05239DF18497D0FF1FAF
:1031CC00E780A07FF5B583D7A50017F8FF1F03583C
:1031DC00C8EC631FF8008947EF60207F93878186D6
:1031EC009C432A89E38D07EE81451D458297C5BD19
:1031FC0017F8FF1F035868E3E312F8EE8547EF60FA
:10320C00C07C2A89E31D05EC938781869C43E38768
:10321C0007EC03C5140003C7040081452205598D32
:10322C00133515001105D9B7A383E18093878186E7
:10323C009C43E38E07EE81450D45CDBD411126C261
:10324C00C16422C4938581A52A841385F4FF06C624
:10325C00EF804040938581A41385F4FF0588EF80AF
:10326C00603F0DC02244B240924497F6FF1F9386F4
:10327C0026E34146AD4517F5FF1F130565D7410100
:10328C006F806032B24022449244014541018280F9
:10329C0023A4A18682809147630AF5009D476302AF
:1032AC00F5028D47630AF5000945828083470600C5
:1032BC00A383F18001458280834706002391F18628
:1032CC00D5BF03C7E186B547014563EDE70093071A
:1032DC0017002387F18683460600938781A6BA9749
:1032EC002380D700828091476302F50295476302E1
:1032FC00F5020D4789476319E5009387218683D72B
:10330C0007002380F50081473E85828083C771804A
:10331C00CDBF83C70186F5B7411122C42E84938596
:10332C0081A526C206C6AA84EF60E064058915C192
:10333C0097F7FF1F9387C7CB83D7A702A285B2400D
:10334C002310F400224426859244014641016F70FB
:10335C00203FB24022449244494541018280C167DA
:10336C00F9176301F504411122C406C685472A8466
:10337C00639FF5002285938581A5EF80A02D228582
:10338C002244B240938581A441016F80A02C8947CF
:10339C006396F5008545EFA0A06069DDB24022443C
:1033AC00410182808280CC41411106C6328503C620
:1033BC00150083C5050022064D8E42068D6541869B
:1033CC00138875A2630C060F6348C804138845A2C2
:1033DC006306060B634AC800938535A26309B606DB
:1033EC0023900600294679A0138855A26308060B82
:1033FC00938565A2E316B6FEC1451D4663ECE50652
:10340C004546198E63F3C7003E862390C600971578
:10341C0002009385A5B089A8138895A26300060FB6
:10342C00634E060B1388A5A2630A060F938505A5A8
:10343C00E318B6FA99451D4663EEE502198E63F35F
:10344C00C7003E862390C6009385018131A89D4517
:10345C001D4663E1E5022146198E63F3C7003E86E3
:10346C002390C60093850187BA9597D0FF1FE780FC
:10347C00C0540146B240328541018280AD451D46A3
:10348C00E3EAE5FE3146198E63F3C7003E862390CE
:10349C00C60097150200938525ACF9B7B1451D46BA
:1034AC00E3EAE5FC3546198E63F3C7003E862390AC
:1034BC00C60097150200938525AB7DB7C1451D4607
:1034CC00E3EAE5FA4546198E63F3C7003E8623907E
:1034DC00C600971502009385A5A579B7C1451D4671
:1034EC00E3EAE5F84546198E63F3C7003E86239060
:1034FC00C60097150200938525A8BDB7C1451D468A
:10350C00E3EAE5F64546198E63F3C7003E86239041
:10351C00C600971502009385E5A2B9B7B5451D46BF
:10352C00E3EAE5F43946198E63F3C7003E8623902F
:10353C00C600971502009385659D3DB797F6FF1F52
:10354C009386C6C94146CD4517F5FF1F130505B631
:10355C006F80600505E1B28741112E8613850187C6
:10356C00BE8506C697D0FF1FE7802045B2400145B7
:10357C00410182800945828011456FE09FE741112E
:10358C0093962500AA852D4506C697D0FF1FE78088
:10359C00200CB240014541018280411126C2939416
:1035AC00250022C44AC02A843289A686AA850146EF
:1035BC00254506C697D0FF1FE7808009A6864A8658
:1035CC00A285294597D0FF1FE7808008B24022448E
:1035DC0092440249014541018280011122CC06CE60
:1035EC003714004026CA4AC84EC652C483447405D8
:1035FC00034AB4058349840503499405EFE0BFB43D
:10360C008347A40593F4F40F137AFA0F93E717008A
:10361C00230DF40493F9F90F1379F90FB717004040
:10362C0003C7A705058B6DFF03D5C705A38D4705FC
:10363C00238C3705A38C2705A38B9704F240624497
:10364C00D2444249B249224A056182804111939782
:10365C00050122C406C6C1872E8463DD0700EF0076
:10366C00700519C1EF00E07D2165218DB240224427
:10367C004101828093F7150013C51500E5FB939764
:10368C00250163D00702EF10C11EFD3537F602008D
:10369C00130606E0896503C58187EF00704909654B
:1036AC00E9B7939715010145E3D207FC1715020002
:1036BC0013054592EFF0616A13060064916503C52A
:1036CC008187EF00F04611654DB71D71494697157E
:1036DC0002009385A58B17150200130525B486CE21
:1036EC0097D0FF1FE780603601E91715020013051C
:1036FC00258BEFF0816601A0B7F600E0795798CAE8
:10370C00FD57DCCA0567B7E700E023A0E7101306F6
:10371C00F00290C223A0E718010001001306C003B9
:10372C008145480897D0FF1FE780A02C97F7FF1F13
:10373C009387C7EB3ECA896793870780231CF100E8
:10374C00B5472304F102A167938707E03ECEB70784
:10375C000105938707103ED0ED472312F1028547F0
:10376C002303F102970700009387A7E1BEC49707D4
:10377C0000009387C7E2BEC68567938717D82315C9
:10378C00F10297F7FFFF9387C7703EDAB7F5070092
:10379C00970700009387A7E43EDE81469707000059
:1037AC009387C7DD7000E1051945BEC097D0FF1F98
:1037BC00E78000EA58088147994670003E96034618
:1037CC00060085070507A30CC700E398D7FED24770
:1037DC0091C70357810185676373F70001A04808FF
:1037EC00EF106009AA8501C9170502001305857C35
:1037FC00EFF0014501A0F6402561828041111705CB
:10380C0000001305E5E406C622C4EF104003138440
:10381C0081872300A4002928034504002244B240D8
:10382C0037F60200130606E0896541016F0050303F
:10383C00411106C6F3270080A18B1387018589CB24
:10384C00F327008023A8F1841C43DD9B7390078031
:10385C0001000100B7170040930670052380D704C0
:10386C00930680FA2380D7040100010083C6F70277
:10387C0093F6A60FA387D70223800704F3260080B4
:10388C001C43A18BD58F7390078023A80184010062
:10389C000100F3270080A18B89CBF327008023A89C
:1038AC00F1841C43DD9B7390078001000100B71766
:1038BC000040930670052380D704930680FA23807A
:1038CC00D7040100010083C6F70293E62600A38704
:1038DC00D70223800704F32600801C43A18BD58FCD
:1038EC007390078023A80184010001000545EFE0D7
:1038FC001F8859311305407E814701478146054693
:10390C008545EFE05F8DB240014541016F10002B02
:10391C00011122CC06CE11472A846319E50203C794
:10392C0025009547631EF70083D7A500056613068F
:10393C008638914503C5118A2394F188EF00501FF6
:10394C0023A68188F2406244056182809387C188F6
:10395C009C43639DE7048547894503C5118AA303EE
:10396C00F10023040100EF00B03D854503D58188AB
:10397C00FD322C0013055041EF40517593050002A8
:10398C000D45EF20D047930500021145EF2030473D
:10399C008965938505710145EF207046130671000A
:1039AC00854513055030EF60217659BF0947639167
:1039BC00E7088D47631EF50603C7018A8547631C1C
:1039CC00F700300085451305C03023040100EF607B
:1039DC00A1732380018A83C7618981C7238B0188E6
:1039EC0085B70D45EF20E06C930700026317F502D5
:1039FC008547930500020D452304F100EF2030406C
:103A0C00930500021145EF20903F9565938505E2E3
:103A1C000145EF20D03E300061B785479305806AA1
:103A2C000D452304F100EF20903D9305806AD9BF2A
:103A3C008547E317F4F02C0013054030EF60015D6F
:103A4C008347D1003000A145A307F1008347C10093
:103A5C000145230601002307F1008347B100A305AC
:103A6C000100A306F100FD34E1BD8D476303F502AF
:103A7C0063E6A7008547630AF50082809147630FD0
:103A8C00F50095476308F50282809C4123A2F188DA
:103A9C0082809385718911456FF0FF849387C1886B
:103AAC009C43639EA7001306803E894503C5118A7B
:103ABC006F001008894503C5118A6F007028828039
:103ACC0041119397050122C406C626C2C1872E84D4
:103ADC0063DE070003C5118AF12E11C19D262165F5
:103AEC00218DB240224492444101828093F715000B
:103AFC0091CF17E6FF1F1306E671938581A703C5C7
:103B0C00118AEF60613613451400E1BF93F725006D
:103B1C006387070E9387C18898439147631CF70C02
:103B2C00014781462D46ED4503D58188EF50101F86
:103B3C0023AEA1884DC98D472300F500938741889A
:103B4C0098432546A300E500984321832301E50013
:103B5C0003D72700A301E500944303D72189A302CF
:103B6C00E50093D786012302F500935787002303C2
:103B7C00F50083D741896362F6088507C207C183C4
:103B8C0013070740239AF188B69723A2F18823994B
:103B9C00E18803D70188935787002304F50083D766
:103BAC000189A303E500A304F50093D6870005075C
:103BBC0093870740938481892305D5002390E1885E
:103BCC002398F188DC402D05A6851D8D1375F50F06
:103BDC00239DA18803D58188EFF00FF409C5ED452D
:103BEC002685EF50702B1306803E894503C5118A3C
:103BFC00EF00007413452400EDB5FD1741B793F7A2
:103C0C00450085C383C7118A1307803ED14613062E
:103C1C00800CD14503D58188EF60611E13454400AB
:103C2C00C9B593F785000145E38D07EA03D5818873
:103C3C00EF60E178134584006DB5011117050000A4
:103C4C00130545E806CE22CC26CA4AC89384118AAD
:103C5C00EF00F03E05442380A40070008545130559
:103C6C00503023068100EF60214A1386C1818D45B7
:103C7C0013057030EF60414917E6FF1F1306C65657
:103C8C00CD4513056030EF6021480D49700091451A
:103C9C0013057040A3038100A304210123058100B7
:103CAC0002C623040100A3050100EF50C126130630
:103CBC007100854513050040EF50E1253000854526
:103CCC0013051040EF50212513069100854513056F
:103CDC002040EF5041241306A100854513055040A8
:103CEC00EF5061231306B100854513054041EF5099
:103CFC0081227D55EF50E04A7D55EF7090127D5535
:103D0C00EFF0CFD3EFF09F8317E6FF1F1306064F9C
:103D1C00D5450145EF50803717050000130525D513
:103D2C00EFF00FD79D47A303F100A9472304F1003F
:103D3C00A304F10095472305F10013069100B14748
:103D4C0085451D45A305F10023062101EFF0AFD4F5
:103D5C001306A10085451D45EFF0EFD31306B10006
:103D6C0085451D45EFF02FD3700085451D45EFF0BF
:103D7C008FD2300085451145EFF0EFD1130671005D
:103D8C0085450D45EFF02FD103C5040085451D2950
:103D9C00F2406244D24442490561828041111305CC
:103DAC00800406C622C497C0FF1FE780002E9145F1
:103DBC007D55EFE05FF091457D55EFE03FFA37140C
:103DCC0000408327C40A93050002FD572326F40AFA
:103DDC000327C40C05452326F40CEFF08F82854590
:103DEC0013050010EFE09FF78327840C9145130512
:103DFC00002093E707202324F40CEFE03FF6EFF0CC
:103E0C006F921705020013056541EFE01175EFF095
:103E1C00DF8BEFF0BF9EEF60C15C053597C0FF1FD5
:103E2C00E780C07623AC05FE1C4191E70100010040
:103E3C000CC18280BA8703A787FF6DFF23ACB7FE46
:103E4C0082801DC18346E5FF1307F00F9147639EE7
:103E5C00E600411106C697E0FF1FE780A099B2402B
:103E6C0081473E854101828095473E85828001E9EC
:103E7C00014582800145B240224441018280956512
:103E8C004111938505D022C4C98D2A842105C20510
:103E9C004205C181418106C697E0FF1FE78020895A
:103EAC0071D9FD5723200500231285002303F5004B
:103EBC002105D1B71387418A1C43411122C426C264
:103ECC004AC006C601440149BA8489E7A1658D2D13
:103EDC000DC401A803C7E7FF6318A7021DC8A1659D
:103EEC00D5249840832784FF6317E40223A2F18A28
:103EFC00FD57232C04FE230FF4FE2285B2402244EE
:103F0C00924402494101828011E03E8983A787FFD8
:103F1C006DBF3E84E5BF232CF9FED9BFA1CD411165
:103F2C0022C406C62A849707002083C7F7EF2E8584
:103F3C006375F400894763E8870021370D45B2406B
:103F4C0022444101828083A785FF99E703C7E5FFDF
:103F5C009307F00F6305F700ED351545CDB7238FAB
:103F6C0085FE1385418A7D3D22852244B240A165A0
:103F7C00410189AC1545828023A2018A82809387F6
:103F8C00C18B9C4399E33E85828003D7270063163F
:103F9C00B70003C70700E308A7FEDC47E5B7BDCDB4
:103FAC00797122D406D626D24AD04ECE014441474E
:103FBC00B3D78540858BB1CF120531472295330598
:103FCC00E5029387C18A03A907008544B394840052
:103FDC00C204C180BE892A990327090011C7032591
:103FEC0049002EC60297B24531473304E40283A739
:103FFC0009003E941C4489E7232009002322090070
:10400C00B2502254A58D02599254F2492E85456125
:10401C0082800504E31EE4F88144DDB72E8582809E
:10402C0041111397050122C406C626C24AC0418716
:10403C002E84635E0700BD3D11C12135A1673D8C07
:10404C002285B24022449244024941018280EDD93A
:10405C00AA8701474146B356E440858A9DCA920718
:10406C00BA97B146B387D7029386C18A03A90600D3
:10407C008544B394E400C204C1803E9983270900AF
:10408C000325490082972320090023220900258C4F
:10409C0045BF0507E311C7FC8144D5BF9707002036
:1040AC009387C7D49C53411122C406C61384018242
:1040BC0099C782971C403E9523A0A18229A0938783
:1040CC00418B9C43FDF70840B74703009387D73FCC
:1040DC003305F502B7A72600938737ECB24022448C
:1040EC003E9523A0A1824101828079C99387418B9F
:1040FC009C43797122D426D24AD04ECE52CC56CA89
:10410C005AC806D65EC63A8AB689328BAE8A2A89D6
:10411C0082979387C18A9843BE840144B146C147B4
:10412C00B30BD40233067701104251E6C165938577
:10413C0005F0414597D0FF1FE780605F1DE59707AD
:10414C0000209387A7CA9C5B2D4589C711458145E3
:10415C0082972D45B250225492540259F249624A28
:10416C00D24A424BB24B456182809387C18B9843B4
:10417C001DEF23AEA18A230005009C400547331791
:10418C00870023260500232465012311E500232243
:10419C004501DE9723A0270123A2570123A4470141
:1041AC000145E38909FA238089006DB73E875C4796
:1041BC00F5FF48C7C9B70504E314F4F6214559BF08
:1041CC00094582809707002083C717C6637FF500D7
:1041DC001387818A9317150008433E958357050072
:1041EC00DD8D2310B500014582800D458280970737
:1041FC00002083C777C36371F5021387818A9317F5
:10420C001500084393C5F5FF3E9583570500FD8DBA
:10421C002310B500014582800D458280130705FFF0
:10422C001377F70FFD4763E5E70AB146B306D502EE
:10423C009387C18A984389473697184359CB011104
:10424C0022CC4EC60544935945003D893315A40034
:10425C0013140501418026CA4E85AE84A2854AC836
:10426C0006CE313B2A89814721CDA2854E85413727
:10427C009387418B9C4382979707002083D787BFF6
:10428C00338797022A84814613060064B3B79702DA
:10429C0013050732B335E500BE95EFE08155B30742
:1042AC00850097060020938666BC3E87D44263E463
:1042BC00A70063E4D7003387D7402324E900814764
:1042CC00F2406244D2444249B2493E850561828043
:1042DC0089473E858280011126CA06CE22CC4AC867
:1042EC004EC6BD47894463EDA70231473307E5024B
:1042FC009387C18A9C438944BA979C4395C30544D0
:10430C003314A400420441802E890145A2858539CD
:10431C00AA89814411C5A2850145D13D23A4290157
:10432C00F240624426854249D244B24905618280FA
:10433C009707002083C757AF6364F500014582805F
:10434C0001119387418B56C283AA070006CE22CC5B
:10435C0026CA4AC84EC652C4638D0A0A170A0020E0
:10436C00130ACAB083244A00B74736FE938707C89E
:10437C00AE899705002083D5E5AFBE94B387C502FF
:10438C002A8432898146B3B5C50213850732B33707
:10439C00F50013060064BE95EFE0A14563EBA4069F
:1043AC00829A9705002083D5E5ACB3872503AA84B0
:1043BC00130600648146B3B5250313850732B33762
:1043CC00F500BE95EFE0E142B3079500BE840327EC
:1043DC004A0063E4A70063E4E700B384E740CE85BA
:1043EC002285713E01C504C505452DA0936504F0D9
:1043FC00C205C181414597D0FF1FE780403305E5D9
:10440C00970700209387879E9C5B81C7A2851145E7
:10441C0082970145F2406244D2444249B249224A51
:10442C00924A056182809387C18B9C438DE323AEB6
:10443C00A18A85472326050004C5231135012300D5
:10444C008500A300F5002322050079BFBA87D84761
:10445C0075FFC8C7F9BF49C9797122D426D24AD091
:10446C004ECE52CC56CA5EC662C466C206D65AC876
:10447C003689328AAE89AA844144314C938AC18AE6
:10448C00854C930B0003330B840303A70A005A9744
:10449C001C43B1E79375F400B395BC00135544402D
:1044AC00C2055286C1811375F50F59350DC983A705
:1044BC000A000145DA9784C323A23701630409007B
:1044CC0023008900B250225492540259F249624A94
:1044DC00D24A424BB24B224C924C4561828005042D
:1044EC00E31374FB2145F9BF09458280411122C4B5
:1044FC0026C24AC006C62A842E89B284153DCA85B6
:10450C002285B53C05CD9705002083D5A596B387AC
:10451C0095022A84130600648146B3B5950213856F
:10452C000732B337F500BE95EFE0A12C48C001452A
:10453C00B240224492440249410182802145CDBFC0
:10454C00411122C426C24AC006C62A892E84EFF025
:10455C001FA3AA8419C123110500A2854A854139DC
:10456C009707002083C7478C6397270183D7018B5C
:10457C005D8C2398818A014591E01945B240224413
:10458C0092440249410182809307F00263E6A7043A
:10459C004111B14722C43304F50226C29384C18A67
:1045AC009C4006C6A297984389470DC39377F500A4
:1045BC008545B395F500C205C181118151379C40E9
:1045CC00A29723A0070023A207008147B2402244F0
:1045DC0092443E854101828089473E85828041110B
:1045EC0006C622C4EFF0BF9911E50145B240224442
:1045FC00410182809387418B9C43004582979707AA
:10460C0000209387A7866368A402D843B74636FE7A
:10461C00938606C83305A4403697E378E5FC130768
:10462C000064B335E50203D6870081463305E50205
:10463C00EFE0211C65BFD8433A94C1BF411122C49D
:10464C0026C2170400201304648297F4FF1F93847E
:10465C00A47D944858409387418B06C69C43639F26
:10466C00E60682975440B74736FE938707C8B6973D
:10467C003387A7003A856364F7006364D70033057A
:10468C00D74097040020938424969C4C91CB93871D
:10469C00419994433707CDFF7D179C46F98F9CC6F3
:1046AC0011E1484097F7FF1F93874774DC538297BB
:1046BC0019E59C4C99CFEF00C12FEFF070199C4C71
:1046CC0089CB938741999843B70633001C47D58F04
:1046DC001CC7B24022449244410182808297984880
:1046EC0097F7FF1F83C7D77154401D8FB307A700DF
:1046FC003E8563E4E700E3E6D7F83385D74051B74E
:10470C00411106C623ACA18A0295B24097F7FF1F50
:10471C0023A8A772014541018280994763E9B7003C
:10472C008A0597F7FF1F9387A772BE9588C1828071
:10473C0041117146814517F5FF1F1305657106C6BA
:10474C0023AE018A23AC018A23AA018A97C0FF1FDA
:10475C00E780202A13068002814517F5FF1F1305F9
:10476C00A56C97C0FF1FE780C028EF50D15097F77A
:10477C00FF1F83C7176913D527008D8B3E958D4777
:10478C003305F502854539051375F50F97F7FF1FAE
:10479C00238DA76899473305F5021305052497D097
:1047AC00FF1FE780C0F823A6A18A59C5994717F6C1
:1047BC00FF1F034686673306F6028145130606245F
:1047CC0097C0FF1FE780E0229387C18A9C439387A1
:1047DC00072423A0F18C17F7FF1F034707650A076F
:1047EC00BA9723A4F18AEFF02FF905239387018C54
:1047FC00944397F7FF1F83C73763139727003697A8
:10480C0017F6FFFF1306E67910C31387170013770B
:10481C00F70F0A073697170600001306A68010C379
:10482C0013873700890793F7F70F8A0797F5FF1F50
:10483C00A38CE55EB69790C3B2404101828097F796
:10484C00FF1F83C7775E17F7FF1F0347075E63F1F0
:10485C00E7021387018C18439386170017F6FF1F86
:10486C00A304D65C93962700369708C33E858280B6
:10487C009307F00FE5BF1C416388071641777D8FC6
:10488C00B706002089476312D71603574500630EFD
:10489C000714411122C419462A849305F00F6905A7
:1048AC0006C697C0FF1FE780E01E05478D476308CB
:1048BC00E5121C4481CB5858994763020712185CC7
:1048CC00630F07101306C003814517F5FF1F13056F
:1048DC00E55197C0FF1FE780C0111306C003A285E6
:1048EC0017F5FF1F1305855097C0FF1FE780E00CDD
:1048FC0017F7FF1F0357475097F7FF1F9387074F73
:10490C0019E71307001097F6FF1F2397E64E17F7CA
:10491C00FF1F0347874E11E7054797F6FF1F238EAE
:10492C00E64C17F7FF1F0357674D11E76D4797F6D6
:10493C00FF1F2395E64C17F7FF1F0347174C11E792
:10494C00154797F6FF1FA38AE64A17F7FF1F034781
:10495C00074B11E7054797F6FF1F2382E64A17F727
:10496C00FF1F0347D74919E703C7F70097F6FF1F47
:10497C00A387E64817F7FF1F0347874811E735471A
:10498C0097F6FF1F238EE64617F7FF1F034797473F
:10499C0019E71307800297F6FF1FA385E64617F762
:1049AC00FF1F0347F74519E71307D00297F6FF1FC0
:1049BC00A388E6440347840119E71307C00397F65D
:1049CC00FF1F2381E6449C5791C7829797F7FF1FDF
:1049DC002390A746FD57A381F1A0993B8147B24094
:1049EC0022443E854101828089473E8582800111A7
:1049FC004EC697F9FF1F9389694783A7090006CE16
:104A0C0022CC26CA4AC852C4829713090064B33513
:104A1C00250303DA89008146528633052503EFD03E
:104A2C00515D97F7FF1F93872740804FAA8401455C
:104A3C006306940233858440636E940003A5490099
:104A4C0052868146B335A9023305A902EFD0715ABB
:104A5C00018D269597F7FF1F23A4973EF2406244E1
:104A6C00D2444249B249224A05618280011122CCCA
:104A7C000A852E84414697F501009385A54506CEFF
:104A8C00EFE0A110180806043A94035504FF97F7B9
:104A9C00FF1F83D7473EF2406244AA9737450F0069
:104AAC00130505243355F5020561828097F7FF1F26
:104ABC0083D7673C51471D45637CF70279471945FD
:104ACC006378F7021307200315456373F702130786
:104ADC00B0041145637EF700130740060D4563795A
:104AEC00F7001307600909456374F70013B5B70F96
:104AFC008280011122CC06CE2A842EC6EFF00FDA6A
:104B0C00B245F240818D33A5A502229562441375FE
:104B1C00F50F05618280011122CC06CE2A842EC6A7
:104B2C00EFF0CFD7B245F240818D33A5A502229587
:104B3C0062444205418105618280011122CC06CE7E
:104B4C002A842EC6EFF08FD5B245F240818D33B555
:104B5C00A502229562440561828097F7FF1F938717
:104B6C00E728985739CB411122C426C206C6BE8409
:104B7C00029717F7FF1F0357A72B2A8415CBBA8769
:104B8C006373A700AA87C207C183BA866373E40064
:104B9C00A286C206C182958F5147635BF700DC5435
:104BAC0091C38297EFF0F04C97F7FF1F2392872861
:104BBC00B2402244924441018280828097F7FF1FC9
:104BCC009387C722DC57011106CEAA8581C72AC656
:104BDC008297B245D1C19C410545A5CFDC41B5CBEF
:104BEC0083D78500BDC783D7A500A5C783C7C500DC
:104BFC00ADE3414617F5FF1F1305452797C0FF1F6F
:104C0C00E780A0DB97F7FF1F938747269C4323AAD7
:104C1C00F18A97F7FF1F83C7F71E8DE79307800272
:104C2C0017F5FF1F035505253305F50237460F0011
:104C3C001306062481468145EFD0B13B97F7FF1F41
:104C4C00A382A71C170500001305A5DAEFF05FABD4
:104C5C000145F2400561828097F7FF1F83C7671AF1
:104C6C001397870161876354070497F7FF1F23ABE2
:104C7C00071C97C7FF1F9387071517F7FF1F2327DD
:104C8C00F71E7D5797F7FF1F23A4E71EB787320047
:104C9C00938727A197F6FF1F23AEF61C97F7FF1FEC
:104CAC00238C071CB7C7004023A4E726A1BF13F72A
:104CBC00170005CFB7872003938707D017F7FF1F7F
:104CCC00232AF71AB707C0A817F7FF1F2322F71AD2
:104CDC0097C7FF1F9387471217F7FF1F2328F71853
:104CEC0097F7FF1F238A071831BF617797F6FF1FCD
:104CFC002392E61881CB9307003217F7FF1F231C72
:104D0C00F716C9B793072003CDBF011122CC17F4B6
:104D1C00FF1F1304A40D084406CE26CA4AC801E995
:104D2C000545F2406244D2444249056182805C5898
:104D3C00E5DB185C75D77000854582971844B2473F
:104D4C00E300F7FE9305E00417F5FF1F0355C50AB2
:104D5C0097D0FF1FE780A09D17F7FF1F2326A70EF4
:104D6C0061D117F6FF1F035626099305F00F97C064
:104D7C00FF1FE78000C8814417F9FF1F1309C90AF8
:104D8C0097F7FF1F83C767070326090263C1F40265
:104D9C00328597D0FF1FE780E0A5014597F7FF1FED
:104DAC0023A4070A97F7FF1F23A2070A9DBF97F5B5
:104DBC00FF1F83D56504B38795020844185C89816D
:104DCC0085043E9508C2029765BF011156C297FA39
:104DDC00FF1F938AAA0183A78A0022CC4AC84EC619
:104DEC0006CE26CA52C45AC0AA892E84328963853B
:104DFC00072203A74A03630707147D476366A714BA
:104E0C0097F4FF1F9384440203AA040263170A0A4F
:104E1C009565938515E017F5FF1F0355E5FD97D0B4
:104E2C00FF1FE780C09097F7FF1F23AFA7002A86CC
:104E3C00630A051083A74A0303A58A0097F5FF1F91
:104E4C0083D585FB8981829783A78A0003AA0402F4
:104E5C0017F7FF1F232CF7FE8947639CF908C147FE
:104E6C006312F40E97F5FF1F83D505F9938505FCA6
:104E7C009147B3C5F5028A05D29503C70500930780
:104E8C00A005631DF70A83C715006399370B4A8584
:104E9C002286910597C0FF1FE78020B29C50528557
:104EAC00639347150145F2406244D2444249B249EA
:104EBC00224A924A024B05618280D850E38EE7F871
:104ECC009565938525E017F5FF1F0355E5F297D0FF
:104EDC00FF1FE780C0852A8A35C52A8683A74A0327
:104EEC0003A58A0097F5FF1F83D505F18981829769
:104EFC00A5B78D47639DF900C1476315F40497F579
:104F0C00FF1F83D565EF938545FDF199B5B79147A3
:104F1C00639AF9006318340397F5FF1F83D5C5ED29
:104F2C00A115E5B7C147639FF900A14763EC870062
:104F3C0097F5FF1F83D545ECC115C1BF9C50528519
:104F4C006397470D294585B71307F006568B6361A8
:104F5C00A70A130A05FE1947334AEA0217F7FF1F7F
:104F6C00035787E997FAFF1F938A0AEC330AEA0280
:104F7C003E9A83A74A026395470183A40A029DE4E3
:104F8C009305E00417F5FF1F035505E797C0FF1FB6
:104F9C00E780E079AA845DD583274B0397F5FF1F43
:104FAC0083D585E52A868981528582979145130799
:104FBC00A005898193972500A69783C60700639364
:104FCC00E60483C61700639C360385058A05228692
:104FDC00A6954A8597C0FF1FE780209E83A70A02EB
:104FEC00E38297EC268597D0FF1FE780A0805DBDFC
:104FFC001307E007E368A7F4130A05F985B783D50F
:10500C00270045BF83A70A02E38E97F2268597C037
:10501C00FF1FE780207E3DB797F7FF1F9387C7E000
:10502C008C538DD191479306A00589831397270044
:10503C002E9703460700E317D6F003461700631CB0
:10504C00360185078A072286BE954A8597C0FF1FC1
:10505C00E780A09681BD83572700C1BF97F7FF1F3C
:10506C009387C7D8984739C79C5FA9C7054763136F
:10507C00E504411122C417F4FF1F1304E4DA1050A5
:10508C0006C60DC6485097F5FF1F83D5E5D6898116
:10509C008297085097C0FF1FE780C07597F7FF1FD6
:1050AC0023A407DA97F7FF1F23A207DAB2402244A2
:1050BC00410182808280011117F7FF1F130707D36C
:1050CC004EC68329870022CC26CA4AC806CE52C4B3
:1050DC0056C2AA842E843289638A09201C5FBA8A3C
:1050EC0099EB2945F2406244D2444249B249224AE2
:1050FC00924A056182805C5BEDD7FD4763E9A70EA0
:10510C0097F9FF1F938949D283A70902B1CB03A555
:10511C008A0083A749026395A70689476393F4081D
:10512C00C147E310F4FC17F5FF1F0355E5CC91477D
:10513C00130505FC3345F5029317250003A5090259
:10514C002286CA853E959307A0052300F500A3008F
:10515C009500110597C0FF1FE7802086014559B7C0
:10516C009305E00417F5FF1F035505C997C0FF1FF2
:10517C00E780E05B97F7FF1F23A8A7CC49F995B709
:10518C0083A74A0303A6090297F5FF1F83D5C5C65B
:10519C008981829783A78A0017F7FF1F2328F7CAF4
:1051AC00ADBF8D47639EF400C147E31CF4F217F5C5
:1051BC00FF1F035565C4130545FD9377C5FFBDBFA0
:1051CC009147639AF400E31E94F017F5FF1F035503
:1051DC00A5C22115DDB7C147E395F4F0A147E3E281
:1051EC0087F017F5FF1F035525C14115F9B7930734
:1051FC00F00663EAA706930705FE1947B3C7E70253
:10520C0017F7FF1F035747BF17FAFF1F130ACAC12F
:10521C00B387E702BE9983270A02A9CF83274A02E4
:10522C00639A370703250A0291461308A005FD551A
:10523C0093D72600C207C183139727002A970346EA
:10524C000700631D06078348170003562700639564
:10525C009806B306D64063CF860485078A07228654
:10526C00CA853E95C5BD9307E007E3ECA7E6930717
:10527C0005F979B79305E00417F5FF1F0355C5B77A
:10528C0097C0FF1FE780A04A97F7FF1F23AEA7BA6E
:10529C0051F581BD83A74A0303260A0297F5FF1F28
:1052AC0083D585B589814E85829797F7FF1F23AFEC
:1052BC0037B98DBFA300B700B2869DBFB3858600FA
:1052CC0017F6FF1F035646B39105130606FCE3FAC7
:1052DC00C5E0130634001376C60F1106B2962300F0
:1052EC000701A30097002311D70085BF97F7FF1F75
:1052FC00938787B39453BE89A1C203A50902914633
:10530C001308A005FD5593D72600C207C183139738
:10531C0027002A97034607006316060583481700E3
:10532C000356270063989800B306D640E3D786F25D
:10533C00A300B700B286C1BF8357C70017F5FF1F84
:10534C000345A5AB9305E0043305F5024205418105
:10535C0097C0FF1FE780A03D97F7FF1F23A6A7AEBE
:10536C0049FD41B317F6FF1F035606A997F5FF1F1A
:10537C0083C5A5A8B385C502338686001106E3E272
:10538C00C5D681BF01458280011106CE2EC6EF80A5
:10539C00604F01C9B245F2400355250005616FC04D
:1053AC000062F240494505618280A386018E238606
:1053BC00018E23AA018C23AC018C23AE018C23A07B
:1053CC00018E23A8018C23A6018C97F7FF1F9387CE
:1053DC00E7AA370684033707B40090D337C6070013
:1053EC0098C3130606B83747A000D8C3D0D33707E5
:1053FC00100041669306070AB70550009308060192
:10540C0094C723A4170393860501930816F8D4C7F1
:10541C0023A61703B706D007B7087F0013080705A4
:10542C0013850601410723A81703B0C39308160080
:10543C009386060513861500D8CBF8C323A807015D
:10544C0088CF23AE070023AA170323AC070223AE91
:10545C00070223A40704F0C7B4CB23AA0704ACCFDC
:10546C0023AE0705B8D33707A000F8D71307000AF7
:10547C00B8DB1307C01CF8DB37071400B8DF05478F
:10548C00F8DF130710F8E8D323A4070623A00708B6
:10549C0023A2E7088280011126CAAA84214522CCC6
:1054AC0006CE2E8432C636C43AC2EFE05F9C1DC9CC
:1054BC00A24612473246930700FD2300F500994798
:1054CC00A30095002301F5002303D500A303E500F9
:1054DC002312C500AA8522856244F240D24405619C
:1054EC006FE0DFA3F2406244D2440561828023AABC
:1054FC00A18C828023ACA18C828023AEA18C828073
:10550C0023A0A18E8280011122CC4AC806CE26CAC5
:10551C002A890144B30489006368B400F2406244F0
:10552C00D2444249056182802EC6EFE03FB7931703
:10553C000501C183A183B2452380F40093071400B5
:10554C0093F7F70F850463F9B700CA970904238012
:10555C00A7001374F40F7DBF3E847DBFC16717F5A0
:10556C00FF1F0355859AFD176304F502411117F6C9
:10557C00FF1F0346A6A69385418E06C6EF80800FBB
:10558C00B240FD5717F7FF1F2311F7984101828096
:10559C00828009C925151375F50F1335850E134532
:1055AC00150082800145828023900500C9C679715F
:1055BC0022D426D24ECE52CC5AC806D64AD056CA7F
:1055CC005EC63684328AAE892A8B814463F34407E3
:1055DC00B307940083C70700138914004209939AF8
:1055EC00070193DA0A011359090163840A04CA9763
:1055FC006341FA04B307240183CB07005E85513F56
:10560C000DC99387FAFF2390F90063906B03130580
:10561C0019002295B250225492540259F249624A0E
:10562C00D24A424BB24B45618280D694C204C180AF
:10563C0071BF0145C5B701458280411126C2AE84B8
:10564C0022C497F7FF1F23A9C78C97F7FF1F23A32B
:10565C00B78C97F7FF1F23ADA78A2A844146930581
:10566C00F00F26854AC006C6054997B0FF1FE78094
:10567C0060426310250597F7FF1F9387A788884B17
:10568C00C145513541469305F00F228597B0FF1F58
:10569C00E7804040854463189502224497F7FF1F2A
:1056AC0093874786B24092440249C847C14541019D
:1056BC0099BD41468145268597B0FF1FE780803D07
:1056CC00E31225FD4DBF41468145228597B0FF1F52
:1056DC00E780403CE30395FCB240224492440249EB
:1056EC0041018280411122C426C22E84AA84130651
:1056FC000002814517F5FF1F1305C58006C697B03C
:10570C00FF1FE780002F97E7FF1FA38E977E97F769
:10571C00FF1F2387878CEFC0802C854719C18147D9
:10572C004945B240224417E7FF1F230DF77C9244F2
:10573C0041018280814781CD19C98547631BF500E2
:10574C0083C7550093E707FCA382F50085473E8588
:10575C00828089476317F50083C7550093F7F703D9
:10576C00E5B70D478547E314E5FE03C755001377EE
:10577C00F70313670704A382E500D1BF81478DC1EE
:10578C0005C103C755009306000C85471377070C1A
:10579C006308D700930600048D476303D70089473D
:1057AC003E858280411122C4005D06C626C21DC8FA
:1057BC00AA84085009C597C0FF1FE780A003485072
:1057CC0009C597C0FF1FE780E002085409C597C0C0
:1057DC00FF1FE7802002228597C0FF1FE780800112
:1057EC0023AC0402B240224492444101828009ED70
:1057FC0097E7FF1F83C7277117E5FF1F1305057276
:10580C0081CB1385418C828017E5FF1F1305057131
:10581C00828017E5FF1F0345056F828097E7FF1F06
:10582C009387476EC847828097E7FF1F9387876DE2
:10583C00884B828097E7FF1F9387C76CDC4B8843AC
:10584C00828097E7FF1F9387E76BD84B1C43850734
:10585C001CC317E5FF1F0345156B9307F00F63057A
:10586C00F50091656FE01F968280011122CC06CE67
:10587C002E8432C6EF8040119147B245631FF5006C
:10588C009387018E9C438DC303A30700630E030013
:10589C0022856244F240056102839387818D9C438B
:1058AC0081C703A34700DDB7F2406244054505619B
:1058BC008280011122CC2A840355450006CE26CACB
:1058CC004AC84EC6EF70706B35C52A8983440500F3
:1058DC008349C500C13D4A85EF800049035544000A
:1058EC00EF80C00583C7C18EB1CB6399970483C584
:1058FC00D18E2685EFF05FA919E12386018E035521
:10590C004400EF8060089147631FF5000357440083
:10591C0097E7FF1F83D7675F6317F700FD5717E7FC
:10592C00FF1F2314F75EF2406244D2444249B2494D
:10593C000561828081499304F00F6DB79307F00FD6
:10594C00E38FF4FA834664000356440003452400B5
:10595C004E87A685893665B779715EC6AA8B2E856A
:10596C0052CC56CA5AC806D622D426D24AD04ECECB
:10597C00AE8A328B368AEF7050607DC1045D2A8905
:10598C00E5C09C50614599C3130540039C5481C7E5
:10599C0051054205418163050A00710542054181AB
:1059AC00DC5081C75D0542054181EFE04FCC2A8474
:1059BC0045C96146814597B0FF1FE780800397E991
:1059CC00FF1F83C9A94E63940900834909009307FB
:1059DC0000FD2300F400A947A30074012301F40087
:1059EC00230364018C50231254011305840191C9C3
:1059FC0008C47146930A440397B0FF1FE780E0FB8D
:105A0C0056858C5491C948C45146930A450197B0A8
:105A1C00FF1FE78080FA5685630C0A0008C87146A0
:105A2C00D285930AC50197B0FF1FE78000F9568510
:105A3C00CC5099C548C85D4697B0FF1FE780E0F78A
:105A4C00A2854E85EFE08FCD2254B2509254F2498C
:105A5C00624AD24A424BB24B4A850259456199B3CC
:105A6C00B250225492540259F249624AD24A424BE1
:105A7C00B24B4561828001114EC6AA892E854AC857
:105A8C0006CE22CC26CA2E89EF70304F21C997E45E
:105A9C00FF1F83C4A44199E0834405001945EFE03E
:105AAC000FBD2A8405CD8145194697B0FF1FE780AD
:105ABC0040F4930700FD2300F400B947A300340120
:105ACC002301F40023122401A2856244F2404249CE
