:040000006F20C009A4
:100004000000000000000000900000208A0400208E
:10001400A9BDF9F5900000200000000000000000D8
:10002400900000209000002000000000000000006C
:10003400900000200000000090000020000000005C
:1000440090000020900000209000002090000020EC
:1000540090000020900000209000002090000020DC
:1000640090000020900000209000002090000020CC
:100074007E050020900000209000002090000020C9
:1000840090000020900000209000002090000020AC
:1000940001A073270080218B9387018409CB7327E8
:1000A400008023A0E18498435D9B731007800100C6
:1000B400010037170040930670052300D704930608
:1000C40080FA2300D704010001008346B70493F6A5
:1000D400F60DA305D7042300070473260080944378
:1000E400A18AD18E7390068023A0018401000100AF
:1000F40093760502638406180347A700118B25E74E
:1001040073270080218B09CB7327008023A0E1840F
:1001140098435D9B7310078001000100371700406E
:10012400930670052300D704930680FA2300D704AE
:10013400010001008346A70093E646002305D7008B
:1001440023000704F32600809843218B558F7310F6
:10015400078023A00184010001001307004B010064
:1001640001007D176DFF73270080218B09CB732756
:10017400008023A0E18498435D9B731007800100F5
:10018400010037170040930670052300D704930637
:1001940080FA2300D704010001007D892314A700FD
:1001A400010001000100010023000704F326008080
:1001B4009843218B558F7310078023A0018401007D
:1001C400010073270080218B09CB7327008023A0B3
:1001D400E18498435D9B7310078001000100371789
:1001E4000040930670052300D704930680FA230089
:1001F400D7040100010001000100B72600401306E6
:100204001005A383C68023000704F32600809843C7
:10021400218B558F7310078023A0018401000100F6
:1002240073270080218B09CB7327008023A0E184EE
:1002340098435D9B7310078001000100371700404D
:10024400930670052300D704930680FA2300D7048D
:10025400010001008346B70493E60608A305D7040A
:1002640023000704732700809C43A18BD98F7390CC
:10027400078023A001840100010082809376050495
:10028400638B06140347A700418B25E7732700807F
:10029400218B09CB7327008023A0E18498435D9BC5
:1002A40073100780010001003717004093067005A2
:1002B4002300D704930680FA2300D7040100010029
:1002C4008346A70093E606012305D700230007040D
:1002D400F32600809843218B558F7310078023A049
:1002E4000184010001001307007D010001007D1756
:1002F4006DFF73270080218B09CB7327008023A017
:10030400E18498435D9B7310078001000100371757
:100314000040930670052300D704930680FA230057
:10032400D704010001009376F50193E60604231433
:10033400D700010001000100010023000704F32697
:1003440000809843218B558F7310078023A001846C
:1003540001000100130760046310E50473270080A3
:10036400218B09CB7327008023A0E18498435D9BF4
:1003740073100780010001003717004093067005D1
:100384002300D704930680FA2300D7040100010058
:10039400B72600400946B5B573270080218B09CBE9
:1003A4007327008023A0E18498435D9B731007802A
:1003B4000100010037170040930670052300D7049D
:1003C400930680FA2300D70401000100B7260040F9
:1003D400130620053DB573270080218B09CB7327B5
:1003E400008023A0E18498435D9B73100780010083
:1003F400010037170040930670052300D7049306C5
:1004040080FA2300D704010001008356870093E695
:10041400060C2314D700C5BB411181460146814512
:10042400114506C6152CF3270080A18B9386018401
:1004340089CBF327008023A0F1849C42DD9B739039
:10044400078001000100B7170040130770052380DF
:10045400E704130780FA2380E7040100010003C7BF
:100464006704136717002383E704238007047327B3
:1004740000809C42A18BD98F7390078023A00184B4
:1004840001000100B240410182808146014681455C
:100494001145D922F3270080A18B1387018489CBCE
:1004A400F327008023A0F1841C43DD9B7390078015
:1004B40001000100B7170040930670052380D7049C
:1004C400930680FA2380D70401000100FD56239689
:1004D400D70223800704F32600801C43A18BD58F09
:1004E4007390078023A0018401000100F32700809A
:1004F400A18B89CBF327008023A0F1841C43DD9BCF
:100504007390078001000100B7170040930670053F
:100514002380D704930680FA2380D70401000100C6
:1005240083C6670493E616002383D7042380070455
:10053400F32600801C43A18BD58F7390078023A0E2
:1005440001840100010001A0BD473305F50201004B
:100554007D1575FD8280411122C426C206C6AA8477
:10056400014463179400B2402244924441018280C2
:1005740005041305803E4204C13F4180DDB7B7172F
:100584000040130700032388E702854723A4F1846E
:1005940073002030411106C6A92DFDBF230304803A
:1005A40015472303E48001002302A480828083078B
:1005B4006480E3CE07FE2303048082808307648083
:1005C400E3CE07FE03454480828083076480E3CE44
:1005D40007FE2302A4808280411126C44AC24EC071
:1005E40006C61377F50BAD47AA892E899544630691
:1005F400F70019456537653F8D444E854537FD59EC
:10060400FD1463983401B240A24412498249410165
:100614008280135509011375F50F453F2209CDB7A3
:10062400011126CC06CEB704080051371545BD3755
:10063400713769372AC6A53F32459377150089EB90
:10064400136515001375F50FF240E24405618280CD
:10065400FD14E9FC0145CDBF397126DC4ADA4ED8D8
:1006640052D656D45AD25ED006DE62CE66CCB7E7F6
:1006740000E07D5783AA070022C603AA470023A0EF
:10068400E71823A2E718B717004013077005238063
:10069400E704130780FA2380E70483C74704930B16
:1006A40075FFB684E20793FBFB0F8546AA892E8B60
:1006B400328937240040E187015763FA76016308E1
:1006C400D5008946130700026313D5000157D98F5B
:1006D40093F7F70FB71C00402382FC041147230350
:1006E400E4801305F00F5D3D094CD135636D7C1139
:1006F400B7050700DA9537870700795563F2E504F3
:10070400B3879500636EF702370B0800A94733EBF4
:1007140065016399F90689E48144513D26850DA05C
:10072400DA850945553D05090345F9FFFD14050B17
:10073400693D81C49377FB0FFDF7DD3569FD7D5578
:10074400B7170040130770052380E704130780FAE6
:100754002380E70403C74704418B2382E704F25054
:10076400B7E700E023A0571123A24711E254324413
:100774005259C259325AA25A125B825B724CE24CF1
:1007840021618280A5476395F90685691309F00FF5
:10079400B3069900B3742B01B6941349F9FFB374EB
:1007A4009900856B33796901416B9387F9FFB3F73E
:1007B400270199E363FC340193D94900C147E3E677
:1007C40037FF99BF0569C1697D19D9B71305800D34
:1007D4006388690113050002638479011305100815
:1007E400CA85DD3B353D21DD4E99B3843441D9B70B
:1007F400DA852D45D533CA94E30099F205097D3B8A
:10080400A30FA9FED5BF9387F9FF93F7F70F636191
:10081400FC0C83C71C0413073008631FF704370755
:100824000800636BEB04B3079B00B706100063F585
:10083400D704334BEB0089476393F9068980D54984
:10084400E38C04ECDA850945413B11090327C9FF10
:1008540091472320E48003076480E34E07FE2303CB
:100864003481FD17EDFBFD14110B81C49377FB0F4D
:10087400E9FF7D3371F5E1B5B717004003C75704AD
:10088400B70708001377070219E3B78707007955FC
:10089400E378FBEA33079B00E3FFE7F855B58547A8
:1008A400E382F9F2DA852D45053B9389F4FFE3856C
:1008B40004E6293393F7390091EB83260480032758
:1008C400090093074900E39AE6E43E89CE84F1BF28
:1008D400B5476396F9001305900BC93135BDB1478F
:1008E4001305B00AE38BF9FE99476391F904B70540
:1008F4000800B365BB002D45C53181448D4BA1492A
:10090400753963967401832704802320F9008504D4
:10091400E39834FF8327048013172B0163550700E2
:100924002312F900D5BB2322F900FDB39D47639937
:10093400F90281451305B0044531BD442320090063
:1009440023220900FD599D3993F77400CA9703C700
:100954000700FD14398D2380A700E39634FF6DBB97
:10096400A1476392F9046D398144630D0B008D47EF
:100974009304C0036308FB009304000563048B0124
:10098400930440041375C507E30895D81945393114
:1009940039390545213126850D3909453D3149311E
:1009A400E31C05D669BB91476399F90013056006FA
:1009B400F536F53E130590090DB7E38F09D4F154CC
:1009C400A9BB19CD91CD09CE81473387F500834664
:1009D40007003307F50085072300D700E317F6FE69
:1009E400828019C991C909CA910583A7C5FF110558
:1009F4007D16232EF5FEC5BF828001C919C62A962D
:100A04000505A30FB5FEE31DA6FE828081473307CB
:100A1400F5000307070019E33E8582808507C5BFFB
:100A240001112E8626CAAA84131506019305F00423
:100A3400418122CC06CE32C6EF00F0592A8401C58A
:100A44003246A685BD3F2285F2406244D244056108
:100A54008280854715C18DC105C28147B306F50063
:100A64003387F50083C60600034707006398E60052
:100A74008507E315F6FE85473E8582808147EDBFF5
:100A84009307F6FFBE952A966313C5008280FD1571
:100A940083C715000505A30FF5FEFDB7AA87014519
:100AA40081CF09CE3E96850703C7F7FF6317B700CA
:100AB400E39BC7FE0545828082800145828079716F
:100AC4009387418722D4804306D626D24AD04ECE7D
:100AD40052CC56CA5AC85EC65DCCB7C4C901014BD4
:100AE4009389C1869384F437173A0000130A8A174E
:100AF400973A0000938ACA1A173900001309891E0D
:100B04008357240085E35C44631B0B0023AAF1860E
:100B1400832BC4002285EF0070585E84B9A8232675
:100B2400FB00FDB783A7090082971C443307F540F7
:100B34006376F500032749001D8F2A9763E0E408D4
:100B44009737000023A607168355240003450400A5
:100B5400973000E0E78080A35C405844A1CB0C446C
:100B640003264900AE97BE8663E4B70063E4C7007A
:100B7400B386C74014C4228B3A8459F097370000D7
:100B8400938707129C4B09476370F706F9171737C9
:100B94000000232FF710B250225492540259F24904
:100BA400624AD24A424BB24B4561828063150B00C4
:100BB40023AAE186B1BF2326EB0099BF03274A028B
:100BC40009CF63EFA7003385A74083A70A016376A3
:100BD400F5009737000023ADA70C228B404471BF6A
:100BE40003274900BA97C5B79737000023A2070C1B
:100BF4005DB7411122C4173400001304E40C1C40F7
:100C040006C626C24AC091C782979737000023AD13
:100C1400070A9737000083C7F724858B97340000B1
:100C24009384042495C397370000A38D072283C7B8
:100C340074001547637AF700C12B83C77400F51756
:100C44008A07A2979C4382971C4491C38297138975
:100C540001860327090017360000034676049737F8
:100C6400000083C7E70393961700BA9683D606005D
:100C7400C5CE9737000083C7A70263E1C70C973737
:100C84000000238F07001C4063950712973700006C
:100C940083C7971D91CF83C7740093F7F70F89EB30
:100CA40097370000A382071C976001E0E780405853
:100CB4009387C1869C43638E070E97370000938702
:100CC4006702DC43173700002324F7FECD3B973738
:100CD4000000938727F9DC53E9CF17370000130787
:100CE40027FC184B9737000083C717F96363F70C89
:100CF40083C774001547636EF70A9737000083C7EC
:100D0400A71A918BDDE7032609009736000083C6F6
:100D140036F963C6D70A2244B240924402494101DB
:100D2400173300E0670003CE850793F7F70F973674
:100D340000002387F6F6E3E4C7F225BF86073E9753
:100D44008355070023100700239401869387818726
:100D54009C43173500000345A5F413172500BA97E3
:100D64009C43829783D7818617370000034747F354
:100D740093C7F7FF7D8D93171700032709003E974C
:100D8400835707005D8D2310A7009737000083C7A2
:100D940027F191C78507173700002303F7F01737AA
:100DA40000000347E7EF9737000083C777EFE37846
:100DB400F7ECB240224492440249410182801397E5
:100DC40017003297035707006DF7850799B7AD678A
:100DD40037C70040BD072326F7200F1000009737C0
:100DE40000009387E7EBC84F83278726BD66BD06BF
:100DF40093C7F7FF99836A052326D7205D8D8280E8
:100E04004111B7170040985F3AC6945F3247E39C9C
:100E1400E6FE3245410182801305F00F8280011104
:100E240022CC604126CA4AC84EC652C406CEAA8401
:100E34001D4A130965058549BC446364F4000545EE
:100E4400B9A003C7D40083474400631A470503C706
:100E540084026304F7000040C5B70347540083C706
:100E64005405E31AF7FE1946CA8513056400D536FE
:100E7400E31335FF0347C40083C79402E31DF7FC63
:100E84000357E40083D7A402E317F7FC0145F240BB
:100E94006244D2444249B249224A05618280E31C39
:100EA400F7FA0347540083C75405E316F7FA1946C3
:100EB400CA8513056400713EE31F35F9C1BF0111F2
:100EC400973700009387070622CC03A4070C26CA91
:100ED40006CE2AC42EC6854419E40145F240624474
:100EE400D244056182808347910003471400858BB7
:100EF4006304F7000044CDB719469305A100130518
:100F04002400813EE31895FE0545C9BF1387C193AC
:100F14001C439306001094C301000100010001006A
:100F24001C4323A007008346150003482500A2069E
:100F34004208C29603480500C29603483500620879
:100F4400C29694D78346550003486500A20642081A
:100F5400C29603484500C296034875006208C296CB
:100F6400D4D7834695000348A500A2064208C2963A
:100F740003488500C2960348B5006208C29694DB14
:100F84008346D5000348E500A2064208C2960348FA
:100F9400C5000345F500C2966205AA96D4DB83C654
:100FA400150003C52500A2064205AA9603C505003F
:100FB400AA9603C535006205AA9694CF83C6550048
:100FC40003C56500A2064205AA9603C54500AA9674
:100FD40003C575006205AA96D4CF83C6950003C5E0
:100FE400A500A2064205AA9603C58500AA9603C5D4
:100FF400B5006205AA9694D383C6D50003C5E5005F
:10100400A2064205AA9603C5C50083C5F500AA96A3
:10101400E205AE96D4D3D443F59AD4C3D44393E62D
:101024001600D4C3944393E6160094C3BA8794433A
:10103400D842058B59E3984E01452300E6009843B6
:10104400184F2183A300E6009843184F41832301DE
:10105400E6009843184F6183A301E6009C43D84FF0
:101064002302E600D84F2183A302E600D84F418330
:101074002303E600D84F6183A303E60098532304B7
:10108400E60098532183A304E60098534183230583
:10109400E60098536183A305E600D8532306E600CF
:1010A400D8532183A306E600D85341832307E600DF
:1010B400DC53E183A307F600828001008DBF138710
:1010C40001941443411122C49C5E4AC006C699830C
:1010D40026C2858B3A841389C193D1C79C5E973409
:1010E40000009384E4D793F7F7F99CDE17370000E8
:1010F400034767D793070008631BF700832709009A
:101104009C4393F7070417370000230EF7D483C7D3
:10111400040093F707048DC39387C1869C43829789
:101124009737000023A6A7D483C7040093F7F70BCF
:10113400173700002306F7D283C7440093F7070448
:101144009DE3854717370000A30EF7D09387C1941A
:101154009C43096798C7130700FC97360000238354
:10116400E6D0D844F8D31C40985F1183058B09CB93
:10117400985F3D9B98DF0547973600002384E6CEB1
:10118400985F1D83058B11CB985F1377F7F798DF72
:101194008547173700002307F7CC83270900D84376
:1011A4000583058B19C7D843759BD8C3D843799B4E
:1011B400D8C3B24022449244024941018280397129
:1011C40006DE16DC1ADA1ED82AD62ED432D236D04F
:1011D4003ACE3ECC42CA46C872C676C47AC27EC0F3
:1011E400F93DF250E2525253C2533255A2551256AF
:1011F40082567247E2475248C248324EA24E124FBC
:10120400824F2161730020309387C19494439737B0
:1012140000009387E7C403C70700058B11CB9737FA
:101224000000238107C497370000A38D07C2828082
:1012340003C71700058B65F7F85271FF83C7570082
:10124400DDB713880194032708001C5F9583858B01
:10125400D1E709C61C5BBD832300F60085CA83273A
:101264000800985B4607935767016356070093E7A6
:1012740007C0C207C18303970600C207C18709C715
:10128400BA970947B3C7E7022390F60085CD834791
:1012940015008DCB9736000083C6E6BC93F6060492
:1012A4001387970089478DCA3A95034705008546F9
:1012B40099471376F7066311D60262076187B94727
:1012C400634C0700832708009C5FED838D8B1737E1
:1012D4000000A30CF7B881473E8582808547EDBFA7
:1012E400411122C406C61384C19418402DE9AE8767
:1012F4007453FDFE3E85B28597370000238307B6FD
:10130400976001E0E78000C8938701949C43B70687
:1013140080009843558F98C3D857719BD8D7973777
:101324000000A38107B497370000A38B07B21C40C9
:10133400094798C3144017370000130767B283475F
:101344002700858B89EB83473700858BD9C3973773
:101354000000238907B0B2402244410182808D47B6
:10136400631EF500938701949C43B706800098435D
:10137400558F98C3D857719BD8D76DBF8547E31B4A
:10138400F5FA5447F977FD17F58F5CC70F10000085
:101394001C40096798C7130700F817360000230399
:1013A400E6AC138701941043184231830D8B11E787
:1013B40013076019F8D3D4C7B5BF1842094631835F
:1013C4000D8B6315C7001307E043EDB71307E01B4C
:1013D400D5B7FC52ADF741B75D71A2C4A6C22A8449
:1013E400130680022800AE849305100886C6CAC07E
:1013F4004EDE52DCEFF06FE03545976001E0E780A8
:10140400C0F413830194832703009376F41F138E8F
:10141400419523A40700984B938EC194370FFCFF8A
:101424001367F70398CBF84F130510F8B7020400BD
:10143400137707E0558FF8CF9843F576FD16758F2F
:1014440098C39843B7063300930380251377F7E7CF
:1014540098C3984311497D1F1377F7E71367071063
:1014640098C303270E008549930F80021C47D58F2C
:101474001CC783A70E001307900D3400B8CB014797
:1014840093553700A69583C7050013767700B3D725
:10149400C740858BE1C38327030083280E00239C68
:1014A40007042390070603A8C8021378D8FF23A6CD
:1014B400080383A807001378F70793F808F833E8BC
:1014C400080123A0070103A847023368580023A298
:1014D400070383A80E00014823A2780603DA07064F
:1014E4006307480303A80703038A06001358F80098
:1014F40062081358884163580A0103A80703135864
:10150400F8002380060103D807061378F80F03AA0E
:10151400480663060A0003DA8705E37F49FB03A84C
:1015240047023378E80123A2070383870600635C3C
:10153400F40003C805003396C9001346F6FF33765A
:1015440006012380C5003E8663D3A7002A861315AF
:101554008601618505071377F70F8506E312F7F314
:10156400B640264496440649F259625A6161828023
:101574009386C1949C42D8471316170163550602FB
:10158400984713161701635006027D57B8D71727DB
:1015940000001307E770584F050717260000232F94
:1015A400E670116798C798470D83058B1DC31737DD
:1015B40000000347078B1367170017360000230248
:1015C400E68A130700F817360000230DE688214742
:1015D40098C79847058B09CF1737000003475788EA
:1015E4001367170017360000A30CE686054798C753
:1015F40098470983058B09E798470583058B21CF15
:101604009847173600001306A685138501940983AD
:10161400058B630307101841184331830D8B75EB59
:10162400AC4B184E93F5050203471700CDCD79EF67
:1016340013077006D8CF0347060013671700173641
:101644000000230FE680114798C718415C57F19BAF
:1016540093E717005CD79C4298479316370163D6EB
:1016640006029736000083C66693C18A17370000C6
:101674001307478BC5CE03478707136707029736BF
:101684000000238DE690056798C7984793162701B5
:1016940063D10602172700000347C77C62076187EE
:1016A40063570700054797260000238DE67A0967EC
:1016B40098C798479316070163D606029736000029
:1016C40083C6D68D858A173700001307A785ADCE4C
:1016D400034797071367270097360000A380E68C1B
:1016E400216798C7828029D785456315B7001307FA
:1016F400B00689B789456315B7001307F0061DBF07
:101704008D456315B700130730072DB7130750072E
:1017140015B71307600739BF03473600136717006F
:1017240017260000A30FE672094739BF83468707CF
:101734000946BD8A6388C600034787078D463D8BEB
:10174400E313D7F4114725BF83469707918AC9DA73
:10175400034797071367870041B7397106DE16DC24
:101764001ADA1ED82AD62ED432D236D03ACE3ECC6D
:1017740042CA46C872C676C47AC27EC0D53BF2500D
:10178400E2525253C2533255A255125682567247F0
:10179400E2475248C248324EA24E124F824F216154
:1017A400730020309387C1949843856793870777A4
:1017B4007CD3938741959C4383A6070913965600CF
:1017C4006358060083A6070913966600634406005F
:1017D4007453FDF2828061C1AA870145DDCD8D0776
:1017E400C207C183F19BC207C18313074003636B24
:1017F400F7021387019E08431387819D1443639660
:10180400A602172700001307E745185B014551C7D7
:101814004111C20706C60545DD8D0297B240014558
:10182400410182801387C19DF9B70357650035E3F1
:1018340003574500636FF704B306F7402146637C02
:10184400D60203280500938687001D8FAA96611788
:1018540017260000035626452392E60023A006011E
:101864002393060014C12312F500130786FF97265D
:101874000000239AE6422313B5009725000083D580
:101884008542B387F54017270000231EF740210542
:1018940082800841ADB701458280828009CD93875B
:1018A400019E03A307009387819D83A807008146B7
:1018B4009A8763E31701828003A807006369F50A26
:1018C4006367A80A13878700E367E5FE03D667000A
:1018D400216705076317E60003C7C1900507238640
:1018E400E190972500009385A53B03D6470003D7D5
:1018F40065002393070032974207418317250000B0
:101904002313E53A638867021385C19D0841630385
:10191400F50203D5660019ED83D7460023A006011E
:1019240021073E9621062392C60097270000239C98
:10193400E736B6879843E30017F99386C19D94422E
:10194400E30BD7F683566700BDF683D647000356EC
:1019540047001843A106B2962392D70098C383D7B1
:101964006500A10717270000231FF7328280BE8677
:10197400C28781B70327851163020712411122C46C
:1019840006C68347C5008345E5042A8493F7C70F39
:101994002306F500834697000356C7001395860176
:1019A400618563F2C508635B05060345870093F60A
:1019B400F607A304D700054693E627006314C50081
:1019C40093E617002306D4005C4389075CC3A30A8B
:1019D400B400032504112E864C430905EFE07FFE75
:1019E4008327841103465401D44303D7C700B29616
:1019F400118FD4C32396E7008947A30DF40003474E
:101A040064039727000083C707276378F704834795
:101A1400C40093E707012306F40081A093E71700AD
:101A24002306F4006DB79376F60F635D0502034554
:101A34008700854513E627006314B50013E61700F5
:101A44002306C400A30AD400A30407008547A30DFA
:101A5400F400832784119C43DDF3B2402244014502
:101A64004101828093E717002306F400A30AD400FF
:101A7400A3040700032504114C430905EFE07FF498
:101A84008327841103465401D44303D7C700B29675
:101A9400118FD4C32396E7008D4755BF0545828037
:101AA4009387819F9C43411122C406C6858B2A8457
:101AB400C5EF4165130525F5971002E0E78060C87E
:101AC40045C58347A5002315F50083270412BDE708
:101AD4002320A4122322A41285472311F4042320D3
:101AE40005008347640154412316F5000347D400DD
:101AF4002304E5000547A304E500172700001307A6
:101B04002736184F1385170215811C437D1513754D
:101B1400F50F9CC25C43DCC21C479CC65C47DCC618
:101B24001C4B9CCA5C4BDCCA1C4F9CCE5C4FDCCE6D
:101B340019CD9386060213070702C1BF83274412F7
:101B440088C3835724042322A412850779B79727CF
:101B5400000083D7A73D8507172700002318F73C0B
:101B6400B2402244410182808347C4002309040017
:101B7400054593C747002306F400DDB78347850175
:101B840093F7E70FC5EF83479501CDEB0346250196
:101B94008346C50009CA8345650317270000034728
:101BA400970D63E7E50013F7060151CB014709C61A
:101BB400C18A0357651C81C68356A51C369741C349
:101BC4001307C7121725000003554512B335A702A2
:101BD40037460F00411113060624814622C426C24B
:101BE40006C67D543305A702974002E0E78060AE45
:101BF4009727000083C79708B384A700972700009E
:101C04009387473203A787098327070963F387006C
:101C14003E84184375FB9387C1869C438297814712
:101C24006364A400B307A440B2402244B3B797004E
:101C340093C7170092443E854101828081473E85C7
:101C440082809387C19498437C53FDFF828079718D
:101C540026D206D622D44AD04ECE52CC56CA5AC820
:101C64005EC68347550303447513AA843E941374D4
:101C7400F40F9307400263F687001304B4FD137452
:101C8400F40F03AA841383AAC413A38B8412228699
:101C94005285D685974002E0E780209E058915E5A8
:101CA40003CBD41201498149337B6403930B500263
:101CB4004A865285D685974002E0E780009C0589D4
:101CC40015C5639169031374F90F238B8412B25001
:101CD400225492540259F249624AD24A424BB24BBC
:101CE400456182808509E20993D989410509E31197
:101CF40079FDE1BF8327850903560504797193D6DD
:101D04000701BD8EC206C182358E135776409357A4
:101D14005640898B058B5D8F93573640918B5D8F31
:101D240093571640A18B5D8F93171600C18B5D8F5F
:101D34009317360093F707025D8F93175600935558
:101D4400860093F707041E065D8F1376F60F518FF6
:101D540093D7554013D63540118A898BD18F13D62A
:101D64007540D18F13D61540218AD18F1396150053
:101D7400418AD18F1396350013760602D18F1396BC
:101D84005500137606049E05D18F93F5F50FCD8F7C
:101D9400A20745465D8F3307C70222D42A8426D280
:101DA40052CC56CA032A8413832AC4135AC806D6AB
:101DB4003697420741839357774013555740098913
:101DC400858BC98F135537401189C98F1355174017
:101DD4002189C98F131517004189C98F131537003D
:101DE40013750502C98F1315570093558700137592
:101DF40005041E07C98F1377F70FD98F13D5354004
:101E040013D755401189098B498F13D57540498FD4
:101E140013D515402189498F139515004189498FA0
:101E24001395350013750502498F139555001375E5
:101E340005049E05498F93F5F50F4D8F2207D98F21
:101E4400B387C7024AD04ECE5EC662C4B697C207F5
:101E5400C18313D7774013D557400989058B498F20
:101E640013D537401189498F13D517402189498FDC
:101E7400139517004189498F13953700137505028F
:101E8400498F1395570093D58700137505049E0752
:101E9400498F93F7F70FD98F13D5354013D7554092
:101EA4001189098B498F13D57540498F13D5154076
:101EB4002189498F139515004189498F1395350060
:101EC40013750502498F13955500137505049E0576
:101ED400498F93F5F50F4D8F2207D98FB387C7022A
:101EE400130650025285D685B697BD8E939406018B
:101EF400C18033F6C402137BF60F973002E0E7800B
:101F0400C07705890DED8347D41201498149B38413
:101F14009702130C5002C1804A865285D6859730A9
:101F240002E0E78080750589937BF90F11C563860C
:101F34003403850993F9F90F0509E31F89FD230B80
:101F44006413B250225492540259F249624AD24A5A
:101F5400424BB24B224C456182805E8BCDB7797186
:101F640022D406D683C735002E8423160100A30786
:101F7400F10083C74500100802C02307F10083C79E
:101F840055008A8502C2A306F10002C402C802CA2F
:101F940002CC02CEEFE09FF70347F1018347040030
:101FA40001456310F7020347E1018347140001452B
:101FB4006319F7000345D101834724001D8D1335B0
:101FC4001500B25022544561828001119727000008
:101FD400938747F522CC03A4870C26CA4AC84EC669
:101FE40006CEAA8413092500854915C083C71400A9
:101FF40003473400858B6304F700405CFDB7194642
:10200400930544004A85EFE0DFA4E31835FF2285F9
:10201400F2406244D2444249B2490561828041118E
:1020240097270000938707F022C403A4870C26C2D5
:102034004AC006C693042500054901E82285B2403A
:1020440022449244024941018280A6851305A402D8
:102054003937E30525FF405CCDB7411197270000D0
:10206400938747EC22C403A4870C26C24AC006C641
:1020740093042500054901E82285B2402244924494
:10208400024941018280A6851305A401C93DE305E7
:0820940025FF405CCDB7000000
:10209C00971100209381C195176100201301C1F5A0
:1020AC001305400097E5FF1F938505F517060020E3
:1020BC00130606FE63FAC5008322050023A0550013
:1020CC0011059105E3EAC5FE17550200130585714C
:1020DC00970500209385C5FB1386018463FAC50020
:1020EC008322050023A0550011059105E3EAC5FEE6
:1020FC0013850184972500209385C5F46377B5007B
:10210C00232005001105E36DB5FEFD42739002BC62
:10211C008D4273904280930280087390023097E254
:10212C00FF1F938262ED93E232007390523097124C
:10213C0000009382620273901234730020303D438E
:10214C002A876373C3029377F700BDEFADE59376EF
:10215C0006FF3D8ABA960CC34CC30CC74CC741074B
:10216C00E36BD7FE11E28280B306C3408A06970266
:10217C00000096966780A6002307B700A306B70059
:10218C002306B700A305B7002305B700A304B700C7
:10219C002304B700A303B7002303B700A302B700BF
:1021AC002302B700A301B7002301B700A300B700B7
:1021BC002300B700828093F5F50F93968500D58D9B
:1021CC0093960501D58D61B7939627009702000071
:1021DC0096968682E78086FA9680C1171D8F3E966A
:1021EC00E374C3F8A5B7B717004003C77705137797
:1021FC00E70FA38BE704130700F8A38DE7043D4713
:10220C00238CE70413075003A38CE704828041114D
:10221C002A83014E930E407E130F0019930F400634
:10222C0063E66E149308001913034006B378150384
:10223C00854E0D4FA14F337365020D891335150073
:10224C0063E0BE161308F6FF7946729842081358DD
:10225C0008013307C70213D61700BE073297614631
:10226C00B3F6C60213068070B386C6023697A16613
:10227C00F58F42075D8FB716004083C7F60293F7C0
:10228C000708A307F1000346F10083C7F60293F792
:10229C000708E394C7FE8347F100B716004093F795
:1022AC00F70F63890714F3270080A18B93860184B1
:1022BC006398071401000100B7170040130670055E
:1022CC002380C704130680FA2380C7040100010091
:1022DC0023AA070303C6170313660608A388C702BD
:1022EC0023800704732600809C42A18BD18F7390AE
:1022FC00078023A00184010001001166B71500407E
:10230C007D16DC59C85DA98FF18FE5FFF32700809E
:10231C00A18B89CBF327008023A0F1849C42DD9B09
:10232C007390078001000100B71700401306700579
:10233C002380C704130680FA2380C7040100010020
:10234C00D8DB03C7170313670704A388E7022380AE
:10235C000704732700809C42A18BD98F7390078050
:10236C0023A0018401000100410182807D133368A8
:10237C00E3039308E016630E08003368F303930835
:10238C00D016630808009378330093B8180093882C
:10239C00D81633081E01131E0801135E0E0149B531
:1023AC006393E50305486386080001486303030053
:1023BC002A8871087298FD15131E0801C205135E58
:1023CC000E01C181B5BD13F8150063F4BF00790887
:1023DC00D5B713381800E5BF83C7F60293F7070883
:1023EC00A307F1000346F10083C7F60293F7070831
:1023FC00E394C7FE8347F10093F7F70FF1DF65B560
:10240C00F327008023A0F1849C42DD9B739007800E
:10241C0055B5914763EEB70217570200130787991A
:10242C008A05BA959C41BA978287B717004003A7D3
:10243C00470B1345F5FF698F23AAE70A03A7070B80
:10244C00698F23A8E70A03A7070A798D23A0A70A97
:10245C008280B717004083A6470B1347F5FFF98E10
:10246C0023AAD70A83A6070B558D23A8A70A83A6F0
:10247C00070A758F23A0E70A8280B717004003A7CD
:10248C00470B498F23AAE70A03A7070B1345F5FF50
:10249C0045BFB717004083A6470B1347F5FF758F51
:1024AC0023AAE70A03A7070A598D4DB7B7170040AF
:1024BC0003A7470B498FEDB7914763EEB702175748
:1024CC000200130767908A05BA959C41BA978287D8
:1024DC00B717004003A7470D1345F5FF698F23AAD3
:1024EC00E70C03A7070D698F23A8E70C03A7070CBC
:1024FC00798D23A0A70C8280B717004083A6470DC7
:10250C001347F5FFF98E23AAD70C83A6070D558D1B
:10251C0023A8A70C83A6070C758F23A0E70C828039
:10252C00B717004003A7470D498F23AAE70C03A751
:10253C00070D1345F5FF45BFB717004083A6470DA0
:10254C001347F5FF758F23AAE70C03A7070C598DCA
:10255C004DB7B717004003A7470D498FEDB7B71715
:10256C00004003D7870109C5D98D239CB700828011
:10257C0093C5F5FFF98DD5BFB717004003D587007C
:10258C00420541819377050491EB9377F50137551B
:10259C00E801130505803345F50282809377050C1D
:1025AC00130700046397E7009377F50137459C1CEC
:1025BC00CDB72165130505D08280B7F700E08847B9
:1025CC00CC478280814737370040A14663C4C7009F
:1025DC00328582800345B740E38EA6FE3385F50035
:1025EC000345050085072304A740CDB797070020B6
:1025FC00938707C09C43172700201307A7A43E9579
:10260C00636EE500175700201307077F6368A70068
:10261C0017070020232EA7BC3E858280FD57EDBFF7
:10262C00411122C406C62A84813F2947B307E5021B
:10263C00B2408D83B3D7870222449507B3D7E70204
:10264C0037370040C207C1832316F740410182800F
:10265C00716541111305052006C6D937B7370040FF
:10266C00130770F82381E7400D47A381E740130758
:10267C000004A380E74005472387E740B2404101AF
:10268C008280411193962500AA852D4506C697E0B8
:10269C00FF1FE780E0FBB240014541018280411100
:1026AC0026C29394250022C44AC02A843289A68665
:1026BC00AA850146254506C697E0FF1FE78040F92D
:1026CC00A6864A86A285294597E0FF1FE78040F839
:1026DC00B2402244924402490145410182800111D9
:1026EC0022CC06CE3714004026CA4AC84EC652C465
:1026FC0083447405034AB40583498405034994054E
:10270C00DD348347A40593F4F40F137AFA0F93E79F
:10271C001700230DF40493F9F90F1379F90FB71778
:10272C00004003C7A705058B6DFF03D5C705A38D17
:10273C004705238C3705A38C2705A38B9704F24000
:10274C006244D2444249B249224A05618280411115
:10275C009397050122C406C6C1872E8463DD07004A
:10276C00EF00D03019C1EF0050292165218DB24006
:10277C0022444101828093F7150013C51500E5FB37
:10278C009397250163DF0700EF40D16837F602000D
:10279C00130606E0896503C54184EF00F0740965F2
:1027AC00F1B7939715010145E3D307FC17450200D8
:1027BC0013054567EF30624713060064916503C546
:1027CC004184EF007072116555B71D7149469745EC
:1027DC0002009385A56017550200130565B086CEDF
:1027EC0097E0FF1FE780602601E9174502001305FB
:1027FC002560EF30824301A0B7F600E0795798CA04
:10280C00FD57DCCA0567B7E700E023A0E710130605
:10281C00F00290C223A0E718010001001306C003C8
:10282C008145480897E0FF1FE780A01C9707002010
:10283C00938787C23ECA896793870780231CF10060
:10284C00A167938707E03ECEB70701149387071063
:10285C003ED09307B00F2312F102A1472303F102DC
:10286C0097070000938727E2BEC497070000938761
:10287C0047E3BEC6B7F5070097070000938727D438
:10288C0035473EDA814697070000938787E570004D
:10289C00E10519452304E102A305E1023EDE97E0C0
:1028AC00FF1FE780E0DA58088147994670003E9692
:1028BC000346060085070507A30CC700E398D7FE5F
:1028CC00D24791C70357810185676373F70001A055
:1028DC004808EF10C035AA8501C917450200130539
:1028EC006552EF30E22201A0F64025618280411151
:1028FC00170500001305E5E506C622C4EF10A02F4E
:10290C00138441842300A400292803450400224495
:10291C00B24037F60200130606E0896541016F00EC
:10292C00B05C411106C6F3270080A18B938601840D
:10293C0089CBF327008023A0F1849C42DD9B73900C
:10294C00078001000100B7170040130770052380B2
:10295C00E704130780FA2380E7040100010003C792
:10296C00F70213677700A387E70223800704732716
:10297C0000809C42A18BD98F7390078023A0018487
:10298C00010001001305407E814701478146054641
:10299C008545B538B240014541016F10A05D41112C
:1029AC00174502001305456906C6EF306216B240A2
:1029BC008547A387F18441018280B305B040174558
:1029CC000200130525726F30A2148347250035478A
:1029DC006366F72417470200130707458A07BA975F
:1029EC009C43797122D406D626D24AD04ECEBA97C1
:1029FC002A84828703C74185A54763E8E706034914
:102A0C004500930955008144138481A103C5418578
:102A1C0063E4A4060E0509051946CE85229597E0B8
:102A2C00FF1FE78080F983C54185939735008505A5
:102A3C0093F5F50F1386F5FFA2970E062296A38049
:102A4C002701238AB18483487600034866008347B4
:102A5C0056000347460083463600034626001745BA
:102A6C00020013052552EF30A20AB25022549254A0
:102A7C000259F249456182809395340089051946C3
:102A8C00A2954E8597E0FF1FE78020FC79FD850419
:102A9C0093F4F40FA5BF05041374F40F83C7418599
:102AAC00637DF4009315340089051946A6954A8573
:102ABC0097E0FF1FE78060F979DD83C74185639C50
:102ACC008702174502001305654EEF3002160146CA
:102ADC0085450D45238A0184EF80214D1745020061
:102AEC0013054549EF30621449B70144938481A121
:102AFC001389418065B7174502001305654CEF300B
:102B0C00C212938781A10E04930624003E940346BF
:102B1C001400BE9681450145EF80C145056613063C
:102B2C0006C89305001003C5A185EF00F03B1745BF
:102B3C0002001305E5497DB79305001003C5A18577
:102B4C00EF00905B83451400ADE10355A400894769
:102B5C00A38AF1842395A1808547A387F18403C6BA
:102B6C00A1859307700F6C002316F100EF50806065
:102B7C0013060064A14503C5A185EF00F0361306CA
:102B8C0000649305002003C5A185EF00F0350566B0
:102B9C00130606969305004003C5A185EF00D034BB
:102BAC00174502001305C54335BF17450200130531
:102BBC002544EF20F275174502001305A53BEF30B5
:102BCC00C206238A0184014685450D45EF80E13D0F
:102BDC0069BDA38A0184F9579305000803C5A18533
:102BEC002395F18023870184238A0184A3870184A0
:102BFC00EF00905083456400174502001305054112
:102C0C00EF201271174502001305C536EF30E201B3
:102C1C005DBF1745020013052541E9B582800111FE
:102C2C0022CC36C606CE2E84EF00D002B2463746F2
:102C3C000F00130606243376C50291CAB2851745D8
:102C4C0002001305254932C6EF20926C32462285CC
:102C5C006244F240814505616F90A14981E9B285DA
:102C6C0017450200130505406F20926A8547639D46
:102C7C00F500174502001305254009C6174502004B
:102C8C00130585406F20727A89476398F5001745C4
:102C9C000200130565407DD682808D47E39EF5FECC
:102CAC00174502001305454071DEB2851745020039
:102CBC001305C54055BF79719397050126D206D6E9
:102CCC0022D44AD0C187AE8463D3072603C5A1851D
:102CDC00712B2A840DC5034705009307000B631E57
:102CEC00F70083C7518509478345450013098500C3
:102CFC00638FE7004A85EF5030212285FD2921653D
:102D0C00258DB250225492540259456182800D4750
:102D1C006381E50205476390E50203478500631A6A
:102D2C00F7028345C5001745020013056513EF2014
:102D3C00325EA3870184034744009307F007631AAC
:102D4C00F70083558400174502001305E512EF20A8
:102D5C00325C834744002D476387E7020547639C39
:102D6C00E70203478400A9466311D7048345C400D6
:102D7C001745020013050511EF209259A387018412
:102D8C008345440085BF5C4417450200130585103C
:102D9C0083C50700D5B74D476393E702174502007B
:102DAC0013058511EF207268D1BFC9466315D70290
:102DBC008345C400174502001305C50E75BF6D474A
:102DCC00639BE7001387018518438357A400BA97C8
:102DDC0023A8F18475B703C7E1845DD385466319D5
:102DEC00D7081D47639CE7028357840085CB5C445E
:102DFC00174502001305450D83C5170003C63700A0
:102E0C0003C7070083C72700A2052206D98D5D8E54
:102E1C00239CB184239BC184EF20924F83474400B1
:102E2C001D476395E70403471400E947E39AE7F469
:102E3C0083D78185B1D72314F1009387618583D71C
:102E4C00070009472387E1842315F100F97793875D
:102E5C0027102316F100FD5703C6A1852C0003D5BE
:102E6C00A1802307F100EF50003B19BF05477DBF40
:102E7C0089466317D70625476392E7028357840078
:102E8C0091CF5844174502001305C5068347170018
:102E9C0083450700A207DD8DEF209247834744004E
:102EAC002547639DE70203471400E947E39AE7ECE3
:102EBC008D472387F1849387818583D7070023145B
:102ECC00F1009387618583D707002315F1009307E1
:102EDC0020202316F10093079002BDBF0547F9B7D8
:102EEC008D46E31FD7E825476390E704835784009A
:102EFC0085CF5844930500041306006483471700DC
:102F0C000347070003C5A185A207D98F2396F18437
:102F1C00A3870184EF00407D83D5C184174502004F
:102F2C001305C5FFEF20D23E2387018491BD93F793
:102F3C00150085C317F6FF1F1306461697F5FF1FDE
:102F4C009385051503C5A185EF70B17D13C51400DC
:102F5C004DBB93F7051081CB41657D15EF909172B8
:102F6C0013C5041079BB93F7850095C781572314BB
:102F7C00F100239B0184239C0184854783C6A18592
:102F8C0009462C0003D5A1802387F184EF50E0463D
:102F9C0013C58400BDB393F7050189CF13078025B2
:102FAC0081462946A94503D5A180EF90316D13C503
:102FBC00040181BB93F705409DC30147894609462F
:102FCC00814503D5A180EF90316EAA85174502008B
:102FDC00130545F8EF20D23313C504401DB393F706
:102FEC000504B5C383C7F184B9E79387C18483D73C
:102FFC000700014781462314F10009468947C9455A
:10300C0003D5A180231801002315F100EF50A0284F
:10301C002AC615C185472300F500B24703C6A18512
:10302C002C00A380070003D5A180EF50401F19E5A9
:10303C008547A387F18413C50404E1B1C945280071
:10304C00EF50806CCDBF93F705088DC303D5A180DD
:10305C00EF9091620566130606969305000803C56A
:10306C00A185EF00606813C5040861B993F70520CA
:10307C000145E38807C8938701858C4317450200F7
:10308C00130585EEEF20D22813060064930500206B
:10309C0003C5A18523A80184812D13C5042095B1F6
:1030AC00011117050000130545C106CE22CCEF0017
:1030BC0090341384A18585652300A400938505961F
:1030CC000945EF20300FA9451D45EF20B00EA9454D
:1030DC002145EF20300E930540063545EF20900D2D
:1030EC0085470D47700091451305F0402304F1000E
:1030FC00A304F1002305E100A305F10002C6EF9043
:10310C00E1253000854513058040EF9021251306FD
:10311C009100854513059040EF9041241306A100C2
:10312C0085451305A040EF9061231306B10085453A
:10313C001305D040EF908122EF60E00D03450400B1
:10314C00EF50D0390345040085450D29F240624407
:10315C000561828041111305800406C622C497D0F4
:10316C00FF1FE78080F291457D55EFF08FAA9145C6
:10317C007D55EFF06FB4371400408327C40A9305D4
:10318C000002FD572326F40A0327C40C0545232609
:10319C00F40CEFF0CFBC854513050010EFF0CFB168
:1031AC008327840C91451305002093E707202324E3
:1031BC00F40CEFF06FB0EFF0AFC917450200130538
:1031CC002512EF209226EFF04FE0EFF04FF2EF9048
:1031DC00F14DF93597D0FF1FE780403B23AC05FE3E
:1031EC001C4191E7010001000CC18280BA8703A742
:1031FC0087FF6DFF23ACB7FE82801DC18346E5FFC0
:10320C001307F00F9147639EE600411106C697E045
:10321C00FF1FE7802068B24081473E8541018280D4
:10322C0095473E85828001E9014582800145B24087
:10323C0022444101828095654111938505D022C4B9
:10324C00C98D2A842105C2054205C181418106C66A
:10325C0097E0FF1FE780A05771D9FD572320050089
:10326C00231285002303F5002105D1B71387C185EF
:10327C001C43411122C426C24AC006C6014401495E
:10328C00BA8489E7A1658D2D0DC401A803C7E7FF9A
:10329C006318A7021DC8A165D5249840832784FF15
:1032AC006317E40223AEF184FD57232C04FE230F95
:1032BC00F4FE2285B24022449244024941018280AC
:1032CC0011E03E8983A787FF6DBF3E84E5BF232CA9
:1032DC00F9FED9BFA1CD411122C406C62A84971785
:1032EC00002083C7379B2E856375F400894763E8FC
:1032FC00870021370D45B24022444101828083A7CB
:10330C0085FF99E703C7E5FF9307F00F6305F70007
:10331C00ED351545CDB7238F85FE1385C1857D3DD4
:10332C0022852244B240A165410189AC15458280B9
:10333C0023AE01848280938741879C4399E33E8529
:10334C00828003D727006316B70003C70700E30882
:10335C00A7FEDC47E5B7BDCD797122D406D626D2BF
:10336C004AD04ECE01444147B3D78540858BB1CF6F
:10337C001205314722953305E5029387418603A94F
:10338C0007008544B3948400C204C180BE892A9985
:10339C000327090011C7032549002EC60297B24521
:1033AC0031473304E40283A709003E941C4489E7A7
:1033BC002320090023220900B2502254A58D025962
:1033CC009254F2492E85456182800504E31EE4F88F
:1033DC008144DDB72E85828041111397050122C4EB
:1033EC0006C626C24AC041872E84635E0700BD3DD7
:1033FC0011C12135A1673D8C2285B24022449244F3
:10340C00024941018280EDD9AA8701474146B35652
:10341C00E440858A9DCA9207BA97B146B387D70212
:10342C009386418603A906008544B394E400C20444
:10343C00C1803E99832709000325490082972320E8
:10344C00090023220900258C45BF0507E311C7FCA1
:10345C008144D5BF97170020938707809C53411157
:10346C0022C406C61384C18099C782971C403E951E
:10347C0023A6A18029A09387C1869C43FDF7084011
:10348C00B74703009387D73F3305F502B7A726004C
:10349C00938737ECB24022443E9523A6A18041018C
:1034AC00828079C99387C1869C43797122D426D2B4
:1034BC004AD04ECE52CC56CA5AC806D65EC63A8AA6
:1034CC00B689328BAE8A2A89829793874186984334
:1034DC00BE840144B146C147B30BD4023306770115
:1034EC00104251E6C165938505F0414597E0FF1FF9
:1034FC00E780E02D1DE5970700209387E7759C5B1F
:10350C002D4589C71145814582972D45B2502254CE
:10351C0092540259F249624AD24A424BB24B45612B
:10352C0082809387418798431DEF23AAA1862300AD
:10353C0005009C40054733178700232605002324EC
:10354C0065012311E50023224501DE9723A0270105
:10355C0023A2570123A447010145E38909FA2380DB
:10356C0089006DB73E875C47F5FF48C7C9B70504AE
:10357C00E314F4F6214559BF0945828097070020D2
:10358C0083C75771637FF500138701869317150066
:10359C0008433E9583570500DD8D2310B50001458A
:1035AC0082800D4582809707002083C7B76E6371B8
:1035BC00F5021387018693171500084393C5F5FF91
:1035CC003E9583570500FD8D2310B5000145828083
:1035DC000D458280130705FF1377F70FFD4763E551
:1035EC00E70AB146B306D5029387418698438947CB
:1035FC003697184359CB011122CC4EC6054493592A
:10360C0045003D893315A40013140501418026CAD9
:10361C004E85AE84A2854AC806CE313B2A898147A5
:10362C0021CDA2854E8541379387C1869C438297D5
:10363C009707002083D7C76A338797022A8481466D
:10364C0013060064B3B7970213050732B335E500D0
:10365C00BE95EF200207B3078500970600209386DE
:10366C00A6673E87D44263E4A70063E4D7003387A0
:10367C00D7402324E9008147F2406244D2444249B6
:10368C00B2493E850561828089473E858280011161
:10369C0026CA06CE22CC4AC84EC6BD47894463ED25
:1036AC00A70231473307E502938741869C4389443F
:1036BC00BA979C4395C305443314A400420441803B
:1036CC002E890145A2858539AA89814411C5A28517
:1036DC000145D13D23A42901F2406244268542498B
:1036EC00D244B249056182809707002083C7975A5C
:1036FC006364F5000145828001119387C18656C22F
:10370C0083AA070006CE22CC26CA4AC84EC652C48B
:10371C00638D0A0A170A0020130A0A5C83244A00E4
:10372C00B74736FE938707C8AE899705002083D527
:10373C00255BBE94B387C5022A8432898146B3B512
:10374C00C50213850732B337F50013060064BE9526
:10375C00EF10327763EBA406829A9705002083D58D
:10376C002558B3872503AA84130600648146B3B594
:10377C00250313850732B337F500BE95EF1072742D
:10378C00B3079500BE8403274A0063E4A70063E4F3
:10379C00E700B384E740CE852285713E01C504C5A0
:1037AC0005452DA0936504F0C205C181414597E004
:1037BC00FF1FE780C00105E5970700209387C749E5
:1037CC009C5B81C7A285114582970145F2406244FA
:1037DC00D2444249B249224A924A05618280938777
:1037EC0041879C438DE323AAA186854723260500A8
:1037FC0004C52311350123008500A300F500232205
:10380C00050079BFBA87D84775FFC8C7F9BF49C942
:10381C00797122D426D24AD04ECE52CC56CA5EC62C
:10382C0062C466C206D65AC83689328AAE89AA8460
:10383C004144314C938A4186854C930B0003330BE6
:10384C00840303A70A005A971C43B1E79375F4004D
:10385C00B395BC0013554440C2055286C181137503
:10386C00F50F59350DC983A70A000145DA9784C3B2
:10387C0023A237016304090023008900B2502254AB
:10388C0092540259F249624AD24A424BB24B224CF0
:10389C00924C456182800504E31374FB2145F9BF0A
:1038AC0009458280411122C426C24AC006C62A8418
:1038BC002E89B284153DCA852285B53C05CD970568
:1038CC00002083D5E541B38795022A841306006452
:1038DC008146B3B5950213850732B337F500BE9513
:1038EC00EF10325E48C00145B24022449244024976
:1038FC00410182802145CDBF411122C426C24AC05C
:10390C0006C62A892E84EFF01FA3AA8419C123119D
:10391C000500A2854A8541399707002083C7873760
:10392C006397270183D781865D8C2394818601451B
:10393C0091E01945B24022449244024941018280EF
:10394C009307F00263E6A7044111B14722C4330484
:10395C00F50226C2938441869C4006C6A2979843E2
:10396C0089470DC39377F5008545B395F500C205DE
:10397C00C181118151379C40A29723A0070023A23B
:10398C0007008147B240224492443E854101828027
:10399C0089473E858280411106C622C4EFF0BF994B
:1039AC0011E50145B2402244410182809387C186D2
:1039BC009C4300458297970700209387E731636803
:1039CC00A402D843B74636FE938606C83305A440F6
:1039DC003697E378E5FC13070064B335E50203D6AC
:1039EC00870081463305E502EF10B24D65BFD84321
:1039FC003A94C1BF411122C426C2170400201304FB
:103A0C00A42D970400209384E4289448584093876D
:103A1C00C18606C69C43639FE60682975440B7470F
:103A2C0036FE938707C8B6973387A7003A85636439
:103A3C00F7006364D7003305D740970400209384C4
:103A4C0064419C4C91CB9387419594433707CDFFB0
:103A5C007D179C46F98F9CC611E1484097070020C2
:103A6C009387871FDC53829719E59C4C99CFEF30D5
:103A7C00714EEF30612B9C4C89CB938741959843C9
:103A8C00B70633001C47D58F1CC7B2402244924462
:103A9C0041018280829798489707002083C7171DA1
:103AAC0054401D8FB307A7003E8563E4E700E3E6AF
:103ABC00D7F83385D74051B7411106C623A8A18644
:103ACC000295B2409707002023A2A71E0145410191
:103ADC008280994763E9B7008A059707002093878E
:103AEC00E71DBE9588C1828041117146814517053D
:103AFC0000201305A51C06C623AA018623A801864F
:103B0C0023A6018697D0FF1FE780A0EE1306800244
:103B1C008145170500201305E51797D0FF1FE78097
:103B2C0040EDEF9001439707002083C7571413D53E
:103B3C0027008D8B3E958D473305F502854539055C
:103B4C001375F50F970700202387A71499473305A2
:103B5C00F5021305052497E0FF1FE78040C723A259
:103B6C00A18659C59947170600200346C61233068D
:103B7C00F60281451306062497D0FF1FE78060E705
:103B8C00938741869C439387072423ACF1861707C0
:103B9C000020034747100A07BA9723A0F186EFF0DD
:103BAC002FF9392B9387818794439707002083C77C
:103BBC00770E13972700369717F6FFFF1306E67953
:103BCC0010C3138717001377F70F0A0736971706DA
:103BDC0000001306A68010C313873700890793F7DC
:103BEC00F70F8A0797050020A386E50AB69790C3BE
:103BFC00B240410182809707002083C7B70917079D
:103C0C0000200347470963F1E702138781871843B4
:103C1C009386170017060020A30ED606939627004E
:103C2C00369708C33E8582809307F00FE5BF1C4191
:103C3C006388071641777D8FB7060020894763128A
:103C4C00D71603574500630E0714411122C41946B9
:103C5C002A849305F00F690506C697D0FF1FE780ED
:103C6C0060E305478D476308E5121C4481CB585827
:103C7C00994763020712185C630F07101306C00301
:103C8C00814517050020130525FD97D0FF1FE78000
:103C9C0040D61306C003A285170500201305C5FBEB
:103CAC0097D0FF1FE78060D117070020035787FBD1
:103CBC0097070020938747FA19E713070010970618
:103CCC0000202391E6FA170700200347C7F911E7F4
:103CDC000547970600202388E6F8170700200357AE
:103CEC00A7F811E76D4797060020239FE6F6170704
:103CFC000020034757F711E7154797060020A384C8
:103D0C00E6F617070020034747F611E70547970625
:103D1C000020238CE6F417070020034717F519E75A
:103D2C0003C7F70097060020A381E6F417070020CD
:103D3C000347C7F311E73547970600202388E6F2BF
:103D4C00170700200347D7F219E7130780029706DD
:103D5C000020A38FE6F017070020034737F119E77F
:103D6C001307D00297060020A382E6F003478401D4
:103D7C0019E71307C00397060020238BE6EE9C5728
:103D8C0091C7829797070020239AA7F0FD57A3832A
:103D9C00F19C993B8147B24022443E85410182808F
:103DAC0089473E85828001114EC697090020938970
:103DBC00A9F283A7090006CE22CC26CA4AC852C44F
:103DCC00829713090064B335250303DA8900814611
:103DDC00528633052503EF10D20E970700209387E8
:103DEC0067EB804FAA8401456306940233858440B7
:103DFC00636E940003A5490052868146B335A9022F
:103E0C003305A902EF10F20B018D269597070020C0
:103E1C0023AE97E8F2406244D2444249B249224A66
:103E2C0005618280011122CC0A852E84414697358A
:103E3C000200938525F706CEEF10324218080604CF
:103E4C003A94035504FF9707002083D787E9F24083
:103E5C006244AA9737450F00130505243355F50224
:103E6C00056182809707002083D7A7E751471D453E
:103E7C00637CF702794719456378F702130720032F
:103E8C0015456373F7021307B0041145637EF70001
:103E9C00130740060D456379F700130760090945C0
:103EAC006374F70013B5B70F8280011122CC06CED4
:103EBC002A842EC6EFF00FDAB245F240818D33A57D
:103ECC00A502229562441375F50F056182800111DC
:103EDC0022CC06CE2A842EC6EFF0CFD7B245F240C4
:103EEC00818D33A5A502229562444205418105616D
:103EFC008280011122CC06CE2A842EC6EFF08FD5FB
:103F0C00B245F240818D33B5A5022295624405611C
:103F1C00828097070020938727D4985739CB41117B
:103F2C0022C426C206C6BE84029717070020035778
:103F3C00E7D62A8415CBBA876373A700AA87C20772
:103F4C00C183BA866373E400A286C206C182958FD0
:103F5C005147635BF700DC5491C38297EF30816B60
:103F6C0097070020239C87D2B240224492444101FF
:103F7C008280828097070020938707CEDC5701113F
:103F8C0006CEAA8581C72AC68297B245C9C19C4173
:103F9C000545BDCBDC41ADCB83D78500B5C783D7F9
:103FAC00A500BDC383C7C500A5E341461705002086
:103FBC00130585D297D0FF1FE78020A0970700201C
:103FCC00938787D19C4323A6F1869707002083C74C
:103FDC0037CA8DE79307800217050020035545D09B
:103FEC003305F50237460F0013060624814681453A
:103FFC00EF10226D97070020A38CA7C617050000B1
:10400C001305A5DA553C0145F240056182809707FE
:10401C00002083C7C7C513978701618763540704C2
:10402C009707002023A607C897D7FF1F9387A7D908
:10403C00170700202322F7CA7D579707002023AFCC
:10404C00E7C8B7873200938727A19706002023A9DA
:10405C00F6C897070020238707C8B7C7004023A4DA
:10406C00E726A9BF13F7170005CFB787200393875F
:10407C0007D0170700202325F7C6B707C0A81707D6
:10408C000020232DF7C497D7FF1F9387E7D6170778
:10409C0000202323F7C497070020238507C439BFCA
:1040AC00617797060020239DE6C281CB93070032EF
:1040BC00170700202317F7C2C9B793072003CDBFFA
:1040CC00011122CC17040020130404B9084406CEB5
:1040DC0026CA4AC801E90545F2406244D244424925
:1040EC00056182805C58E5DB185C75D770008545EE
:1040FC0082971844B247E300F7FE9305E0041705D6
:10410C000020035525B697D0FF1FE780406C17079A
:10411C0000202321A7BA61D117060020035686B4CC
:10412C009305F00F97D0FF1FE780A08C81441709EF
:10413C000020130929B69707002083C7C7B20326AE
:10414C00090263C1F402328597D0FF1FE7808074A7
:10415C0001459707002023AF07B49707002023AD34
:10416C0007B49DBF9705002083D5C5AFB3879502D3
:10417C000844185C898185043E9508C2029765BF86
:10418C00011156C2970A0020938A0AAD83A78A00B0
:10419C0022CC4AC84EC606CE26CA52C45AC0AA89D8
:1041AC002E8432896385072203A74A036307071409
:1041BC007D476366A714970400209384A4AD03AADB
:1041CC00040263170A0A9565938515E0170500200C
:1041DC00035545A997D0FF1FE780605F9707002024
:1041EC0023AAA7AC2A86630A051083A74A0303A552
:1041FC008A009705002083D5E5A68981829783A73D
:10420C008A0003AA0402170700202327F7AA89476C
:10421C00639CF908C1476312F40E9705002083D5FF
:10422C0065A4938505FC9147B3C5F5028A05D29523
:10423C0003C705009307A005631DF70A83C7150084
:10424C006399370B4A852286910597C0FF1FE7803B
:10425C00C0769C505285639347150145F2406244E9
:10426C00D2444249B249224A924A024B05618280A9
:10427C00D850E38EE7F89565938525E01705002067
:10428C000355459E97D0FF1FE78060542A8A35C599
:10429C002A8683A74A0303A58A009705002083D5A5
:1042AC00659C89818297A5B78D47639DF900C147AD
:1042BC006315F4049705002083D5C59A938545FDB5
:1042CC00F199B5B79147639AF900631834039705D0
:1042DC00002083D52599A115E5B7C147639FF90047
:1042EC00A14763EC87009705002083D5A597C115DE
:1042FC00C1BF9C5052856397470D294585B713075D
:10430C00F006568B6361A70A130A05FE1947334A58
:10431C00EA02170700200357E794970A0020938AB4
:10432C006A97330AEA023E9A83A74A0263954701C9
:10433C0083A40A029DE49305E004170500200355AD
:10434C00659297D0FF1FE7808048AA845DD58327AC
:10435C004B039705002083D5E5902A8689815285E9
:10436C00829791451307A005898193972500A697FD
:10437C0083C607006393E60483C61700639C360369
:10438C0085058A052286A6954A8597C0FF1FE7807A
:10439C00C06283A70A02E38297EC268597D0FF1FA1
:1043AC00E780404F5DBD1307E007E368A7F4130AED
:1043BC0005F985B783D5270045BF83A70A02E38E8D
:1043CC0097F2268597D0FF1FE780C04C3DB7970723
:1043DC0000209387278C8C538DD191479306A00591
:1043EC008983139727002E9703460700E317D6F00F
:1043FC0003461700631C360185078A072286BE9583
:10440C004A8597C0FF1FE780405B81BD835727001B
:10441C00C1BF9707002093872784984739C79C5FB3
:10442C00A9C705476313E504411122C417040020F2
:10443C0013044486105006C60DC64850970500203C
:10444C0083D5458289818297085097D0FF1FE780DA
:10445C0060449707002023AF07849707002023AD03
:10446C000784B2402244410182808280011117F7F7
:10447C00FF1F1307677E4EC68329870022CC26CAEE
:10448C004AC806CE52C456C2AA842E843289638A84
:10449C0009201C5FBA8A99EB2945F2406244D24448
:1044AC004249B249224A924A056182805C5BEDD74F
:1044BC00FD4763E9A70E97F9FF1F9389A97D83A791
:1044CC000902B1CB03A58A0083A749026395A7060D
:1044DC0089476393F408C147E310F4FC17F5FF1FF9
:1044EC00035545789147130505FC3345F5029317A1
:1044FC00250003A509022286CA853E959307A005CF
:10450C002300F500A3009500110597C0FF1FE7805D
:10451C00C04A014559B79305E00417F5FF1F035531
:10452C00657497D0FF1FE780802A97F7FF1F23A39E
:10453C00A77849F995B783A74A0303A6090297F50B
:10454C00FF1F83D525728981829783A78A0017F76D
:10455C00FF1F2323F776ADBF8D47639EF400C14741
:10456C00E31CF4F217F5FF1F0355C56F130545FD4A
:10457C009377C5FFBDBF9147639AF400E31E94F097
:10458C0017F5FF1F0355056E2115DDB7C147E395E0
:10459C00F4F0A147E3E287F017F5FF1F0355856C94
:1045AC004115F9B79307F00663EAA706930705FED2
:1045BC001947B3C7E70217F7FF1F0357A76A17FA84
:1045CC00FF1F130A2A6DB387E702BE9983270A02DD
:1045DC00A9CF83274A02639A370703250A0291461B
:1045EC001308A005FD5593D72600C207C183139766
:1045FC0027002A9703460700631D06078348170008
:10460C000356270063959806B306D64063CF8604FD
:10461C0085078A072286CA853E95C5BD9307E007A4
:10462C00E3ECA7E6930705F979B79305E00417F5D2
:10463C00FF1F0355256397D0FF1FE780401997F79D
:10464C00FF1F23A9A76651F581BD83A74A03032643
:10465C000A0297F5FF1F83D5E56089814E85829705
:10466C0097F7FF1F23AA37658DBFA300B700B2864B
:10467C009DBFB385860017F6FF1F0356A65E9105F6
:10468C00130606FCE3FAC5E0130634001376C60FD6
:10469C001106B29623000701A30097002311D7003F
:1046AC0085BF97F7FF1F9387E75E9453BE89A1C21E
:1046BC0003A5090291461308A005FD5593D72600C2
:1046CC00C207C183139727002A9703460700631676
:1046DC000605834817000356270063989800B30615
:1046EC00D640E3D786F2A300B700B286C1BF83578A
:1046FC00C70017F5FF1F034505579305E004330565
:10470C00F5024205418197D0FF1FE780400C97F7D7
:10471C00FF1F23A1A75A49FD41B317F6FF1F0356EC
:10472C00665497F5FF1F83C50554B385C5023386C0
:10473C0086001106E3E2C5D681BF014582800111D6
:10474C0006CE2EC6EF80701F01C9B245F24003554C
:10475C00250005616FC0D052F24049450561828049
:10476C00A382018A2382018A23A6018823A80188B7
:10477C0023AA018823AC018823A4018823A20188E1
:10478C0097F7FF1F93874756370684033707B40004
:10479C0090D337C6070098C3130606B83747A00056
:1047AC00D8C3D0D33707100041669306070AB70564
:1047BC0050009308060194C723A4170393860501A0
:1047CC00930816F8D4C723A61703B706D007B70863
:1047DC007F001308070513850601410723A817035B
:1047EC00B0C3930816009386060513861500D8CB24
:1047FC00F8C323A8070188CF23AE070023AA170309
:10480C0023AC070223AE070223A40704F0C7B4CBE2
:10481C0023AA0704ACCF23AE0705B8D33707A000F3
:10482C00F8D71307000AB8DB1307C01CF8DB3707EF
:10483C001400B8DF0547F8DF130710F8E8D323A4FA
:10484C00070623A0070823A2E7088280011126CAC5
:10485C00AA84214522CC06CE2E8432C636C43AC256
:10486C00EFE07F9C1DC9A24612473246930700FD1C
:10487C002300F5009947A30095002301F5002303BD
:10488C00D500A303E5002312C500AA852285624446
:10489C00F240D24405616FE0FFA3F2406244D2447F
:1048AC000561828023A6A188828023A8A1888280AA
:1048BC0023AAA188828023ACA1888280011122CCFA
:1048CC004AC806CE26CA2A890144B3048900636803
:1048DC00B400F2406244D2444249056182802EC643
:1048EC00EFE05FB793170501C183A183B245238025
:1048FC00F4009307140093F7F70F850463F9B700DE
:10490C00CA9709042380A7001374F40F7DBF3E845B
:10491C007DBFC16717F5FF1F0355E545FD17630400
:10492C00F502411117F6FF1F034606529385C18904
:10493C0006C6EF80805FB240FD5717F7FF1F231CA0
:10494C00F74241018280828009C925151375F50F44
:10495C001335850E13451500828001458280239006
:10496C000500C9C6797122D426D24ECE52CC5AC873
:10497C0006D64AD056CA5EC63684328AAE892A8B8F
:10498C00814463F34407B307940083C7070013897A
:10499C0014004209939A070193DA0A011359090189
:1049AC0063840A04CA976341FA04B307240183CBD6
:1049BC0007005E85513F0DC99387FAFF2390F900DC
:1049CC0063906B03130519002295B2502254925434
:1049DC000259F249624AD24A424BB24B456182803B
:1049EC00D694C204C18071BF0145C5B70145828010
:1049FC00411126C2AE8422C497F7FF1F23A4C738E7
:104A0C0097F7FF1F23AEB73697F7FF1F23A8A736DC
:104A1C002A8441469305F00F26854AC006C60549EF
:104A2C0097C0FF1FE78000076310250597F7FF1F4E
:104A3C0093870734884BC145513541469305F00F98
:104A4C00228597C0FF1FE780E00485446318950218
:104A5C00224497F7FF1F9387A731B2409244024933
:104A6C00C847C145410199BD41468145268597C03E
:104A7C00FF1FE7802002E31225FD4DBF4146814513
:104A8C00228597C0FF1FE780E000E30395FCB2404E
:104A9C0022449244024941018280411122C426C21F
:104AAC002E84AA8413060002814517F5FF1F1305F7
:104ABC00252C06C697C0FF1FE780A0F397F7FF1FB2
:104ACC00A389972A97F7FF1F23828738EFC0901D81
:104ADC00854719C181474945B240224417F7FF1F4A
:104AEC002308F728924441018280814781CD19C95E
:104AFC008547631BF50083C7550093E707FCA3822A
:104B0C00F50085473E85828089476317F50083C78A
:104B1C00550093F7F703E5B70D478547E314E5FE1A
:104B2C0003C755001377F70313670704A382E50047
:104B3C00D1BF81478DC105C103C755009306000C39
:104B4C0085471377070C6308D700930600048D473D
:104B5C006303D70089473E858280411122C4005DE2
:104B6C0006C626C21DC8AA84085009C597D0FF1FC7
:104B7C00E78040D2485009C597D0FF1FE78080D10D
:104B8C00085409C597D0FF1FE780C0D0228597D065
:104B9C00FF1FE78020D023AC0402B2402244924491
:104BAC004101828009ED97F7FF1F83C7871C17F51A
:104BBC00FF1F1305651D81CB1385C187828017F5F7
:104BCC00FF1F1305651C828017F5FF1F0345651A2F
:104BDC00828097F7FF1F9387A719C847828097F7A2
:104BEC00FF1F9387E718884B828097F7FF1F9387E7
:104BFC002718DC4B8843828097F7FF1F9387471752
:104C0C00D84B1C4385071CC317F5FF1F03457516AE
:104C1C009307F00F6305F50091656FE03F96828076
:104C2C00011122CC06CE2E8432C6EF804061914712
:104C3C00B245631FF500938781899C438DC303A301
:104C4C000700630E030022856244F2400561028373
:104C5C00938701899C4381C703A34700DDB7F240CA
:104C6C006244054505618280011122CC2A840355DA
:104C7C00450006CE26CA4AC84EC6EF80603B35C5F5
:104C8C002A89834405008349C500C13D4A85EF80CC
:104C9C00F01403554400EF80C05583C7418AB1CB53
:104CAC006399970483C5518A2685EFF05FA919E1B2
:104CBC002382018A03554400EF8060589147631F9B
:104CCC00F5000357440097F7FF1F83D7C70A6317F4
:104CDC00F700FD5717F7FF1F231FF708F240624438
:104CEC00D2444249B2490561828081499304F00F54
:104CFC006DB79307F00FE38FF4FA83466400035605
:104D0C004400034524004E87A685893665B7797122
:104D1C005EC6AA8B2E8552CC56CA5AC806D622D449
:104D2C0026D24AD04ECEAE8A328B368AEF804030B5
:104D3C007DC1045D2A89E5C09C50614599C313056A
:104D4C0040039C5481C751054205418163050A000B
:104D5C00710542054181DC5081C75D0542054181E9
:104D6C00EFE06FCC2A8445C96146814597C0FF1F8F
:104D7C00E78020C897F9FF1F83C909FA63940900DB
:104D8C0083490900930700FD2300F400A947A30001
:104D9C0074012301F400230364018C502312540189
:104DAC001305840191C908C47146930A440397C042
:104DBC00FF1FE78080C056858C5491C948C451466A
:104DCC00930A450197C0FF1FE78020BF5685630CEF
:104DDC000A0008C87146D285930AC50197C0FF1F07
:104DEC00E780A0BD5685CC5099C548C85D4697C094
:104DFC00FF1FE78080BCA2854E85EFE0AFCD22542B
:104E0C00B2509254F249624AD24A424BB24B4A8552
:104E1C000259456199B3B250225492540259F24945
:104E2C00624AD24A424BB24B4561828001114EC656
:104E3C00AA892E854AC806CE22CC26CA2E89EF8096
:104E4C00201F21C997F4FF1F83C404ED99E083440C
:104E5C0005001945EFE02FBD2A8405CD8145194683
:104E6C0097C0FF1FE780E0B8930700FD2300F40014
:104E7C00B947A30034012301F40023122401A285B5
:104E8C006244F2404249B2492685D24405616FE042
:104E9C006FC4F2406244D2444249B24905618280F7
:104EAC0039715ECEAA8B2E8526DA4ED652D456D2C6
:104EBC005AD006DE22DC4AD8AE84328BB68A3A8AC5
:104ECC00BE8942C6EF80C01621CD2A894145EFE04C
:104EDC008FB52A8431C54146814597C0FF1FE780B5
:104EEC0040B117F5FF1F034525E319E10345090000
:104EFC00930700FD2300F400BD472301F400B247E3
:104F0C00A30074012312940023046401A30454012C
:104F1C0023054401A30534015CC4A285EFE08FBBDB
:104F2C00F2506254D2544259B259225A925A025BEC
:104F3C00F24B21618280797126D2AA8439454AD0FC
:104F4C004ECE06D622D42EC6B2893689EFE0AFAD4E
:104F5C0021C1B2459307000D2310F500B1472A84F7
:104F6C002312B5002301F500CE851905194697C00B
:104F7C00FF1FE78080A423062401A2852254B2508F
:104F8C000259F24913F5F40F925445616FE08FB456
:104F9C00B250225492540259F2494561828017F75B
:104FAC00FF1F034717DD9307F00F630DF706411141
:104FBC0026C2AA84394522C406C64AC0EFE0AFA671
:104FCC002A8439C9930700FD2300F500A30095003E
:104FDC002301050097F5FF1F938505DB0D05194689
:104FEC0097C0FF1FE780609D17F9FF1F130949D871
:104FFC0083578900A28517F5FF1F034595D7231505
:10500C00F400834719002306F4002244B240924472
:10501C00024941016FE00FACB24022449244024974
:10502C0041018280828001115AC02A8B314526CAE7
:10503C004EC652C456C206CE22CC4AC8AE84B28AE0
:10504C00368ABA89EFE02F9E35CD2A842685EF70FB
:10505C00307E11C50347C500A1476314F70417F947
:10506C00FF1F034919D1930700FD2300F4009D474E
:10507C00A30064012301F4002312940023135401B0
:10508C002314440123153401A2856244F240D24416
:10509C00B249224A924A024B4A85424905616FE065
:1050AC006FA317F9FF1F034979DAE31E0BFA9387F5
:1050BC00C19A9C439C47C5DBCE865286D6852685F5
:1050CC00829755B7F2406244D2444249B249224ACF
:1050DC00924A024B05618280011122CC2A8421451F
:1050EC0006CE2EC6EFE02F9421C1B245930700FDEA
:1050FC002300F500C5472301F50083C73500A30144
:10510C00F50083D745002312F50083C76500230300
:10511C00F50083C77500AA85A303F50022856244B8
:10512C00F24005616FE00F9BF240624405618280A2
:10513C00397162CC2A8C594526DA4AD84ED652D4CB
:10514C0056D25AD05ECE06DE22DCAE8432C636C4CF
:10515C00BA8B3E8BC28A468A8359010403494104A7
:10516C00EFE06F8C25C93246930700FDA246230061
:10517C00F5009547A301C500A30085012301F500A7
:10518C002A8419461105A9C2B68597C0FF1FE7806E
:10519C00C08223066401230A2401231574012317FA
:1051AC0054012318440123193401A2856254F2508E
:1051BC004259B259225A925A025BF24B624C2685E2
:1051CC00D25421616FE00F91814597C0FF1FE7809A
:1051DC004082C1B7F2506254D2544259B259225A49
:1051EC00925A025BF24B624C2161828097F7FF1F4F
:1051FC0083C727B88DCB4111AA8519461385C18762
:10520C0006C697B0FF1FE780407B9385C18717F5D3
:10521C00FF1F034505B6EFF05F8DB2401385C187C4
:10522C0041016FC0E0280145828017F7FF1F03473B
:10523C0057B49307F00F6305F708411126C2AA84EF
:10524C00294522C406C6EFD01FFE2A8429C1930724
:10525C0000FD2300F500A1472301F500A3009500F4
:10526C0097F7FF1F9387C7B083C727009385C18724
:10527C001105A30FF5FE194697B0FF1FE780E073E9
:10528C00A28517F5FF1F0345D5AEEFE0AF8417F7E6
:10529C00FF1F034707AE8D47631FF70093874189B4
:1052AC009C4391CB03A38700630703002244B240C5
:1052BC00924441010283B2402244924441018280D3
:1052CC0017F7FF1F0347E7AA8D47631AF700938769
:1052DC0041899C4389C703A38700E31D03FC82809B
:1052EC00797122D406D626D24AD04ECE52CC09445D
:1052FC0055CD2A89035505002E8A5144EF70505321
:10530C00AA844DC597F7FF1F83C747B4FD1793F7C2
:10531C00F70F05474944637BF7080347C500A147CE
:10532C006314F70063140A089C5C4544C1E391655F
:10533C00938545711305C00297C0FF1FE780204974
:10534C0088DCAA894D443DC11306C002814597B043
:10535C00FF1FE780006A8357090093864900368552
:10536C002391F90071469305490036C697B0FF1F8B
:10537C00E780A06489472380F90003C5C400B246C6
:10538C0003560900611597F5FF1F83C5E5AB13356F
:10539C001500EF8010682A8463060A00D2852685E2
:1053AC00EF80A05201C42685EFF02FFB2285B2506E
:1053BC00225492540259F249624A4561828097F70D
:1053CC00FF1F83C7A7A8FD1793F7F70F0547637A4D
:1053DC00F708894741CA011122CC26CA4AC84EC6D1
:1053EC0052C406CEAA89368AB2842E89EF705044F4
:1053FC002A84D14739C9485509C597C0FF1FE78092
:10540C006049F145268597B0FF1FE780E06048D4DE
:10541C00CD4705CD8346C40021478147639FE600F5
:10542C00630D0A000347A5010356050193062501E8
:10543C00AA854E85EF80E050AA8703474400630F8E
:10544C000900136767002302E400F2406244D2446F
:10545C004249B249224A3E85056182801367470062
:10546C00DDB7C9473E8582809307200463EBA70014
:10547C0097F7FF1F9387478706053E950355050051
:10548C00828041657D158280011122CC2A842E8573
:10549C0026CA06CEAE84EF70B0391DCDB7470F00CB
:1054AC009387F723094563E4870281450A854146C2
:1054BC0097B0FF1FE780E053A685231081000A8573
:1054CC00418023018100A3010100EF803040F240B4
:1054DC006244D244056182804945D5BF97F7FF1FCE
:1054EC002385A79682806F80F04C797152CC2A8AE2
:1054FC00328522D426D24AD04ECE56CA5AC85EC65F
:10550C0006D662C4AE8BB28A368BBA843E89C28907
:10551C004684EF70F03115C92A8C63140A02137794
:10552C004B008347450015CF93E727012302FC006E
:10553C008DEC631C0902639A090205E8ED9B2302BA
:10554C00FC00832B8C0363910B08B25022549254B1
:10555C000259F249624AD24A424BB24B224C456143
:10556C008280F59B93E70701D1B793E747002302AD
:10557C00FC0001CC1C484146A2852324FC021305E7
:10558C008C0197B0FF1FE780404363930B02D5D883
:10559C000325CC0209C597C0FF1FE780A02FF1455A
:1055AC00268597B0FF1FE78020472326AC0251BF0A
:1055BC00E30909F80325CC0209C597C0FF1FE78052
:1055CC00602DF1454A85F1BF9DC483A70B0299EB71
:1055DC00916593853571714597C0FF1FE780201F3A
:1055EC0023A0AB0203A50B0219C57146A68597B083
:1055FC00FF1FE780803C6388090283A74B0299EB6D
:10560C009165938525715D4597C0FF1FE780201C30
:10561C0023A2AB0203A54B0219C55D46CE8597B0FC
:10562C00FF1FE78080391DC483A78B0299EB91651E
:10563C0093851571514597C0FF1FE780401923A42E
:10564C00AB0203A58B0219C55146A28597B0FF1F6B
:10565C00E780A0362254B2509254F249B24B224CFD
:10566C00CA865A860259424BD6855285D24A624A1C
:10567C0045616FF0CFE9011126CA52C406CE22CC87
:10568C004AC84EC62A8AAE84EF70901A25C5AA89DC
:10569C003945EFD05FB92A8431CD17E9FF1F034993
:1056AC00A9676314090003C909009307000D2310AF
:1056BC00F400AD472301F400938569001305340011
:1056CC00194697B0FF1FE780402F93F71400858091
:1056DC0085882306F400A306940023154401A285B3
:1056EC006244F240D244B249224A4A854249056199
:1056FC006FD05FBEF2406244D2444249B249224A62
:10570C000561828001114EC652C456C206CE22CC0F
:10571C0026CA4AC8AA8A2E8AB289EF7070112DCD7A
:10572C002A891305C002EFD01FB02A8435C597E42F
:10573C00FF1F83C4645E99E0834409009307000D46
:10574C002310F400E9472301F400930569001305C5
:10575C003400194697B0FF1FE7802026D285231509
:10576C0054011305C400414697B0FF1FE780E024A5
:10577C00CE851305C401414697B0FF1FE780E02397
:10578C00A2856244F2404249B249224A924A268595
:10579C00D24405616FD01FB4F2406244D2444249F6
:1057AC00B249224A924A0561828093874188884394
:1057BC0001CD411106C697C0FF1FE780A00DB24076
:1057CC0023A20188410182808280011106CE22CC65
:1057DC0026CA4AC82EC6EF70B00539CDB24517E9B6
:1057EC00FF1F03496953AA840CD5631409000349AC
:1057FC0005004145EFD03FA32A841DCD9307000D32
:10580C002310F500A5472301F50083C754009385A9
:10581C0064001105A30FF5FE194697B0FF1FE78032
:10582C00C0199C54A285F2405CC46244D2444A859F
:10583C00424905616FD01FAAF2406244D2444249EA
:10584C00056182801D71A2CC86CE2A842EC6EF7093
:10585C00207E05CD8346C5001147AA874945639232
:10586C00E6029C5FB24599C383C567012308B1006A
:10587C0097A6000093866696100889452285EF70DE
:10588C00907BF6406644256182805145DDBF97E7E9
:10589C00FF1F83C7A75BFD1793F7F70F0547637AC5
:1058AC00F704894721CA411122C426C24AC006C640
:1058BC00B2842E89EF70C0772A84D14705C563085E
:1058CC0009008347450093E727002302F500414672
:1058DC00A6851305840197B0FF1FE780000E9C4836
:1058EC001CD48147B2402244924402493E85410176
:1058FC008280C9473E858280797122D406D62A845B
:10590C002EC6EF70E07201CDB2452285230EB10098
:10591C006C08EF701078B25022544561828051456A
:10592C00DDBF6F70D006C1671387E7FF6394E50294
:10593C00938701899C4391EB494582804945B2404C
:10594C002244924402494101828003A30700E305EB
:10595C0003FE0283411122C426C24AC006C6FD17AB
:10596C002A892E84B2846395F502938701899C431E
:10597C0091CB9C4381CB829711E52382218BA3820F
:10598C00918A75BFA6854A85EFE07FDB4DF9F5B7A7
:10599C002E85EF70E0695DD1834705000D45E390DE
:1059AC0027FB22852244B2400249A685924441013C
:1059BC006FB0102D9307200463E2A7064111C16755
:1059CC0022C406C626C2FD172A8409456382F50245
:1059DC00C547AE846313F4022E85EFB0F03117E5A2
:1059EC00FF1F1305653006042A942310940001450B
:1059FC00B24022449244410182809307A003631673
:105A0C00F4002E85EFB09028D9BF9307B003E318AC
:105A1C00F4FC13F5F50FEFB0B027D1B70945828030
:105A2C00011106CE2AC6EFE0BFD3EF208001EF10A4
:105A3C00301BEF70012F324597E7FF1F93874733D9
:105A4C00130700F02391E700238207007D5797E7A7
:105A5C00FF1F9387673F2381E7002380A700F24055
:105A6C00954505616F50B074597193970501CAD073
:105A7C0086D6A2D4A6D2CECED2CCD6CADAC8DEC6B0
:105A8C00E2C4E6C2EAC06EDEC1872E8963D1075A32
:105A9C0017E5FF1F0345453BEFD04FFD8964416A75
:105AAC00856A797B2A84938BD4007D1AA50A130C02
:105ABC00ABFF1DE021653345A900B6502654965422
:105ACC000659F649664AD64A464BB64B264C964C76
