:040000006F20C009A4
:100004000000000000000000900000208A0400208E
:10001400A9BDF9F5900000200000000000000000D8
:10002400900000209000002000000000000000006C
:10003400900000200000000090000020000000005C
:1000440090000020900000209000002090000020EC
:1000540090000020900000209000002090000020DC
:1000640090000020900000209000002090000020CC
:100074007E050020900000209000002090000020C9
:1000840090000020900000209000002090000020AC
:1000940001A073270080218B9387818709CB732765
:1000A400008023ACE18698435D9B731007800100B8
:1000B400010037170040930670052300D704930608
:1000C40080FA2300D704010001008346B70493F6A5
:1000D400F60DA305D7042300070473260080944378
:1000E400A18AD18E7390068023AC018601000100A1
:1000F40093760502638406180347A700118B25E74E
:1001040073270080218B09CB7327008023ACE18601
:1001140098435D9B7310078001000100371700406E
:10012400930670052300D704930680FA2300D704AE
:10013400010001008346A70093E646002305D7008B
:1001440023000704F32600809843218B558F7310F6
:10015400078023AC0186010001001307004B010056
:1001640001007D176DFF73270080218B09CB732756
:10017400008023ACE18698435D9B731007800100E7
:10018400010037170040930670052300D704930637
:1001940080FA2300D704010001007D892314A700FD
:1001A400010001000100010023000704F326008080
:1001B4009843218B558F7310078023AC018601006F
:1001C400010073270080218B09CB7327008023ACA7
:1001D400E18698435D9B7310078001000100371787
:1001E4000040930670052300D704930680FA230089
:1001F400D7040100010001000100B72600401306E6
:100204001005A383C68023000704F32600809843C7
:10021400218B558F7310078023AC018601000100E8
:1002240073270080218B09CB7327008023ACE186E0
:1002340098435D9B7310078001000100371700404D
:10024400930670052300D704930680FA2300D7048D
:10025400010001008346B70493E60608A305D7040A
:1002640023000704732700809C43A18BD98F7390CC
:10027400078023AC01860100010082809376050487
:10028400638B06140347A700418B25E7732700807F
:10029400218B09CB7327008023ACE18698435D9BB7
:1002A40073100780010001003717004093067005A2
:1002B4002300D704930680FA2300D7040100010029
:1002C4008346A70093E606012305D700230007040D
:1002D400F32600809843218B558F7310078023AC3D
:1002E4000186010001001307007D010001007D1754
:1002F4006DFF73270080218B09CB7327008023AC0B
:10030400E18698435D9B7310078001000100371755
:100314000040930670052300D704930680FA230057
:10032400D704010001009376F50193E60604231433
:10033400D700010001000100010023000704F32697
:1003440000809843218B558F7310078023AC01865E
:1003540001000100130760046310E50473270080A3
:10036400218B09CB7327008023ACE18698435D9BE6
:1003740073100780010001003717004093067005D1
:100384002300D704930680FA2300D7040100010058
:10039400B72600400946B5B573270080218B09CBE9
:1003A4007327008023ACE18698435D9B731007801C
:1003B4000100010037170040930670052300D7049D
:1003C400930680FA2300D70401000100B7260040F9
:1003D400130620053DB573270080218B09CB7327B5
:1003E400008023ACE18698435D9B73100780010075
:1003F400010037170040930670052300D7049306C5
:1004040080FA2300D704010001008356870093E695
:10041400060C2314D700C5BB411181460146814512
:10042400114506C6152CF3270080A18B938681877E
:1004340089CBF327008023ACF1869C42DD9B73902B
:10044400078001000100B7170040130770052380DF
:10045400E704130780FA2380E7040100010003C7BF
:100464006704136717002383E704238007047327B3
:1004740000809C42A18BD98F7390078023AC0186A6
:1004840001000100B240410182808146014681455C
:100494001145D922F3270080A18B1387818789CB4B
:1004A400F327008023ACF1861C43DD9B7390078007
:1004B40001000100B7170040930670052380D7049C
:1004C400930680FA2380D70401000100FD56239689
:1004D400D70223800704F32600801C43A18BD58F09
:1004E4007390078023AC018601000100F32700808C
:1004F400A18B89CBF327008023ACF1861C43DD9BC1
:100504007390078001000100B7170040930670053F
:100514002380D704930680FA2380D70401000100C6
:1005240083C6670493E616002383D7042380070455
:10053400F32600801C43A18BD58F7390078023ACD6
:1005440001860100010001A0BD473305F502010049
:100554007D1575FD8280411122C426C206C6AA8477
:10056400014463179400B2402244924441018280C2
:1005740005041305803E4204C13F4180DDB7B7172F
:100584000040130700032388E702854723A2F18A6A
:1005940073002030411106C6A92DFDBF230304803A
:1005A40015472303E48001002302A480828083078B
:1005B4006480E3CE07FE2303048082808307648083
:1005C400E3CE07FE03454480828083076480E3CE44
:1005D40007FE2302A4808280411126C44AC24EC071
:1005E40006C61377F50BAD47AA892E899544630691
:1005F400F70019456537653F8D444E854537FD59EC
:10060400FD1463983401B240A24412498249410165
:100614008280135509011375F50F453F2209CDB7A3
:10062400011126CC06CEB704080051371545BD3755
:10063400713769372AC6A53F32459377150089EB90
:10064400136515001375F50FF240E24405618280CD
:10065400FD14E9FC0145CDBF397126DC4ADA4ED8D8
:1006640052D656D45AD25ED006DE62CE66CCB7E7F6
:1006740000E07D5783AA070022C603AA470023A0EF
:10068400E71823A2E718B717004013077005238063
:10069400E704130780FA2380E70483C74704930B16
:1006A40075FFB684E20793FBFB0F8546AA892E8B60
:1006B400328937240040E187015763FA76016308E1
:1006C400D5008946130700026313D5000157D98F5B
:1006D40093F7F70FB71C00402382FC041147230350
:1006E400E4801305F00F5D3D094CD135636D7C1139
:1006F400B7050700DA9537870700795563F2E504F3
:10070400B3879500636EF702370B0800A94733EBF4
:1007140065016399F90689E48144513D26850DA05C
:10072400DA850945553D05090345F9FFFD14050B17
:10073400693D81C49377FB0FFDF7DD3569FD7D5578
:10074400B7170040130770052380E704130780FAE6
:100754002380E70403C74704418B2382E704F25054
:10076400B7E700E023A0571123A24711E254324413
:100774005259C259325AA25A125B825B724CE24CF1
:1007840021618280A5476395F90685691309F00FF5
:10079400B3069900B3742B01B6941349F9FFB374EB
:1007A4009900856B33796901416B9387F9FFB3F73E
:1007B400270199E363FC340193D94900C147E3E677
:1007C40037FF99BF0569C1697D19D9B71305800D34
:1007D4006388690113050002638479011305100815
:1007E400CA85DD3B353D21DD4E99B3843441D9B70B
:1007F400DA852D45D533CA94E30099F205097D3B8A
:10080400A30FA9FED5BF9387F9FF93F7F70F636191
:10081400FC0C83C71C0413073008631FF704370755
:100824000800636BEB04B3079B00B706100063F585
:10083400D704334BEB0089476393F9068980D54984
:10084400E38C04ECDA850945413B11090327C9FF10
:1008540091472320E48003076480E34E07FE2303CB
:100864003481FD17EDFBFD14110B81C49377FB0F4D
:10087400E9FF7D3371F5E1B5B717004003C75704AD
:10088400B70708001377070219E3B78707007955FC
:10089400E378FBEA33079B00E3FFE7F855B58547A8
:1008A400E382F9F2DA852D45053B9389F4FFE3856C
:1008B40004E6293393F7390091EB83260480032758
:1008C400090093074900E39AE6E43E89CE84F1BF28
:1008D400B5476396F9001305900BC93135BDB1478F
:1008E4001305B00AE38BF9FE99476391F904B70540
:1008F4000800B365BB002D45C53181448D4BA1492A
:10090400753963967401832704802320F9008504D4
:10091400E39834FF8327048013172B0163550700E2
:100924002312F900D5BB2322F900FDB39D47639937
:10093400F90281451305B0044531BD442320090063
:1009440023220900FD599D3993F77400CA9703C700
:100954000700FD14398D2380A700E39634FF6DBB97
:10096400A1476392F9046D398144630D0B008D47EF
:100974009304C0036308FB009304000563048B0124
:10098400930440041375C507E30895D81945393114
:1009940039390545213126850D3909453D3149311E
:1009A400E31C05D669BB91476399F90013056006FA
:1009B400F536F53E130590090DB7E38F09D4F154CC
:1009C400A9BB19CD91CD09CE81473387F500834664
:1009D40007003307F50085072300D700E317F6FE69
:1009E400828019C991C909CA910583A7C5FF110558
:1009F4007D16232EF5FEC5BF828001C919C62A962D
:100A04000505A30FB5FEE31DA6FE828081473307CB
:100A1400F5000307070019E33E8582808507C5BFFB
:100A240001112E8626CAAA84131506019305F00423
:100A3400418122CC06CE32C6EF00F0592A8401C58A
:100A44003246A685BD3F2285F2406244D244056108
:100A54008280854715C18DC105C28147B306F50063
:100A64003387F50083C60600034707006398E60052
:100A74008507E315F6FE85473E8582808147EDBFF5
:100A84009307F6FFBE952A966313C5008280FD1571
:100A940083C715000505A30FF5FEFDB7AA87014519
:100AA40081CF09CE3E96850703C7F7FF6317B700CA
:100AB400E39BC7FE0545828082800145828079716F
:100AC4009387418D22D4804306D626D24AD04ECE77
:100AD40052CC56CA5AC85EC65DCCB7C4C901014BD4
:100AE4009389C18C9384F437173A0000130A8A4D12
:100AF400973A0000938ACA501739000013098954A1
:100B04008357240085E35C44631B0B0023AAF18C08
:100B1400832BC4002285EF0070585E84B9A8232675
:100B2400FB00FDB783A7090082971C443307F540F7
:100B34006376F500032749001D8F2A9763E0E408D4
:100B44009737000023A6074C83552400034504006F
:100B5400973000E0E780203A5C405844A1CB0C4435
:100B640003264900AE97BE8663E4B70063E4C7007A
:100B7400B386C74014C4228B3A8459F097370000D7
:100B8400938707489C4B09476370F706F917173793
:100B94000000232FF746B250225492540259F249CE
:100BA400624AD24A424BB24B4561828063150B00C4
:100BB40023AAE18CB1BF2326EB0099BF03274A0285
:100BC40009CF63EFA7003385A74083A70A016376A3
:100BD400F5009737000023ADA742228B404471BF34
:100BE40003274900BA97C5B79737000023A20742E5
:100BF4005DB7411122C4173400001304E4421C40C1
:100C040006C626C24AC091C782979737000023AD13
:100C140007409737000083C7F75A858B9734000045
:100C24009384045A95C397370000A38D075883C74C
:100C340074001547637AF700C12B83C77400F51756
:100C44008A07A2979C4382971C4491C38297138975
:100C5400018C03270900173600000346763A9737BC
:100C6400000083C7E73993961700BA9683D6060027
:100C7400C5CE9737000083C7A73863E1C70C973701
:100C84000000238F07361C40639507129737000036
:100C940083C7975391CF83C7740093F7F70F89EBFA
:100CA40097370000A3820752978001E0E78060FD38
:100CB4009387C18C9C43638E070E973700009387FC
:100CC4006738DC43173700002324F734CD3B9737CC
:100CD40000009387272FDC53E9CF17370000130751
:100CE4002732184B9737000083C7172F6363F70C1D
:100CF40083C774001547636EF70A9737000083C7EC
:100D0400A750918BDDE7032609009736000083C6C0
:100D1400362F63C6D70A2244B240924402494101A5
:100D2400173300E06700C364850793F7F70F97361E
:100D340000002387F62CE3E4C7F225BF86073E971D
:100D440083550700231007002394018C9387818D1A
:100D54009C43173500000345A52A13172500BA97AD
:100D64009C43829783D7818C173700000347472918
:100D740093C7F7FF7D8D93171700032709003E974C
:100D8400835707005D8D2310A7009737000083C7A2
:100D9400272791C78507173700002303F72617373E
:100DA40000000347E7259737000083C77725E378DA
:100DB400F7ECB240224492440249410182801397E5
:100DC40017003297035707006DF7850799B7AD678A
:100DD40037C70040BD072326F7200F1000009737C0
:100DE40000009387E721C84F83278726BD66BD0689
:100DF40093C7F7FF99836A052326D7205D8D8280E8
:100E04004111B7170040985F3AC6945F3247E39C9C
:100E1400E6FE3245410182801305F00F8280011104
:100E240022CC604126CA4AC84EC652C406CEAA8401
:100E34001D4A130965058549BC446364F4000545EE
:100E4400B9A003C7D40083474400631A470503C706
:100E540084026304F7000040C5B70347540083C706
:100E64005405E31AF7FE1946CA8513056400D536FE
:100E7400E31335FF0347C40083C79402E31DF7FC63
:100E84000357E40083D7A402E317F7FC0145F240BB
:100E94006244D2444249B249224A05618280E31C39
:100EA400F7FA0347540083C75405E316F7FA1946C3
:100EB400CA8513056400713EE31F35F9C1BF0111F2
:100EC400973700009387073C22CC03A4070C26CA5B
:100ED40006CE2AC42EC6854419E40145F240624474
:100EE400D244056182808347910003471400858BB7
:100EF4006304F7000044CDB719469305A100130518
:100F04002400813EE31895FE0545C9BF1387419A25
:100F14001C439306001094C301000100010001006A
:100F24001C4323A007008346150003482500A2069E
:100F34004208C29603480500C29603483500620879
:100F4400C29694D78346550003486500A20642081A
:100F5400C29603484500C296034875006208C296CB
:100F6400D4D7834695000348A500A2064208C2963A
:100F740003488500C2960348B5006208C29694DB14
:100F84008346D5000348E500A2064208C2960348FA
:100F9400C5000345F500C2966205AA96D4DB83C654
:100FA400150003C52500A2064205AA9603C505003F
:100FB400AA9603C535006205AA9694CF83C6550048
:100FC40003C56500A2064205AA9603C54500AA9674
:100FD40003C575006205AA96D4CF83C6950003C5E0
:100FE400A500A2064205AA9603C58500AA9603C5D4
:100FF400B5006205AA9694D383C6D50003C5E5005F
:10100400A2064205AA9603C5C50083C5F500AA96A3
:10101400E205AE96D4D3D443F59AD4C3D44393E62D
:101024001600D4C3944393E6160094C3BA8794433A
:10103400D842058B59E3984E01452300E6009843B6
:10104400184F2183A300E6009843184F41832301DE
:10105400E6009843184F6183A301E6009C43D84FF0
:101064002302E600D84F2183A302E600D84F418330
:101074002303E600D84F6183A303E60098532304B7
:10108400E60098532183A304E60098534183230583
:10109400E60098536183A305E600D8532306E600CF
:1010A400D8532183A306E600D85341832307E600DF
:1010B400DC53E183A307F600828001008DBF138710
:1010C400819A1443411122C49C5E4AC006C6998386
:1010D40026C2858B3A841389419AD1C79C5E973482
:1010E40000009384E40D93F7F7F99CDE17370000B2
:1010F4000347670D93070008631BF7008327090064
:101104009C4393F7070417370000230EF70A83C79D
:10111400040093F707048DC39387C18C9C43829783
:101124009737000023A6A70A83C7040093F7F70B99
:10113400173700002306F70883C7440093F7070412
:101144009DE3854717370000A30EF7069387419B5D
:101154009C43096798C7130700FC97360000238354
:10116400E606D844F8D31C40985F1183058B09CB5D
:10117400985F3D9B98DF0547973600002384E6047B
:10118400985F1D83058B11CB985F1377F7F798DF72
:101194008547173700002307F70283270900D84340
:1011A4000583058B19C7D843759BD8C3D843799B4E
:1011B400D8C3B24022449244024941018280397129
:1011C40006DE16DC1ADA1ED82AD62ED432D236D04F
:1011D4003ACE3ECC42CA46C872C676C47AC27EC0F3
:1011E400F93DF250E2525253C2533255A2551256AF
:1011F40082567247E2475248C248324EA24E124FBC
:10120400824F2161730020309387419B9443973729
:1012140000009387E7FA03C70700058B11CB9737C4
:101224000000238107FA97370000A38D07F8828016
:1012340003C71700058B65F7F85271FF83C7570082
:10124400DDB71388819A032708001C5F9583858B7B
:10125400D1E709C61C5BBD832300F60085CA83273A
:101264000800985B4607935767016356070093E7A6
:1012740007C0C207C18303970600C207C18709C715
:10128400BA970947B3C7E7022390F60085CD834791
:1012940015008DCB9736000083C6E6F293F606045C
:1012A4001387970089478DCA3A95034705008546F9
:1012B40099471376F7066311D60262076187B94727
:1012C400634C0700832708009C5FED838D8B1737E1
:1012D4000000A30CF7EE81473E8582808547EDBF71
:1012E400411122C406C61384419B18402DE9AE87E0
:1012F4007453FDFE3E85B28597370000238307ECC7
:10130400977001E0E780206D9387819A9C43B7062C
:1013140080009843558F98C3D857719BD8D7973777
:101324000000A38107EA97370000A38B07E81C405D
:10133400094798C3144017370000130767E8834729
:101344002700858B89EB83473700858BD9C3973773
:101354000000238907E6B2402244410182808D4780
:10136400631EF5009387819A9C43B70680009843D7
:10137400558F98C3D857719BD8D76DBF8547E31B4A
:10138400F5FA5447F977FD17F58F5CC70F10000085
:101394001C40096798C7130700F817360000230399
:1013A400E6E21387819A1043184231830D8B11E7CB
:1013B40013076019F8D3D4C7B5BF1842094631835F
:1013C4000D8B6315C7001307E043EDB71307E01B4C
:1013D400D5B7FC52ADF741B75D71A2C4A6C22A8449
:1013E400130680022800AE849305100886C6CAC07E
:1013F4004EDE52DCEFF06FE03545978001E0E78088
:10140400E0991383819A832703009376F41F138E44
:10141400C19B23A40700984B938E419B370FFCFF7D
:101424001367F70398CBF84F130510F8B7020400BD
:10143400137707E0558FF8CF9843F576FD16758F2F
:1014440098C39843B7063300930380251377F7E7CF
:1014540098C3984311497D1F1377F7E71367071063
:1014640098C303270E008549930F80021C47D58F2C
:101474001CC783A70E001307900D3400B8CB014797
:1014840093553700A69583C7050013767700B3D725
:10149400C740858BE1C38327030083280E00239C68
:1014A40007042390070603A8C8021378D8FF23A6CD
:1014B400080383A807001378F70793F808F833E8BC
:1014C400080123A0070103A847023368580023A298
:1014D400070383A80E00014823A2780603DA07064F
:1014E4006307480303A80703038A06001358F80098
:1014F40062081358884163580A0103A80703135864
:10150400F8002380060103D807061378F80F03AA0E
:10151400480663060A0003DA8705E37F49FB03A84C
:1015240047023378E80123A2070383870600635C3C
:10153400F40003C805003396C9001346F6FF33765A
:1015440006012380C5003E8663D3A7002A861315AF
:101554008601618505071377F70F8506E312F7F314
:10156400B640264496440649F259625A6161828023
:101574009386419B9C42D847131617016355060274
:10158400984713161701635006027D57B8D71737CB
:1015940000001307E7A6584F050717360000232F4E
:1015A400E6A6116798C798470D83058B1DC31737A7
:1015B4000000034707C11367170017360000230212
:1015C400E6C0130700F817360000230DE6BE2147D6
:1015D40098C79847058B09CF17370000034757BEB4
:1015E4001367170017360000A30CE6BC054798C71D
:1015F40098470983058B09E798470583058B21CF15
:101604009847173600001306A6BB1385819A0983F1
:10161400058B630307101841184331830D8B75EB59
:10162400AC4B184E93F5050203471700CDCD79EF67
:1016340013077006D8CF0347060013671700173641
:101644000000230FE6B6114798C718415C57F19B79
:1016540093E717005CD79C4298479316370163D6EB
:1016640006029736000083C666C9C18A1737000090
:10167400130747C1C5CE0347870713670702973689
:101684000000238DE6C6056798C79847931627017F
:1016940063D10602173700000347C7B262076187A8
:1016A40063570700054797360000238DE6B00967A6
:1016B40098C798479316070163D606029736000029
:1016C40083C6D6C3858A173700001307A7BBADCEE0
:1016D400034797071367270097360000A380E6C2E5
:1016E400216798C7828029D785456315B7001307FA
:1016F400B00689B789456315B7001307F0061DBF07
:101704008D456315B700130730072DB7130750072E
:1017140015B71307600739BF03473600136717006F
:1017240017360000A30FE6A8094739BF8346870789
:101734000946BD8A6388C600034787078D463D8BEB
:10174400E313D7F4114725BF83469707918AC9DA73
:10175400034797071367870041B7397106DE16DC24
:101764001ADA1ED82AD62ED432D236D03ACE3ECC6D
:1017740042CA46C872C676C47AC27EC0D53BF2500D
:10178400E2525253C2533255A255125682567247F0
:10179400E2475248C248324EA24E124F824F216154
:1017A400730020309387419B98438567938707771D
:1017B4007CD39387C19B9C4383A607091396560049
:1017C4006358060083A6070913966600634406005F
:1017D4007453FDF2828061C1AA870145DDCD8D0776
:1017E400C207C183F19BC207C18313074003636B24
:1017F400F702138781A40843138701A41443639653
:10180400A602172700001307E77B185B014551C7A1
:101814004111C20706C60545DD8D0297B240014558
:1018240041018280138741A4F9B70357650035E36A
:1018340003574500636FF704B306F7402146637C02
:10184400D60203280500938687001D8FAA96611788
:10185400172600000356267B2392E60023A00601E8
:101864002393060014C12312F500130786FF97265D
:101874000000239AE6782313B5009725000083D54A
:101884008578B387F54017270000231EF7762105D6
:1018940082800841ADB701458280828009CD93875B
:1018A40081A403A30700938701A483A807008146AA
:1018B4009A8763E31701828003A807006369F50A26
:1018C4006367A80A13878700E367E5FE03D667000A
:1018D400216705076317E60003C741970507238AB5
:1018E400E196972500009385A57103D6470003D799
:1018F40065002393070032974207418317250000B0
:101904002313E57063886702138541A408416303C8
:10191400F50203D5660019ED83D7460023A006011E
:1019240021073E9621062392C60097270000239C98
:10193400E76CB6879843E30017F9938641A4944271
:10194400E30BD7F683566700BDF683D647000356EC
:1019540047001843A106B2962392D70098C383D7B1
:101964006500A10717270000231FF7688280BE8641
:10197400C28781B70327851163020712411122C46C
:1019840006C68347C5008345E5042A8493F7C70F39
:101994002306F500834697000356C7001395860176
:1019A400618563F2C508635B05060345870093F60A
:1019B400F607A304D700054693E627006314C50081
:1019C40093E617002306D4005C4389075CC3A30A8B
:1019D400B400032504112E864C430905EFE07FFE75
:1019E4008327841103465401D44303D7C700B29616
:1019F400118FD4C32396E7008947A30DF40003474E
:101A040064039727000083C7075D6378F70483475F
:101A1400C40093E707012306F40081A093E71700AD
:101A24002306F4006DB79376F60F635D0502034554
:101A34008700854513E627006314B50013E61700F5
:101A44002306C400A30AD400A30407008547A30DFA
:101A5400F400832784119C43DDF3B2402244014502
:101A64004101828093E717002306F400A30AD400FF
:101A7400A3040700032504114C430905EFE07FF498
:101A84008327841103465401D44303D7C700B29675
:101A9400118FD4C32396E7008D4755BF0545828037
:101AA400938781A59C43411122C406C6858B2A8451
:101AB400C5EF4165130525F5973002E0E7806067BF
:101AC40045C58347A5002315F50083270412BDE708
:101AD4002320A4122322A41285472311F4042320D3
:101AE40005008347640154412316F5000347D400DD
:101AF4002304E5000547A304E500172700001307A6
:101B0400276C184F1385170215811C437D15137517
:101B1400F50F9CC25C43DCC21C479CC65C47DCC618
:101B24001C4B9CCA5C4BDCCA1C4F9CCE5C4FDCCE6D
:101B340019CD9386060213070702C1BF83274412F7
:101B440088C3835724042322A412850779B79727CF
:101B5400000083D7A7738507172700002318F7729F
:101B6400B2402244410182808347C4002309040017
:101B7400054593C747002306F400DDB78347850175
:101B840093F7E70FC5EF83479501CDEB0346250196
:101B94008346C50009CA8345650317270000034728
:101BA400974363E7E50013F7060151CB014709C6E4
:101BB400C18A0357651C81C68356A51C369741C349
:101BC4001307C7121725000003554548B335A7026C
:101BD40037460F00411113060624814622C426C24B
:101BE40006C67D543305A702978002E0E780E084AF
:101BF4009727000083C7973EB384A7009727000068
:101C04009387476803A787098327070963F3870036
:101C14003E84184375FB9387C18C9C43829781470C
:101C24006364A400B307A440B2402244B3B797004E
:101C340093C7170092443E854101828081473E85C7
:101C440082809387419B98437C53FDFF8280797106
:101C540026D206D622D44AD04ECE52CC56CA5AC820
:101C64005EC68347550303447513AA843E941374D4
:101C7400F40F9307400263F687001304B4FD137452
:101C8400F40F03AA841383AAC413A38B8412228699
:101C94005285D685977002E0E780A074058915E522
:101CA40003CBD41201498149337B6403930B500263
:101CB4004A865285D685977002E0E780807205894E
:101CC40015C5639169031374F90F238B8412B25001
:101CD400225492540259F249624AD24A424BB24BBC
:101CE400456182808509E20993D989410509E31197
:101CF40079FDE1BF8327850903560504797193D6DD
:101D04000701BD8EC206C182358E135776409357A4
:101D14005640898B058B5D8F93573640918B5D8F31
:101D240093571640A18B5D8F93171600C18B5D8F5F
:101D34009317360093F707025D8F93175600935558
:101D4400860093F707041E065D8F1376F60F518FF6
:101D540093D7554013D63540118A898BD18F13D62A
:101D64007540D18F13D61540218AD18F1396150053
:101D7400418AD18F1396350013760602D18F1396BC
:101D84005500137606049E05D18F93F5F50FCD8F7C
:101D9400A20745465D8F3307C70222D42A8426D280
:101DA40052CC56CA032A8413832AC4135AC806D6AB
:101DB4003697420741839357774013555740098913
:101DC400858BC98F135537401189C98F1355174017
:101DD4002189C98F131517004189C98F131537003D
:101DE40013750502C98F1315570093558700137592
:101DF40005041E07C98F1377F70FD98F13D5354004
:101E040013D755401189098B498F13D57540498FD4
:101E140013D515402189498F139515004189498FA0
:101E24001395350013750502498F139555001375E5
:101E340005049E05498F93F5F50F4D8F2207D98F21
:101E4400B387C7024AD04ECE5EC662C4B697C207F5
:101E5400C18313D7774013D557400989058B498F20
:101E640013D537401189498F13D517402189498FDC
:101E7400139517004189498F13953700137505028F
:101E8400498F1395570093D58700137505049E0752
:101E9400498F93F7F70FD98F13D5354013D7554092
:101EA4001189098B498F13D57540498F13D5154076
:101EB4002189498F139515004189498F1395350060
:101EC40013750502498F13955500137505049E0576
:101ED400498F93F5F50F4D8F2207D98FB387C7022A
:101EE400130650025285D685B697BD8E939406018B
:101EF400C18033F6C402137BF60F977002E0E780CB
:101F0400404E05890DED8347D41201498149B384BC
:101F14009702130C5002C1804A865285D685977069
:101F240002E0E780004C0589937BF90F11C56386B5
:101F34003403850993F9F90F0509E31F89FD230B80
:101F44006413B250225492540259F249624AD24A5A
:101F5400424BB24B224C456182805E8BCDB7797186
:101F640022D406D683C735002E8423160100A30786
:101F7400F10083C74500100802C02307F10083C79E
:101F840055008A8502C2A306F10002C402C802CA2F
:101F940002CC02CEEFE09FF70347F1018347040030
:101FA40001456310F7020347E1018347140001452B
:101FB4006319F7000345D101834724001D8D1335B0
:101FC4001500B25022544561828001119727000008
:101FD4009387472B22CC03A4870C26CA4AC84EC633
:101FE40006CEAA8413092500854915C083C71400A9
:101FF40003473400858B6304F700405CFDB7194642
:10200400930544004A85EFE0DFA4E31835FF2285F9
:10201400F2406244D2444249B2490561828041118E
:10202400972700009387072622C403A4870C26C29F
:102034004AC006C693042500054901E82285B2403A
:1020440022449244024941018280A6851305A402D8
:102054003937E30525FF405CCDB7411197270000D0
:102064009387472222C403A4870C26C24AC006C60B
:1020740093042500054901E82285B2402244924494
:10208400024941018280A6851305A401C93DE305E7
:0820940025FF405CCDB7000000
:10209C0097110020938141C4176100201301C1F5F1
:1020AC001305400097E5FF1F938505F517060020E3
:1020BC00130606FE63FAC5008322050023A0550013
:1020CC0011059105E3EAC5FE17A5020013058585E8
:1020DC00970500209385C5FB1386818763FAC5009D
:1020EC008322050023A0550011059105E3EAC5FEE6
:1020FC0013858187972500209385C52A6377B500C2
:10210C00232005001105E36DB5FEFD42739002BC62
:10211C008D4273904280930280087390023097E254
:10212C00FF1F938262ED93E232007390523097124C
:10213C000000938262D273901234730020303D43BE
:10214C002A876373C3029377F700BDEFADE59376EF
:10215C0006FF3D8ABA960CC34CC30CC74CC741074B
:10216C00E36BD7FE11E28280B306C3408A06970266
:10217C00000096966780A6002307B700A306B70059
:10218C002306B700A305B7002305B700A304B700C7
:10219C002304B700A303B7002303B700A302B700BF
:1021AC002302B700A301B7002301B700A300B700B7
:1021BC002300B700828093F5F50F93968500D58D9B
:1021CC0093960501D58D61B7939627009702000071
:1021DC0096968682E78086FA9680C1171D8F3E966A
:1021EC00E374C3F8A5B7B717004003C77705137797
:1021FC00E70FA38BE704130700F8A38DE7043D4713
:10220C00238CE70413075003A38CE704828041114D
:10221C002A83014E930E407E130F0019930F400634
:10222C0063E66E149308001913034006B378150384
:10223C00854E0D4FA14F337365020D891335150073
:10224C0063E0BE161308F6FF7946729842081358DD
:10225C0008013307C70213D61700BE073297614631
:10226C00B3F6C60213068070B386C6023697A16613
:10227C00F58F42075D8FB716004083C7F60293F7C0
:10228C000708A307F1000346F10083C7F60293F792
:10229C000708E394C7FE8347F100B716004093F795
:1022AC00F70F63890714F3270080A18B938681872E
:1022BC006398071401000100B7170040130670055E
:1022CC002380C704130680FA2380C7040100010091
:1022DC0023AA070303C6170313660608A388C702BD
:1022EC0023800704732600809C42A18BD18F7390AE
:1022FC00078023AC0186010001001166B715004070
:10230C007D16DC59C85DA98FF18FE5FFF32700809E
:10231C00A18B89CBF327008023ACF1869C42DD9BFB
:10232C007390078001000100B71700401306700579
:10233C002380C704130680FA2380C7040100010020
:10234C00D8DB03C7170313670704A388E7022380AE
:10235C000704732700809C42A18BD98F7390078050
:10236C0023AC018601000100410182807D1333689A
:10237C00E3039308E016630E08003368F303930835
:10238C00D016630808009378330093B8180093882C
:10239C00D81633081E01131E0801135E0E0149B531
:1023AC006393E50305486386080001486303030053
:1023BC002A8871087298FD15131E0801C205135E58
:1023CC000E01C181B5BD13F8150063F4BF00790887
:1023DC00D5B713381800E5BF83C7F60293F7070883
:1023EC00A307F1000346F10083C7F60293F7070831
:1023FC00E394C7FE8347F10093F7F70FF1DF65B560
:10240C00F327008023ACF1869C42DD9B7390078000
:10241C0055B5914763EEB702178702001307477B48
:10242C008A05BA959C41BA978287B717004003A7D3
:10243C00470B1345F5FF698F23AAE70A03A7070B80
:10244C00698F23A8E70A03A7070A798D23A0A70A97
:10245C008280B717004083A6470B1347F5FFF98E10
:10246C0023AAD70A83A6070B558D23A8A70A83A6F0
:10247C00070A758F23A0E70A8280B717004003A7CD
:10248C00470B498F23AAE70A03A7070B1345F5FF50
:10249C0045BFB717004083A6470B1347F5FF758F51
:1024AC0023AAE70A03A7070A598D4DB7B7170040AF
:1024BC0003A7470B498FEDB7914763EEB702178718
:1024CC000200130727728A05BA959C41BA97828736
:1024DC00B717004003A7470D1345F5FF698F23AAD3
:1024EC00E70C03A7070D698F23A8E70C03A7070CBC
:1024FC00798D23A0A70C8280B717004083A6470DC7
:10250C001347F5FFF98E23AAD70C83A6070D558D1B
:10251C0023A8A70C83A6070C758F23A0E70C828039
:10252C00B717004003A7470D498F23AAE70C03A751
:10253C00070D1345F5FF45BFB717004083A6470DA0
:10254C001347F5FF758F23AAE70C03A7070C598DCA
:10255C004DB7B717004003A7470D498FEDB7B71715
:10256C00004003D7870109C5D98D239CB700828011
:10257C0093C5F5FFF98DD5BFB717004003D587007C
:10258C00420541819377050491EB9377F50137551B
:10259C00E801130505803345F50282809377050C1D
:1025AC00130700046397E7009377F50137459C1CEC
:1025BC00CDB72165130505D08280B7F700E08847B9
:1025CC00CC478280814737370040A14663C4C7009F
:1025DC00328582800345B740E38EA6FE3385F50035
:1025EC000345050085072304A740CDB797070020B6
:1025FC00938787EE9C43172700201307A7DA3E9595
:10260C00636EE500175700201307077F6368A70068
:10261C00170700202322A7EC3E858280FD57EDBFD3
:10262C00411122C406C62A84813F2947B307E5021B
:10263C00B2408D83B3D7870222449507B3D7E70204
:10264C0037370040C207C1832316F740410182800F
:10265C00716541111305052006C6D937B7370040FF
:10266C00130770F82381E7400D47A381E740130758
:10267C000004A380E74005472387E740B2404101AF
:10268C008280CC41411106C6328503C6150083C534
:10269C00050022064D8E42068D654186138875A273
:1026AC00630C060F6348C804138845A26306060B27
:1026BC00634AC800938535A26309B60623900600C9
:1026CC00294679A0138855A26308060B938565A249
:1026DC00E316B6FEC1451D4663ECE5064546198E6C
:1026EC0063F3C7003E862390C6009785020093854E
:1026FC00A55189A8138895A26300060F634E060B9B
:10270C001388A5A2630A060F938505A5E318B6FAEC
:10271C0099451D4663EEE502198E63F3C7003E86AC
:10272C002390C6009385C18031A89D451D4663E169
:10273C00E5022146198E63F3C7003E862390C6003E
:10274C009385C187BA9597E0FF1FE7800027014664
:10275C00B240328541018280AD451D46E3EAE5FE7B
:10276C003146198E63F3C7003E862390C6009785C9
:10277C0002009385254DF9B7B1451D46E3EAE5FC0A
:10278C003546198E63F3C7003E862390C6009785A5
:10279C0002009385254C7DB7C1451D46E3EAE5FA59
:1027AC004546198E63F3C7003E862390C600978575
:1027BC0002009385A54679B7C1451D46E3EAE5F8C5
:1027CC004546198E63F3C7003E862390C600978555
:1027DC00020093852549BDB7C1451D46E3EAE5F6E0
:1027EC004546198E63F3C7003E862390C600978535
:1027FC0002009385E543B9B7B5451D46E3EAE5F418
:10280C003946198E63F3C7003E862390C600978520
:10281C0002009385653E3DB7970600209386469A45
:10282C004146CD4517050020130585866F90D05382
:10283C002D4541E783C805000947639CE8063285AE
:10284C00D041411106C603471600034606004168F5
:10285C002207518F130628FE6308C7026369E6003E
:10286C000518630307032390060029451DA81306CA
:10287C0048FE630BC7021518E31707FF15473E8682
:10288C006377F700154621A03E8691C30546CC45DB
:10289C002390C6004206418297E0FF1FE780E011BB
:1028AC000145B240410182803E86E3F2F8FE0946C2
:1028BC00F9BF2390060005458280828083C785007E
:1028CC0093F70702DDE7411106C622C403C40500D5
:1028DC00894E2E888547631AD40383AE4500B2888F
:1028EC0083C71E0083CE0E00A207B3E7D701C16ECB
:1028FC00138F1EFE6380E7038D1E6387D7050D685B
:10290C001308289063810707A947B24022443E85EB
:10291C0041018280AD4775FB0547B547E367D7FE9C
:10292C000325C8000546C68597E0FF1FE780E00831
:10293C0001449387C1899843814761DB184371D760
:10294C00228502978147D1B7AD4761F30547B5475B
:10295C00E36DD7FA0325C8000546C68597E0FF1F2F
:10296C00E780A005F9B72244B240854741016F804A
:10297C00A001A1473E85828041677917630CE5026F
:10298C00411122C406C685472A84639AF500228524
:10299C002244B240938581A741016F90D04789476B
:1029AC006396F5008545EFB0D07B75D1B2402244DB
:1029BC00410182808280411122C42A844165938521
:1029CC0081A77D1506C6EF9010451705000013056D
:1029DC00E5FA0588EFB0307005C02244B240970686
:1029EC0000209386A68F4146C54517F5FF1F13059A
:1029FC00E57D41016F905037B240224401454101C1
:102A0C00828009C523AEA18801458280454582801C
:102A1C001147636EA706978602009386E6250A0582
:102A2C0036951841411106C63697AE87B285028796
:102A3C0005476145639AE70005461385418897E091
:102A4C00FF1FE78080F70145B240410182800547B6
:102A5C006145E39BE7FE054613858188CDB70547A5
:102A6C006145E393E7FE05461385C188C9BF094755
:102A7C006145E39BE7FC094613850189C9B71547F6
:102A8C006145E393E7FC1546138541894DBF094524
:102A9C0082801147636AA704AA871787020013076D
:102AAC00E71E8A07BA979C43411106C6BA972E8532
:102ABC00828705469385418897E0FF1FE780E0EF0A
:102ACC00B240014541018280054693858188EDB76E
:102ADC0005469385C188CDB7094693850189E9BF21
:102AEC00154693854189C9BF09458280411122C48D
:102AFC002E84938581A726C206C6AA84EF709063A4
:102B0C00058915C197F7FF1F9387476C83D7A70BD0
:102B1C00A285B2402310F40022442685924401463B
:102B2C0041016F80103EB24022449244494541011C
:102B3C008280411193962500AA852D4506C697E003
:102B4C00FF1FE780E0B0B240014541018280411196
:102B5C0026C29394250022C44AC02A843289A686B0
:102B6C00AA850146254506C697E0FF1FE78040AEC3
:102B7C00A6864A86A285294597E0FF1FE78040ADCF
:102B8C00B240224492440249014541018280011124
:102B9C0022CC06CE3714004026CA4AC84EC652C4B0
:102BAC0083447405034AB405834984050349940599
:102BBC00EFF06FE38347A40593F4F40F137AFA0F45
:102BCC0093E71700230DF40493F9F90F1379F90F18
:102BDC00B717004003C7A705058B6DFF03D5C705C5
:102BEC00A38D4705238C3705A38C2705A38B97044E
:102BFC00F2406244D2444249B249224A0561828081
:102C0C0041119397050122C406C6C1872E8463DD4A
:102C1C000700EF00507C19C1EF00D0742165218DA5
:102C2C00B24022444101828093F7150013C5150070
:102C3C00E5FB9397250163DF0700EF60C14237F690
:102C4C000200130606E0896503C5018AEF10604097
:102C5C000965F1B7939715010145E3D307FC178577
:102C6C00020013056508EF60725513060064916548
:102C7C0003C5018AEF10E03D116555B71D7149463A
:102C8C00978502009385C501178502001305856C95
:102C9C0086CE97E0FF1FE78040DB01E91785020035
:102CAC0013054501EF60925101A0B7F600E079578A
:102CBC0098CAFD57DCCA0567B7E700E023A0E71008
:102CCC001306F00290C223A0E718010001001306BE
:102CDC00C0038145480897E0FF1FE78080D1970724
:102CEC0000209387A7A73ECA896793870780231C78
:102CFC00F1009307D0032304F102A167938707E047
:102D0C003ECEB7070105938707103ED0ED4723123F
:102D1C00F10285472303F102970700009387A7E18F
:102D2C00BEC4970700009387C7E2BEC6BD47A30584
:102D3C00F102B7F5070097070000938747883EDA42
:102D4C008146970700009387C7E47000E105194599
:102D5C003EDE97E0FF1FE780A08F58088147994619
:102D6C0070003E960346060085070507A30CC700B6
:102D7C00E398D7FED24791C70357810185676373E8
:102D8C00F70001A04808EF105001AA8501C917856A
:102D9C000200130565F3EF60322E01A0F6402561A9
:102DAC0082804111170500001305C5E506C622C433
:102DBC00EF10207B1384018A2300A40029280345EB
:102DCC0004002244B24037F60200130606E089657F
:102DDC0041016F100028411106C6F3270080A18B1A
:102DEC009386818789CBF327008023ACF1869C42A4
:102DFC00DD9B7390078001000100B717004013079B
:102E0C0070052380E704130780FA2380E704010090
:102E1C00010003C7F70213677700A387E70223803B
:102E2C000704732700809C42A18BD98F7390078075
:102E3C0023AC0186010001001305407E8147014748
:102E4C00814605468545EFF08FBCB24001454101F6
:102E5C006F10102941111305800406C622C497D0A7
:102E6C00FF1FE780802291457D55EFF08FDA914569
:102E7C007D55EFF06FE4371400408327C40A9305A7
:102E8C000002FD572326F40A0327C40C054523260C
:102E9C00F40CEFF0CFEC854513050010EFF0CFE10B
:102EAC008327840C91451305002093E707202324E6
:102EBC00F40CEFF06FE0EFF0AFF92945EF60D21FA3
:102ECC002945EF60721F8345140417850200130512
:102EDC00E5E1EF60721A2945EF60121E17850200BA
:102EEC0013054547EF60922D2945EF60F21C1785BD
:102EFC00020013052546EF60722C49335D35EFC097
:102F0C009106EFC0510DEF00102CEF00A06D97D083
:102F1C00FF1FE780A06741111785020013054500CC
:102F2C0006C6EF607215B2408547A385F18A410150
:102F3C008280B305B04017850200130525096F6028
:102F4C00B213011122CC36C606CE2E84EF003067A8
:102F5C00B24637460F00130606243376C50291CAD3
:102F6C00B285178502001305650532C6EF60D210D5
:102F7C00324622856244F240814505616FB0810A78
:102F8C0081E9B28517850200130545FC6F60D20EEE
:102F9C008547639DF50017850200130565FC09C67E
:102FAC00178502001305C5FC6F6052218947639891
:102FBC00F500178502001305A5FC7DD682808D4790
:102FCC00E39EF5FE17850200130585FC71DEB285C4
:102FDC0017850200130505FD55BF011122CC26CA29
:102FEC004AC84EC606CEAA892E89814417140020E1
:102FFC001304C4F603C5C18A63E3A4060E050905D0
:10300C00CE852295194697E0FF1FE780009B83C56C
:10301C00C18A93973500850593F5F50FA297138612
:10302C00F5FFA38027010E0622962386B18A6244FF
:10303C0083487600034866008347560003474600E2
:10304C0083463600F240D2444249B2490346260038
:10305C00178502001305C5DC05616F60F2019395BD
:10306C00340089051946A2954E8597E0FF1FE7802D
:10307C00C09D09E5850493F4F40FADBFF2406244A2
:10308C00D2444249B2490561828079719397050116
:10309C0026D206D622D44AD0C187AE8463DE071E60
:1030AC0003C5218BEF0030332A8415C50347050077
:1030BC009307000B631EF70083C7D18A094783452A
:1030CC004500130985006380E7024A85EF601033E1
:1030DC002285EF0030292165258DB250225492545F
:1030EC000259456182800D476381E5020547639073
:1030FC00E50203478500631AF7028345C50017856F
:10310C0002001305E5C4EF602277A385018A03470B
:10311C0044009307F007631AF70083558400178562
:10312C000200130565C4EF602275834744002D47E8
:10313C006387E7020547639CE70203478400A946BF
:10314C006311D7048345C40017850200130585C29B
:10315C00EF608272A385018A83454400BDB75C444D
:10316C0017850200130505C283C50700D5B74D4767
:10317C006393E7029305A005178502001305C5C2EA
:10318C00C1BFC9466316D7028345C4001785020028
:10319C00130545C075BF6D47639CE7005C441785FC
:1031AC000200130565C183C50700EF60E26C6DB7C3
:1031BC0003C7A18A55D385466319D7081D47639C5D
:1031CC00E7028357840085CB5C4417850200130506
:1031DC00E5BF83C5170003C6370003C7070083C7C5
:1031EC002700A2052206D98D5D8E2398B18A2397DC
:1031FC00C18AEF606268834744001D476395E7040A
:10320C0003471400E947E399E7F483D7018BA9D767
:10321C002314F1009387E18A83D70700094703C67B
:10322C00218B2315F100F977938727102316F100D2
:10323C002C00FD5703D521822385E18A2307F10059
:10324C00EF60A04C11BF05477DBF8946E316D7F050
:10325C0025476390E7048357840085CF5844930532
:10326C00000213060064834717000347070003C5D9
:10327C00218BA207D98F2394F18AA385018AEF00B1
:10328C00505D83D5818A178502001305E5B6EF6082
:10329C00A25E2385018AC9B593F7150085C317F67D
:1032AC00FF1F1306260A97F5FF1F9385E50803C534
:1032BC00218BEF90D13713C5140005B593F7050892
:1032CC0081CB41657D15EFC0C14713C5040831B5ED
:1032DC0093F7850085CB81572314F1002394018A41
:1032EC002397018A2398018A854783C6218B094637
:1032FC002C0003D521822385F18AEF60405F13C532
:10330C008400E1BB93F7050191CF1307802581461B
:10331C0013064006D14503D52182EFC0014213C5E7
:10332C00040165BB93F70502CDC383C7B18AA5E73A
:10333C0003C7418283D7818A03D521822DC72314E9
:10334C00F1000147854781460546C9452318010010
:10335C002315F100EF6060432AC615CD9307A00535
:10336C002300F50003C6218B2C0003D52182EF60CE
:10337C00403A0DE58547A385F18A83C7418293B70F
:10338C001700130600649305000203C5218B2382EA
:10339C00F182EF00104C13C5040281B3C94528001B
:1033AC00EF60D005CDBF03C6218B2C002314F10098
:1033BC00EF6060356DF18547A385F18A83C7418243
:1033CC0093B717002382F182F9B793F705040145EF
:1033DC00E38507D003D52182EFC0E13505661306DE
:1033EC0006969305000403C5218BEF00904613C588
:1033FC000404E5B18347250049476364F71E17872A
:10340C000200130727908A07BA979C43011122CC1C
:10341C0006CE26CA4AC8BA972A8482870504137432
:10342C00F40F83C7C18A637DF400931534008905BA
:10343C001946A6954A8597D0FF1FE780006179DD74
:10344C0083C7C18A639E870217850200130545A2B4
:10345C00EF60C256014685450D452386018AEF90E3
:10346C009125178502001305A59FEF602255F5A045
:10347C00014497140020938464AE1389C18155B71D
:10348C0017850200130505A0EF6042539717002023
:10349C009387C7AC0E04930624003E940346140095
:1034AC00BE9681450145EF90B11D0566130606C811
:1034BC009305000803C5218BEF00B0391785020076
:1034CC001305459D5DB79305000803C5218BEF00DF
:1034DC00705983451400B9ED0355A4008947A386A0
:1034EC00F18A2391A1828547A385F18A03C6218B9A
:1034FC00DD476C002316F100EF60C0161306006464
:10350C00A14503C5218BEF00D0340564130604C814
:10351C00C14503C5218BEF00D033130604969305E8
:10352C00000403C5218BEF00D03217850200130570
:10353C00659725BF178502001305C597EF60C23349
:10354C00178502001305C591EF6042472386018A57
:10355C00014685450D45EF901116F2406244D24468
:10356C00424905618280A386018AF95793050004BC
:10357C0003C5218B2391F1822385018A2394018A2F
:10358C002386018AA385018AEF00D04D8345640010
:10359C00178502001305C593EF60022E17850200F4
:1035AC001305058CEF60824165B717850200130582
:1035BC00E59365BD1785020013054594EF60024045
:1035CC0003C7C18AA547E3EAE7F88345440013051E
:1035DC005400EFF09FA051B7178502001305059317
:1035EC00F1BF8280011117050000130545AA06CE14
:1035FC0022CCEF0010771384218B85652300A40067
:10360C00938505960945EF20F051D1451D45EF20D6
:10361C007051930540062145EF20D050930540068C
:10362C003545EF20305085470D4770009145130507
:10363C00F0402304F100A304F1002305E100A305ED
:10364C00F10002C6EFA0B14430008545130580405F
:10365C00EFA0F14313069100854513059040EFA0B0
:10366C0011431306A10085451305A040EFA031427C
:10367C001306B10085451305D040EFA05141EF7002
:10368C00C00803450400EF60B0347D55EF50F03EA8
:10369C007D55EF803075177602001306E67AD54516
:1036AC000145EF50302C034504008545EF00B00375
:1036BC00F2406244056182802A86B305B0401785CA
:1036CC000200130525956F60221B011106CE19C54A
:1036DC000947630FE500F240056182806C00EFF052
:1036EC004FBB178502001305259FEF60222DE5B710
:1036FC006C00EFF00FBA178502001305A59FF5B704
:10370C0083D7418B6390A702239BB18A239CC18AE8
:10371C00239DD18A2E86178502001305A58DBE85A3
:10372C006F608215178502001305458E6F600229A4
:10373C0003574500011106CE83D7418B631FF70257
:10374C00C167F917894503C5C18223AAF18A23AC45
:10375C00018AEF003031914503C5C182EF009030F2
:10376C0085471306F100854513055030A307F1007A
:10377C00EFB01151F24005618280178502001305EC
:10378C00E588EF60A223FDB73D897D15954763ED74
:10379C00A71217870200130767840A053A951C4184
:1037AC00411122C406C6BA972E848287178502005F
:1037BC001305C5872244B24041016F60222003C724
:1037CC0025009947631CF7002E859D3783456400BF
:1037DC001785020013058586EF60020A1785020023
:1037EC0013058587C1BF03C7250095476312F702F0
:1037FC00C16703D7418BF91703D5A500630FF700F9
:10380C00EFB031741785020013050586EF60021BBB
:10381C00178502001305C58771BF239AA18A83D728
:10382C00E5001306006403C5C182239BF18A83D78C
:10383C000501239CF18A83D725018945239DF18AB3
:10384C00EF003001096613060690A14503C5C1823D
:10385C00EF0030000566130606C8914503C5C1820A
:10386C00EF00207F0356E4008355A4001785020067
:10387C001305C580EF60420061BF17850200130578
:10388C00E5810DBF83C7250011471785020013057D
:10389C006582E381E7F219476394E7022E85493D7F
:1038AC00834564002244B240177502001305057964
:1038BC0041016F50727C1785020013056581DDBDD7
:1038CC00B24022444101828082800111939705010C
:1038DC0022CC06CEC1872E8463DD070003C5C182CE
:1038EC00DD2C11C141242165218DF240624405611A
:1038FC00828093F7150085C317F6FF1F130646A5A4
:10390C00970500209385856A03C5C182EFB0510DE0
:10391C0013451400D9BF93F72500B5C313060064F3
:10392C00894503C5C182EF00C07283C7318B1387F1
:10393C001700A389E18A238CF182014789478146CC
:10394C000946ED4503D5418B2315F100EF50F0638B
:10395C002AC61DC10356A1009385818397D0FF1FF2
:10396C00E780A0052C0003D5418BEFF02F9809C5FB
:10397C00ED452800EF60802813452400BDB793F770
:10398C00850085C383C7C182130740068146130691
:10399C004006D14503D5418BEFB0E17D1345840042
:1039AC00A9B793F745000145A9D303D5418BEFB0D7
:1039BC0091580566130606C8914503C5C182512D61
:1039CC00134544001DB7797117050000130525F048
:1039DC0006D622D426D2EF00D0389384C182D147A8
:1039EC0005442380A400231AF10010089307400615
:1039FC00854513055030231CF10023088100EFB0DE
:103A0C00312817F6FF1F1306E696F14513057030A3
:103A1C00EFB01127138601839D4513056030EFB07D
:103A2C0031265008894513051031EFB07125300847
:103A3C00894513052031EFB0B124930500050D45E0
:103A4C00EF20500E930500051145EF20B00D300806
:103A5C00914513057040230481002306810023083F
:103A6C00810002CC230A0100EFA0710230008545D1
:103A7C0013050040EFA0B1017000854513051040FF
:103A8C00EFA0F1005008854513052040EFA0310050
:103A9C001008854513055040EFA0617F7D55EF5010
:103AAC00C07D7D55EF801034EFE01FD77D55EFE0E2
:103ABC009FF017F6FF1F1306668AD5450145EF5098
:103ACC00606A89472306F1008D472308F100231A09
:103ADC0001009147230AF10093870187984383C71C
:103AEC0047003000854501453ACC230EF1002304F4
:103AFC008100EFE0FFF1700085450545EFE05FF1D7
:103B0C00100885450945EFE0BFF0500889450D4583
:103B1C00EFE01FF0300895451145EFE07FEFC167EE
:103B2C001387418BF9171CC323220700138581824D
:103B3C00EFE03FED03C5040085457526B2502254D5
:103B4C0092544561828023AC05FE1C4191E7010033
:103B5C0001000CC18280BA8703A787FF6DFF23ACDD
:103B6C00B7FE82801DC18346E5FF1307F00F914716
:103B7C00639EE600411106C697E0FF1FE78080D1E7
:103B8C00B24081473E854101828095473E858280C7
:103B9C0001E9014582800145B24022444101828005
:103BAC0095654111938505D022C4C98D2A842105C0
:103BBC00C2054205C181418106C697E0FF1FE7801F
:103BCC0000C171D9FD572320050023128500230362
:103BDC00F5002105D1B71387C18B1C43411122C4B9
:103BEC0026C24AC006C601440149BA8489E7A165C8
:103BFC00952D0DC401A803C7E7FF6318A7021DC8C4
:103C0C00A165D5249840832784FF6317E40223AE73
:103C1C00F18AFD57232C04FE230FF4FE2285B240BB
:103C2C002244924402494101828011E03E8983A7DB
:103C3C0087FF6DBF3E84E5BF232CF9FED9BFA1CD14
:103C4C00411122C406C62A849707002083C7973ADD
:103C5C002E856375F400894763E8870021370D458D
:103C6C00B24022444101828083A785FF99E703C7B4
:103C7C00E5FF9307F00F6305F700ED351545CDB75C
:103C8C00238F85FE1385C18B7D3D22852244B24056
:103C9C00A165410189AC1545828023AE018A8280E1
:103CAC009387418D9C4399E33E85828003D72700FF
:103CBC006316B70003C70700E308A7FEDC47E5B7A8
:103CCC00BDCD797122D406D626D24AD04ECE01442F
:103CDC004147B3D78540858BB1CF1205314722952B
:103CEC003305E5029387418C03A907008544B394FF
:103CFC008400C204C180BE892A990327090011C718
:103D0C00032549002EC60297B24531473304E4021D
:103D1C0083A709003E941C4489E723200900232231
:103D2C000900B2502254A58D02599254F2492E85A5
:103D3C00456182800504E31EE4F88144DDB72E85DD
:103D4C00828041111397050122C406C626C24AC0BF
:103D5C0041872E84635E0700BD3D11C12135A167EB
:103D6C003D8C2285B240224492440249410182801A
:103D7C00EDD9AA8701474146B356E440858A9DCACE
:103D8C009207BA97B146B387D7029386418C03A9A1
:103D9C0006008544B394E400C204C1803E99832795
:103DAC0009000325490082972320090023220900DA
:103DBC00258C45BF0507E311C7FC8144D5BF970788
:103DCC0000209387671F9C53411122C406C613849D
:103DDC00C18399C782971C403E9523AEA18229A02E
:103DEC009387C18C9C43FDF70840B747030093872A
:103DFC00D73F3305F502B7A72600938737ECB240BF
:103E0C0022443E9523AEA1824101828079C99387D9
:103E1C00C18C9C43797122D426D24AD04ECE52CC3E
:103E2C0056CA5AC806D65EC63A8AB689328BAE8A4C
:103E3C002A8982979387418C9843BE840144B1466A
:103E4C00C147B30BD40233067701104251E6C1656A
:103E5C00938505F0414597E0FF1FE78040971DE5EE
:103E6C0097070020938747159C5B2D4589C7114503
:103E7C00814582972D45B250225492540259F249F1
:103E8C00624AD24A424BB24B456182809387418D44
:103E9C0098431DEF23AAA18C230005009C400547E5
:103EAC003317870023260500232465012311E50021
:103EBC0023224501DE9723A0270123A2570123A427
:103ECC0047010145E38909FA238089006DB73E87D4
:103EDC005C47F5FF48C7C9B70504E314F4F6214560
:103EEC0059BF094582809707002083C7B710637FAD
:103EFC00F5001387018C9317150008433E958357E3
:103F0C000500DD8D2310B500014582800D458280B2
:103F1C009707002083C7170E6371F5021387018C76
:103F2C0093171500084393C5F5FF3E95835705007D
:103F3C00FD8D2310B500014582800D45828013074D
:103F4C0005FF1377F70FFD4763E5E70AB146B306A4
:103F5C00D5029387418C984389473697184359CBA0
:103F6C00011122CC4EC60544935945003D893315A9
:103F7C00A40013140501418026CA4E85AE84A28587
:103F8C004AC806CE313B2A89814721CDA2854E8570
:103F9C0041379387C18C9C4382979707002083D726
:103FAC00270A338797022A84814613060064B3B725
:103FBC00970213050732B335E500BE95EF50E24684
:103FCC00B307850097060020938606073E87D442E8
:103FDC0063E4A70063E4D7003387D7402324E900C8
:103FEC008147F2406244D2444249B2493E85056160
:103FFC00828089473E858280011126CA06CE22CC5A
:10400C004AC84EC6BD47894463EDA7023147330702
:10401C00E5029387418C9C438944BA979C4395C392
:10402C0005443314A400420441802E890145A28525
:10403C008539AA89814411C5A2850145D13D23A4A6
:10404C002901F240624426854249D244B2490561B5
:10405C0082809707002083C7F7F96364F500014558
:10406C00828001119387C18C56C283AA070006CEA9
:10407C0022CC26CA4AC84EC652C4638D0A0A170AF5
:10408C000020130A6AFB83244A00B74736FE938745
:10409C0007C8AE899705002083D585FABE94B387EF
:1040AC00C5022A8432898146B3B5C502138507320D
:1040BC00B337F50013060064BE95EF50023763EB7F
:1040CC00A406829A9705002083D585F7B38725032C
:1040DC00AA84130600648146B3B525031385073201
:1040EC00B337F500BE95EF504234B3079500BE844C
:1040FC0003274A0063E4A70063E4E700B384E740C6
:10410C00CE852285713E01C504C505452DA093655C
:10411C0004F0C205C181414597D0FF1FE780206B99
:10412C0005E597070020938727E99C5B81C7A2854B
:10413C00114582970145F2406244D2444249B2494A
:10414C00224A924A056182809387418D9C438DE37C
:10415C0023AAA18C85472326050004C5231135010C
:10416C0023008500A300F5002322050079BFBA8740
:10417C00D84775FFC8C7F9BF49C9797122D426D26F
:10418C004AD04ECE52CC56CA5EC662C466C206D661
:10419C005AC83689328AAE89AA844144314C938AF2
:1041AC00418C854C930B0003330B840303A70A004B
:1041BC005A971C43B1E79375F400B395BC001355A3
:1041CC004440C2055286C1811375F50F59350DC98E
:1041DC0083A70A000145DA9784C323A2370163043D
:1041EC00090023008900B250225492540259F2491A
:1041FC00624AD24A424BB24B224C924C456182806D
:10420C000504E31374FB2145F9BF09458280411174
:10421C0022C426C24AC006C62A842E89B284153D01
:10422C00CA852285EFF0DFA705CD9705002083D541
:10423C0025E1B38795022A84130600648146B3B541
:10424C00950213850732B337F500BE95EF50E21D8A
:10425C0048C00145B2402244924402494101828047
:10426C002145CDBF411122C426C24AC006C62A89A7
:10427C002E84EFF0FFA2AA8419C123110500A28598
:10428C004A8579319707002083C7C7D663972701E2
:10429C0083D7818C5D8C2394818C014591E01945E9
:1042AC00B240224492440249410182809307F002B9
:1042BC0063E6A7044111B14722C43304F50226C2B8
:1042CC009384418C9C4006C6A297984389470DC3A2
:1042DC009377F5008545B395F500C205C181118131
:1042EC0051379C40A29723A0070023A207008147C7
:1042FC00B240224492443E854101828089473E85EA
:10430C008280411106C622C4EFF09F9911E5014548
:10431C00B2402244410182809387C18C9C4300456A
:10432C00829797070020938727D16368A402D8430C
:10433C00B74636FE938606C83305A4403697E37815
:10434C00E5FC13070064B335E50203D6870081460C
:10435C003305E502EF50620D65BFD8433A94C1BFF7
:10436C00411122C426C2170400201304E4CC970484
:10437C000020938424C8944858409387C18C06C667
:10438C009C43639FE60682975440B74736FE93875B
:10439C0007C8B6973387A7003A856364F700636450
:1043AC00D7003305D740970400209384A4E09C4C9D
:1043BC0091CB9387C19B94433707CDFF7D179C46C8
:1043CC00F98F9CC611E14840970700209387C7BE20
:1043DC00DC53829719E59C4C99CFEF40D15CEF40B0
:1043EC00C1399C4C89CB9387C19B9843B70633004A
:1043FC001C47D58F1CC7B240224492444101828095
:10440C00829798489707002083C757BC54401D8F4C
:10441C00B307A7003E8563E4E700E3E6D7F83385EE
:10442C00D74051B7411106C623A8A18C0295B240C2
:10443C009707002023ACA7BC014541018280994716
:10444C0063E9B7008A0597070020938727BDBE95BF
:10445C0088C18280411171468145170500201305E2
:10446C00E5BB06C623AA018C23A8018C23A6018CCC
:10447C0097C0FF1FE780E0571306800281451705A0
:10448C000020130525B797C0FF1FE7808056EFB0BB
:10449C00E13E9707002083C797B313D527008D8B78
:1044AC003E958D473305F502854539051375F50F96
:1044BC00970700202381A7B499473305F50213050C
:1044CC00052497D0FF1FE780803023A2A18C59C50B
:1044DC00994717060020034606B23306F6028145BB
:1044EC001306062497C0FF1FE780A0509387418CCA
:1044FC009C439387072423ACF18C170700200347B8
:10450C0087AF0A07BA9723A0F18CEFF00FF90523B8
:10451C009387818D94439707002083C7B7AD13977A
:10452C002700369717F6FFFF1306C67910C31387BB
:10453C0017001377F70F0A073697170600001306B4
:10454C00868010C313873700890793F7F70F8A0704
:10455C0097050020A380E5AAB69790C3B24041010D
:10456C0082809707002083C7F7A81707002003470E
:10457C0087A863F1E7021387818D18439386170090
:10458C0017060020A308D6A693962700369708C3D3
:10459C003E8582809307F00FE5BF1C4163880716A8
:1045AC0041777D8FB706002089476312D7160357D2
:1045BC004500630E0714411122C419462A84930541
:1045CC00F00F690506C697C0FF1FE780A04C054792
:1045DC008D476308E5121C4481CB585899476302F8
:1045EC000712185C630F07101306C00381451705EB
:1045FC0000201305659C97C0FF1FE780803F1306C2
:10460C00C003A285170500201305059B97C0FF1F4B
:10461C00E780A03A170700200357C79A9707002096
:10462C009387879919E71307001097060020239B9F
:10463C00E698170700200347079911E705479706E7
:10464C0000202382E698170700200357E79711E70D
:10465C006D47970600202399E6961707002003471D
:10466C00979611E7154797060020A38EE694170737
:10467C0000200347879511E70547970600202386FE
:10468C00E694170700200347579419E703C7F70070
:10469C0097060020A38BE692170700200347079389
:1046AC0011E73547970600202382E6921707002072
:1046BC000347179219E71307800297060020A38976
:1046CC00E690170700200347779019E71307D002ED
:1046DC0097060020A38CE68E0347840119E7130785
:1046EC00C003970600202385E68E9C5791C78297BE
:1046FC00970700202394A790FD57A387F1A2993B1D
:10470C008147B24022443E854101828089473E85E3
:10471C00828001114EC6970900209389E99183A7E5
:10472C00090006CE22CC26CA4AC852C48297130965
:10473C000064B335250303DA8900814652863305BC
:10474C002503EF40924E970700209387A78A804F4E
:10475C00AA8401456306940233858440636E9400F9
:10476C0003A5490052868146B335A9023305A90237
:10477C00EF40B24B018D26959707002023A8978810
:10478C00F2406244D2444249B249224A05618280D5
:10479C00011122CC0A852E8441469765020093852F
:1047AC00254206CEEF50E201180806043A94035550
:1047BC0004FF9707002083D7C788F2406244AA976A
:1047CC0037450F00130505243355F502056182802A
:1047DC009707002083D7E78651471D45637CF70276
:1047EC00794719456378F70213072003154563735E
:1047FC00F7021307B0041145637EF7001307400658
:10480C000D456379F7001307600909456374F700D8
:10481C0013B5B70F8280011122CC06CE2A842EC686
:10482C00EFF0EFD9B245F240818D33A5A502229568
:10483C0062441375F50F05618280011122CC06CEFE
:10484C002A842EC6EFF0AFD7B245F240818D33A546
:10485C00A5022295624442054181056182800111C5
:10486C0022CC06CE2A842EC6EFF06FD5B245F2408C
:10487C00818D33B5A502229562440561828097F73C
:10488C00FF1F93876773985739CB411122C426C2F7
:10489C0006C6BE84029717F7FF1F035727762A8494
:1048AC0015CBBA876373A700AA87C207C183BA86E0
:1048BC006373E400A286C206C182958F5147635B85
:1048CC00F700DC5491C38297EF40E17997F7FF1F13
:1048DC0023968772B24022449244410182808280A6
:1048EC0097F7FF1F9387476DDC57011106CEAA85FA
:1048FC0081C72AC68297B245D1C19C410545A5CF37
:10490C00DC41B5CB83D78500BDC783D7A500A5C730
:10491C0083C7C500ADE3414617F5FF1F1305C571ED
:10492C0097C0FF1FE780600997F7FF1F9387C77039
:10493C009C4323A6F18C97F7FF1F83C777698DE7FC
:10494C009307800217F5FF1F0355856F3305F5029A
:10495C0037460F001306062481468145EF40F22CA2
:10496C0097F7FF1FA386A766170500001305A5DAA6
:10497C00EFF05FAB0145F2400561828097F7FF1FB6
:10498C0083C7E7641397870161876354070497F71C
:10499C00FF1F23AF076697C7FF1F9387C74217F701
:1049AC00FF1F232BF7687D5797F7FF1F23A8E76896
:1049BC00B7873200938727A197F6FF1F23A2F668CB
:1049CC0097F7FF1F23800768B7C7004023A4E7268B
:1049DC00A1BF13F7170005CFB7872003938707D024
:1049EC0017F7FF1F232EF764B707C0A817F7FF1F91
:1049FC002326F76497C7FF1F9387074017F7FF1FFE
:104A0C00232CF76297F7FF1F238E076231BF617764
:104A1C0097F6FF1F2396E66281CB9307003217F7B8
:104A2C00FF1F2310F762C9B793072003CDBF0111F5
:104A3C0022CC17F4FF1F13042458084406CE26CAB0
:104A4C004AC801E90545F2406244D2444249056135
:104A5C0082805C58E5DB185C75D7700085458297C1
:104A6C001844B247E300F7FE9305E00417F5FF1F67
:104A7C000355455597D0FF1FE78060D517F7FF1FEB
:104A8C00232AA75861D117F6FF1F0356A653930587
:104A9C00F00F97C0FF1FE780C0F5814417F9FF1F87
:104AAC001309495597F7FF1F83C7E75103260902DE
:104ABC0063C1F402328597D0FF1FE780A0DD01456A
:104ACC0097F7FF1F23A8075497F7FF1F23A6075438
:104ADC009DBF97F5FF1F83D5E54EB387950208441C
:104AEC00185C898185043E9508C2029765BF011147
:104AFC0056C297FAFF1F938A2A4C83A78A0022CCAE
:104B0C004AC84EC606CE26CA52C45AC0AA892E849A
:104B1C0032896385072203A74A03630707147D477D
:104B2C006366A71497F4FF1F9384C44C03AA040272
:104B3C0063170A0A9565938515E017F5FF1F035552
:104B4C00654897D0FF1FE78080C897F7FF1F23A306
:104B5C00A74C2A86630A051083A74A0303A58A007B
:104B6C0097F5FF1F83D505468981829783A78A0015
:104B7C0003AA040217F7FF1F2320F74A8947639CF7
:104B8C00F908C1476312F40E97F5FF1F83D58543CF
:104B9C00938505FC9147B3C5F5028A05D29503C7E9
:104BAC0005009307A005631DF70A83C715006399D9
:104BBC00370B4A852286910597C0FF1FE780E0DFFF
:104BCC009C505285639347150145F2406244D24490
:104BDC004249B249224A924A024B05618280D8501E
:104BEC00E38EE7F89565938525E017F5FF1F0355D0
:104BFC00653D97D0FF1FE78080BD2A8A35C52A8680
:104C0C0083A74A0303A58A0097F5FF1F83D5853B2D
:104C1C0089818297A5B78D47639DF900C1476315BC
:104C2C00F40497F5FF1F83D5E539938545FDF1997C
:104C3C00B5B79147639AF9006318340397F5FF1FD2
:104C4C0083D54538A115E5B7C147639FF900A14746
:104C5C0063EC870097F5FF1F83D5C536C115C1BF1F
:104C6C009C5052856397470D294585B71307F0066D
:104C7C00568B6361A70A130A05FE1947334AEA02E9
:104C8C0017F7FF1F0357073497FAFF1F938A8A36CB
:104C9C00330AEA023E9A83A74A026395470183A42A
:104CAC000A029DE49305E00417F5FF1F03558531B7
:104CBC0097D0FF1FE780A0B1AA845DD583274B0353
:104CCC0097F5FF1F83D505302A86898152858297F7
:104CDC0091451307A005898193972500A69783C654
:104CEC0007006393E60483C61700639C36038505AF
:104CFC008A052286A6954A8597C0FF1FE780E0CBE0
:104D0C0083A70A02E38297EC268597D0FF1FE780E2
:104D1C0060B85DBD1307E007E368A7F4130A05F953
:104D2C0085B783D5270045BF83A70A02E38E97F288
:104D3C00268597D0FF1FE780E0B53DB797F7FF1F9B
:104D4C009387472B8C538DD191479306A00589836C
:104D5C00139727002E9703460700E317D6F0034658
:104D6C001700631C360185078A072286BE954A8583
:104D7C0097C0FF1FE78060C481BD83572700C1BF68
:104D8C0097F7FF1F93874723984739C79C5FA9C79D
:104D9C0005476313E504411122C417F4FF1F1304E4
:104DAC006425105006C60DC6485097F5FF1F83D5D5
:104DBC00652189818297085097D0FF1FE78080ADCD
:104DCC0097F7FF1F23A8072497F7FF1F23A6072495
:104DDC00B2402244410182808280011117F7FF1FEB
:104DEC001307871D4EC68329870022CC26CA4AC8C2
:104DFC0006CE52C456C2AA842E843289638A0920F4
:104E0C001C5FBA8A99EB2945F2406244D24442496C
:104E1C00B249224A924A056182805C5BEDD7FD471C
:104E2C0063E9A70E97F9FF1F9389C91C83A7090291
:104E3C00B1CB03A58A0083A749026395A7068947CE
:104E4C006393F408C147E310F4FC17F5FF1F0355F7
:104E5C0065179147130505FC3345F502931725009B
:104E6C0003A509022286CA853E959307A005230057
:104E7C00F500A3009500110597C0FF1FE780E0B374
:104E8C00014559B79305E00417F5FF1F035585132A
:104E9C0097D0FF1FE780A09397F7FF1F23ACA716AF
:104EAC0049F995B783A74A0303A6090297F5FF1F93
:104EBC0083D545118981829783A78A0017F7FF1F35
:104ECC00232CF714ADBF8D47639EF400C147E31C40
:104EDC00F4F217F5FF1F0355E50E130545FD937707
:104EEC00C5FFBDBF9147639AF400E31E94F017F51C
:104EFC00FF1F0355250D2115DDB7C147E395F4F0D0
:104F0C00A147E3E287F017F5FF1F0355A50B4115E9
:104F1C00F9B79307F00663EAA706930705FE19474E
:104F2C00B3C7E70217F7FF1F0357C70917FAFF1F8D
:104F3C00130A4A0CB387E702BE9983270A02A9CF4A
:104F4C0083274A02639A370703250A0291461308FE
:104F5C00A005FD5593D72600C207C18313972700E0
:104F6C002A9703460700631D06078348170003565C
:104F7C00270063959806B306D64063CF8604850751
:104F8C008A072286CA853E95C5BD9307E007E3ECE8
:104F9C00A7E6930705F979B79305E00417F5FF1F0A
:104FAC000355450297D0FF1FE780608297F7FF1FDC
:104FBC0023A2A70651F581BD83A74A0303260A0243
:104FCC0097F5FF1F83D5050089814E85829797F74A
:104FDC00FF1F23A337058DBFA300B700B2869DBF6B
:104FEC00B385860017F6FF1F0356C6FD9105130601
:104FFC0006FCE3FAC5E0130634001376C60F11065F
:10500C00B29623000701A30097002311D70085BF98
:10501C0097F7FF1F938707FE9453BE89A1C203A580
:10502C00090291461308A005FD5593D72600C20727
:10503C00C183139727002A970346070063160605BA
:10504C00834817000356270063989800B306D64090
:10505C00E3D786F2A300B700B286C1BF8357C7005F
:10506C0017F5FF1F034525F69305E0043305F502FC
:10507C004205418197C0FF1FE780607597F7FF1FBE
:10508C0023AAA7F849FD41B317F6FF1F035686F371
:10509C0097F5FF1F83C525F3B385C50233868600BC
:1050AC001106E3E2C5D681BF01458280011106CE0F
:1050BC002EC6EF90407901C9B245F2400355250048
:1050CC0005616FD0D030F240494505618280A382E2
:1050DC0001902382019023A6018E23A8018E23AA7E
:1050EC00018E23AC018E23A4018E23A2018E97F78F
:1050FC00FF1F938767F5370684033707B40090D3F7
:10510C0037C6070098C3130606B83747A000D8C3A4
:10511C00D0D33707100041669306070AB705500035
:10512C009308060194C723A41703938605019308DB
:10513C0016F8D4C723A61703B706D007B7087F0005
:10514C001308070513850601410723A81703B0C3ED
:10515C00930816009386060513861500D8CBF8C362
:10516C0023A8070188CF23AE070023AA170323AC7B
:10517C00070223AE070223A40704F0C7B4CB23AA6B
:10518C000704ACCF23AE0705B8D33707A000F8D778
:10519C001307000AB8DB1307C01CF8DB3707140031
:1051AC00B8DF0547F8DF130710F8E8D323A4070688
:1051BC0023A0070823A2E7088280011126CAAA842B
:1051CC00214522CC06CE2E8432C636C43AC2EFE03C
:1051DC003F9C1DC9A24612473246930700FD23008F
:1051EC00F5009947A30095002301F5002303D50092
:1051FC00A303E5002312C500AA8522856244F24070
:10520C00D24405616FE0BFA3F2406244D244056111
:10521C00828023A6A18E828023A8A18E828023AABD
:10522C00A18E828023ACA18E8280011122CC4AC82F
:10523C0006CE26CA2A890144B30489006368B400E7
:10524C00F2406244D2444249056182802EC6EFE0AE
:10525C001FB793170501C183A183B2452380F400C6
:10526C009307140093F7F70F850463F9B700CA97F7
:10527C0009042380A7001374F40F7DBF3E847DBF07
:10528C00C16717F5FF1F035505E5FD176304F5020C
:10529C00411117F6FF1F034626F19385C18F06C6F1
:1052AC00EF906039B240FD5717F7FF1F2315F7E257
:1052BC0041018280828009C925151375F50F1335BC
:1052CC00850E1345150082800145828023900500D0
:1052DC00C9C6797122D426D24ECE52CC5AC806D623
:1052EC004AD056CA5EC63684328AAE892A8B81442D
:1052FC0063F34407B307940083C7070013891400B2
:10530C004209939A070193DA0A011359090163843C
:10531C000A04CA976341FA04B307240183CB07003C
:10532C005E85513F0DC99387FAFF2390F900639076
:10533C006B03130519002295B25022549254025952
:10534C00F249624AD24A424BB24B45618280D694B2
:10535C00C204C18071BF0145C5B7014582804111AE
:10536C0026C2AE8422C497F7FF1F23ADC7D697F78A
:10537C00FF1F23A7B7D697F7FF1F23A1A7D62A8411
:10538C0041469305F00F26854AC006C6054997B0DD
:10539C00FF1FE78020706310250597F7FF1F938789
:1053AC0027D3884BC145513541469305F00F2285D3
:1053BC0097B0FF1FE780006E854463189502224466
:1053CC0097F7FF1F9387C7D0B24092440249C84752
:1053DC00C145410199BD41468145268597B0FF1FC6
:1053EC00E780406BE31225FD4DBF41468145228588
:1053FC0097B0FF1FE780006AE30395FCB24022449C
:10540C009244024941018280411122C426C22E8459
:10541C00AA8413060002814517F5FF1F130545CB1F
:10542C0006C697B0FF1FE780C05C97F7FF1FA382EB
:10543C0097CA97F7FF1F238B87D6EFD0807B8547C2
:10544C0019C181474945B240224417F7FF1F230178
:10545C00F7C8924441018280814781CD19C98547A3
:10546C00631BF50083C7550093E707FCA382F50087
:10547C0085473E85828089476317F50083C75500B1
:10548C0093F7F703E5B70D478547E314E5FE03C72C
:10549C0055001377F70313670704A382E500D1BF08
:1054AC0081478DC105C103C755009306000C854784
:1054BC001377070C6308D700930600048D4763032A
:1054CC00D70089473E858280411122C4005D06C603
:1054DC0026C21DC8AA84085009C597C0FF1FE780C3
:1054EC00603B485009C597C0FF1FE780A03A08549D
:1054FC0009C597C0FF1FE780E039228597C0FF1FC1
:10550C00E780403923AC0402B2402244924441016A
:10551C00828009ED97F7FF1F83C7A7BB17F5FF1F05
:10552C00130585BC81CB1385C18D828017F5FF1FB8
:10553C00130585BB828017F5FF1F034585B9828053
:10554C0097F7FF1F9387C7B8C847828097F7FF1F4D
:10555C00938707B8884B828097F7FF1F938747B7CD
:10556C00DC4B8843828097F7FF1F938767B6D84B35
:10557C001C4385071CC317F5FF1F034595B59307FF
:10558C00F00F6305F50091656FE0FF9582800111C6
:10559C0022CC06CE2E8432C6EF90203B9147B245EA
:1055AC00631FF5009387818F9C438DC303A3070072
:1055BC00630E030022856244F240056102839387E7
:1055CC00018F9C4381C703A34700DDB7F2406244BF
:1055DC00054505618280011122CC2A8403554500C2
:1055EC0006CE26CA4AC84EC6EF90401535C52A8944
:1055FC00834405008349C500C13D4A85EF90E072A4
:10560C0003554400EF90A02F83C74190B1CB639911
:10561C00970483C551902685EFF05FA919E1238289
:10562C00019003554400EF9040329147631FF50001
:10563C000357440097F7FF1F83D7E7A96317F700B9
:10564C00FD5717F7FF1F2318F7A8F2406244D24406
:10565C004249B2490561828081499304F00F6DB7CC
:10566C009307F00FE38FF4FA83466400035644006B
:10567C00034524004E87A685EFF03FB45DB77971E2
:10568C005EC6AA8B2E8552CC56CA5AC806D622D4D0
:10569C0026D24AD04ECEAE8A328B368AEF90000A92
:1056AC007DC1045D2A89E5C09C50614599C31305F1
:1056BC0040039C5481C751054205418163050A0092
:1056CC00710542054181DC5081C75D054205418170
:1056DC00EFE00FCC2A8445C96146814597B0FF1F86
:1056EC00E780203197F9FF1F83C90999639409005A
:1056FC0083490900930700FD2300F400A947A30088
:10570C0074012301F400230364018C50231254010F
:10571C001305840191C908C47146930A440397B0D8
:10572C00FF1FE780802956858C5491C948C4514687
:10573C00930A450197B0FF1FE78020285685630C1C
:10574C000A0008C87146D285930AC50197B0FF1F9D
:10575C00E780A0265685CC5099C548C85D4697B0C1
:10576C00FF1FE7808025A2854E85EFE04FCD2254A8
:10577C00B2509254F249624AD24A424BB24B4A85D9
:10578C000259456191B3B250225492540259F249D4
:10579C00624AD24A424BB24B4561828001114EC6DD
:1057AC00AA892E854AC806CE22CC26CA2E89EF801D
:1057BC00F07821C997F4FF1F83C4048C99E08344CB
:1057CC0005001945EFE0CFBC2A8405CD814519466B
:1057DC0097B0FF1FE780E021930700FD2300F40042
:1057EC00B947A30034012301F40023122401A2853C
:1057FC006244F2404249B2492685D24405616FE0C9
:10580C000FC4F2406244D2444249B24905618280DD
:10581C0039715ECEAA8B2E8526DA4ED652D456D24C
:10582C005AD006DE22DC4AD8AE84328BB68A3A8A4B
:10583C00BE8942C6EF80907021CD2A894145EFE0A8
:10584C002FB52A8431C54146814597B0FF1FE780AB
:10585C00401A17F5FF1F0345258219E1034509007E
:10586C00930700FD2300F400BD472301F400B24769
:10587C00A30074012312940023046401A3045401B3
:10588C0023054401A30534015CC4A285EFE02FBBC2
:10589C00F2506254D2544259B259225A925A025B73
:1058AC00F24B21618280797126D2AA8439454AD083
:1058BC004ECE06D622D42EC6B2893689EFE04FAD35
:1058CC0021C1B2459307000D2310F500B1472A847E
:1058DC002312B5002301F500CE851905194697B0A2
:1058EC00FF1FE780800D23062401A2852254B250AD
:1058FC000259F24913F5F40F925445616FE02FB43D
:10590C00B250225492540259F2494561828017E7F1
:10591C00FF1F0347177C9307F00F630DF706411128
:10592C0026C2AA84394522C406C64AC0EFE04FA657
:10593C002A8439C9930700FD2300F500A3009500C4
:10594C002301050097E5FF1F9385057A0D05194680
:10595C0097B0FF1FE780600617E9FF1F130949770F
:10596C0083578900A28517E5FF1F034595762315FC
:10597C00F400834719002306F4002244B2409244F9
:10598C00024941016FE0AFABB2402244924402495C
:10599C0041018280828001115AC02A8B314526CA6E
:1059AC004EC652C456C206CE22CC4AC8AE84B28A67
:1059BC00368ABA89EFE0CF9D35CD2A842685EF80D3
:1059CC00F05711C50347C500A1476314F70417E945
:1059DC00FF1F03491970930700FD2300F4009D4736
:1059EC00A30064012301F400231294002313540137
:1059FC002314440123153401A2856244F240D2449D
:105A0C00B249224A924A024B4A85424905616FE0EB
:105A1C000FA317E9FF1F03497979E31E0BFA93874C
:105A2C0041A19C439C47C5DBCE865286D6852685F4
:105A3C00829755B7F2406244D2444249B249224A55
:105A4C00924A024B05618280011122CC2A842145A5
:105A5C0006CE2EC6EFE0CF9321C1B245930700FDD1
:105A6C002300F500C5472301F50083C73500A301CA
:105A7C00F50083D745002312F50083C76500230387
:105A8C00F50083C77500AA85A303F500228562443F
:105A9C00F24005616FE0AF9AF2406244056182808A
:105AAC00397162CC2A8C594526DA4AD84ED652D452
:105ABC0056D25AD05ECE06DE22DCAE8432C636C456
:105ACC00BA8B3E8BC28A468A83590104034941042E
